{
	"contracts/PadiStorage.sol": {
		"PadiStorage": {
			"abi": [
				{
					"inputs": [],
					"stateMutability": "nonpayable",
					"type": "constructor"
				},
				{
					"inputs": [
						{
							"internalType": "address",
							"name": "owner",
							"type": "address"
						}
					],
					"name": "OwnableInvalidOwner",
					"type": "error"
				},
				{
					"inputs": [
						{
							"internalType": "address",
							"name": "account",
							"type": "address"
						}
					],
					"name": "OwnableUnauthorizedAccount",
					"type": "error"
				},
				{
					"anonymous": false,
					"inputs": [
						{
							"indexed": true,
							"internalType": "uint256",
							"name": "caseId",
							"type": "uint256"
						},
						{
							"indexed": true,
							"internalType": "address",
							"name": "member",
							"type": "address"
						},
						{
							"indexed": true,
							"internalType": "address",
							"name": "lawyer",
							"type": "address"
						},
						{
							"indexed": false,
							"internalType": "bool",
							"name": "resolved",
							"type": "bool"
						}
					],
					"name": "CaseUpdated",
					"type": "event"
				},
				{
					"anonymous": false,
					"inputs": [
						{
							"indexed": true,
							"internalType": "uint256",
							"name": "incidentId",
							"type": "uint256"
						},
						{
							"indexed": true,
							"internalType": "address",
							"name": "corroborator",
							"type": "address"
						},
						{
							"indexed": false,
							"internalType": "uint256",
							"name": "timestamp",
							"type": "uint256"
						}
					],
					"name": "CorroborationAdded",
					"type": "event"
				},
				{
					"anonymous": false,
					"inputs": [
						{
							"indexed": true,
							"internalType": "uint256",
							"name": "incidentId",
							"type": "uint256"
						},
						{
							"indexed": true,
							"internalType": "address",
							"name": "reporter",
							"type": "address"
						},
						{
							"indexed": false,
							"internalType": "uint256",
							"name": "timestamp",
							"type": "uint256"
						}
					],
					"name": "IncidentReported",
					"type": "event"
				},
				{
					"anonymous": false,
					"inputs": [
						{
							"indexed": true,
							"internalType": "address",
							"name": "wallet",
							"type": "address"
						},
						{
							"indexed": false,
							"internalType": "bool",
							"name": "active",
							"type": "bool"
						}
					],
					"name": "LawyerUpdated",
					"type": "event"
				},
				{
					"anonymous": false,
					"inputs": [
						{
							"indexed": true,
							"internalType": "address",
							"name": "wallet",
							"type": "address"
						},
						{
							"indexed": false,
							"internalType": "uint256",
							"name": "nftId",
							"type": "uint256"
						},
						{
							"indexed": false,
							"internalType": "bool",
							"name": "active",
							"type": "bool"
						}
					],
					"name": "MemberUpdated",
					"type": "event"
				},
				{
					"anonymous": false,
					"inputs": [
						{
							"indexed": true,
							"internalType": "address",
							"name": "previousOwner",
							"type": "address"
						},
						{
							"indexed": true,
							"internalType": "address",
							"name": "newOwner",
							"type": "address"
						}
					],
					"name": "OwnershipTransferred",
					"type": "event"
				},
				{
					"inputs": [
						{
							"internalType": "uint256",
							"name": "incidentId",
							"type": "uint256"
						},
						{
							"components": [
								{
									"internalType": "address",
									"name": "member",
									"type": "address"
								},
								{
									"internalType": "uint256",
									"name": "timestamp",
									"type": "uint256"
								},
								{
									"internalType": "string",
									"name": "comment",
									"type": "string"
								},
								{
									"internalType": "string[]",
									"name": "mediaURIs",
									"type": "string[]"
								}
							],
							"internalType": "struct PadiTypes.Corroborator",
							"name": "corroborator",
							"type": "tuple"
						}
					],
					"name": "addCorroboratorToIncident",
					"outputs": [],
					"stateMutability": "nonpayable",
					"type": "function"
				},
				{
					"inputs": [
						{
							"components": [
								{
									"internalType": "uint256",
									"name": "id",
									"type": "uint256"
								},
								{
									"internalType": "address",
									"name": "member",
									"type": "address"
								},
								{
									"internalType": "address",
									"name": "lawyer",
									"type": "address"
								},
								{
									"internalType": "string",
									"name": "descriptionMetadata",
									"type": "string"
								},
								{
									"internalType": "uint256",
									"name": "creationDate",
									"type": "uint256"
								},
								{
									"internalType": "uint256",
									"name": "resolutionDate",
									"type": "uint256"
								},
								{
									"internalType": "bool",
									"name": "resolved",
									"type": "bool"
								},
								{
									"internalType": "uint256",
									"name": "rewardAmount",
									"type": "uint256"
								}
							],
							"internalType": "struct PadiTypes.Case",
							"name": "_case",
							"type": "tuple"
						}
					],
					"name": "addOrUpdateCase",
					"outputs": [],
					"stateMutability": "nonpayable",
					"type": "function"
				},
				{
					"inputs": [
						{
							"components": [
								{
									"internalType": "uint256",
									"name": "id",
									"type": "uint256"
								},
								{
									"internalType": "address",
									"name": "reporter",
									"type": "address"
								},
								{
									"internalType": "string",
									"name": "descriptionMetadata",
									"type": "string"
								},
								{
									"internalType": "uint256",
									"name": "timestamp",
									"type": "uint256"
								},
								{
									"internalType": "enum PadiTypes.VerificationStatus",
									"name": "status",
									"type": "uint8"
								},
								{
									"internalType": "address",
									"name": "verifiedBy",
									"type": "address"
								},
								{
									"components": [
										{
											"internalType": "address",
											"name": "member",
											"type": "address"
										},
										{
											"internalType": "uint256",
											"name": "timestamp",
											"type": "uint256"
										},
										{
											"internalType": "string",
											"name": "comment",
											"type": "string"
										},
										{
											"internalType": "string[]",
											"name": "mediaURIs",
											"type": "string[]"
										}
									],
									"internalType": "struct PadiTypes.Corroborator[]",
									"name": "corroborators",
									"type": "tuple[]"
								},
								{
									"internalType": "string[]",
									"name": "mediaURIs",
									"type": "string[]"
								}
							],
							"internalType": "struct PadiTypes.Incident",
							"name": "incident",
							"type": "tuple"
						}
					],
					"name": "addOrUpdateIncident",
					"outputs": [],
					"stateMutability": "nonpayable",
					"type": "function"
				},
				{
					"inputs": [
						{
							"components": [
								{
									"internalType": "address",
									"name": "wallet",
									"type": "address"
								},
								{
									"internalType": "uint256[]",
									"name": "caseIds",
									"type": "uint256[]"
								},
								{
									"internalType": "string",
									"name": "profileURI",
									"type": "string"
								},
								{
									"internalType": "uint256",
									"name": "joinDate",
									"type": "uint256"
								},
								{
									"internalType": "uint256",
									"name": "totalRewards",
									"type": "uint256"
								},
								{
									"internalType": "bool",
									"name": "active",
									"type": "bool"
								}
							],
							"internalType": "struct PadiTypes.Lawyer",
							"name": "lawyer",
							"type": "tuple"
						}
					],
					"name": "addOrUpdateLawyer",
					"outputs": [],
					"stateMutability": "nonpayable",
					"type": "function"
				},
				{
					"inputs": [
						{
							"components": [
								{
									"internalType": "address",
									"name": "wallet",
									"type": "address"
								},
								{
									"internalType": "address",
									"name": "representative",
									"type": "address"
								},
								{
									"internalType": "uint256",
									"name": "nftId",
									"type": "uint256"
								},
								{
									"internalType": "string",
									"name": "metadataURI",
									"type": "string"
								},
								{
									"internalType": "uint256",
									"name": "joinDate",
									"type": "uint256"
								},
								{
									"internalType": "uint256",
									"name": "totalCases",
									"type": "uint256"
								},
								{
									"internalType": "bool",
									"name": "active",
									"type": "bool"
								}
							],
							"internalType": "struct PadiTypes.Member",
							"name": "member",
							"type": "tuple"
						}
					],
					"name": "addOrUpdateMember",
					"outputs": [],
					"stateMutability": "nonpayable",
					"type": "function"
				},
				{
					"inputs": [
						{
							"internalType": "uint256",
							"name": "caseId",
							"type": "uint256"
						}
					],
					"name": "cases",
					"outputs": [
						{
							"components": [
								{
									"internalType": "uint256",
									"name": "id",
									"type": "uint256"
								},
								{
									"internalType": "address",
									"name": "member",
									"type": "address"
								},
								{
									"internalType": "address",
									"name": "lawyer",
									"type": "address"
								},
								{
									"internalType": "string",
									"name": "descriptionMetadata",
									"type": "string"
								},
								{
									"internalType": "uint256",
									"name": "creationDate",
									"type": "uint256"
								},
								{
									"internalType": "uint256",
									"name": "resolutionDate",
									"type": "uint256"
								},
								{
									"internalType": "bool",
									"name": "resolved",
									"type": "bool"
								},
								{
									"internalType": "uint256",
									"name": "rewardAmount",
									"type": "uint256"
								}
							],
							"internalType": "struct PadiTypes.Case",
							"name": "",
							"type": "tuple"
						}
					],
					"stateMutability": "view",
					"type": "function"
				},
				{
					"inputs": [
						{
							"internalType": "uint256",
							"name": "",
							"type": "uint256"
						}
					],
					"name": "casesMap",
					"outputs": [
						{
							"internalType": "uint256",
							"name": "id",
							"type": "uint256"
						},
						{
							"internalType": "address",
							"name": "member",
							"type": "address"
						},
						{
							"internalType": "address",
							"name": "lawyer",
							"type": "address"
						},
						{
							"internalType": "string",
							"name": "descriptionMetadata",
							"type": "string"
						},
						{
							"internalType": "uint256",
							"name": "creationDate",
							"type": "uint256"
						},
						{
							"internalType": "uint256",
							"name": "resolutionDate",
							"type": "uint256"
						},
						{
							"internalType": "bool",
							"name": "resolved",
							"type": "bool"
						},
						{
							"internalType": "uint256",
							"name": "rewardAmount",
							"type": "uint256"
						}
					],
					"stateMutability": "view",
					"type": "function"
				},
				{
					"inputs": [],
					"name": "getAndIncrementCaseId",
					"outputs": [
						{
							"internalType": "uint256",
							"name": "",
							"type": "uint256"
						}
					],
					"stateMutability": "nonpayable",
					"type": "function"
				},
				{
					"inputs": [],
					"name": "getAndIncrementIncidentId",
					"outputs": [
						{
							"internalType": "uint256",
							"name": "",
							"type": "uint256"
						}
					],
					"stateMutability": "nonpayable",
					"type": "function"
				},
				{
					"inputs": [
						{
							"internalType": "address",
							"name": "lawyer",
							"type": "address"
						}
					],
					"name": "getLawyerCases",
					"outputs": [
						{
							"internalType": "uint256[]",
							"name": "open",
							"type": "uint256[]"
						},
						{
							"internalType": "uint256[]",
							"name": "closed",
							"type": "uint256[]"
						}
					],
					"stateMutability": "view",
					"type": "function"
				},
				{
					"inputs": [
						{
							"internalType": "uint256",
							"name": "incidentId",
							"type": "uint256"
						}
					],
					"name": "incidents",
					"outputs": [
						{
							"components": [
								{
									"internalType": "uint256",
									"name": "id",
									"type": "uint256"
								},
								{
									"internalType": "address",
									"name": "reporter",
									"type": "address"
								},
								{
									"internalType": "string",
									"name": "descriptionMetadata",
									"type": "string"
								},
								{
									"internalType": "uint256",
									"name": "timestamp",
									"type": "uint256"
								},
								{
									"internalType": "enum PadiTypes.VerificationStatus",
									"name": "status",
									"type": "uint8"
								},
								{
									"internalType": "address",
									"name": "verifiedBy",
									"type": "address"
								},
								{
									"components": [
										{
											"internalType": "address",
											"name": "member",
											"type": "address"
										},
										{
											"internalType": "uint256",
											"name": "timestamp",
											"type": "uint256"
										},
										{
											"internalType": "string",
											"name": "comment",
											"type": "string"
										},
										{
											"internalType": "string[]",
											"name": "mediaURIs",
											"type": "string[]"
										}
									],
									"internalType": "struct PadiTypes.Corroborator[]",
									"name": "corroborators",
									"type": "tuple[]"
								},
								{
									"internalType": "string[]",
									"name": "mediaURIs",
									"type": "string[]"
								}
							],
							"internalType": "struct PadiTypes.Incident",
							"name": "",
							"type": "tuple"
						}
					],
					"stateMutability": "view",
					"type": "function"
				},
				{
					"inputs": [
						{
							"internalType": "uint256",
							"name": "",
							"type": "uint256"
						}
					],
					"name": "incidentsMap",
					"outputs": [
						{
							"internalType": "uint256",
							"name": "id",
							"type": "uint256"
						},
						{
							"internalType": "address",
							"name": "reporter",
							"type": "address"
						},
						{
							"internalType": "string",
							"name": "descriptionMetadata",
							"type": "string"
						},
						{
							"internalType": "uint256",
							"name": "timestamp",
							"type": "uint256"
						},
						{
							"internalType": "enum PadiTypes.VerificationStatus",
							"name": "status",
							"type": "uint8"
						},
						{
							"internalType": "address",
							"name": "verifiedBy",
							"type": "address"
						}
					],
					"stateMutability": "view",
					"type": "function"
				},
				{
					"inputs": [
						{
							"internalType": "address",
							"name": "_padiProtocol",
							"type": "address"
						}
					],
					"name": "initializeProtocol",
					"outputs": [],
					"stateMutability": "nonpayable",
					"type": "function"
				},
				{
					"inputs": [
						{
							"internalType": "address",
							"name": "user",
							"type": "address"
						}
					],
					"name": "isLawyer",
					"outputs": [
						{
							"internalType": "bool",
							"name": "",
							"type": "bool"
						}
					],
					"stateMutability": "view",
					"type": "function"
				},
				{
					"inputs": [
						{
							"internalType": "address",
							"name": "",
							"type": "address"
						}
					],
					"name": "isLawyerMap",
					"outputs": [
						{
							"internalType": "bool",
							"name": "",
							"type": "bool"
						}
					],
					"stateMutability": "view",
					"type": "function"
				},
				{
					"inputs": [
						{
							"internalType": "address",
							"name": "user",
							"type": "address"
						}
					],
					"name": "isMember",
					"outputs": [
						{
							"internalType": "bool",
							"name": "",
							"type": "bool"
						}
					],
					"stateMutability": "view",
					"type": "function"
				},
				{
					"inputs": [
						{
							"internalType": "address",
							"name": "",
							"type": "address"
						}
					],
					"name": "isMemberMap",
					"outputs": [
						{
							"internalType": "bool",
							"name": "",
							"type": "bool"
						}
					],
					"stateMutability": "view",
					"type": "function"
				},
				{
					"inputs": [
						{
							"internalType": "address",
							"name": "lawyerAddress",
							"type": "address"
						}
					],
					"name": "lawyers",
					"outputs": [
						{
							"components": [
								{
									"internalType": "address",
									"name": "wallet",
									"type": "address"
								},
								{
									"internalType": "uint256[]",
									"name": "caseIds",
									"type": "uint256[]"
								},
								{
									"internalType": "string",
									"name": "profileURI",
									"type": "string"
								},
								{
									"internalType": "uint256",
									"name": "joinDate",
									"type": "uint256"
								},
								{
									"internalType": "uint256",
									"name": "totalRewards",
									"type": "uint256"
								},
								{
									"internalType": "bool",
									"name": "active",
									"type": "bool"
								}
							],
							"internalType": "struct PadiTypes.Lawyer",
							"name": "",
							"type": "tuple"
						}
					],
					"stateMutability": "view",
					"type": "function"
				},
				{
					"inputs": [
						{
							"internalType": "address",
							"name": "",
							"type": "address"
						}
					],
					"name": "lawyersMap",
					"outputs": [
						{
							"internalType": "address",
							"name": "wallet",
							"type": "address"
						},
						{
							"internalType": "string",
							"name": "profileURI",
							"type": "string"
						},
						{
							"internalType": "uint256",
							"name": "joinDate",
							"type": "uint256"
						},
						{
							"internalType": "uint256",
							"name": "totalRewards",
							"type": "uint256"
						},
						{
							"internalType": "bool",
							"name": "active",
							"type": "bool"
						}
					],
					"stateMutability": "view",
					"type": "function"
				},
				{
					"inputs": [
						{
							"internalType": "address",
							"name": "memberAddress",
							"type": "address"
						}
					],
					"name": "members",
					"outputs": [
						{
							"components": [
								{
									"internalType": "address",
									"name": "wallet",
									"type": "address"
								},
								{
									"internalType": "address",
									"name": "representative",
									"type": "address"
								},
								{
									"internalType": "uint256",
									"name": "nftId",
									"type": "uint256"
								},
								{
									"internalType": "string",
									"name": "metadataURI",
									"type": "string"
								},
								{
									"internalType": "uint256",
									"name": "joinDate",
									"type": "uint256"
								},
								{
									"internalType": "uint256",
									"name": "totalCases",
									"type": "uint256"
								},
								{
									"internalType": "bool",
									"name": "active",
									"type": "bool"
								}
							],
							"internalType": "struct PadiTypes.Member",
							"name": "",
							"type": "tuple"
						}
					],
					"stateMutability": "view",
					"type": "function"
				},
				{
					"inputs": [
						{
							"internalType": "address",
							"name": "",
							"type": "address"
						}
					],
					"name": "membersMap",
					"outputs": [
						{
							"internalType": "address",
							"name": "wallet",
							"type": "address"
						},
						{
							"internalType": "address",
							"name": "representative",
							"type": "address"
						},
						{
							"internalType": "uint256",
							"name": "nftId",
							"type": "uint256"
						},
						{
							"internalType": "string",
							"name": "metadataURI",
							"type": "string"
						},
						{
							"internalType": "uint256",
							"name": "joinDate",
							"type": "uint256"
						},
						{
							"internalType": "uint256",
							"name": "totalCases",
							"type": "uint256"
						},
						{
							"internalType": "bool",
							"name": "active",
							"type": "bool"
						}
					],
					"stateMutability": "view",
					"type": "function"
				},
				{
					"inputs": [],
					"name": "nextCaseId",
					"outputs": [
						{
							"internalType": "uint256",
							"name": "",
							"type": "uint256"
						}
					],
					"stateMutability": "view",
					"type": "function"
				},
				{
					"inputs": [],
					"name": "nextIncidentId",
					"outputs": [
						{
							"internalType": "uint256",
							"name": "",
							"type": "uint256"
						}
					],
					"stateMutability": "view",
					"type": "function"
				},
				{
					"inputs": [],
					"name": "nextMemberId",
					"outputs": [
						{
							"internalType": "uint256",
							"name": "",
							"type": "uint256"
						}
					],
					"stateMutability": "view",
					"type": "function"
				},
				{
					"inputs": [],
					"name": "owner",
					"outputs": [
						{
							"internalType": "address",
							"name": "",
							"type": "address"
						}
					],
					"stateMutability": "view",
					"type": "function"
				},
				{
					"inputs": [],
					"name": "padiProtocol",
					"outputs": [
						{
							"internalType": "address",
							"name": "",
							"type": "address"
						}
					],
					"stateMutability": "view",
					"type": "function"
				},
				{
					"inputs": [],
					"name": "renounceOwnership",
					"outputs": [],
					"stateMutability": "nonpayable",
					"type": "function"
				},
				{
					"inputs": [
						{
							"internalType": "address",
							"name": "newOwner",
							"type": "address"
						}
					],
					"name": "transferOwnership",
					"outputs": [],
					"stateMutability": "nonpayable",
					"type": "function"
				}
			],
			"devdoc": {
				"errors": {
					"OwnableInvalidOwner(address)": [
						{
							"details": "The owner is not a valid owner account. (eg. `address(0)`)"
						}
					],
					"OwnableUnauthorizedAccount(address)": [
						{
							"details": "The caller account is not authorized to perform an operation."
						}
					]
				},
				"kind": "dev",
				"methods": {
					"addCorroboratorToIncident(uint256,(address,uint256,string,string[]))": {
						"params": {
							"corroborator": "The Corroborator struct containing the member, comment, media evidence, and timestamp.",
							"incidentId": "The unique identifier for the incident."
						}
					},
					"addOrUpdateIncident((uint256,address,string,uint256,uint8,address,(address,uint256,string,string[])[],string[]))": {
						"params": {
							"incident": "The Incident struct containing all relevant data."
						}
					},
					"getAndIncrementIncidentId()": {
						"returns": {
							"_0": "The new incident ID."
						}
					},
					"incidents(uint256)": {
						"params": {
							"incidentId": "The unique identifier of the incident."
						},
						"returns": {
							"_0": "An Incident struct containing details such as reporter, description, status, evidence, and corroborators."
						}
					},
					"owner()": {
						"details": "Returns the address of the current owner."
					},
					"renounceOwnership()": {
						"details": "Leaves the contract without owner. It will not be possible to call `onlyOwner` functions. Can only be called by the current owner. NOTE: Renouncing ownership will leave the contract without an owner, thereby disabling any functionality that is only available to the owner."
					},
					"transferOwnership(address)": {
						"details": "Transfers ownership of the contract to a new account (`newOwner`). Can only be called by the current owner."
					}
				},
				"version": 1
			},
			"evm": {
				"assembly": "    /* \"contracts/PadiStorage.sol\":166:5968  contract PadiStorage is IPadiStorage, Ownable {... */\n  mstore(0x40, 0x80)\n    /* \"contracts/PadiStorage.sol\":309:310  1 */\n  0x01\n    /* \"contracts/PadiStorage.sol\":279:310  uint256 public nextMemberId = 1 */\n  0x02\n  sstore\n    /* \"contracts/PadiStorage.sol\":344:345  1 */\n  0x01\n    /* \"contracts/PadiStorage.sol\":316:345  uint256 public nextCaseId = 1 */\n  0x03\n  sstore\n    /* \"contracts/PadiStorage.sol\":383:384  1 */\n  0x01\n    /* \"contracts/PadiStorage.sol\":351:384  uint256 public nextIncidentId = 1 */\n  0x04\n  sstore\n    /* \"contracts/PadiStorage.sol\":1430:1466  constructor() Ownable(msg.sender) {} */\n  callvalue\n  dup1\n  iszero\n  tag_1\n  jumpi\n  revert(0x00, 0x00)\ntag_1:\n  pop\n    /* \"contracts/PadiStorage.sol\":1452:1462  msg.sender */\n  caller\n  dup1\n    /* \"@openzeppelin/contracts/access/Ownable.sol\":1269:1364  if (initialOwner == address(0)) {... */\n  tag_5\n  jumpi\n    /* \"@openzeppelin/contracts/access/Ownable.sol\":1322:1353  OwnableInvalidOwner(address(0)) */\n  mload(0x40)\n  shl(0xe0, 0x1e4fbdf7)\n  dup2\n  mstore\n    /* \"@openzeppelin/contracts/access/Ownable.sol\":1350:1351  0 */\n  0x00\n    /* \"@openzeppelin/contracts/access/Ownable.sol\":1322:1353  OwnableInvalidOwner(address(0)) */\n  0x04\n  dup3\n  add\n    /* \"#utility.yul\":160:211   */\n  mstore\n    /* \"#utility.yul\":133:151   */\n  0x24\n  add\n    /* \"@openzeppelin/contracts/access/Ownable.sol\":1322:1353  OwnableInvalidOwner(address(0)) */\n  mload(0x40)\n  dup1\n  swap2\n  sub\n  swap1\n  revert\n    /* \"@openzeppelin/contracts/access/Ownable.sol\":1269:1364  if (initialOwner == address(0)) {... */\ntag_5:\n    /* \"@openzeppelin/contracts/access/Ownable.sol\":1373:1405  _transferOwnership(initialOwner) */\n  tag_8\n    /* \"@openzeppelin/contracts/access/Ownable.sol\":1392:1404  initialOwner */\n  dup2\n    /* \"@openzeppelin/contracts/access/Ownable.sol\":1373:1391  _transferOwnership */\n  tag_9\n    /* \"@openzeppelin/contracts/access/Ownable.sol\":1373:1405  _transferOwnership(initialOwner) */\n  jump\t// in\ntag_8:\n    /* \"@openzeppelin/contracts/access/Ownable.sol\":1225:1412  constructor(address initialOwner) {... */\n  pop\n    /* \"contracts/PadiStorage.sol\":166:5968  contract PadiStorage is IPadiStorage, Ownable {... */\n  jump(tag_13)\n    /* \"@openzeppelin/contracts/access/Ownable.sol\":2912:3099  function _transferOwnership(address newOwner) internal virtual {... */\ntag_9:\n    /* \"@openzeppelin/contracts/access/Ownable.sol\":2985:3001  address oldOwner */\n  0x00\n    /* \"@openzeppelin/contracts/access/Ownable.sol\":3004:3010  _owner */\n  dup1\n  sload\n  sub(shl(0xa0, 0x01), 0x01)\n    /* \"@openzeppelin/contracts/access/Ownable.sol\":3020:3037  _owner = newOwner */\n  dup4\n  dup2\n  and\n  not(sub(shl(0xa0, 0x01), 0x01))\n  dup4\n  and\n  dup2\n  or\n  dup5\n  sstore\n    /* \"@openzeppelin/contracts/access/Ownable.sol\":3052:3092  OwnershipTransferred(oldOwner, newOwner) */\n  mload(0x40)\n    /* \"@openzeppelin/contracts/access/Ownable.sol\":3004:3010  _owner */\n  swap2\n  swap1\n  swap3\n  and\n  swap3\n  dup4\n  swap2\n    /* \"@openzeppelin/contracts/access/Ownable.sol\":3052:3092  OwnershipTransferred(oldOwner, newOwner) */\n  0x8be0079c531659141344cd1fd0a4f28419497f9722a3daafe3b4186f6b6457e0\n  swap2\n    /* \"@openzeppelin/contracts/access/Ownable.sol\":2985:3001  address oldOwner */\n  swap1\n    /* \"@openzeppelin/contracts/access/Ownable.sol\":3052:3092  OwnershipTransferred(oldOwner, newOwner) */\n  log3\n    /* \"@openzeppelin/contracts/access/Ownable.sol\":2975:3099  {... */\n  pop\n    /* \"@openzeppelin/contracts/access/Ownable.sol\":2912:3099  function _transferOwnership(address newOwner) internal virtual {... */\n  pop\n  jump\t// out\n    /* \"#utility.yul\":14:217   */\ntag_13:\n    /* \"contracts/PadiStorage.sol\":166:5968  contract PadiStorage is IPadiStorage, Ownable {... */\n  dataSize(sub_0)\n  dup1\n  dataOffset(sub_0)\n  0x00\n  codecopy\n  0x00\n  return\nstop\n\nsub_0: assembly {\n        /* \"contracts/PadiStorage.sol\":166:5968  contract PadiStorage is IPadiStorage, Ownable {... */\n      mstore(0x40, 0x80)\n      callvalue\n      dup1\n      iszero\n      tag_1\n      jumpi\n      revert(0x00, 0x00)\n    tag_1:\n      pop\n      jumpi(tag_2, lt(calldatasize, 0x04))\n      shr(0xe0, calldataload(0x00))\n      dup1\n      0x8bfeffe5\n      gt\n      tag_31\n      jumpi\n      dup1\n      0xaf947d05\n      gt\n      tag_32\n      jumpi\n      dup1\n      0xf09790dd\n      gt\n      tag_33\n      jumpi\n      dup1\n      0xf09790dd\n      eq\n      tag_27\n      jumpi\n      dup1\n      0xf2fde38b\n      eq\n      tag_28\n      jumpi\n      dup1\n      0xf47be477\n      eq\n      tag_29\n      jumpi\n      dup1\n      0xfbbca380\n      eq\n      tag_30\n      jumpi\n      revert(0x00, 0x00)\n    tag_33:\n      dup1\n      0xaf947d05\n      eq\n      tag_24\n      jumpi\n      dup1\n      0xc0a47753\n      eq\n      tag_25\n      jumpi\n      dup1\n      0xe0ecef92\n      eq\n      tag_26\n      jumpi\n      revert(0x00, 0x00)\n    tag_32:\n      dup1\n      0xa230c524\n      gt\n      tag_34\n      jumpi\n      dup1\n      0xa230c524\n      eq\n      tag_20\n      jumpi\n      dup1\n      0xa599681f\n      eq\n      tag_21\n      jumpi\n      dup1\n      0xa6c6a8f3\n      eq\n      tag_22\n      jumpi\n      dup1\n      0xae99004c\n      eq\n      tag_23\n      jumpi\n      revert(0x00, 0x00)\n    tag_34:\n      dup1\n      0x8bfeffe5\n      eq\n      tag_17\n      jumpi\n      dup1\n      0x8c2f59e4\n      eq\n      tag_18\n      jumpi\n      dup1\n      0x8da5cb5b\n      eq\n      tag_19\n      jumpi\n      revert(0x00, 0x00)\n    tag_31:\n      dup1\n      0x5939a84e\n      gt\n      tag_35\n      jumpi\n      dup1\n      0x84500001\n      gt\n      tag_36\n      jumpi\n      dup1\n      0x84500001\n      eq\n      tag_13\n      jumpi\n      dup1\n      0x84dc0806\n      eq\n      tag_14\n      jumpi\n      dup1\n      0x84e49bce\n      eq\n      tag_15\n      jumpi\n      dup1\n      0x872ea68a\n      eq\n      tag_16\n      jumpi\n      revert(0x00, 0x00)\n    tag_36:\n      dup1\n      0x5939a84e\n      eq\n      tag_10\n      jumpi\n      dup1\n      0x6350eae8\n      eq\n      tag_11\n      jumpi\n      dup1\n      0x715018a6\n      eq\n      tag_12\n      jumpi\n      revert(0x00, 0x00)\n    tag_35:\n      dup1\n      0x1ed9772f\n      gt\n      tag_37\n      jumpi\n      dup1\n      0x1ed9772f\n      eq\n      tag_6\n      jumpi\n      dup1\n      0x213b6360\n      eq\n      tag_7\n      jumpi\n      dup1\n      0x3b9cccf0\n      eq\n      tag_8\n      jumpi\n      dup1\n      0x554ae567\n      eq\n      tag_9\n      jumpi\n      revert(0x00, 0x00)\n    tag_37:\n      dup1\n      0x08ae4b0c\n      eq\n      tag_3\n      jumpi\n      dup1\n      0x0b98d45a\n      eq\n      tag_4\n      jumpi\n      dup1\n      0x0fd19668\n      eq\n      tag_5\n      jumpi\n    tag_2:\n      revert(0x00, 0x00)\n        /* \"contracts/PadiStorage.sol\":4592:4738  function members(address memberAddress) external view override returns (PadiTypes.Member memory) {... */\n    tag_3:\n      tag_38\n      tag_39\n      calldatasize\n      0x04\n      tag_40\n      jump\t// in\n    tag_39:\n      tag_41\n      jump\t// in\n    tag_38:\n      mload(0x40)\n      tag_42\n      swap2\n      swap1\n      tag_43\n      jump\t// in\n    tag_42:\n      mload(0x40)\n      dup1\n      swap2\n      sub\n      swap1\n      return\n        /* \"contracts/PadiStorage.sol\":5434:5564  function getAndIncrementIncidentId() external override onlyPadiProtocol returns (uint256) {... */\n    tag_4:\n      tag_44\n      tag_45\n      jump\t// in\n    tag_44:\n      mload(0x40)\n        /* \"#utility.yul\":1847:1872   */\n      swap1\n      dup2\n      mstore\n        /* \"#utility.yul\":1835:1837   */\n      0x20\n        /* \"#utility.yul\":1820:1838   */\n      add\n        /* \"contracts/PadiStorage.sol\":5434:5564  function getAndIncrementIncidentId() external override onlyPadiProtocol returns (uint256) {... */\n      tag_42\n        /* \"#utility.yul\":1701:1878   */\n      jump\n        /* \"contracts/PadiStorage.sol\":351:384  uint256 public nextIncidentId = 1 */\n    tag_5:\n      tag_44\n      sload(0x04)\n      dup2\n      jump\n        /* \"contracts/PadiStorage.sol\":451:505  mapping(address => PadiTypes.Lawyer) public lawyersMap */\n    tag_6:\n      tag_51\n      tag_52\n      calldatasize\n      0x04\n      tag_40\n      jump\t// in\n    tag_52:\n      tag_53\n      jump\t// in\n    tag_51:\n      mload(0x40)\n      tag_42\n      swap6\n      swap5\n      swap4\n      swap3\n      swap2\n      swap1\n      tag_55\n      jump\t// in\n        /* \"contracts/PadiStorage.sol\":5570:5966  function addCorroboratorToIncident(uint256 incidentId, PadiTypes.Corroborator calldata corroborator) external override onlyPadiProtocol {... */\n    tag_7:\n      tag_56\n      tag_57\n      calldatasize\n      0x04\n      tag_58\n      jump\t// in\n    tag_57:\n      tag_59\n      jump\t// in\n    tag_56:\n      stop\n        /* \"contracts/PadiStorage.sol\":1472:1661  function initializeProtocol(address _padiProtocol) external onlyOwner {... */\n    tag_8:\n      tag_56\n      tag_61\n      calldatasize\n      0x04\n      tag_40\n      jump\t// in\n    tag_61:\n      tag_62\n      jump\t// in\n        /* \"contracts/PadiStorage.sol\":4440:4586  function lawyers(address lawyerAddress) external view override returns (PadiTypes.Lawyer memory) {... */\n    tag_9:\n      tag_63\n      tag_64\n      calldatasize\n      0x04\n      tag_40\n      jump\t// in\n    tag_64:\n      tag_65\n      jump\t// in\n    tag_63:\n      mload(0x40)\n      tag_42\n      swap2\n      swap1\n      tag_67\n      jump\t// in\n        /* \"contracts/PadiStorage.sol\":4323:4434  function isLawyer(address user) external view override returns (bool) {... */\n    tag_10:\n      tag_68\n      tag_69\n      calldatasize\n      0x04\n      tag_40\n      jump\t// in\n    tag_69:\n      sub(shl(0xa0, 0x01), 0x01)\n        /* \"contracts/PadiStorage.sol\":4410:4427  isLawyerMap[user] */\n      and\n        /* \"contracts/PadiStorage.sol\":4387:4391  bool */\n      0x00\n        /* \"contracts/PadiStorage.sol\":4410:4427  isLawyerMap[user] */\n      swap1\n      dup2\n      mstore\n        /* \"contracts/PadiStorage.sol\":4410:4421  isLawyerMap */\n      0x0a\n        /* \"contracts/PadiStorage.sol\":4410:4427  isLawyerMap[user] */\n      0x20\n      mstore\n      0x40\n      swap1\n      keccak256\n      sload\n      0xff\n      and\n      swap1\n        /* \"contracts/PadiStorage.sol\":4323:4434  function isLawyer(address user) external view override returns (bool) {... */\n      jump\n    tag_68:\n      mload(0x40)\n        /* \"#utility.yul\":4324:4338   */\n      swap1\n      iszero\n        /* \"#utility.yul\":4317:4339   */\n      iszero\n        /* \"#utility.yul\":4299:4340   */\n      dup2\n      mstore\n        /* \"#utility.yul\":4287:4289   */\n      0x20\n        /* \"#utility.yul\":4272:4290   */\n      add\n        /* \"contracts/PadiStorage.sol\":4323:4434  function isLawyer(address user) external view override returns (bool) {... */\n      tag_42\n        /* \"#utility.yul\":4159:4346   */\n      jump\n        /* \"contracts/PadiStorage.sol\":316:345  uint256 public nextCaseId = 1 */\n    tag_11:\n      tag_44\n      sload(0x03)\n      dup2\n      jump\n        /* \"@openzeppelin/contracts/access/Ownable.sol\":2293:2394  function renounceOwnership() public virtual onlyOwner {... */\n    tag_12:\n      tag_56\n      tag_77\n      jump\t// in\n        /* \"contracts/PadiStorage.sol\":2244:2573  function addOrUpdateLawyer(PadiTypes.Lawyer calldata lawyer) external override onlyPadiProtocol {... */\n    tag_13:\n      tag_56\n      tag_79\n      calldatasize\n      0x04\n      tag_80\n      jump\t// in\n    tag_79:\n      tag_81\n      jump\t// in\n        /* \"contracts/PadiStorage.sol\":1767:1889  function getAndIncrementCaseId() external override onlyPadiProtocol returns (uint256) {... */\n    tag_14:\n      tag_44\n      tag_83\n      jump\t// in\n        /* \"contracts/PadiStorage.sol\":511:561  mapping(uint256 => PadiTypes.Case) public casesMap */\n    tag_15:\n      tag_85\n      tag_86\n      calldatasize\n      0x04\n      tag_87\n      jump\t// in\n    tag_86:\n      tag_88\n      jump\t// in\n    tag_85:\n      mload(0x40)\n      tag_42\n      swap9\n      swap8\n      swap7\n      swap6\n      swap5\n      swap4\n      swap3\n      swap2\n      swap1\n      tag_90\n      jump\t// in\n        /* \"contracts/PadiStorage.sol\":391:445  mapping(address => PadiTypes.Member) public membersMap */\n    tag_16:\n      tag_91\n      tag_92\n      calldatasize\n      0x04\n      tag_40\n      jump\t// in\n    tag_92:\n      tag_93\n      jump\t// in\n    tag_91:\n      mload(0x40)\n      tag_42\n      swap8\n      swap7\n      swap6\n      swap5\n      swap4\n      swap3\n      swap2\n      swap1\n      tag_95\n      jump\t// in\n        /* \"contracts/PadiStorage.sol\":3109:3305  function getLawyerCases(address lawyer) external view override returns (uint256[] memory open, uint256[] memory closed) {... */\n    tag_17:\n      tag_96\n      tag_97\n      calldatasize\n      0x04\n      tag_40\n      jump\t// in\n    tag_97:\n      tag_98\n      jump\t// in\n    tag_96:\n      mload(0x40)\n      tag_42\n      swap3\n      swap2\n      swap1\n      tag_100\n      jump\t// in\n        /* \"contracts/PadiStorage.sol\":567:625  mapping(uint256 => PadiTypes.Incident) public incidentsMap */\n    tag_18:\n      tag_101\n      tag_102\n      calldatasize\n      0x04\n      tag_87\n      jump\t// in\n    tag_102:\n      tag_103\n      jump\t// in\n    tag_101:\n      mload(0x40)\n      tag_42\n      swap7\n      swap6\n      swap5\n      swap4\n      swap3\n      swap2\n      swap1\n      tag_105\n      jump\t// in\n        /* \"@openzeppelin/contracts/access/Ownable.sol\":1638:1723  function owner() public view virtual returns (address) {... */\n    tag_19:\n        /* \"@openzeppelin/contracts/access/Ownable.sol\":1684:1691  address */\n      0x00\n        /* \"@openzeppelin/contracts/access/Ownable.sol\":1710:1716  _owner */\n      sload\n      sub(shl(0xa0, 0x01), 0x01)\n      and\n        /* \"@openzeppelin/contracts/access/Ownable.sol\":1638:1723  function owner() public view virtual returns (address) {... */\n    tag_106:\n      mload(0x40)\n      sub(shl(0xa0, 0x01), 0x01)\n        /* \"#utility.yul\":8606:8638   */\n      swap1\n      swap2\n      and\n        /* \"#utility.yul\":8588:8639   */\n      dup2\n      mstore\n        /* \"#utility.yul\":8576:8578   */\n      0x20\n        /* \"#utility.yul\":8561:8579   */\n      add\n        /* \"@openzeppelin/contracts/access/Ownable.sol\":1638:1723  function owner() public view virtual returns (address) {... */\n      tag_42\n        /* \"#utility.yul\":8442:8645   */\n      jump\n        /* \"contracts/PadiStorage.sol\":4206:4317  function isMember(address user) external view override returns (bool) {... */\n    tag_20:\n      tag_68\n      tag_111\n      calldatasize\n      0x04\n      tag_40\n      jump\t// in\n    tag_111:\n      sub(shl(0xa0, 0x01), 0x01)\n        /* \"contracts/PadiStorage.sol\":4293:4310  isMemberMap[user] */\n      and\n        /* \"contracts/PadiStorage.sol\":4270:4274  bool */\n      0x00\n        /* \"contracts/PadiStorage.sol\":4293:4310  isMemberMap[user] */\n      swap1\n      dup2\n      mstore\n        /* \"contracts/PadiStorage.sol\":4293:4304  isMemberMap */\n      0x09\n        /* \"contracts/PadiStorage.sol\":4293:4310  isMemberMap[user] */\n      0x20\n      mstore\n      0x40\n      swap1\n      keccak256\n      sload\n      0xff\n      and\n      swap1\n        /* \"contracts/PadiStorage.sol\":4206:4317  function isMember(address user) external view override returns (bool) {... */\n      jump\n        /* \"contracts/PadiStorage.sol\":5132:5428  function addOrUpdateIncident(PadiTypes.Incident calldata incident) external override onlyPadiProtocol {... */\n    tag_21:\n      tag_56\n      tag_115\n      calldatasize\n      0x04\n      tag_116\n      jump\t// in\n    tag_115:\n      tag_117\n      jump\t// in\n        /* \"contracts/PadiStorage.sol\":4980:5126  function incidents(uint256 incidentId) external view override returns (PadiTypes.Incident memory) {... */\n    tag_22:\n      tag_118\n      tag_119\n      calldatasize\n      0x04\n      tag_87\n      jump\t// in\n    tag_119:\n      tag_120\n      jump\t// in\n    tag_118:\n      mload(0x40)\n      tag_42\n      swap2\n      swap1\n      tag_122\n      jump\t// in\n        /* \"contracts/PadiStorage.sol\":279:310  uint256 public nextMemberId = 1 */\n    tag_23:\n      tag_44\n      sload(0x02)\n      dup2\n      jump\n        /* \"contracts/PadiStorage.sol\":1895:2238  function addOrUpdateMember(PadiTypes.Member calldata member) external override onlyPadiProtocol {... */\n    tag_24:\n      tag_56\n      tag_127\n      calldatasize\n      0x04\n      tag_128\n      jump\t// in\n    tag_127:\n      tag_129\n      jump\t// in\n        /* \"contracts/PadiStorage.sol\":681:724  mapping(address => bool) public isLawyerMap */\n    tag_25:\n      tag_68\n      tag_131\n      calldatasize\n      0x04\n      tag_40\n      jump\t// in\n    tag_131:\n      mstore(0x20, 0x0a)\n      0x00\n      swap1\n      dup2\n      mstore\n      0x40\n      swap1\n      keccak256\n      sload\n      0xff\n      and\n      dup2\n      jump\n        /* \"contracts/PadiStorage.sol\":246:273  address public padiProtocol */\n    tag_26:\n      sload(0x01)\n      tag_106\n      swap1\n      sub(shl(0xa0, 0x01), 0x01)\n      and\n      dup2\n      jump\n        /* \"contracts/PadiStorage.sol\":4744:4870  function cases(uint256 caseId) external view override returns (PadiTypes.Case memory) {... */\n    tag_27:\n      tag_137\n      tag_138\n      calldatasize\n      0x04\n      tag_87\n      jump\t// in\n    tag_138:\n      tag_139\n      jump\t// in\n    tag_137:\n      mload(0x40)\n      tag_42\n      swap2\n      swap1\n      tag_141\n      jump\t// in\n        /* \"@openzeppelin/contracts/access/Ownable.sol\":2543:2758  function transferOwnership(address newOwner) public virtual onlyOwner {... */\n    tag_28:\n      tag_56\n      tag_143\n      calldatasize\n      0x04\n      tag_40\n      jump\t// in\n    tag_143:\n      tag_144\n      jump\t// in\n        /* \"contracts/PadiStorage.sol\":2579:3103  function addOrUpdateCase(PadiTypes.Case calldata _case) external override onlyPadiProtocol {... */\n    tag_29:\n      tag_56\n      tag_146\n      calldatasize\n      0x04\n      tag_116\n      jump\t// in\n    tag_146:\n      tag_148\n      jump\t// in\n        /* \"contracts/PadiStorage.sol\":632:675  mapping(address => bool) public isMemberMap */\n    tag_30:\n      tag_68\n      tag_150\n      calldatasize\n      0x04\n      tag_40\n      jump\t// in\n    tag_150:\n      mstore(0x20, 0x09)\n      0x00\n      swap1\n      dup2\n      mstore\n      0x40\n      swap1\n      keccak256\n      sload\n      0xff\n      and\n      dup2\n      jump\n        /* \"contracts/PadiStorage.sol\":4592:4738  function members(address memberAddress) external view override returns (PadiTypes.Member memory) {... */\n    tag_41:\n      0x40\n      dup1\n      mload\n      0xe0\n      dup2\n      add\n      dup3\n      mstore\n      0x00\n      dup1\n      dup3\n      mstore\n      0x20\n      dup3\n      add\n      dup2\n      swap1\n      mstore\n      swap2\n      dup2\n      add\n      dup3\n      swap1\n      mstore\n      0x60\n      dup1\n      dup3\n      add\n      mstore\n      0x80\n      dup2\n      add\n      dup3\n      swap1\n      mstore\n      0xa0\n      dup2\n      add\n      dup3\n      swap1\n      mstore\n      0xc0\n      dup2\n      add\n      swap2\n      swap1\n      swap2\n      mstore\n      sub(shl(0xa0, 0x01), 0x01)\n        /* \"contracts/PadiStorage.sol\":4706:4731  membersMap[memberAddress] */\n      dup1\n      dup4\n      and\n      0x00\n      swap1\n      dup2\n      mstore\n        /* \"contracts/PadiStorage.sol\":4706:4716  membersMap */\n      0x05\n        /* \"contracts/PadiStorage.sol\":4706:4731  membersMap[memberAddress] */\n      0x20\n      swap1\n      dup2\n      mstore\n      0x40\n      swap2\n      dup3\n      swap1\n      keccak256\n        /* \"contracts/PadiStorage.sol\":4699:4731  return membersMap[memberAddress] */\n      dup3\n      mload\n      0xe0\n      dup2\n      add\n      dup5\n      mstore\n      dup2\n      sload\n      dup6\n      and\n      dup2\n      mstore\n      0x01\n      dup3\n      add\n      sload\n      swap1\n      swap5\n      and\n      swap2\n      dup5\n      add\n      swap2\n      swap1\n      swap2\n      mstore\n      0x02\n      dup2\n      add\n      sload\n      swap2\n      dup4\n      add\n      swap2\n      swap1\n      swap2\n      mstore\n      0x03\n      dup2\n      add\n      dup1\n      sload\n      0x60\n      dup5\n      add\n      swap2\n      swap1\n      tag_156\n      swap1\n      tag_157\n      jump\t// in\n    tag_156:\n      dup1\n      0x1f\n      add\n      0x20\n      dup1\n      swap2\n      div\n      mul\n      0x20\n      add\n      mload(0x40)\n      swap1\n      dup2\n      add\n      0x40\n      mstore\n      dup1\n      swap3\n      swap2\n      swap1\n      dup2\n      dup2\n      mstore\n      0x20\n      add\n      dup3\n      dup1\n      sload\n      tag_158\n      swap1\n      tag_157\n      jump\t// in\n    tag_158:\n      dup1\n      iszero\n      tag_159\n      jumpi\n      dup1\n      0x1f\n      lt\n      tag_160\n      jumpi\n      0x0100\n      dup1\n      dup4\n      sload\n      div\n      mul\n      dup4\n      mstore\n      swap2\n      0x20\n      add\n      swap2\n      jump(tag_159)\n    tag_160:\n      dup3\n      add\n      swap2\n      swap1\n      0x00\n      mstore\n      keccak256(0x00, 0x20)\n      swap1\n    tag_161:\n      dup2\n      sload\n      dup2\n      mstore\n      swap1\n      0x01\n      add\n      swap1\n      0x20\n      add\n      dup1\n      dup4\n      gt\n      tag_161\n      jumpi\n      dup3\n      swap1\n      sub\n      0x1f\n      and\n      dup3\n      add\n      swap2\n    tag_159:\n      pop\n      pop\n      pop\n      swap2\n      dup4\n      mstore\n      pop\n      pop\n      0x04\n      dup3\n      add\n      sload\n      0x20\n      dup3\n      add\n      mstore\n      0x05\n      dup3\n      add\n      sload\n      0x40\n      dup3\n      add\n      mstore\n      0x06\n      swap1\n      swap2\n      add\n      sload\n      0xff\n      and\n      iszero\n      iszero\n      0x60\n      swap1\n      swap2\n      add\n      mstore\n      swap3\n        /* \"contracts/PadiStorage.sol\":4592:4738  function members(address memberAddress) external view override returns (PadiTypes.Member memory) {... */\n      swap2\n      pop\n      pop\n      jump\t// out\n        /* \"contracts/PadiStorage.sol\":5434:5564  function getAndIncrementIncidentId() external override onlyPadiProtocol returns (uint256) {... */\n    tag_45:\n        /* \"contracts/PadiStorage.sol\":1370:1382  padiProtocol */\n      sload(0x01)\n        /* \"contracts/PadiStorage.sol\":5515:5522  uint256 */\n      0x00\n      swap1\n      sub(shl(0xa0, 0x01), 0x01)\n        /* \"contracts/PadiStorage.sol\":1370:1382  padiProtocol */\n      and\n        /* \"contracts/PadiStorage.sol\":1356:1366  msg.sender */\n      caller\n        /* \"contracts/PadiStorage.sol\":1356:1382  msg.sender == padiProtocol */\n      eq\n        /* \"contracts/PadiStorage.sol\":1348:1406  require(msg.sender == padiProtocol, \"Unauthorized access\") */\n      tag_163\n      jumpi\n      mload(0x40)\n      shl(0xe5, 0x461bcd)\n      dup2\n      mstore\n      0x04\n      add\n      tag_164\n      swap1\n      tag_165\n      jump\t// in\n    tag_164:\n      mload(0x40)\n      dup1\n      swap2\n      sub\n      swap1\n      revert\n    tag_163:\n        /* \"contracts/PadiStorage.sol\":5541:5555  nextIncidentId */\n      0x04\n        /* \"contracts/PadiStorage.sol\":5541:5557  nextIncidentId++ */\n      dup1\n      sload\n      swap1\n        /* \"contracts/PadiStorage.sol\":5541:5555  nextIncidentId */\n      0x00\n        /* \"contracts/PadiStorage.sol\":5541:5557  nextIncidentId++ */\n      tag_167\n      dup4\n      tag_168\n      jump\t// in\n    tag_167:\n      swap2\n      swap1\n      pop\n      sstore\n        /* \"contracts/PadiStorage.sol\":5534:5557  return nextIncidentId++ */\n      swap1\n      pop\n        /* \"contracts/PadiStorage.sol\":5434:5564  function getAndIncrementIncidentId() external override onlyPadiProtocol returns (uint256) {... */\n      swap1\n      jump\t// out\n        /* \"contracts/PadiStorage.sol\":451:505  mapping(address => PadiTypes.Lawyer) public lawyersMap */\n    tag_53:\n      mstore(0x20, 0x06)\n      0x00\n      swap1\n      dup2\n      mstore\n      0x40\n      swap1\n      keccak256\n      dup1\n      sload\n      0x02\n      dup3\n      add\n      dup1\n      sload\n      sub(shl(0xa0, 0x01), 0x01)\n      swap1\n      swap3\n      and\n      swap3\n      swap2\n      tag_169\n      swap1\n      tag_157\n      jump\t// in\n    tag_169:\n      dup1\n      0x1f\n      add\n      0x20\n      dup1\n      swap2\n      div\n      mul\n      0x20\n      add\n      mload(0x40)\n      swap1\n      dup2\n      add\n      0x40\n      mstore\n      dup1\n      swap3\n      swap2\n      swap1\n      dup2\n      dup2\n      mstore\n      0x20\n      add\n      dup3\n      dup1\n      sload\n      tag_170\n      swap1\n      tag_157\n      jump\t// in\n    tag_170:\n      dup1\n      iszero\n      tag_171\n      jumpi\n      dup1\n      0x1f\n      lt\n      tag_172\n      jumpi\n      0x0100\n      dup1\n      dup4\n      sload\n      div\n      mul\n      dup4\n      mstore\n      swap2\n      0x20\n      add\n      swap2\n      jump(tag_171)\n    tag_172:\n      dup3\n      add\n      swap2\n      swap1\n      0x00\n      mstore\n      keccak256(0x00, 0x20)\n      swap1\n    tag_173:\n      dup2\n      sload\n      dup2\n      mstore\n      swap1\n      0x01\n      add\n      swap1\n      0x20\n      add\n      dup1\n      dup4\n      gt\n      tag_173\n      jumpi\n      dup3\n      swap1\n      sub\n      0x1f\n      and\n      dup3\n      add\n      swap2\n    tag_171:\n      pop\n      pop\n      pop\n      pop\n      0x03\n      dup4\n      add\n      sload\n      0x04\n      dup5\n      add\n      sload\n      0x05\n      swap1\n      swap5\n      add\n      sload\n      swap3\n      swap4\n      swap1\n      swap3\n      swap1\n      swap2\n      pop\n      0xff\n      and\n      dup6\n      jump\t// out\n        /* \"contracts/PadiStorage.sol\":5570:5966  function addCorroboratorToIncident(uint256 incidentId, PadiTypes.Corroborator calldata corroborator) external override onlyPadiProtocol {... */\n    tag_59:\n        /* \"contracts/PadiStorage.sol\":1370:1382  padiProtocol */\n      and(sub(shl(0xa0, 0x01), 0x01), sload(0x01))\n        /* \"contracts/PadiStorage.sol\":1356:1366  msg.sender */\n      caller\n        /* \"contracts/PadiStorage.sol\":1356:1382  msg.sender == padiProtocol */\n      eq\n        /* \"contracts/PadiStorage.sol\":1348:1406  require(msg.sender == padiProtocol, \"Unauthorized access\") */\n      tag_175\n      jumpi\n      mload(0x40)\n      shl(0xe5, 0x461bcd)\n      dup2\n      mstore\n      0x04\n      add\n      tag_164\n      swap1\n      tag_165\n      jump\t// in\n    tag_175:\n        /* \"contracts/PadiStorage.sol\":5716:5746  PadiTypes.Incident storage inc */\n      0x00\n        /* \"contracts/PadiStorage.sol\":5749:5773  incidentsMap[incidentId] */\n      dup3\n      dup2\n      mstore\n        /* \"contracts/PadiStorage.sol\":5749:5761  incidentsMap */\n      0x08\n        /* \"contracts/PadiStorage.sol\":5749:5773  incidentsMap[incidentId] */\n      0x20\n      mstore\n      0x40\n      dup2\n      keccak256\n        /* \"contracts/PadiStorage.sol\":5791:5797  inc.id */\n      dup1\n      sload\n        /* \"contracts/PadiStorage.sol\":5749:5773  incidentsMap[incidentId] */\n      swap1\n      swap2\n        /* \"contracts/PadiStorage.sol\":5791:5802  inc.id != 0 */\n      sub\n        /* \"contracts/PadiStorage.sol\":5783:5830  require(inc.id != 0, \"Incident does not exist\") */\n      tag_178\n      jumpi\n      mload(0x40)\n      shl(0xe5, 0x461bcd)\n      dup2\n      mstore\n        /* \"#utility.yul\":14915:14917   */\n      0x20\n        /* \"contracts/PadiStorage.sol\":5783:5830  require(inc.id != 0, \"Incident does not exist\") */\n      0x04\n      dup3\n      add\n        /* \"#utility.yul\":14897:14918   */\n      mstore\n        /* \"#utility.yul\":14954:14956   */\n      0x17\n        /* \"#utility.yul\":14934:14952   */\n      0x24\n      dup3\n      add\n        /* \"#utility.yul\":14927:14957   */\n      mstore\n        /* \"#utility.yul\":14993:15018   */\n      0x496e636964656e7420646f6573206e6f74206578697374000000000000000000\n        /* \"#utility.yul\":14973:14991   */\n      0x44\n      dup3\n      add\n        /* \"#utility.yul\":14966:15019   */\n      mstore\n        /* \"#utility.yul\":15036:15054   */\n      0x64\n      add\n        /* \"contracts/PadiStorage.sol\":5783:5830  require(inc.id != 0, \"Incident does not exist\") */\n      tag_164\n        /* \"#utility.yul\":14713:15060   */\n      jump\n        /* \"contracts/PadiStorage.sol\":5783:5830  require(inc.id != 0, \"Incident does not exist\") */\n    tag_178:\n        /* \"contracts/PadiStorage.sol\":5840:5857  inc.corroborators */\n      0x05\n      dup2\n      add\n        /* \"contracts/PadiStorage.sol\":5840:5876  inc.corroborators.push(corroborator) */\n      dup1\n      sload\n      0x01\n      dup2\n      add\n      dup3\n      sstore\n      0x00\n      swap2\n      dup3\n      mstore\n      0x20\n      swap1\n      swap2\n      keccak256\n        /* \"contracts/PadiStorage.sol\":5863:5875  corroborator */\n      dup4\n      swap2\n        /* \"contracts/PadiStorage.sol\":5840:5876  inc.corroborators.push(corroborator) */\n      0x04\n      mul\n      add\n      tag_182\n        /* \"contracts/PadiStorage.sol\":5863:5875  corroborator */\n      dup3\n        /* \"contracts/PadiStorage.sol\":5840:5876  inc.corroborators.push(corroborator) */\n      dup3\n      tag_433\n      jump\t// in\n    tag_182:\n      pop\n        /* \"contracts/PadiStorage.sol\":5922:5941  corroborator.member */\n      tag_184\n      swap1\n      pop\n      0x20\n      dup4\n      add\n        /* \"contracts/PadiStorage.sol\":5922:5934  corroborator */\n      dup4\n        /* \"contracts/PadiStorage.sol\":5922:5941  corroborator.member */\n      tag_40\n      jump\t// in\n    tag_184:\n      sub(shl(0xa0, 0x01), 0x01)\n        /* \"contracts/PadiStorage.sol\":5891:5959  CorroborationAdded(incidentId, corroborator.member, block.timestamp) */\n      and\n        /* \"contracts/PadiStorage.sol\":5910:5920  incidentId */\n      dup4\n        /* \"contracts/PadiStorage.sol\":5891:5959  CorroborationAdded(incidentId, corroborator.member, block.timestamp) */\n      0x37b3e104208f85d1df430bbefbe3fee48f2b666f587576036f4d60ef673af50c\n        /* \"contracts/PadiStorage.sol\":5943:5958  block.timestamp */\n      timestamp\n        /* \"contracts/PadiStorage.sol\":5891:5959  CorroborationAdded(incidentId, corroborator.member, block.timestamp) */\n      mload(0x40)\n      tag_185\n      swap2\n        /* \"#utility.yul\":1847:1872   */\n      dup2\n      mstore\n        /* \"#utility.yul\":1835:1837   */\n      0x20\n        /* \"#utility.yul\":1820:1838   */\n      add\n      swap1\n        /* \"#utility.yul\":1701:1878   */\n      jump\n        /* \"contracts/PadiStorage.sol\":5891:5959  CorroborationAdded(incidentId, corroborator.member, block.timestamp) */\n    tag_185:\n      mload(0x40)\n      dup1\n      swap2\n      sub\n      swap1\n      log3\n        /* \"contracts/PadiStorage.sol\":5706:5966  {... */\n      pop\n        /* \"contracts/PadiStorage.sol\":5570:5966  function addCorroboratorToIncident(uint256 incidentId, PadiTypes.Corroborator calldata corroborator) external override onlyPadiProtocol {... */\n      pop\n      pop\n      jump\t// out\n        /* \"contracts/PadiStorage.sol\":1472:1661  function initializeProtocol(address _padiProtocol) external onlyOwner {... */\n    tag_62:\n        /* \"@openzeppelin/contracts/access/Ownable.sol\":1531:1544  _checkOwner() */\n      tag_187\n        /* \"@openzeppelin/contracts/access/Ownable.sol\":1531:1542  _checkOwner */\n      tag_188\n        /* \"@openzeppelin/contracts/access/Ownable.sol\":1531:1544  _checkOwner() */\n      jump\t// in\n    tag_187:\n      sub(shl(0xa0, 0x01), 0x01)\n        /* \"contracts/PadiStorage.sol\":1560:1587  _padiProtocol != address(0) */\n      dup2\n      and\n        /* \"contracts/PadiStorage.sol\":1552:1616  require(_padiProtocol != address(0), \"Invalid protocol address\") */\n      tag_190\n      jumpi\n      mload(0x40)\n      shl(0xe5, 0x461bcd)\n      dup2\n      mstore\n        /* \"#utility.yul\":26861:26863   */\n      0x20\n        /* \"contracts/PadiStorage.sol\":1552:1616  require(_padiProtocol != address(0), \"Invalid protocol address\") */\n      0x04\n      dup3\n      add\n        /* \"#utility.yul\":26843:26864   */\n      mstore\n        /* \"#utility.yul\":26900:26902   */\n      0x18\n        /* \"#utility.yul\":26880:26898   */\n      0x24\n      dup3\n      add\n        /* \"#utility.yul\":26873:26903   */\n      mstore\n        /* \"#utility.yul\":26939:26965   */\n      0x496e76616c69642070726f746f636f6c20616464726573730000000000000000\n        /* \"#utility.yul\":26919:26937   */\n      0x44\n      dup3\n      add\n        /* \"#utility.yul\":26912:26966   */\n      mstore\n        /* \"#utility.yul\":26983:27001   */\n      0x64\n      add\n        /* \"contracts/PadiStorage.sol\":1552:1616  require(_padiProtocol != address(0), \"Invalid protocol address\") */\n      tag_164\n        /* \"#utility.yul\":26659:27007   */\n      jump\n        /* \"contracts/PadiStorage.sol\":1552:1616  require(_padiProtocol != address(0), \"Invalid protocol address\") */\n    tag_190:\n        /* \"contracts/PadiStorage.sol\":1626:1638  padiProtocol */\n      0x01\n        /* \"contracts/PadiStorage.sol\":1626:1654  padiProtocol = _padiProtocol */\n      dup1\n      sload\n      not(sub(shl(0xa0, 0x01), 0x01))\n      and\n      sub(shl(0xa0, 0x01), 0x01)\n      swap3\n      swap1\n      swap3\n      and\n      swap2\n      swap1\n      swap2\n      or\n      swap1\n      sstore\n        /* \"contracts/PadiStorage.sol\":1472:1661  function initializeProtocol(address _padiProtocol) external onlyOwner {... */\n      jump\t// out\n        /* \"contracts/PadiStorage.sol\":4440:4586  function lawyers(address lawyerAddress) external view override returns (PadiTypes.Lawyer memory) {... */\n    tag_65:\n        /* \"contracts/PadiStorage.sol\":4512:4535  PadiTypes.Lawyer memory */\n      tag_193\n      mload(0x40)\n      dup1\n      0xc0\n      add\n      0x40\n      mstore\n      dup1\n      and(sub(shl(0xa0, 0x01), 0x01), 0x00)\n      dup2\n      mstore\n      0x20\n      add\n      0x60\n      dup2\n      mstore\n      0x20\n      add\n      0x60\n      dup2\n      mstore\n      0x20\n      add\n      0x00\n      dup2\n      mstore\n      0x20\n      add\n      0x00\n      dup2\n      mstore\n      0x20\n      add\n      iszero(iszero(0x00))\n      dup2\n      mstore\n      pop\n      swap1\n      jump\n    tag_193:\n      sub(shl(0xa0, 0x01), 0x01)\n        /* \"contracts/PadiStorage.sol\":4554:4579  lawyersMap[lawyerAddress] */\n      dup1\n      dup4\n      and\n      0x00\n      swap1\n      dup2\n      mstore\n        /* \"contracts/PadiStorage.sol\":4554:4564  lawyersMap */\n      0x06\n        /* \"contracts/PadiStorage.sol\":4554:4579  lawyersMap[lawyerAddress] */\n      0x20\n      swap1\n      dup2\n      mstore\n      0x40\n      swap2\n      dup3\n      swap1\n      keccak256\n        /* \"contracts/PadiStorage.sol\":4547:4579  return lawyersMap[lawyerAddress] */\n      dup3\n      mload\n      0xc0\n      dup2\n      add\n      dup5\n      mstore\n      dup2\n      sload\n      swap1\n      swap5\n      and\n      dup5\n      mstore\n      0x01\n      dup2\n      add\n      dup1\n      sload\n      dup5\n      mload\n      dup2\n      dup6\n      mul\n      dup2\n      add\n      dup6\n      add\n      swap1\n      swap6\n      mstore\n      dup1\n      dup6\n      mstore\n        /* \"contracts/PadiStorage.sol\":4554:4579  lawyersMap[lawyerAddress] */\n      swap2\n      swap4\n        /* \"contracts/PadiStorage.sol\":4547:4579  return lawyersMap[lawyerAddress] */\n      dup6\n      dup5\n      add\n      swap4\n      swap1\n      swap3\n      swap1\n      dup4\n      add\n      dup3\n      dup3\n      dup1\n      iszero\n      tag_196\n      jumpi\n      0x20\n      mul\n      dup3\n      add\n      swap2\n      swap1\n      0x00\n      mstore\n      keccak256(0x00, 0x20)\n      swap1\n    tag_197:\n      dup2\n      sload\n      dup2\n      mstore\n      0x20\n      add\n      swap1\n      0x01\n      add\n      swap1\n      dup1\n      dup4\n      gt\n      tag_197\n      jumpi\n    tag_196:\n      pop\n      pop\n      pop\n      pop\n      pop\n      dup2\n      mstore\n      0x20\n      add\n      0x02\n      dup3\n      add\n      dup1\n      sload\n      tag_198\n      swap1\n      tag_157\n      jump\t// in\n    tag_198:\n      dup1\n      0x1f\n      add\n      0x20\n      dup1\n      swap2\n      div\n      mul\n      0x20\n      add\n      mload(0x40)\n      swap1\n      dup2\n      add\n      0x40\n      mstore\n      dup1\n      swap3\n      swap2\n      swap1\n      dup2\n      dup2\n      mstore\n      0x20\n      add\n      dup3\n      dup1\n      sload\n      tag_199\n      swap1\n      tag_157\n      jump\t// in\n    tag_199:\n      dup1\n      iszero\n      tag_200\n      jumpi\n      dup1\n      0x1f\n      lt\n      tag_201\n      jumpi\n      0x0100\n      dup1\n      dup4\n      sload\n      div\n      mul\n      dup4\n      mstore\n      swap2\n      0x20\n      add\n      swap2\n      jump(tag_200)\n    tag_201:\n      dup3\n      add\n      swap2\n      swap1\n      0x00\n      mstore\n      keccak256(0x00, 0x20)\n      swap1\n    tag_202:\n      dup2\n      sload\n      dup2\n      mstore\n      swap1\n      0x01\n      add\n      swap1\n      0x20\n      add\n      dup1\n      dup4\n      gt\n      tag_202\n      jumpi\n      dup3\n      swap1\n      sub\n      0x1f\n      and\n      dup3\n      add\n      swap2\n    tag_200:\n      pop\n      pop\n      pop\n      swap2\n      dup4\n      mstore\n      pop\n      pop\n      0x03\n      dup3\n      add\n      sload\n      0x20\n      dup3\n      add\n      mstore\n      0x04\n      dup3\n      add\n      sload\n      0x40\n      dup3\n      add\n      mstore\n      0x05\n      swap1\n      swap2\n      add\n      sload\n      0xff\n      and\n      iszero\n      iszero\n      0x60\n      swap1\n      swap2\n      add\n      mstore\n      swap3\n        /* \"contracts/PadiStorage.sol\":4440:4586  function lawyers(address lawyerAddress) external view override returns (PadiTypes.Lawyer memory) {... */\n      swap2\n      pop\n      pop\n      jump\t// out\n        /* \"@openzeppelin/contracts/access/Ownable.sol\":2293:2394  function renounceOwnership() public virtual onlyOwner {... */\n    tag_77:\n        /* \"@openzeppelin/contracts/access/Ownable.sol\":1531:1544  _checkOwner() */\n      tag_205\n        /* \"@openzeppelin/contracts/access/Ownable.sol\":1531:1542  _checkOwner */\n      tag_188\n        /* \"@openzeppelin/contracts/access/Ownable.sol\":1531:1544  _checkOwner() */\n      jump\t// in\n    tag_205:\n        /* \"@openzeppelin/contracts/access/Ownable.sol\":2357:2387  _transferOwnership(address(0)) */\n      tag_207\n        /* \"@openzeppelin/contracts/access/Ownable.sol\":2384:2385  0 */\n      0x00\n        /* \"@openzeppelin/contracts/access/Ownable.sol\":2357:2375  _transferOwnership */\n      tag_208\n        /* \"@openzeppelin/contracts/access/Ownable.sol\":2357:2387  _transferOwnership(address(0)) */\n      jump\t// in\n    tag_207:\n        /* \"@openzeppelin/contracts/access/Ownable.sol\":2293:2394  function renounceOwnership() public virtual onlyOwner {... */\n      jump\t// out\n        /* \"contracts/PadiStorage.sol\":2244:2573  function addOrUpdateLawyer(PadiTypes.Lawyer calldata lawyer) external override onlyPadiProtocol {... */\n    tag_81:\n        /* \"contracts/PadiStorage.sol\":1370:1382  padiProtocol */\n      and(sub(shl(0xa0, 0x01), 0x01), sload(0x01))\n        /* \"contracts/PadiStorage.sol\":1356:1366  msg.sender */\n      caller\n        /* \"contracts/PadiStorage.sol\":1356:1382  msg.sender == padiProtocol */\n      eq\n        /* \"contracts/PadiStorage.sol\":1348:1406  require(msg.sender == padiProtocol, \"Unauthorized access\") */\n      tag_210\n      jumpi\n      mload(0x40)\n      shl(0xe5, 0x461bcd)\n      dup2\n      mstore\n      0x04\n      add\n      tag_164\n      swap1\n      tag_165\n      jump\t// in\n    tag_210:\n        /* \"contracts/PadiStorage.sol\":2383:2384  0 */\n      0x00\n        /* \"contracts/PadiStorage.sol\":2358:2371  lawyer.wallet */\n      tag_213\n      0x20\n      dup4\n      add\n        /* \"contracts/PadiStorage.sol\":2358:2364  lawyer */\n      dup4\n        /* \"contracts/PadiStorage.sol\":2358:2371  lawyer.wallet */\n      tag_40\n      jump\t// in\n    tag_213:\n      sub(shl(0xa0, 0x01), 0x01)\n        /* \"contracts/PadiStorage.sol\":2358:2385  lawyer.wallet != address(0) */\n      and\n      sub\n        /* \"contracts/PadiStorage.sol\":2350:2412  require(lawyer.wallet != address(0), \"Invalid lawyer address\") */\n      tag_214\n      jumpi\n      mload(0x40)\n      shl(0xe5, 0x461bcd)\n      dup2\n      mstore\n        /* \"#utility.yul\":27214:27216   */\n      0x20\n        /* \"contracts/PadiStorage.sol\":2350:2412  require(lawyer.wallet != address(0), \"Invalid lawyer address\") */\n      0x04\n      dup3\n      add\n        /* \"#utility.yul\":27196:27217   */\n      mstore\n        /* \"#utility.yul\":27253:27255   */\n      0x16\n        /* \"#utility.yul\":27233:27251   */\n      0x24\n      dup3\n      add\n        /* \"#utility.yul\":27226:27256   */\n      mstore\n      shl(0x50, 0x496e76616c6964206c61777965722061646472657373)\n        /* \"#utility.yul\":27272:27290   */\n      0x44\n      dup3\n      add\n        /* \"#utility.yul\":27265:27317   */\n      mstore\n        /* \"#utility.yul\":27334:27352   */\n      0x64\n      add\n        /* \"contracts/PadiStorage.sol\":2350:2412  require(lawyer.wallet != address(0), \"Invalid lawyer address\") */\n      tag_164\n        /* \"#utility.yul\":27012:27358   */\n      jump\n        /* \"contracts/PadiStorage.sol\":2350:2412  require(lawyer.wallet != address(0), \"Invalid lawyer address\") */\n    tag_214:\n        /* \"contracts/PadiStorage.sol\":2450:2456  lawyer */\n      dup1\n        /* \"contracts/PadiStorage.sol\":2422:2432  lawyersMap */\n      0x06\n        /* \"contracts/PadiStorage.sol\":2422:2447  lawyersMap[lawyer.wallet] */\n      0x00\n        /* \"contracts/PadiStorage.sol\":2433:2446  lawyer.wallet */\n      tag_217\n      0x20\n      dup5\n      add\n        /* \"contracts/PadiStorage.sol\":2450:2456  lawyer */\n      dup5\n        /* \"contracts/PadiStorage.sol\":2433:2446  lawyer.wallet */\n      tag_40\n      jump\t// in\n    tag_217:\n      sub(shl(0xa0, 0x01), 0x01)\n        /* \"contracts/PadiStorage.sol\":2422:2447  lawyersMap[lawyer.wallet] */\n      and\n      dup2\n      mstore\n      0x20\n      dup2\n      add\n      swap2\n      swap1\n      swap2\n      mstore\n      0x40\n      add\n      0x00\n      keccak256\n        /* \"contracts/PadiStorage.sol\":2422:2456  lawyersMap[lawyer.wallet] = lawyer */\n      tag_218\n      dup3\n        /* \"contracts/PadiStorage.sol\":2422:2447  lawyersMap[lawyer.wallet] */\n      dup3\n        /* \"contracts/PadiStorage.sol\":2422:2456  lawyersMap[lawyer.wallet] = lawyer */\n      tag_219\n      jump\t// in\n    tag_218:\n      pop\n        /* \"contracts/PadiStorage.sol\":2495:2508  lawyer.active */\n      tag_220\n      swap1\n      pop\n      0xc0\n      dup3\n      add\n      0xa0\n      dup4\n      add\n      tag_221\n      jump\t// in\n    tag_220:\n        /* \"contracts/PadiStorage.sol\":2466:2477  isLawyerMap */\n      0x0a\n        /* \"contracts/PadiStorage.sol\":2466:2492  isLawyerMap[lawyer.wallet] */\n      0x00\n        /* \"contracts/PadiStorage.sol\":2478:2491  lawyer.wallet */\n      tag_222\n      0x20\n      dup6\n      add\n        /* \"contracts/PadiStorage.sol\":2478:2484  lawyer */\n      dup6\n        /* \"contracts/PadiStorage.sol\":2478:2491  lawyer.wallet */\n      tag_40\n      jump\t// in\n    tag_222:\n      sub(shl(0xa0, 0x01), 0x01)\n        /* \"contracts/PadiStorage.sol\":2466:2492  isLawyerMap[lawyer.wallet] */\n      and\n      dup2\n      mstore\n      0x20\n      dup1\n      dup3\n      add\n      swap3\n      swap1\n      swap3\n      mstore\n      0x40\n      add\n      0x00\n      keccak256\n        /* \"contracts/PadiStorage.sol\":2466:2508  isLawyerMap[lawyer.wallet] = lawyer.active */\n      dup1\n      sload\n      not(0xff)\n      and\n      swap3\n      iszero\n      iszero\n      swap3\n      swap1\n      swap3\n      or\n      swap1\n      swap2\n      sstore\n        /* \"contracts/PadiStorage.sol\":2537:2550  lawyer.wallet */\n      tag_223\n      swap1\n      dup3\n      add\n      dup3\n      tag_40\n      jump\t// in\n    tag_223:\n      sub(shl(0xa0, 0x01), 0x01)\n        /* \"contracts/PadiStorage.sol\":2523:2566  LawyerUpdated(lawyer.wallet, lawyer.active) */\n      and\n      0x59f9be63244670bcbd7b4ada776836c9e0dc14f711cae29fa2e2f527d4f7e3b1\n        /* \"contracts/PadiStorage.sol\":2552:2565  lawyer.active */\n      tag_224\n      0xc0\n      dup5\n      add\n      0xa0\n      dup6\n      add\n      tag_221\n      jump\t// in\n    tag_224:\n        /* \"contracts/PadiStorage.sol\":2523:2566  LawyerUpdated(lawyer.wallet, lawyer.active) */\n      mload(0x40)\n        /* \"#utility.yul\":4324:4338   */\n      swap1\n      iszero\n        /* \"#utility.yul\":4317:4339   */\n      iszero\n        /* \"#utility.yul\":4299:4340   */\n      dup2\n      mstore\n        /* \"#utility.yul\":4287:4289   */\n      0x20\n        /* \"#utility.yul\":4272:4290   */\n      add\n        /* \"contracts/PadiStorage.sol\":2523:2566  LawyerUpdated(lawyer.wallet, lawyer.active) */\n    tag_225:\n      mload(0x40)\n      dup1\n      swap2\n      sub\n      swap1\n      log2\n        /* \"contracts/PadiStorage.sol\":2244:2573  function addOrUpdateLawyer(PadiTypes.Lawyer calldata lawyer) external override onlyPadiProtocol {... */\n      pop\n      jump\t// out\n        /* \"contracts/PadiStorage.sol\":1767:1889  function getAndIncrementCaseId() external override onlyPadiProtocol returns (uint256) {... */\n    tag_83:\n        /* \"contracts/PadiStorage.sol\":1370:1382  padiProtocol */\n      sload(0x01)\n        /* \"contracts/PadiStorage.sol\":1844:1851  uint256 */\n      0x00\n      swap1\n      sub(shl(0xa0, 0x01), 0x01)\n        /* \"contracts/PadiStorage.sol\":1370:1382  padiProtocol */\n      and\n        /* \"contracts/PadiStorage.sol\":1356:1366  msg.sender */\n      caller\n        /* \"contracts/PadiStorage.sol\":1356:1382  msg.sender == padiProtocol */\n      eq\n        /* \"contracts/PadiStorage.sol\":1348:1406  require(msg.sender == padiProtocol, \"Unauthorized access\") */\n      tag_227\n      jumpi\n      mload(0x40)\n      shl(0xe5, 0x461bcd)\n      dup2\n      mstore\n      0x04\n      add\n      tag_164\n      swap1\n      tag_165\n      jump\t// in\n    tag_227:\n        /* \"contracts/PadiStorage.sol\":1870:1880  nextCaseId */\n      0x03\n        /* \"contracts/PadiStorage.sol\":1870:1882  nextCaseId++ */\n      dup1\n      sload\n      swap1\n        /* \"contracts/PadiStorage.sol\":1870:1880  nextCaseId */\n      0x00\n        /* \"contracts/PadiStorage.sol\":1870:1882  nextCaseId++ */\n      tag_167\n      dup4\n      tag_168\n      jump\t// in\n        /* \"contracts/PadiStorage.sol\":511:561  mapping(uint256 => PadiTypes.Case) public casesMap */\n    tag_88:\n      mstore(0x20, 0x07)\n      0x00\n      swap1\n      dup2\n      mstore\n      0x40\n      swap1\n      keccak256\n      dup1\n      sload\n      0x01\n      dup3\n      add\n      sload\n      0x02\n      dup4\n      add\n      sload\n      0x03\n      dup5\n      add\n      dup1\n      sload\n      swap4\n      swap5\n      sub(shl(0xa0, 0x01), 0x01)\n      swap4\n      dup5\n      and\n      swap5\n      swap4\n      swap1\n      swap3\n      and\n      swap3\n      tag_231\n      swap1\n      tag_157\n      jump\t// in\n    tag_231:\n      dup1\n      0x1f\n      add\n      0x20\n      dup1\n      swap2\n      div\n      mul\n      0x20\n      add\n      mload(0x40)\n      swap1\n      dup2\n      add\n      0x40\n      mstore\n      dup1\n      swap3\n      swap2\n      swap1\n      dup2\n      dup2\n      mstore\n      0x20\n      add\n      dup3\n      dup1\n      sload\n      tag_232\n      swap1\n      tag_157\n      jump\t// in\n    tag_232:\n      dup1\n      iszero\n      tag_233\n      jumpi\n      dup1\n      0x1f\n      lt\n      tag_234\n      jumpi\n      0x0100\n      dup1\n      dup4\n      sload\n      div\n      mul\n      dup4\n      mstore\n      swap2\n      0x20\n      add\n      swap2\n      jump(tag_233)\n    tag_234:\n      dup3\n      add\n      swap2\n      swap1\n      0x00\n      mstore\n      keccak256(0x00, 0x20)\n      swap1\n    tag_235:\n      dup2\n      sload\n      dup2\n      mstore\n      swap1\n      0x01\n      add\n      swap1\n      0x20\n      add\n      dup1\n      dup4\n      gt\n      tag_235\n      jumpi\n      dup3\n      swap1\n      sub\n      0x1f\n      and\n      dup3\n      add\n      swap2\n    tag_233:\n      pop\n      pop\n      pop\n      0x04\n      dup5\n      add\n      sload\n      0x05\n      dup6\n      add\n      sload\n      0x06\n      dup7\n      add\n      sload\n      0x07\n      swap1\n      swap7\n      add\n      sload\n      swap5\n      swap6\n      swap2\n      swap5\n      swap1\n      swap4\n      pop\n      0xff\n      swap1\n      swap2\n      and\n      swap2\n      pop\n      dup9\n      jump\t// out\n        /* \"contracts/PadiStorage.sol\":391:445  mapping(address => PadiTypes.Member) public membersMap */\n    tag_93:\n      mstore(0x20, 0x05)\n      0x00\n      swap1\n      dup2\n      mstore\n      0x40\n      swap1\n      keccak256\n      dup1\n      sload\n      0x01\n      dup3\n      add\n      sload\n      0x02\n      dup4\n      add\n      sload\n      0x03\n      dup5\n      add\n      dup1\n      sload\n      sub(shl(0xa0, 0x01), 0x01)\n      swap5\n      dup6\n      and\n      swap6\n      swap5\n      swap1\n      swap4\n      and\n      swap4\n      swap2\n      swap3\n      tag_236\n      swap1\n      tag_157\n      jump\t// in\n    tag_236:\n      dup1\n      0x1f\n      add\n      0x20\n      dup1\n      swap2\n      div\n      mul\n      0x20\n      add\n      mload(0x40)\n      swap1\n      dup2\n      add\n      0x40\n      mstore\n      dup1\n      swap3\n      swap2\n      swap1\n      dup2\n      dup2\n      mstore\n      0x20\n      add\n      dup3\n      dup1\n      sload\n      tag_237\n      swap1\n      tag_157\n      jump\t// in\n    tag_237:\n      dup1\n      iszero\n      tag_238\n      jumpi\n      dup1\n      0x1f\n      lt\n      tag_239\n      jumpi\n      0x0100\n      dup1\n      dup4\n      sload\n      div\n      mul\n      dup4\n      mstore\n      swap2\n      0x20\n      add\n      swap2\n      jump(tag_238)\n    tag_239:\n      dup3\n      add\n      swap2\n      swap1\n      0x00\n      mstore\n      keccak256(0x00, 0x20)\n      swap1\n    tag_240:\n      dup2\n      sload\n      dup2\n      mstore\n      swap1\n      0x01\n      add\n      swap1\n      0x20\n      add\n      dup1\n      dup4\n      gt\n      tag_240\n      jumpi\n      dup3\n      swap1\n      sub\n      0x1f\n      and\n      dup3\n      add\n      swap2\n    tag_238:\n      pop\n      pop\n      pop\n      pop\n      0x04\n      dup4\n      add\n      sload\n      0x05\n      dup5\n      add\n      sload\n      0x06\n      swap1\n      swap5\n      add\n      sload\n      swap3\n      swap4\n      swap1\n      swap3\n      swap1\n      swap2\n      pop\n      0xff\n      and\n      dup8\n      jump\t// out\n        /* \"contracts/PadiStorage.sol\":3109:3305  function getLawyerCases(address lawyer) external view override returns (uint256[] memory open, uint256[] memory closed) {... */\n    tag_98:\n      sub(shl(0xa0, 0x01), 0x01)\n        /* \"contracts/PadiStorage.sol\":3247:3270  lawyerOpenCases[lawyer] */\n      dup2\n      and\n      0x00\n      swap1\n      dup2\n      mstore\n        /* \"contracts/PadiStorage.sol\":3247:3262  lawyerOpenCases */\n      0x0b\n        /* \"contracts/PadiStorage.sol\":3247:3270  lawyerOpenCases[lawyer] */\n      0x20\n      swap1\n      dup2\n      mstore\n      0x40\n      dup1\n      dup4\n      keccak256\n        /* \"contracts/PadiStorage.sol\":3272:3289  lawyerClosedCases */\n      0x0c\n        /* \"contracts/PadiStorage.sol\":3272:3297  lawyerClosedCases[lawyer] */\n      dup4\n      mstore\n      swap3\n      dup2\n      swap1\n      keccak256\n        /* \"contracts/PadiStorage.sol\":3239:3298  return (lawyerOpenCases[lawyer], lawyerClosedCases[lawyer]) */\n      dup4\n      sload\n      dup3\n      mload\n      dup2\n      dup6\n      mul\n      dup2\n      add\n      dup6\n      add\n      swap1\n      swap4\n      mstore\n      dup1\n      dup4\n      mstore\n        /* \"contracts/PadiStorage.sol\":3181:3202  uint256[] memory open */\n      0x60\n      swap5\n      dup6\n      swap5\n        /* \"contracts/PadiStorage.sol\":3247:3270  lawyerOpenCases[lawyer] */\n      swap1\n      swap4\n        /* \"contracts/PadiStorage.sol\":3239:3298  return (lawyerOpenCases[lawyer], lawyerClosedCases[lawyer]) */\n      swap2\n        /* \"contracts/PadiStorage.sol\":3247:3270  lawyerOpenCases[lawyer] */\n      dup5\n      swap2\n        /* \"contracts/PadiStorage.sol\":3239:3298  return (lawyerOpenCases[lawyer], lawyerClosedCases[lawyer]) */\n      dup4\n      add\n        /* \"contracts/PadiStorage.sol\":3247:3270  lawyerOpenCases[lawyer] */\n      dup3\n        /* \"contracts/PadiStorage.sol\":3239:3298  return (lawyerOpenCases[lawyer], lawyerClosedCases[lawyer]) */\n      dup3\n      dup1\n      iszero\n      tag_242\n      jumpi\n      0x20\n      mul\n      dup3\n      add\n      swap2\n      swap1\n      0x00\n      mstore\n      keccak256(0x00, 0x20)\n      swap1\n    tag_243:\n      dup2\n      sload\n      dup2\n      mstore\n      0x20\n      add\n      swap1\n      0x01\n      add\n      swap1\n      dup1\n      dup4\n      gt\n      tag_243\n      jumpi\n    tag_242:\n      pop\n      pop\n      pop\n      pop\n      pop\n      swap2\n      pop\n      dup1\n      dup1\n      sload\n      dup1\n      0x20\n      mul\n      0x20\n      add\n      mload(0x40)\n      swap1\n      dup2\n      add\n      0x40\n      mstore\n      dup1\n      swap3\n      swap2\n      swap1\n      dup2\n      dup2\n      mstore\n      0x20\n      add\n      dup3\n      dup1\n      sload\n      dup1\n      iszero\n      tag_244\n      jumpi\n      0x20\n      mul\n      dup3\n      add\n      swap2\n      swap1\n      0x00\n      mstore\n      keccak256(0x00, 0x20)\n      swap1\n    tag_245:\n      dup2\n      sload\n      dup2\n      mstore\n      0x20\n      add\n      swap1\n      0x01\n      add\n      swap1\n      dup1\n      dup4\n      gt\n      tag_245\n      jumpi\n    tag_244:\n      pop\n      pop\n      pop\n      pop\n      pop\n      swap1\n      pop\n      swap2\n      pop\n      swap2\n      pop\n        /* \"contracts/PadiStorage.sol\":3109:3305  function getLawyerCases(address lawyer) external view override returns (uint256[] memory open, uint256[] memory closed) {... */\n      swap2\n      pop\n      swap2\n      jump\t// out\n        /* \"contracts/PadiStorage.sol\":567:625  mapping(uint256 => PadiTypes.Incident) public incidentsMap */\n    tag_103:\n      mstore(0x20, 0x08)\n      0x00\n      swap1\n      dup2\n      mstore\n      0x40\n      swap1\n      keccak256\n      dup1\n      sload\n      0x01\n      dup3\n      add\n      sload\n      0x02\n      dup4\n      add\n      dup1\n      sload\n      swap3\n      swap4\n      sub(shl(0xa0, 0x01), 0x01)\n      swap1\n      swap3\n      and\n      swap3\n      tag_246\n      swap1\n      tag_157\n      jump\t// in\n    tag_246:\n      dup1\n      0x1f\n      add\n      0x20\n      dup1\n      swap2\n      div\n      mul\n      0x20\n      add\n      mload(0x40)\n      swap1\n      dup2\n      add\n      0x40\n      mstore\n      dup1\n      swap3\n      swap2\n      swap1\n      dup2\n      dup2\n      mstore\n      0x20\n      add\n      dup3\n      dup1\n      sload\n      tag_247\n      swap1\n      tag_157\n      jump\t// in\n    tag_247:\n      dup1\n      iszero\n      tag_248\n      jumpi\n      dup1\n      0x1f\n      lt\n      tag_249\n      jumpi\n      0x0100\n      dup1\n      dup4\n      sload\n      div\n      mul\n      dup4\n      mstore\n      swap2\n      0x20\n      add\n      swap2\n      jump(tag_248)\n    tag_249:\n      dup3\n      add\n      swap2\n      swap1\n      0x00\n      mstore\n      keccak256(0x00, 0x20)\n      swap1\n    tag_250:\n      dup2\n      sload\n      dup2\n      mstore\n      swap1\n      0x01\n      add\n      swap1\n      0x20\n      add\n      dup1\n      dup4\n      gt\n      tag_250\n      jumpi\n      dup3\n      swap1\n      sub\n      0x1f\n      and\n      dup3\n      add\n      swap2\n    tag_248:\n      pop\n      pop\n      pop\n      pop\n      0x03\n      dup4\n      add\n      sload\n      0x04\n      swap1\n      swap4\n      add\n      sload\n      swap2\n      swap3\n      swap2\n      0xff\n      dup2\n      and\n      swap2\n      pop\n      0x0100\n      swap1\n      div\n      sub(shl(0xa0, 0x01), 0x01)\n      and\n      dup7\n      jump\t// out\n        /* \"contracts/PadiStorage.sol\":5132:5428  function addOrUpdateIncident(PadiTypes.Incident calldata incident) external override onlyPadiProtocol {... */\n    tag_117:\n        /* \"contracts/PadiStorage.sol\":1370:1382  padiProtocol */\n      and(sub(shl(0xa0, 0x01), 0x01), sload(0x01))\n        /* \"contracts/PadiStorage.sol\":1356:1366  msg.sender */\n      caller\n        /* \"contracts/PadiStorage.sol\":1356:1382  msg.sender == padiProtocol */\n      eq\n        /* \"contracts/PadiStorage.sol\":1348:1406  require(msg.sender == padiProtocol, \"Unauthorized access\") */\n      tag_254\n      jumpi\n      mload(0x40)\n      shl(0xe5, 0x461bcd)\n      dup2\n      mstore\n      0x04\n      add\n      tag_164\n      swap1\n      tag_165\n      jump\t// in\n    tag_254:\n        /* \"contracts/PadiStorage.sol\":5252:5263  incident.id */\n      dup1\n      calldataload\n      0x00\n        /* \"contracts/PadiStorage.sol\":5252:5268  incident.id != 0 */\n      sub\n        /* \"contracts/PadiStorage.sol\":5244:5292  require(incident.id != 0, \"Invalid incident id\") */\n      tag_257\n      jumpi\n      mload(0x40)\n      shl(0xe5, 0x461bcd)\n      dup2\n      mstore\n        /* \"#utility.yul\":30100:30102   */\n      0x20\n        /* \"contracts/PadiStorage.sol\":5244:5292  require(incident.id != 0, \"Invalid incident id\") */\n      0x04\n      dup3\n      add\n        /* \"#utility.yul\":30082:30103   */\n      mstore\n        /* \"#utility.yul\":30139:30141   */\n      0x13\n        /* \"#utility.yul\":30119:30137   */\n      0x24\n      dup3\n      add\n        /* \"#utility.yul\":30112:30142   */\n      mstore\n      shl(0x6a, 0x125b9d985b1a59081a5b98da59195b9d081a59)\n        /* \"#utility.yul\":30158:30176   */\n      0x44\n      dup3\n      add\n        /* \"#utility.yul\":30151:30200   */\n      mstore\n        /* \"#utility.yul\":30217:30235   */\n      0x64\n      add\n        /* \"contracts/PadiStorage.sol\":5244:5292  require(incident.id != 0, \"Invalid incident id\") */\n      tag_164\n        /* \"#utility.yul\":29898:30241   */\n      jump\n        /* \"contracts/PadiStorage.sol\":5244:5292  require(incident.id != 0, \"Invalid incident id\") */\n    tag_257:\n        /* \"contracts/PadiStorage.sol\":5315:5326  incident.id */\n      dup1\n      calldataload\n        /* \"contracts/PadiStorage.sol\":5302:5327  incidentsMap[incident.id] */\n      0x00\n      swap1\n      dup2\n      mstore\n        /* \"contracts/PadiStorage.sol\":5302:5314  incidentsMap */\n      0x08\n        /* \"contracts/PadiStorage.sol\":5302:5327  incidentsMap[incident.id] */\n      0x20\n      mstore\n      0x40\n      swap1\n      keccak256\n        /* \"contracts/PadiStorage.sol\":5330:5338  incident */\n      dup2\n      swap1\n        /* \"contracts/PadiStorage.sol\":5302:5338  incidentsMap[incident.id] = incident */\n      tag_260\n        /* \"contracts/PadiStorage.sol\":5330:5338  incident */\n      dup3\n        /* \"contracts/PadiStorage.sol\":5302:5327  incidentsMap[incident.id] */\n      dup3\n        /* \"contracts/PadiStorage.sol\":5302:5338  incidentsMap[incident.id] = incident */\n      tag_261\n      jump\t// in\n    tag_260:\n      pop\n        /* \"contracts/PadiStorage.sol\":5383:5400  incident.reporter */\n      tag_262\n      swap1\n      pop\n      0x40\n      dup3\n      add\n      0x20\n      dup4\n      add\n      tag_40\n      jump\t// in\n    tag_262:\n      sub(shl(0xa0, 0x01), 0x01)\n        /* \"contracts/PadiStorage.sol\":5353:5421  IncidentReported(incident.id, incident.reporter, incident.timestamp) */\n      and\n        /* \"contracts/PadiStorage.sol\":5370:5378  incident */\n      dup2\n        /* \"contracts/PadiStorage.sol\":5370:5381  incident.id */\n      0x00\n      add\n      calldataload\n        /* \"contracts/PadiStorage.sol\":5353:5421  IncidentReported(incident.id, incident.reporter, incident.timestamp) */\n      0x159eae2587974b857c8b28d8d49d8cca50cc87fc9b0bd9bd76467f77aaf5c8b6\n        /* \"contracts/PadiStorage.sol\":5402:5410  incident */\n      dup4\n        /* \"contracts/PadiStorage.sol\":5402:5420  incident.timestamp */\n      0x60\n      add\n      calldataload\n        /* \"contracts/PadiStorage.sol\":5353:5421  IncidentReported(incident.id, incident.reporter, incident.timestamp) */\n      mload(0x40)\n      tag_263\n      swap2\n        /* \"#utility.yul\":1847:1872   */\n      dup2\n      mstore\n        /* \"#utility.yul\":1835:1837   */\n      0x20\n        /* \"#utility.yul\":1820:1838   */\n      add\n      swap1\n        /* \"#utility.yul\":1701:1878   */\n      jump\n        /* \"contracts/PadiStorage.sol\":5353:5421  IncidentReported(incident.id, incident.reporter, incident.timestamp) */\n    tag_263:\n      mload(0x40)\n      dup1\n      swap2\n      sub\n      swap1\n      log3\n        /* \"contracts/PadiStorage.sol\":5132:5428  function addOrUpdateIncident(PadiTypes.Incident calldata incident) external override onlyPadiProtocol {... */\n      pop\n      jump\t// out\n        /* \"contracts/PadiStorage.sol\":4980:5126  function incidents(uint256 incidentId) external view override returns (PadiTypes.Incident memory) {... */\n    tag_120:\n        /* \"contracts/PadiStorage.sol\":5051:5076  PadiTypes.Incident memory */\n      tag_264\n      tag_265\n      jump\t// in\n    tag_264:\n        /* \"contracts/PadiStorage.sol\":5095:5119  incidentsMap[incidentId] */\n      0x00\n      dup3\n      dup2\n      mstore\n        /* \"contracts/PadiStorage.sol\":5095:5107  incidentsMap */\n      0x08\n        /* \"contracts/PadiStorage.sol\":5095:5119  incidentsMap[incidentId] */\n      0x20\n      swap1\n      dup2\n      mstore\n      0x40\n      swap2\n      dup3\n      swap1\n      keccak256\n        /* \"contracts/PadiStorage.sol\":5088:5119  return incidentsMap[incidentId] */\n      dup3\n      mload\n      0x0100\n      dup2\n      add\n      dup5\n      mstore\n      dup2\n      sload\n      dup2\n      mstore\n      0x01\n      dup3\n      add\n      sload\n      sub(shl(0xa0, 0x01), 0x01)\n      and\n      swap3\n      dup2\n      add\n      swap3\n      swap1\n      swap3\n      mstore\n      0x02\n      dup2\n      add\n      dup1\n      sload\n      swap3\n      swap4\n        /* \"contracts/PadiStorage.sol\":5095:5119  incidentsMap[incidentId] */\n      swap2\n      swap3\n        /* \"contracts/PadiStorage.sol\":5088:5119  return incidentsMap[incidentId] */\n      swap2\n      dup5\n      add\n      swap2\n      tag_267\n      swap1\n      tag_157\n      jump\t// in\n    tag_267:\n      dup1\n      0x1f\n      add\n      0x20\n      dup1\n      swap2\n      div\n      mul\n      0x20\n      add\n      mload(0x40)\n      swap1\n      dup2\n      add\n      0x40\n      mstore\n      dup1\n      swap3\n      swap2\n      swap1\n      dup2\n      dup2\n      mstore\n      0x20\n      add\n      dup3\n      dup1\n      sload\n      tag_268\n      swap1\n      tag_157\n      jump\t// in\n    tag_268:\n      dup1\n      iszero\n      tag_269\n      jumpi\n      dup1\n      0x1f\n      lt\n      tag_270\n      jumpi\n      0x0100\n      dup1\n      dup4\n      sload\n      div\n      mul\n      dup4\n      mstore\n      swap2\n      0x20\n      add\n      swap2\n      jump(tag_269)\n    tag_270:\n      dup3\n      add\n      swap2\n      swap1\n      0x00\n      mstore\n      keccak256(0x00, 0x20)\n      swap1\n    tag_271:\n      dup2\n      sload\n      dup2\n      mstore\n      swap1\n      0x01\n      add\n      swap1\n      0x20\n      add\n      dup1\n      dup4\n      gt\n      tag_271\n      jumpi\n      dup3\n      swap1\n      sub\n      0x1f\n      and\n      dup3\n      add\n      swap2\n    tag_269:\n      pop\n      pop\n      pop\n      swap2\n      dup4\n      mstore\n      pop\n      pop\n      0x03\n      dup3\n      add\n      sload\n      0x20\n      dup3\n      add\n      mstore\n      0x04\n      dup3\n      add\n      sload\n      0x40\n      swap1\n      swap2\n      add\n      swap1\n      0xff\n      and\n      0x02\n      dup2\n      gt\n      iszero\n      tag_273\n      jumpi\n      tag_273\n      tag_274\n      jump\t// in\n    tag_273:\n      0x02\n      dup2\n      gt\n      iszero\n      tag_276\n      jumpi\n      tag_276\n      tag_274\n      jump\t// in\n    tag_276:\n      dup2\n      mstore\n      0x04\n      dup3\n      add\n      sload\n      0x0100\n      swap1\n      div\n      sub(shl(0xa0, 0x01), 0x01)\n      and\n      0x20\n      dup1\n      dup4\n      add\n      swap2\n      swap1\n      swap2\n      mstore\n      0x05\n      dup4\n      add\n      dup1\n      sload\n      0x40\n      dup1\n      mload\n      dup3\n      dup6\n      mul\n      dup2\n      add\n      dup6\n      add\n      dup3\n      mstore\n      dup3\n      dup2\n      mstore\n      swap5\n      add\n      swap4\n      swap3\n      0x00\n      swap1\n      dup5\n      add\n    tag_277:\n      dup3\n      dup3\n      lt\n      iszero\n      tag_278\n      jumpi\n      0x00\n      dup5\n      dup2\n      mstore\n      0x20\n      swap1\n      dup2\n      swap1\n      keccak256\n      0x40\n      dup1\n      mload\n      0x80\n      dup2\n      add\n      dup3\n      mstore\n      0x04\n      dup7\n      mul\n      swap1\n      swap3\n      add\n      dup1\n      sload\n      sub(shl(0xa0, 0x01), 0x01)\n      and\n      dup4\n      mstore\n      0x01\n      dup2\n      add\n      sload\n      swap4\n      dup4\n      add\n      swap4\n      swap1\n      swap4\n      mstore\n      0x02\n      dup4\n      add\n      dup1\n      sload\n      swap3\n      swap4\n      swap3\n      swap2\n      dup5\n      add\n      swap2\n      tag_280\n      swap1\n      tag_157\n      jump\t// in\n    tag_280:\n      dup1\n      0x1f\n      add\n      0x20\n      dup1\n      swap2\n      div\n      mul\n      0x20\n      add\n      mload(0x40)\n      swap1\n      dup2\n      add\n      0x40\n      mstore\n      dup1\n      swap3\n      swap2\n      swap1\n      dup2\n      dup2\n      mstore\n      0x20\n      add\n      dup3\n      dup1\n      sload\n      tag_281\n      swap1\n      tag_157\n      jump\t// in\n    tag_281:\n      dup1\n      iszero\n      tag_282\n      jumpi\n      dup1\n      0x1f\n      lt\n      tag_283\n      jumpi\n      0x0100\n      dup1\n      dup4\n      sload\n      div\n      mul\n      dup4\n      mstore\n      swap2\n      0x20\n      add\n      swap2\n      jump(tag_282)\n    tag_283:\n      dup3\n      add\n      swap2\n      swap1\n      0x00\n      mstore\n      keccak256(0x00, 0x20)\n      swap1\n    tag_284:\n      dup2\n      sload\n      dup2\n      mstore\n      swap1\n      0x01\n      add\n      swap1\n      0x20\n      add\n      dup1\n      dup4\n      gt\n      tag_284\n      jumpi\n      dup3\n      swap1\n      sub\n      0x1f\n      and\n      dup3\n      add\n      swap2\n    tag_282:\n      pop\n      pop\n      pop\n      pop\n      pop\n      dup2\n      mstore\n      0x20\n      add\n      0x03\n      dup3\n      add\n      dup1\n      sload\n      dup1\n      0x20\n      mul\n      0x20\n      add\n      mload(0x40)\n      swap1\n      dup2\n      add\n      0x40\n      mstore\n      dup1\n      swap3\n      swap2\n      swap1\n      dup2\n      dup2\n      mstore\n      0x20\n      add\n      0x00\n      swap1\n    tag_285:\n      dup3\n      dup3\n      lt\n      iszero\n      tag_286\n      jumpi\n      dup4\n      dup3\n      swap1\n      0x00\n      mstore\n      keccak256(0x00, 0x20)\n      add\n      dup1\n      sload\n      tag_288\n      swap1\n      tag_157\n      jump\t// in\n    tag_288:\n      dup1\n      0x1f\n      add\n      0x20\n      dup1\n      swap2\n      div\n      mul\n      0x20\n      add\n      mload(0x40)\n      swap1\n      dup2\n      add\n      0x40\n      mstore\n      dup1\n      swap3\n      swap2\n      swap1\n      dup2\n      dup2\n      mstore\n      0x20\n      add\n      dup3\n      dup1\n      sload\n      tag_289\n      swap1\n      tag_157\n      jump\t// in\n    tag_289:\n      dup1\n      iszero\n      tag_290\n      jumpi\n      dup1\n      0x1f\n      lt\n      tag_291\n      jumpi\n      0x0100\n      dup1\n      dup4\n      sload\n      div\n      mul\n      dup4\n      mstore\n      swap2\n      0x20\n      add\n      swap2\n      jump(tag_290)\n    tag_291:\n      dup3\n      add\n      swap2\n      swap1\n      0x00\n      mstore\n      keccak256(0x00, 0x20)\n      swap1\n    tag_292:\n      dup2\n      sload\n      dup2\n      mstore\n      swap1\n      0x01\n      add\n      swap1\n      0x20\n      add\n      dup1\n      dup4\n      gt\n      tag_292\n      jumpi\n      dup3\n      swap1\n      sub\n      0x1f\n      and\n      dup3\n      add\n      swap2\n    tag_290:\n      pop\n      pop\n      pop\n      pop\n      pop\n      dup2\n      mstore\n      0x20\n      add\n      swap1\n      0x01\n      add\n      swap1\n      jump(tag_285)\n    tag_286:\n      pop\n      pop\n      pop\n      pop\n      dup2\n      mstore\n      pop\n      pop\n      dup2\n      mstore\n      0x20\n      add\n      swap1\n      0x01\n      add\n      swap1\n      jump(tag_277)\n    tag_278:\n      pop\n      pop\n      pop\n      pop\n      dup2\n      mstore\n      0x20\n      add\n      0x06\n      dup3\n      add\n      dup1\n      sload\n      dup1\n      0x20\n      mul\n      0x20\n      add\n      mload(0x40)\n      swap1\n      dup2\n      add\n      0x40\n      mstore\n      dup1\n      swap3\n      swap2\n      swap1\n      dup2\n      dup2\n      mstore\n      0x20\n      add\n      0x00\n      swap1\n    tag_293:\n      dup3\n      dup3\n      lt\n      iszero\n      tag_294\n      jumpi\n      dup4\n      dup3\n      swap1\n      0x00\n      mstore\n      keccak256(0x00, 0x20)\n      add\n      dup1\n      sload\n      tag_296\n      swap1\n      tag_157\n      jump\t// in\n    tag_296:\n      dup1\n      0x1f\n      add\n      0x20\n      dup1\n      swap2\n      div\n      mul\n      0x20\n      add\n      mload(0x40)\n      swap1\n      dup2\n      add\n      0x40\n      mstore\n      dup1\n      swap3\n      swap2\n      swap1\n      dup2\n      dup2\n      mstore\n      0x20\n      add\n      dup3\n      dup1\n      sload\n      tag_297\n      swap1\n      tag_157\n      jump\t// in\n    tag_297:\n      dup1\n      iszero\n      tag_298\n      jumpi\n      dup1\n      0x1f\n      lt\n      tag_299\n      jumpi\n      0x0100\n      dup1\n      dup4\n      sload\n      div\n      mul\n      dup4\n      mstore\n      swap2\n      0x20\n      add\n      swap2\n      jump(tag_298)\n    tag_299:\n      dup3\n      add\n      swap2\n      swap1\n      0x00\n      mstore\n      keccak256(0x00, 0x20)\n      swap1\n    tag_300:\n      dup2\n      sload\n      dup2\n      mstore\n      swap1\n      0x01\n      add\n      swap1\n      0x20\n      add\n      dup1\n      dup4\n      gt\n      tag_300\n      jumpi\n      dup3\n      swap1\n      sub\n      0x1f\n      and\n      dup3\n      add\n      swap2\n    tag_298:\n      pop\n      pop\n      pop\n      pop\n      pop\n      dup2\n      mstore\n      0x20\n      add\n      swap1\n      0x01\n      add\n      swap1\n      jump(tag_293)\n    tag_294:\n      pop\n      pop\n      pop\n      swap2\n      mstore\n      pop\n      swap1\n      swap4\n        /* \"contracts/PadiStorage.sol\":4980:5126  function incidents(uint256 incidentId) external view override returns (PadiTypes.Incident memory) {... */\n      swap3\n      pop\n      pop\n      pop\n      jump\t// out\n        /* \"contracts/PadiStorage.sol\":1895:2238  function addOrUpdateMember(PadiTypes.Member calldata member) external override onlyPadiProtocol {... */\n    tag_129:\n        /* \"contracts/PadiStorage.sol\":1370:1382  padiProtocol */\n      and(sub(shl(0xa0, 0x01), 0x01), sload(0x01))\n        /* \"contracts/PadiStorage.sol\":1356:1366  msg.sender */\n      caller\n        /* \"contracts/PadiStorage.sol\":1356:1382  msg.sender == padiProtocol */\n      eq\n        /* \"contracts/PadiStorage.sol\":1348:1406  require(msg.sender == padiProtocol, \"Unauthorized access\") */\n      tag_302\n      jumpi\n      mload(0x40)\n      shl(0xe5, 0x461bcd)\n      dup2\n      mstore\n      0x04\n      add\n      tag_164\n      swap1\n      tag_165\n      jump\t// in\n    tag_302:\n        /* \"contracts/PadiStorage.sol\":2034:2035  0 */\n      0x00\n        /* \"contracts/PadiStorage.sol\":2009:2022  member.wallet */\n      tag_305\n      0x20\n      dup4\n      add\n        /* \"contracts/PadiStorage.sol\":2009:2015  member */\n      dup4\n        /* \"contracts/PadiStorage.sol\":2009:2022  member.wallet */\n      tag_40\n      jump\t// in\n    tag_305:\n      sub(shl(0xa0, 0x01), 0x01)\n        /* \"contracts/PadiStorage.sol\":2009:2036  member.wallet != address(0) */\n      and\n      sub\n        /* \"contracts/PadiStorage.sol\":2001:2063  require(member.wallet != address(0), \"Invalid member address\") */\n      tag_306\n      jumpi\n      mload(0x40)\n      shl(0xe5, 0x461bcd)\n      dup2\n      mstore\n        /* \"#utility.yul\":34471:34473   */\n      0x20\n        /* \"contracts/PadiStorage.sol\":2001:2063  require(member.wallet != address(0), \"Invalid member address\") */\n      0x04\n      dup3\n      add\n        /* \"#utility.yul\":34453:34474   */\n      mstore\n        /* \"#utility.yul\":34510:34512   */\n      0x16\n        /* \"#utility.yul\":34490:34508   */\n      0x24\n      dup3\n      add\n        /* \"#utility.yul\":34483:34513   */\n      mstore\n      shl(0x50, 0x496e76616c6964206d656d6265722061646472657373)\n        /* \"#utility.yul\":34529:34547   */\n      0x44\n      dup3\n      add\n        /* \"#utility.yul\":34522:34574   */\n      mstore\n        /* \"#utility.yul\":34591:34609   */\n      0x64\n      add\n        /* \"contracts/PadiStorage.sol\":2001:2063  require(member.wallet != address(0), \"Invalid member address\") */\n      tag_164\n        /* \"#utility.yul\":34269:34615   */\n      jump\n        /* \"contracts/PadiStorage.sol\":2001:2063  require(member.wallet != address(0), \"Invalid member address\") */\n    tag_306:\n        /* \"contracts/PadiStorage.sol\":2101:2107  member */\n      dup1\n        /* \"contracts/PadiStorage.sol\":2073:2083  membersMap */\n      0x05\n        /* \"contracts/PadiStorage.sol\":2073:2098  membersMap[member.wallet] */\n      0x00\n        /* \"contracts/PadiStorage.sol\":2084:2097  member.wallet */\n      tag_309\n      0x20\n      dup5\n      add\n        /* \"contracts/PadiStorage.sol\":2101:2107  member */\n      dup5\n        /* \"contracts/PadiStorage.sol\":2084:2097  member.wallet */\n      tag_40\n      jump\t// in\n    tag_309:\n      sub(shl(0xa0, 0x01), 0x01)\n        /* \"contracts/PadiStorage.sol\":2073:2098  membersMap[member.wallet] */\n      and\n      dup2\n      mstore\n      0x20\n      dup2\n      add\n      swap2\n      swap1\n      swap2\n      mstore\n      0x40\n      add\n      0x00\n      keccak256\n        /* \"contracts/PadiStorage.sol\":2073:2107  membersMap[member.wallet] = member */\n      tag_310\n      dup3\n        /* \"contracts/PadiStorage.sol\":2073:2098  membersMap[member.wallet] */\n      dup3\n        /* \"contracts/PadiStorage.sol\":2073:2107  membersMap[member.wallet] = member */\n      tag_311\n      jump\t// in\n    tag_310:\n      pop\n        /* \"contracts/PadiStorage.sol\":2146:2159  member.active */\n      tag_312\n      swap1\n      pop\n      0xe0\n      dup3\n      add\n      0xc0\n      dup4\n      add\n      tag_221\n      jump\t// in\n    tag_312:\n        /* \"contracts/PadiStorage.sol\":2117:2128  isMemberMap */\n      0x09\n        /* \"contracts/PadiStorage.sol\":2117:2143  isMemberMap[member.wallet] */\n      0x00\n        /* \"contracts/PadiStorage.sol\":2129:2142  member.wallet */\n      tag_313\n      0x20\n      dup6\n      add\n        /* \"contracts/PadiStorage.sol\":2129:2135  member */\n      dup6\n        /* \"contracts/PadiStorage.sol\":2129:2142  member.wallet */\n      tag_40\n      jump\t// in\n    tag_313:\n      sub(shl(0xa0, 0x01), 0x01)\n        /* \"contracts/PadiStorage.sol\":2117:2143  isMemberMap[member.wallet] */\n      and\n      dup2\n      mstore\n      0x20\n      dup1\n      dup3\n      add\n      swap3\n      swap1\n      swap3\n      mstore\n      0x40\n      add\n      0x00\n      keccak256\n        /* \"contracts/PadiStorage.sol\":2117:2159  isMemberMap[member.wallet] = member.active */\n      dup1\n      sload\n      not(0xff)\n      and\n      swap3\n      iszero\n      iszero\n      swap3\n      swap1\n      swap3\n      or\n      swap1\n      swap2\n      sstore\n        /* \"contracts/PadiStorage.sol\":2188:2201  member.wallet */\n      tag_314\n      swap1\n      dup3\n      add\n      dup3\n      tag_40\n      jump\t// in\n    tag_314:\n      sub(shl(0xa0, 0x01), 0x01)\n        /* \"contracts/PadiStorage.sol\":2174:2231  MemberUpdated(member.wallet, member.nftId, member.active) */\n      and\n      0xd923ad306578f213c8e617f9102c59f7dc3f7a3c22f77ee29ac695de0ede78f6\n        /* \"contracts/PadiStorage.sol\":2203:2215  member.nftId */\n      0x40\n      dup4\n      add\n      calldataload\n        /* \"contracts/PadiStorage.sol\":2217:2230  member.active */\n      tag_315\n      0xe0\n      dup6\n      add\n      0xc0\n      dup7\n      add\n      tag_221\n      jump\t// in\n    tag_315:\n        /* \"contracts/PadiStorage.sol\":2174:2231  MemberUpdated(member.wallet, member.nftId, member.active) */\n      0x40\n      dup1\n      mload\n        /* \"#utility.yul\":37075:37100   */\n      swap3\n      dup4\n      mstore\n        /* \"#utility.yul\":37143:37157   */\n      swap1\n      iszero\n        /* \"#utility.yul\":37136:37158   */\n      iszero\n        /* \"#utility.yul\":37131:37133   */\n      0x20\n        /* \"#utility.yul\":37116:37134   */\n      dup4\n      add\n        /* \"#utility.yul\":37109:37159   */\n      mstore\n        /* \"#utility.yul\":37048:37066   */\n      add\n        /* \"contracts/PadiStorage.sol\":2174:2231  MemberUpdated(member.wallet, member.nftId, member.active) */\n      tag_225\n        /* \"#utility.yul\":36907:37165   */\n      jump\n        /* \"contracts/PadiStorage.sol\":4744:4870  function cases(uint256 caseId) external view override returns (PadiTypes.Case memory) {... */\n    tag_139:\n        /* \"contracts/PadiStorage.sol\":4807:4828  PadiTypes.Case memory */\n      tag_318\n      mload(0x40)\n      dup1\n      0x0100\n      add\n      0x40\n      mstore\n      dup1\n      0x00\n      dup2\n      mstore\n      0x20\n      add\n      and(sub(shl(0xa0, 0x01), 0x01), 0x00)\n      dup2\n      mstore\n      0x20\n      add\n      and(sub(shl(0xa0, 0x01), 0x01), 0x00)\n      dup2\n      mstore\n      0x20\n      add\n      0x60\n      dup2\n      mstore\n      0x20\n      add\n      0x00\n      dup2\n      mstore\n      0x20\n      add\n      0x00\n      dup2\n      mstore\n      0x20\n      add\n      iszero(iszero(0x00))\n      dup2\n      mstore\n      0x20\n      add\n      0x00\n      dup2\n      mstore\n      pop\n      swap1\n      jump\n    tag_318:\n        /* \"contracts/PadiStorage.sol\":4847:4863  casesMap[caseId] */\n      0x00\n      dup3\n      dup2\n      mstore\n        /* \"contracts/PadiStorage.sol\":4847:4855  casesMap */\n      0x07\n        /* \"contracts/PadiStorage.sol\":4847:4863  casesMap[caseId] */\n      0x20\n      swap1\n      dup2\n      mstore\n      0x40\n      swap2\n      dup3\n      swap1\n      keccak256\n        /* \"contracts/PadiStorage.sol\":4840:4863  return casesMap[caseId] */\n      dup3\n      mload\n      0x0100\n      dup2\n      add\n      dup5\n      mstore\n      dup2\n      sload\n      dup2\n      mstore\n      0x01\n      dup3\n      add\n      sload\n      sub(shl(0xa0, 0x01), 0x01)\n      swap1\n      dup2\n      and\n      swap4\n      dup3\n      add\n      swap4\n      swap1\n      swap4\n      mstore\n      0x02\n      dup3\n      add\n      sload\n      swap1\n      swap3\n      and\n      swap3\n      dup3\n      add\n      swap3\n      swap1\n      swap3\n      mstore\n      0x03\n      dup3\n      add\n      dup1\n      sload\n      swap2\n      swap3\n        /* \"contracts/PadiStorage.sol\":4847:4863  casesMap[caseId] */\n      swap2\n        /* \"contracts/PadiStorage.sol\":4840:4863  return casesMap[caseId] */\n      0x60\n      dup5\n      add\n      swap2\n      swap1\n      tag_321\n      swap1\n      tag_157\n      jump\t// in\n    tag_321:\n      dup1\n      0x1f\n      add\n      0x20\n      dup1\n      swap2\n      div\n      mul\n      0x20\n      add\n      mload(0x40)\n      swap1\n      dup2\n      add\n      0x40\n      mstore\n      dup1\n      swap3\n      swap2\n      swap1\n      dup2\n      dup2\n      mstore\n      0x20\n      add\n      dup3\n      dup1\n      sload\n      tag_322\n      swap1\n      tag_157\n      jump\t// in\n    tag_322:\n      dup1\n      iszero\n      tag_323\n      jumpi\n      dup1\n      0x1f\n      lt\n      tag_324\n      jumpi\n      0x0100\n      dup1\n      dup4\n      sload\n      div\n      mul\n      dup4\n      mstore\n      swap2\n      0x20\n      add\n      swap2\n      jump(tag_323)\n    tag_324:\n      dup3\n      add\n      swap2\n      swap1\n      0x00\n      mstore\n      keccak256(0x00, 0x20)\n      swap1\n    tag_325:\n      dup2\n      sload\n      dup2\n      mstore\n      swap1\n      0x01\n      add\n      swap1\n      0x20\n      add\n      dup1\n      dup4\n      gt\n      tag_325\n      jumpi\n      dup3\n      swap1\n      sub\n      0x1f\n      and\n      dup3\n      add\n      swap2\n    tag_323:\n      pop\n      pop\n      pop\n      swap2\n      dup4\n      mstore\n      pop\n      pop\n      0x04\n      dup3\n      add\n      sload\n      0x20\n      dup3\n      add\n      mstore\n      0x05\n      dup3\n      add\n      sload\n      0x40\n      dup3\n      add\n      mstore\n      0x06\n      dup3\n      add\n      sload\n      0xff\n      and\n      iszero\n      iszero\n      0x60\n      dup3\n      add\n      mstore\n      0x07\n      swap1\n      swap2\n      add\n      sload\n      0x80\n      swap1\n      swap2\n      add\n      mstore\n      swap3\n        /* \"contracts/PadiStorage.sol\":4744:4870  function cases(uint256 caseId) external view override returns (PadiTypes.Case memory) {... */\n      swap2\n      pop\n      pop\n      jump\t// out\n        /* \"@openzeppelin/contracts/access/Ownable.sol\":2543:2758  function transferOwnership(address newOwner) public virtual onlyOwner {... */\n    tag_144:\n        /* \"@openzeppelin/contracts/access/Ownable.sol\":1531:1544  _checkOwner() */\n      tag_327\n        /* \"@openzeppelin/contracts/access/Ownable.sol\":1531:1542  _checkOwner */\n      tag_188\n        /* \"@openzeppelin/contracts/access/Ownable.sol\":1531:1544  _checkOwner() */\n      jump\t// in\n    tag_327:\n      sub(shl(0xa0, 0x01), 0x01)\n        /* \"@openzeppelin/contracts/access/Ownable.sol\":2627:2649  newOwner == address(0) */\n      dup2\n      and\n        /* \"@openzeppelin/contracts/access/Ownable.sol\":2623:2714  if (newOwner == address(0)) {... */\n      tag_329\n      jumpi\n        /* \"@openzeppelin/contracts/access/Ownable.sol\":2672:2703  OwnableInvalidOwner(address(0)) */\n      mload(0x40)\n      shl(0xe0, 0x1e4fbdf7)\n      dup2\n      mstore\n        /* \"@openzeppelin/contracts/access/Ownable.sol\":2700:2701  0 */\n      0x00\n        /* \"@openzeppelin/contracts/access/Ownable.sol\":2672:2703  OwnableInvalidOwner(address(0)) */\n      0x04\n      dup3\n      add\n        /* \"#utility.yul\":8588:8639   */\n      mstore\n        /* \"#utility.yul\":8561:8579   */\n      0x24\n      add\n        /* \"@openzeppelin/contracts/access/Ownable.sol\":2672:2703  OwnableInvalidOwner(address(0)) */\n      tag_164\n        /* \"#utility.yul\":8442:8645   */\n      jump\n        /* \"@openzeppelin/contracts/access/Ownable.sol\":2623:2714  if (newOwner == address(0)) {... */\n    tag_329:\n        /* \"@openzeppelin/contracts/access/Ownable.sol\":2723:2751  _transferOwnership(newOwner) */\n      tag_331\n        /* \"@openzeppelin/contracts/access/Ownable.sol\":2742:2750  newOwner */\n      dup2\n        /* \"@openzeppelin/contracts/access/Ownable.sol\":2723:2741  _transferOwnership */\n      tag_208\n        /* \"@openzeppelin/contracts/access/Ownable.sol\":2723:2751  _transferOwnership(newOwner) */\n      jump\t// in\n    tag_331:\n        /* \"@openzeppelin/contracts/access/Ownable.sol\":2543:2758  function transferOwnership(address newOwner) public virtual onlyOwner {... */\n      pop\n      jump\t// out\n        /* \"contracts/PadiStorage.sol\":2579:3103  function addOrUpdateCase(PadiTypes.Case calldata _case) external override onlyPadiProtocol {... */\n    tag_148:\n        /* \"contracts/PadiStorage.sol\":1370:1382  padiProtocol */\n      and(sub(shl(0xa0, 0x01), 0x01), sload(0x01))\n        /* \"contracts/PadiStorage.sol\":1356:1366  msg.sender */\n      caller\n        /* \"contracts/PadiStorage.sol\":1356:1382  msg.sender == padiProtocol */\n      eq\n        /* \"contracts/PadiStorage.sol\":1348:1406  require(msg.sender == padiProtocol, \"Unauthorized access\") */\n      tag_333\n      jumpi\n      mload(0x40)\n      shl(0xe5, 0x461bcd)\n      dup2\n      mstore\n      0x04\n      add\n      tag_164\n      swap1\n      tag_165\n      jump\t// in\n    tag_333:\n        /* \"contracts/PadiStorage.sol\":2688:2696  _case.id */\n      dup1\n      calldataload\n      0x00\n        /* \"contracts/PadiStorage.sol\":2688:2701  _case.id != 0 */\n      sub\n        /* \"contracts/PadiStorage.sol\":2680:2721  require(_case.id != 0, \"Invalid case ID\") */\n      tag_336\n      jumpi\n      mload(0x40)\n      shl(0xe5, 0x461bcd)\n      dup2\n      mstore\n        /* \"#utility.yul\":37372:37374   */\n      0x20\n        /* \"contracts/PadiStorage.sol\":2680:2721  require(_case.id != 0, \"Invalid case ID\") */\n      0x04\n      dup3\n      add\n        /* \"#utility.yul\":37354:37375   */\n      mstore\n        /* \"#utility.yul\":37411:37413   */\n      0x0f\n        /* \"#utility.yul\":37391:37409   */\n      0x24\n      dup3\n      add\n        /* \"#utility.yul\":37384:37414   */\n      mstore\n      shl(0x8a, 0x125b9d985b1a590818d85cd9481251)\n        /* \"#utility.yul\":37430:37448   */\n      0x44\n      dup3\n      add\n        /* \"#utility.yul\":37423:37468   */\n      mstore\n        /* \"#utility.yul\":37485:37503   */\n      0x64\n      add\n        /* \"contracts/PadiStorage.sol\":2680:2721  require(_case.id != 0, \"Invalid case ID\") */\n      tag_164\n        /* \"#utility.yul\":37170:37509   */\n      jump\n        /* \"contracts/PadiStorage.sol\":2680:2721  require(_case.id != 0, \"Invalid case ID\") */\n    tag_336:\n        /* \"contracts/PadiStorage.sol\":2763:2764  0 */\n      0x00\n        /* \"contracts/PadiStorage.sol\":2739:2751  _case.member */\n      tag_339\n      0x40\n      dup4\n      add\n      0x20\n      dup5\n      add\n      tag_40\n      jump\t// in\n    tag_339:\n      sub(shl(0xa0, 0x01), 0x01)\n        /* \"contracts/PadiStorage.sol\":2739:2765  _case.member != address(0) */\n      and\n      sub\n        /* \"contracts/PadiStorage.sol\":2731:2784  require(_case.member != address(0), \"Invalid member\") */\n      tag_340\n      jumpi\n      mload(0x40)\n      shl(0xe5, 0x461bcd)\n      dup2\n      mstore\n        /* \"#utility.yul\":37716:37718   */\n      0x20\n        /* \"contracts/PadiStorage.sol\":2731:2784  require(_case.member != address(0), \"Invalid member\") */\n      0x04\n      dup3\n      add\n        /* \"#utility.yul\":37698:37719   */\n      mstore\n        /* \"#utility.yul\":37755:37757   */\n      0x0e\n        /* \"#utility.yul\":37735:37753   */\n      0x24\n      dup3\n      add\n        /* \"#utility.yul\":37728:37758   */\n      mstore\n      shl(0x91, 0x24b73b30b634b21036b2b6b132b9)\n        /* \"#utility.yul\":37774:37792   */\n      0x44\n      dup3\n      add\n        /* \"#utility.yul\":37767:37811   */\n      mstore\n        /* \"#utility.yul\":37828:37846   */\n      0x64\n      add\n        /* \"contracts/PadiStorage.sol\":2731:2784  require(_case.member != address(0), \"Invalid member\") */\n      tag_164\n        /* \"#utility.yul\":37514:37852   */\n      jump\n        /* \"contracts/PadiStorage.sol\":2731:2784  require(_case.member != address(0), \"Invalid member\") */\n    tag_340:\n        /* \"contracts/PadiStorage.sol\":2826:2827  0 */\n      0x00\n        /* \"contracts/PadiStorage.sol\":2802:2814  _case.lawyer */\n      tag_343\n      0x60\n      dup4\n      add\n      0x40\n      dup5\n      add\n      tag_40\n      jump\t// in\n    tag_343:\n      sub(shl(0xa0, 0x01), 0x01)\n        /* \"contracts/PadiStorage.sol\":2802:2828  _case.lawyer != address(0) */\n      and\n      sub\n        /* \"contracts/PadiStorage.sol\":2794:2847  require(_case.lawyer != address(0), \"Invalid lawyer\") */\n      tag_344\n      jumpi\n      mload(0x40)\n      shl(0xe5, 0x461bcd)\n      dup2\n      mstore\n        /* \"#utility.yul\":38059:38061   */\n      0x20\n        /* \"contracts/PadiStorage.sol\":2794:2847  require(_case.lawyer != address(0), \"Invalid lawyer\") */\n      0x04\n      dup3\n      add\n        /* \"#utility.yul\":38041:38062   */\n      mstore\n        /* \"#utility.yul\":38098:38100   */\n      0x0e\n        /* \"#utility.yul\":38078:38096   */\n      0x24\n      dup3\n      add\n        /* \"#utility.yul\":38071:38101   */\n      mstore\n      shl(0x91, 0x24b73b30b634b2103630bbbcb2b9)\n        /* \"#utility.yul\":38117:38135   */\n      0x44\n      dup3\n      add\n        /* \"#utility.yul\":38110:38154   */\n      mstore\n        /* \"#utility.yul\":38171:38189   */\n      0x64\n      add\n        /* \"contracts/PadiStorage.sol\":2794:2847  require(_case.lawyer != address(0), \"Invalid lawyer\") */\n      tag_164\n        /* \"#utility.yul\":37857:38195   */\n      jump\n        /* \"contracts/PadiStorage.sol\":2794:2847  require(_case.lawyer != address(0), \"Invalid lawyer\") */\n    tag_344:\n        /* \"contracts/PadiStorage.sol\":2862:2876  _case.resolved */\n      tag_347\n      0xe0\n      dup3\n      add\n      0xc0\n      dup4\n      add\n      tag_221\n      jump\t// in\n    tag_347:\n        /* \"contracts/PadiStorage.sol\":2858:2980  if (_case.resolved) {... */\n      iszero\n      tag_348\n      jumpi\n        /* \"contracts/PadiStorage.sol\":2892:2916  _moveCaseToClosed(_case) */\n      tag_349\n        /* \"contracts/PadiStorage.sol\":2910:2915  _case */\n      dup2\n        /* \"contracts/PadiStorage.sol\":2892:2909  _moveCaseToClosed */\n      tag_350\n        /* \"contracts/PadiStorage.sol\":2892:2916  _moveCaseToClosed(_case) */\n      jump\t// in\n    tag_349:\n        /* \"contracts/PadiStorage.sol\":2858:2980  if (_case.resolved) {... */\n      jump(tag_352)\n    tag_348:\n        /* \"contracts/PadiStorage.sol\":2947:2969  _addToOpenCases(_case) */\n      tag_352\n        /* \"contracts/PadiStorage.sol\":2963:2968  _case */\n      dup2\n        /* \"contracts/PadiStorage.sol\":2947:2962  _addToOpenCases */\n      tag_353\n        /* \"contracts/PadiStorage.sol\":2947:2969  _addToOpenCases(_case) */\n      jump\t// in\n    tag_352:\n        /* \"contracts/PadiStorage.sol\":2999:3007  _case.id */\n      dup1\n      calldataload\n        /* \"contracts/PadiStorage.sol\":2990:3008  casesMap[_case.id] */\n      0x00\n      swap1\n      dup2\n      mstore\n        /* \"contracts/PadiStorage.sol\":2990:2998  casesMap */\n      0x07\n        /* \"contracts/PadiStorage.sol\":2990:3008  casesMap[_case.id] */\n      0x20\n      mstore\n      0x40\n      swap1\n      keccak256\n        /* \"contracts/PadiStorage.sol\":3011:3016  _case */\n      dup2\n      swap1\n        /* \"contracts/PadiStorage.sol\":2990:3016  casesMap[_case.id] = _case */\n      tag_354\n        /* \"contracts/PadiStorage.sol\":3011:3016  _case */\n      dup3\n        /* \"contracts/PadiStorage.sol\":2990:3008  casesMap[_case.id] */\n      dup3\n        /* \"contracts/PadiStorage.sol\":2990:3016  casesMap[_case.id] = _case */\n      tag_355\n      jump\t// in\n    tag_354:\n      pop\n        /* \"contracts/PadiStorage.sol\":3067:3079  _case.lawyer */\n      tag_356\n      swap1\n      pop\n      0x60\n      dup3\n      add\n      0x40\n      dup4\n      add\n      tag_40\n      jump\t// in\n    tag_356:\n      sub(shl(0xa0, 0x01), 0x01)\n        /* \"contracts/PadiStorage.sol\":3031:3096  CaseUpdated(_case.id, _case.member, _case.lawyer, _case.resolved) */\n      and\n        /* \"contracts/PadiStorage.sol\":3053:3065  _case.member */\n      tag_357\n      0x40\n      dup4\n      add\n      0x20\n      dup5\n      add\n      tag_40\n      jump\t// in\n    tag_357:\n      sub(shl(0xa0, 0x01), 0x01)\n        /* \"contracts/PadiStorage.sol\":3031:3096  CaseUpdated(_case.id, _case.member, _case.lawyer, _case.resolved) */\n      and\n        /* \"contracts/PadiStorage.sol\":3043:3051  _case.id */\n      dup3\n      calldataload\n        /* \"contracts/PadiStorage.sol\":3031:3096  CaseUpdated(_case.id, _case.member, _case.lawyer, _case.resolved) */\n      0x3087c877b53a5024e8f601ea7f932c61bd51c5b78d732358bdab9821c26e67f5\n        /* \"contracts/PadiStorage.sol\":3081:3095  _case.resolved */\n      tag_358\n      0xe0\n      dup7\n      add\n      0xc0\n      dup8\n      add\n      tag_221\n      jump\t// in\n    tag_358:\n        /* \"contracts/PadiStorage.sol\":3031:3096  CaseUpdated(_case.id, _case.member, _case.lawyer, _case.resolved) */\n      mload(0x40)\n        /* \"#utility.yul\":4324:4338   */\n      swap1\n      iszero\n        /* \"#utility.yul\":4317:4339   */\n      iszero\n        /* \"#utility.yul\":4299:4340   */\n      dup2\n      mstore\n        /* \"#utility.yul\":4287:4289   */\n      0x20\n        /* \"#utility.yul\":4272:4290   */\n      add\n        /* \"contracts/PadiStorage.sol\":3031:3096  CaseUpdated(_case.id, _case.member, _case.lawyer, _case.resolved) */\n      mload(0x40)\n      dup1\n      swap2\n      sub\n      swap1\n      log4\n        /* \"contracts/PadiStorage.sol\":2579:3103  function addOrUpdateCase(PadiTypes.Case calldata _case) external override onlyPadiProtocol {... */\n      pop\n      jump\t// out\n        /* \"@openzeppelin/contracts/access/Ownable.sol\":1796:1958  function _checkOwner() internal view virtual {... */\n    tag_188:\n        /* \"@openzeppelin/contracts/access/Ownable.sol\":1684:1691  address */\n      0x00\n        /* \"@openzeppelin/contracts/access/Ownable.sol\":1710:1716  _owner */\n      sload\n      sub(shl(0xa0, 0x01), 0x01)\n      and\n        /* \"@openzeppelin/contracts/utils/Context.sol\":735:745  msg.sender */\n      caller\n        /* \"@openzeppelin/contracts/access/Ownable.sol\":1855:1878  owner() != _msgSender() */\n      eq\n        /* \"@openzeppelin/contracts/access/Ownable.sol\":1851:1952  if (owner() != _msgSender()) {... */\n      tag_207\n      jumpi\n        /* \"@openzeppelin/contracts/access/Ownable.sol\":1901:1941  OwnableUnauthorizedAccount(_msgSender()) */\n      mload(0x40)\n      shl(0xe0, 0x118cdaa7)\n      dup2\n      mstore\n        /* \"@openzeppelin/contracts/utils/Context.sol\":735:745  msg.sender */\n      caller\n        /* \"@openzeppelin/contracts/access/Ownable.sol\":1901:1941  OwnableUnauthorizedAccount(_msgSender()) */\n      0x04\n      dup3\n      add\n        /* \"#utility.yul\":8588:8639   */\n      mstore\n        /* \"#utility.yul\":8561:8579   */\n      0x24\n      add\n        /* \"@openzeppelin/contracts/access/Ownable.sol\":1901:1941  OwnableUnauthorizedAccount(_msgSender()) */\n      tag_164\n        /* \"#utility.yul\":8442:8645   */\n      jump\n        /* \"@openzeppelin/contracts/access/Ownable.sol\":2912:3099  function _transferOwnership(address newOwner) internal virtual {... */\n    tag_208:\n        /* \"@openzeppelin/contracts/access/Ownable.sol\":2985:3001  address oldOwner */\n      0x00\n        /* \"@openzeppelin/contracts/access/Ownable.sol\":3004:3010  _owner */\n      dup1\n      sload\n      sub(shl(0xa0, 0x01), 0x01)\n        /* \"@openzeppelin/contracts/access/Ownable.sol\":3020:3037  _owner = newOwner */\n      dup4\n      dup2\n      and\n      not(sub(shl(0xa0, 0x01), 0x01))\n      dup4\n      and\n      dup2\n      or\n      dup5\n      sstore\n        /* \"@openzeppelin/contracts/access/Ownable.sol\":3052:3092  OwnershipTransferred(oldOwner, newOwner) */\n      mload(0x40)\n        /* \"@openzeppelin/contracts/access/Ownable.sol\":3004:3010  _owner */\n      swap2\n      swap1\n      swap3\n      and\n      swap3\n      dup4\n      swap2\n        /* \"@openzeppelin/contracts/access/Ownable.sol\":3052:3092  OwnershipTransferred(oldOwner, newOwner) */\n      0x8be0079c531659141344cd1fd0a4f28419497f9722a3daafe3b4186f6b6457e0\n      swap2\n        /* \"@openzeppelin/contracts/access/Ownable.sol\":2985:3001  address oldOwner */\n      swap1\n        /* \"@openzeppelin/contracts/access/Ownable.sol\":3052:3092  OwnershipTransferred(oldOwner, newOwner) */\n      log3\n        /* \"@openzeppelin/contracts/access/Ownable.sol\":2975:3099  {... */\n      pop\n        /* \"@openzeppelin/contracts/access/Ownable.sol\":2912:3099  function _transferOwnership(address newOwner) internal virtual {... */\n      pop\n      jump\t// out\n        /* \"contracts/PadiStorage.sol\":3560:3968  function _moveCaseToClosed(PadiTypes.Case calldata _case) private {... */\n    tag_350:\n        /* \"contracts/PadiStorage.sol\":3636:3658  uint256[] storage open */\n      0x00\n        /* \"contracts/PadiStorage.sol\":3661:3676  lawyerOpenCases */\n      0x0b\n        /* \"contracts/PadiStorage.sol\":3636:3658  uint256[] storage open */\n      dup2\n        /* \"contracts/PadiStorage.sol\":3677:3689  _case.lawyer */\n      tag_369\n      0x60\n      dup6\n      add\n      0x40\n      dup7\n      add\n      tag_40\n      jump\t// in\n    tag_369:\n      sub(shl(0xa0, 0x01), 0x01)\n        /* \"contracts/PadiStorage.sol\":3661:3690  lawyerOpenCases[_case.lawyer] */\n      and\n      dup2\n      mstore\n      0x20\n      dup2\n      add\n      swap2\n      swap1\n      swap2\n      mstore\n      0x40\n      add\n      0x00\n      swap1\n      dup2\n      keccak256\n      swap2\n      pop\n        /* \"contracts/PadiStorage.sol\":3700:3906  for (uint256 i = 0; i < open.length; i++) {... */\n    tag_370:\n        /* \"contracts/PadiStorage.sol\":3724:3735  open.length */\n      dup2\n      sload\n        /* \"contracts/PadiStorage.sol\":3720:3735  i < open.length */\n      dup2\n      lt\n        /* \"contracts/PadiStorage.sol\":3700:3906  for (uint256 i = 0; i < open.length; i++) {... */\n      iszero\n      tag_371\n      jumpi\n        /* \"contracts/PadiStorage.sol\":3771:3776  _case */\n      dup3\n        /* \"contracts/PadiStorage.sol\":3771:3779  _case.id */\n      0x00\n      add\n      calldataload\n        /* \"contracts/PadiStorage.sol\":3760:3764  open */\n      dup3\n        /* \"contracts/PadiStorage.sol\":3765:3766  i */\n      dup3\n        /* \"contracts/PadiStorage.sol\":3760:3767  open[i] */\n      dup2\n      sload\n      dup2\n      lt\n      tag_374\n      jumpi\n      tag_374\n      tag_375\n      jump\t// in\n    tag_374:\n      swap1\n      0x00\n      mstore\n      keccak256(0x00, 0x20)\n      add\n      sload\n        /* \"contracts/PadiStorage.sol\":3760:3779  open[i] == _case.id */\n      sub\n        /* \"contracts/PadiStorage.sol\":3756:3896  if (open[i] == _case.id) {... */\n      tag_377\n      jumpi\n        /* \"contracts/PadiStorage.sol\":3814:3825  open.length */\n      dup2\n      sload\n        /* \"contracts/PadiStorage.sol\":3809:3813  open */\n      dup3\n      swap1\n        /* \"contracts/PadiStorage.sol\":3814:3829  open.length - 1 */\n      tag_378\n      swap1\n        /* \"contracts/PadiStorage.sol\":3828:3829  1 */\n      0x01\n      swap1\n        /* \"contracts/PadiStorage.sol\":3814:3829  open.length - 1 */\n      tag_379\n      jump\t// in\n    tag_378:\n        /* \"contracts/PadiStorage.sol\":3809:3830  open[open.length - 1] */\n      dup2\n      sload\n      dup2\n      lt\n      tag_381\n      jumpi\n      tag_381\n      tag_375\n      jump\t// in\n    tag_381:\n      swap1\n      0x00\n      mstore\n      keccak256(0x00, 0x20)\n      add\n      sload\n        /* \"contracts/PadiStorage.sol\":3799:3803  open */\n      dup3\n        /* \"contracts/PadiStorage.sol\":3804:3805  i */\n      dup3\n        /* \"contracts/PadiStorage.sol\":3799:3806  open[i] */\n      dup2\n      sload\n      dup2\n      lt\n      tag_384\n      jumpi\n      tag_384\n      tag_375\n      jump\t// in\n    tag_384:\n      swap1\n      0x00\n      mstore\n      keccak256(0x00, 0x20)\n      add\n        /* \"contracts/PadiStorage.sol\":3799:3830  open[i] = open[open.length - 1] */\n      dup2\n      swap1\n      sstore\n      pop\n        /* \"contracts/PadiStorage.sol\":3848:3852  open */\n      dup2\n        /* \"contracts/PadiStorage.sol\":3848:3858  open.pop() */\n      dup1\n      sload\n      dup1\n      tag_387\n      jumpi\n      tag_387\n      tag_388\n      jump\t// in\n    tag_387:\n      0x01\n      swap1\n      sub\n      dup2\n      dup2\n      swap1\n      0x00\n      mstore\n      keccak256(0x00, 0x20)\n      add\n      0x00\n      swap1\n      sstore\n      swap1\n      sstore\n        /* \"contracts/PadiStorage.sol\":3876:3881  break */\n      jump(tag_371)\n        /* \"contracts/PadiStorage.sol\":3756:3896  if (open[i] == _case.id) {... */\n    tag_377:\n        /* \"contracts/PadiStorage.sol\":3737:3740  i++ */\n      0x01\n      add\n        /* \"contracts/PadiStorage.sol\":3700:3906  for (uint256 i = 0; i < open.length; i++) {... */\n      jump(tag_370)\n    tag_371:\n      pop\n        /* \"contracts/PadiStorage.sol\":3915:3932  lawyerClosedCases */\n      0x0c\n        /* \"contracts/PadiStorage.sol\":3915:3946  lawyerClosedCases[_case.lawyer] */\n      0x00\n        /* \"contracts/PadiStorage.sol\":3933:3945  _case.lawyer */\n      tag_390\n      0x60\n      dup6\n      add\n      0x40\n      dup7\n      add\n      tag_40\n      jump\t// in\n    tag_390:\n      sub(shl(0xa0, 0x01), 0x01)\n        /* \"contracts/PadiStorage.sol\":3915:3946  lawyerClosedCases[_case.lawyer] */\n      and\n      dup2\n      mstore\n      0x20\n      dup1\n      dup3\n      add\n      swap3\n      swap1\n      swap3\n      mstore\n      0x40\n      add\n      0x00\n      swap1\n      dup2\n      keccak256\n        /* \"contracts/PadiStorage.sol\":3915:3961  lawyerClosedCases[_case.lawyer].push(_case.id) */\n      dup1\n      sload\n      0x01\n      dup2\n      add\n      dup3\n      sstore\n      swap1\n      dup3\n      mstore\n      swap2\n      swap1\n      keccak256\n        /* \"contracts/PadiStorage.sol\":3952:3960  _case.id */\n      swap3\n      calldataload\n        /* \"contracts/PadiStorage.sol\":3915:3961  lawyerClosedCases[_case.lawyer].push(_case.id) */\n      swap3\n      add\n      swap2\n      swap1\n      swap2\n      sstore\n      pop\n        /* \"contracts/PadiStorage.sol\":3560:3968  function _moveCaseToClosed(PadiTypes.Case calldata _case) private {... */\n      jump\t// out\n        /* \"contracts/PadiStorage.sol\":3311:3554  function _addToOpenCases(PadiTypes.Case calldata _case) private {... */\n    tag_353:\n        /* \"contracts/PadiStorage.sol\":3385:3413  uint256[] storage casesArray */\n      0x00\n        /* \"contracts/PadiStorage.sol\":3416:3431  lawyerOpenCases */\n      0x0b\n        /* \"contracts/PadiStorage.sol\":3385:3413  uint256[] storage casesArray */\n      dup2\n        /* \"contracts/PadiStorage.sol\":3432:3444  _case.lawyer */\n      tag_393\n      0x60\n      dup6\n      add\n      0x40\n      dup7\n      add\n      tag_40\n      jump\t// in\n    tag_393:\n      sub(shl(0xa0, 0x01), 0x01)\n        /* \"contracts/PadiStorage.sol\":3416:3445  lawyerOpenCases[_case.lawyer] */\n      and\n      dup2\n      mstore\n      0x20\n      dup2\n      add\n      swap2\n      swap1\n      swap2\n      mstore\n      0x40\n      add\n      0x00\n      keccak256\n      swap1\n      pop\n        /* \"contracts/PadiStorage.sol\":3460:3496  _existsInArray(casesArray, _case.id) */\n      tag_394\n        /* \"contracts/PadiStorage.sol\":3416:3445  lawyerOpenCases[_case.lawyer] */\n      dup2\n        /* \"contracts/PadiStorage.sol\":3487:3495  _case.id */\n      dup4\n      calldataload\n        /* \"contracts/PadiStorage.sol\":3460:3474  _existsInArray */\n      tag_395\n        /* \"contracts/PadiStorage.sol\":3460:3496  _existsInArray(casesArray, _case.id) */\n      jump\t// in\n    tag_394:\n        /* \"contracts/PadiStorage.sol\":3455:3548  if (!_existsInArray(casesArray, _case.id)) {... */\n      tag_396\n      jumpi\n        /* \"contracts/PadiStorage.sol\":3512:3537  casesArray.push(_case.id) */\n      dup1\n      sload\n      0x01\n      dup2\n      add\n      dup3\n      sstore\n        /* \"contracts/PadiStorage.sol\":3528:3536  _case.id */\n      0x00\n        /* \"contracts/PadiStorage.sol\":3512:3537  casesArray.push(_case.id) */\n      dup3\n      dup2\n      mstore\n      0x20\n      swap1\n      keccak256\n        /* \"contracts/PadiStorage.sol\":3528:3536  _case.id */\n      dup4\n      calldataload\n        /* \"contracts/PadiStorage.sol\":3512:3537  casesArray.push(_case.id) */\n      swap2\n      add\n      sstore\n        /* \"contracts/PadiStorage.sol\":3455:3548  if (!_existsInArray(casesArray, _case.id)) {... */\n    tag_396:\n        /* \"contracts/PadiStorage.sol\":3375:3554  {... */\n      pop\n        /* \"contracts/PadiStorage.sol\":3311:3554  function _addToOpenCases(PadiTypes.Case calldata _case) private {... */\n      pop\n      jump\t// out\n        /* \"contracts/PadiStorage.sol\":3974:4200  function _existsInArray(uint256[] storage arr, uint256 value) private view returns (bool) {... */\n    tag_395:\n        /* \"contracts/PadiStorage.sol\":4058:4062  bool */\n      0x00\n      dup1\n        /* \"contracts/PadiStorage.sol\":4074:4172  for (uint256 i = 0; i < arr.length; i++) {... */\n    tag_400:\n        /* \"contracts/PadiStorage.sol\":4098:4108  arr.length */\n      dup4\n      sload\n        /* \"contracts/PadiStorage.sol\":4094:4108  i < arr.length */\n      dup2\n      lt\n        /* \"contracts/PadiStorage.sol\":4074:4172  for (uint256 i = 0; i < arr.length; i++) {... */\n      iszero\n      tag_401\n      jumpi\n        /* \"contracts/PadiStorage.sol\":4143:4148  value */\n      dup3\n        /* \"contracts/PadiStorage.sol\":4133:4136  arr */\n      dup5\n        /* \"contracts/PadiStorage.sol\":4137:4138  i */\n      dup3\n        /* \"contracts/PadiStorage.sol\":4133:4139  arr[i] */\n      dup2\n      sload\n      dup2\n      lt\n      tag_404\n      jumpi\n      tag_404\n      tag_375\n      jump\t// in\n    tag_404:\n      swap1\n      0x00\n      mstore\n      keccak256(0x00, 0x20)\n      add\n      sload\n        /* \"contracts/PadiStorage.sol\":4133:4148  arr[i] == value */\n      sub\n        /* \"contracts/PadiStorage.sol\":4129:4161  if (arr[i] == value) return true */\n      tag_406\n      jumpi\n        /* \"contracts/PadiStorage.sol\":4157:4161  true */\n      0x01\n        /* \"contracts/PadiStorage.sol\":4150:4161  return true */\n      swap2\n      pop\n      pop\n      jump(tag_399)\n        /* \"contracts/PadiStorage.sol\":4129:4161  if (arr[i] == value) return true */\n    tag_406:\n        /* \"contracts/PadiStorage.sol\":4110:4113  i++ */\n      0x01\n      add\n        /* \"contracts/PadiStorage.sol\":4074:4172  for (uint256 i = 0; i < arr.length; i++) {... */\n      jump(tag_400)\n    tag_401:\n      pop\n        /* \"contracts/PadiStorage.sol\":4188:4193  false */\n      0x00\n        /* \"contracts/PadiStorage.sol\":4181:4193  return false */\n      swap1\n      pop\n        /* \"contracts/PadiStorage.sol\":3974:4200  function _existsInArray(uint256[] storage arr, uint256 value) private view returns (bool) {... */\n    tag_399:\n      swap3\n      swap2\n      pop\n      pop\n      jump\t// out\n    tag_265:\n      mload(0x40)\n      dup1\n      0x0100\n      add\n      0x40\n      mstore\n      dup1\n      0x00\n      dup2\n      mstore\n      0x20\n      add\n      and(sub(shl(0xa0, 0x01), 0x01), 0x00)\n      dup2\n      mstore\n      0x20\n      add\n      0x60\n      dup2\n      mstore\n      0x20\n      add\n      0x00\n      dup2\n      mstore\n      0x20\n      add\n      0x00\n      0x02\n      dup2\n      gt\n      iszero\n      tag_408\n      jumpi\n      tag_408\n      tag_274\n      jump\t// in\n    tag_408:\n      dup2\n      mstore\n      0x00\n      0x20\n      dup3\n      add\n      mstore\n      0x60\n      0x40\n      dup3\n      add\n      dup2\n      swap1\n      mstore\n      swap1\n      dup2\n      add\n      mstore\n      swap1\n      jump\t// out\n        /* \"#utility.yul\":14:145   */\n    tag_409:\n      sub(shl(0xa0, 0x01), 0x01)\n        /* \"#utility.yul\":89:120   */\n      dup2\n      and\n        /* \"#utility.yul\":79:121   */\n      dup2\n      eq\n        /* \"#utility.yul\":69:139   */\n      tag_331\n      jumpi\n        /* \"#utility.yul\":135:136   */\n      0x00\n        /* \"#utility.yul\":132:133   */\n      0x00\n        /* \"#utility.yul\":125:137   */\n      revert\n        /* \"#utility.yul\":150:397   */\n    tag_40:\n        /* \"#utility.yul\":209:215   */\n      0x00\n        /* \"#utility.yul\":262:264   */\n      0x20\n        /* \"#utility.yul\":250:259   */\n      dup3\n        /* \"#utility.yul\":241:248   */\n      dup5\n        /* \"#utility.yul\":237:260   */\n      sub\n        /* \"#utility.yul\":233:265   */\n      slt\n        /* \"#utility.yul\":230:282   */\n      iszero\n      tag_445\n      jumpi\n        /* \"#utility.yul\":278:279   */\n      0x00\n        /* \"#utility.yul\":275:276   */\n      0x00\n        /* \"#utility.yul\":268:280   */\n      revert\n        /* \"#utility.yul\":230:282   */\n    tag_445:\n        /* \"#utility.yul\":317:326   */\n      dup2\n        /* \"#utility.yul\":304:327   */\n      calldataload\n        /* \"#utility.yul\":336:367   */\n      tag_446\n        /* \"#utility.yul\":361:366   */\n      dup2\n        /* \"#utility.yul\":336:367   */\n      tag_409\n      jump\t// in\n    tag_446:\n        /* \"#utility.yul\":386:391   */\n      swap4\n        /* \"#utility.yul\":150:397   */\n      swap3\n      pop\n      pop\n      pop\n      jump\t// out\n        /* \"#utility.yul\":511:800   */\n    tag_411:\n        /* \"#utility.yul\":553:556   */\n      0x00\n        /* \"#utility.yul\":591:596   */\n      dup2\n        /* \"#utility.yul\":585:597   */\n      mload\n        /* \"#utility.yul\":618:624   */\n      dup1\n        /* \"#utility.yul\":613:616   */\n      dup5\n        /* \"#utility.yul\":606:625   */\n      mstore\n        /* \"#utility.yul\":674:680   */\n      dup1\n        /* \"#utility.yul\":667:671   */\n      0x20\n        /* \"#utility.yul\":660:665   */\n      dup5\n        /* \"#utility.yul\":656:672   */\n      add\n        /* \"#utility.yul\":649:653   */\n      0x20\n        /* \"#utility.yul\":644:647   */\n      dup7\n        /* \"#utility.yul\":640:654   */\n      add\n        /* \"#utility.yul\":634:681   */\n      mcopy\n        /* \"#utility.yul\":726:727   */\n      0x00\n        /* \"#utility.yul\":719:723   */\n      0x20\n        /* \"#utility.yul\":710:716   */\n      dup3\n        /* \"#utility.yul\":705:708   */\n      dup7\n        /* \"#utility.yul\":701:717   */\n      add\n        /* \"#utility.yul\":697:724   */\n      add\n        /* \"#utility.yul\":690:728   */\n      mstore\n        /* \"#utility.yul\":789:793   */\n      0x20\n        /* \"#utility.yul\":782:784   */\n      0x1f\n        /* \"#utility.yul\":778:785   */\n      not\n        /* \"#utility.yul\":773:775   */\n      0x1f\n        /* \"#utility.yul\":765:771   */\n      dup4\n        /* \"#utility.yul\":761:776   */\n      add\n        /* \"#utility.yul\":757:786   */\n      and\n        /* \"#utility.yul\":752:755   */\n      dup6\n        /* \"#utility.yul\":748:787   */\n      add\n        /* \"#utility.yul\":744:794   */\n      add\n        /* \"#utility.yul\":737:794   */\n      swap2\n      pop\n      pop\n        /* \"#utility.yul\":511:800   */\n      swap3\n      swap2\n      pop\n      pop\n      jump\t// out\n        /* \"#utility.yul\":901:1696   */\n    tag_43:\n        /* \"#utility.yul\":1076:1078   */\n      0x20\n        /* \"#utility.yul\":1065:1074   */\n      dup2\n        /* \"#utility.yul\":1058:1079   */\n      mstore\n        /* \"#utility.yul\":1151:1152   */\n      0x01\n        /* \"#utility.yul\":1147:1148   */\n      dup1\n        /* \"#utility.yul\":1142:1145   */\n      0xa0\n        /* \"#utility.yul\":1138:1149   */\n      shl\n        /* \"#utility.yul\":1134:1153   */\n      sub\n        /* \"#utility.yul\":1125:1131   */\n      dup3\n        /* \"#utility.yul\":1119:1132   */\n      mload\n        /* \"#utility.yul\":1115:1154   */\n      and\n        /* \"#utility.yul\":1110:1112   */\n      0x20\n        /* \"#utility.yul\":1099:1108   */\n      dup3\n        /* \"#utility.yul\":1095:1113   */\n      add\n        /* \"#utility.yul\":1088:1155   */\n      mstore\n        /* \"#utility.yul\":1236:1237   */\n      0x01\n        /* \"#utility.yul\":1232:1233   */\n      dup1\n        /* \"#utility.yul\":1227:1230   */\n      0xa0\n        /* \"#utility.yul\":1223:1234   */\n      shl\n        /* \"#utility.yul\":1219:1238   */\n      sub\n        /* \"#utility.yul\":1213:1215   */\n      0x20\n        /* \"#utility.yul\":1205:1211   */\n      dup4\n        /* \"#utility.yul\":1201:1216   */\n      add\n        /* \"#utility.yul\":1195:1217   */\n      mload\n        /* \"#utility.yul\":1191:1239   */\n      and\n        /* \"#utility.yul\":1186:1188   */\n      0x40\n        /* \"#utility.yul\":1175:1184   */\n      dup3\n        /* \"#utility.yul\":1171:1189   */\n      add\n        /* \"#utility.yul\":1164:1240   */\n      mstore\n        /* \"#utility.yul\":1294:1296   */\n      0x40\n        /* \"#utility.yul\":1286:1292   */\n      dup3\n        /* \"#utility.yul\":1282:1297   */\n      add\n        /* \"#utility.yul\":1276:1298   */\n      mload\n        /* \"#utility.yul\":1271:1273   */\n      0x60\n        /* \"#utility.yul\":1260:1269   */\n      dup3\n        /* \"#utility.yul\":1256:1274   */\n      add\n        /* \"#utility.yul\":1249:1299   */\n      mstore\n        /* \"#utility.yul\":1039:1043   */\n      0x00\n        /* \"#utility.yul\":1346:1348   */\n      0x60\n        /* \"#utility.yul\":1338:1344   */\n      dup4\n        /* \"#utility.yul\":1334:1349   */\n      add\n        /* \"#utility.yul\":1328:1350   */\n      mload\n        /* \"#utility.yul\":1387:1391   */\n      0xe0\n        /* \"#utility.yul\":1381:1384   */\n      0x80\n        /* \"#utility.yul\":1370:1379   */\n      dup5\n        /* \"#utility.yul\":1366:1385   */\n      add\n        /* \"#utility.yul\":1359:1392   */\n      mstore\n        /* \"#utility.yul\":1415:1467   */\n      tag_451\n        /* \"#utility.yul\":1462:1465   */\n      0x0100\n        /* \"#utility.yul\":1451:1460   */\n      dup5\n        /* \"#utility.yul\":1447:1466   */\n      add\n        /* \"#utility.yul\":1433:1445   */\n      dup3\n        /* \"#utility.yul\":1415:1467   */\n      tag_411\n      jump\t// in\n    tag_451:\n        /* \"#utility.yul\":1401:1467   */\n      swap1\n      pop\n        /* \"#utility.yul\":1522:1525   */\n      0x80\n        /* \"#utility.yul\":1514:1520   */\n      dup5\n        /* \"#utility.yul\":1510:1526   */\n      add\n        /* \"#utility.yul\":1504:1527   */\n      mload\n        /* \"#utility.yul\":1498:1501   */\n      0xa0\n        /* \"#utility.yul\":1487:1496   */\n      dup5\n        /* \"#utility.yul\":1483:1502   */\n      add\n        /* \"#utility.yul\":1476:1528   */\n      mstore\n        /* \"#utility.yul\":1583:1586   */\n      0xa0\n        /* \"#utility.yul\":1575:1581   */\n      dup5\n        /* \"#utility.yul\":1571:1587   */\n      add\n        /* \"#utility.yul\":1565:1588   */\n      mload\n        /* \"#utility.yul\":1559:1562   */\n      0xc0\n        /* \"#utility.yul\":1548:1557   */\n      dup5\n        /* \"#utility.yul\":1544:1563   */\n      add\n        /* \"#utility.yul\":1537:1589   */\n      mstore\n        /* \"#utility.yul\":1659:1662   */\n      0xc0\n        /* \"#utility.yul\":1651:1657   */\n      dup5\n        /* \"#utility.yul\":1647:1663   */\n      add\n        /* \"#utility.yul\":1641:1664   */\n      mload\n        /* \"#utility.yul\":1634:1665   */\n      iszero\n        /* \"#utility.yul\":1627:1666   */\n      iszero\n        /* \"#utility.yul\":1620:1624   */\n      0xe0\n        /* \"#utility.yul\":1609:1618   */\n      dup5\n        /* \"#utility.yul\":1605:1625   */\n      add\n        /* \"#utility.yul\":1598:1667   */\n      mstore\n        /* \"#utility.yul\":1684:1690   */\n      dup1\n        /* \"#utility.yul\":1676:1690   */\n      swap2\n      pop\n      pop\n        /* \"#utility.yul\":901:1696   */\n      swap3\n      swap2\n      pop\n      pop\n      jump\t// out\n        /* \"#utility.yul\":1883:2426   */\n    tag_55:\n      sub(shl(0xa0, 0x01), 0x01)\n        /* \"#utility.yul\":2138:2170   */\n      dup7\n      and\n        /* \"#utility.yul\":2120:2171   */\n      dup2\n      mstore\n        /* \"#utility.yul\":2158:2161   */\n      0xa0\n        /* \"#utility.yul\":2202:2204   */\n      0x20\n        /* \"#utility.yul\":2187:2205   */\n      dup3\n      add\n        /* \"#utility.yul\":2180:2211   */\n      dup2\n      swap1\n      mstore\n      0x00\n      swap1\n        /* \"#utility.yul\":2228:2274   */\n      tag_454\n      swap1\n        /* \"#utility.yul\":2254:2273   */\n      dup4\n      add\n        /* \"#utility.yul\":2246:2252   */\n      dup8\n        /* \"#utility.yul\":2228:2274   */\n      tag_411\n      jump\t// in\n    tag_454:\n        /* \"#utility.yul\":2305:2307   */\n      0x40\n        /* \"#utility.yul\":2290:2308   */\n      dup4\n      add\n        /* \"#utility.yul\":2283:2317   */\n      swap6\n      swap1\n      swap6\n      mstore\n      pop\n        /* \"#utility.yul\":2348:2350   */\n      0x60\n        /* \"#utility.yul\":2333:2351   */\n      dup2\n      add\n        /* \"#utility.yul\":2326:2360   */\n      swap3\n      swap1\n      swap3\n      mstore\n        /* \"#utility.yul\":2404:2418   */\n      iszero\n        /* \"#utility.yul\":2397:2419   */\n      iszero\n        /* \"#utility.yul\":2391:2394   */\n      0x80\n        /* \"#utility.yul\":2376:2395   */\n      swap1\n      swap2\n      add\n        /* \"#utility.yul\":2369:2420   */\n      mstore\n        /* \"#utility.yul\":2220:2274   */\n      swap3\n        /* \"#utility.yul\":1883:2426   */\n      swap2\n      pop\n      pop\n      jump\t// out\n        /* \"#utility.yul\":2431:2936   */\n    tag_58:\n        /* \"#utility.yul\":2530:2536   */\n      0x00\n        /* \"#utility.yul\":2538:2544   */\n      0x00\n        /* \"#utility.yul\":2591:2593   */\n      0x40\n        /* \"#utility.yul\":2579:2588   */\n      dup4\n        /* \"#utility.yul\":2570:2577   */\n      dup6\n        /* \"#utility.yul\":2566:2589   */\n      sub\n        /* \"#utility.yul\":2562:2594   */\n      slt\n        /* \"#utility.yul\":2559:2611   */\n      iszero\n      tag_456\n      jumpi\n        /* \"#utility.yul\":2607:2608   */\n      0x00\n        /* \"#utility.yul\":2604:2605   */\n      0x00\n        /* \"#utility.yul\":2597:2609   */\n      revert\n        /* \"#utility.yul\":2559:2611   */\n    tag_456:\n        /* \"#utility.yul\":2652:2675   */\n      dup3\n      calldataload\n      swap2\n      pop\n        /* \"#utility.yul\":2750:2752   */\n      0x20\n        /* \"#utility.yul\":2735:2753   */\n      dup4\n      add\n        /* \"#utility.yul\":2722:2754   */\n      calldataload\n        /* \"#utility.yul\":2777:2795   */\n      0xffffffffffffffff\n        /* \"#utility.yul\":2766:2796   */\n      dup2\n      gt\n        /* \"#utility.yul\":2763:2813   */\n      iszero\n      tag_457\n      jumpi\n        /* \"#utility.yul\":2809:2810   */\n      0x00\n        /* \"#utility.yul\":2806:2807   */\n      0x00\n        /* \"#utility.yul\":2799:2811   */\n      revert\n        /* \"#utility.yul\":2763:2813   */\n    tag_457:\n        /* \"#utility.yul\":2832:2854   */\n      dup4\n      add\n        /* \"#utility.yul\":2888:2891   */\n      0x80\n        /* \"#utility.yul\":2870:2886   */\n      dup2\n      dup7\n      sub\n        /* \"#utility.yul\":2866:2892   */\n      slt\n        /* \"#utility.yul\":2863:2909   */\n      iszero\n      tag_458\n      jumpi\n        /* \"#utility.yul\":2905:2906   */\n      0x00\n        /* \"#utility.yul\":2902:2903   */\n      0x00\n        /* \"#utility.yul\":2895:2907   */\n      revert\n        /* \"#utility.yul\":2863:2909   */\n    tag_458:\n        /* \"#utility.yul\":2928:2930   */\n      dup1\n        /* \"#utility.yul\":2918:2930   */\n      swap2\n      pop\n      pop\n        /* \"#utility.yul\":2431:2936   */\n      swap3\n      pop\n      swap3\n      swap1\n      pop\n      jump\t// out\n        /* \"#utility.yul\":2941:4154   */\n    tag_67:\n        /* \"#utility.yul\":3116:3118   */\n      0x20\n        /* \"#utility.yul\":3098:3119   */\n      dup1\n      dup3\n      mstore\n        /* \"#utility.yul\":3201:3214   */\n      dup3\n      mload\n      sub(shl(0xa0, 0x01), 0x01)\n        /* \"#utility.yul\":3197:3236   */\n      and\n        /* \"#utility.yul\":3177:3195   */\n      dup3\n      dup3\n      add\n        /* \"#utility.yul\":3170:3237   */\n      mstore\n        /* \"#utility.yul\":3272:3287   */\n      dup3\n      dup2\n      add\n        /* \"#utility.yul\":3266:3288   */\n      mload\n        /* \"#utility.yul\":3324:3328   */\n      0xc0\n        /* \"#utility.yul\":3319:3321   */\n      0x40\n        /* \"#utility.yul\":3304:3322   */\n      dup5\n      add\n        /* \"#utility.yul\":3297:3329   */\n      mstore\n        /* \"#utility.yul\":3378:3397   */\n      dup1\n      mload\n        /* \"#utility.yul\":3157:3160   */\n      0xe0\n        /* \"#utility.yul\":3142:3161   */\n      dup5\n      add\n        /* \"#utility.yul\":3406:3428   */\n      dup2\n      swap1\n      mstore\n        /* \"#utility.yul\":3079:3083   */\n      0x00\n      swap3\n        /* \"#utility.yul\":3486:3507   */\n      swap2\n      swap1\n      swap2\n      add\n      swap1\n        /* \"#utility.yul\":3079:3083   */\n      dup3\n      swap1\n        /* \"#utility.yul\":3459:3462   */\n      0x0100\n        /* \"#utility.yul\":3444:3463   */\n      dup6\n      add\n      swap1\n        /* \"#utility.yul\":3535:3704   */\n    tag_460:\n        /* \"#utility.yul\":3549:3555   */\n      dup1\n        /* \"#utility.yul\":3546:3547   */\n      dup4\n        /* \"#utility.yul\":3543:3556   */\n      lt\n        /* \"#utility.yul\":3535:3704   */\n      iszero\n      tag_462\n      jumpi\n        /* \"#utility.yul\":3616:3622   */\n      dup4\n        /* \"#utility.yul\":3610:3623   */\n      mload\n        /* \"#utility.yul\":3605:3608   */\n      dup3\n        /* \"#utility.yul\":3598:3624   */\n      mstore\n        /* \"#utility.yul\":3653:3655   */\n      0x20\n        /* \"#utility.yul\":3648:3651   */\n      dup3\n        /* \"#utility.yul\":3644:3656   */\n      add\n        /* \"#utility.yul\":3637:3656   */\n      swap2\n      pop\n        /* \"#utility.yul\":3691:3693   */\n      0x20\n        /* \"#utility.yul\":3683:3689   */\n      dup5\n        /* \"#utility.yul\":3679:3694   */\n      add\n        /* \"#utility.yul\":3669:3694   */\n      swap4\n      pop\n        /* \"#utility.yul\":3571:3572   */\n      0x01\n        /* \"#utility.yul\":3568:3569   */\n      dup4\n        /* \"#utility.yul\":3564:3573   */\n      add\n        /* \"#utility.yul\":3559:3573   */\n      swap3\n      pop\n        /* \"#utility.yul\":3535:3704   */\n      jump(tag_460)\n    tag_462:\n      pop\n        /* \"#utility.yul\":3753:3755   */\n      0x40\n        /* \"#utility.yul\":3741:3756   */\n      dup7\n      add\n        /* \"#utility.yul\":3735:3757   */\n      mload\n        /* \"#utility.yul\":3797:3816   */\n      dup6\n      dup3\n      sub\n      not(0x1f)\n        /* \"#utility.yul\":3793:3826   */\n      add\n        /* \"#utility.yul\":3788:3790   */\n      0x60\n        /* \"#utility.yul\":3773:3791   */\n      dup8\n      add\n        /* \"#utility.yul\":3766:3827   */\n      mstore\n        /* \"#utility.yul\":3735:3757   */\n      swap3\n      pop\n        /* \"#utility.yul\":3850:3888   */\n      tag_463\n        /* \"#utility.yul\":3801:3804   */\n      dup2\n        /* \"#utility.yul\":3735:3757   */\n      dup5\n        /* \"#utility.yul\":3850:3888   */\n      tag_411\n      jump\t// in\n    tag_463:\n        /* \"#utility.yul\":3836:3888   */\n      swap3\n      pop\n      pop\n      pop\n        /* \"#utility.yul\":3943:3945   */\n      0x60\n        /* \"#utility.yul\":3935:3941   */\n      dup5\n        /* \"#utility.yul\":3931:3946   */\n      add\n        /* \"#utility.yul\":3925:3947   */\n      mload\n        /* \"#utility.yul\":3919:3922   */\n      0x80\n        /* \"#utility.yul\":3908:3917   */\n      dup5\n        /* \"#utility.yul\":3904:3923   */\n      add\n        /* \"#utility.yul\":3897:3948   */\n      mstore\n        /* \"#utility.yul\":4003:4006   */\n      0x80\n        /* \"#utility.yul\":3995:4001   */\n      dup5\n        /* \"#utility.yul\":3991:4007   */\n      add\n        /* \"#utility.yul\":3985:4008   */\n      mload\n        /* \"#utility.yul\":3979:3982   */\n      0xa0\n        /* \"#utility.yul\":3968:3977   */\n      dup5\n        /* \"#utility.yul\":3964:3983   */\n      add\n        /* \"#utility.yul\":3957:4009   */\n      mstore\n        /* \"#utility.yul\":4058:4061   */\n      0xa0\n        /* \"#utility.yul\":4050:4056   */\n      dup5\n        /* \"#utility.yul\":4046:4062   */\n      add\n        /* \"#utility.yul\":4040:4063   */\n      mload\n        /* \"#utility.yul\":4072:4125   */\n      tag_464\n        /* \"#utility.yul\":4119:4123   */\n      0xc0\n        /* \"#utility.yul\":4108:4117   */\n      dup6\n        /* \"#utility.yul\":4104:4124   */\n      add\n        /* \"#utility.yul\":4088:4102   */\n      dup3\n        /* \"#utility.yul\":875:888   */\n      iszero\n        /* \"#utility.yul\":868:889   */\n      iszero\n        /* \"#utility.yul\":856:890   */\n      swap1\n      mstore\n        /* \"#utility.yul\":805:896   */\n      jump\n        /* \"#utility.yul\":4072:4125   */\n    tag_464:\n      pop\n        /* \"#utility.yul\":4142:4148   */\n      swap4\n        /* \"#utility.yul\":2941:4154   */\n      swap3\n      pop\n      pop\n      pop\n      jump\t// out\n        /* \"#utility.yul\":4351:4736   */\n    tag_80:\n        /* \"#utility.yul\":4435:4441   */\n      0x00\n        /* \"#utility.yul\":4488:4490   */\n      0x20\n        /* \"#utility.yul\":4476:4485   */\n      dup3\n        /* \"#utility.yul\":4467:4474   */\n      dup5\n        /* \"#utility.yul\":4463:4486   */\n      sub\n        /* \"#utility.yul\":4459:4491   */\n      slt\n        /* \"#utility.yul\":4456:4508   */\n      iszero\n      tag_467\n      jumpi\n        /* \"#utility.yul\":4504:4505   */\n      0x00\n        /* \"#utility.yul\":4501:4502   */\n      0x00\n        /* \"#utility.yul\":4494:4506   */\n      revert\n        /* \"#utility.yul\":4456:4508   */\n    tag_467:\n        /* \"#utility.yul\":4544:4553   */\n      dup2\n        /* \"#utility.yul\":4531:4554   */\n      calldataload\n        /* \"#utility.yul\":4577:4595   */\n      0xffffffffffffffff\n        /* \"#utility.yul\":4569:4575   */\n      dup2\n        /* \"#utility.yul\":4566:4596   */\n      gt\n        /* \"#utility.yul\":4563:4613   */\n      iszero\n      tag_468\n      jumpi\n        /* \"#utility.yul\":4609:4610   */\n      0x00\n        /* \"#utility.yul\":4606:4607   */\n      0x00\n        /* \"#utility.yul\":4599:4611   */\n      revert\n        /* \"#utility.yul\":4563:4613   */\n    tag_468:\n        /* \"#utility.yul\":4632:4654   */\n      dup3\n      add\n        /* \"#utility.yul\":4688:4691   */\n      0xc0\n        /* \"#utility.yul\":4670:4686   */\n      dup2\n      dup6\n      sub\n        /* \"#utility.yul\":4666:4692   */\n      slt\n        /* \"#utility.yul\":4663:4709   */\n      iszero\n      tag_446\n      jumpi\n        /* \"#utility.yul\":4705:4706   */\n      0x00\n        /* \"#utility.yul\":4702:4703   */\n      0x00\n        /* \"#utility.yul\":4695:4707   */\n      revert\n        /* \"#utility.yul\":4741:4967   */\n    tag_87:\n        /* \"#utility.yul\":4800:4806   */\n      0x00\n        /* \"#utility.yul\":4853:4855   */\n      0x20\n        /* \"#utility.yul\":4841:4850   */\n      dup3\n        /* \"#utility.yul\":4832:4839   */\n      dup5\n        /* \"#utility.yul\":4828:4851   */\n      sub\n        /* \"#utility.yul\":4824:4856   */\n      slt\n        /* \"#utility.yul\":4821:4873   */\n      iszero\n      tag_471\n      jumpi\n        /* \"#utility.yul\":4869:4870   */\n      0x00\n        /* \"#utility.yul\":4866:4867   */\n      0x00\n        /* \"#utility.yul\":4859:4871   */\n      revert\n        /* \"#utility.yul\":4821:4873   */\n    tag_471:\n      pop\n        /* \"#utility.yul\":4914:4937   */\n      calldataload\n      swap2\n        /* \"#utility.yul\":4741:4967   */\n      swap1\n      pop\n      jump\t// out\n        /* \"#utility.yul\":4972:5757   */\n    tag_90:\n        /* \"#utility.yul\":5293:5318   */\n      dup9\n      dup2\n      mstore\n      sub(shl(0xa0, 0x01), 0x01)\n        /* \"#utility.yul\":5354:5386   */\n      dup9\n      dup2\n      and\n        /* \"#utility.yul\":5349:5351   */\n      0x20\n        /* \"#utility.yul\":5334:5352   */\n      dup4\n      add\n        /* \"#utility.yul\":5327:5387   */\n      mstore\n        /* \"#utility.yul\":5423:5455   */\n      dup8\n      and\n        /* \"#utility.yul\":5418:5420   */\n      0x40\n        /* \"#utility.yul\":5403:5421   */\n      dup3\n      add\n        /* \"#utility.yul\":5396:5456   */\n      mstore\n        /* \"#utility.yul\":5492:5495   */\n      0x0100\n        /* \"#utility.yul\":5487:5489   */\n      0x60\n        /* \"#utility.yul\":5472:5490   */\n      dup3\n      add\n        /* \"#utility.yul\":5465:5496   */\n      dup2\n      swap1\n      mstore\n      0x00\n      swap1\n        /* \"#utility.yul\":5513:5559   */\n      tag_473\n      swap1\n        /* \"#utility.yul\":5539:5558   */\n      dup4\n      add\n        /* \"#utility.yul\":5531:5537   */\n      dup9\n        /* \"#utility.yul\":5513:5559   */\n      tag_411\n      jump\t// in\n    tag_473:\n        /* \"#utility.yul\":5590:5593   */\n      0x80\n        /* \"#utility.yul\":5575:5594   */\n      dup4\n      add\n        /* \"#utility.yul\":5568:5603   */\n      swap7\n      swap1\n      swap7\n      mstore\n      pop\n        /* \"#utility.yul\":5634:5637   */\n      0xa0\n        /* \"#utility.yul\":5619:5638   */\n      dup2\n      add\n        /* \"#utility.yul\":5612:5647   */\n      swap4\n      swap1\n      swap4\n      mstore\n        /* \"#utility.yul\":5691:5705   */\n      swap1\n      iszero\n        /* \"#utility.yul\":5684:5706   */\n      iszero\n        /* \"#utility.yul\":5678:5681   */\n      0xc0\n        /* \"#utility.yul\":5663:5682   */\n      dup4\n      add\n        /* \"#utility.yul\":5656:5707   */\n      mstore\n        /* \"#utility.yul\":5738:5741   */\n      0xe0\n        /* \"#utility.yul\":5723:5742   */\n      swap1\n      swap2\n      add\n        /* \"#utility.yul\":5716:5751   */\n      mstore\n        /* \"#utility.yul\":5505:5559   */\n      swap5\n        /* \"#utility.yul\":4972:5757   */\n      swap4\n      pop\n      pop\n      pop\n      pop\n      jump\t// out\n        /* \"#utility.yul\":5762:6475   */\n    tag_95:\n      sub(shl(0xa0, 0x01), 0x01)\n        /* \"#utility.yul\":6073:6105   */\n      dup9\n      dup2\n      and\n        /* \"#utility.yul\":6055:6106   */\n      dup3\n      mstore\n        /* \"#utility.yul\":6142:6174   */\n      dup8\n      and\n        /* \"#utility.yul\":6137:6139   */\n      0x20\n        /* \"#utility.yul\":6122:6140   */\n      dup3\n      add\n        /* \"#utility.yul\":6115:6175   */\n      mstore\n        /* \"#utility.yul\":6206:6208   */\n      0x40\n        /* \"#utility.yul\":6191:6209   */\n      dup2\n      add\n        /* \"#utility.yul\":6184:6218   */\n      dup7\n      swap1\n      mstore\n        /* \"#utility.yul\":6254:6257   */\n      0xe0\n        /* \"#utility.yul\":6249:6251   */\n      0x60\n        /* \"#utility.yul\":6234:6252   */\n      dup3\n      add\n        /* \"#utility.yul\":6227:6258   */\n      dup2\n      swap1\n      mstore\n      0x00\n      swap1\n        /* \"#utility.yul\":6275:6321   */\n      tag_475\n      swap1\n        /* \"#utility.yul\":6301:6320   */\n      dup4\n      add\n        /* \"#utility.yul\":6293:6299   */\n      dup8\n        /* \"#utility.yul\":6275:6321   */\n      tag_411\n      jump\t// in\n    tag_475:\n        /* \"#utility.yul\":6352:6355   */\n      0x80\n        /* \"#utility.yul\":6337:6356   */\n      dup4\n      add\n        /* \"#utility.yul\":6330:6365   */\n      swap6\n      swap1\n      swap6\n      mstore\n      pop\n        /* \"#utility.yul\":6396:6399   */\n      0xa0\n        /* \"#utility.yul\":6381:6400   */\n      dup2\n      add\n        /* \"#utility.yul\":6374:6409   */\n      swap3\n      swap1\n      swap3\n      mstore\n        /* \"#utility.yul\":6453:6467   */\n      iszero\n        /* \"#utility.yul\":6446:6468   */\n      iszero\n        /* \"#utility.yul\":6440:6443   */\n      0xc0\n        /* \"#utility.yul\":6425:6444   */\n      swap1\n      swap2\n      add\n        /* \"#utility.yul\":6418:6469   */\n      mstore\n        /* \"#utility.yul\":6267:6321   */\n      swap5\n        /* \"#utility.yul\":5762:6475   */\n      swap4\n      pop\n      pop\n      pop\n      pop\n      jump\t// out\n        /* \"#utility.yul\":6480:6900   */\n    tag_413:\n        /* \"#utility.yul\":6533:6536   */\n      0x00\n        /* \"#utility.yul\":6571:6576   */\n      dup2\n        /* \"#utility.yul\":6565:6577   */\n      mload\n        /* \"#utility.yul\":6598:6604   */\n      dup1\n        /* \"#utility.yul\":6593:6596   */\n      dup5\n        /* \"#utility.yul\":6586:6605   */\n      mstore\n        /* \"#utility.yul\":6630:6634   */\n      0x20\n        /* \"#utility.yul\":6625:6628   */\n      dup5\n        /* \"#utility.yul\":6621:6635   */\n      add\n        /* \"#utility.yul\":6614:6635   */\n      swap4\n      pop\n        /* \"#utility.yul\":6669:6673   */\n      0x20\n        /* \"#utility.yul\":6662:6667   */\n      dup4\n        /* \"#utility.yul\":6658:6674   */\n      add\n        /* \"#utility.yul\":6692:6693   */\n      0x00\n        /* \"#utility.yul\":6702:6875   */\n    tag_477:\n        /* \"#utility.yul\":6716:6722   */\n      dup3\n        /* \"#utility.yul\":6713:6714   */\n      dup2\n        /* \"#utility.yul\":6710:6723   */\n      lt\n        /* \"#utility.yul\":6702:6875   */\n      iszero\n      tag_479\n      jumpi\n        /* \"#utility.yul\":6777:6790   */\n      dup2\n      mload\n        /* \"#utility.yul\":6765:6791   */\n      dup7\n      mstore\n        /* \"#utility.yul\":6820:6824   */\n      0x20\n        /* \"#utility.yul\":6811:6825   */\n      swap6\n      dup7\n      add\n      swap6\n        /* \"#utility.yul\":6848:6865   */\n      swap1\n      swap2\n      add\n      swap1\n        /* \"#utility.yul\":6738:6739   */\n      0x01\n        /* \"#utility.yul\":6731:6740   */\n      add\n        /* \"#utility.yul\":6702:6875   */\n      jump(tag_477)\n    tag_479:\n      pop\n        /* \"#utility.yul\":6891:6894   */\n      swap4\n      swap5\n        /* \"#utility.yul\":6480:6900   */\n      swap4\n      pop\n      pop\n      pop\n      pop\n      jump\t// out\n        /* \"#utility.yul\":6905:7370   */\n    tag_100:\n        /* \"#utility.yul\":7162:7164   */\n      0x40\n        /* \"#utility.yul\":7151:7160   */\n      dup2\n        /* \"#utility.yul\":7144:7165   */\n      mstore\n        /* \"#utility.yul\":7125:7129   */\n      0x00\n        /* \"#utility.yul\":7188:7244   */\n      tag_481\n        /* \"#utility.yul\":7240:7242   */\n      0x40\n        /* \"#utility.yul\":7229:7238   */\n      dup4\n        /* \"#utility.yul\":7225:7243   */\n      add\n        /* \"#utility.yul\":7217:7223   */\n      dup6\n        /* \"#utility.yul\":7188:7244   */\n      tag_413\n      jump\t// in\n    tag_481:\n        /* \"#utility.yul\":7292:7301   */\n      dup3\n        /* \"#utility.yul\":7284:7290   */\n      dup2\n        /* \"#utility.yul\":7280:7302   */\n      sub\n        /* \"#utility.yul\":7275:7277   */\n      0x20\n        /* \"#utility.yul\":7264:7273   */\n      dup5\n        /* \"#utility.yul\":7260:7278   */\n      add\n        /* \"#utility.yul\":7253:7303   */\n      mstore\n        /* \"#utility.yul\":7320:7364   */\n      tag_482\n        /* \"#utility.yul\":7357:7363   */\n      dup2\n        /* \"#utility.yul\":7349:7355   */\n      dup6\n        /* \"#utility.yul\":7320:7364   */\n      tag_413\n      jump\t// in\n    tag_482:\n        /* \"#utility.yul\":7312:7364   */\n      swap6\n        /* \"#utility.yul\":6905:7370   */\n      swap5\n      pop\n      pop\n      pop\n      pop\n      pop\n      jump\t// out\n        /* \"#utility.yul\":7375:7502   */\n    tag_274:\n        /* \"#utility.yul\":7436:7446   */\n      0x4e487b71\n        /* \"#utility.yul\":7431:7434   */\n      0xe0\n        /* \"#utility.yul\":7427:7447   */\n      shl\n        /* \"#utility.yul\":7424:7425   */\n      0x00\n        /* \"#utility.yul\":7417:7448   */\n      mstore\n        /* \"#utility.yul\":7467:7471   */\n      0x21\n        /* \"#utility.yul\":7464:7465   */\n      0x04\n        /* \"#utility.yul\":7457:7472   */\n      mstore\n        /* \"#utility.yul\":7491:7495   */\n      0x24\n        /* \"#utility.yul\":7488:7489   */\n      0x00\n        /* \"#utility.yul\":7481:7496   */\n      revert\n        /* \"#utility.yul\":7507:7753   */\n    tag_414:\n        /* \"#utility.yul\":7597:7598   */\n      0x03\n        /* \"#utility.yul\":7590:7595   */\n      dup2\n        /* \"#utility.yul\":7587:7599   */\n      lt\n        /* \"#utility.yul\":7577:7720   */\n      tag_485\n      jumpi\n        /* \"#utility.yul\":7642:7652   */\n      0x4e487b71\n        /* \"#utility.yul\":7637:7640   */\n      0xe0\n        /* \"#utility.yul\":7633:7653   */\n      shl\n        /* \"#utility.yul\":7630:7631   */\n      0x00\n        /* \"#utility.yul\":7623:7654   */\n      mstore\n        /* \"#utility.yul\":7677:7681   */\n      0x21\n        /* \"#utility.yul\":7674:7675   */\n      0x04\n        /* \"#utility.yul\":7667:7682   */\n      mstore\n        /* \"#utility.yul\":7705:7709   */\n      0x24\n        /* \"#utility.yul\":7702:7703   */\n      0x00\n        /* \"#utility.yul\":7695:7710   */\n      revert\n        /* \"#utility.yul\":7577:7720   */\n    tag_485:\n        /* \"#utility.yul\":7729:7747   */\n      swap1\n      mstore\n        /* \"#utility.yul\":7507:7753   */\n      jump\t// out\n        /* \"#utility.yul\":7758:8437   */\n    tag_105:\n        /* \"#utility.yul\":8049:8074   */\n      dup7\n      dup2\n      mstore\n      sub(shl(0xa0, 0x01), 0x01)\n        /* \"#utility.yul\":8110:8142   */\n      dup7\n      and\n        /* \"#utility.yul\":8105:8107   */\n      0x20\n        /* \"#utility.yul\":8090:8108   */\n      dup3\n      add\n        /* \"#utility.yul\":8083:8143   */\n      mstore\n        /* \"#utility.yul\":8179:8182   */\n      0xc0\n        /* \"#utility.yul\":8174:8176   */\n      0x40\n        /* \"#utility.yul\":8159:8177   */\n      dup3\n      add\n        /* \"#utility.yul\":8152:8183   */\n      dup2\n      swap1\n      mstore\n      0x00\n      swap1\n        /* \"#utility.yul\":8200:8246   */\n      tag_487\n      swap1\n        /* \"#utility.yul\":8226:8245   */\n      dup4\n      add\n        /* \"#utility.yul\":8218:8224   */\n      dup8\n        /* \"#utility.yul\":8200:8246   */\n      tag_411\n      jump\t// in\n    tag_487:\n        /* \"#utility.yul\":8192:8246   */\n      swap1\n      pop\n        /* \"#utility.yul\":8282:8288   */\n      dup5\n        /* \"#utility.yul\":8277:8279   */\n      0x60\n        /* \"#utility.yul\":8266:8275   */\n      dup4\n        /* \"#utility.yul\":8262:8280   */\n      add\n        /* \"#utility.yul\":8255:8289   */\n      mstore\n        /* \"#utility.yul\":8298:8361   */\n      tag_488\n        /* \"#utility.yul\":8356:8359   */\n      0x80\n        /* \"#utility.yul\":8345:8354   */\n      dup4\n        /* \"#utility.yul\":8341:8360   */\n      add\n        /* \"#utility.yul\":8333:8339   */\n      dup6\n        /* \"#utility.yul\":8298:8361   */\n      tag_414\n      jump\t// in\n    tag_488:\n      sub(shl(0xa0, 0x01), 0x01)\n        /* \"#utility.yul\":8398:8430   */\n      swap3\n      swap1\n      swap3\n      and\n        /* \"#utility.yul\":8418:8421   */\n      0xa0\n        /* \"#utility.yul\":8377:8396   */\n      swap2\n      swap1\n      swap2\n      add\n        /* \"#utility.yul\":8370:8431   */\n      mstore\n        /* \"#utility.yul\":7758:8437   */\n      swap6\n      swap5\n      pop\n      pop\n      pop\n      pop\n      pop\n      jump\t// out\n        /* \"#utility.yul\":8650:8807   */\n    tag_415:\n        /* \"#utility.yul\":8711:8716   */\n      0x00\n        /* \"#utility.yul\":8756:8759   */\n      0x0100\n        /* \"#utility.yul\":8747:8753   */\n      dup3\n        /* \"#utility.yul\":8742:8745   */\n      dup5\n        /* \"#utility.yul\":8738:8754   */\n      sub\n        /* \"#utility.yul\":8734:8760   */\n      slt\n        /* \"#utility.yul\":8731:8777   */\n      iszero\n      tag_491\n      jumpi\n        /* \"#utility.yul\":8773:8774   */\n      0x00\n        /* \"#utility.yul\":8770:8771   */\n      0x00\n        /* \"#utility.yul\":8763:8775   */\n      revert\n        /* \"#utility.yul\":8731:8777   */\n    tag_491:\n      pop\n        /* \"#utility.yul\":8795:8801   */\n      swap2\n        /* \"#utility.yul\":8650:8807   */\n      swap1\n      pop\n      jump\t// out\n        /* \"#utility.yul\":8812:9170   */\n    tag_116:\n        /* \"#utility.yul\":8899:8905   */\n      0x00\n        /* \"#utility.yul\":8952:8954   */\n      0x20\n        /* \"#utility.yul\":8940:8949   */\n      dup3\n        /* \"#utility.yul\":8931:8938   */\n      dup5\n        /* \"#utility.yul\":8927:8950   */\n      sub\n        /* \"#utility.yul\":8923:8955   */\n      slt\n        /* \"#utility.yul\":8920:8972   */\n      iszero\n      tag_493\n      jumpi\n        /* \"#utility.yul\":8968:8969   */\n      0x00\n        /* \"#utility.yul\":8965:8966   */\n      0x00\n        /* \"#utility.yul\":8958:8970   */\n      revert\n        /* \"#utility.yul\":8920:8972   */\n    tag_493:\n        /* \"#utility.yul\":9008:9017   */\n      dup2\n        /* \"#utility.yul\":8995:9018   */\n      calldataload\n        /* \"#utility.yul\":9041:9059   */\n      0xffffffffffffffff\n        /* \"#utility.yul\":9033:9039   */\n      dup2\n        /* \"#utility.yul\":9030:9060   */\n      gt\n        /* \"#utility.yul\":9027:9077   */\n      iszero\n      tag_494\n      jumpi\n        /* \"#utility.yul\":9073:9074   */\n      0x00\n        /* \"#utility.yul\":9070:9071   */\n      0x00\n        /* \"#utility.yul\":9063:9075   */\n      revert\n        /* \"#utility.yul\":9027:9077   */\n    tag_494:\n        /* \"#utility.yul\":9096:9164   */\n      tag_495\n        /* \"#utility.yul\":9156:9163   */\n      dup5\n        /* \"#utility.yul\":9147:9153   */\n      dup3\n        /* \"#utility.yul\":9136:9145   */\n      dup6\n        /* \"#utility.yul\":9132:9154   */\n      add\n        /* \"#utility.yul\":9096:9164   */\n      tag_415\n      jump\t// in\n    tag_495:\n        /* \"#utility.yul\":9086:9164   */\n      swap5\n        /* \"#utility.yul\":8812:9170   */\n      swap4\n      pop\n      pop\n      pop\n      pop\n      jump\t// out\n        /* \"#utility.yul\":9175:9754   */\n    tag_416:\n        /* \"#utility.yul\":9227:9230   */\n      0x00\n        /* \"#utility.yul\":9258:9261   */\n      dup3\n        /* \"#utility.yul\":9290:9295   */\n      dup3\n        /* \"#utility.yul\":9284:9296   */\n      mload\n        /* \"#utility.yul\":9317:9323   */\n      dup1\n        /* \"#utility.yul\":9312:9315   */\n      dup6\n        /* \"#utility.yul\":9305:9324   */\n      mstore\n        /* \"#utility.yul\":9349:9353   */\n      0x20\n        /* \"#utility.yul\":9344:9347   */\n      dup6\n        /* \"#utility.yul\":9340:9354   */\n      add\n        /* \"#utility.yul\":9333:9354   */\n      swap5\n      pop\n        /* \"#utility.yul\":9407:9411   */\n      0x20\n        /* \"#utility.yul\":9397:9403   */\n      dup2\n        /* \"#utility.yul\":9394:9395   */\n      0x05\n        /* \"#utility.yul\":9390:9404   */\n      shl\n        /* \"#utility.yul\":9383:9388   */\n      dup4\n        /* \"#utility.yul\":9379:9405   */\n      add\n        /* \"#utility.yul\":9375:9412   */\n      add\n        /* \"#utility.yul\":9446:9450   */\n      0x20\n        /* \"#utility.yul\":9439:9444   */\n      dup6\n        /* \"#utility.yul\":9435:9451   */\n      add\n        /* \"#utility.yul\":9469:9470   */\n      0x00\n        /* \"#utility.yul\":9479:9728   */\n    tag_497:\n        /* \"#utility.yul\":9493:9499   */\n      dup4\n        /* \"#utility.yul\":9490:9491   */\n      dup2\n        /* \"#utility.yul\":9487:9500   */\n      lt\n        /* \"#utility.yul\":9479:9728   */\n      iszero\n      tag_499\n      jumpi\n        /* \"#utility.yul\":9580:9582   */\n      0x1f\n        /* \"#utility.yul\":9576:9583   */\n      not\n        /* \"#utility.yul\":9568:9573   */\n      dup6\n        /* \"#utility.yul\":9562:9566   */\n      dup5\n        /* \"#utility.yul\":9558:9574   */\n      sub\n        /* \"#utility.yul\":9554:9584   */\n      add\n        /* \"#utility.yul\":9549:9552   */\n      dup9\n        /* \"#utility.yul\":9542:9585   */\n      mstore\n        /* \"#utility.yul\":9606:9644   */\n      tag_500\n        /* \"#utility.yul\":9639:9643   */\n      dup4\n        /* \"#utility.yul\":9630:9636   */\n      dup4\n        /* \"#utility.yul\":9624:9637   */\n      mload\n        /* \"#utility.yul\":9606:9644   */\n      tag_411\n      jump\t// in\n    tag_500:\n        /* \"#utility.yul\":9679:9683   */\n      0x20\n        /* \"#utility.yul\":9704:9718   */\n      swap9\n      dup10\n      add\n      swap9\n        /* \"#utility.yul\":9598:9644   */\n      swap1\n      swap4\n      pop\n        /* \"#utility.yul\":9667:9684   */\n      swap2\n      swap1\n      swap2\n      add\n      swap1\n        /* \"#utility.yul\":9515:9516   */\n      0x01\n        /* \"#utility.yul\":9508:9517   */\n      add\n        /* \"#utility.yul\":9479:9728   */\n      jump(tag_497)\n    tag_499:\n      pop\n        /* \"#utility.yul\":9744:9748   */\n      swap1\n      swap7\n        /* \"#utility.yul\":9175:9754   */\n      swap6\n      pop\n      pop\n      pop\n      pop\n      pop\n      pop\n      jump\t// out\n        /* \"#utility.yul\":9759:10800   */\n    tag_417:\n        /* \"#utility.yul\":9824:9827   */\n      0x00\n        /* \"#utility.yul\":9855:9858   */\n      dup3\n        /* \"#utility.yul\":9887:9892   */\n      dup3\n        /* \"#utility.yul\":9881:9893   */\n      mload\n        /* \"#utility.yul\":9914:9920   */\n      dup1\n        /* \"#utility.yul\":9909:9912   */\n      dup6\n        /* \"#utility.yul\":9902:9921   */\n      mstore\n        /* \"#utility.yul\":9946:9950   */\n      0x20\n        /* \"#utility.yul\":9941:9944   */\n      dup6\n        /* \"#utility.yul\":9937:9951   */\n      add\n        /* \"#utility.yul\":9930:9951   */\n      swap5\n      pop\n        /* \"#utility.yul\":10004:10008   */\n      0x20\n        /* \"#utility.yul\":9994:10000   */\n      dup2\n        /* \"#utility.yul\":9991:9992   */\n      0x05\n        /* \"#utility.yul\":9987:10001   */\n      shl\n        /* \"#utility.yul\":9980:9985   */\n      dup4\n        /* \"#utility.yul\":9976:10002   */\n      add\n        /* \"#utility.yul\":9972:10009   */\n      add\n        /* \"#utility.yul\":10043:10047   */\n      0x20\n        /* \"#utility.yul\":10036:10041   */\n      dup6\n        /* \"#utility.yul\":10032:10048   */\n      add\n        /* \"#utility.yul\":10066:10067   */\n      0x00\n        /* \"#utility.yul\":10076:10774   */\n    tag_502:\n        /* \"#utility.yul\":10090:10096   */\n      dup4\n        /* \"#utility.yul\":10087:10088   */\n      dup2\n        /* \"#utility.yul\":10084:10097   */\n      lt\n        /* \"#utility.yul\":10076:10774   */\n      iszero\n      tag_499\n      jumpi\n        /* \"#utility.yul\":10177:10179   */\n      0x1f\n        /* \"#utility.yul\":10173:10180   */\n      not\n        /* \"#utility.yul\":10165:10170   */\n      dup6\n        /* \"#utility.yul\":10159:10163   */\n      dup5\n        /* \"#utility.yul\":10155:10171   */\n      sub\n        /* \"#utility.yul\":10151:10181   */\n      add\n        /* \"#utility.yul\":10146:10149   */\n      dup9\n        /* \"#utility.yul\":10139:10182   */\n      mstore\n        /* \"#utility.yul\":10211:10217   */\n      dup2\n        /* \"#utility.yul\":10205:10218   */\n      mload\n        /* \"#utility.yul\":10276:10277   */\n      0x01\n        /* \"#utility.yul\":10272:10273   */\n      dup1\n        /* \"#utility.yul\":10267:10270   */\n      0xa0\n        /* \"#utility.yul\":10263:10274   */\n      shl\n        /* \"#utility.yul\":10259:10278   */\n      sub\n        /* \"#utility.yul\":10254:10256   */\n      dup2\n        /* \"#utility.yul\":10248:10257   */\n      mload\n        /* \"#utility.yul\":10244:10279   */\n      and\n        /* \"#utility.yul\":10238:10242   */\n      dup5\n        /* \"#utility.yul\":10231:10280   */\n      mstore\n        /* \"#utility.yul\":10331:10335   */\n      0x20\n        /* \"#utility.yul\":10327:10329   */\n      dup2\n        /* \"#utility.yul\":10323:10336   */\n      add\n        /* \"#utility.yul\":10317:10337   */\n      mload\n        /* \"#utility.yul\":10310:10314   */\n      0x20\n        /* \"#utility.yul\":10304:10308   */\n      dup6\n        /* \"#utility.yul\":10300:10315   */\n      add\n        /* \"#utility.yul\":10293:10338   */\n      mstore\n        /* \"#utility.yul\":10385:10389   */\n      0x40\n        /* \"#utility.yul\":10381:10383   */\n      dup2\n        /* \"#utility.yul\":10377:10390   */\n      add\n        /* \"#utility.yul\":10371:10391   */\n      mload\n        /* \"#utility.yul\":10428:10432   */\n      0x80\n        /* \"#utility.yul\":10421:10425   */\n      0x40\n        /* \"#utility.yul\":10415:10419   */\n      dup7\n        /* \"#utility.yul\":10411:10426   */\n      add\n        /* \"#utility.yul\":10404:10433   */\n      mstore\n        /* \"#utility.yul\":10460:10508   */\n      tag_505\n        /* \"#utility.yul\":10502:10506   */\n      0x80\n        /* \"#utility.yul\":10496:10500   */\n      dup7\n        /* \"#utility.yul\":10492:10507   */\n      add\n        /* \"#utility.yul\":10478:10490   */\n      dup3\n        /* \"#utility.yul\":10460:10508   */\n      tag_411\n      jump\t// in\n    tag_505:\n        /* \"#utility.yul\":10446:10508   */\n      swap1\n      pop\n        /* \"#utility.yul\":10557:10561   */\n      0x60\n        /* \"#utility.yul\":10553:10555   */\n      dup3\n        /* \"#utility.yul\":10549:10562   */\n      add\n        /* \"#utility.yul\":10543:10563   */\n      mload\n        /* \"#utility.yul\":10521:10563   */\n      swap2\n      pop\n        /* \"#utility.yul\":10612:10616   */\n      dup5\n        /* \"#utility.yul\":10604:10610   */\n      dup2\n        /* \"#utility.yul\":10600:10617   */\n      sub\n        /* \"#utility.yul\":10593:10597   */\n      0x60\n        /* \"#utility.yul\":10587:10591   */\n      dup7\n        /* \"#utility.yul\":10583:10598   */\n      add\n        /* \"#utility.yul\":10576:10618   */\n      mstore\n        /* \"#utility.yul\":10639:10690   */\n      tag_506\n        /* \"#utility.yul\":10683:10689   */\n      dup2\n        /* \"#utility.yul\":10667:10681   */\n      dup4\n        /* \"#utility.yul\":10639:10690   */\n      tag_416\n      jump\t// in\n    tag_506:\n        /* \"#utility.yul\":10725:10729   */\n      0x20\n        /* \"#utility.yul\":10750:10764   */\n      swap11\n      dup12\n      add\n      swap11\n        /* \"#utility.yul\":10631:10690   */\n      swap1\n      swap6\n      pop\n        /* \"#utility.yul\":10713:10730   */\n      swap4\n      swap1\n      swap4\n      add\n      swap3\n      pop\n      pop\n        /* \"#utility.yul\":10112:10113   */\n      0x01\n        /* \"#utility.yul\":10105:10114   */\n      add\n        /* \"#utility.yul\":10076:10774   */\n      jump(tag_502)\n        /* \"#utility.yul\":10805:12056   */\n    tag_122:\n        /* \"#utility.yul\":10986:10988   */\n      0x20\n        /* \"#utility.yul\":10975:10984   */\n      dup2\n        /* \"#utility.yul\":10968:10989   */\n      mstore\n        /* \"#utility.yul\":11031:11037   */\n      dup2\n        /* \"#utility.yul\":11025:11038   */\n      mload\n        /* \"#utility.yul\":11020:11022   */\n      0x20\n        /* \"#utility.yul\":11009:11018   */\n      dup3\n        /* \"#utility.yul\":11005:11023   */\n      add\n        /* \"#utility.yul\":10998:11039   */\n      mstore\n        /* \"#utility.yul\":10949:10953   */\n      0x00\n        /* \"#utility.yul\":11086:11088   */\n      0x20\n        /* \"#utility.yul\":11078:11084   */\n      dup4\n        /* \"#utility.yul\":11074:11089   */\n      add\n        /* \"#utility.yul\":11068:11090   */\n      mload\n        /* \"#utility.yul\":11099:11151   */\n      tag_508\n        /* \"#utility.yul\":11147:11149   */\n      0x40\n        /* \"#utility.yul\":11136:11145   */\n      dup5\n        /* \"#utility.yul\":11132:11150   */\n      add\n        /* \"#utility.yul\":11118:11130   */\n      dup3\n      sub(shl(0xa0, 0x01), 0x01)\n        /* \"#utility.yul\":468:499   */\n      and\n        /* \"#utility.yul\":456:500   */\n      swap1\n      mstore\n        /* \"#utility.yul\":402:506   */\n      jump\n        /* \"#utility.yul\":11099:11151   */\n    tag_508:\n      pop\n        /* \"#utility.yul\":11200:11202   */\n      0x40\n        /* \"#utility.yul\":11192:11198   */\n      dup4\n        /* \"#utility.yul\":11188:11203   */\n      add\n        /* \"#utility.yul\":11182:11204   */\n      mload\n        /* \"#utility.yul\":11240:11246   */\n      0x0100\n        /* \"#utility.yul\":11235:11237   */\n      0x60\n        /* \"#utility.yul\":11224:11233   */\n      dup5\n        /* \"#utility.yul\":11220:11238   */\n      add\n        /* \"#utility.yul\":11213:11247   */\n      mstore\n        /* \"#utility.yul\":11270:11324   */\n      tag_509\n        /* \"#utility.yul\":11319:11322   */\n      0x0120\n        /* \"#utility.yul\":11308:11317   */\n      dup5\n        /* \"#utility.yul\":11304:11323   */\n      add\n        /* \"#utility.yul\":11288:11302   */\n      dup3\n        /* \"#utility.yul\":11270:11324   */\n      tag_411\n      jump\t// in\n    tag_509:\n        /* \"#utility.yul\":11256:11324   */\n      swap1\n      pop\n        /* \"#utility.yul\":11379:11381   */\n      0x60\n        /* \"#utility.yul\":11371:11377   */\n      dup5\n        /* \"#utility.yul\":11367:11382   */\n      add\n        /* \"#utility.yul\":11361:11383   */\n      mload\n        /* \"#utility.yul\":11355:11358   */\n      0x80\n        /* \"#utility.yul\":11344:11353   */\n      dup5\n        /* \"#utility.yul\":11340:11359   */\n      add\n        /* \"#utility.yul\":11333:11384   */\n      mstore\n        /* \"#utility.yul\":11433:11436   */\n      0x80\n        /* \"#utility.yul\":11425:11431   */\n      dup5\n        /* \"#utility.yul\":11421:11437   */\n      add\n        /* \"#utility.yul\":11415:11438   */\n      mload\n        /* \"#utility.yul\":11447:11518   */\n      tag_510\n        /* \"#utility.yul\":11513:11516   */\n      0xa0\n        /* \"#utility.yul\":11502:11511   */\n      dup6\n        /* \"#utility.yul\":11498:11517   */\n      add\n        /* \"#utility.yul\":11482:11496   */\n      dup3\n        /* \"#utility.yul\":11447:11518   */\n      tag_414\n      jump\t// in\n    tag_510:\n      pop\n        /* \"#utility.yul\":11567:11570   */\n      0xa0\n        /* \"#utility.yul\":11555:11571   */\n      dup5\n      add\n        /* \"#utility.yul\":11549:11572   */\n      mload\n      sub(shl(0xa0, 0x01), 0x01)\n        /* \"#utility.yul\":468:499   */\n      dup2\n      and\n        /* \"#utility.yul\":11631:11634   */\n      0xc0\n        /* \"#utility.yul\":11616:11635   */\n      dup6\n      add\n        /* \"#utility.yul\":456:500   */\n      mstore\n      pop\n        /* \"#utility.yul\":11685:11688   */\n      0xc0\n        /* \"#utility.yul\":11673:11689   */\n      dup5\n      add\n        /* \"#utility.yul\":11667:11690   */\n      mload\n        /* \"#utility.yul\":11731:11753   */\n      dup4\n      dup3\n      sub\n      not(0x1f)\n        /* \"#utility.yul\":11727:11763   */\n      add\n        /* \"#utility.yul\":11721:11724   */\n      0xe0\n        /* \"#utility.yul\":11706:11725   */\n      dup6\n      add\n        /* \"#utility.yul\":11699:11764   */\n      mstore\n        /* \"#utility.yul\":11787:11851   */\n      tag_512\n        /* \"#utility.yul\":11735:11741   */\n      dup3\n        /* \"#utility.yul\":11667:11690   */\n      dup3\n        /* \"#utility.yul\":11787:11851   */\n      tag_417\n      jump\t// in\n    tag_512:\n        /* \"#utility.yul\":11773:11851   */\n      swap2\n      pop\n      pop\n        /* \"#utility.yul\":11900:11903   */\n      0xe0\n        /* \"#utility.yul\":11892:11898   */\n      dup5\n        /* \"#utility.yul\":11888:11904   */\n      add\n        /* \"#utility.yul\":11882:11905   */\n      mload\n        /* \"#utility.yul\":11977:11979   */\n      0x1f\n        /* \"#utility.yul\":11973:11980   */\n      not\n        /* \"#utility.yul\":11961:11970   */\n      dup5\n        /* \"#utility.yul\":11953:11959   */\n      dup4\n        /* \"#utility.yul\":11949:11971   */\n      sub\n        /* \"#utility.yul\":11945:11981   */\n      add\n        /* \"#utility.yul\":11936:11942   */\n      0x0100\n        /* \"#utility.yul\":11925:11934   */\n      dup6\n        /* \"#utility.yul\":11921:11943   */\n      add\n        /* \"#utility.yul\":11914:11982   */\n      mstore\n        /* \"#utility.yul\":11999:12050   */\n      tag_482\n        /* \"#utility.yul\":12043:12049   */\n      dup3\n        /* \"#utility.yul\":12027:12041   */\n      dup3\n        /* \"#utility.yul\":11999:12050   */\n      tag_416\n      jump\t// in\n        /* \"#utility.yul\":12061:12446   */\n    tag_128:\n        /* \"#utility.yul\":12145:12151   */\n      0x00\n        /* \"#utility.yul\":12198:12200   */\n      0x20\n        /* \"#utility.yul\":12186:12195   */\n      dup3\n        /* \"#utility.yul\":12177:12184   */\n      dup5\n        /* \"#utility.yul\":12173:12196   */\n      sub\n        /* \"#utility.yul\":12169:12201   */\n      slt\n        /* \"#utility.yul\":12166:12218   */\n      iszero\n      tag_515\n      jumpi\n        /* \"#utility.yul\":12214:12215   */\n      0x00\n        /* \"#utility.yul\":12211:12212   */\n      0x00\n        /* \"#utility.yul\":12204:12216   */\n      revert\n        /* \"#utility.yul\":12166:12218   */\n    tag_515:\n        /* \"#utility.yul\":12254:12263   */\n      dup2\n        /* \"#utility.yul\":12241:12264   */\n      calldataload\n        /* \"#utility.yul\":12287:12305   */\n      0xffffffffffffffff\n        /* \"#utility.yul\":12279:12285   */\n      dup2\n        /* \"#utility.yul\":12276:12306   */\n      gt\n        /* \"#utility.yul\":12273:12323   */\n      iszero\n      tag_516\n      jumpi\n        /* \"#utility.yul\":12319:12320   */\n      0x00\n        /* \"#utility.yul\":12316:12317   */\n      0x00\n        /* \"#utility.yul\":12309:12321   */\n      revert\n        /* \"#utility.yul\":12273:12323   */\n    tag_516:\n        /* \"#utility.yul\":12342:12364   */\n      dup3\n      add\n        /* \"#utility.yul\":12398:12401   */\n      0xe0\n        /* \"#utility.yul\":12380:12396   */\n      dup2\n      dup6\n      sub\n        /* \"#utility.yul\":12376:12402   */\n      slt\n        /* \"#utility.yul\":12373:12419   */\n      iszero\n      tag_446\n      jumpi\n        /* \"#utility.yul\":12415:12416   */\n      0x00\n        /* \"#utility.yul\":12412:12413   */\n      0x00\n        /* \"#utility.yul\":12405:12417   */\n      revert\n        /* \"#utility.yul\":12451:13345   */\n    tag_141:\n        /* \"#utility.yul\":12622:12624   */\n      0x20\n        /* \"#utility.yul\":12611:12620   */\n      dup2\n        /* \"#utility.yul\":12604:12625   */\n      mstore\n        /* \"#utility.yul\":12667:12673   */\n      dup2\n        /* \"#utility.yul\":12661:12674   */\n      mload\n        /* \"#utility.yul\":12656:12658   */\n      0x20\n        /* \"#utility.yul\":12645:12654   */\n      dup3\n        /* \"#utility.yul\":12641:12659   */\n      add\n        /* \"#utility.yul\":12634:12675   */\n      mstore\n        /* \"#utility.yul\":12756:12757   */\n      0x01\n        /* \"#utility.yul\":12752:12753   */\n      dup1\n        /* \"#utility.yul\":12747:12750   */\n      0xa0\n        /* \"#utility.yul\":12743:12754   */\n      shl\n        /* \"#utility.yul\":12739:12758   */\n      sub\n        /* \"#utility.yul\":12733:12735   */\n      0x20\n        /* \"#utility.yul\":12725:12731   */\n      dup4\n        /* \"#utility.yul\":12721:12736   */\n      add\n        /* \"#utility.yul\":12715:12737   */\n      mload\n        /* \"#utility.yul\":12711:12759   */\n      and\n        /* \"#utility.yul\":12706:12708   */\n      0x40\n        /* \"#utility.yul\":12695:12704   */\n      dup3\n        /* \"#utility.yul\":12691:12709   */\n      add\n        /* \"#utility.yul\":12684:12760   */\n      mstore\n        /* \"#utility.yul\":12841:12842   */\n      0x01\n        /* \"#utility.yul\":12837:12838   */\n      dup1\n        /* \"#utility.yul\":12832:12835   */\n      0xa0\n        /* \"#utility.yul\":12828:12839   */\n      shl\n        /* \"#utility.yul\":12824:12843   */\n      sub\n        /* \"#utility.yul\":12818:12820   */\n      0x40\n        /* \"#utility.yul\":12810:12816   */\n      dup4\n        /* \"#utility.yul\":12806:12821   */\n      add\n        /* \"#utility.yul\":12800:12822   */\n      mload\n        /* \"#utility.yul\":12796:12844   */\n      and\n        /* \"#utility.yul\":12791:12793   */\n      0x60\n        /* \"#utility.yul\":12780:12789   */\n      dup3\n        /* \"#utility.yul\":12776:12794   */\n      add\n        /* \"#utility.yul\":12769:12845   */\n      mstore\n        /* \"#utility.yul\":12585:12589   */\n      0x00\n        /* \"#utility.yul\":12892:12894   */\n      0x60\n        /* \"#utility.yul\":12884:12890   */\n      dup4\n        /* \"#utility.yul\":12880:12895   */\n      add\n        /* \"#utility.yul\":12874:12896   */\n      mload\n        /* \"#utility.yul\":12933:12939   */\n      0x0100\n        /* \"#utility.yul\":12927:12930   */\n      0x80\n        /* \"#utility.yul\":12916:12925   */\n      dup5\n        /* \"#utility.yul\":12912:12931   */\n      add\n        /* \"#utility.yul\":12905:12940   */\n      mstore\n        /* \"#utility.yul\":12963:13015   */\n      tag_519\n        /* \"#utility.yul\":13010:13013   */\n      0x0120\n        /* \"#utility.yul\":12999:13008   */\n      dup5\n        /* \"#utility.yul\":12995:13014   */\n      add\n        /* \"#utility.yul\":12981:12993   */\n      dup3\n        /* \"#utility.yul\":12963:13015   */\n      tag_411\n      jump\t// in\n    tag_519:\n        /* \"#utility.yul\":12949:13015   */\n      swap1\n      pop\n        /* \"#utility.yul\":13070:13073   */\n      0x80\n        /* \"#utility.yul\":13062:13068   */\n      dup5\n        /* \"#utility.yul\":13058:13074   */\n      add\n        /* \"#utility.yul\":13052:13075   */\n      mload\n        /* \"#utility.yul\":13046:13049   */\n      0xa0\n        /* \"#utility.yul\":13035:13044   */\n      dup5\n        /* \"#utility.yul\":13031:13050   */\n      add\n        /* \"#utility.yul\":13024:13076   */\n      mstore\n        /* \"#utility.yul\":13131:13134   */\n      0xa0\n        /* \"#utility.yul\":13123:13129   */\n      dup5\n        /* \"#utility.yul\":13119:13135   */\n      add\n        /* \"#utility.yul\":13113:13136   */\n      mload\n        /* \"#utility.yul\":13107:13110   */\n      0xc0\n        /* \"#utility.yul\":13096:13105   */\n      dup5\n        /* \"#utility.yul\":13092:13111   */\n      add\n        /* \"#utility.yul\":13085:13137   */\n      mstore\n        /* \"#utility.yul\":13186:13189   */\n      0xc0\n        /* \"#utility.yul\":13178:13184   */\n      dup5\n        /* \"#utility.yul\":13174:13190   */\n      add\n        /* \"#utility.yul\":13168:13191   */\n      mload\n        /* \"#utility.yul\":13200:13252   */\n      tag_520\n        /* \"#utility.yul\":13247:13250   */\n      0xe0\n        /* \"#utility.yul\":13236:13245   */\n      dup6\n        /* \"#utility.yul\":13232:13251   */\n      add\n        /* \"#utility.yul\":13216:13230   */\n      dup3\n        /* \"#utility.yul\":875:888   */\n      iszero\n        /* \"#utility.yul\":868:889   */\n      iszero\n        /* \"#utility.yul\":856:890   */\n      swap1\n      mstore\n        /* \"#utility.yul\":805:896   */\n      jump\n        /* \"#utility.yul\":13200:13252   */\n    tag_520:\n      pop\n        /* \"#utility.yul\":13310:13313   */\n      0xe0\n        /* \"#utility.yul\":13302:13308   */\n      dup5\n        /* \"#utility.yul\":13298:13314   */\n      add\n        /* \"#utility.yul\":13292:13315   */\n      mload\n        /* \"#utility.yul\":13283:13289   */\n      0x0100\n        /* \"#utility.yul\":13272:13281   */\n      dup5\n        /* \"#utility.yul\":13268:13290   */\n      add\n        /* \"#utility.yul\":13261:13316   */\n      mstore\n        /* \"#utility.yul\":13333:13339   */\n      dup1\n        /* \"#utility.yul\":13325:13339   */\n      swap2\n      pop\n      pop\n        /* \"#utility.yul\":12451:13345   */\n      swap3\n      swap2\n      pop\n      pop\n      jump\t// out\n        /* \"#utility.yul\":13708:14088   */\n    tag_157:\n        /* \"#utility.yul\":13787:13788   */\n      0x01\n        /* \"#utility.yul\":13783:13795   */\n      dup2\n      dup2\n      shr\n      swap1\n        /* \"#utility.yul\":13830:13842   */\n      dup3\n      and\n      dup1\n        /* \"#utility.yul\":13851:13912   */\n      tag_526\n      jumpi\n        /* \"#utility.yul\":13905:13909   */\n      0x7f\n        /* \"#utility.yul\":13897:13903   */\n      dup3\n        /* \"#utility.yul\":13893:13910   */\n      and\n        /* \"#utility.yul\":13883:13910   */\n      swap2\n      pop\n        /* \"#utility.yul\":13851:13912   */\n    tag_526:\n        /* \"#utility.yul\":13958:13960   */\n      0x20\n        /* \"#utility.yul\":13950:13956   */\n      dup3\n        /* \"#utility.yul\":13947:13961   */\n      lt\n        /* \"#utility.yul\":13927:13945   */\n      dup2\n        /* \"#utility.yul\":13924:13962   */\n      sub\n        /* \"#utility.yul\":13921:14082   */\n      tag_491\n      jumpi\n        /* \"#utility.yul\":14004:14014   */\n      0x4e487b71\n        /* \"#utility.yul\":13999:14002   */\n      0xe0\n        /* \"#utility.yul\":13995:14015   */\n      shl\n        /* \"#utility.yul\":13992:13993   */\n      0x00\n        /* \"#utility.yul\":13985:14016   */\n      mstore\n        /* \"#utility.yul\":14039:14043   */\n      0x22\n        /* \"#utility.yul\":14036:14037   */\n      0x04\n        /* \"#utility.yul\":14029:14044   */\n      mstore\n        /* \"#utility.yul\":14067:14071   */\n      0x24\n        /* \"#utility.yul\":14064:14065   */\n      0x00\n        /* \"#utility.yul\":14057:14072   */\n      revert\n        /* \"#utility.yul\":14093:14436   */\n    tag_165:\n        /* \"#utility.yul\":14295:14297   */\n      0x20\n        /* \"#utility.yul\":14277:14298   */\n      dup1\n      dup3\n      mstore\n        /* \"#utility.yul\":14334:14336   */\n      0x13\n        /* \"#utility.yul\":14314:14332   */\n      swap1\n      dup3\n      add\n        /* \"#utility.yul\":14307:14337   */\n      mstore\n      shl(0x68, 0x556e617574686f72697a656420616363657373)\n        /* \"#utility.yul\":14368:14370   */\n      0x40\n        /* \"#utility.yul\":14353:14371   */\n      dup3\n      add\n        /* \"#utility.yul\":14346:14395   */\n      mstore\n        /* \"#utility.yul\":14427:14429   */\n      0x60\n        /* \"#utility.yul\":14412:14430   */\n      add\n      swap1\n        /* \"#utility.yul\":14093:14436   */\n      jump\t// out\n        /* \"#utility.yul\":14441:14568   */\n    tag_418:\n        /* \"#utility.yul\":14502:14512   */\n      0x4e487b71\n        /* \"#utility.yul\":14497:14500   */\n      0xe0\n        /* \"#utility.yul\":14493:14513   */\n      shl\n        /* \"#utility.yul\":14490:14491   */\n      0x00\n        /* \"#utility.yul\":14483:14514   */\n      mstore\n        /* \"#utility.yul\":14533:14537   */\n      0x11\n        /* \"#utility.yul\":14530:14531   */\n      0x04\n        /* \"#utility.yul\":14523:14538   */\n      mstore\n        /* \"#utility.yul\":14557:14561   */\n      0x24\n        /* \"#utility.yul\":14554:14555   */\n      0x00\n        /* \"#utility.yul\":14547:14562   */\n      revert\n        /* \"#utility.yul\":14573:14708   */\n    tag_168:\n        /* \"#utility.yul\":14612:14615   */\n      0x00\n        /* \"#utility.yul\":14633:14650   */\n      0x01\n      dup3\n      add\n        /* \"#utility.yul\":14630:14673   */\n      tag_532\n      jumpi\n        /* \"#utility.yul\":14653:14671   */\n      tag_532\n      tag_418\n      jump\t// in\n    tag_532:\n      pop\n        /* \"#utility.yul\":14700:14701   */\n      0x01\n        /* \"#utility.yul\":14689:14702   */\n      add\n      swap1\n        /* \"#utility.yul\":14573:14708   */\n      jump\t// out\n        /* \"#utility.yul\":15065:15241   */\n    tag_419:\n        /* \"#utility.yul\":15110:15121   */\n      0x00\n        /* \"#utility.yul\":15162:15165   */\n      dup2\n        /* \"#utility.yul\":15149:15166   */\n      calldataload\n        /* \"#utility.yul\":15175:15206   */\n      tag_399\n        /* \"#utility.yul\":15200:15205   */\n      dup2\n        /* \"#utility.yul\":15175:15206   */\n      tag_409\n      jump\t// in\n        /* \"#utility.yul\":15246:15444   */\n    tag_420:\n        /* \"#utility.yul\":15353:15364   */\n      dup1\n      sload\n      not(sub(shl(0xa0, 0x01), 0x01))\n        /* \"#utility.yul\":15349:15403   */\n      and\n      sub(shl(0xa0, 0x01), 0x01)\n        /* \"#utility.yul\":15405:15436   */\n      swap3\n      swap1\n      swap3\n      and\n        /* \"#utility.yul\":15346:15437   */\n      swap2\n      swap1\n      swap2\n      or\n        /* \"#utility.yul\":15333:15438   */\n      swap1\n      sstore\n        /* \"#utility.yul\":15246:15444   */\n      jump\t// out\n        /* \"#utility.yul\":15449:15965   */\n    tag_421:\n        /* \"#utility.yul\":15521:15525   */\n      0x00\n        /* \"#utility.yul\":15527:15533   */\n      0x00\n        /* \"#utility.yul\":15587:15598   */\n      dup4\n        /* \"#utility.yul\":15574:15599   */\n      calldataload\n        /* \"#utility.yul\":15681:15683   */\n      0x1e\n        /* \"#utility.yul\":15677:15684   */\n      not\n        /* \"#utility.yul\":15666:15674   */\n      dup5\n        /* \"#utility.yul\":15650:15664   */\n      calldatasize\n        /* \"#utility.yul\":15646:15675   */\n      sub\n        /* \"#utility.yul\":15642:15685   */\n      add\n        /* \"#utility.yul\":15622:15640   */\n      dup2\n        /* \"#utility.yul\":15618:15686   */\n      slt\n        /* \"#utility.yul\":15608:15704   */\n      tag_538\n      jumpi\n        /* \"#utility.yul\":15700:15701   */\n      0x00\n        /* \"#utility.yul\":15697:15698   */\n      0x00\n        /* \"#utility.yul\":15690:15702   */\n      revert\n        /* \"#utility.yul\":15608:15704   */\n    tag_538:\n        /* \"#utility.yul\":15727:15760   */\n      dup4\n      add\n        /* \"#utility.yul\":15779:15799   */\n      dup1\n      calldataload\n      swap2\n      pop\n        /* \"#utility.yul\":15822:15840   */\n      0xffffffffffffffff\n        /* \"#utility.yul\":15811:15841   */\n      dup3\n      gt\n        /* \"#utility.yul\":15808:15858   */\n      iszero\n      tag_539\n      jumpi\n        /* \"#utility.yul\":15854:15855   */\n      0x00\n        /* \"#utility.yul\":15851:15852   */\n      0x00\n        /* \"#utility.yul\":15844:15856   */\n      revert\n        /* \"#utility.yul\":15808:15858   */\n    tag_539:\n        /* \"#utility.yul\":15887:15891   */\n      0x20\n        /* \"#utility.yul\":15875:15892   */\n      add\n      swap2\n      pop\n        /* \"#utility.yul\":15918:15932   */\n      calldatasize\n        /* \"#utility.yul\":15914:15941   */\n      dup2\n      swap1\n      sub\n        /* \"#utility.yul\":15904:15942   */\n      dup3\n      sgt\n        /* \"#utility.yul\":15901:15959   */\n      iszero\n      tag_540\n      jumpi\n        /* \"#utility.yul\":15955:15956   */\n      0x00\n        /* \"#utility.yul\":15952:15953   */\n      0x00\n        /* \"#utility.yul\":15945:15957   */\n      revert\n        /* \"#utility.yul\":15901:15959   */\n    tag_540:\n        /* \"#utility.yul\":15449:15965   */\n      swap3\n      pop\n      swap3\n      swap1\n      pop\n      jump\t// out\n        /* \"#utility.yul\":15970:16097   */\n    tag_422:\n        /* \"#utility.yul\":16031:16041   */\n      0x4e487b71\n        /* \"#utility.yul\":16026:16029   */\n      0xe0\n        /* \"#utility.yul\":16022:16042   */\n      shl\n        /* \"#utility.yul\":16019:16020   */\n      0x00\n        /* \"#utility.yul\":16012:16043   */\n      mstore\n        /* \"#utility.yul\":16062:16066   */\n      0x41\n        /* \"#utility.yul\":16059:16060   */\n      0x04\n        /* \"#utility.yul\":16052:16067   */\n      mstore\n        /* \"#utility.yul\":16086:16090   */\n      0x24\n        /* \"#utility.yul\":16083:16084   */\n      0x00\n        /* \"#utility.yul\":16076:16091   */\n      revert\n        /* \"#utility.yul\":16228:16374   */\n    tag_424:\n        /* \"#utility.yul\":16290:16368   */\n    tag_544:\n        /* \"#utility.yul\":16308:16311   */\n      dup2\n        /* \"#utility.yul\":16301:16306   */\n      dup2\n        /* \"#utility.yul\":16298:16312   */\n      lt\n        /* \"#utility.yul\":16290:16368   */\n      iszero\n      tag_396\n      jumpi\n        /* \"#utility.yul\":16364:16365   */\n      0x00\n        /* \"#utility.yul\":16350:16366   */\n      dup2\n      sstore\n        /* \"#utility.yul\":16335:16336   */\n      0x01\n        /* \"#utility.yul\":16324:16337   */\n      add\n        /* \"#utility.yul\":16290:16368   */\n      jump(tag_544)\n        /* \"#utility.yul\":16379:16797   */\n    tag_425:\n        /* \"#utility.yul\":16481:16483   */\n      0x1f\n        /* \"#utility.yul\":16476:16479   */\n      dup3\n        /* \"#utility.yul\":16473:16484   */\n      gt\n        /* \"#utility.yul\":16470:16791   */\n      iszero\n      tag_548\n      jumpi\n        /* \"#utility.yul\":16517:16522   */\n      dup1\n        /* \"#utility.yul\":16514:16515   */\n      0x00\n        /* \"#utility.yul\":16507:16523   */\n      mstore\n        /* \"#utility.yul\":16561:16565   */\n      0x20\n        /* \"#utility.yul\":16558:16559   */\n      0x00\n        /* \"#utility.yul\":16548:16566   */\n      keccak256\n        /* \"#utility.yul\":16631:16633   */\n      0x1f\n        /* \"#utility.yul\":16619:16629   */\n      dup5\n        /* \"#utility.yul\":16615:16634   */\n      add\n        /* \"#utility.yul\":16612:16613   */\n      0x05\n        /* \"#utility.yul\":16608:16635   */\n      shr\n        /* \"#utility.yul\":16602:16606   */\n      dup2\n        /* \"#utility.yul\":16598:16636   */\n      add\n        /* \"#utility.yul\":16667:16671   */\n      0x20\n        /* \"#utility.yul\":16655:16665   */\n      dup6\n        /* \"#utility.yul\":16652:16672   */\n      lt\n        /* \"#utility.yul\":16649:16696   */\n      iszero\n      tag_549\n      jumpi\n      pop\n        /* \"#utility.yul\":16690:16694   */\n      dup1\n        /* \"#utility.yul\":16649:16696   */\n    tag_549:\n        /* \"#utility.yul\":16709:16781   */\n      tag_550\n        /* \"#utility.yul\":16775:16777   */\n      0x1f\n        /* \"#utility.yul\":16770:16773   */\n      dup6\n        /* \"#utility.yul\":16766:16778   */\n      add\n        /* \"#utility.yul\":16763:16764   */\n      0x05\n        /* \"#utility.yul\":16759:16779   */\n      shr\n        /* \"#utility.yul\":16753:16757   */\n      dup4\n        /* \"#utility.yul\":16749:16780   */\n      add\n        /* \"#utility.yul\":16736:16747   */\n      dup3\n        /* \"#utility.yul\":16709:16781   */\n      tag_424\n      jump\t// in\n    tag_550:\n      pop\n      pop\n        /* \"#utility.yul\":16470:16791   */\n    tag_548:\n        /* \"#utility.yul\":16379:16797   */\n      pop\n      pop\n      pop\n      jump\t// out\n        /* \"#utility.yul\":16802:16968   */\n    tag_426:\n      not(0x00)\n        /* \"#utility.yul\":16930:16931   */\n      0x03\n        /* \"#utility.yul\":16926:16937   */\n      dup4\n      swap1\n      shl\n        /* \"#utility.yul\":16922:16946   */\n      shr\n        /* \"#utility.yul\":16918:16947   */\n      not\n        /* \"#utility.yul\":16908:16948   */\n      and\n        /* \"#utility.yul\":16954:16955   */\n      0x01\n        /* \"#utility.yul\":16950:16961   */\n      swap2\n      swap1\n      swap2\n      shl\n        /* \"#utility.yul\":16905:16962   */\n      or\n      swap1\n        /* \"#utility.yul\":16802:16968   */\n      jump\t// out\n        /* \"#utility.yul\":16973:18155   */\n    tag_427:\n        /* \"#utility.yul\":17081:17099   */\n      0xffffffffffffffff\n        /* \"#utility.yul\":17076:17079   */\n      dup4\n        /* \"#utility.yul\":17073:17100   */\n      gt\n        /* \"#utility.yul\":17070:17123   */\n      iszero\n      tag_554\n      jumpi\n        /* \"#utility.yul\":17103:17121   */\n      tag_554\n      tag_422\n      jump\t// in\n    tag_554:\n        /* \"#utility.yul\":17132:17226   */\n      tag_555\n        /* \"#utility.yul\":17222:17225   */\n      dup4\n        /* \"#utility.yul\":17182:17220   */\n      tag_556\n        /* \"#utility.yul\":17214:17218   */\n      dup4\n        /* \"#utility.yul\":17208:17219   */\n      sload\n        /* \"#utility.yul\":17182:17220   */\n      tag_157\n      jump\t// in\n    tag_556:\n        /* \"#utility.yul\":17176:17180   */\n      dup4\n        /* \"#utility.yul\":17132:17226   */\n      tag_425\n      jump\t// in\n    tag_555:\n        /* \"#utility.yul\":17252:17253   */\n      0x00\n        /* \"#utility.yul\":17277:17279   */\n      0x1f\n        /* \"#utility.yul\":17272:17275   */\n      dup5\n        /* \"#utility.yul\":17269:17280   */\n      gt\n        /* \"#utility.yul\":17294:17295   */\n      0x01\n        /* \"#utility.yul\":17289:17897   */\n      dup2\n      eq\n      tag_558\n      jumpi\n        /* \"#utility.yul\":17941:17942   */\n      0x00\n        /* \"#utility.yul\":17958:17961   */\n      dup6\n        /* \"#utility.yul\":17955:18048   */\n      iszero\n      tag_559\n      jumpi\n      pop\n        /* \"#utility.yul\":18014:18033   */\n      dup4\n      dup3\n      add\n        /* \"#utility.yul\":18001:18034   */\n      calldataload\n        /* \"#utility.yul\":17955:18048   */\n    tag_559:\n        /* \"#utility.yul\":18074:18138   */\n      tag_560\n        /* \"#utility.yul\":18134:18137   */\n      dup7\n        /* \"#utility.yul\":18127:18132   */\n      dup3\n        /* \"#utility.yul\":18074:18138   */\n      tag_426\n      jump\t// in\n    tag_560:\n        /* \"#utility.yul\":18068:18072   */\n      dup5\n        /* \"#utility.yul\":18061:18139   */\n      sstore\n      pop\n        /* \"#utility.yul\":17262:18149   */\n      jump(tag_550)\n        /* \"#utility.yul\":17289:17897   */\n    tag_558:\n        /* \"#utility.yul\":16175:16176   */\n      0x00\n        /* \"#utility.yul\":16168:16182   */\n      dup4\n      dup2\n      mstore\n        /* \"#utility.yul\":16212:16216   */\n      0x20\n        /* \"#utility.yul\":16199:16217   */\n      dup2\n      keccak256\n      not(0x1f)\n        /* \"#utility.yul\":17325:17342   */\n      dup8\n      and\n      swap2\n        /* \"#utility.yul\":17440:17669   */\n    tag_562:\n        /* \"#utility.yul\":17454:17461   */\n      dup3\n        /* \"#utility.yul\":17451:17452   */\n      dup2\n        /* \"#utility.yul\":17448:17462   */\n      lt\n        /* \"#utility.yul\":17440:17669   */\n      iszero\n      tag_564\n      jumpi\n        /* \"#utility.yul\":17543:17562   */\n      dup7\n      dup6\n      add\n        /* \"#utility.yul\":17530:17563   */\n      calldataload\n        /* \"#utility.yul\":17515:17564   */\n      dup3\n      sstore\n        /* \"#utility.yul\":17650:17654   */\n      0x20\n        /* \"#utility.yul\":17635:17655   */\n      swap5\n      dup6\n      add\n      swap5\n        /* \"#utility.yul\":17603:17604   */\n      0x01\n        /* \"#utility.yul\":17591:17605   */\n      swap1\n      swap3\n      add\n      swap2\n        /* \"#utility.yul\":17470:17482   */\n      add\n        /* \"#utility.yul\":17440:17669   */\n      jump(tag_562)\n    tag_564:\n        /* \"#utility.yul\":17444:17447   */\n      pop\n        /* \"#utility.yul\":17697:17700   */\n      dup7\n        /* \"#utility.yul\":17688:17695   */\n      dup3\n        /* \"#utility.yul\":17685:17701   */\n      lt\n        /* \"#utility.yul\":17682:17841   */\n      iszero\n      tag_565\n      jumpi\n        /* \"#utility.yul\":17821:17822   */\n      0x00\n        /* \"#utility.yul\":17817:17823   */\n      not\n        /* \"#utility.yul\":17811:17814   */\n      0xf8\n        /* \"#utility.yul\":17805:17808   */\n      dup9\n        /* \"#utility.yul\":17802:17803   */\n      0x03\n        /* \"#utility.yul\":17798:17809   */\n      shl\n        /* \"#utility.yul\":17794:17815   */\n      and\n        /* \"#utility.yul\":17790:17824   */\n      shr\n        /* \"#utility.yul\":17786:17825   */\n      not\n        /* \"#utility.yul\":17773:17782   */\n      dup5\n        /* \"#utility.yul\":17768:17771   */\n      dup8\n        /* \"#utility.yul\":17764:17783   */\n      add\n        /* \"#utility.yul\":17751:17784   */\n      calldataload\n        /* \"#utility.yul\":17747:17826   */\n      and\n        /* \"#utility.yul\":17739:17745   */\n      dup2\n        /* \"#utility.yul\":17732:17827   */\n      sstore\n        /* \"#utility.yul\":17682:17841   */\n    tag_565:\n      pop\n      pop\n        /* \"#utility.yul\":17884:17885   */\n      0x01\n        /* \"#utility.yul\":17878:17881   */\n      dup6\n        /* \"#utility.yul\":17875:17876   */\n      0x01\n        /* \"#utility.yul\":17871:17882   */\n      shl\n        /* \"#utility.yul\":17867:17886   */\n      add\n        /* \"#utility.yul\":17861:17865   */\n      dup4\n        /* \"#utility.yul\":17854:17887   */\n      sstore\n        /* \"#utility.yul\":17262:18149   */\n      pop\n      pop\n        /* \"#utility.yul\":16973:18155   */\n      pop\n      pop\n      pop\n      jump\t// out\n        /* \"#utility.yul\":18160:18703   */\n    tag_428:\n        /* \"#utility.yul\":18251:18255   */\n      0x00\n        /* \"#utility.yul\":18257:18263   */\n      0x00\n        /* \"#utility.yul\":18317:18328   */\n      dup4\n        /* \"#utility.yul\":18304:18329   */\n      calldataload\n        /* \"#utility.yul\":18411:18413   */\n      0x1e\n        /* \"#utility.yul\":18407:18414   */\n      not\n        /* \"#utility.yul\":18396:18404   */\n      dup5\n        /* \"#utility.yul\":18380:18394   */\n      calldatasize\n        /* \"#utility.yul\":18376:18405   */\n      sub\n        /* \"#utility.yul\":18372:18415   */\n      add\n        /* \"#utility.yul\":18352:18370   */\n      dup2\n        /* \"#utility.yul\":18348:18416   */\n      slt\n        /* \"#utility.yul\":18338:18434   */\n      tag_567\n      jumpi\n        /* \"#utility.yul\":18430:18431   */\n      0x00\n        /* \"#utility.yul\":18427:18428   */\n      0x00\n        /* \"#utility.yul\":18420:18432   */\n      revert\n        /* \"#utility.yul\":18338:18434   */\n    tag_567:\n        /* \"#utility.yul\":18457:18490   */\n      dup4\n      add\n        /* \"#utility.yul\":18509:18529   */\n      dup1\n      calldataload\n      swap2\n      pop\n        /* \"#utility.yul\":18552:18570   */\n      0xffffffffffffffff\n        /* \"#utility.yul\":18541:18571   */\n      dup3\n      gt\n        /* \"#utility.yul\":18538:18588   */\n      iszero\n      tag_568\n      jumpi\n        /* \"#utility.yul\":18584:18585   */\n      0x00\n        /* \"#utility.yul\":18581:18582   */\n      0x00\n        /* \"#utility.yul\":18574:18586   */\n      revert\n        /* \"#utility.yul\":18538:18588   */\n    tag_568:\n        /* \"#utility.yul\":18617:18621   */\n      0x20\n        /* \"#utility.yul\":18605:18622   */\n      add\n      swap2\n      pop\n        /* \"#utility.yul\":18668:18669   */\n      0x05\n        /* \"#utility.yul\":18664:18678   */\n      dup2\n      swap1\n      shl\n        /* \"#utility.yul\":18648:18662   */\n      calldatasize\n        /* \"#utility.yul\":18644:18679   */\n      sub\n        /* \"#utility.yul\":18634:18680   */\n      dup3\n      sgt\n        /* \"#utility.yul\":18631:18697   */\n      iszero\n      tag_540\n      jumpi\n        /* \"#utility.yul\":18693:18694   */\n      0x00\n        /* \"#utility.yul\":18690:18691   */\n      0x00\n        /* \"#utility.yul\":18683:18695   */\n      revert\n        /* \"#utility.yul\":18708:19611   */\n    tag_429:\n        /* \"#utility.yul\":18848:18859   */\n      dup1\n      sload\n        /* \"#utility.yul\":18822:18860   */\n      tag_571\n      swap1\n      tag_157\n      jump\t// in\n    tag_571:\n        /* \"#utility.yul\":18886:18892   */\n      dup1\n        /* \"#utility.yul\":18879:18893   */\n      iszero\n        /* \"#utility.yul\":18869:19605   */\n      tag_396\n      jumpi\n        /* \"#utility.yul\":18935:18937   */\n      0x1f\n        /* \"#utility.yul\":18927:18933   */\n      dup2\n        /* \"#utility.yul\":18924:18938   */\n      gt\n        /* \"#utility.yul\":18956:18957   */\n      0x01\n        /* \"#utility.yul\":18951:19467   */\n      dup2\n      eq\n      tag_574\n      jumpi\n      pop\n      pop\n        /* \"#utility.yul\":19520:19521   */\n      0x00\n        /* \"#utility.yul\":19566:19581   */\n      swap1\n      sstore\n        /* \"#utility.yul\":16379:16797   */\n      jump\t// out\n        /* \"#utility.yul\":18951:19467   */\n    tag_574:\n        /* \"#utility.yul\":18988:18989   */\n      0x00\n        /* \"#utility.yul\":19006:19021   */\n      dup4\n      dup2\n      mstore\n        /* \"#utility.yul\":19059:19063   */\n      0x20\n        /* \"#utility.yul\":19046:19064   */\n      swap1\n      keccak256\n        /* \"#utility.yul\":19081:19157   */\n      tag_575\n        /* \"#utility.yul\":19151:19153   */\n      0x1f\n        /* \"#utility.yul\":19139:19154   */\n      dup5\n      add\n        /* \"#utility.yul\":19136:19137   */\n      0x05\n        /* \"#utility.yul\":19132:19155   */\n      shr\n        /* \"#utility.yul\":19122:19156   */\n      dup3\n      add\n        /* \"#utility.yul\":19118:19119   */\n      0x01\n        /* \"#utility.yul\":19108:19120   */\n      dup4\n      add\n        /* \"#utility.yul\":19081:19157   */\n      tag_424\n      jump\t// in\n    tag_575:\n      pop\n        /* \"#utility.yul\":19181:19182   */\n      0x00\n        /* \"#utility.yul\":19174:19189   */\n      dup4\n      dup2\n      mstore\n        /* \"#utility.yul\":19233:19237   */\n      0x20\n        /* \"#utility.yul\":19220:19238   */\n      dup2\n      keccak256\n        /* \"#utility.yul\":19401:19419   */\n      dup2\n      dup6\n      sstore\n        /* \"#utility.yul\":19436:19453   */\n      sstore\n        /* \"#utility.yul\":18917:19595   */\n      pop\n        /* \"#utility.yul\":18869:19605   */\n      pop\n        /* \"#utility.yul\":18708:19611   */\n      pop\n      jump\t// out\n        /* \"#utility.yul\":19616:20121   */\n    tag_430:\n        /* \"#utility.yul\":19743:19755   */\n      dup1\n      sload\n        /* \"#utility.yul\":19699:19700   */\n      0x00\n        /* \"#utility.yul\":19764:19780   */\n      dup3\n      sstore\n        /* \"#utility.yul\":19799:19813   */\n      dup1\n      iszero\n        /* \"#utility.yul\":19789:20115   */\n      tag_396\n      jumpi\n        /* \"#utility.yul\":19847:19852   */\n      dup2\n        /* \"#utility.yul\":19844:19845   */\n      0x00\n        /* \"#utility.yul\":19837:19853   */\n      mstore\n        /* \"#utility.yul\":19891:19895   */\n      0x20\n        /* \"#utility.yul\":19888:19889   */\n      0x00\n        /* \"#utility.yul\":19878:19896   */\n      keccak256\n        /* \"#utility.yul\":19929:19935   */\n      dup2\n        /* \"#utility.yul\":19923:19927   */\n      dup2\n        /* \"#utility.yul\":19919:19936   */\n      add\n        /* \"#utility.yul\":19979:20105   */\n    tag_578:\n        /* \"#utility.yul\":19997:19999   */\n      dup1\n        /* \"#utility.yul\":19990:19995   */\n      dup3\n        /* \"#utility.yul\":19987:20000   */\n      lt\n        /* \"#utility.yul\":19979:20105   */\n      iszero\n      tag_580\n      jumpi\n        /* \"#utility.yul\":20058:20091   */\n      tag_581\n        /* \"#utility.yul\":20085:20090   */\n      dup3\n        /* \"#utility.yul\":20058:20091   */\n      tag_429\n      jump\t// in\n    tag_581:\n        /* \"#utility.yul\":20023:20024   */\n      0x01\n        /* \"#utility.yul\":20016:20021   */\n      dup3\n        /* \"#utility.yul\":20012:20025   */\n      add\n        /* \"#utility.yul\":20003:20025   */\n      swap2\n      pop\n        /* \"#utility.yul\":19979:20105   */\n      jump(tag_578)\n    tag_580:\n        /* \"#utility.yul\":19983:19986   */\n      pop\n      pop\n        /* \"#utility.yul\":19789:20115   */\n      pop\n        /* \"#utility.yul\":19616:20121   */\n      pop\n      jump\t// out\n        /* \"#utility.yul\":20126:20675   */\n    tag_431:\n      shl(0x40, 0x01)\n        /* \"#utility.yul\":20208:20214   */\n      dup3\n        /* \"#utility.yul\":20205:20237   */\n      gt\n        /* \"#utility.yul\":20202:20260   */\n      iszero\n      tag_584\n      jumpi\n        /* \"#utility.yul\":20240:20258   */\n      tag_584\n      tag_422\n      jump\t// in\n    tag_584:\n        /* \"#utility.yul\":20289:20294   */\n      dup1\n        /* \"#utility.yul\":20283:20295   */\n      sload\n        /* \"#utility.yul\":20318:20324   */\n      dup3\n        /* \"#utility.yul\":20311:20316   */\n      dup3\n        /* \"#utility.yul\":20304:20325   */\n      sstore\n        /* \"#utility.yul\":20348:20354   */\n      dup1\n        /* \"#utility.yul\":20340:20346   */\n      dup4\n        /* \"#utility.yul\":20337:20355   */\n      lt\n        /* \"#utility.yul\":20334:20669   */\n      iszero\n      tag_548\n      jumpi\n        /* \"#utility.yul\":20385:20386   */\n      0x00\n        /* \"#utility.yul\":20378:20394   */\n      dup3\n      dup2\n      mstore\n        /* \"#utility.yul\":20432:20436   */\n      0x20\n        /* \"#utility.yul\":20419:20437   */\n      swap1\n      keccak256\n        /* \"#utility.yul\":20503:20520   */\n      dup4\n      dup2\n      add\n      swap1\n        /* \"#utility.yul\":20460:20477   */\n      dup3\n      add\n        /* \"#utility.yul\":20533:20659   */\n    tag_586:\n        /* \"#utility.yul\":20551:20553   */\n      dup1\n        /* \"#utility.yul\":20544:20549   */\n      dup3\n        /* \"#utility.yul\":20541:20554   */\n      lt\n        /* \"#utility.yul\":20533:20659   */\n      iszero\n      tag_550\n      jumpi\n        /* \"#utility.yul\":20612:20645   */\n      tag_589\n        /* \"#utility.yul\":20639:20644   */\n      dup3\n        /* \"#utility.yul\":20612:20645   */\n      tag_429\n      jump\t// in\n    tag_589:\n        /* \"#utility.yul\":20577:20578   */\n      0x01\n        /* \"#utility.yul\":20570:20575   */\n      dup3\n        /* \"#utility.yul\":20566:20579   */\n      add\n        /* \"#utility.yul\":20557:20579   */\n      swap2\n      pop\n        /* \"#utility.yul\":20533:20659   */\n      jump(tag_586)\n        /* \"#utility.yul\":20680:22568   */\n    tag_432:\n        /* \"#utility.yul\":20811:20859   */\n      tag_591\n        /* \"#utility.yul\":20855:20858   */\n      dup4\n        /* \"#utility.yul\":20849:20853   */\n      dup3\n        /* \"#utility.yul\":20811:20859   */\n      tag_431\n      jump\t// in\n    tag_591:\n        /* \"#utility.yul\":20882:20887   */\n      dup2\n        /* \"#utility.yul\":20906:20910   */\n      dup2\n        /* \"#utility.yul\":20903:20904   */\n      0x00\n        /* \"#utility.yul\":20896:20911   */\n      mstore\n        /* \"#utility.yul\":20952:20956   */\n      0x20\n        /* \"#utility.yul\":20949:20950   */\n      0x00\n        /* \"#utility.yul\":20939:20957   */\n      keccak256\n        /* \"#utility.yul\":20975:20976   */\n      0x00\n        /* \"#utility.yul\":20985:22562   */\n    tag_592:\n        /* \"#utility.yul\":20999:21002   */\n      dup6\n        /* \"#utility.yul\":20996:20997   */\n      dup2\n        /* \"#utility.yul\":20993:21003   */\n      lt\n        /* \"#utility.yul\":20985:22562   */\n      iszero\n      tag_594\n      jumpi\n        /* \"#utility.yul\":21075:21126   */\n      tag_595\n        /* \"#utility.yul\":21119:21125   */\n      dup4\n        /* \"#utility.yul\":21112:21117   */\n      dup7\n        /* \"#utility.yul\":21075:21126   */\n      tag_421\n      jump\t// in\n    tag_595:\n        /* \"#utility.yul\":21158:21176   */\n      0xffffffffffffffff\n        /* \"#utility.yul\":21145:21156   */\n      dup2\n        /* \"#utility.yul\":21142:21177   */\n      gt\n        /* \"#utility.yul\":21139:21200   */\n      iszero\n      tag_597\n      jumpi\n        /* \"#utility.yul\":21180:21198   */\n      tag_597\n      tag_422\n      jump\t// in\n    tag_597:\n        /* \"#utility.yul\":21213:21329   */\n      tag_598\n        /* \"#utility.yul\":21317:21328   */\n      dup2\n        /* \"#utility.yul\":21270:21315   */\n      tag_599\n        /* \"#utility.yul\":21302:21313   */\n      dup7\n        /* \"#utility.yul\":21296:21314   */\n      sload\n        /* \"#utility.yul\":21270:21315   */\n      tag_157\n      jump\t// in\n    tag_599:\n        /* \"#utility.yul\":21257:21268   */\n      dup7\n        /* \"#utility.yul\":21213:21329   */\n      tag_425\n      jump\t// in\n    tag_598:\n        /* \"#utility.yul\":21359:21360   */\n      0x00\n        /* \"#utility.yul\":21396:21398   */\n      0x1f\n        /* \"#utility.yul\":21383:21394   */\n      dup3\n        /* \"#utility.yul\":21380:21399   */\n      gt\n        /* \"#utility.yul\":21417:21418   */\n      0x01\n        /* \"#utility.yul\":21412:22146   */\n      dup2\n      eq\n      tag_601\n      jumpi\n        /* \"#utility.yul\":22200:22201   */\n      0x00\n        /* \"#utility.yul\":22221:22232   */\n      dup4\n        /* \"#utility.yul\":22218:22339   */\n      iszero\n      tag_602\n      jumpi\n      pop\n        /* \"#utility.yul\":22295:22320   */\n      dup4\n      dup3\n      add\n        /* \"#utility.yul\":22282:22321   */\n      calldataload\n        /* \"#utility.yul\":22218:22339   */\n    tag_602:\n        /* \"#utility.yul\":22376:22450   */\n      tag_603\n        /* \"#utility.yul\":22438:22449   */\n      dup5\n        /* \"#utility.yul\":22429:22436   */\n      dup3\n        /* \"#utility.yul\":22376:22450   */\n      tag_426\n      jump\t// in\n    tag_603:\n        /* \"#utility.yul\":22363:22374   */\n      dup8\n        /* \"#utility.yul\":22356:22451   */\n      sstore\n      pop\n        /* \"#utility.yul\":21373:22465   */\n      jump(tag_600)\n        /* \"#utility.yul\":21412:22146   */\n    tag_601:\n        /* \"#utility.yul\":16175:16176   */\n      0x00\n        /* \"#utility.yul\":16168:16182   */\n      dup7\n      dup2\n      mstore\n        /* \"#utility.yul\":16212:16216   */\n      0x20\n        /* \"#utility.yul\":16199:16217   */\n      dup2\n      keccak256\n      not(0x1f)\n        /* \"#utility.yul\":21452:21477   */\n      dup6\n      and\n      swap2\n        /* \"#utility.yul\":21596:21857   */\n    tag_605:\n        /* \"#utility.yul\":21612:21619   */\n      dup3\n        /* \"#utility.yul\":21607:21610   */\n      dup2\n        /* \"#utility.yul\":21604:21620   */\n      lt\n        /* \"#utility.yul\":21596:21857   */\n      iszero\n      tag_607\n      jumpi\n        /* \"#utility.yul\":21713:21738   */\n      dup7\n      dup6\n      add\n        /* \"#utility.yul\":21700:21739   */\n      calldataload\n        /* \"#utility.yul\":21685:21740   */\n      dup3\n      sstore\n        /* \"#utility.yul\":21834:21838   */\n      0x20\n        /* \"#utility.yul\":21819:21839   */\n      swap5\n      dup6\n      add\n      swap5\n        /* \"#utility.yul\":21783:21784   */\n      0x01\n        /* \"#utility.yul\":21771:21785   */\n      swap1\n      swap3\n      add\n      swap2\n        /* \"#utility.yul\":21630:21644   */\n      add\n        /* \"#utility.yul\":21596:21857   */\n      jump(tag_605)\n    tag_607:\n        /* \"#utility.yul\":21600:21603   */\n      pop\n        /* \"#utility.yul\":21889:21900   */\n      dup5\n        /* \"#utility.yul\":21880:21887   */\n      dup3\n        /* \"#utility.yul\":21877:21901   */\n      lt\n        /* \"#utility.yul\":21874:22067   */\n      iszero\n      tag_608\n      jumpi\n        /* \"#utility.yul\":22043:22044   */\n      0x00\n        /* \"#utility.yul\":22039:22045   */\n      not\n        /* \"#utility.yul\":22033:22036   */\n      0xf8\n        /* \"#utility.yul\":22019:22030   */\n      dup7\n        /* \"#utility.yul\":22016:22017   */\n      0x03\n        /* \"#utility.yul\":22012:22031   */\n      shl\n        /* \"#utility.yul\":22008:22037   */\n      and\n        /* \"#utility.yul\":22004:22046   */\n      shr\n        /* \"#utility.yul\":22000:22047   */\n      not\n        /* \"#utility.yul\":21987:21996   */\n      dup5\n        /* \"#utility.yul\":21976:21985   */\n      dup8\n        /* \"#utility.yul\":21972:21997   */\n      add\n        /* \"#utility.yul\":21959:21998   */\n      calldataload\n        /* \"#utility.yul\":21955:22048   */\n      and\n        /* \"#utility.yul\":21947:21953   */\n      dup2\n        /* \"#utility.yul\":21940:22049   */\n      sstore\n        /* \"#utility.yul\":21874:22067   */\n    tag_608:\n      pop\n      pop\n        /* \"#utility.yul\":22129:22130   */\n      0x01\n        /* \"#utility.yul\":22115:22126   */\n      dup4\n        /* \"#utility.yul\":22112:22113   */\n      0x01\n        /* \"#utility.yul\":22108:22127   */\n      shl\n        /* \"#utility.yul\":22104:22131   */\n      add\n        /* \"#utility.yul\":22091:22102   */\n      dup7\n        /* \"#utility.yul\":22084:22132   */\n      sstore\n        /* \"#utility.yul\":21373:22465   */\n    tag_600:\n      pop\n      pop\n      pop\n        /* \"#utility.yul\":22500:22504   */\n      0x20\n        /* \"#utility.yul\":22488:22505   */\n      swap4\n      swap1\n      swap4\n      add\n      swap3\n      pop\n        /* \"#utility.yul\":22550:22551   */\n      0x01\n        /* \"#utility.yul\":22533:22552   */\n      swap2\n      dup3\n      add\n      swap2\n        /* \"#utility.yul\":21011:21020   */\n      add\n        /* \"#utility.yul\":20985:22562   */\n      jump(tag_592)\n    tag_594:\n        /* \"#utility.yul\":20989:20992   */\n      pop\n      pop\n      pop\n        /* \"#utility.yul\":20680:22568   */\n      pop\n      pop\n      pop\n      jump\t// out\n        /* \"#utility.yul\":22573:24596   */\n    tag_433:\n        /* \"#utility.yul\":22717:22722   */\n      dup2\n        /* \"#utility.yul\":22704:22723   */\n      calldataload\n        /* \"#utility.yul\":22732:22765   */\n      tag_610\n        /* \"#utility.yul\":22757:22764   */\n      dup2\n        /* \"#utility.yul\":22732:22765   */\n      tag_409\n      jump\t// in\n    tag_610:\n        /* \"#utility.yul\":22774:22839   */\n      tag_611\n        /* \"#utility.yul\":22831:22838   */\n      dup2\n        /* \"#utility.yul\":22825:22829   */\n      dup4\n        /* \"#utility.yul\":22774:22839   */\n      tag_420\n      jump\t// in\n    tag_611:\n      pop\n        /* \"#utility.yul\":22908:22910   */\n      0x20\n        /* \"#utility.yul\":22897:22911   */\n      dup3\n      add\n        /* \"#utility.yul\":22884:22912   */\n      calldataload\n        /* \"#utility.yul\":22938:22939   */\n      0x01\n        /* \"#utility.yul\":22928:22940   */\n      dup3\n      add\n        /* \"#utility.yul\":22921:22950   */\n      sstore\n        /* \"#utility.yul\":22987:22988   */\n      0x02\n        /* \"#utility.yul\":22977:22989   */\n      dup2\n      add\n        /* \"#utility.yul\":23032:23091   */\n      tag_612\n        /* \"#utility.yul\":23087:23089   */\n      0x40\n        /* \"#utility.yul\":23076:23090   */\n      dup5\n      add\n        /* \"#utility.yul\":22901:22906   */\n      dup5\n        /* \"#utility.yul\":23032:23091   */\n      tag_421\n      jump\t// in\n    tag_612:\n        /* \"#utility.yul\":23121:23139   */\n      0xffffffffffffffff\n        /* \"#utility.yul\":23106:23119   */\n      dup2\n        /* \"#utility.yul\":23103:23140   */\n      gt\n        /* \"#utility.yul\":23100:23163   */\n      iszero\n      tag_614\n      jumpi\n        /* \"#utility.yul\":23143:23161   */\n      tag_614\n      tag_422\n      jump\t// in\n    tag_614:\n        /* \"#utility.yul\":23172:23288   */\n      tag_615\n        /* \"#utility.yul\":23274:23287   */\n      dup2\n        /* \"#utility.yul\":23228:23272   */\n      tag_616\n        /* \"#utility.yul\":23260:23270   */\n      dup6\n        /* \"#utility.yul\":23254:23271   */\n      sload\n        /* \"#utility.yul\":23228:23272   */\n      tag_157\n      jump\t// in\n    tag_616:\n        /* \"#utility.yul\":23216:23226   */\n      dup6\n        /* \"#utility.yul\":23172:23288   */\n      tag_425\n      jump\t// in\n    tag_615:\n        /* \"#utility.yul\":23314:23315   */\n      0x00\n        /* \"#utility.yul\":23349:23351   */\n      0x1f\n        /* \"#utility.yul\":23334:23347   */\n      dup3\n        /* \"#utility.yul\":23331:23352   */\n      gt\n        /* \"#utility.yul\":23366:23367   */\n      0x01\n        /* \"#utility.yul\":23361:24033   */\n      dup2\n      eq\n      tag_618\n      jumpi\n        /* \"#utility.yul\":24079:24080   */\n      0x00\n        /* \"#utility.yul\":24096:24109   */\n      dup4\n        /* \"#utility.yul\":24093:24206   */\n      iszero\n      tag_619\n      jumpi\n      pop\n        /* \"#utility.yul\":24164:24191   */\n      dup4\n      dup3\n      add\n        /* \"#utility.yul\":24151:24192   */\n      calldataload\n        /* \"#utility.yul\":24093:24206   */\n    tag_619:\n        /* \"#utility.yul\":24238:24314   */\n      tag_620\n        /* \"#utility.yul\":24300:24313   */\n      dup5\n        /* \"#utility.yul\":24291:24298   */\n      dup3\n        /* \"#utility.yul\":24238:24314   */\n      tag_426\n      jump\t// in\n    tag_620:\n        /* \"#utility.yul\":24226:24236   */\n      dup7\n        /* \"#utility.yul\":24219:24315   */\n      sstore\n      pop\n        /* \"#utility.yul\":23324:24325   */\n      jump(tag_617)\n        /* \"#utility.yul\":23361:24033   */\n    tag_618:\n        /* \"#utility.yul\":16175:16176   */\n      0x00\n        /* \"#utility.yul\":16168:16182   */\n      dup6\n      dup2\n      mstore\n        /* \"#utility.yul\":16212:16216   */\n      0x20\n        /* \"#utility.yul\":16199:16217   */\n      dup2\n      keccak256\n      not(0x1f)\n        /* \"#utility.yul\":23397:23424   */\n      dup6\n      and\n      swap2\n        /* \"#utility.yul\":23528:23761   */\n    tag_622:\n        /* \"#utility.yul\":23542:23549   */\n      dup3\n        /* \"#utility.yul\":23539:23540   */\n      dup2\n        /* \"#utility.yul\":23536:23550   */\n      lt\n        /* \"#utility.yul\":23528:23761   */\n      iszero\n      tag_624\n      jumpi\n        /* \"#utility.yul\":23629:23656   */\n      dup7\n      dup6\n      add\n        /* \"#utility.yul\":23616:23657   */\n      calldataload\n        /* \"#utility.yul\":23601:23658   */\n      dup3\n      sstore\n        /* \"#utility.yul\":23744:23746   */\n      0x20\n        /* \"#utility.yul\":23729:23747   */\n      swap5\n      dup6\n      add\n      swap5\n        /* \"#utility.yul\":23697:23698   */\n      0x01\n        /* \"#utility.yul\":23685:23699   */\n      swap1\n      swap3\n      add\n      swap2\n        /* \"#utility.yul\":23558:23568   */\n      add\n        /* \"#utility.yul\":23528:23761   */\n      jump(tag_622)\n    tag_624:\n        /* \"#utility.yul\":23532:23535   */\n      pop\n        /* \"#utility.yul\":23789:23802   */\n      dup5\n        /* \"#utility.yul\":23780:23787   */\n      dup3\n        /* \"#utility.yul\":23777:23803   */\n      lt\n        /* \"#utility.yul\":23774:23961   */\n      iszero\n      tag_625\n      jumpi\n        /* \"#utility.yul\":23941:23942   */\n      0x00\n        /* \"#utility.yul\":23937:23943   */\n      not\n        /* \"#utility.yul\":23931:23934   */\n      0xf8\n        /* \"#utility.yul\":23915:23928   */\n      dup7\n        /* \"#utility.yul\":23912:23913   */\n      0x03\n        /* \"#utility.yul\":23908:23929   */\n      shl\n        /* \"#utility.yul\":23904:23935   */\n      and\n        /* \"#utility.yul\":23900:23944   */\n      shr\n        /* \"#utility.yul\":23896:23945   */\n      not\n        /* \"#utility.yul\":23883:23892   */\n      dup5\n        /* \"#utility.yul\":23870:23881   */\n      dup8\n        /* \"#utility.yul\":23866:23893   */\n      add\n        /* \"#utility.yul\":23853:23894   */\n      calldataload\n        /* \"#utility.yul\":23849:23946   */\n      and\n        /* \"#utility.yul\":23841:23847   */\n      dup2\n        /* \"#utility.yul\":23834:23947   */\n      sstore\n        /* \"#utility.yul\":23774:23961   */\n    tag_625:\n      pop\n      pop\n        /* \"#utility.yul\":24020:24021   */\n      0x01\n        /* \"#utility.yul\":24004:24017   */\n      dup4\n        /* \"#utility.yul\":24001:24002   */\n      0x01\n        /* \"#utility.yul\":23997:24018   */\n      shl\n        /* \"#utility.yul\":23993:24022   */\n      add\n        /* \"#utility.yul\":23981:23991   */\n      dup6\n        /* \"#utility.yul\":23974:24023   */\n      sstore\n        /* \"#utility.yul\":23324:24325   */\n    tag_617:\n      pop\n      pop\n      pop\n      pop\n      pop\n        /* \"#utility.yul\":24370:24448   */\n      tag_626\n        /* \"#utility.yul\":24444:24446   */\n      0x60\n        /* \"#utility.yul\":24437:24442   */\n      dup4\n        /* \"#utility.yul\":24433:24447   */\n      add\n        /* \"#utility.yul\":24426:24431   */\n      dup4\n        /* \"#utility.yul\":24370:24448   */\n      tag_428\n      jump\t// in\n    tag_626:\n        /* \"#utility.yul\":24457:24590   */\n      tag_580\n        /* \"#utility.yul\":24576:24589   */\n      dup2\n        /* \"#utility.yul\":24561:24574   */\n      dup4\n        /* \"#utility.yul\":24557:24558   */\n      0x03\n        /* \"#utility.yul\":24551:24555   */\n      dup7\n        /* \"#utility.yul\":24547:24559   */\n      add\n        /* \"#utility.yul\":24457:24590   */\n      tag_432\n      jump\t// in\n        /* \"#utility.yul\":27363:27481   */\n    tag_434:\n        /* \"#utility.yul\":27449:27454   */\n      dup1\n        /* \"#utility.yul\":27442:27455   */\n      iszero\n        /* \"#utility.yul\":27435:27456   */\n      iszero\n        /* \"#utility.yul\":27428:27433   */\n      dup2\n        /* \"#utility.yul\":27425:27457   */\n      eq\n        /* \"#utility.yul\":27415:27475   */\n      tag_331\n      jumpi\n        /* \"#utility.yul\":27471:27472   */\n      0x00\n        /* \"#utility.yul\":27468:27469   */\n      0x00\n        /* \"#utility.yul\":27461:27473   */\n      revert\n        /* \"#utility.yul\":27486:27656   */\n    tag_435:\n        /* \"#utility.yul\":27528:27539   */\n      0x00\n        /* \"#utility.yul\":27580:27583   */\n      dup2\n        /* \"#utility.yul\":27567:27584   */\n      calldataload\n        /* \"#utility.yul\":27593:27621   */\n      tag_399\n        /* \"#utility.yul\":27615:27620   */\n      dup2\n        /* \"#utility.yul\":27593:27621   */\n      tag_434\n      jump\t// in\n        /* \"#utility.yul\":27857:29647   */\n    tag_219:\n        /* \"#utility.yul\":28019:28024   */\n      dup2\n        /* \"#utility.yul\":28006:28025   */\n      calldataload\n        /* \"#utility.yul\":28034:28067   */\n      tag_655\n        /* \"#utility.yul\":28059:28066   */\n      dup2\n        /* \"#utility.yul\":28034:28067   */\n      tag_409\n      jump\t// in\n    tag_655:\n        /* \"#utility.yul\":28076:28141   */\n      tag_656\n        /* \"#utility.yul\":28133:28140   */\n      dup2\n        /* \"#utility.yul\":28127:28131   */\n      dup4\n        /* \"#utility.yul\":28076:28141   */\n      tag_420\n      jump\t// in\n    tag_656:\n      pop\n        /* \"#utility.yul\":28178:28179   */\n      0x01\n        /* \"#utility.yul\":28172:28176   */\n      dup2\n        /* \"#utility.yul\":28168:28180   */\n      add\n        /* \"#utility.yul\":28223:28301   */\n      tag_657\n        /* \"#utility.yul\":28297:28299   */\n      0x20\n        /* \"#utility.yul\":28290:28295   */\n      dup5\n        /* \"#utility.yul\":28286:28300   */\n      add\n        /* \"#utility.yul\":28279:28284   */\n      dup5\n        /* \"#utility.yul\":28223:28301   */\n      tag_428\n      jump\t// in\n    tag_657:\n        /* \"#utility.yul\":28331:28349   */\n      0xffffffffffffffff\n        /* \"#utility.yul\":28316:28329   */\n      dup2\n        /* \"#utility.yul\":28313:28350   */\n      gt\n        /* \"#utility.yul\":28310:28373   */\n      iszero\n      tag_659\n      jumpi\n        /* \"#utility.yul\":28353:28371   */\n      tag_659\n      tag_422\n      jump\t// in\n    tag_659:\n      shl(0x40, 0x01)\n        /* \"#utility.yul\":28388:28401   */\n      dup2\n        /* \"#utility.yul\":28385:28424   */\n      gt\n        /* \"#utility.yul\":28382:28447   */\n      iszero\n      tag_661\n      jumpi\n        /* \"#utility.yul\":28427:28445   */\n      tag_661\n      tag_422\n      jump\t// in\n    tag_661:\n        /* \"#utility.yul\":28476:28486   */\n      dup3\n        /* \"#utility.yul\":28470:28487   */\n      sload\n        /* \"#utility.yul\":28515:28528   */\n      dup2\n        /* \"#utility.yul\":28503:28513   */\n      dup5\n        /* \"#utility.yul\":28496:28529   */\n      sstore\n        /* \"#utility.yul\":28559:28565   */\n      dup1\n        /* \"#utility.yul\":28544:28557   */\n      dup3\n        /* \"#utility.yul\":28541:28566   */\n      lt\n        /* \"#utility.yul\":28538:28745   */\n      iszero\n      tag_662\n      jumpi\n        /* \"#utility.yul\":28599:28609   */\n      dup4\n        /* \"#utility.yul\":28596:28597   */\n      0x00\n        /* \"#utility.yul\":28589:28610   */\n      mstore\n        /* \"#utility.yul\":28648:28650   */\n      0x20\n        /* \"#utility.yul\":28645:28646   */\n      0x00\n        /* \"#utility.yul\":28635:28651   */\n      keccak256\n        /* \"#utility.yul\":28664:28735   */\n      tag_663\n        /* \"#utility.yul\":28727:28733   */\n      dup3\n        /* \"#utility.yul\":28721:28725   */\n      dup3\n        /* \"#utility.yul\":28717:28734   */\n      add\n        /* \"#utility.yul\":28701:28714   */\n      dup5\n        /* \"#utility.yul\":28695:28699   */\n      dup4\n        /* \"#utility.yul\":28691:28715   */\n      add\n        /* \"#utility.yul\":28664:28735   */\n      tag_424\n      jump\t// in\n    tag_663:\n      pop\n        /* \"#utility.yul\":28538:28745   */\n    tag_662:\n      pop\n        /* \"#utility.yul\":28795:28796   */\n      0x00\n        /* \"#utility.yul\":28788:28809   */\n      swap3\n      dup4\n      mstore\n        /* \"#utility.yul\":28845:28847   */\n      0x20\n        /* \"#utility.yul\":28832:28848   */\n      dup4\n      keccak256\n      swap3\n        /* \"#utility.yul\":28876:29098   */\n    tag_664:\n        /* \"#utility.yul\":28890:28903   */\n      dup2\n        /* \"#utility.yul\":28887:28888   */\n      dup2\n        /* \"#utility.yul\":28884:28904   */\n      lt\n        /* \"#utility.yul\":28876:29098   */\n      iszero\n      tag_666\n      jumpi\n        /* \"#utility.yul\":28986:29006   */\n      dup3\n      calldataload\n        /* \"#utility.yul\":29064:29078   */\n      dup5\n      dup3\n      add\n        /* \"#utility.yul\":29057:29088   */\n      sstore\n        /* \"#utility.yul\":29041:29043   */\n      0x20\n        /* \"#utility.yul\":29029:29044   */\n      swap1\n      swap3\n      add\n      swap2\n        /* \"#utility.yul\":28919:28920   */\n      0x01\n        /* \"#utility.yul\":28912:28921   */\n      add\n        /* \"#utility.yul\":28876:29098   */\n      jump(tag_664)\n    tag_666:\n        /* \"#utility.yul\":28880:28883   */\n      pop\n      pop\n      pop\n      pop\n        /* \"#utility.yul\":29143:29202   */\n      tag_667\n        /* \"#utility.yul\":29198:29200   */\n      0x40\n        /* \"#utility.yul\":29191:29196   */\n      dup4\n        /* \"#utility.yul\":29187:29201   */\n      add\n        /* \"#utility.yul\":29180:29185   */\n      dup4\n        /* \"#utility.yul\":29143:29202   */\n      tag_421\n      jump\t// in\n    tag_667:\n        /* \"#utility.yul\":29211:29312   */\n      tag_668\n        /* \"#utility.yul\":29298:29311   */\n      dup2\n        /* \"#utility.yul\":29283:29296   */\n      dup4\n        /* \"#utility.yul\":29279:29280   */\n      0x02\n        /* \"#utility.yul\":29273:29277   */\n      dup7\n        /* \"#utility.yul\":29269:29281   */\n      add\n        /* \"#utility.yul\":29211:29312   */\n      tag_427\n      jump\t// in\n    tag_668:\n      pop\n      pop\n        /* \"#utility.yul\":29381:29383   */\n      0x60\n        /* \"#utility.yul\":29370:29384   */\n      dup3\n      add\n        /* \"#utility.yul\":29357:29385   */\n      calldataload\n        /* \"#utility.yul\":29411:29412   */\n      0x03\n        /* \"#utility.yul\":29401:29413   */\n      dup3\n      add\n        /* \"#utility.yul\":29394:29423   */\n      sstore\n        /* \"#utility.yul\":29492:29495   */\n      0x80\n        /* \"#utility.yul\":29481:29496   */\n      dup3\n      add\n        /* \"#utility.yul\":29468:29497   */\n      calldataload\n        /* \"#utility.yul\":29523:29524   */\n      0x04\n        /* \"#utility.yul\":29513:29525   */\n      dup3\n      add\n        /* \"#utility.yul\":29506:29535   */\n      sstore\n        /* \"#utility.yul\":29544:29641   */\n      tag_396\n        /* \"#utility.yul\":29599:29640   */\n      tag_670\n        /* \"#utility.yul\":29635:29638   */\n      0xa0\n        /* \"#utility.yul\":29624:29639   */\n      dup5\n      add\n        /* \"#utility.yul\":29599:29640   */\n      tag_435\n      jump\t// in\n    tag_670:\n        /* \"#utility.yul\":29595:29596   */\n      0x05\n        /* \"#utility.yul\":29589:29593   */\n      dup4\n        /* \"#utility.yul\":29585:29597   */\n      add\n        /* \"#utility.yul\":27774:27777   */\n      0xff\n        /* \"#utility.yul\":27770:27778   */\n      not\n        /* \"#utility.yul\":27763:27767   */\n      dup2\n        /* \"#utility.yul\":27757:27768   */\n      sload\n        /* \"#utility.yul\":27753:27779   */\n      and\n        /* \"#utility.yul\":27840:27843   */\n      0xff\n        /* \"#utility.yul\":27831:27836   */\n      dup4\n        /* \"#utility.yul\":27824:27837   */\n      iszero\n        /* \"#utility.yul\":27817:27838   */\n      iszero\n        /* \"#utility.yul\":27813:27844   */\n      and\n        /* \"#utility.yul\":27804:27811   */\n      dup2\n        /* \"#utility.yul\":27801:27845   */\n      or\n        /* \"#utility.yul\":27795:27799   */\n      dup3\n        /* \"#utility.yul\":27788:27846   */\n      sstore\n      pop\n        /* \"#utility.yul\":27661:27852   */\n      pop\n      pop\n      jump\n        /* \"#utility.yul\":29652:29893   */\n    tag_221:\n        /* \"#utility.yul\":29708:29714   */\n      0x00\n        /* \"#utility.yul\":29761:29763   */\n      0x20\n        /* \"#utility.yul\":29749:29758   */\n      dup3\n        /* \"#utility.yul\":29740:29747   */\n      dup5\n        /* \"#utility.yul\":29736:29759   */\n      sub\n        /* \"#utility.yul\":29732:29764   */\n      slt\n        /* \"#utility.yul\":29729:29781   */\n      iszero\n      tag_672\n      jumpi\n        /* \"#utility.yul\":29777:29778   */\n      0x00\n        /* \"#utility.yul\":29774:29775   */\n      0x00\n        /* \"#utility.yul\":29767:29779   */\n      revert\n        /* \"#utility.yul\":29729:29781   */\n    tag_672:\n        /* \"#utility.yul\":29816:29825   */\n      dup2\n        /* \"#utility.yul\":29803:29826   */\n      calldataload\n        /* \"#utility.yul\":29835:29863   */\n      tag_446\n        /* \"#utility.yul\":29857:29862   */\n      dup2\n        /* \"#utility.yul\":29835:29863   */\n      tag_434\n      jump\t// in\n        /* \"#utility.yul\":30246:30611   */\n    tag_437:\n        /* \"#utility.yul\":30381:30382   */\n      0x03\n        /* \"#utility.yul\":30374:30379   */\n      dup3\n        /* \"#utility.yul\":30371:30383   */\n      lt\n        /* \"#utility.yul\":30361:30504   */\n      tag_676\n      jumpi\n        /* \"#utility.yul\":30426:30436   */\n      0x4e487b71\n        /* \"#utility.yul\":30421:30424   */\n      0xe0\n        /* \"#utility.yul\":30417:30437   */\n      shl\n        /* \"#utility.yul\":30414:30415   */\n      0x00\n        /* \"#utility.yul\":30407:30438   */\n      mstore\n        /* \"#utility.yul\":30461:30465   */\n      0x21\n        /* \"#utility.yul\":30458:30459   */\n      0x04\n        /* \"#utility.yul\":30451:30466   */\n      mstore\n        /* \"#utility.yul\":30489:30493   */\n      0x24\n        /* \"#utility.yul\":30486:30487   */\n      0x00\n        /* \"#utility.yul\":30479:30494   */\n      revert\n        /* \"#utility.yul\":30361:30504   */\n    tag_676:\n        /* \"#utility.yul\":30549:30552   */\n      0xff\n        /* \"#utility.yul\":30545:30553   */\n      not\n        /* \"#utility.yul\":30538:30542   */\n      dup2\n        /* \"#utility.yul\":30532:30543   */\n      sload\n        /* \"#utility.yul\":30528:30554   */\n      and\n        /* \"#utility.yul\":30599:30602   */\n      0xff\n        /* \"#utility.yul\":30592:30597   */\n      dup4\n        /* \"#utility.yul\":30588:30603   */\n      and\n        /* \"#utility.yul\":30579:30586   */\n      dup2\n        /* \"#utility.yul\":30576:30604   */\n      or\n        /* \"#utility.yul\":30570:30574   */\n      dup3\n        /* \"#utility.yul\":30563:30605   */\n      sstore\n      pop\n        /* \"#utility.yul\":30246:30611   */\n      pop\n      pop\n      jump\t// out\n        /* \"#utility.yul\":30836:31153   */\n    tag_439:\n        /* \"#utility.yul\":30921:30925   */\n      0x00\n        /* \"#utility.yul\":30979:30990   */\n      dup3\n        /* \"#utility.yul\":30966:30991   */\n      calldataload\n        /* \"#utility.yul\":31073:31076   */\n      0x7e\n        /* \"#utility.yul\":31069:31077   */\n      not\n        /* \"#utility.yul\":31058:31066   */\n      dup4\n        /* \"#utility.yul\":31042:31056   */\n      calldatasize\n        /* \"#utility.yul\":31038:31067   */\n      sub\n        /* \"#utility.yul\":31034:31078   */\n      add\n        /* \"#utility.yul\":31014:31032   */\n      dup2\n        /* \"#utility.yul\":31010:31079   */\n      slt\n        /* \"#utility.yul\":31000:31097   */\n      tag_679\n      jumpi\n        /* \"#utility.yul\":31093:31094   */\n      0x00\n        /* \"#utility.yul\":31090:31091   */\n      0x00\n        /* \"#utility.yul\":31083:31095   */\n      revert\n        /* \"#utility.yul\":31000:31097   */\n    tag_679:\n        /* \"#utility.yul\":31114:31147   */\n      swap2\n      swap1\n      swap2\n      add\n      swap3\n        /* \"#utility.yul\":30836:31153   */\n      swap2\n      pop\n      pop\n      jump\t// out\n        /* \"#utility.yul\":31158:32549   */\n    tag_440:\n      shl(0x40, 0x01)\n        /* \"#utility.yul\":31321:31324   */\n      dup4\n        /* \"#utility.yul\":31318:31347   */\n      gt\n        /* \"#utility.yul\":31315:31370   */\n      iszero\n      tag_682\n      jumpi\n        /* \"#utility.yul\":31350:31368   */\n      tag_682\n      tag_422\n      jump\t// in\n    tag_682:\n        /* \"#utility.yul\":31399:31403   */\n      dup1\n        /* \"#utility.yul\":31393:31404   */\n      sload\n        /* \"#utility.yul\":31426:31429   */\n      dup4\n        /* \"#utility.yul\":31420:31424   */\n      dup3\n        /* \"#utility.yul\":31413:31430   */\n      sstore\n        /* \"#utility.yul\":31450:31456   */\n      dup1\n        /* \"#utility.yul\":31445:31448   */\n      dup5\n        /* \"#utility.yul\":31442:31457   */\n      lt\n        /* \"#utility.yul\":31439:32111   */\n      iszero\n      tag_683\n      jumpi\n      sub(shl(0xfe, 0x01), 0x01)\n        /* \"#utility.yul\":31501:31533   */\n      dup2\n      and\n        /* \"#utility.yul\":31490:31534   */\n      dup2\n      eq\n        /* \"#utility.yul\":31480:31558   */\n      tag_685\n      jumpi\n        /* \"#utility.yul\":31538:31556   */\n      tag_685\n      tag_418\n      jump\t// in\n    tag_685:\n      sub(shl(0xfe, 0x01), 0x01)\n        /* \"#utility.yul\":31589:31618   */\n      dup5\n      and\n        /* \"#utility.yul\":31581:31619   */\n      dup5\n      eq\n        /* \"#utility.yul\":31571:31643   */\n      tag_687\n      jumpi\n        /* \"#utility.yul\":31623:31641   */\n      tag_687\n      tag_418\n      jump\t// in\n    tag_687:\n        /* \"#utility.yul\":31666:31670   */\n      dup2\n        /* \"#utility.yul\":31663:31664   */\n      0x00\n        /* \"#utility.yul\":31656:31671   */\n      mstore\n        /* \"#utility.yul\":31709:31713   */\n      0x20\n        /* \"#utility.yul\":31706:31707   */\n      0x00\n        /* \"#utility.yul\":31696:31714   */\n      keccak256\n        /* \"#utility.yul\":31754:31760   */\n      dup2\n        /* \"#utility.yul\":31751:31752   */\n      0x02\n        /* \"#utility.yul\":31747:31761   */\n      shl\n        /* \"#utility.yul\":31741:31745   */\n      dup2\n        /* \"#utility.yul\":31737:31762   */\n      add\n        /* \"#utility.yul\":31805:31808   */\n      dup6\n        /* \"#utility.yul\":31802:31803   */\n      0x02\n        /* \"#utility.yul\":31798:31809   */\n      shl\n        /* \"#utility.yul\":31792:31796   */\n      dup3\n        /* \"#utility.yul\":31788:31810   */\n      add\n        /* \"#utility.yul\":31775:31810   */\n      swap2\n      pop\n        /* \"#utility.yul\":31823:32101   */\n    tag_688:\n        /* \"#utility.yul\":31841:31843   */\n      dup1\n        /* \"#utility.yul\":31834:31839   */\n      dup3\n        /* \"#utility.yul\":31831:31844   */\n      lt\n        /* \"#utility.yul\":31823:32101   */\n      iszero\n      tag_690\n      jumpi\n        /* \"#utility.yul\":31916:31917   */\n      0x00\n        /* \"#utility.yul\":31909:31914   */\n      dup3\n        /* \"#utility.yul\":31902:31918   */\n      sstore\n        /* \"#utility.yul\":31957:31958   */\n      0x00\n        /* \"#utility.yul\":31953:31954   */\n      0x01\n        /* \"#utility.yul\":31946:31951   */\n      dup4\n        /* \"#utility.yul\":31942:31955   */\n      add\n        /* \"#utility.yul\":31935:31959   */\n      sstore\n        /* \"#utility.yul\":31976:32017   */\n      tag_691\n        /* \"#utility.yul\":32014:32015   */\n      0x02\n        /* \"#utility.yul\":32007:32012   */\n      dup4\n        /* \"#utility.yul\":32003:32016   */\n      add\n        /* \"#utility.yul\":31976:32017   */\n      tag_429\n      jump\t// in\n    tag_691:\n        /* \"#utility.yul\":32034:32087   */\n      tag_692\n        /* \"#utility.yul\":32084:32085   */\n      0x03\n        /* \"#utility.yul\":32077:32082   */\n      dup4\n        /* \"#utility.yul\":32073:32086   */\n      add\n        /* \"#utility.yul\":32034:32087   */\n      tag_430\n      jump\t// in\n    tag_692:\n        /* \"#utility.yul\":31867:31868   */\n      0x04\n        /* \"#utility.yul\":31860:31865   */\n      dup3\n        /* \"#utility.yul\":31856:31869   */\n      add\n        /* \"#utility.yul\":31847:31869   */\n      swap2\n      pop\n        /* \"#utility.yul\":31823:32101   */\n      jump(tag_688)\n    tag_690:\n        /* \"#utility.yul\":31827:31830   */\n      pop\n      pop\n        /* \"#utility.yul\":31439:32111   */\n    tag_683:\n      pop\n        /* \"#utility.yul\":16175:16176   */\n      0x00\n        /* \"#utility.yul\":16168:16182   */\n      dup2\n      dup2\n      mstore\n        /* \"#utility.yul\":16212:16216   */\n      0x20\n        /* \"#utility.yul\":16199:16217   */\n      dup2\n      keccak256\n        /* \"#utility.yul\":32134:32139   */\n      dup4\n      swap2\n        /* \"#utility.yul\":32230:32543   */\n    tag_694:\n        /* \"#utility.yul\":32244:32247   */\n      dup6\n        /* \"#utility.yul\":32241:32242   */\n      dup2\n        /* \"#utility.yul\":32238:32248   */\n      lt\n        /* \"#utility.yul\":32230:32543   */\n      iszero\n      tag_594\n      jumpi\n        /* \"#utility.yul\":32290:32448   */\n      tag_697\n        /* \"#utility.yul\":32383:32447   */\n      tag_698\n        /* \"#utility.yul\":32440:32446   */\n      dup5\n        /* \"#utility.yul\":32433:32438   */\n      dup8\n        /* \"#utility.yul\":32383:32447   */\n      tag_439\n      jump\t// in\n    tag_698:\n        /* \"#utility.yul\":32370:32381   */\n      dup4\n        /* \"#utility.yul\":32290:32448   */\n      tag_433\n      jump\t// in\n    tag_697:\n        /* \"#utility.yul\":32483:32485   */\n      0x20\n        /* \"#utility.yul\":32471:32486   */\n      swap3\n      swap1\n      swap3\n      add\n      swap2\n        /* \"#utility.yul\":32531:32532   */\n      0x04\n        /* \"#utility.yul\":32514:32533   */\n      swap2\n      swap1\n      swap2\n      add\n      swap1\n        /* \"#utility.yul\":32263:32264   */\n      0x01\n        /* \"#utility.yul\":32256:32265   */\n      add\n        /* \"#utility.yul\":32230:32543   */\n      jump(tag_694)\n        /* \"#utility.yul\":32554:34264   */\n    tag_261:\n        /* \"#utility.yul\":32730:32749   */\n      dup2\n      calldataload\n        /* \"#utility.yul\":32758:32779   */\n      dup2\n      sstore\n        /* \"#utility.yul\":32827:32829   */\n      0x20\n        /* \"#utility.yul\":32816:32830   */\n      dup3\n      add\n        /* \"#utility.yul\":32803:32831   */\n      calldataload\n        /* \"#utility.yul\":32840:32873   */\n      tag_700\n        /* \"#utility.yul\":32803:32831   */\n      dup2\n        /* \"#utility.yul\":32840:32873   */\n      tag_409\n      jump\t// in\n    tag_700:\n        /* \"#utility.yul\":32882:32955   */\n      tag_701\n        /* \"#utility.yul\":32947:32954   */\n      dup2\n        /* \"#utility.yul\":32943:32944   */\n      0x01\n        /* \"#utility.yul\":32937:32941   */\n      dup5\n        /* \"#utility.yul\":32933:32945   */\n      add\n        /* \"#utility.yul\":32882:32955   */\n      tag_420\n      jump\t// in\n    tag_701:\n      pop\n        /* \"#utility.yul\":32998:33057   */\n      tag_702\n        /* \"#utility.yul\":33053:33055   */\n      0x40\n        /* \"#utility.yul\":33046:33051   */\n      dup4\n        /* \"#utility.yul\":33042:33056   */\n      add\n        /* \"#utility.yul\":33035:33040   */\n      dup4\n        /* \"#utility.yul\":32998:33057   */\n      tag_421\n      jump\t// in\n    tag_702:\n        /* \"#utility.yul\":33066:33165   */\n      tag_703\n        /* \"#utility.yul\":33151:33164   */\n      dup2\n        /* \"#utility.yul\":33138:33149   */\n      dup4\n        /* \"#utility.yul\":33134:33135   */\n      0x02\n        /* \"#utility.yul\":33128:33132   */\n      dup7\n        /* \"#utility.yul\":33124:33136   */\n      add\n        /* \"#utility.yul\":33066:33165   */\n      tag_427\n      jump\t// in\n    tag_703:\n      pop\n      pop\n        /* \"#utility.yul\":33189:33190   */\n      0x00\n        /* \"#utility.yul\":33234:33236   */\n      0x60\n        /* \"#utility.yul\":33227:33232   */\n      dup4\n        /* \"#utility.yul\":33223:33237   */\n      add\n        /* \"#utility.yul\":33210:33238   */\n      calldataload\n        /* \"#utility.yul\":33199:33238   */\n      swap1\n      pop\n        /* \"#utility.yul\":33268:33275   */\n      dup1\n        /* \"#utility.yul\":33264:33265   */\n      0x03\n        /* \"#utility.yul\":33258:33262   */\n      dup4\n        /* \"#utility.yul\":33254:33266   */\n      add\n        /* \"#utility.yul\":33247:33276   */\n      sstore\n      pop\n        /* \"#utility.yul\":33313:33314   */\n      0x04\n        /* \"#utility.yul\":33307:33311   */\n      dup2\n        /* \"#utility.yul\":33303:33315   */\n      add\n        /* \"#utility.yul\":33343:33344   */\n      0x00\n        /* \"#utility.yul\":33392:33395   */\n      0x80\n        /* \"#utility.yul\":33385:33390   */\n      dup5\n        /* \"#utility.yul\":33381:33396   */\n      add\n        /* \"#utility.yul\":33368:33397   */\n      calldataload\n        /* \"#utility.yul\":33428:33429   */\n      0x03\n        /* \"#utility.yul\":33419:33426   */\n      dup2\n        /* \"#utility.yul\":33416:33430   */\n      lt\n        /* \"#utility.yul\":33406:33448   */\n      tag_704\n      jumpi\n        /* \"#utility.yul\":33444:33445   */\n      0x00\n        /* \"#utility.yul\":33441:33442   */\n      0x00\n        /* \"#utility.yul\":33434:33446   */\n      revert\n        /* \"#utility.yul\":33406:33448   */\n    tag_704:\n        /* \"#utility.yul\":33472:33479   */\n      dup1\n        /* \"#utility.yul\":33457:33479   */\n      swap2\n      pop\n        /* \"#utility.yul\":33488:33587   */\n      tag_705\n        /* \"#utility.yul\":33579:33586   */\n      dup2\n        /* \"#utility.yul\":33567:33577   */\n      dup5\n        /* \"#utility.yul\":33488:33587   */\n      tag_437\n      jump\t// in\n    tag_705:\n      pop\n      pop\n        /* \"#utility.yul\":33596:33700   */\n      tag_706\n        /* \"#utility.yul\":33655:33699   */\n      tag_707\n        /* \"#utility.yul\":33694:33697   */\n      0xa0\n        /* \"#utility.yul\":33687:33692   */\n      dup6\n        /* \"#utility.yul\":33683:33698   */\n      add\n        /* \"#utility.yul\":33655:33699   */\n      tag_419\n      jump\t// in\n    tag_707:\n        /* \"#utility.yul\":33643:33653   */\n      dup3\n        /* \"#utility.yul\":30709:30720   */\n      dup1\n      sload\n      not(sub(shl(0xa8, 0x01), 0x0100))\n        /* \"#utility.yul\":30745:30780   */\n      and\n        /* \"#utility.yul\":30790:30791   */\n      0x08\n        /* \"#utility.yul\":30786:30799   */\n      swap3\n      swap1\n      swap3\n      shl\n      sub(shl(0xa8, 0x01), 0x0100)\n        /* \"#utility.yul\":30782:30823   */\n      and\n        /* \"#utility.yul\":30742:30824   */\n      swap2\n      swap1\n      swap2\n      or\n        /* \"#utility.yul\":30729:30825   */\n      swap1\n      sstore\n        /* \"#utility.yul\":30616:30831   */\n      jump\n        /* \"#utility.yul\":33596:33700   */\n    tag_706:\n      pop\n        /* \"#utility.yul\":33745:33824   */\n      tag_708\n        /* \"#utility.yul\":33819:33822   */\n      0xc0\n        /* \"#utility.yul\":33812:33817   */\n      dup4\n        /* \"#utility.yul\":33808:33823   */\n      add\n        /* \"#utility.yul\":33801:33806   */\n      dup4\n        /* \"#utility.yul\":33745:33824   */\n      tag_428\n      jump\t// in\n    tag_708:\n        /* \"#utility.yul\":33833:33992   */\n      tag_709\n        /* \"#utility.yul\":33978:33991   */\n      dup2\n        /* \"#utility.yul\":33963:33976   */\n      dup4\n        /* \"#utility.yul\":33959:33960   */\n      0x05\n        /* \"#utility.yul\":33953:33957   */\n      dup7\n        /* \"#utility.yul\":33949:33961   */\n      add\n        /* \"#utility.yul\":33833:33992   */\n      tag_440\n      jump\t// in\n    tag_709:\n      pop\n      pop\n        /* \"#utility.yul\":34037:34116   */\n      tag_710\n        /* \"#utility.yul\":34111:34114   */\n      0xe0\n        /* \"#utility.yul\":34104:34109   */\n      dup4\n        /* \"#utility.yul\":34100:34115   */\n      add\n        /* \"#utility.yul\":34093:34098   */\n      dup4\n        /* \"#utility.yul\":34037:34116   */\n      tag_428\n      jump\t// in\n    tag_710:\n        /* \"#utility.yul\":34125:34258   */\n      tag_580\n        /* \"#utility.yul\":34244:34257   */\n      dup2\n        /* \"#utility.yul\":34229:34242   */\n      dup4\n        /* \"#utility.yul\":34225:34226   */\n      0x06\n        /* \"#utility.yul\":34219:34223   */\n      dup7\n        /* \"#utility.yul\":34215:34227   */\n      add\n        /* \"#utility.yul\":34125:34258   */\n      tag_432\n      jump\t// in\n        /* \"#utility.yul\":34620:36902   */\n    tag_311:\n        /* \"#utility.yul\":34782:34787   */\n      dup2\n        /* \"#utility.yul\":34769:34788   */\n      calldataload\n        /* \"#utility.yul\":34797:34830   */\n      tag_714\n        /* \"#utility.yul\":34822:34829   */\n      dup2\n        /* \"#utility.yul\":34797:34830   */\n      tag_409\n      jump\t// in\n    tag_714:\n        /* \"#utility.yul\":34839:34904   */\n      tag_715\n        /* \"#utility.yul\":34896:34903   */\n      dup2\n        /* \"#utility.yul\":34890:34894   */\n      dup4\n        /* \"#utility.yul\":34839:34904   */\n      tag_420\n      jump\t// in\n    tag_715:\n      pop\n        /* \"#utility.yul\":34952:34954   */\n      0x20\n        /* \"#utility.yul\":34945:34950   */\n      dup3\n        /* \"#utility.yul\":34941:34955   */\n      add\n        /* \"#utility.yul\":34928:34956   */\n      calldataload\n        /* \"#utility.yul\":34965:34998   */\n      tag_716\n        /* \"#utility.yul\":34990:34997   */\n      dup2\n        /* \"#utility.yul\":34965:34998   */\n      tag_409\n      jump\t// in\n    tag_716:\n        /* \"#utility.yul\":35007:35080   */\n      tag_717\n        /* \"#utility.yul\":35072:35079   */\n      dup2\n        /* \"#utility.yul\":35068:35069   */\n      0x01\n        /* \"#utility.yul\":35062:35066   */\n      dup5\n        /* \"#utility.yul\":35058:35070   */\n      add\n        /* \"#utility.yul\":35007:35080   */\n      tag_420\n      jump\t// in\n    tag_717:\n      pop\n        /* \"#utility.yul\":35149:35151   */\n      0x40\n        /* \"#utility.yul\":35138:35152   */\n      dup3\n      add\n        /* \"#utility.yul\":35125:35153   */\n      calldataload\n        /* \"#utility.yul\":35179:35180   */\n      0x02\n        /* \"#utility.yul\":35169:35181   */\n      dup3\n      add\n        /* \"#utility.yul\":35162:35191   */\n      sstore\n        /* \"#utility.yul\":35228:35229   */\n      0x03\n        /* \"#utility.yul\":35218:35230   */\n      dup2\n      add\n        /* \"#utility.yul\":35273:35332   */\n      tag_718\n        /* \"#utility.yul\":35328:35330   */\n      0x60\n        /* \"#utility.yul\":35317:35331   */\n      dup5\n      add\n        /* \"#utility.yul\":35142:35147   */\n      dup5\n        /* \"#utility.yul\":35273:35332   */\n      tag_421\n      jump\t// in\n    tag_718:\n        /* \"#utility.yul\":35362:35380   */\n      0xffffffffffffffff\n        /* \"#utility.yul\":35347:35360   */\n      dup2\n        /* \"#utility.yul\":35344:35381   */\n      gt\n        /* \"#utility.yul\":35341:35404   */\n      iszero\n      tag_720\n      jumpi\n        /* \"#utility.yul\":35384:35402   */\n      tag_720\n      tag_422\n      jump\t// in\n    tag_720:\n        /* \"#utility.yul\":35413:35529   */\n      tag_721\n        /* \"#utility.yul\":35515:35528   */\n      dup2\n        /* \"#utility.yul\":35469:35513   */\n      tag_616\n        /* \"#utility.yul\":35501:35511   */\n      dup6\n        /* \"#utility.yul\":35495:35512   */\n      sload\n        /* \"#utility.yul\":35469:35513   */\n      tag_157\n      jump\t// in\n        /* \"#utility.yul\":35413:35529   */\n    tag_721:\n        /* \"#utility.yul\":35555:35556   */\n      0x00\n        /* \"#utility.yul\":35590:35592   */\n      0x1f\n        /* \"#utility.yul\":35575:35588   */\n      dup3\n        /* \"#utility.yul\":35572:35593   */\n      gt\n        /* \"#utility.yul\":35607:35608   */\n      0x01\n        /* \"#utility.yul\":35602:36274   */\n      dup2\n      eq\n      tag_724\n      jumpi\n        /* \"#utility.yul\":36320:36321   */\n      0x00\n        /* \"#utility.yul\":36337:36350   */\n      dup4\n        /* \"#utility.yul\":36334:36447   */\n      iszero\n      tag_725\n      jumpi\n      pop\n        /* \"#utility.yul\":36405:36432   */\n      dup4\n      dup3\n      add\n        /* \"#utility.yul\":36392:36433   */\n      calldataload\n        /* \"#utility.yul\":36334:36447   */\n    tag_725:\n        /* \"#utility.yul\":36479:36555   */\n      tag_726\n        /* \"#utility.yul\":36541:36554   */\n      dup5\n        /* \"#utility.yul\":36532:36539   */\n      dup3\n        /* \"#utility.yul\":36479:36555   */\n      tag_426\n      jump\t// in\n    tag_726:\n        /* \"#utility.yul\":36467:36477   */\n      dup7\n        /* \"#utility.yul\":36460:36556   */\n      sstore\n      pop\n        /* \"#utility.yul\":35565:36566   */\n      jump(tag_723)\n        /* \"#utility.yul\":35602:36274   */\n    tag_724:\n        /* \"#utility.yul\":16175:16176   */\n      0x00\n        /* \"#utility.yul\":16168:16182   */\n      dup6\n      dup2\n      mstore\n        /* \"#utility.yul\":16212:16216   */\n      0x20\n        /* \"#utility.yul\":16199:16217   */\n      dup2\n      keccak256\n      not(0x1f)\n        /* \"#utility.yul\":35638:35665   */\n      dup6\n      and\n      swap2\n        /* \"#utility.yul\":35769:36002   */\n    tag_728:\n        /* \"#utility.yul\":35783:35790   */\n      dup3\n        /* \"#utility.yul\":35780:35781   */\n      dup2\n        /* \"#utility.yul\":35777:35791   */\n      lt\n        /* \"#utility.yul\":35769:36002   */\n      iszero\n      tag_730\n      jumpi\n        /* \"#utility.yul\":35870:35897   */\n      dup7\n      dup6\n      add\n        /* \"#utility.yul\":35857:35898   */\n      calldataload\n        /* \"#utility.yul\":35842:35899   */\n      dup3\n      sstore\n        /* \"#utility.yul\":35985:35987   */\n      0x20\n        /* \"#utility.yul\":35970:35988   */\n      swap5\n      dup6\n      add\n      swap5\n        /* \"#utility.yul\":35938:35939   */\n      0x01\n        /* \"#utility.yul\":35926:35940   */\n      swap1\n      swap3\n      add\n      swap2\n        /* \"#utility.yul\":35799:35809   */\n      add\n        /* \"#utility.yul\":35769:36002   */\n      jump(tag_728)\n    tag_730:\n        /* \"#utility.yul\":35773:35776   */\n      pop\n        /* \"#utility.yul\":36030:36043   */\n      dup5\n        /* \"#utility.yul\":36021:36028   */\n      dup3\n        /* \"#utility.yul\":36018:36044   */\n      lt\n        /* \"#utility.yul\":36015:36202   */\n      iszero\n      tag_731\n      jumpi\n        /* \"#utility.yul\":36182:36183   */\n      0x00\n        /* \"#utility.yul\":36178:36184   */\n      not\n        /* \"#utility.yul\":36172:36175   */\n      0xf8\n        /* \"#utility.yul\":36156:36169   */\n      dup7\n        /* \"#utility.yul\":36153:36154   */\n      0x03\n        /* \"#utility.yul\":36149:36170   */\n      shl\n        /* \"#utility.yul\":36145:36176   */\n      and\n        /* \"#utility.yul\":36141:36185   */\n      shr\n        /* \"#utility.yul\":36137:36186   */\n      not\n        /* \"#utility.yul\":36124:36133   */\n      dup5\n        /* \"#utility.yul\":36111:36122   */\n      dup8\n        /* \"#utility.yul\":36107:36134   */\n      add\n        /* \"#utility.yul\":36094:36135   */\n      calldataload\n        /* \"#utility.yul\":36090:36187   */\n      and\n        /* \"#utility.yul\":36082:36088   */\n      dup2\n        /* \"#utility.yul\":36075:36188   */\n      sstore\n        /* \"#utility.yul\":36015:36202   */\n    tag_731:\n      pop\n      pop\n        /* \"#utility.yul\":36261:36262   */\n      0x01\n        /* \"#utility.yul\":36245:36258   */\n      dup4\n        /* \"#utility.yul\":36242:36243   */\n      0x01\n        /* \"#utility.yul\":36238:36259   */\n      shl\n        /* \"#utility.yul\":36234:36263   */\n      add\n        /* \"#utility.yul\":36222:36232   */\n      dup6\n        /* \"#utility.yul\":36215:36264   */\n      sstore\n        /* \"#utility.yul\":35565:36566   */\n    tag_723:\n      pop\n      pop\n      pop\n      pop\n      pop\n        /* \"#utility.yul\":36635:36638   */\n      0x80\n        /* \"#utility.yul\":36624:36639   */\n      dup3\n      add\n        /* \"#utility.yul\":36611:36640   */\n      calldataload\n        /* \"#utility.yul\":36666:36667   */\n      0x04\n        /* \"#utility.yul\":36656:36668   */\n      dup3\n      add\n        /* \"#utility.yul\":36649:36678   */\n      sstore\n        /* \"#utility.yul\":36747:36750   */\n      0xa0\n        /* \"#utility.yul\":36736:36751   */\n      dup3\n      add\n        /* \"#utility.yul\":36723:36752   */\n      calldataload\n        /* \"#utility.yul\":36778:36779   */\n      0x05\n        /* \"#utility.yul\":36768:36780   */\n      dup3\n      add\n        /* \"#utility.yul\":36761:36790   */\n      sstore\n        /* \"#utility.yul\":36799:36896   */\n      tag_396\n        /* \"#utility.yul\":36854:36895   */\n      tag_733\n        /* \"#utility.yul\":36890:36893   */\n      0xc0\n        /* \"#utility.yul\":36879:36894   */\n      dup5\n      add\n        /* \"#utility.yul\":36854:36895   */\n      tag_435\n      jump\t// in\n    tag_733:\n        /* \"#utility.yul\":36850:36851   */\n      0x06\n        /* \"#utility.yul\":36844:36848   */\n      dup4\n        /* \"#utility.yul\":36840:36852   */\n      add\n        /* \"#utility.yul\":27774:27777   */\n      0xff\n        /* \"#utility.yul\":27770:27778   */\n      not\n        /* \"#utility.yul\":27763:27767   */\n      dup2\n        /* \"#utility.yul\":27757:27768   */\n      sload\n        /* \"#utility.yul\":27753:27779   */\n      and\n        /* \"#utility.yul\":27840:27843   */\n      0xff\n        /* \"#utility.yul\":27831:27836   */\n      dup4\n        /* \"#utility.yul\":27824:27837   */\n      iszero\n        /* \"#utility.yul\":27817:27838   */\n      iszero\n        /* \"#utility.yul\":27813:27844   */\n      and\n        /* \"#utility.yul\":27804:27811   */\n      dup2\n        /* \"#utility.yul\":27801:27845   */\n      or\n        /* \"#utility.yul\":27795:27799   */\n      dup3\n        /* \"#utility.yul\":27788:27846   */\n      sstore\n      pop\n        /* \"#utility.yul\":27661:27852   */\n      pop\n      pop\n      jump\n        /* \"#utility.yul\":38200:39427   */\n    tag_355:\n        /* \"#utility.yul\":38366:38385   */\n      dup2\n      calldataload\n        /* \"#utility.yul\":38394:38415   */\n      dup2\n      sstore\n        /* \"#utility.yul\":38345:38346   */\n      0x00\n        /* \"#utility.yul\":38492:38494   */\n      0x20\n        /* \"#utility.yul\":38481:38495   */\n      dup4\n      add\n        /* \"#utility.yul\":38468:38496   */\n      calldataload\n        /* \"#utility.yul\":38505:38538   */\n      tag_739\n        /* \"#utility.yul\":38468:38496   */\n      dup2\n        /* \"#utility.yul\":38505:38538   */\n      tag_409\n      jump\t// in\n    tag_739:\n        /* \"#utility.yul\":38562:38569   */\n      dup1\n        /* \"#utility.yul\":38547:38569   */\n      swap2\n      pop\n        /* \"#utility.yul\":38578:38651   */\n      tag_740\n        /* \"#utility.yul\":38643:38650   */\n      dup2\n        /* \"#utility.yul\":38639:38640   */\n      0x01\n        /* \"#utility.yul\":38633:38637   */\n      dup6\n        /* \"#utility.yul\":38629:38641   */\n      add\n        /* \"#utility.yul\":38578:38651   */\n      tag_420\n      jump\t// in\n    tag_740:\n      pop\n      pop\n        /* \"#utility.yul\":38660:38769   */\n      tag_741\n        /* \"#utility.yul\":38725:38768   */\n      tag_742\n        /* \"#utility.yul\":38764:38766   */\n      0x40\n        /* \"#utility.yul\":38757:38762   */\n      dup5\n        /* \"#utility.yul\":38753:38767   */\n      add\n        /* \"#utility.yul\":38725:38768   */\n      tag_419\n      jump\t// in\n    tag_742:\n        /* \"#utility.yul\":38721:38722   */\n      0x02\n        /* \"#utility.yul\":38715:38719   */\n      dup4\n        /* \"#utility.yul\":38711:38723   */\n      add\n        /* \"#utility.yul\":38660:38769   */\n      tag_420\n      jump\t// in\n    tag_741:\n        /* \"#utility.yul\":38812:38871   */\n      tag_743\n        /* \"#utility.yul\":38867:38869   */\n      0x60\n        /* \"#utility.yul\":38860:38865   */\n      dup4\n        /* \"#utility.yul\":38856:38870   */\n      add\n        /* \"#utility.yul\":38849:38854   */\n      dup4\n        /* \"#utility.yul\":38812:38871   */\n      tag_421\n      jump\t// in\n    tag_743:\n        /* \"#utility.yul\":38880:38979   */\n      tag_744\n        /* \"#utility.yul\":38965:38978   */\n      dup2\n        /* \"#utility.yul\":38952:38963   */\n      dup4\n        /* \"#utility.yul\":38948:38949   */\n      0x03\n        /* \"#utility.yul\":38942:38946   */\n      dup7\n        /* \"#utility.yul\":38938:38950   */\n      add\n        /* \"#utility.yul\":38880:38979   */\n      tag_427\n      jump\t// in\n    tag_744:\n      pop\n      pop\n        /* \"#utility.yul\":39048:39051   */\n      0x80\n        /* \"#utility.yul\":39037:39052   */\n      dup3\n      add\n        /* \"#utility.yul\":39024:39053   */\n      calldataload\n        /* \"#utility.yul\":39079:39080   */\n      0x04\n        /* \"#utility.yul\":39069:39081   */\n      dup3\n      add\n        /* \"#utility.yul\":39062:39091   */\n      sstore\n        /* \"#utility.yul\":39160:39163   */\n      0xa0\n        /* \"#utility.yul\":39149:39164   */\n      dup3\n      add\n        /* \"#utility.yul\":39136:39165   */\n      calldataload\n        /* \"#utility.yul\":39191:39192   */\n      0x05\n        /* \"#utility.yul\":39181:39193   */\n      dup3\n      add\n        /* \"#utility.yul\":39174:39203   */\n      sstore\n        /* \"#utility.yul\":39212:39309   */\n      tag_745\n        /* \"#utility.yul\":39267:39308   */\n      tag_733\n        /* \"#utility.yul\":39303:39306   */\n      0xc0\n        /* \"#utility.yul\":39292:39307   */\n      dup5\n      add\n        /* \"#utility.yul\":39267:39308   */\n      tag_435\n      jump\t// in\n        /* \"#utility.yul\":39212:39309   */\n    tag_745:\n        /* \"#utility.yul\":39378:39381   */\n      0xe0\n        /* \"#utility.yul\":39367:39382   */\n      swap2\n      swap1\n      swap2\n      add\n        /* \"#utility.yul\":39354:39383   */\n      calldataload\n        /* \"#utility.yul\":39409:39410   */\n      0x07\n        /* \"#utility.yul\":39399:39411   */\n      swap1\n      swap2\n      add\n        /* \"#utility.yul\":39392:39421   */\n      sstore\n        /* \"#utility.yul\":38200:39427   */\n      jump\t// out\n        /* \"#utility.yul\":39432:39559   */\n    tag_375:\n        /* \"#utility.yul\":39493:39503   */\n      0x4e487b71\n        /* \"#utility.yul\":39488:39491   */\n      0xe0\n        /* \"#utility.yul\":39484:39504   */\n      shl\n        /* \"#utility.yul\":39481:39482   */\n      0x00\n        /* \"#utility.yul\":39474:39505   */\n      mstore\n        /* \"#utility.yul\":39524:39528   */\n      0x32\n        /* \"#utility.yul\":39521:39522   */\n      0x04\n        /* \"#utility.yul\":39514:39529   */\n      mstore\n        /* \"#utility.yul\":39548:39552   */\n      0x24\n        /* \"#utility.yul\":39545:39546   */\n      0x00\n        /* \"#utility.yul\":39538:39553   */\n      revert\n        /* \"#utility.yul\":39564:39692   */\n    tag_379:\n        /* \"#utility.yul\":39631:39640   */\n      dup2\n      dup2\n      sub\n        /* \"#utility.yul\":39652:39663   */\n      dup2\n      dup2\n      gt\n        /* \"#utility.yul\":39649:39686   */\n      iszero\n      tag_399\n      jumpi\n        /* \"#utility.yul\":39666:39684   */\n      tag_399\n      tag_418\n      jump\t// in\n        /* \"#utility.yul\":39697:39824   */\n    tag_388:\n        /* \"#utility.yul\":39758:39768   */\n      0x4e487b71\n        /* \"#utility.yul\":39753:39756   */\n      0xe0\n        /* \"#utility.yul\":39749:39769   */\n      shl\n        /* \"#utility.yul\":39746:39747   */\n      0x00\n        /* \"#utility.yul\":39739:39770   */\n      mstore\n        /* \"#utility.yul\":39789:39793   */\n      0x31\n        /* \"#utility.yul\":39786:39787   */\n      0x04\n        /* \"#utility.yul\":39779:39794   */\n      mstore\n        /* \"#utility.yul\":39813:39817   */\n      0x24\n        /* \"#utility.yul\":39810:39811   */\n      0x00\n        /* \"#utility.yul\":39803:39818   */\n      revert\n\n    auxdata: 0xa2646970667358221220e830d5dda2c688d2bdfc42c8b2ad7a43b77741faa5b015e8bc6fa93e63e0715a64736f6c634300081e0033\n}\n",
				"bytecode": {
					"linkReferences": {},
					"object": "6080604052600160025560016003556001600455348015601d575f5ffd5b503380604257604051631e4fbdf760e01b81525f600482015260240160405180910390fd5b604981604e565b50609d565b5f80546001600160a01b038381166001600160a01b0319831681178455604051919092169283917f8be0079c531659141344cd1fd0a4f28419497f9722a3daafe3b4186f6b6457e09190a35050565b612c89806100aa5f395ff3fe608060405234801561000f575f5ffd5b50600436106101bb575f3560e01c80638bfeffe5116100f3578063af947d0511610093578063f09790dd1161006e578063f09790dd14610440578063f2fde38b14610460578063f47be47714610473578063fbbca38014610486575f5ffd5b8063af947d05146103f8578063c0a477531461040b578063e0ecef921461042d575f5ffd5b8063a230c524116100ce578063a230c52414610391578063a599681f146103bc578063a6c6a8f3146103cf578063ae99004c146103ef575f5ffd5b80638bfeffe5146103275780638c2f59e4146103485780638da5cb5b1461036d575f5ffd5b80635939a84e1161015e578063845000011161013957806384500001146102bf57806384dc0806146102d257806384e49bce146102da578063872ea68a14610301575f5ffd5b80635939a84e146102735780636350eae8146102ae578063715018a6146102b7575f5ffd5b80631ed9772f116101995780631ed9772f14610207578063213b63601461022b5780633b9cccf014610240578063554ae56714610253575f5ffd5b806308ae4b0c146101bf5780630b98d45a146101e85780630fd19668146101fe575b5f5ffd5b6101d26101cd366004611b43565b6104a8565b6040516101df9190611b93565b60405180910390f35b6101f06105e3565b6040519081526020016101df565b6101f060045481565b61021a610215366004611b43565b610630565b6040516101df959493929190611c09565b61023e610239366004611c4b565b6106f3565b005b61023e61024e366004611b43565b6107f8565b610266610261366004611b43565b610878565b6040516101df9190611c95565b61029e610281366004611b43565b6001600160a01b03165f908152600a602052604090205460ff1690565b60405190151581526020016101df565b6101f060035481565b61023e6109f1565b61023e6102cd366004611d41565b610a04565b6101f0610b67565b6102ed6102e8366004611d78565b610ba2565b6040516101df989796959493929190611d8f565b61031461030f366004611b43565b610c7d565b6040516101df9796959493929190611de8565b61033a610335366004611b43565b610d50565b6040516101df929190611e75565b61035b610356366004611d78565b610e1a565b6040516101df96959493929190611ed6565b5f546001600160a01b03165b6040516001600160a01b0390911681526020016101df565b61029e61039f366004611b43565b6001600160a01b03165f9081526009602052604090205460ff1690565b61023e6103ca366004611f47565b610eeb565b6103e26103dd366004611d78565b610fd6565b6040516101df919061206c565b6101f060025481565b61023e61040636600461211c565b6113b5565b61029e610419366004611b43565b600a6020525f908152604090205460ff1681565b600154610379906001600160a01b031681565b61045361044e366004611d78565b61151b565b6040516101df9190612153565b61023e61046e366004611b43565b611680565b61023e610481366004611f47565b6116bd565b61029e610494366004611b43565b60096020525f908152604090205460ff1681565b6040805160e0810182525f808252602082018190529181018290526060808201526080810182905260a0810182905260c08101919091526001600160a01b038083165f90815260056020908152604091829020825160e081018452815485168152600182015490941691840191909152600281015491830191909152600381018054606084019190610539906121dd565b80601f0160208091040260200160405190810160405280929190818152602001828054610565906121dd565b80156105b05780601f10610587576101008083540402835291602001916105b0565b820191905f5260205f20905b81548152906001019060200180831161059357829003601f168201915b5050509183525050600482015460208201526005820154604082015260069091015460ff16151560609091015292915050565b6001545f906001600160a01b031633146106185760405162461bcd60e51b815260040161060f9061220f565b60405180910390fd5b60048054905f61062783612250565b91905055905090565b60066020525f9081526040902080546002820180546001600160a01b03909216929161065b906121dd565b80601f0160208091040260200160405190810160405280929190818152602001828054610687906121dd565b80156106d25780601f106106a9576101008083540402835291602001916106d2565b820191905f5260205f20905b8154815290600101906020018083116106b557829003601f168201915b50505050600383015460048401546005909401549293909290915060ff1685565b6001546001600160a01b0316331461071d5760405162461bcd60e51b815260040161060f9061220f565b5f828152600860205260408120805490910361077b5760405162461bcd60e51b815260206004820152601760248201527f496e636964656e7420646f6573206e6f74206578697374000000000000000000604482015260640161060f565b6005810180546001810182555f91825260209091208391600402016107a0828261261f565b506107b090506020830183611b43565b6001600160a01b0316837f37b3e104208f85d1df430bbefbe3fee48f2b666f587576036f4d60ef673af50c426040516107eb91815260200190565b60405180910390a3505050565b61080061189e565b6001600160a01b0381166108565760405162461bcd60e51b815260206004820152601860248201527f496e76616c69642070726f746f636f6c20616464726573730000000000000000604482015260640161060f565b600180546001600160a01b0319166001600160a01b0392909216919091179055565b6108b86040518060c001604052805f6001600160a01b0316815260200160608152602001606081526020015f81526020015f81526020015f151581525090565b6001600160a01b038083165f90815260066020908152604091829020825160c0810184528154909416845260018101805484518185028101850190955280855291938584019390929083018282801561092e57602002820191905f5260205f20905b81548152602001906001019080831161091a575b50505050508152602001600282018054610947906121dd565b80601f0160208091040260200160405190810160405280929190818152602001828054610973906121dd565b80156109be5780601f10610995576101008083540402835291602001916109be565b820191905f5260205f20905b8154815290600101906020018083116109a157829003601f168201915b5050509183525050600382015460208201526004820154604082015260059091015460ff16151560609091015292915050565b6109f961189e565b610a025f6118ca565b565b6001546001600160a01b03163314610a2e5760405162461bcd60e51b815260040161060f9061220f565b5f610a3c6020830183611b43565b6001600160a01b031603610a8b5760405162461bcd60e51b8152602060048201526016602482015275496e76616c6964206c6177796572206164647265737360501b604482015260640161060f565b8060065f610a9c6020840184611b43565b6001600160a01b0316815260208101919091526040015f20610abe8282612738565b50610ad1905060c0820160a08301612833565b600a5f610ae16020850185611b43565b6001600160a01b031681526020808201929092526040015f20805460ff191692151592909217909155610b1690820182611b43565b6001600160a01b03167f59f9be63244670bcbd7b4ada776836c9e0dc14f711cae29fa2e2f527d4f7e3b1610b5060c0840160a08501612833565b60405190151581526020015b60405180910390a250565b6001545f906001600160a01b03163314610b935760405162461bcd60e51b815260040161060f9061220f565b60038054905f61062783612250565b60076020525f9081526040902080546001820154600283015460038401805493946001600160a01b03938416949390921692610bdd906121dd565b80601f0160208091040260200160405190810160405280929190818152602001828054610c09906121dd565b8015610c545780601f10610c2b57610100808354040283529160200191610c54565b820191905f5260205f20905b815481529060010190602001808311610c3757829003601f168201915b5050506004840154600585015460068601546007909601549495919490935060ff909116915088565b60056020525f908152604090208054600182015460028301546003840180546001600160a01b039485169594909316939192610cb8906121dd565b80601f0160208091040260200160405190810160405280929190818152602001828054610ce4906121dd565b8015610d2f5780601f10610d0657610100808354040283529160200191610d2f565b820191905f5260205f20905b815481529060010190602001808311610d1257829003601f168201915b50505050600483015460058401546006909401549293909290915060ff1687565b6001600160a01b0381165f908152600b60209081526040808320600c835292819020835482518185028101850190935280835260609485949093918491830182828015610dba57602002820191905f5260205f20905b815481526020019060010190808311610da6575b5050505050915080805480602002602001604051908101604052809291908181526020018280548015610e0a57602002820191905f5260205f20905b815481526020019060010190808311610df6575b5050505050905091509150915091565b60086020525f908152604090208054600182015460028301805492936001600160a01b0390921692610e4b906121dd565b80601f0160208091040260200160405190810160405280929190818152602001828054610e77906121dd565b8015610ec25780601f10610e9957610100808354040283529160200191610ec2565b820191905f5260205f20905b815481529060010190602001808311610ea557829003601f168201915b50505050600383015460049093015491929160ff8116915061010090046001600160a01b031686565b6001546001600160a01b03163314610f155760405162461bcd60e51b815260040161060f9061220f565b80355f03610f5b5760405162461bcd60e51b8152602060048201526013602482015272125b9d985b1a59081a5b98da59195b9d081a59606a1b604482015260640161060f565b80355f9081526008602052604090208190610f768282612976565b50610f8990506040820160208301611b43565b6001600160a01b0316815f01357f159eae2587974b857c8b28d8d49d8cca50cc87fc9b0bd9bd76467f77aaf5c8b68360600135604051610fcb91815260200190565b60405180910390a350565b610fde611ad7565b5f828152600860209081526040918290208251610100810184528154815260018201546001600160a01b0316928101929092526002810180549293919291840191611028906121dd565b80601f0160208091040260200160405190810160405280929190818152602001828054611054906121dd565b801561109f5780601f106110765761010080835404028352916020019161109f565b820191905f5260205f20905b81548152906001019060200180831161108257829003601f168201915b505050918352505060038201546020820152600482015460409091019060ff1660028111156110d0576110d0611ea2565b60028111156110e1576110e1611ea2565b8152600482015461010090046001600160a01b031660208083019190915260058301805460408051828502810185018252828152940193925f9084015b828210156112d3575f848152602090819020604080516080810182526004860290920180546001600160a01b0316835260018101549383019390935260028301805492939291840191611170906121dd565b80601f016020809104026020016040519081016040528092919081815260200182805461119c906121dd565b80156111e75780601f106111be576101008083540402835291602001916111e7565b820191905f5260205f20905b8154815290600101906020018083116111ca57829003601f168201915b5050505050815260200160038201805480602002602001604051908101604052809291908181526020015f905b828210156112bc578382905f5260205f20018054611231906121dd565b80601f016020809104026020016040519081016040528092919081815260200182805461125d906121dd565b80156112a85780601f1061127f576101008083540402835291602001916112a8565b820191905f5260205f20905b81548152906001019060200180831161128b57829003601f168201915b505050505081526020019060010190611214565b50505050815250508152602001906001019061111e565b50505050815260200160068201805480602002602001604051908101604052809291908181526020015f905b828210156113a7578382905f5260205f2001805461131c906121dd565b80601f0160208091040260200160405190810160405280929190818152602001828054611348906121dd565b80156113935780601f1061136a57610100808354040283529160200191611393565b820191905f5260205f20905b81548152906001019060200180831161137657829003601f168201915b5050505050815260200190600101906112ff565b505050915250909392505050565b6001546001600160a01b031633146113df5760405162461bcd60e51b815260040161060f9061220f565b5f6113ed6020830183611b43565b6001600160a01b03160361143c5760405162461bcd60e51b8152602060048201526016602482015275496e76616c6964206d656d626572206164647265737360501b604482015260640161060f565b8060055f61144d6020840184611b43565b6001600160a01b0316815260208101919091526040015f2061146f8282612a55565b50611482905060e0820160c08301612833565b60095f6114926020850185611b43565b6001600160a01b031681526020808201929092526040015f20805460ff1916921515929092179091556114c790820182611b43565b6001600160a01b03167fd923ad306578f213c8e617f9102c59f7dc3f7a3c22f77ee29ac695de0ede78f6604083013561150660e0850160c08601612833565b60408051928352901515602083015201610b5c565b6115706040518061010001604052805f81526020015f6001600160a01b031681526020015f6001600160a01b03168152602001606081526020015f81526020015f81526020015f151581526020015f81525090565b5f828152600760209081526040918290208251610100810184528154815260018201546001600160a01b03908116938201939093526002820154909216928201929092526003820180549192916060840191906115cc906121dd565b80601f01602080910402602001604051908101604052809291908181526020018280546115f8906121dd565b80156116435780601f1061161a57610100808354040283529160200191611643565b820191905f5260205f20905b81548152906001019060200180831161162657829003601f168201915b50505091835250506004820154602082015260058201546040820152600682015460ff161515606082015260079091015460809091015292915050565b61168861189e565b6001600160a01b0381166116b157604051631e4fbdf760e01b81525f600482015260240161060f565b6116ba816118ca565b50565b6001546001600160a01b031633146116e75760405162461bcd60e51b815260040161060f9061220f565b80355f036117295760405162461bcd60e51b815260206004820152600f60248201526e125b9d985b1a590818d85cd9481251608a1b604482015260640161060f565b5f61173a6040830160208401611b43565b6001600160a01b0316036117815760405162461bcd60e51b815260206004820152600e60248201526d24b73b30b634b21036b2b6b132b960911b604482015260640161060f565b5f6117926060830160408401611b43565b6001600160a01b0316036117d95760405162461bcd60e51b815260206004820152600e60248201526d24b73b30b634b2103630bbbcb2b960911b604482015260640161060f565b6117e960e0820160c08301612833565b156117fc576117f781611919565b611805565b61180581611a36565b80355f90815260076020526040902081906118208282612b8c565b5061183390506060820160408301611b43565b6001600160a01b031661184c6040830160208401611b43565b6001600160a01b031682357f3087c877b53a5024e8f601ea7f932c61bd51c5b78d732358bdab9821c26e67f561188860e0860160c08701612833565b604051901515815260200160405180910390a450565b5f546001600160a01b03163314610a025760405163118cdaa760e01b815233600482015260240161060f565b5f80546001600160a01b038381166001600160a01b0319831681178455604051919092169283917f8be0079c531659141344cd1fd0a4f28419497f9722a3daafe3b4186f6b6457e09190a35050565b5f600b8161192d6060850160408601611b43565b6001600160a01b0316815260208101919091526040015f90812091505b81548110156119ee57825f013582828154811061196957611969612c18565b905f5260205f200154036119e6578154829061198790600190612c2c565b8154811061199757611997612c18565b905f5260205f2001548282815481106119b2576119b2612c18565b905f5260205f200181905550818054806119ce576119ce612c3f565b600190038181905f5260205f20015f905590556119ee565b60010161194a565b50600c5f611a026060850160408601611b43565b6001600160a01b031681526020808201929092526040015f9081208054600181018255908252919020923592019190915550565b5f600b81611a4a6060850160408601611b43565b6001600160a01b0316815260208101919091526040015f209050611a6f818335611a8d565b611a895780546001810182555f8281526020902083359101555b5050565b5f805b8354811015611acc5782848281548110611aac57611aac612c18565b905f5260205f20015403611ac4576001915050611ad1565b600101611a90565b505f90505b92915050565b6040518061010001604052805f81526020015f6001600160a01b03168152602001606081526020015f81526020015f6002811115611b1757611b17611ea2565b81525f60208201526060604082018190529081015290565b6001600160a01b03811681146116ba575f5ffd5b5f60208284031215611b53575f5ffd5b8135611b5e81611b2f565b9392505050565b5f81518084528060208401602086015e5f602082860101526020601f19601f83011685010191505092915050565b6020815260018060a01b03825116602082015260018060a01b036020830151166040820152604082015160608201525f606083015160e06080840152611bdd610100840182611b65565b9050608084015160a084015260a084015160c084015260c0840151151560e08401528091505092915050565b6001600160a01b038616815260a0602082018190525f90611c2c90830187611b65565b6040830195909552506060810192909252151560809091015292915050565b5f5f60408385031215611c5c575f5ffd5b82359150602083013567ffffffffffffffff811115611c79575f5ffd5b830160808186031215611c8a575f5ffd5b809150509250929050565b602080825282516001600160a01b0316828201528281015160c06040840152805160e084018190525f92919091019082906101008501905b80831015611cf05783518252602082019150602084019350600183019250611ccd565b506040860151858203601f190160608701529250611d0e8184611b65565b9250505060608401516080840152608084015160a084015260a0840151611d3960c085018215159052565b509392505050565b5f60208284031215611d51575f5ffd5b813567ffffffffffffffff811115611d67575f5ffd5b820160c08185031215611b5e575f5ffd5b5f60208284031215611d88575f5ffd5b5035919050565b8881526001600160a01b03888116602083015287166040820152610100606082018190525f90611dc190830188611b65565b60808301969096525060a081019390935290151560c083015260e090910152949350505050565b6001600160a01b038881168252871660208201526040810186905260e0606082018190525f90611e1a90830187611b65565b60808301959095525060a0810192909252151560c090910152949350505050565b5f8151808452602084019350602083015f5b82811015611e6b578151865260209586019590910190600101611e4d565b5093949350505050565b604081525f611e876040830185611e3b565b8281036020840152611e998185611e3b565b95945050505050565b634e487b7160e01b5f52602160045260245ffd5b60038110611ed257634e487b7160e01b5f52602160045260245ffd5b9052565b8681526001600160a01b038616602082015260c0604082018190525f90611eff90830187611b65565b9050846060830152611f146080830185611eb6565b6001600160a01b039290921660a0919091015295945050505050565b5f6101008284031215611f41575f5ffd5b50919050565b5f60208284031215611f57575f5ffd5b813567ffffffffffffffff811115611f6d575f5ffd5b611f7984828501611f30565b949350505050565b5f82825180855260208501945060208160051b830101602085015f5b83811015611fcf57601f19858403018852611fb9838351611b65565b6020988901989093509190910190600101611f9d565b50909695505050505050565b5f82825180855260208501945060208160051b830101602085015f5b83811015611fcf57601f19858403018852815160018060a01b038151168452602081015160208501526040810151608060408601526120396080860182611b65565b90506060820151915084810360608601526120548183611f81565b60209a8b019a90955093909301925050600101611ff7565b60208152815160208201525f602083015161209260408401826001600160a01b03169052565b50604083015161010060608401526120ae610120840182611b65565b90506060840151608084015260808401516120cc60a0850182611eb6565b5060a08401516001600160a01b03811660c08501525060c0840151838203601f190160e08501526120fd8282611fdb565b91505060e0840151601f1984830301610100850152611e998282611f81565b5f6020828403121561212c575f5ffd5b813567ffffffffffffffff811115612142575f5ffd5b820160e08185031215611b5e575f5ffd5b602081528151602082015260018060a01b03602083015116604082015260018060a01b0360408301511660608201525f6060830151610100608084015261219e610120840182611b65565b9050608084015160a084015260a084015160c084015260c08401516121c760e085018215159052565b5060e08401516101008401528091505092915050565b600181811c908216806121f157607f821691505b602082108103611f4157634e487b7160e01b5f52602260045260245ffd5b602080825260139082015272556e617574686f72697a65642061636365737360681b604082015260600190565b634e487b7160e01b5f52601160045260245ffd5b5f600182016122615761226161223c565b5060010190565b5f8135611ad181611b2f565b80546001600160a01b0319166001600160a01b0392909216919091179055565b5f5f8335601e198436030181126122a9575f5ffd5b83018035915067ffffffffffffffff8211156122c3575f5ffd5b6020019150368190038213156122d7575f5ffd5b9250929050565b634e487b7160e01b5f52604160045260245ffd5b5b81811015611a89575f81556001016122f3565b601f82111561234057805f5260205f20601f840160051c8101602085101561232b5750805b61233d601f850160051c8301826122f2565b50505b505050565b5f19600383901b1c191660019190911b1790565b67ffffffffffffffff831115612371576123716122de565b6123858361237f83546121dd565b83612306565b5f601f8411600181146123b1575f851561239f5750838201355b6123a98682612345565b84555061233d565b5f83815260208120601f198716915b828110156123e057868501358255602094850194600190920191016123c0565b50868210156123fc575f1960f88860031b161c19848701351681555b505060018560011b0183555050505050565b5f5f8335601e19843603018112612423575f5ffd5b83018035915067ffffffffffffffff82111561243d575f5ffd5b6020019150600581901b36038213156122d7575f5ffd5b805461245f906121dd565b8015611a8957601f8111600181146124785750505f9055565b5f83815260209020612495601f840160051c8201600183016122f2565b505f8381526020812081855555505050565b80545f82558015611a8957815f5260205f208181015b808210156124d9576124ce82612454565b6001820191506124bd565b50505050565b600160401b8211156124f3576124f36122de565b805482825580831015612340575f828152602090208381019082015b8082101561233d5761252082612454565b60018201915061250f565b61253583826124df565b81815f5260205f205f5b85811015612617576125518386612294565b67ffffffffffffffff811115612569576125696122de565b61257d8161257786546121dd565b86612306565b5f601f8211600181146125a9575f83156125975750838201355b6125a18482612345565b875550612600565b5f86815260208120601f198516915b828110156125d857868501358255602094850194600190920191016125b8565b50848210156125f4575f1960f88660031b161c19848701351681555b505060018360011b0186555b50505060209390930192506001918201910161253f565b505050505050565b813561262a81611b2f565b6126348183612274565b5060208201356001820155600281016126506040840184612294565b67ffffffffffffffff811115612668576126686122de565b61267c8161267685546121dd565b85612306565b5f601f8211600181146126a8575f83156126965750838201355b6126a08482612345565b8655506126ff565b5f85815260208120601f198516915b828110156126d757868501358255602094850194600190920191016126b7565b50848210156126f3575f1960f88660031b161c19848701351681555b505060018360011b0185555b5050505050612711606083018361240e565b6124d981836003860161252b565b80151581146116ba575f5ffd5b5f8135611ad18161271f565b813561274381611b2f565b61274d8183612274565b506001810161275f602084018461240e565b67ffffffffffffffff811115612777576127776122de565b600160401b81111561278b5761278b6122de565b8254818455808210156127af57835f5260205f206127ad8282018483016122f2565b505b505f92835260208320925b818110156127d6578235848201556020909201916001016127ba565b505050506127e76040830183612294565b6127f5818360028601612359565b50506060820135600382015560808201356004820155611a8961281a60a0840161272c565b6005830160ff1981541660ff8315151681178255505050565b5f60208284031215612843575f5ffd5b8135611b5e8161271f565b6003821061286a57634e487b7160e01b5f52602160045260245ffd5b60ff1981541660ff831681178255505050565b5f8235607e19833603018112612891575f5ffd5b9190910192915050565b600160401b8311156128af576128af6122de565b805483825580841015612939576001600160fe1b03811681146128d4576128d461223c565b6001600160fe1b03841684146128ec576128ec61223c565b815f5260205f208160021b81018560021b820191505b80821015612936575f82555f600183015561291f60028301612454565b61292b600383016124a7565b600482019150612902565b50505b505f8181526020812083915b858110156126175761296061295a848761287d565b8361261f565b6020929092019160049190910190600101612945565b81358155602082013561298881611b2f565b6129958160018401612274565b506129a36040830183612294565b6129b1818360028601612359565b50505f6060830135905080600383015550600481015f6080840135600381106129d8575f5ffd5b8091506129e5818461284e565b5050612a1c6129f660a08501612268565b828054610100600160a81b03191660089290921b610100600160a81b0316919091179055565b50612a2a60c083018361240e565b612a3881836005860161289b565b5050612a4760e083018361240e565b6124d981836006860161252b565b8135612a6081611b2f565b612a6a8183612274565b506020820135612a7981611b2f565b612a868160018401612274565b506040820135600282015560038101612aa26060840184612294565b67ffffffffffffffff811115612aba57612aba6122de565b612ac88161267685546121dd565b5f601f821160018114612af4575f8315612ae25750838201355b612aec8482612345565b865550612b4b565b5f85815260208120601f198516915b82811015612b235786850135825560209485019460019092019101612b03565b5084821015612b3f575f1960f88660031b161c19848701351681555b505060018360011b0185555b50505050506080820135600482015560a08201356005820155611a89612b7360c0840161272c565b6006830160ff1981541660ff8315151681178255505050565b813581555f6020830135612b9f81611b2f565b809150612baf8160018501612274565b5050612bc9612bc060408401612268565b60028301612274565b612bd66060830183612294565b612be4818360038601612359565b50506080820135600482015560a08201356005820155612c09612b7360c0840161272c565b60e09190910135600790910155565b634e487b7160e01b5f52603260045260245ffd5b81810381811115611ad157611ad161223c565b634e487b7160e01b5f52603160045260245ffdfea2646970667358221220e830d5dda2c688d2bdfc42c8b2ad7a43b77741faa5b015e8bc6fa93e63e0715a64736f6c634300081e0033",
					"opcodes": "PUSH1 0x80 PUSH1 0x40 MSTORE PUSH1 0x1 PUSH1 0x2 SSTORE PUSH1 0x1 PUSH1 0x3 SSTORE PUSH1 0x1 PUSH1 0x4 SSTORE CALLVALUE DUP1 ISZERO PUSH1 0x1D JUMPI PUSH0 PUSH0 REVERT JUMPDEST POP CALLER DUP1 PUSH1 0x42 JUMPI PUSH1 0x40 MLOAD PUSH4 0x1E4FBDF7 PUSH1 0xE0 SHL DUP2 MSTORE PUSH0 PUSH1 0x4 DUP3 ADD MSTORE PUSH1 0x24 ADD PUSH1 0x40 MLOAD DUP1 SWAP2 SUB SWAP1 REVERT JUMPDEST PUSH1 0x49 DUP2 PUSH1 0x4E JUMP JUMPDEST POP PUSH1 0x9D JUMP JUMPDEST PUSH0 DUP1 SLOAD PUSH1 0x1 PUSH1 0x1 PUSH1 0xA0 SHL SUB DUP4 DUP2 AND PUSH1 0x1 PUSH1 0x1 PUSH1 0xA0 SHL SUB NOT DUP4 AND DUP2 OR DUP5 SSTORE PUSH1 0x40 MLOAD SWAP2 SWAP1 SWAP3 AND SWAP3 DUP4 SWAP2 PUSH32 0x8BE0079C531659141344CD1FD0A4F28419497F9722A3DAAFE3B4186F6B6457E0 SWAP2 SWAP1 LOG3 POP POP JUMP JUMPDEST PUSH2 0x2C89 DUP1 PUSH2 0xAA PUSH0 CODECOPY PUSH0 RETURN INVALID PUSH1 0x80 PUSH1 0x40 MSTORE CALLVALUE DUP1 ISZERO PUSH2 0xF JUMPI PUSH0 PUSH0 REVERT JUMPDEST POP PUSH1 0x4 CALLDATASIZE LT PUSH2 0x1BB JUMPI PUSH0 CALLDATALOAD PUSH1 0xE0 SHR DUP1 PUSH4 0x8BFEFFE5 GT PUSH2 0xF3 JUMPI DUP1 PUSH4 0xAF947D05 GT PUSH2 0x93 JUMPI DUP1 PUSH4 0xF09790DD GT PUSH2 0x6E JUMPI DUP1 PUSH4 0xF09790DD EQ PUSH2 0x440 JUMPI DUP1 PUSH4 0xF2FDE38B EQ PUSH2 0x460 JUMPI DUP1 PUSH4 0xF47BE477 EQ PUSH2 0x473 JUMPI DUP1 PUSH4 0xFBBCA380 EQ PUSH2 0x486 JUMPI PUSH0 PUSH0 REVERT JUMPDEST DUP1 PUSH4 0xAF947D05 EQ PUSH2 0x3F8 JUMPI DUP1 PUSH4 0xC0A47753 EQ PUSH2 0x40B JUMPI DUP1 PUSH4 0xE0ECEF92 EQ PUSH2 0x42D JUMPI PUSH0 PUSH0 REVERT JUMPDEST DUP1 PUSH4 0xA230C524 GT PUSH2 0xCE JUMPI DUP1 PUSH4 0xA230C524 EQ PUSH2 0x391 JUMPI DUP1 PUSH4 0xA599681F EQ PUSH2 0x3BC JUMPI DUP1 PUSH4 0xA6C6A8F3 EQ PUSH2 0x3CF JUMPI DUP1 PUSH4 0xAE99004C EQ PUSH2 0x3EF JUMPI PUSH0 PUSH0 REVERT JUMPDEST DUP1 PUSH4 0x8BFEFFE5 EQ PUSH2 0x327 JUMPI DUP1 PUSH4 0x8C2F59E4 EQ PUSH2 0x348 JUMPI DUP1 PUSH4 0x8DA5CB5B EQ PUSH2 0x36D JUMPI PUSH0 PUSH0 REVERT JUMPDEST DUP1 PUSH4 0x5939A84E GT PUSH2 0x15E JUMPI DUP1 PUSH4 0x84500001 GT PUSH2 0x139 JUMPI DUP1 PUSH4 0x84500001 EQ PUSH2 0x2BF JUMPI DUP1 PUSH4 0x84DC0806 EQ PUSH2 0x2D2 JUMPI DUP1 PUSH4 0x84E49BCE EQ PUSH2 0x2DA JUMPI DUP1 PUSH4 0x872EA68A EQ PUSH2 0x301 JUMPI PUSH0 PUSH0 REVERT JUMPDEST DUP1 PUSH4 0x5939A84E EQ PUSH2 0x273 JUMPI DUP1 PUSH4 0x6350EAE8 EQ PUSH2 0x2AE JUMPI DUP1 PUSH4 0x715018A6 EQ PUSH2 0x2B7 JUMPI PUSH0 PUSH0 REVERT JUMPDEST DUP1 PUSH4 0x1ED9772F GT PUSH2 0x199 JUMPI DUP1 PUSH4 0x1ED9772F EQ PUSH2 0x207 JUMPI DUP1 PUSH4 0x213B6360 EQ PUSH2 0x22B JUMPI DUP1 PUSH4 0x3B9CCCF0 EQ PUSH2 0x240 JUMPI DUP1 PUSH4 0x554AE567 EQ PUSH2 0x253 JUMPI PUSH0 PUSH0 REVERT JUMPDEST DUP1 PUSH4 0x8AE4B0C EQ PUSH2 0x1BF JUMPI DUP1 PUSH4 0xB98D45A EQ PUSH2 0x1E8 JUMPI DUP1 PUSH4 0xFD19668 EQ PUSH2 0x1FE JUMPI JUMPDEST PUSH0 PUSH0 REVERT JUMPDEST PUSH2 0x1D2 PUSH2 0x1CD CALLDATASIZE PUSH1 0x4 PUSH2 0x1B43 JUMP JUMPDEST PUSH2 0x4A8 JUMP JUMPDEST PUSH1 0x40 MLOAD PUSH2 0x1DF SWAP2 SWAP1 PUSH2 0x1B93 JUMP JUMPDEST PUSH1 0x40 MLOAD DUP1 SWAP2 SUB SWAP1 RETURN JUMPDEST PUSH2 0x1F0 PUSH2 0x5E3 JUMP JUMPDEST PUSH1 0x40 MLOAD SWAP1 DUP2 MSTORE PUSH1 0x20 ADD PUSH2 0x1DF JUMP JUMPDEST PUSH2 0x1F0 PUSH1 0x4 SLOAD DUP2 JUMP JUMPDEST PUSH2 0x21A PUSH2 0x215 CALLDATASIZE PUSH1 0x4 PUSH2 0x1B43 JUMP JUMPDEST PUSH2 0x630 JUMP JUMPDEST PUSH1 0x40 MLOAD PUSH2 0x1DF SWAP6 SWAP5 SWAP4 SWAP3 SWAP2 SWAP1 PUSH2 0x1C09 JUMP JUMPDEST PUSH2 0x23E PUSH2 0x239 CALLDATASIZE PUSH1 0x4 PUSH2 0x1C4B JUMP JUMPDEST PUSH2 0x6F3 JUMP JUMPDEST STOP JUMPDEST PUSH2 0x23E PUSH2 0x24E CALLDATASIZE PUSH1 0x4 PUSH2 0x1B43 JUMP JUMPDEST PUSH2 0x7F8 JUMP JUMPDEST PUSH2 0x266 PUSH2 0x261 CALLDATASIZE PUSH1 0x4 PUSH2 0x1B43 JUMP JUMPDEST PUSH2 0x878 JUMP JUMPDEST PUSH1 0x40 MLOAD PUSH2 0x1DF SWAP2 SWAP1 PUSH2 0x1C95 JUMP JUMPDEST PUSH2 0x29E PUSH2 0x281 CALLDATASIZE PUSH1 0x4 PUSH2 0x1B43 JUMP JUMPDEST PUSH1 0x1 PUSH1 0x1 PUSH1 0xA0 SHL SUB AND PUSH0 SWAP1 DUP2 MSTORE PUSH1 0xA PUSH1 0x20 MSTORE PUSH1 0x40 SWAP1 KECCAK256 SLOAD PUSH1 0xFF AND SWAP1 JUMP JUMPDEST PUSH1 0x40 MLOAD SWAP1 ISZERO ISZERO DUP2 MSTORE PUSH1 0x20 ADD PUSH2 0x1DF JUMP JUMPDEST PUSH2 0x1F0 PUSH1 0x3 SLOAD DUP2 JUMP JUMPDEST PUSH2 0x23E PUSH2 0x9F1 JUMP JUMPDEST PUSH2 0x23E PUSH2 0x2CD CALLDATASIZE PUSH1 0x4 PUSH2 0x1D41 JUMP JUMPDEST PUSH2 0xA04 JUMP JUMPDEST PUSH2 0x1F0 PUSH2 0xB67 JUMP JUMPDEST PUSH2 0x2ED PUSH2 0x2E8 CALLDATASIZE PUSH1 0x4 PUSH2 0x1D78 JUMP JUMPDEST PUSH2 0xBA2 JUMP JUMPDEST PUSH1 0x40 MLOAD PUSH2 0x1DF SWAP9 SWAP8 SWAP7 SWAP6 SWAP5 SWAP4 SWAP3 SWAP2 SWAP1 PUSH2 0x1D8F JUMP JUMPDEST PUSH2 0x314 PUSH2 0x30F CALLDATASIZE PUSH1 0x4 PUSH2 0x1B43 JUMP JUMPDEST PUSH2 0xC7D JUMP JUMPDEST PUSH1 0x40 MLOAD PUSH2 0x1DF SWAP8 SWAP7 SWAP6 SWAP5 SWAP4 SWAP3 SWAP2 SWAP1 PUSH2 0x1DE8 JUMP JUMPDEST PUSH2 0x33A PUSH2 0x335 CALLDATASIZE PUSH1 0x4 PUSH2 0x1B43 JUMP JUMPDEST PUSH2 0xD50 JUMP JUMPDEST PUSH1 0x40 MLOAD PUSH2 0x1DF SWAP3 SWAP2 SWAP1 PUSH2 0x1E75 JUMP JUMPDEST PUSH2 0x35B PUSH2 0x356 CALLDATASIZE PUSH1 0x4 PUSH2 0x1D78 JUMP JUMPDEST PUSH2 0xE1A JUMP JUMPDEST PUSH1 0x40 MLOAD PUSH2 0x1DF SWAP7 SWAP6 SWAP5 SWAP4 SWAP3 SWAP2 SWAP1 PUSH2 0x1ED6 JUMP JUMPDEST PUSH0 SLOAD PUSH1 0x1 PUSH1 0x1 PUSH1 0xA0 SHL SUB AND JUMPDEST PUSH1 0x40 MLOAD PUSH1 0x1 PUSH1 0x1 PUSH1 0xA0 SHL SUB SWAP1 SWAP2 AND DUP2 MSTORE PUSH1 0x20 ADD PUSH2 0x1DF JUMP JUMPDEST PUSH2 0x29E PUSH2 0x39F CALLDATASIZE PUSH1 0x4 PUSH2 0x1B43 JUMP JUMPDEST PUSH1 0x1 PUSH1 0x1 PUSH1 0xA0 SHL SUB AND PUSH0 SWAP1 DUP2 MSTORE PUSH1 0x9 PUSH1 0x20 MSTORE PUSH1 0x40 SWAP1 KECCAK256 SLOAD PUSH1 0xFF AND SWAP1 JUMP JUMPDEST PUSH2 0x23E PUSH2 0x3CA CALLDATASIZE PUSH1 0x4 PUSH2 0x1F47 JUMP JUMPDEST PUSH2 0xEEB JUMP JUMPDEST PUSH2 0x3E2 PUSH2 0x3DD CALLDATASIZE PUSH1 0x4 PUSH2 0x1D78 JUMP JUMPDEST PUSH2 0xFD6 JUMP JUMPDEST PUSH1 0x40 MLOAD PUSH2 0x1DF SWAP2 SWAP1 PUSH2 0x206C JUMP JUMPDEST PUSH2 0x1F0 PUSH1 0x2 SLOAD DUP2 JUMP JUMPDEST PUSH2 0x23E PUSH2 0x406 CALLDATASIZE PUSH1 0x4 PUSH2 0x211C JUMP JUMPDEST PUSH2 0x13B5 JUMP JUMPDEST PUSH2 0x29E PUSH2 0x419 CALLDATASIZE PUSH1 0x4 PUSH2 0x1B43 JUMP JUMPDEST PUSH1 0xA PUSH1 0x20 MSTORE PUSH0 SWAP1 DUP2 MSTORE PUSH1 0x40 SWAP1 KECCAK256 SLOAD PUSH1 0xFF AND DUP2 JUMP JUMPDEST PUSH1 0x1 SLOAD PUSH2 0x379 SWAP1 PUSH1 0x1 PUSH1 0x1 PUSH1 0xA0 SHL SUB AND DUP2 JUMP JUMPDEST PUSH2 0x453 PUSH2 0x44E CALLDATASIZE PUSH1 0x4 PUSH2 0x1D78 JUMP JUMPDEST PUSH2 0x151B JUMP JUMPDEST PUSH1 0x40 MLOAD PUSH2 0x1DF SWAP2 SWAP1 PUSH2 0x2153 JUMP JUMPDEST PUSH2 0x23E PUSH2 0x46E CALLDATASIZE PUSH1 0x4 PUSH2 0x1B43 JUMP JUMPDEST PUSH2 0x1680 JUMP JUMPDEST PUSH2 0x23E PUSH2 0x481 CALLDATASIZE PUSH1 0x4 PUSH2 0x1F47 JUMP JUMPDEST PUSH2 0x16BD JUMP JUMPDEST PUSH2 0x29E PUSH2 0x494 CALLDATASIZE PUSH1 0x4 PUSH2 0x1B43 JUMP JUMPDEST PUSH1 0x9 PUSH1 0x20 MSTORE PUSH0 SWAP1 DUP2 MSTORE PUSH1 0x40 SWAP1 KECCAK256 SLOAD PUSH1 0xFF AND DUP2 JUMP JUMPDEST PUSH1 0x40 DUP1 MLOAD PUSH1 0xE0 DUP2 ADD DUP3 MSTORE PUSH0 DUP1 DUP3 MSTORE PUSH1 0x20 DUP3 ADD DUP2 SWAP1 MSTORE SWAP2 DUP2 ADD DUP3 SWAP1 MSTORE PUSH1 0x60 DUP1 DUP3 ADD MSTORE PUSH1 0x80 DUP2 ADD DUP3 SWAP1 MSTORE PUSH1 0xA0 DUP2 ADD DUP3 SWAP1 MSTORE PUSH1 0xC0 DUP2 ADD SWAP2 SWAP1 SWAP2 MSTORE PUSH1 0x1 PUSH1 0x1 PUSH1 0xA0 SHL SUB DUP1 DUP4 AND PUSH0 SWAP1 DUP2 MSTORE PUSH1 0x5 PUSH1 0x20 SWAP1 DUP2 MSTORE PUSH1 0x40 SWAP2 DUP3 SWAP1 KECCAK256 DUP3 MLOAD PUSH1 0xE0 DUP2 ADD DUP5 MSTORE DUP2 SLOAD DUP6 AND DUP2 MSTORE PUSH1 0x1 DUP3 ADD SLOAD SWAP1 SWAP5 AND SWAP2 DUP5 ADD SWAP2 SWAP1 SWAP2 MSTORE PUSH1 0x2 DUP2 ADD SLOAD SWAP2 DUP4 ADD SWAP2 SWAP1 SWAP2 MSTORE PUSH1 0x3 DUP2 ADD DUP1 SLOAD PUSH1 0x60 DUP5 ADD SWAP2 SWAP1 PUSH2 0x539 SWAP1 PUSH2 0x21DD JUMP JUMPDEST DUP1 PUSH1 0x1F ADD PUSH1 0x20 DUP1 SWAP2 DIV MUL PUSH1 0x20 ADD PUSH1 0x40 MLOAD SWAP1 DUP2 ADD PUSH1 0x40 MSTORE DUP1 SWAP3 SWAP2 SWAP1 DUP2 DUP2 MSTORE PUSH1 0x20 ADD DUP3 DUP1 SLOAD PUSH2 0x565 SWAP1 PUSH2 0x21DD JUMP JUMPDEST DUP1 ISZERO PUSH2 0x5B0 JUMPI DUP1 PUSH1 0x1F LT PUSH2 0x587 JUMPI PUSH2 0x100 DUP1 DUP4 SLOAD DIV MUL DUP4 MSTORE SWAP2 PUSH1 0x20 ADD SWAP2 PUSH2 0x5B0 JUMP JUMPDEST DUP3 ADD SWAP2 SWAP1 PUSH0 MSTORE PUSH1 0x20 PUSH0 KECCAK256 SWAP1 JUMPDEST DUP2 SLOAD DUP2 MSTORE SWAP1 PUSH1 0x1 ADD SWAP1 PUSH1 0x20 ADD DUP1 DUP4 GT PUSH2 0x593 JUMPI DUP3 SWAP1 SUB PUSH1 0x1F AND DUP3 ADD SWAP2 JUMPDEST POP POP POP SWAP2 DUP4 MSTORE POP POP PUSH1 0x4 DUP3 ADD SLOAD PUSH1 0x20 DUP3 ADD MSTORE PUSH1 0x5 DUP3 ADD SLOAD PUSH1 0x40 DUP3 ADD MSTORE PUSH1 0x6 SWAP1 SWAP2 ADD SLOAD PUSH1 0xFF AND ISZERO ISZERO PUSH1 0x60 SWAP1 SWAP2 ADD MSTORE SWAP3 SWAP2 POP POP JUMP JUMPDEST PUSH1 0x1 SLOAD PUSH0 SWAP1 PUSH1 0x1 PUSH1 0x1 PUSH1 0xA0 SHL SUB AND CALLER EQ PUSH2 0x618 JUMPI PUSH1 0x40 MLOAD PUSH3 0x461BCD PUSH1 0xE5 SHL DUP2 MSTORE PUSH1 0x4 ADD PUSH2 0x60F SWAP1 PUSH2 0x220F JUMP JUMPDEST PUSH1 0x40 MLOAD DUP1 SWAP2 SUB SWAP1 REVERT JUMPDEST PUSH1 0x4 DUP1 SLOAD SWAP1 PUSH0 PUSH2 0x627 DUP4 PUSH2 0x2250 JUMP JUMPDEST SWAP2 SWAP1 POP SSTORE SWAP1 POP SWAP1 JUMP JUMPDEST PUSH1 0x6 PUSH1 0x20 MSTORE PUSH0 SWAP1 DUP2 MSTORE PUSH1 0x40 SWAP1 KECCAK256 DUP1 SLOAD PUSH1 0x2 DUP3 ADD DUP1 SLOAD PUSH1 0x1 PUSH1 0x1 PUSH1 0xA0 SHL SUB SWAP1 SWAP3 AND SWAP3 SWAP2 PUSH2 0x65B SWAP1 PUSH2 0x21DD JUMP JUMPDEST DUP1 PUSH1 0x1F ADD PUSH1 0x20 DUP1 SWAP2 DIV MUL PUSH1 0x20 ADD PUSH1 0x40 MLOAD SWAP1 DUP2 ADD PUSH1 0x40 MSTORE DUP1 SWAP3 SWAP2 SWAP1 DUP2 DUP2 MSTORE PUSH1 0x20 ADD DUP3 DUP1 SLOAD PUSH2 0x687 SWAP1 PUSH2 0x21DD JUMP JUMPDEST DUP1 ISZERO PUSH2 0x6D2 JUMPI DUP1 PUSH1 0x1F LT PUSH2 0x6A9 JUMPI PUSH2 0x100 DUP1 DUP4 SLOAD DIV MUL DUP4 MSTORE SWAP2 PUSH1 0x20 ADD SWAP2 PUSH2 0x6D2 JUMP JUMPDEST DUP3 ADD SWAP2 SWAP1 PUSH0 MSTORE PUSH1 0x20 PUSH0 KECCAK256 SWAP1 JUMPDEST DUP2 SLOAD DUP2 MSTORE SWAP1 PUSH1 0x1 ADD SWAP1 PUSH1 0x20 ADD DUP1 DUP4 GT PUSH2 0x6B5 JUMPI DUP3 SWAP1 SUB PUSH1 0x1F AND DUP3 ADD SWAP2 JUMPDEST POP POP POP POP PUSH1 0x3 DUP4 ADD SLOAD PUSH1 0x4 DUP5 ADD SLOAD PUSH1 0x5 SWAP1 SWAP5 ADD SLOAD SWAP3 SWAP4 SWAP1 SWAP3 SWAP1 SWAP2 POP PUSH1 0xFF AND DUP6 JUMP JUMPDEST PUSH1 0x1 SLOAD PUSH1 0x1 PUSH1 0x1 PUSH1 0xA0 SHL SUB AND CALLER EQ PUSH2 0x71D JUMPI PUSH1 0x40 MLOAD PUSH3 0x461BCD PUSH1 0xE5 SHL DUP2 MSTORE PUSH1 0x4 ADD PUSH2 0x60F SWAP1 PUSH2 0x220F JUMP JUMPDEST PUSH0 DUP3 DUP2 MSTORE PUSH1 0x8 PUSH1 0x20 MSTORE PUSH1 0x40 DUP2 KECCAK256 DUP1 SLOAD SWAP1 SWAP2 SUB PUSH2 0x77B JUMPI PUSH1 0x40 MLOAD PUSH3 0x461BCD PUSH1 0xE5 SHL DUP2 MSTORE PUSH1 0x20 PUSH1 0x4 DUP3 ADD MSTORE PUSH1 0x17 PUSH1 0x24 DUP3 ADD MSTORE PUSH32 0x496E636964656E7420646F6573206E6F74206578697374000000000000000000 PUSH1 0x44 DUP3 ADD MSTORE PUSH1 0x64 ADD PUSH2 0x60F JUMP JUMPDEST PUSH1 0x5 DUP2 ADD DUP1 SLOAD PUSH1 0x1 DUP2 ADD DUP3 SSTORE PUSH0 SWAP2 DUP3 MSTORE PUSH1 0x20 SWAP1 SWAP2 KECCAK256 DUP4 SWAP2 PUSH1 0x4 MUL ADD PUSH2 0x7A0 DUP3 DUP3 PUSH2 0x261F JUMP JUMPDEST POP PUSH2 0x7B0 SWAP1 POP PUSH1 0x20 DUP4 ADD DUP4 PUSH2 0x1B43 JUMP JUMPDEST PUSH1 0x1 PUSH1 0x1 PUSH1 0xA0 SHL SUB AND DUP4 PUSH32 0x37B3E104208F85D1DF430BBEFBE3FEE48F2B666F587576036F4D60EF673AF50C TIMESTAMP PUSH1 0x40 MLOAD PUSH2 0x7EB SWAP2 DUP2 MSTORE PUSH1 0x20 ADD SWAP1 JUMP JUMPDEST PUSH1 0x40 MLOAD DUP1 SWAP2 SUB SWAP1 LOG3 POP POP POP JUMP JUMPDEST PUSH2 0x800 PUSH2 0x189E JUMP JUMPDEST PUSH1 0x1 PUSH1 0x1 PUSH1 0xA0 SHL SUB DUP2 AND PUSH2 0x856 JUMPI PUSH1 0x40 MLOAD PUSH3 0x461BCD PUSH1 0xE5 SHL DUP2 MSTORE PUSH1 0x20 PUSH1 0x4 DUP3 ADD MSTORE PUSH1 0x18 PUSH1 0x24 DUP3 ADD MSTORE PUSH32 0x496E76616C69642070726F746F636F6C20616464726573730000000000000000 PUSH1 0x44 DUP3 ADD MSTORE PUSH1 0x64 ADD PUSH2 0x60F JUMP JUMPDEST PUSH1 0x1 DUP1 SLOAD PUSH1 0x1 PUSH1 0x1 PUSH1 0xA0 SHL SUB NOT AND PUSH1 0x1 PUSH1 0x1 PUSH1 0xA0 SHL SUB SWAP3 SWAP1 SWAP3 AND SWAP2 SWAP1 SWAP2 OR SWAP1 SSTORE JUMP JUMPDEST PUSH2 0x8B8 PUSH1 0x40 MLOAD DUP1 PUSH1 0xC0 ADD PUSH1 0x40 MSTORE DUP1 PUSH0 PUSH1 0x1 PUSH1 0x1 PUSH1 0xA0 SHL SUB AND DUP2 MSTORE PUSH1 0x20 ADD PUSH1 0x60 DUP2 MSTORE PUSH1 0x20 ADD PUSH1 0x60 DUP2 MSTORE PUSH1 0x20 ADD PUSH0 DUP2 MSTORE PUSH1 0x20 ADD PUSH0 DUP2 MSTORE PUSH1 0x20 ADD PUSH0 ISZERO ISZERO DUP2 MSTORE POP SWAP1 JUMP JUMPDEST PUSH1 0x1 PUSH1 0x1 PUSH1 0xA0 SHL SUB DUP1 DUP4 AND PUSH0 SWAP1 DUP2 MSTORE PUSH1 0x6 PUSH1 0x20 SWAP1 DUP2 MSTORE PUSH1 0x40 SWAP2 DUP3 SWAP1 KECCAK256 DUP3 MLOAD PUSH1 0xC0 DUP2 ADD DUP5 MSTORE DUP2 SLOAD SWAP1 SWAP5 AND DUP5 MSTORE PUSH1 0x1 DUP2 ADD DUP1 SLOAD DUP5 MLOAD DUP2 DUP6 MUL DUP2 ADD DUP6 ADD SWAP1 SWAP6 MSTORE DUP1 DUP6 MSTORE SWAP2 SWAP4 DUP6 DUP5 ADD SWAP4 SWAP1 SWAP3 SWAP1 DUP4 ADD DUP3 DUP3 DUP1 ISZERO PUSH2 0x92E JUMPI PUSH1 0x20 MUL DUP3 ADD SWAP2 SWAP1 PUSH0 MSTORE PUSH1 0x20 PUSH0 KECCAK256 SWAP1 JUMPDEST DUP2 SLOAD DUP2 MSTORE PUSH1 0x20 ADD SWAP1 PUSH1 0x1 ADD SWAP1 DUP1 DUP4 GT PUSH2 0x91A JUMPI JUMPDEST POP POP POP POP POP DUP2 MSTORE PUSH1 0x20 ADD PUSH1 0x2 DUP3 ADD DUP1 SLOAD PUSH2 0x947 SWAP1 PUSH2 0x21DD JUMP JUMPDEST DUP1 PUSH1 0x1F ADD PUSH1 0x20 DUP1 SWAP2 DIV MUL PUSH1 0x20 ADD PUSH1 0x40 MLOAD SWAP1 DUP2 ADD PUSH1 0x40 MSTORE DUP1 SWAP3 SWAP2 SWAP1 DUP2 DUP2 MSTORE PUSH1 0x20 ADD DUP3 DUP1 SLOAD PUSH2 0x973 SWAP1 PUSH2 0x21DD JUMP JUMPDEST DUP1 ISZERO PUSH2 0x9BE JUMPI DUP1 PUSH1 0x1F LT PUSH2 0x995 JUMPI PUSH2 0x100 DUP1 DUP4 SLOAD DIV MUL DUP4 MSTORE SWAP2 PUSH1 0x20 ADD SWAP2 PUSH2 0x9BE JUMP JUMPDEST DUP3 ADD SWAP2 SWAP1 PUSH0 MSTORE PUSH1 0x20 PUSH0 KECCAK256 SWAP1 JUMPDEST DUP2 SLOAD DUP2 MSTORE SWAP1 PUSH1 0x1 ADD SWAP1 PUSH1 0x20 ADD DUP1 DUP4 GT PUSH2 0x9A1 JUMPI DUP3 SWAP1 SUB PUSH1 0x1F AND DUP3 ADD SWAP2 JUMPDEST POP POP POP SWAP2 DUP4 MSTORE POP POP PUSH1 0x3 DUP3 ADD SLOAD PUSH1 0x20 DUP3 ADD MSTORE PUSH1 0x4 DUP3 ADD SLOAD PUSH1 0x40 DUP3 ADD MSTORE PUSH1 0x5 SWAP1 SWAP2 ADD SLOAD PUSH1 0xFF AND ISZERO ISZERO PUSH1 0x60 SWAP1 SWAP2 ADD MSTORE SWAP3 SWAP2 POP POP JUMP JUMPDEST PUSH2 0x9F9 PUSH2 0x189E JUMP JUMPDEST PUSH2 0xA02 PUSH0 PUSH2 0x18CA JUMP JUMPDEST JUMP JUMPDEST PUSH1 0x1 SLOAD PUSH1 0x1 PUSH1 0x1 PUSH1 0xA0 SHL SUB AND CALLER EQ PUSH2 0xA2E JUMPI PUSH1 0x40 MLOAD PUSH3 0x461BCD PUSH1 0xE5 SHL DUP2 MSTORE PUSH1 0x4 ADD PUSH2 0x60F SWAP1 PUSH2 0x220F JUMP JUMPDEST PUSH0 PUSH2 0xA3C PUSH1 0x20 DUP4 ADD DUP4 PUSH2 0x1B43 JUMP JUMPDEST PUSH1 0x1 PUSH1 0x1 PUSH1 0xA0 SHL SUB AND SUB PUSH2 0xA8B JUMPI PUSH1 0x40 MLOAD PUSH3 0x461BCD PUSH1 0xE5 SHL DUP2 MSTORE PUSH1 0x20 PUSH1 0x4 DUP3 ADD MSTORE PUSH1 0x16 PUSH1 0x24 DUP3 ADD MSTORE PUSH22 0x496E76616C6964206C61777965722061646472657373 PUSH1 0x50 SHL PUSH1 0x44 DUP3 ADD MSTORE PUSH1 0x64 ADD PUSH2 0x60F JUMP JUMPDEST DUP1 PUSH1 0x6 PUSH0 PUSH2 0xA9C PUSH1 0x20 DUP5 ADD DUP5 PUSH2 0x1B43 JUMP JUMPDEST PUSH1 0x1 PUSH1 0x1 PUSH1 0xA0 SHL SUB AND DUP2 MSTORE PUSH1 0x20 DUP2 ADD SWAP2 SWAP1 SWAP2 MSTORE PUSH1 0x40 ADD PUSH0 KECCAK256 PUSH2 0xABE DUP3 DUP3 PUSH2 0x2738 JUMP JUMPDEST POP PUSH2 0xAD1 SWAP1 POP PUSH1 0xC0 DUP3 ADD PUSH1 0xA0 DUP4 ADD PUSH2 0x2833 JUMP JUMPDEST PUSH1 0xA PUSH0 PUSH2 0xAE1 PUSH1 0x20 DUP6 ADD DUP6 PUSH2 0x1B43 JUMP JUMPDEST PUSH1 0x1 PUSH1 0x1 PUSH1 0xA0 SHL SUB AND DUP2 MSTORE PUSH1 0x20 DUP1 DUP3 ADD SWAP3 SWAP1 SWAP3 MSTORE PUSH1 0x40 ADD PUSH0 KECCAK256 DUP1 SLOAD PUSH1 0xFF NOT AND SWAP3 ISZERO ISZERO SWAP3 SWAP1 SWAP3 OR SWAP1 SWAP2 SSTORE PUSH2 0xB16 SWAP1 DUP3 ADD DUP3 PUSH2 0x1B43 JUMP JUMPDEST PUSH1 0x1 PUSH1 0x1 PUSH1 0xA0 SHL SUB AND PUSH32 0x59F9BE63244670BCBD7B4ADA776836C9E0DC14F711CAE29FA2E2F527D4F7E3B1 PUSH2 0xB50 PUSH1 0xC0 DUP5 ADD PUSH1 0xA0 DUP6 ADD PUSH2 0x2833 JUMP JUMPDEST PUSH1 0x40 MLOAD SWAP1 ISZERO ISZERO DUP2 MSTORE PUSH1 0x20 ADD JUMPDEST PUSH1 0x40 MLOAD DUP1 SWAP2 SUB SWAP1 LOG2 POP JUMP JUMPDEST PUSH1 0x1 SLOAD PUSH0 SWAP1 PUSH1 0x1 PUSH1 0x1 PUSH1 0xA0 SHL SUB AND CALLER EQ PUSH2 0xB93 JUMPI PUSH1 0x40 MLOAD PUSH3 0x461BCD PUSH1 0xE5 SHL DUP2 MSTORE PUSH1 0x4 ADD PUSH2 0x60F SWAP1 PUSH2 0x220F JUMP JUMPDEST PUSH1 0x3 DUP1 SLOAD SWAP1 PUSH0 PUSH2 0x627 DUP4 PUSH2 0x2250 JUMP JUMPDEST PUSH1 0x7 PUSH1 0x20 MSTORE PUSH0 SWAP1 DUP2 MSTORE PUSH1 0x40 SWAP1 KECCAK256 DUP1 SLOAD PUSH1 0x1 DUP3 ADD SLOAD PUSH1 0x2 DUP4 ADD SLOAD PUSH1 0x3 DUP5 ADD DUP1 SLOAD SWAP4 SWAP5 PUSH1 0x1 PUSH1 0x1 PUSH1 0xA0 SHL SUB SWAP4 DUP5 AND SWAP5 SWAP4 SWAP1 SWAP3 AND SWAP3 PUSH2 0xBDD SWAP1 PUSH2 0x21DD JUMP JUMPDEST DUP1 PUSH1 0x1F ADD PUSH1 0x20 DUP1 SWAP2 DIV MUL PUSH1 0x20 ADD PUSH1 0x40 MLOAD SWAP1 DUP2 ADD PUSH1 0x40 MSTORE DUP1 SWAP3 SWAP2 SWAP1 DUP2 DUP2 MSTORE PUSH1 0x20 ADD DUP3 DUP1 SLOAD PUSH2 0xC09 SWAP1 PUSH2 0x21DD JUMP JUMPDEST DUP1 ISZERO PUSH2 0xC54 JUMPI DUP1 PUSH1 0x1F LT PUSH2 0xC2B JUMPI PUSH2 0x100 DUP1 DUP4 SLOAD DIV MUL DUP4 MSTORE SWAP2 PUSH1 0x20 ADD SWAP2 PUSH2 0xC54 JUMP JUMPDEST DUP3 ADD SWAP2 SWAP1 PUSH0 MSTORE PUSH1 0x20 PUSH0 KECCAK256 SWAP1 JUMPDEST DUP2 SLOAD DUP2 MSTORE SWAP1 PUSH1 0x1 ADD SWAP1 PUSH1 0x20 ADD DUP1 DUP4 GT PUSH2 0xC37 JUMPI DUP3 SWAP1 SUB PUSH1 0x1F AND DUP3 ADD SWAP2 JUMPDEST POP POP POP PUSH1 0x4 DUP5 ADD SLOAD PUSH1 0x5 DUP6 ADD SLOAD PUSH1 0x6 DUP7 ADD SLOAD PUSH1 0x7 SWAP1 SWAP7 ADD SLOAD SWAP5 SWAP6 SWAP2 SWAP5 SWAP1 SWAP4 POP PUSH1 0xFF SWAP1 SWAP2 AND SWAP2 POP DUP9 JUMP JUMPDEST PUSH1 0x5 PUSH1 0x20 MSTORE PUSH0 SWAP1 DUP2 MSTORE PUSH1 0x40 SWAP1 KECCAK256 DUP1 SLOAD PUSH1 0x1 DUP3 ADD SLOAD PUSH1 0x2 DUP4 ADD SLOAD PUSH1 0x3 DUP5 ADD DUP1 SLOAD PUSH1 0x1 PUSH1 0x1 PUSH1 0xA0 SHL SUB SWAP5 DUP6 AND SWAP6 SWAP5 SWAP1 SWAP4 AND SWAP4 SWAP2 SWAP3 PUSH2 0xCB8 SWAP1 PUSH2 0x21DD JUMP JUMPDEST DUP1 PUSH1 0x1F ADD PUSH1 0x20 DUP1 SWAP2 DIV MUL PUSH1 0x20 ADD PUSH1 0x40 MLOAD SWAP1 DUP2 ADD PUSH1 0x40 MSTORE DUP1 SWAP3 SWAP2 SWAP1 DUP2 DUP2 MSTORE PUSH1 0x20 ADD DUP3 DUP1 SLOAD PUSH2 0xCE4 SWAP1 PUSH2 0x21DD JUMP JUMPDEST DUP1 ISZERO PUSH2 0xD2F JUMPI DUP1 PUSH1 0x1F LT PUSH2 0xD06 JUMPI PUSH2 0x100 DUP1 DUP4 SLOAD DIV MUL DUP4 MSTORE SWAP2 PUSH1 0x20 ADD SWAP2 PUSH2 0xD2F JUMP JUMPDEST DUP3 ADD SWAP2 SWAP1 PUSH0 MSTORE PUSH1 0x20 PUSH0 KECCAK256 SWAP1 JUMPDEST DUP2 SLOAD DUP2 MSTORE SWAP1 PUSH1 0x1 ADD SWAP1 PUSH1 0x20 ADD DUP1 DUP4 GT PUSH2 0xD12 JUMPI DUP3 SWAP1 SUB PUSH1 0x1F AND DUP3 ADD SWAP2 JUMPDEST POP POP POP POP PUSH1 0x4 DUP4 ADD SLOAD PUSH1 0x5 DUP5 ADD SLOAD PUSH1 0x6 SWAP1 SWAP5 ADD SLOAD SWAP3 SWAP4 SWAP1 SWAP3 SWAP1 SWAP2 POP PUSH1 0xFF AND DUP8 JUMP JUMPDEST PUSH1 0x1 PUSH1 0x1 PUSH1 0xA0 SHL SUB DUP2 AND PUSH0 SWAP1 DUP2 MSTORE PUSH1 0xB PUSH1 0x20 SWAP1 DUP2 MSTORE PUSH1 0x40 DUP1 DUP4 KECCAK256 PUSH1 0xC DUP4 MSTORE SWAP3 DUP2 SWAP1 KECCAK256 DUP4 SLOAD DUP3 MLOAD DUP2 DUP6 MUL DUP2 ADD DUP6 ADD SWAP1 SWAP4 MSTORE DUP1 DUP4 MSTORE PUSH1 0x60 SWAP5 DUP6 SWAP5 SWAP1 SWAP4 SWAP2 DUP5 SWAP2 DUP4 ADD DUP3 DUP3 DUP1 ISZERO PUSH2 0xDBA JUMPI PUSH1 0x20 MUL DUP3 ADD SWAP2 SWAP1 PUSH0 MSTORE PUSH1 0x20 PUSH0 KECCAK256 SWAP1 JUMPDEST DUP2 SLOAD DUP2 MSTORE PUSH1 0x20 ADD SWAP1 PUSH1 0x1 ADD SWAP1 DUP1 DUP4 GT PUSH2 0xDA6 JUMPI JUMPDEST POP POP POP POP POP SWAP2 POP DUP1 DUP1 SLOAD DUP1 PUSH1 0x20 MUL PUSH1 0x20 ADD PUSH1 0x40 MLOAD SWAP1 DUP2 ADD PUSH1 0x40 MSTORE DUP1 SWAP3 SWAP2 SWAP1 DUP2 DUP2 MSTORE PUSH1 0x20 ADD DUP3 DUP1 SLOAD DUP1 ISZERO PUSH2 0xE0A JUMPI PUSH1 0x20 MUL DUP3 ADD SWAP2 SWAP1 PUSH0 MSTORE PUSH1 0x20 PUSH0 KECCAK256 SWAP1 JUMPDEST DUP2 SLOAD DUP2 MSTORE PUSH1 0x20 ADD SWAP1 PUSH1 0x1 ADD SWAP1 DUP1 DUP4 GT PUSH2 0xDF6 JUMPI JUMPDEST POP POP POP POP POP SWAP1 POP SWAP2 POP SWAP2 POP SWAP2 POP SWAP2 JUMP JUMPDEST PUSH1 0x8 PUSH1 0x20 MSTORE PUSH0 SWAP1 DUP2 MSTORE PUSH1 0x40 SWAP1 KECCAK256 DUP1 SLOAD PUSH1 0x1 DUP3 ADD SLOAD PUSH1 0x2 DUP4 ADD DUP1 SLOAD SWAP3 SWAP4 PUSH1 0x1 PUSH1 0x1 PUSH1 0xA0 SHL SUB SWAP1 SWAP3 AND SWAP3 PUSH2 0xE4B SWAP1 PUSH2 0x21DD JUMP JUMPDEST DUP1 PUSH1 0x1F ADD PUSH1 0x20 DUP1 SWAP2 DIV MUL PUSH1 0x20 ADD PUSH1 0x40 MLOAD SWAP1 DUP2 ADD PUSH1 0x40 MSTORE DUP1 SWAP3 SWAP2 SWAP1 DUP2 DUP2 MSTORE PUSH1 0x20 ADD DUP3 DUP1 SLOAD PUSH2 0xE77 SWAP1 PUSH2 0x21DD JUMP JUMPDEST DUP1 ISZERO PUSH2 0xEC2 JUMPI DUP1 PUSH1 0x1F LT PUSH2 0xE99 JUMPI PUSH2 0x100 DUP1 DUP4 SLOAD DIV MUL DUP4 MSTORE SWAP2 PUSH1 0x20 ADD SWAP2 PUSH2 0xEC2 JUMP JUMPDEST DUP3 ADD SWAP2 SWAP1 PUSH0 MSTORE PUSH1 0x20 PUSH0 KECCAK256 SWAP1 JUMPDEST DUP2 SLOAD DUP2 MSTORE SWAP1 PUSH1 0x1 ADD SWAP1 PUSH1 0x20 ADD DUP1 DUP4 GT PUSH2 0xEA5 JUMPI DUP3 SWAP1 SUB PUSH1 0x1F AND DUP3 ADD SWAP2 JUMPDEST POP POP POP POP PUSH1 0x3 DUP4 ADD SLOAD PUSH1 0x4 SWAP1 SWAP4 ADD SLOAD SWAP2 SWAP3 SWAP2 PUSH1 0xFF DUP2 AND SWAP2 POP PUSH2 0x100 SWAP1 DIV PUSH1 0x1 PUSH1 0x1 PUSH1 0xA0 SHL SUB AND DUP7 JUMP JUMPDEST PUSH1 0x1 SLOAD PUSH1 0x1 PUSH1 0x1 PUSH1 0xA0 SHL SUB AND CALLER EQ PUSH2 0xF15 JUMPI PUSH1 0x40 MLOAD PUSH3 0x461BCD PUSH1 0xE5 SHL DUP2 MSTORE PUSH1 0x4 ADD PUSH2 0x60F SWAP1 PUSH2 0x220F JUMP JUMPDEST DUP1 CALLDATALOAD PUSH0 SUB PUSH2 0xF5B JUMPI PUSH1 0x40 MLOAD PUSH3 0x461BCD PUSH1 0xE5 SHL DUP2 MSTORE PUSH1 0x20 PUSH1 0x4 DUP3 ADD MSTORE PUSH1 0x13 PUSH1 0x24 DUP3 ADD MSTORE PUSH19 0x125B9D985B1A59081A5B98DA59195B9D081A59 PUSH1 0x6A SHL PUSH1 0x44 DUP3 ADD MSTORE PUSH1 0x64 ADD PUSH2 0x60F JUMP JUMPDEST DUP1 CALLDATALOAD PUSH0 SWAP1 DUP2 MSTORE PUSH1 0x8 PUSH1 0x20 MSTORE PUSH1 0x40 SWAP1 KECCAK256 DUP2 SWAP1 PUSH2 0xF76 DUP3 DUP3 PUSH2 0x2976 JUMP JUMPDEST POP PUSH2 0xF89 SWAP1 POP PUSH1 0x40 DUP3 ADD PUSH1 0x20 DUP4 ADD PUSH2 0x1B43 JUMP JUMPDEST PUSH1 0x1 PUSH1 0x1 PUSH1 0xA0 SHL SUB AND DUP2 PUSH0 ADD CALLDATALOAD PUSH32 0x159EAE2587974B857C8B28D8D49D8CCA50CC87FC9B0BD9BD76467F77AAF5C8B6 DUP4 PUSH1 0x60 ADD CALLDATALOAD PUSH1 0x40 MLOAD PUSH2 0xFCB SWAP2 DUP2 MSTORE PUSH1 0x20 ADD SWAP1 JUMP JUMPDEST PUSH1 0x40 MLOAD DUP1 SWAP2 SUB SWAP1 LOG3 POP JUMP JUMPDEST PUSH2 0xFDE PUSH2 0x1AD7 JUMP JUMPDEST PUSH0 DUP3 DUP2 MSTORE PUSH1 0x8 PUSH1 0x20 SWAP1 DUP2 MSTORE PUSH1 0x40 SWAP2 DUP3 SWAP1 KECCAK256 DUP3 MLOAD PUSH2 0x100 DUP2 ADD DUP5 MSTORE DUP2 SLOAD DUP2 MSTORE PUSH1 0x1 DUP3 ADD SLOAD PUSH1 0x1 PUSH1 0x1 PUSH1 0xA0 SHL SUB AND SWAP3 DUP2 ADD SWAP3 SWAP1 SWAP3 MSTORE PUSH1 0x2 DUP2 ADD DUP1 SLOAD SWAP3 SWAP4 SWAP2 SWAP3 SWAP2 DUP5 ADD SWAP2 PUSH2 0x1028 SWAP1 PUSH2 0x21DD JUMP JUMPDEST DUP1 PUSH1 0x1F ADD PUSH1 0x20 DUP1 SWAP2 DIV MUL PUSH1 0x20 ADD PUSH1 0x40 MLOAD SWAP1 DUP2 ADD PUSH1 0x40 MSTORE DUP1 SWAP3 SWAP2 SWAP1 DUP2 DUP2 MSTORE PUSH1 0x20 ADD DUP3 DUP1 SLOAD PUSH2 0x1054 SWAP1 PUSH2 0x21DD JUMP JUMPDEST DUP1 ISZERO PUSH2 0x109F JUMPI DUP1 PUSH1 0x1F LT PUSH2 0x1076 JUMPI PUSH2 0x100 DUP1 DUP4 SLOAD DIV MUL DUP4 MSTORE SWAP2 PUSH1 0x20 ADD SWAP2 PUSH2 0x109F JUMP JUMPDEST DUP3 ADD SWAP2 SWAP1 PUSH0 MSTORE PUSH1 0x20 PUSH0 KECCAK256 SWAP1 JUMPDEST DUP2 SLOAD DUP2 MSTORE SWAP1 PUSH1 0x1 ADD SWAP1 PUSH1 0x20 ADD DUP1 DUP4 GT PUSH2 0x1082 JUMPI DUP3 SWAP1 SUB PUSH1 0x1F AND DUP3 ADD SWAP2 JUMPDEST POP POP POP SWAP2 DUP4 MSTORE POP POP PUSH1 0x3 DUP3 ADD SLOAD PUSH1 0x20 DUP3 ADD MSTORE PUSH1 0x4 DUP3 ADD SLOAD PUSH1 0x40 SWAP1 SWAP2 ADD SWAP1 PUSH1 0xFF AND PUSH1 0x2 DUP2 GT ISZERO PUSH2 0x10D0 JUMPI PUSH2 0x10D0 PUSH2 0x1EA2 JUMP JUMPDEST PUSH1 0x2 DUP2 GT ISZERO PUSH2 0x10E1 JUMPI PUSH2 0x10E1 PUSH2 0x1EA2 JUMP JUMPDEST DUP2 MSTORE PUSH1 0x4 DUP3 ADD SLOAD PUSH2 0x100 SWAP1 DIV PUSH1 0x1 PUSH1 0x1 PUSH1 0xA0 SHL SUB AND PUSH1 0x20 DUP1 DUP4 ADD SWAP2 SWAP1 SWAP2 MSTORE PUSH1 0x5 DUP4 ADD DUP1 SLOAD PUSH1 0x40 DUP1 MLOAD DUP3 DUP6 MUL DUP2 ADD DUP6 ADD DUP3 MSTORE DUP3 DUP2 MSTORE SWAP5 ADD SWAP4 SWAP3 PUSH0 SWAP1 DUP5 ADD JUMPDEST DUP3 DUP3 LT ISZERO PUSH2 0x12D3 JUMPI PUSH0 DUP5 DUP2 MSTORE PUSH1 0x20 SWAP1 DUP2 SWAP1 KECCAK256 PUSH1 0x40 DUP1 MLOAD PUSH1 0x80 DUP2 ADD DUP3 MSTORE PUSH1 0x4 DUP7 MUL SWAP1 SWAP3 ADD DUP1 SLOAD PUSH1 0x1 PUSH1 0x1 PUSH1 0xA0 SHL SUB AND DUP4 MSTORE PUSH1 0x1 DUP2 ADD SLOAD SWAP4 DUP4 ADD SWAP4 SWAP1 SWAP4 MSTORE PUSH1 0x2 DUP4 ADD DUP1 SLOAD SWAP3 SWAP4 SWAP3 SWAP2 DUP5 ADD SWAP2 PUSH2 0x1170 SWAP1 PUSH2 0x21DD JUMP JUMPDEST DUP1 PUSH1 0x1F ADD PUSH1 0x20 DUP1 SWAP2 DIV MUL PUSH1 0x20 ADD PUSH1 0x40 MLOAD SWAP1 DUP2 ADD PUSH1 0x40 MSTORE DUP1 SWAP3 SWAP2 SWAP1 DUP2 DUP2 MSTORE PUSH1 0x20 ADD DUP3 DUP1 SLOAD PUSH2 0x119C SWAP1 PUSH2 0x21DD JUMP JUMPDEST DUP1 ISZERO PUSH2 0x11E7 JUMPI DUP1 PUSH1 0x1F LT PUSH2 0x11BE JUMPI PUSH2 0x100 DUP1 DUP4 SLOAD DIV MUL DUP4 MSTORE SWAP2 PUSH1 0x20 ADD SWAP2 PUSH2 0x11E7 JUMP JUMPDEST DUP3 ADD SWAP2 SWAP1 PUSH0 MSTORE PUSH1 0x20 PUSH0 KECCAK256 SWAP1 JUMPDEST DUP2 SLOAD DUP2 MSTORE SWAP1 PUSH1 0x1 ADD SWAP1 PUSH1 0x20 ADD DUP1 DUP4 GT PUSH2 0x11CA JUMPI DUP3 SWAP1 SUB PUSH1 0x1F AND DUP3 ADD SWAP2 JUMPDEST POP POP POP POP POP DUP2 MSTORE PUSH1 0x20 ADD PUSH1 0x3 DUP3 ADD DUP1 SLOAD DUP1 PUSH1 0x20 MUL PUSH1 0x20 ADD PUSH1 0x40 MLOAD SWAP1 DUP2 ADD PUSH1 0x40 MSTORE DUP1 SWAP3 SWAP2 SWAP1 DUP2 DUP2 MSTORE PUSH1 0x20 ADD PUSH0 SWAP1 JUMPDEST DUP3 DUP3 LT ISZERO PUSH2 0x12BC JUMPI DUP4 DUP3 SWAP1 PUSH0 MSTORE PUSH1 0x20 PUSH0 KECCAK256 ADD DUP1 SLOAD PUSH2 0x1231 SWAP1 PUSH2 0x21DD JUMP JUMPDEST DUP1 PUSH1 0x1F ADD PUSH1 0x20 DUP1 SWAP2 DIV MUL PUSH1 0x20 ADD PUSH1 0x40 MLOAD SWAP1 DUP2 ADD PUSH1 0x40 MSTORE DUP1 SWAP3 SWAP2 SWAP1 DUP2 DUP2 MSTORE PUSH1 0x20 ADD DUP3 DUP1 SLOAD PUSH2 0x125D SWAP1 PUSH2 0x21DD JUMP JUMPDEST DUP1 ISZERO PUSH2 0x12A8 JUMPI DUP1 PUSH1 0x1F LT PUSH2 0x127F JUMPI PUSH2 0x100 DUP1 DUP4 SLOAD DIV MUL DUP4 MSTORE SWAP2 PUSH1 0x20 ADD SWAP2 PUSH2 0x12A8 JUMP JUMPDEST DUP3 ADD SWAP2 SWAP1 PUSH0 MSTORE PUSH1 0x20 PUSH0 KECCAK256 SWAP1 JUMPDEST DUP2 SLOAD DUP2 MSTORE SWAP1 PUSH1 0x1 ADD SWAP1 PUSH1 0x20 ADD DUP1 DUP4 GT PUSH2 0x128B JUMPI DUP3 SWAP1 SUB PUSH1 0x1F AND DUP3 ADD SWAP2 JUMPDEST POP POP POP POP POP DUP2 MSTORE PUSH1 0x20 ADD SWAP1 PUSH1 0x1 ADD SWAP1 PUSH2 0x1214 JUMP JUMPDEST POP POP POP POP DUP2 MSTORE POP POP DUP2 MSTORE PUSH1 0x20 ADD SWAP1 PUSH1 0x1 ADD SWAP1 PUSH2 0x111E JUMP JUMPDEST POP POP POP POP DUP2 MSTORE PUSH1 0x20 ADD PUSH1 0x6 DUP3 ADD DUP1 SLOAD DUP1 PUSH1 0x20 MUL PUSH1 0x20 ADD PUSH1 0x40 MLOAD SWAP1 DUP2 ADD PUSH1 0x40 MSTORE DUP1 SWAP3 SWAP2 SWAP1 DUP2 DUP2 MSTORE PUSH1 0x20 ADD PUSH0 SWAP1 JUMPDEST DUP3 DUP3 LT ISZERO PUSH2 0x13A7 JUMPI DUP4 DUP3 SWAP1 PUSH0 MSTORE PUSH1 0x20 PUSH0 KECCAK256 ADD DUP1 SLOAD PUSH2 0x131C SWAP1 PUSH2 0x21DD JUMP JUMPDEST DUP1 PUSH1 0x1F ADD PUSH1 0x20 DUP1 SWAP2 DIV MUL PUSH1 0x20 ADD PUSH1 0x40 MLOAD SWAP1 DUP2 ADD PUSH1 0x40 MSTORE DUP1 SWAP3 SWAP2 SWAP1 DUP2 DUP2 MSTORE PUSH1 0x20 ADD DUP3 DUP1 SLOAD PUSH2 0x1348 SWAP1 PUSH2 0x21DD JUMP JUMPDEST DUP1 ISZERO PUSH2 0x1393 JUMPI DUP1 PUSH1 0x1F LT PUSH2 0x136A JUMPI PUSH2 0x100 DUP1 DUP4 SLOAD DIV MUL DUP4 MSTORE SWAP2 PUSH1 0x20 ADD SWAP2 PUSH2 0x1393 JUMP JUMPDEST DUP3 ADD SWAP2 SWAP1 PUSH0 MSTORE PUSH1 0x20 PUSH0 KECCAK256 SWAP1 JUMPDEST DUP2 SLOAD DUP2 MSTORE SWAP1 PUSH1 0x1 ADD SWAP1 PUSH1 0x20 ADD DUP1 DUP4 GT PUSH2 0x1376 JUMPI DUP3 SWAP1 SUB PUSH1 0x1F AND DUP3 ADD SWAP2 JUMPDEST POP POP POP POP POP DUP2 MSTORE PUSH1 0x20 ADD SWAP1 PUSH1 0x1 ADD SWAP1 PUSH2 0x12FF JUMP JUMPDEST POP POP POP SWAP2 MSTORE POP SWAP1 SWAP4 SWAP3 POP POP POP JUMP JUMPDEST PUSH1 0x1 SLOAD PUSH1 0x1 PUSH1 0x1 PUSH1 0xA0 SHL SUB AND CALLER EQ PUSH2 0x13DF JUMPI PUSH1 0x40 MLOAD PUSH3 0x461BCD PUSH1 0xE5 SHL DUP2 MSTORE PUSH1 0x4 ADD PUSH2 0x60F SWAP1 PUSH2 0x220F JUMP JUMPDEST PUSH0 PUSH2 0x13ED PUSH1 0x20 DUP4 ADD DUP4 PUSH2 0x1B43 JUMP JUMPDEST PUSH1 0x1 PUSH1 0x1 PUSH1 0xA0 SHL SUB AND SUB PUSH2 0x143C JUMPI PUSH1 0x40 MLOAD PUSH3 0x461BCD PUSH1 0xE5 SHL DUP2 MSTORE PUSH1 0x20 PUSH1 0x4 DUP3 ADD MSTORE PUSH1 0x16 PUSH1 0x24 DUP3 ADD MSTORE PUSH22 0x496E76616C6964206D656D6265722061646472657373 PUSH1 0x50 SHL PUSH1 0x44 DUP3 ADD MSTORE PUSH1 0x64 ADD PUSH2 0x60F JUMP JUMPDEST DUP1 PUSH1 0x5 PUSH0 PUSH2 0x144D PUSH1 0x20 DUP5 ADD DUP5 PUSH2 0x1B43 JUMP JUMPDEST PUSH1 0x1 PUSH1 0x1 PUSH1 0xA0 SHL SUB AND DUP2 MSTORE PUSH1 0x20 DUP2 ADD SWAP2 SWAP1 SWAP2 MSTORE PUSH1 0x40 ADD PUSH0 KECCAK256 PUSH2 0x146F DUP3 DUP3 PUSH2 0x2A55 JUMP JUMPDEST POP PUSH2 0x1482 SWAP1 POP PUSH1 0xE0 DUP3 ADD PUSH1 0xC0 DUP4 ADD PUSH2 0x2833 JUMP JUMPDEST PUSH1 0x9 PUSH0 PUSH2 0x1492 PUSH1 0x20 DUP6 ADD DUP6 PUSH2 0x1B43 JUMP JUMPDEST PUSH1 0x1 PUSH1 0x1 PUSH1 0xA0 SHL SUB AND DUP2 MSTORE PUSH1 0x20 DUP1 DUP3 ADD SWAP3 SWAP1 SWAP3 MSTORE PUSH1 0x40 ADD PUSH0 KECCAK256 DUP1 SLOAD PUSH1 0xFF NOT AND SWAP3 ISZERO ISZERO SWAP3 SWAP1 SWAP3 OR SWAP1 SWAP2 SSTORE PUSH2 0x14C7 SWAP1 DUP3 ADD DUP3 PUSH2 0x1B43 JUMP JUMPDEST PUSH1 0x1 PUSH1 0x1 PUSH1 0xA0 SHL SUB AND PUSH32 0xD923AD306578F213C8E617F9102C59F7DC3F7A3C22F77EE29AC695DE0EDE78F6 PUSH1 0x40 DUP4 ADD CALLDATALOAD PUSH2 0x1506 PUSH1 0xE0 DUP6 ADD PUSH1 0xC0 DUP7 ADD PUSH2 0x2833 JUMP JUMPDEST PUSH1 0x40 DUP1 MLOAD SWAP3 DUP4 MSTORE SWAP1 ISZERO ISZERO PUSH1 0x20 DUP4 ADD MSTORE ADD PUSH2 0xB5C JUMP JUMPDEST PUSH2 0x1570 PUSH1 0x40 MLOAD DUP1 PUSH2 0x100 ADD PUSH1 0x40 MSTORE DUP1 PUSH0 DUP2 MSTORE PUSH1 0x20 ADD PUSH0 PUSH1 0x1 PUSH1 0x1 PUSH1 0xA0 SHL SUB AND DUP2 MSTORE PUSH1 0x20 ADD PUSH0 PUSH1 0x1 PUSH1 0x1 PUSH1 0xA0 SHL SUB AND DUP2 MSTORE PUSH1 0x20 ADD PUSH1 0x60 DUP2 MSTORE PUSH1 0x20 ADD PUSH0 DUP2 MSTORE PUSH1 0x20 ADD PUSH0 DUP2 MSTORE PUSH1 0x20 ADD PUSH0 ISZERO ISZERO DUP2 MSTORE PUSH1 0x20 ADD PUSH0 DUP2 MSTORE POP SWAP1 JUMP JUMPDEST PUSH0 DUP3 DUP2 MSTORE PUSH1 0x7 PUSH1 0x20 SWAP1 DUP2 MSTORE PUSH1 0x40 SWAP2 DUP3 SWAP1 KECCAK256 DUP3 MLOAD PUSH2 0x100 DUP2 ADD DUP5 MSTORE DUP2 SLOAD DUP2 MSTORE PUSH1 0x1 DUP3 ADD SLOAD PUSH1 0x1 PUSH1 0x1 PUSH1 0xA0 SHL SUB SWAP1 DUP2 AND SWAP4 DUP3 ADD SWAP4 SWAP1 SWAP4 MSTORE PUSH1 0x2 DUP3 ADD SLOAD SWAP1 SWAP3 AND SWAP3 DUP3 ADD SWAP3 SWAP1 SWAP3 MSTORE PUSH1 0x3 DUP3 ADD DUP1 SLOAD SWAP2 SWAP3 SWAP2 PUSH1 0x60 DUP5 ADD SWAP2 SWAP1 PUSH2 0x15CC SWAP1 PUSH2 0x21DD JUMP JUMPDEST DUP1 PUSH1 0x1F ADD PUSH1 0x20 DUP1 SWAP2 DIV MUL PUSH1 0x20 ADD PUSH1 0x40 MLOAD SWAP1 DUP2 ADD PUSH1 0x40 MSTORE DUP1 SWAP3 SWAP2 SWAP1 DUP2 DUP2 MSTORE PUSH1 0x20 ADD DUP3 DUP1 SLOAD PUSH2 0x15F8 SWAP1 PUSH2 0x21DD JUMP JUMPDEST DUP1 ISZERO PUSH2 0x1643 JUMPI DUP1 PUSH1 0x1F LT PUSH2 0x161A JUMPI PUSH2 0x100 DUP1 DUP4 SLOAD DIV MUL DUP4 MSTORE SWAP2 PUSH1 0x20 ADD SWAP2 PUSH2 0x1643 JUMP JUMPDEST DUP3 ADD SWAP2 SWAP1 PUSH0 MSTORE PUSH1 0x20 PUSH0 KECCAK256 SWAP1 JUMPDEST DUP2 SLOAD DUP2 MSTORE SWAP1 PUSH1 0x1 ADD SWAP1 PUSH1 0x20 ADD DUP1 DUP4 GT PUSH2 0x1626 JUMPI DUP3 SWAP1 SUB PUSH1 0x1F AND DUP3 ADD SWAP2 JUMPDEST POP POP POP SWAP2 DUP4 MSTORE POP POP PUSH1 0x4 DUP3 ADD SLOAD PUSH1 0x20 DUP3 ADD MSTORE PUSH1 0x5 DUP3 ADD SLOAD PUSH1 0x40 DUP3 ADD MSTORE PUSH1 0x6 DUP3 ADD SLOAD PUSH1 0xFF AND ISZERO ISZERO PUSH1 0x60 DUP3 ADD MSTORE PUSH1 0x7 SWAP1 SWAP2 ADD SLOAD PUSH1 0x80 SWAP1 SWAP2 ADD MSTORE SWAP3 SWAP2 POP POP JUMP JUMPDEST PUSH2 0x1688 PUSH2 0x189E JUMP JUMPDEST PUSH1 0x1 PUSH1 0x1 PUSH1 0xA0 SHL SUB DUP2 AND PUSH2 0x16B1 JUMPI PUSH1 0x40 MLOAD PUSH4 0x1E4FBDF7 PUSH1 0xE0 SHL DUP2 MSTORE PUSH0 PUSH1 0x4 DUP3 ADD MSTORE PUSH1 0x24 ADD PUSH2 0x60F JUMP JUMPDEST PUSH2 0x16BA DUP2 PUSH2 0x18CA JUMP JUMPDEST POP JUMP JUMPDEST PUSH1 0x1 SLOAD PUSH1 0x1 PUSH1 0x1 PUSH1 0xA0 SHL SUB AND CALLER EQ PUSH2 0x16E7 JUMPI PUSH1 0x40 MLOAD PUSH3 0x461BCD PUSH1 0xE5 SHL DUP2 MSTORE PUSH1 0x4 ADD PUSH2 0x60F SWAP1 PUSH2 0x220F JUMP JUMPDEST DUP1 CALLDATALOAD PUSH0 SUB PUSH2 0x1729 JUMPI PUSH1 0x40 MLOAD PUSH3 0x461BCD PUSH1 0xE5 SHL DUP2 MSTORE PUSH1 0x20 PUSH1 0x4 DUP3 ADD MSTORE PUSH1 0xF PUSH1 0x24 DUP3 ADD MSTORE PUSH15 0x125B9D985B1A590818D85CD9481251 PUSH1 0x8A SHL PUSH1 0x44 DUP3 ADD MSTORE PUSH1 0x64 ADD PUSH2 0x60F JUMP JUMPDEST PUSH0 PUSH2 0x173A PUSH1 0x40 DUP4 ADD PUSH1 0x20 DUP5 ADD PUSH2 0x1B43 JUMP JUMPDEST PUSH1 0x1 PUSH1 0x1 PUSH1 0xA0 SHL SUB AND SUB PUSH2 0x1781 JUMPI PUSH1 0x40 MLOAD PUSH3 0x461BCD PUSH1 0xE5 SHL DUP2 MSTORE PUSH1 0x20 PUSH1 0x4 DUP3 ADD MSTORE PUSH1 0xE PUSH1 0x24 DUP3 ADD MSTORE PUSH14 0x24B73B30B634B21036B2B6B132B9 PUSH1 0x91 SHL PUSH1 0x44 DUP3 ADD MSTORE PUSH1 0x64 ADD PUSH2 0x60F JUMP JUMPDEST PUSH0 PUSH2 0x1792 PUSH1 0x60 DUP4 ADD PUSH1 0x40 DUP5 ADD PUSH2 0x1B43 JUMP JUMPDEST PUSH1 0x1 PUSH1 0x1 PUSH1 0xA0 SHL SUB AND SUB PUSH2 0x17D9 JUMPI PUSH1 0x40 MLOAD PUSH3 0x461BCD PUSH1 0xE5 SHL DUP2 MSTORE PUSH1 0x20 PUSH1 0x4 DUP3 ADD MSTORE PUSH1 0xE PUSH1 0x24 DUP3 ADD MSTORE PUSH14 0x24B73B30B634B2103630BBBCB2B9 PUSH1 0x91 SHL PUSH1 0x44 DUP3 ADD MSTORE PUSH1 0x64 ADD PUSH2 0x60F JUMP JUMPDEST PUSH2 0x17E9 PUSH1 0xE0 DUP3 ADD PUSH1 0xC0 DUP4 ADD PUSH2 0x2833 JUMP JUMPDEST ISZERO PUSH2 0x17FC JUMPI PUSH2 0x17F7 DUP2 PUSH2 0x1919 JUMP JUMPDEST PUSH2 0x1805 JUMP JUMPDEST PUSH2 0x1805 DUP2 PUSH2 0x1A36 JUMP JUMPDEST DUP1 CALLDATALOAD PUSH0 SWAP1 DUP2 MSTORE PUSH1 0x7 PUSH1 0x20 MSTORE PUSH1 0x40 SWAP1 KECCAK256 DUP2 SWAP1 PUSH2 0x1820 DUP3 DUP3 PUSH2 0x2B8C JUMP JUMPDEST POP PUSH2 0x1833 SWAP1 POP PUSH1 0x60 DUP3 ADD PUSH1 0x40 DUP4 ADD PUSH2 0x1B43 JUMP JUMPDEST PUSH1 0x1 PUSH1 0x1 PUSH1 0xA0 SHL SUB AND PUSH2 0x184C PUSH1 0x40 DUP4 ADD PUSH1 0x20 DUP5 ADD PUSH2 0x1B43 JUMP JUMPDEST PUSH1 0x1 PUSH1 0x1 PUSH1 0xA0 SHL SUB AND DUP3 CALLDATALOAD PUSH32 0x3087C877B53A5024E8F601EA7F932C61BD51C5B78D732358BDAB9821C26E67F5 PUSH2 0x1888 PUSH1 0xE0 DUP7 ADD PUSH1 0xC0 DUP8 ADD PUSH2 0x2833 JUMP JUMPDEST PUSH1 0x40 MLOAD SWAP1 ISZERO ISZERO DUP2 MSTORE PUSH1 0x20 ADD PUSH1 0x40 MLOAD DUP1 SWAP2 SUB SWAP1 LOG4 POP JUMP JUMPDEST PUSH0 SLOAD PUSH1 0x1 PUSH1 0x1 PUSH1 0xA0 SHL SUB AND CALLER EQ PUSH2 0xA02 JUMPI PUSH1 0x40 MLOAD PUSH4 0x118CDAA7 PUSH1 0xE0 SHL DUP2 MSTORE CALLER PUSH1 0x4 DUP3 ADD MSTORE PUSH1 0x24 ADD PUSH2 0x60F JUMP JUMPDEST PUSH0 DUP1 SLOAD PUSH1 0x1 PUSH1 0x1 PUSH1 0xA0 SHL SUB DUP4 DUP2 AND PUSH1 0x1 PUSH1 0x1 PUSH1 0xA0 SHL SUB NOT DUP4 AND DUP2 OR DUP5 SSTORE PUSH1 0x40 MLOAD SWAP2 SWAP1 SWAP3 AND SWAP3 DUP4 SWAP2 PUSH32 0x8BE0079C531659141344CD1FD0A4F28419497F9722A3DAAFE3B4186F6B6457E0 SWAP2 SWAP1 LOG3 POP POP JUMP JUMPDEST PUSH0 PUSH1 0xB DUP2 PUSH2 0x192D PUSH1 0x60 DUP6 ADD PUSH1 0x40 DUP7 ADD PUSH2 0x1B43 JUMP JUMPDEST PUSH1 0x1 PUSH1 0x1 PUSH1 0xA0 SHL SUB AND DUP2 MSTORE PUSH1 0x20 DUP2 ADD SWAP2 SWAP1 SWAP2 MSTORE PUSH1 0x40 ADD PUSH0 SWAP1 DUP2 KECCAK256 SWAP2 POP JUMPDEST DUP2 SLOAD DUP2 LT ISZERO PUSH2 0x19EE JUMPI DUP3 PUSH0 ADD CALLDATALOAD DUP3 DUP3 DUP2 SLOAD DUP2 LT PUSH2 0x1969 JUMPI PUSH2 0x1969 PUSH2 0x2C18 JUMP JUMPDEST SWAP1 PUSH0 MSTORE PUSH1 0x20 PUSH0 KECCAK256 ADD SLOAD SUB PUSH2 0x19E6 JUMPI DUP2 SLOAD DUP3 SWAP1 PUSH2 0x1987 SWAP1 PUSH1 0x1 SWAP1 PUSH2 0x2C2C JUMP JUMPDEST DUP2 SLOAD DUP2 LT PUSH2 0x1997 JUMPI PUSH2 0x1997 PUSH2 0x2C18 JUMP JUMPDEST SWAP1 PUSH0 MSTORE PUSH1 0x20 PUSH0 KECCAK256 ADD SLOAD DUP3 DUP3 DUP2 SLOAD DUP2 LT PUSH2 0x19B2 JUMPI PUSH2 0x19B2 PUSH2 0x2C18 JUMP JUMPDEST SWAP1 PUSH0 MSTORE PUSH1 0x20 PUSH0 KECCAK256 ADD DUP2 SWAP1 SSTORE POP DUP2 DUP1 SLOAD DUP1 PUSH2 0x19CE JUMPI PUSH2 0x19CE PUSH2 0x2C3F JUMP JUMPDEST PUSH1 0x1 SWAP1 SUB DUP2 DUP2 SWAP1 PUSH0 MSTORE PUSH1 0x20 PUSH0 KECCAK256 ADD PUSH0 SWAP1 SSTORE SWAP1 SSTORE PUSH2 0x19EE JUMP JUMPDEST PUSH1 0x1 ADD PUSH2 0x194A JUMP JUMPDEST POP PUSH1 0xC PUSH0 PUSH2 0x1A02 PUSH1 0x60 DUP6 ADD PUSH1 0x40 DUP7 ADD PUSH2 0x1B43 JUMP JUMPDEST PUSH1 0x1 PUSH1 0x1 PUSH1 0xA0 SHL SUB AND DUP2 MSTORE PUSH1 0x20 DUP1 DUP3 ADD SWAP3 SWAP1 SWAP3 MSTORE PUSH1 0x40 ADD PUSH0 SWAP1 DUP2 KECCAK256 DUP1 SLOAD PUSH1 0x1 DUP2 ADD DUP3 SSTORE SWAP1 DUP3 MSTORE SWAP2 SWAP1 KECCAK256 SWAP3 CALLDATALOAD SWAP3 ADD SWAP2 SWAP1 SWAP2 SSTORE POP JUMP JUMPDEST PUSH0 PUSH1 0xB DUP2 PUSH2 0x1A4A PUSH1 0x60 DUP6 ADD PUSH1 0x40 DUP7 ADD PUSH2 0x1B43 JUMP JUMPDEST PUSH1 0x1 PUSH1 0x1 PUSH1 0xA0 SHL SUB AND DUP2 MSTORE PUSH1 0x20 DUP2 ADD SWAP2 SWAP1 SWAP2 MSTORE PUSH1 0x40 ADD PUSH0 KECCAK256 SWAP1 POP PUSH2 0x1A6F DUP2 DUP4 CALLDATALOAD PUSH2 0x1A8D JUMP JUMPDEST PUSH2 0x1A89 JUMPI DUP1 SLOAD PUSH1 0x1 DUP2 ADD DUP3 SSTORE PUSH0 DUP3 DUP2 MSTORE PUSH1 0x20 SWAP1 KECCAK256 DUP4 CALLDATALOAD SWAP2 ADD SSTORE JUMPDEST POP POP JUMP JUMPDEST PUSH0 DUP1 JUMPDEST DUP4 SLOAD DUP2 LT ISZERO PUSH2 0x1ACC JUMPI DUP3 DUP5 DUP3 DUP2 SLOAD DUP2 LT PUSH2 0x1AAC JUMPI PUSH2 0x1AAC PUSH2 0x2C18 JUMP JUMPDEST SWAP1 PUSH0 MSTORE PUSH1 0x20 PUSH0 KECCAK256 ADD SLOAD SUB PUSH2 0x1AC4 JUMPI PUSH1 0x1 SWAP2 POP POP PUSH2 0x1AD1 JUMP JUMPDEST PUSH1 0x1 ADD PUSH2 0x1A90 JUMP JUMPDEST POP PUSH0 SWAP1 POP JUMPDEST SWAP3 SWAP2 POP POP JUMP JUMPDEST PUSH1 0x40 MLOAD DUP1 PUSH2 0x100 ADD PUSH1 0x40 MSTORE DUP1 PUSH0 DUP2 MSTORE PUSH1 0x20 ADD PUSH0 PUSH1 0x1 PUSH1 0x1 PUSH1 0xA0 SHL SUB AND DUP2 MSTORE PUSH1 0x20 ADD PUSH1 0x60 DUP2 MSTORE PUSH1 0x20 ADD PUSH0 DUP2 MSTORE PUSH1 0x20 ADD PUSH0 PUSH1 0x2 DUP2 GT ISZERO PUSH2 0x1B17 JUMPI PUSH2 0x1B17 PUSH2 0x1EA2 JUMP JUMPDEST DUP2 MSTORE PUSH0 PUSH1 0x20 DUP3 ADD MSTORE PUSH1 0x60 PUSH1 0x40 DUP3 ADD DUP2 SWAP1 MSTORE SWAP1 DUP2 ADD MSTORE SWAP1 JUMP JUMPDEST PUSH1 0x1 PUSH1 0x1 PUSH1 0xA0 SHL SUB DUP2 AND DUP2 EQ PUSH2 0x16BA JUMPI PUSH0 PUSH0 REVERT JUMPDEST PUSH0 PUSH1 0x20 DUP3 DUP5 SUB SLT ISZERO PUSH2 0x1B53 JUMPI PUSH0 PUSH0 REVERT JUMPDEST DUP2 CALLDATALOAD PUSH2 0x1B5E DUP2 PUSH2 0x1B2F JUMP JUMPDEST SWAP4 SWAP3 POP POP POP JUMP JUMPDEST PUSH0 DUP2 MLOAD DUP1 DUP5 MSTORE DUP1 PUSH1 0x20 DUP5 ADD PUSH1 0x20 DUP7 ADD MCOPY PUSH0 PUSH1 0x20 DUP3 DUP7 ADD ADD MSTORE PUSH1 0x20 PUSH1 0x1F NOT PUSH1 0x1F DUP4 ADD AND DUP6 ADD ADD SWAP2 POP POP SWAP3 SWAP2 POP POP JUMP JUMPDEST PUSH1 0x20 DUP2 MSTORE PUSH1 0x1 DUP1 PUSH1 0xA0 SHL SUB DUP3 MLOAD AND PUSH1 0x20 DUP3 ADD MSTORE PUSH1 0x1 DUP1 PUSH1 0xA0 SHL SUB PUSH1 0x20 DUP4 ADD MLOAD AND PUSH1 0x40 DUP3 ADD MSTORE PUSH1 0x40 DUP3 ADD MLOAD PUSH1 0x60 DUP3 ADD MSTORE PUSH0 PUSH1 0x60 DUP4 ADD MLOAD PUSH1 0xE0 PUSH1 0x80 DUP5 ADD MSTORE PUSH2 0x1BDD PUSH2 0x100 DUP5 ADD DUP3 PUSH2 0x1B65 JUMP JUMPDEST SWAP1 POP PUSH1 0x80 DUP5 ADD MLOAD PUSH1 0xA0 DUP5 ADD MSTORE PUSH1 0xA0 DUP5 ADD MLOAD PUSH1 0xC0 DUP5 ADD MSTORE PUSH1 0xC0 DUP5 ADD MLOAD ISZERO ISZERO PUSH1 0xE0 DUP5 ADD MSTORE DUP1 SWAP2 POP POP SWAP3 SWAP2 POP POP JUMP JUMPDEST PUSH1 0x1 PUSH1 0x1 PUSH1 0xA0 SHL SUB DUP7 AND DUP2 MSTORE PUSH1 0xA0 PUSH1 0x20 DUP3 ADD DUP2 SWAP1 MSTORE PUSH0 SWAP1 PUSH2 0x1C2C SWAP1 DUP4 ADD DUP8 PUSH2 0x1B65 JUMP JUMPDEST PUSH1 0x40 DUP4 ADD SWAP6 SWAP1 SWAP6 MSTORE POP PUSH1 0x60 DUP2 ADD SWAP3 SWAP1 SWAP3 MSTORE ISZERO ISZERO PUSH1 0x80 SWAP1 SWAP2 ADD MSTORE SWAP3 SWAP2 POP POP JUMP JUMPDEST PUSH0 PUSH0 PUSH1 0x40 DUP4 DUP6 SUB SLT ISZERO PUSH2 0x1C5C JUMPI PUSH0 PUSH0 REVERT JUMPDEST DUP3 CALLDATALOAD SWAP2 POP PUSH1 0x20 DUP4 ADD CALLDATALOAD PUSH8 0xFFFFFFFFFFFFFFFF DUP2 GT ISZERO PUSH2 0x1C79 JUMPI PUSH0 PUSH0 REVERT JUMPDEST DUP4 ADD PUSH1 0x80 DUP2 DUP7 SUB SLT ISZERO PUSH2 0x1C8A JUMPI PUSH0 PUSH0 REVERT JUMPDEST DUP1 SWAP2 POP POP SWAP3 POP SWAP3 SWAP1 POP JUMP JUMPDEST PUSH1 0x20 DUP1 DUP3 MSTORE DUP3 MLOAD PUSH1 0x1 PUSH1 0x1 PUSH1 0xA0 SHL SUB AND DUP3 DUP3 ADD MSTORE DUP3 DUP2 ADD MLOAD PUSH1 0xC0 PUSH1 0x40 DUP5 ADD MSTORE DUP1 MLOAD PUSH1 0xE0 DUP5 ADD DUP2 SWAP1 MSTORE PUSH0 SWAP3 SWAP2 SWAP1 SWAP2 ADD SWAP1 DUP3 SWAP1 PUSH2 0x100 DUP6 ADD SWAP1 JUMPDEST DUP1 DUP4 LT ISZERO PUSH2 0x1CF0 JUMPI DUP4 MLOAD DUP3 MSTORE PUSH1 0x20 DUP3 ADD SWAP2 POP PUSH1 0x20 DUP5 ADD SWAP4 POP PUSH1 0x1 DUP4 ADD SWAP3 POP PUSH2 0x1CCD JUMP JUMPDEST POP PUSH1 0x40 DUP7 ADD MLOAD DUP6 DUP3 SUB PUSH1 0x1F NOT ADD PUSH1 0x60 DUP8 ADD MSTORE SWAP3 POP PUSH2 0x1D0E DUP2 DUP5 PUSH2 0x1B65 JUMP JUMPDEST SWAP3 POP POP POP PUSH1 0x60 DUP5 ADD MLOAD PUSH1 0x80 DUP5 ADD MSTORE PUSH1 0x80 DUP5 ADD MLOAD PUSH1 0xA0 DUP5 ADD MSTORE PUSH1 0xA0 DUP5 ADD MLOAD PUSH2 0x1D39 PUSH1 0xC0 DUP6 ADD DUP3 ISZERO ISZERO SWAP1 MSTORE JUMP JUMPDEST POP SWAP4 SWAP3 POP POP POP JUMP JUMPDEST PUSH0 PUSH1 0x20 DUP3 DUP5 SUB SLT ISZERO PUSH2 0x1D51 JUMPI PUSH0 PUSH0 REVERT JUMPDEST DUP2 CALLDATALOAD PUSH8 0xFFFFFFFFFFFFFFFF DUP2 GT ISZERO PUSH2 0x1D67 JUMPI PUSH0 PUSH0 REVERT JUMPDEST DUP3 ADD PUSH1 0xC0 DUP2 DUP6 SUB SLT ISZERO PUSH2 0x1B5E JUMPI PUSH0 PUSH0 REVERT JUMPDEST PUSH0 PUSH1 0x20 DUP3 DUP5 SUB SLT ISZERO PUSH2 0x1D88 JUMPI PUSH0 PUSH0 REVERT JUMPDEST POP CALLDATALOAD SWAP2 SWAP1 POP JUMP JUMPDEST DUP9 DUP2 MSTORE PUSH1 0x1 PUSH1 0x1 PUSH1 0xA0 SHL SUB DUP9 DUP2 AND PUSH1 0x20 DUP4 ADD MSTORE DUP8 AND PUSH1 0x40 DUP3 ADD MSTORE PUSH2 0x100 PUSH1 0x60 DUP3 ADD DUP2 SWAP1 MSTORE PUSH0 SWAP1 PUSH2 0x1DC1 SWAP1 DUP4 ADD DUP9 PUSH2 0x1B65 JUMP JUMPDEST PUSH1 0x80 DUP4 ADD SWAP7 SWAP1 SWAP7 MSTORE POP PUSH1 0xA0 DUP2 ADD SWAP4 SWAP1 SWAP4 MSTORE SWAP1 ISZERO ISZERO PUSH1 0xC0 DUP4 ADD MSTORE PUSH1 0xE0 SWAP1 SWAP2 ADD MSTORE SWAP5 SWAP4 POP POP POP POP JUMP JUMPDEST PUSH1 0x1 PUSH1 0x1 PUSH1 0xA0 SHL SUB DUP9 DUP2 AND DUP3 MSTORE DUP8 AND PUSH1 0x20 DUP3 ADD MSTORE PUSH1 0x40 DUP2 ADD DUP7 SWAP1 MSTORE PUSH1 0xE0 PUSH1 0x60 DUP3 ADD DUP2 SWAP1 MSTORE PUSH0 SWAP1 PUSH2 0x1E1A SWAP1 DUP4 ADD DUP8 PUSH2 0x1B65 JUMP JUMPDEST PUSH1 0x80 DUP4 ADD SWAP6 SWAP1 SWAP6 MSTORE POP PUSH1 0xA0 DUP2 ADD SWAP3 SWAP1 SWAP3 MSTORE ISZERO ISZERO PUSH1 0xC0 SWAP1 SWAP2 ADD MSTORE SWAP5 SWAP4 POP POP POP POP JUMP JUMPDEST PUSH0 DUP2 MLOAD DUP1 DUP5 MSTORE PUSH1 0x20 DUP5 ADD SWAP4 POP PUSH1 0x20 DUP4 ADD PUSH0 JUMPDEST DUP3 DUP2 LT ISZERO PUSH2 0x1E6B JUMPI DUP2 MLOAD DUP7 MSTORE PUSH1 0x20 SWAP6 DUP7 ADD SWAP6 SWAP1 SWAP2 ADD SWAP1 PUSH1 0x1 ADD PUSH2 0x1E4D JUMP JUMPDEST POP SWAP4 SWAP5 SWAP4 POP POP POP POP JUMP JUMPDEST PUSH1 0x40 DUP2 MSTORE PUSH0 PUSH2 0x1E87 PUSH1 0x40 DUP4 ADD DUP6 PUSH2 0x1E3B JUMP JUMPDEST DUP3 DUP2 SUB PUSH1 0x20 DUP5 ADD MSTORE PUSH2 0x1E99 DUP2 DUP6 PUSH2 0x1E3B JUMP JUMPDEST SWAP6 SWAP5 POP POP POP POP POP JUMP JUMPDEST PUSH4 0x4E487B71 PUSH1 0xE0 SHL PUSH0 MSTORE PUSH1 0x21 PUSH1 0x4 MSTORE PUSH1 0x24 PUSH0 REVERT JUMPDEST PUSH1 0x3 DUP2 LT PUSH2 0x1ED2 JUMPI PUSH4 0x4E487B71 PUSH1 0xE0 SHL PUSH0 MSTORE PUSH1 0x21 PUSH1 0x4 MSTORE PUSH1 0x24 PUSH0 REVERT JUMPDEST SWAP1 MSTORE JUMP JUMPDEST DUP7 DUP2 MSTORE PUSH1 0x1 PUSH1 0x1 PUSH1 0xA0 SHL SUB DUP7 AND PUSH1 0x20 DUP3 ADD MSTORE PUSH1 0xC0 PUSH1 0x40 DUP3 ADD DUP2 SWAP1 MSTORE PUSH0 SWAP1 PUSH2 0x1EFF SWAP1 DUP4 ADD DUP8 PUSH2 0x1B65 JUMP JUMPDEST SWAP1 POP DUP5 PUSH1 0x60 DUP4 ADD MSTORE PUSH2 0x1F14 PUSH1 0x80 DUP4 ADD DUP6 PUSH2 0x1EB6 JUMP JUMPDEST PUSH1 0x1 PUSH1 0x1 PUSH1 0xA0 SHL SUB SWAP3 SWAP1 SWAP3 AND PUSH1 0xA0 SWAP2 SWAP1 SWAP2 ADD MSTORE SWAP6 SWAP5 POP POP POP POP POP JUMP JUMPDEST PUSH0 PUSH2 0x100 DUP3 DUP5 SUB SLT ISZERO PUSH2 0x1F41 JUMPI PUSH0 PUSH0 REVERT JUMPDEST POP SWAP2 SWAP1 POP JUMP JUMPDEST PUSH0 PUSH1 0x20 DUP3 DUP5 SUB SLT ISZERO PUSH2 0x1F57 JUMPI PUSH0 PUSH0 REVERT JUMPDEST DUP2 CALLDATALOAD PUSH8 0xFFFFFFFFFFFFFFFF DUP2 GT ISZERO PUSH2 0x1F6D JUMPI PUSH0 PUSH0 REVERT JUMPDEST PUSH2 0x1F79 DUP5 DUP3 DUP6 ADD PUSH2 0x1F30 JUMP JUMPDEST SWAP5 SWAP4 POP POP POP POP JUMP JUMPDEST PUSH0 DUP3 DUP3 MLOAD DUP1 DUP6 MSTORE PUSH1 0x20 DUP6 ADD SWAP5 POP PUSH1 0x20 DUP2 PUSH1 0x5 SHL DUP4 ADD ADD PUSH1 0x20 DUP6 ADD PUSH0 JUMPDEST DUP4 DUP2 LT ISZERO PUSH2 0x1FCF JUMPI PUSH1 0x1F NOT DUP6 DUP5 SUB ADD DUP9 MSTORE PUSH2 0x1FB9 DUP4 DUP4 MLOAD PUSH2 0x1B65 JUMP JUMPDEST PUSH1 0x20 SWAP9 DUP10 ADD SWAP9 SWAP1 SWAP4 POP SWAP2 SWAP1 SWAP2 ADD SWAP1 PUSH1 0x1 ADD PUSH2 0x1F9D JUMP JUMPDEST POP SWAP1 SWAP7 SWAP6 POP POP POP POP POP POP JUMP JUMPDEST PUSH0 DUP3 DUP3 MLOAD DUP1 DUP6 MSTORE PUSH1 0x20 DUP6 ADD SWAP5 POP PUSH1 0x20 DUP2 PUSH1 0x5 SHL DUP4 ADD ADD PUSH1 0x20 DUP6 ADD PUSH0 JUMPDEST DUP4 DUP2 LT ISZERO PUSH2 0x1FCF JUMPI PUSH1 0x1F NOT DUP6 DUP5 SUB ADD DUP9 MSTORE DUP2 MLOAD PUSH1 0x1 DUP1 PUSH1 0xA0 SHL SUB DUP2 MLOAD AND DUP5 MSTORE PUSH1 0x20 DUP2 ADD MLOAD PUSH1 0x20 DUP6 ADD MSTORE PUSH1 0x40 DUP2 ADD MLOAD PUSH1 0x80 PUSH1 0x40 DUP7 ADD MSTORE PUSH2 0x2039 PUSH1 0x80 DUP7 ADD DUP3 PUSH2 0x1B65 JUMP JUMPDEST SWAP1 POP PUSH1 0x60 DUP3 ADD MLOAD SWAP2 POP DUP5 DUP2 SUB PUSH1 0x60 DUP7 ADD MSTORE PUSH2 0x2054 DUP2 DUP4 PUSH2 0x1F81 JUMP JUMPDEST PUSH1 0x20 SWAP11 DUP12 ADD SWAP11 SWAP1 SWAP6 POP SWAP4 SWAP1 SWAP4 ADD SWAP3 POP POP PUSH1 0x1 ADD PUSH2 0x1FF7 JUMP JUMPDEST PUSH1 0x20 DUP2 MSTORE DUP2 MLOAD PUSH1 0x20 DUP3 ADD MSTORE PUSH0 PUSH1 0x20 DUP4 ADD MLOAD PUSH2 0x2092 PUSH1 0x40 DUP5 ADD DUP3 PUSH1 0x1 PUSH1 0x1 PUSH1 0xA0 SHL SUB AND SWAP1 MSTORE JUMP JUMPDEST POP PUSH1 0x40 DUP4 ADD MLOAD PUSH2 0x100 PUSH1 0x60 DUP5 ADD MSTORE PUSH2 0x20AE PUSH2 0x120 DUP5 ADD DUP3 PUSH2 0x1B65 JUMP JUMPDEST SWAP1 POP PUSH1 0x60 DUP5 ADD MLOAD PUSH1 0x80 DUP5 ADD MSTORE PUSH1 0x80 DUP5 ADD MLOAD PUSH2 0x20CC PUSH1 0xA0 DUP6 ADD DUP3 PUSH2 0x1EB6 JUMP JUMPDEST POP PUSH1 0xA0 DUP5 ADD MLOAD PUSH1 0x1 PUSH1 0x1 PUSH1 0xA0 SHL SUB DUP2 AND PUSH1 0xC0 DUP6 ADD MSTORE POP PUSH1 0xC0 DUP5 ADD MLOAD DUP4 DUP3 SUB PUSH1 0x1F NOT ADD PUSH1 0xE0 DUP6 ADD MSTORE PUSH2 0x20FD DUP3 DUP3 PUSH2 0x1FDB JUMP JUMPDEST SWAP2 POP POP PUSH1 0xE0 DUP5 ADD MLOAD PUSH1 0x1F NOT DUP5 DUP4 SUB ADD PUSH2 0x100 DUP6 ADD MSTORE PUSH2 0x1E99 DUP3 DUP3 PUSH2 0x1F81 JUMP JUMPDEST PUSH0 PUSH1 0x20 DUP3 DUP5 SUB SLT ISZERO PUSH2 0x212C JUMPI PUSH0 PUSH0 REVERT JUMPDEST DUP2 CALLDATALOAD PUSH8 0xFFFFFFFFFFFFFFFF DUP2 GT ISZERO PUSH2 0x2142 JUMPI PUSH0 PUSH0 REVERT JUMPDEST DUP3 ADD PUSH1 0xE0 DUP2 DUP6 SUB SLT ISZERO PUSH2 0x1B5E JUMPI PUSH0 PUSH0 REVERT JUMPDEST PUSH1 0x20 DUP2 MSTORE DUP2 MLOAD PUSH1 0x20 DUP3 ADD MSTORE PUSH1 0x1 DUP1 PUSH1 0xA0 SHL SUB PUSH1 0x20 DUP4 ADD MLOAD AND PUSH1 0x40 DUP3 ADD MSTORE PUSH1 0x1 DUP1 PUSH1 0xA0 SHL SUB PUSH1 0x40 DUP4 ADD MLOAD AND PUSH1 0x60 DUP3 ADD MSTORE PUSH0 PUSH1 0x60 DUP4 ADD MLOAD PUSH2 0x100 PUSH1 0x80 DUP5 ADD MSTORE PUSH2 0x219E PUSH2 0x120 DUP5 ADD DUP3 PUSH2 0x1B65 JUMP JUMPDEST SWAP1 POP PUSH1 0x80 DUP5 ADD MLOAD PUSH1 0xA0 DUP5 ADD MSTORE PUSH1 0xA0 DUP5 ADD MLOAD PUSH1 0xC0 DUP5 ADD MSTORE PUSH1 0xC0 DUP5 ADD MLOAD PUSH2 0x21C7 PUSH1 0xE0 DUP6 ADD DUP3 ISZERO ISZERO SWAP1 MSTORE JUMP JUMPDEST POP PUSH1 0xE0 DUP5 ADD MLOAD PUSH2 0x100 DUP5 ADD MSTORE DUP1 SWAP2 POP POP SWAP3 SWAP2 POP POP JUMP JUMPDEST PUSH1 0x1 DUP2 DUP2 SHR SWAP1 DUP3 AND DUP1 PUSH2 0x21F1 JUMPI PUSH1 0x7F DUP3 AND SWAP2 POP JUMPDEST PUSH1 0x20 DUP3 LT DUP2 SUB PUSH2 0x1F41 JUMPI PUSH4 0x4E487B71 PUSH1 0xE0 SHL PUSH0 MSTORE PUSH1 0x22 PUSH1 0x4 MSTORE PUSH1 0x24 PUSH0 REVERT JUMPDEST PUSH1 0x20 DUP1 DUP3 MSTORE PUSH1 0x13 SWAP1 DUP3 ADD MSTORE PUSH19 0x556E617574686F72697A656420616363657373 PUSH1 0x68 SHL PUSH1 0x40 DUP3 ADD MSTORE PUSH1 0x60 ADD SWAP1 JUMP JUMPDEST PUSH4 0x4E487B71 PUSH1 0xE0 SHL PUSH0 MSTORE PUSH1 0x11 PUSH1 0x4 MSTORE PUSH1 0x24 PUSH0 REVERT JUMPDEST PUSH0 PUSH1 0x1 DUP3 ADD PUSH2 0x2261 JUMPI PUSH2 0x2261 PUSH2 0x223C JUMP JUMPDEST POP PUSH1 0x1 ADD SWAP1 JUMP JUMPDEST PUSH0 DUP2 CALLDATALOAD PUSH2 0x1AD1 DUP2 PUSH2 0x1B2F JUMP JUMPDEST DUP1 SLOAD PUSH1 0x1 PUSH1 0x1 PUSH1 0xA0 SHL SUB NOT AND PUSH1 0x1 PUSH1 0x1 PUSH1 0xA0 SHL SUB SWAP3 SWAP1 SWAP3 AND SWAP2 SWAP1 SWAP2 OR SWAP1 SSTORE JUMP JUMPDEST PUSH0 PUSH0 DUP4 CALLDATALOAD PUSH1 0x1E NOT DUP5 CALLDATASIZE SUB ADD DUP2 SLT PUSH2 0x22A9 JUMPI PUSH0 PUSH0 REVERT JUMPDEST DUP4 ADD DUP1 CALLDATALOAD SWAP2 POP PUSH8 0xFFFFFFFFFFFFFFFF DUP3 GT ISZERO PUSH2 0x22C3 JUMPI PUSH0 PUSH0 REVERT JUMPDEST PUSH1 0x20 ADD SWAP2 POP CALLDATASIZE DUP2 SWAP1 SUB DUP3 SGT ISZERO PUSH2 0x22D7 JUMPI PUSH0 PUSH0 REVERT JUMPDEST SWAP3 POP SWAP3 SWAP1 POP JUMP JUMPDEST PUSH4 0x4E487B71 PUSH1 0xE0 SHL PUSH0 MSTORE PUSH1 0x41 PUSH1 0x4 MSTORE PUSH1 0x24 PUSH0 REVERT JUMPDEST JUMPDEST DUP2 DUP2 LT ISZERO PUSH2 0x1A89 JUMPI PUSH0 DUP2 SSTORE PUSH1 0x1 ADD PUSH2 0x22F3 JUMP JUMPDEST PUSH1 0x1F DUP3 GT ISZERO PUSH2 0x2340 JUMPI DUP1 PUSH0 MSTORE PUSH1 0x20 PUSH0 KECCAK256 PUSH1 0x1F DUP5 ADD PUSH1 0x5 SHR DUP2 ADD PUSH1 0x20 DUP6 LT ISZERO PUSH2 0x232B JUMPI POP DUP1 JUMPDEST PUSH2 0x233D PUSH1 0x1F DUP6 ADD PUSH1 0x5 SHR DUP4 ADD DUP3 PUSH2 0x22F2 JUMP JUMPDEST POP POP JUMPDEST POP POP POP JUMP JUMPDEST PUSH0 NOT PUSH1 0x3 DUP4 SWAP1 SHL SHR NOT AND PUSH1 0x1 SWAP2 SWAP1 SWAP2 SHL OR SWAP1 JUMP JUMPDEST PUSH8 0xFFFFFFFFFFFFFFFF DUP4 GT ISZERO PUSH2 0x2371 JUMPI PUSH2 0x2371 PUSH2 0x22DE JUMP JUMPDEST PUSH2 0x2385 DUP4 PUSH2 0x237F DUP4 SLOAD PUSH2 0x21DD JUMP JUMPDEST DUP4 PUSH2 0x2306 JUMP JUMPDEST PUSH0 PUSH1 0x1F DUP5 GT PUSH1 0x1 DUP2 EQ PUSH2 0x23B1 JUMPI PUSH0 DUP6 ISZERO PUSH2 0x239F JUMPI POP DUP4 DUP3 ADD CALLDATALOAD JUMPDEST PUSH2 0x23A9 DUP7 DUP3 PUSH2 0x2345 JUMP JUMPDEST DUP5 SSTORE POP PUSH2 0x233D JUMP JUMPDEST PUSH0 DUP4 DUP2 MSTORE PUSH1 0x20 DUP2 KECCAK256 PUSH1 0x1F NOT DUP8 AND SWAP2 JUMPDEST DUP3 DUP2 LT ISZERO PUSH2 0x23E0 JUMPI DUP7 DUP6 ADD CALLDATALOAD DUP3 SSTORE PUSH1 0x20 SWAP5 DUP6 ADD SWAP5 PUSH1 0x1 SWAP1 SWAP3 ADD SWAP2 ADD PUSH2 0x23C0 JUMP JUMPDEST POP DUP7 DUP3 LT ISZERO PUSH2 0x23FC JUMPI PUSH0 NOT PUSH1 0xF8 DUP9 PUSH1 0x3 SHL AND SHR NOT DUP5 DUP8 ADD CALLDATALOAD AND DUP2 SSTORE JUMPDEST POP POP PUSH1 0x1 DUP6 PUSH1 0x1 SHL ADD DUP4 SSTORE POP POP POP POP POP JUMP JUMPDEST PUSH0 PUSH0 DUP4 CALLDATALOAD PUSH1 0x1E NOT DUP5 CALLDATASIZE SUB ADD DUP2 SLT PUSH2 0x2423 JUMPI PUSH0 PUSH0 REVERT JUMPDEST DUP4 ADD DUP1 CALLDATALOAD SWAP2 POP PUSH8 0xFFFFFFFFFFFFFFFF DUP3 GT ISZERO PUSH2 0x243D JUMPI PUSH0 PUSH0 REVERT JUMPDEST PUSH1 0x20 ADD SWAP2 POP PUSH1 0x5 DUP2 SWAP1 SHL CALLDATASIZE SUB DUP3 SGT ISZERO PUSH2 0x22D7 JUMPI PUSH0 PUSH0 REVERT JUMPDEST DUP1 SLOAD PUSH2 0x245F SWAP1 PUSH2 0x21DD JUMP JUMPDEST DUP1 ISZERO PUSH2 0x1A89 JUMPI PUSH1 0x1F DUP2 GT PUSH1 0x1 DUP2 EQ PUSH2 0x2478 JUMPI POP POP PUSH0 SWAP1 SSTORE JUMP JUMPDEST PUSH0 DUP4 DUP2 MSTORE PUSH1 0x20 SWAP1 KECCAK256 PUSH2 0x2495 PUSH1 0x1F DUP5 ADD PUSH1 0x5 SHR DUP3 ADD PUSH1 0x1 DUP4 ADD PUSH2 0x22F2 JUMP JUMPDEST POP PUSH0 DUP4 DUP2 MSTORE PUSH1 0x20 DUP2 KECCAK256 DUP2 DUP6 SSTORE SSTORE POP POP POP JUMP JUMPDEST DUP1 SLOAD PUSH0 DUP3 SSTORE DUP1 ISZERO PUSH2 0x1A89 JUMPI DUP2 PUSH0 MSTORE PUSH1 0x20 PUSH0 KECCAK256 DUP2 DUP2 ADD JUMPDEST DUP1 DUP3 LT ISZERO PUSH2 0x24D9 JUMPI PUSH2 0x24CE DUP3 PUSH2 0x2454 JUMP JUMPDEST PUSH1 0x1 DUP3 ADD SWAP2 POP PUSH2 0x24BD JUMP JUMPDEST POP POP POP POP JUMP JUMPDEST PUSH1 0x1 PUSH1 0x40 SHL DUP3 GT ISZERO PUSH2 0x24F3 JUMPI PUSH2 0x24F3 PUSH2 0x22DE JUMP JUMPDEST DUP1 SLOAD DUP3 DUP3 SSTORE DUP1 DUP4 LT ISZERO PUSH2 0x2340 JUMPI PUSH0 DUP3 DUP2 MSTORE PUSH1 0x20 SWAP1 KECCAK256 DUP4 DUP2 ADD SWAP1 DUP3 ADD JUMPDEST DUP1 DUP3 LT ISZERO PUSH2 0x233D JUMPI PUSH2 0x2520 DUP3 PUSH2 0x2454 JUMP JUMPDEST PUSH1 0x1 DUP3 ADD SWAP2 POP PUSH2 0x250F JUMP JUMPDEST PUSH2 0x2535 DUP4 DUP3 PUSH2 0x24DF JUMP JUMPDEST DUP2 DUP2 PUSH0 MSTORE PUSH1 0x20 PUSH0 KECCAK256 PUSH0 JUMPDEST DUP6 DUP2 LT ISZERO PUSH2 0x2617 JUMPI PUSH2 0x2551 DUP4 DUP7 PUSH2 0x2294 JUMP JUMPDEST PUSH8 0xFFFFFFFFFFFFFFFF DUP2 GT ISZERO PUSH2 0x2569 JUMPI PUSH2 0x2569 PUSH2 0x22DE JUMP JUMPDEST PUSH2 0x257D DUP2 PUSH2 0x2577 DUP7 SLOAD PUSH2 0x21DD JUMP JUMPDEST DUP7 PUSH2 0x2306 JUMP JUMPDEST PUSH0 PUSH1 0x1F DUP3 GT PUSH1 0x1 DUP2 EQ PUSH2 0x25A9 JUMPI PUSH0 DUP4 ISZERO PUSH2 0x2597 JUMPI POP DUP4 DUP3 ADD CALLDATALOAD JUMPDEST PUSH2 0x25A1 DUP5 DUP3 PUSH2 0x2345 JUMP JUMPDEST DUP8 SSTORE POP PUSH2 0x2600 JUMP JUMPDEST PUSH0 DUP7 DUP2 MSTORE PUSH1 0x20 DUP2 KECCAK256 PUSH1 0x1F NOT DUP6 AND SWAP2 JUMPDEST DUP3 DUP2 LT ISZERO PUSH2 0x25D8 JUMPI DUP7 DUP6 ADD CALLDATALOAD DUP3 SSTORE PUSH1 0x20 SWAP5 DUP6 ADD SWAP5 PUSH1 0x1 SWAP1 SWAP3 ADD SWAP2 ADD PUSH2 0x25B8 JUMP JUMPDEST POP DUP5 DUP3 LT ISZERO PUSH2 0x25F4 JUMPI PUSH0 NOT PUSH1 0xF8 DUP7 PUSH1 0x3 SHL AND SHR NOT DUP5 DUP8 ADD CALLDATALOAD AND DUP2 SSTORE JUMPDEST POP POP PUSH1 0x1 DUP4 PUSH1 0x1 SHL ADD DUP7 SSTORE JUMPDEST POP POP POP PUSH1 0x20 SWAP4 SWAP1 SWAP4 ADD SWAP3 POP PUSH1 0x1 SWAP2 DUP3 ADD SWAP2 ADD PUSH2 0x253F JUMP JUMPDEST POP POP POP POP POP POP JUMP JUMPDEST DUP2 CALLDATALOAD PUSH2 0x262A DUP2 PUSH2 0x1B2F JUMP JUMPDEST PUSH2 0x2634 DUP2 DUP4 PUSH2 0x2274 JUMP JUMPDEST POP PUSH1 0x20 DUP3 ADD CALLDATALOAD PUSH1 0x1 DUP3 ADD SSTORE PUSH1 0x2 DUP2 ADD PUSH2 0x2650 PUSH1 0x40 DUP5 ADD DUP5 PUSH2 0x2294 JUMP JUMPDEST PUSH8 0xFFFFFFFFFFFFFFFF DUP2 GT ISZERO PUSH2 0x2668 JUMPI PUSH2 0x2668 PUSH2 0x22DE JUMP JUMPDEST PUSH2 0x267C DUP2 PUSH2 0x2676 DUP6 SLOAD PUSH2 0x21DD JUMP JUMPDEST DUP6 PUSH2 0x2306 JUMP JUMPDEST PUSH0 PUSH1 0x1F DUP3 GT PUSH1 0x1 DUP2 EQ PUSH2 0x26A8 JUMPI PUSH0 DUP4 ISZERO PUSH2 0x2696 JUMPI POP DUP4 DUP3 ADD CALLDATALOAD JUMPDEST PUSH2 0x26A0 DUP5 DUP3 PUSH2 0x2345 JUMP JUMPDEST DUP7 SSTORE POP PUSH2 0x26FF JUMP JUMPDEST PUSH0 DUP6 DUP2 MSTORE PUSH1 0x20 DUP2 KECCAK256 PUSH1 0x1F NOT DUP6 AND SWAP2 JUMPDEST DUP3 DUP2 LT ISZERO PUSH2 0x26D7 JUMPI DUP7 DUP6 ADD CALLDATALOAD DUP3 SSTORE PUSH1 0x20 SWAP5 DUP6 ADD SWAP5 PUSH1 0x1 SWAP1 SWAP3 ADD SWAP2 ADD PUSH2 0x26B7 JUMP JUMPDEST POP DUP5 DUP3 LT ISZERO PUSH2 0x26F3 JUMPI PUSH0 NOT PUSH1 0xF8 DUP7 PUSH1 0x3 SHL AND SHR NOT DUP5 DUP8 ADD CALLDATALOAD AND DUP2 SSTORE JUMPDEST POP POP PUSH1 0x1 DUP4 PUSH1 0x1 SHL ADD DUP6 SSTORE JUMPDEST POP POP POP POP POP PUSH2 0x2711 PUSH1 0x60 DUP4 ADD DUP4 PUSH2 0x240E JUMP JUMPDEST PUSH2 0x24D9 DUP2 DUP4 PUSH1 0x3 DUP7 ADD PUSH2 0x252B JUMP JUMPDEST DUP1 ISZERO ISZERO DUP2 EQ PUSH2 0x16BA JUMPI PUSH0 PUSH0 REVERT JUMPDEST PUSH0 DUP2 CALLDATALOAD PUSH2 0x1AD1 DUP2 PUSH2 0x271F JUMP JUMPDEST DUP2 CALLDATALOAD PUSH2 0x2743 DUP2 PUSH2 0x1B2F JUMP JUMPDEST PUSH2 0x274D DUP2 DUP4 PUSH2 0x2274 JUMP JUMPDEST POP PUSH1 0x1 DUP2 ADD PUSH2 0x275F PUSH1 0x20 DUP5 ADD DUP5 PUSH2 0x240E JUMP JUMPDEST PUSH8 0xFFFFFFFFFFFFFFFF DUP2 GT ISZERO PUSH2 0x2777 JUMPI PUSH2 0x2777 PUSH2 0x22DE JUMP JUMPDEST PUSH1 0x1 PUSH1 0x40 SHL DUP2 GT ISZERO PUSH2 0x278B JUMPI PUSH2 0x278B PUSH2 0x22DE JUMP JUMPDEST DUP3 SLOAD DUP2 DUP5 SSTORE DUP1 DUP3 LT ISZERO PUSH2 0x27AF JUMPI DUP4 PUSH0 MSTORE PUSH1 0x20 PUSH0 KECCAK256 PUSH2 0x27AD DUP3 DUP3 ADD DUP5 DUP4 ADD PUSH2 0x22F2 JUMP JUMPDEST POP JUMPDEST POP PUSH0 SWAP3 DUP4 MSTORE PUSH1 0x20 DUP4 KECCAK256 SWAP3 JUMPDEST DUP2 DUP2 LT ISZERO PUSH2 0x27D6 JUMPI DUP3 CALLDATALOAD DUP5 DUP3 ADD SSTORE PUSH1 0x20 SWAP1 SWAP3 ADD SWAP2 PUSH1 0x1 ADD PUSH2 0x27BA JUMP JUMPDEST POP POP POP POP PUSH2 0x27E7 PUSH1 0x40 DUP4 ADD DUP4 PUSH2 0x2294 JUMP JUMPDEST PUSH2 0x27F5 DUP2 DUP4 PUSH1 0x2 DUP7 ADD PUSH2 0x2359 JUMP JUMPDEST POP POP PUSH1 0x60 DUP3 ADD CALLDATALOAD PUSH1 0x3 DUP3 ADD SSTORE PUSH1 0x80 DUP3 ADD CALLDATALOAD PUSH1 0x4 DUP3 ADD SSTORE PUSH2 0x1A89 PUSH2 0x281A PUSH1 0xA0 DUP5 ADD PUSH2 0x272C JUMP JUMPDEST PUSH1 0x5 DUP4 ADD PUSH1 0xFF NOT DUP2 SLOAD AND PUSH1 0xFF DUP4 ISZERO ISZERO AND DUP2 OR DUP3 SSTORE POP POP POP JUMP JUMPDEST PUSH0 PUSH1 0x20 DUP3 DUP5 SUB SLT ISZERO PUSH2 0x2843 JUMPI PUSH0 PUSH0 REVERT JUMPDEST DUP2 CALLDATALOAD PUSH2 0x1B5E DUP2 PUSH2 0x271F JUMP JUMPDEST PUSH1 0x3 DUP3 LT PUSH2 0x286A JUMPI PUSH4 0x4E487B71 PUSH1 0xE0 SHL PUSH0 MSTORE PUSH1 0x21 PUSH1 0x4 MSTORE PUSH1 0x24 PUSH0 REVERT JUMPDEST PUSH1 0xFF NOT DUP2 SLOAD AND PUSH1 0xFF DUP4 AND DUP2 OR DUP3 SSTORE POP POP POP JUMP JUMPDEST PUSH0 DUP3 CALLDATALOAD PUSH1 0x7E NOT DUP4 CALLDATASIZE SUB ADD DUP2 SLT PUSH2 0x2891 JUMPI PUSH0 PUSH0 REVERT JUMPDEST SWAP2 SWAP1 SWAP2 ADD SWAP3 SWAP2 POP POP JUMP JUMPDEST PUSH1 0x1 PUSH1 0x40 SHL DUP4 GT ISZERO PUSH2 0x28AF JUMPI PUSH2 0x28AF PUSH2 0x22DE JUMP JUMPDEST DUP1 SLOAD DUP4 DUP3 SSTORE DUP1 DUP5 LT ISZERO PUSH2 0x2939 JUMPI PUSH1 0x1 PUSH1 0x1 PUSH1 0xFE SHL SUB DUP2 AND DUP2 EQ PUSH2 0x28D4 JUMPI PUSH2 0x28D4 PUSH2 0x223C JUMP JUMPDEST PUSH1 0x1 PUSH1 0x1 PUSH1 0xFE SHL SUB DUP5 AND DUP5 EQ PUSH2 0x28EC JUMPI PUSH2 0x28EC PUSH2 0x223C JUMP JUMPDEST DUP2 PUSH0 MSTORE PUSH1 0x20 PUSH0 KECCAK256 DUP2 PUSH1 0x2 SHL DUP2 ADD DUP6 PUSH1 0x2 SHL DUP3 ADD SWAP2 POP JUMPDEST DUP1 DUP3 LT ISZERO PUSH2 0x2936 JUMPI PUSH0 DUP3 SSTORE PUSH0 PUSH1 0x1 DUP4 ADD SSTORE PUSH2 0x291F PUSH1 0x2 DUP4 ADD PUSH2 0x2454 JUMP JUMPDEST PUSH2 0x292B PUSH1 0x3 DUP4 ADD PUSH2 0x24A7 JUMP JUMPDEST PUSH1 0x4 DUP3 ADD SWAP2 POP PUSH2 0x2902 JUMP JUMPDEST POP POP JUMPDEST POP PUSH0 DUP2 DUP2 MSTORE PUSH1 0x20 DUP2 KECCAK256 DUP4 SWAP2 JUMPDEST DUP6 DUP2 LT ISZERO PUSH2 0x2617 JUMPI PUSH2 0x2960 PUSH2 0x295A DUP5 DUP8 PUSH2 0x287D JUMP JUMPDEST DUP4 PUSH2 0x261F JUMP JUMPDEST PUSH1 0x20 SWAP3 SWAP1 SWAP3 ADD SWAP2 PUSH1 0x4 SWAP2 SWAP1 SWAP2 ADD SWAP1 PUSH1 0x1 ADD PUSH2 0x2945 JUMP JUMPDEST DUP2 CALLDATALOAD DUP2 SSTORE PUSH1 0x20 DUP3 ADD CALLDATALOAD PUSH2 0x2988 DUP2 PUSH2 0x1B2F JUMP JUMPDEST PUSH2 0x2995 DUP2 PUSH1 0x1 DUP5 ADD PUSH2 0x2274 JUMP JUMPDEST POP PUSH2 0x29A3 PUSH1 0x40 DUP4 ADD DUP4 PUSH2 0x2294 JUMP JUMPDEST PUSH2 0x29B1 DUP2 DUP4 PUSH1 0x2 DUP7 ADD PUSH2 0x2359 JUMP JUMPDEST POP POP PUSH0 PUSH1 0x60 DUP4 ADD CALLDATALOAD SWAP1 POP DUP1 PUSH1 0x3 DUP4 ADD SSTORE POP PUSH1 0x4 DUP2 ADD PUSH0 PUSH1 0x80 DUP5 ADD CALLDATALOAD PUSH1 0x3 DUP2 LT PUSH2 0x29D8 JUMPI PUSH0 PUSH0 REVERT JUMPDEST DUP1 SWAP2 POP PUSH2 0x29E5 DUP2 DUP5 PUSH2 0x284E JUMP JUMPDEST POP POP PUSH2 0x2A1C PUSH2 0x29F6 PUSH1 0xA0 DUP6 ADD PUSH2 0x2268 JUMP JUMPDEST DUP3 DUP1 SLOAD PUSH2 0x100 PUSH1 0x1 PUSH1 0xA8 SHL SUB NOT AND PUSH1 0x8 SWAP3 SWAP1 SWAP3 SHL PUSH2 0x100 PUSH1 0x1 PUSH1 0xA8 SHL SUB AND SWAP2 SWAP1 SWAP2 OR SWAP1 SSTORE JUMP JUMPDEST POP PUSH2 0x2A2A PUSH1 0xC0 DUP4 ADD DUP4 PUSH2 0x240E JUMP JUMPDEST PUSH2 0x2A38 DUP2 DUP4 PUSH1 0x5 DUP7 ADD PUSH2 0x289B JUMP JUMPDEST POP POP PUSH2 0x2A47 PUSH1 0xE0 DUP4 ADD DUP4 PUSH2 0x240E JUMP JUMPDEST PUSH2 0x24D9 DUP2 DUP4 PUSH1 0x6 DUP7 ADD PUSH2 0x252B JUMP JUMPDEST DUP2 CALLDATALOAD PUSH2 0x2A60 DUP2 PUSH2 0x1B2F JUMP JUMPDEST PUSH2 0x2A6A DUP2 DUP4 PUSH2 0x2274 JUMP JUMPDEST POP PUSH1 0x20 DUP3 ADD CALLDATALOAD PUSH2 0x2A79 DUP2 PUSH2 0x1B2F JUMP JUMPDEST PUSH2 0x2A86 DUP2 PUSH1 0x1 DUP5 ADD PUSH2 0x2274 JUMP JUMPDEST POP PUSH1 0x40 DUP3 ADD CALLDATALOAD PUSH1 0x2 DUP3 ADD SSTORE PUSH1 0x3 DUP2 ADD PUSH2 0x2AA2 PUSH1 0x60 DUP5 ADD DUP5 PUSH2 0x2294 JUMP JUMPDEST PUSH8 0xFFFFFFFFFFFFFFFF DUP2 GT ISZERO PUSH2 0x2ABA JUMPI PUSH2 0x2ABA PUSH2 0x22DE JUMP JUMPDEST PUSH2 0x2AC8 DUP2 PUSH2 0x2676 DUP6 SLOAD PUSH2 0x21DD JUMP JUMPDEST PUSH0 PUSH1 0x1F DUP3 GT PUSH1 0x1 DUP2 EQ PUSH2 0x2AF4 JUMPI PUSH0 DUP4 ISZERO PUSH2 0x2AE2 JUMPI POP DUP4 DUP3 ADD CALLDATALOAD JUMPDEST PUSH2 0x2AEC DUP5 DUP3 PUSH2 0x2345 JUMP JUMPDEST DUP7 SSTORE POP PUSH2 0x2B4B JUMP JUMPDEST PUSH0 DUP6 DUP2 MSTORE PUSH1 0x20 DUP2 KECCAK256 PUSH1 0x1F NOT DUP6 AND SWAP2 JUMPDEST DUP3 DUP2 LT ISZERO PUSH2 0x2B23 JUMPI DUP7 DUP6 ADD CALLDATALOAD DUP3 SSTORE PUSH1 0x20 SWAP5 DUP6 ADD SWAP5 PUSH1 0x1 SWAP1 SWAP3 ADD SWAP2 ADD PUSH2 0x2B03 JUMP JUMPDEST POP DUP5 DUP3 LT ISZERO PUSH2 0x2B3F JUMPI PUSH0 NOT PUSH1 0xF8 DUP7 PUSH1 0x3 SHL AND SHR NOT DUP5 DUP8 ADD CALLDATALOAD AND DUP2 SSTORE JUMPDEST POP POP PUSH1 0x1 DUP4 PUSH1 0x1 SHL ADD DUP6 SSTORE JUMPDEST POP POP POP POP POP PUSH1 0x80 DUP3 ADD CALLDATALOAD PUSH1 0x4 DUP3 ADD SSTORE PUSH1 0xA0 DUP3 ADD CALLDATALOAD PUSH1 0x5 DUP3 ADD SSTORE PUSH2 0x1A89 PUSH2 0x2B73 PUSH1 0xC0 DUP5 ADD PUSH2 0x272C JUMP JUMPDEST PUSH1 0x6 DUP4 ADD PUSH1 0xFF NOT DUP2 SLOAD AND PUSH1 0xFF DUP4 ISZERO ISZERO AND DUP2 OR DUP3 SSTORE POP POP POP JUMP JUMPDEST DUP2 CALLDATALOAD DUP2 SSTORE PUSH0 PUSH1 0x20 DUP4 ADD CALLDATALOAD PUSH2 0x2B9F DUP2 PUSH2 0x1B2F JUMP JUMPDEST DUP1 SWAP2 POP PUSH2 0x2BAF DUP2 PUSH1 0x1 DUP6 ADD PUSH2 0x2274 JUMP JUMPDEST POP POP PUSH2 0x2BC9 PUSH2 0x2BC0 PUSH1 0x40 DUP5 ADD PUSH2 0x2268 JUMP JUMPDEST PUSH1 0x2 DUP4 ADD PUSH2 0x2274 JUMP JUMPDEST PUSH2 0x2BD6 PUSH1 0x60 DUP4 ADD DUP4 PUSH2 0x2294 JUMP JUMPDEST PUSH2 0x2BE4 DUP2 DUP4 PUSH1 0x3 DUP7 ADD PUSH2 0x2359 JUMP JUMPDEST POP POP PUSH1 0x80 DUP3 ADD CALLDATALOAD PUSH1 0x4 DUP3 ADD SSTORE PUSH1 0xA0 DUP3 ADD CALLDATALOAD PUSH1 0x5 DUP3 ADD SSTORE PUSH2 0x2C09 PUSH2 0x2B73 PUSH1 0xC0 DUP5 ADD PUSH2 0x272C JUMP JUMPDEST PUSH1 0xE0 SWAP2 SWAP1 SWAP2 ADD CALLDATALOAD PUSH1 0x7 SWAP1 SWAP2 ADD SSTORE JUMP JUMPDEST PUSH4 0x4E487B71 PUSH1 0xE0 SHL PUSH0 MSTORE PUSH1 0x32 PUSH1 0x4 MSTORE PUSH1 0x24 PUSH0 REVERT JUMPDEST DUP2 DUP2 SUB DUP2 DUP2 GT ISZERO PUSH2 0x1AD1 JUMPI PUSH2 0x1AD1 PUSH2 0x223C JUMP JUMPDEST PUSH4 0x4E487B71 PUSH1 0xE0 SHL PUSH0 MSTORE PUSH1 0x31 PUSH1 0x4 MSTORE PUSH1 0x24 PUSH0 REVERT INVALID LOG2 PUSH5 0x6970667358 0x22 SLT KECCAK256 0xE8 ADDRESS 0xD5 0xDD LOG2 0xC6 DUP9 0xD2 0xBD 0xFC TIMESTAMP 0xC8 0xB2 0xAD PUSH27 0x43B77741FAA5B015E8BC6FA93E63E0715A64736F6C634300081E00 CALLER "
				},
				"gasEstimates": {
					"creation": {
						"codeDepositCost": "2280200",
						"executionCost": "94619",
						"totalCost": "2374819"
					},
					"external": {
						"addCorroboratorToIncident(uint256,(address,uint256,string,string[]))": "infinite",
						"addOrUpdateCase((uint256,address,address,string,uint256,uint256,bool,uint256))": "infinite",
						"addOrUpdateIncident((uint256,address,string,uint256,uint8,address,(address,uint256,string,string[])[],string[]))": "infinite",
						"addOrUpdateLawyer((address,uint256[],string,uint256,uint256,bool))": "infinite",
						"addOrUpdateMember((address,address,uint256,string,uint256,uint256,bool))": "infinite",
						"cases(uint256)": "infinite",
						"casesMap(uint256)": "infinite",
						"getAndIncrementCaseId()": "26702",
						"getAndIncrementIncidentId()": "26704",
						"getLawyerCases(address)": "infinite",
						"incidents(uint256)": "infinite",
						"incidentsMap(uint256)": "infinite",
						"initializeProtocol(address)": "26851",
						"isLawyer(address)": "2586",
						"isLawyerMap(address)": "2589",
						"isMember(address)": "2585",
						"isMemberMap(address)": "2632",
						"lawyers(address)": "infinite",
						"lawyersMap(address)": "infinite",
						"members(address)": "infinite",
						"membersMap(address)": "infinite",
						"nextCaseId()": "2362",
						"nextIncidentId()": "2385",
						"nextMemberId()": "2405",
						"owner()": "2408",
						"padiProtocol()": "2425",
						"renounceOwnership()": "infinite",
						"transferOwnership(address)": "infinite"
					},
					"internal": {
						"_addToOpenCases(struct PadiTypes.Case calldata)": "infinite",
						"_existsInArray(uint256[] storage pointer,uint256)": "infinite",
						"_moveCaseToClosed(struct PadiTypes.Case calldata)": "infinite"
					}
				},
				"methodIdentifiers": {
					"addCorroboratorToIncident(uint256,(address,uint256,string,string[]))": "213b6360",
					"addOrUpdateCase((uint256,address,address,string,uint256,uint256,bool,uint256))": "f47be477",
					"addOrUpdateIncident((uint256,address,string,uint256,uint8,address,(address,uint256,string,string[])[],string[]))": "a599681f",
					"addOrUpdateLawyer((address,uint256[],string,uint256,uint256,bool))": "84500001",
					"addOrUpdateMember((address,address,uint256,string,uint256,uint256,bool))": "af947d05",
					"cases(uint256)": "f09790dd",
					"casesMap(uint256)": "84e49bce",
					"getAndIncrementCaseId()": "84dc0806",
					"getAndIncrementIncidentId()": "0b98d45a",
					"getLawyerCases(address)": "8bfeffe5",
					"incidents(uint256)": "a6c6a8f3",
					"incidentsMap(uint256)": "8c2f59e4",
					"initializeProtocol(address)": "3b9cccf0",
					"isLawyer(address)": "5939a84e",
					"isLawyerMap(address)": "c0a47753",
					"isMember(address)": "a230c524",
					"isMemberMap(address)": "fbbca380",
					"lawyers(address)": "554ae567",
					"lawyersMap(address)": "1ed9772f",
					"members(address)": "08ae4b0c",
					"membersMap(address)": "872ea68a",
					"nextCaseId()": "6350eae8",
					"nextIncidentId()": "0fd19668",
					"nextMemberId()": "ae99004c",
					"owner()": "8da5cb5b",
					"padiProtocol()": "e0ecef92",
					"renounceOwnership()": "715018a6",
					"transferOwnership(address)": "f2fde38b"
				}
			},
			"storageLayout": {
				"storage": [
					{
						"astId": 8,
						"contract": "contracts/PadiStorage.sol:PadiStorage",
						"label": "_owner",
						"offset": 0,
						"slot": "0",
						"type": "t_address"
					},
					{
						"astId": 297,
						"contract": "contracts/PadiStorage.sol:PadiStorage",
						"label": "padiProtocol",
						"offset": 0,
						"slot": "1",
						"type": "t_address"
					},
					{
						"astId": 300,
						"contract": "contracts/PadiStorage.sol:PadiStorage",
						"label": "nextMemberId",
						"offset": 0,
						"slot": "2",
						"type": "t_uint256"
					},
					{
						"astId": 303,
						"contract": "contracts/PadiStorage.sol:PadiStorage",
						"label": "nextCaseId",
						"offset": 0,
						"slot": "3",
						"type": "t_uint256"
					},
					{
						"astId": 306,
						"contract": "contracts/PadiStorage.sol:PadiStorage",
						"label": "nextIncidentId",
						"offset": 0,
						"slot": "4",
						"type": "t_uint256"
					},
					{
						"astId": 311,
						"contract": "contracts/PadiStorage.sol:PadiStorage",
						"label": "membersMap",
						"offset": 0,
						"slot": "5",
						"type": "t_mapping(t_address,t_struct(Member)939_storage)"
					},
					{
						"astId": 316,
						"contract": "contracts/PadiStorage.sol:PadiStorage",
						"label": "lawyersMap",
						"offset": 0,
						"slot": "6",
						"type": "t_mapping(t_address,t_struct(Lawyer)953_storage)"
					},
					{
						"astId": 321,
						"contract": "contracts/PadiStorage.sol:PadiStorage",
						"label": "casesMap",
						"offset": 0,
						"slot": "7",
						"type": "t_mapping(t_uint256,t_struct(Case)970_storage)"
					},
					{
						"astId": 326,
						"contract": "contracts/PadiStorage.sol:PadiStorage",
						"label": "incidentsMap",
						"offset": 0,
						"slot": "8",
						"type": "t_mapping(t_uint256,t_struct(Incident)1005_storage)"
					},
					{
						"astId": 330,
						"contract": "contracts/PadiStorage.sol:PadiStorage",
						"label": "isMemberMap",
						"offset": 0,
						"slot": "9",
						"type": "t_mapping(t_address,t_bool)"
					},
					{
						"astId": 334,
						"contract": "contracts/PadiStorage.sol:PadiStorage",
						"label": "isLawyerMap",
						"offset": 0,
						"slot": "10",
						"type": "t_mapping(t_address,t_bool)"
					},
					{
						"astId": 339,
						"contract": "contracts/PadiStorage.sol:PadiStorage",
						"label": "lawyerOpenCases",
						"offset": 0,
						"slot": "11",
						"type": "t_mapping(t_address,t_array(t_uint256)dyn_storage)"
					},
					{
						"astId": 344,
						"contract": "contracts/PadiStorage.sol:PadiStorage",
						"label": "lawyerClosedCases",
						"offset": 0,
						"slot": "12",
						"type": "t_mapping(t_address,t_array(t_uint256)dyn_storage)"
					}
				],
				"types": {
					"t_address": {
						"encoding": "inplace",
						"label": "address",
						"numberOfBytes": "20"
					},
					"t_array(t_string_storage)dyn_storage": {
						"base": "t_string_storage",
						"encoding": "dynamic_array",
						"label": "string[]",
						"numberOfBytes": "32"
					},
					"t_array(t_struct(Corroborator)984_storage)dyn_storage": {
						"base": "t_struct(Corroborator)984_storage",
						"encoding": "dynamic_array",
						"label": "struct PadiTypes.Corroborator[]",
						"numberOfBytes": "32"
					},
					"t_array(t_uint256)dyn_storage": {
						"base": "t_uint256",
						"encoding": "dynamic_array",
						"label": "uint256[]",
						"numberOfBytes": "32"
					},
					"t_bool": {
						"encoding": "inplace",
						"label": "bool",
						"numberOfBytes": "1"
					},
					"t_enum(VerificationStatus)974": {
						"encoding": "inplace",
						"label": "enum PadiTypes.VerificationStatus",
						"numberOfBytes": "1"
					},
					"t_mapping(t_address,t_array(t_uint256)dyn_storage)": {
						"encoding": "mapping",
						"key": "t_address",
						"label": "mapping(address => uint256[])",
						"numberOfBytes": "32",
						"value": "t_array(t_uint256)dyn_storage"
					},
					"t_mapping(t_address,t_bool)": {
						"encoding": "mapping",
						"key": "t_address",
						"label": "mapping(address => bool)",
						"numberOfBytes": "32",
						"value": "t_bool"
					},
					"t_mapping(t_address,t_struct(Lawyer)953_storage)": {
						"encoding": "mapping",
						"key": "t_address",
						"label": "mapping(address => struct PadiTypes.Lawyer)",
						"numberOfBytes": "32",
						"value": "t_struct(Lawyer)953_storage"
					},
					"t_mapping(t_address,t_struct(Member)939_storage)": {
						"encoding": "mapping",
						"key": "t_address",
						"label": "mapping(address => struct PadiTypes.Member)",
						"numberOfBytes": "32",
						"value": "t_struct(Member)939_storage"
					},
					"t_mapping(t_uint256,t_struct(Case)970_storage)": {
						"encoding": "mapping",
						"key": "t_uint256",
						"label": "mapping(uint256 => struct PadiTypes.Case)",
						"numberOfBytes": "32",
						"value": "t_struct(Case)970_storage"
					},
					"t_mapping(t_uint256,t_struct(Incident)1005_storage)": {
						"encoding": "mapping",
						"key": "t_uint256",
						"label": "mapping(uint256 => struct PadiTypes.Incident)",
						"numberOfBytes": "32",
						"value": "t_struct(Incident)1005_storage"
					},
					"t_string_storage": {
						"encoding": "bytes",
						"label": "string",
						"numberOfBytes": "32"
					},
					"t_struct(Case)970_storage": {
						"encoding": "inplace",
						"label": "struct PadiTypes.Case",
						"members": [
							{
								"astId": 955,
								"contract": "contracts/PadiStorage.sol:PadiStorage",
								"label": "id",
								"offset": 0,
								"slot": "0",
								"type": "t_uint256"
							},
							{
								"astId": 957,
								"contract": "contracts/PadiStorage.sol:PadiStorage",
								"label": "member",
								"offset": 0,
								"slot": "1",
								"type": "t_address"
							},
							{
								"astId": 959,
								"contract": "contracts/PadiStorage.sol:PadiStorage",
								"label": "lawyer",
								"offset": 0,
								"slot": "2",
								"type": "t_address"
							},
							{
								"astId": 961,
								"contract": "contracts/PadiStorage.sol:PadiStorage",
								"label": "descriptionMetadata",
								"offset": 0,
								"slot": "3",
								"type": "t_string_storage"
							},
							{
								"astId": 963,
								"contract": "contracts/PadiStorage.sol:PadiStorage",
								"label": "creationDate",
								"offset": 0,
								"slot": "4",
								"type": "t_uint256"
							},
							{
								"astId": 965,
								"contract": "contracts/PadiStorage.sol:PadiStorage",
								"label": "resolutionDate",
								"offset": 0,
								"slot": "5",
								"type": "t_uint256"
							},
							{
								"astId": 967,
								"contract": "contracts/PadiStorage.sol:PadiStorage",
								"label": "resolved",
								"offset": 0,
								"slot": "6",
								"type": "t_bool"
							},
							{
								"astId": 969,
								"contract": "contracts/PadiStorage.sol:PadiStorage",
								"label": "rewardAmount",
								"offset": 0,
								"slot": "7",
								"type": "t_uint256"
							}
						],
						"numberOfBytes": "256"
					},
					"t_struct(Corroborator)984_storage": {
						"encoding": "inplace",
						"label": "struct PadiTypes.Corroborator",
						"members": [
							{
								"astId": 976,
								"contract": "contracts/PadiStorage.sol:PadiStorage",
								"label": "member",
								"offset": 0,
								"slot": "0",
								"type": "t_address"
							},
							{
								"astId": 978,
								"contract": "contracts/PadiStorage.sol:PadiStorage",
								"label": "timestamp",
								"offset": 0,
								"slot": "1",
								"type": "t_uint256"
							},
							{
								"astId": 980,
								"contract": "contracts/PadiStorage.sol:PadiStorage",
								"label": "comment",
								"offset": 0,
								"slot": "2",
								"type": "t_string_storage"
							},
							{
								"astId": 983,
								"contract": "contracts/PadiStorage.sol:PadiStorage",
								"label": "mediaURIs",
								"offset": 0,
								"slot": "3",
								"type": "t_array(t_string_storage)dyn_storage"
							}
						],
						"numberOfBytes": "128"
					},
					"t_struct(Incident)1005_storage": {
						"encoding": "inplace",
						"label": "struct PadiTypes.Incident",
						"members": [
							{
								"astId": 986,
								"contract": "contracts/PadiStorage.sol:PadiStorage",
								"label": "id",
								"offset": 0,
								"slot": "0",
								"type": "t_uint256"
							},
							{
								"astId": 988,
								"contract": "contracts/PadiStorage.sol:PadiStorage",
								"label": "reporter",
								"offset": 0,
								"slot": "1",
								"type": "t_address"
							},
							{
								"astId": 990,
								"contract": "contracts/PadiStorage.sol:PadiStorage",
								"label": "descriptionMetadata",
								"offset": 0,
								"slot": "2",
								"type": "t_string_storage"
							},
							{
								"astId": 992,
								"contract": "contracts/PadiStorage.sol:PadiStorage",
								"label": "timestamp",
								"offset": 0,
								"slot": "3",
								"type": "t_uint256"
							},
							{
								"astId": 995,
								"contract": "contracts/PadiStorage.sol:PadiStorage",
								"label": "status",
								"offset": 0,
								"slot": "4",
								"type": "t_enum(VerificationStatus)974"
							},
							{
								"astId": 997,
								"contract": "contracts/PadiStorage.sol:PadiStorage",
								"label": "verifiedBy",
								"offset": 1,
								"slot": "4",
								"type": "t_address"
							},
							{
								"astId": 1001,
								"contract": "contracts/PadiStorage.sol:PadiStorage",
								"label": "corroborators",
								"offset": 0,
								"slot": "5",
								"type": "t_array(t_struct(Corroborator)984_storage)dyn_storage"
							},
							{
								"astId": 1004,
								"contract": "contracts/PadiStorage.sol:PadiStorage",
								"label": "mediaURIs",
								"offset": 0,
								"slot": "6",
								"type": "t_array(t_string_storage)dyn_storage"
							}
						],
						"numberOfBytes": "224"
					},
					"t_struct(Lawyer)953_storage": {
						"encoding": "inplace",
						"label": "struct PadiTypes.Lawyer",
						"members": [
							{
								"astId": 941,
								"contract": "contracts/PadiStorage.sol:PadiStorage",
								"label": "wallet",
								"offset": 0,
								"slot": "0",
								"type": "t_address"
							},
							{
								"astId": 944,
								"contract": "contracts/PadiStorage.sol:PadiStorage",
								"label": "caseIds",
								"offset": 0,
								"slot": "1",
								"type": "t_array(t_uint256)dyn_storage"
							},
							{
								"astId": 946,
								"contract": "contracts/PadiStorage.sol:PadiStorage",
								"label": "profileURI",
								"offset": 0,
								"slot": "2",
								"type": "t_string_storage"
							},
							{
								"astId": 948,
								"contract": "contracts/PadiStorage.sol:PadiStorage",
								"label": "joinDate",
								"offset": 0,
								"slot": "3",
								"type": "t_uint256"
							},
							{
								"astId": 950,
								"contract": "contracts/PadiStorage.sol:PadiStorage",
								"label": "totalRewards",
								"offset": 0,
								"slot": "4",
								"type": "t_uint256"
							},
							{
								"astId": 952,
								"contract": "contracts/PadiStorage.sol:PadiStorage",
								"label": "active",
								"offset": 0,
								"slot": "5",
								"type": "t_bool"
							}
						],
						"numberOfBytes": "192"
					},
					"t_struct(Member)939_storage": {
						"encoding": "inplace",
						"label": "struct PadiTypes.Member",
						"members": [
							{
								"astId": 926,
								"contract": "contracts/PadiStorage.sol:PadiStorage",
								"label": "wallet",
								"offset": 0,
								"slot": "0",
								"type": "t_address"
							},
							{
								"astId": 928,
								"contract": "contracts/PadiStorage.sol:PadiStorage",
								"label": "representative",
								"offset": 0,
								"slot": "1",
								"type": "t_address"
							},
							{
								"astId": 930,
								"contract": "contracts/PadiStorage.sol:PadiStorage",
								"label": "nftId",
								"offset": 0,
								"slot": "2",
								"type": "t_uint256"
							},
							{
								"astId": 932,
								"contract": "contracts/PadiStorage.sol:PadiStorage",
								"label": "metadataURI",
								"offset": 0,
								"slot": "3",
								"type": "t_string_storage"
							},
							{
								"astId": 934,
								"contract": "contracts/PadiStorage.sol:PadiStorage",
								"label": "joinDate",
								"offset": 0,
								"slot": "4",
								"type": "t_uint256"
							},
							{
								"astId": 936,
								"contract": "contracts/PadiStorage.sol:PadiStorage",
								"label": "totalCases",
								"offset": 0,
								"slot": "5",
								"type": "t_uint256"
							},
							{
								"astId": 938,
								"contract": "contracts/PadiStorage.sol:PadiStorage",
								"label": "active",
								"offset": 0,
								"slot": "6",
								"type": "t_bool"
							}
						],
						"numberOfBytes": "224"
					},
					"t_uint256": {
						"encoding": "inplace",
						"label": "uint256",
						"numberOfBytes": "32"
					}
				}
			},
			"userdoc": {
				"kind": "user",
				"methods": {
					"addCorroboratorToIncident(uint256,(address,uint256,string,string[]))": {
						"notice": "Append a new corroborator entry to an existing incident."
					},
					"addOrUpdateIncident((uint256,address,string,uint256,uint8,address,(address,uint256,string,string[])[],string[]))": {
						"notice": "Add a new incident or update an existing one."
					},
					"getAndIncrementIncidentId()": {
						"notice": "Generate a new unique incident identifier and increment the internal counter."
					},
					"incidents(uint256)": {
						"notice": "Retrieve a specific incident by its identifier."
					}
				},
				"version": 1
			}
		}
	}
}