{
	"data": {
		"bytecode": {
			"linkReferences": {},
			"object": "6101a0604052348015610010575f80fd5b5060405161364a38038061364a83398181016040528101906100329190610314565b3360015f819055505f60015f6101000a81548160ff0219169083151502179055505f73ffffffffffffffffffffffffffffffffffffffff168173ffffffffffffffffffffffffffffffffffffffff16036100c3575f6040517f1e4fbdf70000000000000000000000000000000000000000000000000000000081526004016100ba91906103e7565b60405180910390fd5b6100d28161018660201b60201c565b508873ffffffffffffffffffffffffffffffffffffffff1660808173ffffffffffffffffffffffffffffffffffffffff16815250508773ffffffffffffffffffffffffffffffffffffffff1660a08173ffffffffffffffffffffffffffffffffffffffff16815250508660c081815250508560e08181525050846101008181525050836101208181525050826101408181525050816101608181525050806101808181525050505050505050505050610400565b5f60018054906101000a900473ffffffffffffffffffffffffffffffffffffffff169050816001806101000a81548173ffffffffffffffffffffffffffffffffffffffff021916908373ffffffffffffffffffffffffffffffffffffffff1602179055508173ffffffffffffffffffffffffffffffffffffffff168173ffffffffffffffffffffffffffffffffffffffff167f8be0079c531659141344cd1fd0a4f28419497f9722a3daafe3b4186f6b6457e060405160405180910390a35050565b5f80fd5b5f73ffffffffffffffffffffffffffffffffffffffff82169050919050565b5f6102758261024c565b9050919050565b5f6102868261026b565b9050919050565b6102968161027c565b81146102a0575f80fd5b50565b5f815190506102b18161028d565b92915050565b6102c08161026b565b81146102ca575f80fd5b50565b5f815190506102db816102b7565b92915050565b5f819050919050565b6102f3816102e1565b81146102fd575f80fd5b50565b5f8151905061030e816102ea565b92915050565b5f805f805f805f805f6101208a8c03121561033257610331610248565b5b5f61033f8c828d016102a3565b99505060206103508c828d016102cd565b98505060406103618c828d01610300565b97505060606103728c828d01610300565b96505060806103838c828d01610300565b95505060a06103948c828d01610300565b94505060c06103a58c828d01610300565b93505060e06103b68c828d01610300565b9250506101006103c88c828d01610300565b9150509295985092959850929598565b6103e18161026b565b82525050565b5f6020820190506103fa5f8301846103d8565b92915050565b60805160a05160c05160e051610100516101205161014051610160516101805161319f6104ab5f395f8181610bb90152610d6b01525f818161097d0152610fba01525f818161109601526111b101525f81816107f2015261090901525f8181610c060152610fde01525f81816104ef0152610ec901525f81816108160152610e9501525f8181610a020152610b9501525f818161063101528181610c270152611259015261319f5ff3fe60806040526004361061013f575f3560e01c80637d5e81e2116100b5578063ddf0b0091161006e578063ddf0b009146103f1578063e23a9a5214610419578063eef09bad14610455578063f2fde38b1461047f578063f96dae0a146104a7578063fe0d94c1146104d15761013f565b80637d5e81e2146102f75780638456cb59146103335780638da5cb5b14610349578063a06db7dc14610373578063b58131b01461039d578063da35c664146103c75761013f565b80633f4ba83a116101075780633f4ba83a1461022557806340e58ee51461023b578063452a9320146102635780634afd4f0e1461028d5780635c975abb146102b7578063715018a6146102e15761013f565b806302a251a31461014357806315373e3d1461016d57806324bc1a64146101955780633932abb1146101bf5780633e4f49e6146101e9575b5f80fd5b34801561014e575f80fd5b506101576104ed565b604051610164919061197f565b60405180910390f35b348015610178575f80fd5b50610193600480360381019061018e9190611a08565b610511565b005b3480156101a0575f80fd5b506101a96107f0565b6040516101b6919061197f565b60405180910390f35b3480156101ca575f80fd5b506101d3610814565b6040516101e0919061197f565b60405180910390f35b3480156101f4575f80fd5b5061020f600480360381019061020a9190611a46565b610838565b60405161021c9190611ae4565b60405180910390f35b348015610230575f80fd5b506102396109c6565b005b348015610246575f80fd5b50610261600480360381019061025c9190611a46565b6109d8565b005b34801561026e575f80fd5b50610277610b93565b6040516102849190611b3c565b60405180910390f35b348015610298575f80fd5b506102a1610bb7565b6040516102ae919061197f565b60405180910390f35b3480156102c2575f80fd5b506102cb610bdb565b6040516102d89190611b64565b60405180910390f35b3480156102ec575f80fd5b506102f5610bf0565b005b348015610302575f80fd5b5061031d60048036038101906103189190611fe3565b610c03565b60405161032a919061197f565b60405180910390f35b34801561033e575f80fd5b50610347610f7f565b005b348015610354575f80fd5b5061035d610f91565b60405161036a9190611b3c565b60405180910390f35b34801561037e575f80fd5b50610387610fb8565b604051610394919061197f565b60405180910390f35b3480156103a8575f80fd5b506103b1610fdc565b6040516103be919061197f565b60405180910390f35b3480156103d2575f80fd5b506103db611000565b6040516103e8919061197f565b60405180910390f35b3480156103fc575f80fd5b5061041760048036038101906104129190611a46565b611009565b005b348015610424575f80fd5b5061043f600480360381019061043a91906120b7565b611108565b60405161044c9190612153565b60405180910390f35b348015610460575f80fd5b506104696111af565b604051610476919061197f565b60405180910390f35b34801561048a575f80fd5b506104a560048036038101906104a0919061216c565b6111d3565b005b3480156104b2575f80fd5b506104bb611257565b6040516104c891906121f2565b60405180910390f35b6104eb60048036038101906104e69190611a46565b61127b565b005b7f000000000000000000000000000000000000000000000000000000000000000081565b6105196114a6565b5f60035f8481526020019081526020015f2090506001600781111561054157610540611a71565b5b61054a84610838565b600781111561055c5761055b611a71565b5b1461059c576040517f08c379a000000000000000000000000000000000000000000000000000000000815260040161059390612265565b60405180910390fd5b5f81600c015f3373ffffffffffffffffffffffffffffffffffffffff1673ffffffffffffffffffffffffffffffffffffffff1681526020019081526020015f209050805f015f9054906101000a900460ff161561062e576040517f08c379a0000000000000000000000000000000000000000000000000000000008152600401610625906122cd565b60405180910390fd5b5f7f000000000000000000000000000000000000000000000000000000000000000073ffffffffffffffffffffffffffffffffffffffff16633a46b1a83385600601546040518363ffffffff1660e01b815260040161068e9291906122eb565b602060405180830381865afa1580156106a9573d5f803e3d5ffd5b505050506040513d601f19601f820116820180604052508101906106cd9190612326565b90505f8111610711576040517f08c379a00000000000000000000000000000000000000000000000000000000081526004016107089061239b565b60405180910390fd5b83156107365780836009015f82825461072a91906123e6565b92505081905550610751565b8083600a015f82825461074991906123e6565b925050819055505b6001825f015f6101000a81548160ff02191690831515021790555083825f0160016101000a81548160ff021916908315150217905550808260010181905550843373ffffffffffffffffffffffffffffffffffffffff167f877856338e13f63d0c36822ff0ef736b80934cd90574a3a5bc9262c39d217c4686846040516107d9929190612419565b60405180910390a35050506107ec6114f3565b5050565b7f000000000000000000000000000000000000000000000000000000000000000081565b7f000000000000000000000000000000000000000000000000000000000000000081565b5f808211801561084a57506002548211155b610889576040517f08c379a00000000000000000000000000000000000000000000000000000000081526004016108809061248a565b60405180910390fd5b5f60035f8481526020019081526020015f20905080600b015f9054906101000a900460ff16156108bd5760029150506109c1565b80600b0160019054906101000a900460ff16156108de5760079150506109c1565b806006015443116108f2575f9150506109c1565b806007015443116109075760019150506109c1565b7f000000000000000000000000000000000000000000000000000000000000000081600901541080610941575080600a0154816009015411155b156109505760039150506109c1565b5f8160020154036109655760049150506109c1565b806002015442101561097b5760059150506109c1565b7f000000000000000000000000000000000000000000000000000000000000000081600201546109ab91906123e6565b42106109bb5760069150506109c1565b60059150505b919050565b6109ce6114fc565b6109d6611583565b565b6109e06115e4565b5f60035f8381526020019081526020015f2090505f6109fe83610838565b90507f000000000000000000000000000000000000000000000000000000000000000073ffffffffffffffffffffffffffffffffffffffff163373ffffffffffffffffffffffffffffffffffffffff161480610b065750816001015f9054906101000a900473ffffffffffffffffffffffffffffffffffffffff1673ffffffffffffffffffffffffffffffffffffffff163373ffffffffffffffffffffffffffffffffffffffff16148015610b0557505f6007811115610ac157610ac0611a71565b5b816007811115610ad457610ad3611a71565b5b1480610b04575060016007811115610aef57610aee611a71565b5b816007811115610b0257610b01611a71565b5b145b5b5b610b45576040517f08c379a0000000000000000000000000000000000000000000000000000000008152600401610b3c906124f2565b60405180910390fd5b600182600b015f6101000a81548160ff021916908315150217905550827f789cf55be980739dad1d0699b93b58e806b51c9d96619bfa8fe0a28abaa7b30c60405160405180910390a2505050565b7f000000000000000000000000000000000000000000000000000000000000000081565b7f000000000000000000000000000000000000000000000000000000000000000081565b5f60015f9054906101000a900460ff16905090565b610bf86114fc565b610c015f61162e565b565b5f7f00000000000000000000000000000000000000000000000000000000000000007f000000000000000000000000000000000000000000000000000000000000000073ffffffffffffffffffffffffffffffffffffffff16633a46b1a833600143610c6f9190612510565b6040518363ffffffff1660e01b8152600401610c8c9291906122eb565b602060405180830381865afa158015610ca7573d5f803e3d5ffd5b505050506040513d601f19601f82011682018060405250810190610ccb9190612326565b1015610d0c576040517f08c379a0000000000000000000000000000000000000000000000000000000008152600401610d03906125b3565b60405180910390fd5b5f8551118015610d1d575083518551145b8015610d2a575082518551145b610d69576040517f08c379a0000000000000000000000000000000000000000000000000000000008152600401610d6090612641565b60405180910390fd5b7f000000000000000000000000000000000000000000000000000000000000000085511115610dcd576040517f08c379a0000000000000000000000000000000000000000000000000000000008152600401610dc4906126a9565b60405180910390fd5b60025f815480929190610ddf906126c7565b91905055505f60025490505f60035f8381526020019081526020015f20905081815f018190555033816001015f6101000a81548173ffffffffffffffffffffffffffffffffffffffff021916908373ffffffffffffffffffffffffffffffffffffffff16021790555086816003019080519060200190610e609291906117a1565b5085816004019080519060200190610e79929190611828565b5084816005019080519060200190610e92929190611873565b507f000000000000000000000000000000000000000000000000000000000000000043610ebf91906123e6565b81600601819055507f00000000000000000000000000000000000000000000000000000000000000008160060154610ef791906123e6565b816007018190555083816008019081610f109190612909565b503373ffffffffffffffffffffffffffffffffffffffff16827f95f03e437e6d5037418f12bef80fc7e0a5f27754c078a1d5d3f62d39bac44e50898989866006015487600701548b604051610f6a96959493929190612c8a565b60405180910390a38192505050949350505050565b610f876114fc565b610f8f6116f0565b565b5f60018054906101000a900473ffffffffffffffffffffffffffffffffffffffff16905090565b7f000000000000000000000000000000000000000000000000000000000000000081565b7f000000000000000000000000000000000000000000000000000000000000000081565b5f600254905090565b6110116115e4565b6004600781111561102557611024611a71565b5b61102e82610838565b60078111156110405761103f611a71565b5b14611080576040517f08c379a000000000000000000000000000000000000000000000000000000000815260040161107790612d4f565b60405180910390fd5b5f60035f8381526020019081526020015f2090507f0000000000000000000000000000000000000000000000000000000000000000426110c091906123e6565b8160020181905550817f9a2e42fd6722813d69113e7d0079d3d940171428df7373df9c7f7617cfda289282600201546040516110fc919061197f565b60405180910390a25050565b6111106118ca565b60035f8481526020019081526020015f20600c015f8373ffffffffffffffffffffffffffffffffffffffff1673ffffffffffffffffffffffffffffffffffffffff1681526020019081526020015f206040518060600160405290815f82015f9054906101000a900460ff161515151581526020015f820160019054906101000a900460ff16151515158152602001600182015481525050905092915050565b7f000000000000000000000000000000000000000000000000000000000000000081565b6111db6114fc565b5f73ffffffffffffffffffffffffffffffffffffffff168173ffffffffffffffffffffffffffffffffffffffff160361124b575f6040517f1e4fbdf70000000000000000000000000000000000000000000000000000000081526004016112429190611b3c565b60405180910390fd5b6112548161162e565b50565b7f000000000000000000000000000000000000000000000000000000000000000081565b6112836114a6565b61128b6115e4565b6005600781111561129f5761129e611a71565b5b6112a882610838565b60078111156112ba576112b9611a71565b5b146112fa576040517f08c379a00000000000000000000000000000000000000000000000000000000081526004016112f190612db7565b60405180910390fd5b5f60035f8381526020019081526020015f209050600181600b0160016101000a81548160ff0219169083151502179055505f5b816003018054905081101561146c575f82600301828154811061135357611352612dd5565b5b905f5260205f20015f9054906101000a900473ffffffffffffffffffffffffffffffffffffffff1673ffffffffffffffffffffffffffffffffffffffff168360040183815481106113a7576113a6612dd5565b5b905f5260205f2001548460050184815481106113c6576113c5612dd5565b5b905f5260205f20016040516113db9190612e9e565b5f6040518083038185875af1925050503d805f8114611415576040519150601f19603f3d011682016040523d82523d5f602084013e61141a565b606091505b505090508061145e576040517f08c379a000000000000000000000000000000000000000000000000000000000815260040161145590612efe565b60405180910390fd5b50808060010191505061132d565b50817f712ae1383f79ac853f8d882153778e0260ef8f03b504e2866e0593e04d2b291f60405160405180910390a2506114a36114f3565b50565b60025f54036114ea576040517f08c379a00000000000000000000000000000000000000000000000000000000081526004016114e190612f66565b60405180910390fd5b60025f81905550565b60015f81905550565b611504611751565b73ffffffffffffffffffffffffffffffffffffffff16611522610f91565b73ffffffffffffffffffffffffffffffffffffffff161461158157611545611751565b6040517f118cdaa70000000000000000000000000000000000000000000000000000000081526004016115789190611b3c565b60405180910390fd5b565b61158b611758565b5f60015f6101000a81548160ff0219169083151502179055507f5db9ee0a495bf2e6ff9c91a7834c1ba4fdd244a5e8aa4e537bd38aeae4b073aa6115cd611751565b6040516115da9190611b3c565b60405180910390a1565b6115ec610bdb565b1561162c576040517f08c379a000000000000000000000000000000000000000000000000000000000815260040161162390612fce565b60405180910390fd5b565b5f60018054906101000a900473ffffffffffffffffffffffffffffffffffffffff169050816001806101000a81548173ffffffffffffffffffffffffffffffffffffffff021916908373ffffffffffffffffffffffffffffffffffffffff1602179055508173ffffffffffffffffffffffffffffffffffffffff168173ffffffffffffffffffffffffffffffffffffffff167f8be0079c531659141344cd1fd0a4f28419497f9722a3daafe3b4186f6b6457e060405160405180910390a35050565b6116f86115e4565b6001805f6101000a81548160ff0219169083151502179055507f62e78cea01bee320cd4e420270b5ea74000d11b0c9f74754ebdbfc544b05a25861173a611751565b6040516117479190611b3c565b60405180910390a1565b5f33905090565b611760610bdb565b61179f576040517f08c379a000000000000000000000000000000000000000000000000000000000815260040161179690613036565b60405180910390fd5b565b828054828255905f5260205f20908101928215611817579160200282015b82811115611816578251825f6101000a81548173ffffffffffffffffffffffffffffffffffffffff021916908373ffffffffffffffffffffffffffffffffffffffff160217905550916020019190600101906117bf565b5b50905061182491906118ec565b5090565b828054828255905f5260205f20908101928215611862579160200282015b82811115611861578251825591602001919060010190611846565b5b50905061186f91906118ec565b5090565b828054828255905f5260205f209081019282156118b9579160200282015b828111156118b85782518290816118a8919061309a565b5091602001919060010190611891565b5b5090506118c69190611907565b5090565b60405180606001604052805f151581526020015f151581526020015f81525090565b5b80821115611903575f815f9055506001016118ed565b5090565b5b80821115611926575f818161191d919061192a565b50600101611908565b5090565b50805461193690612745565b5f825580601f106119475750611964565b601f0160209004905f5260205f209081019061196391906118ec565b5b50565b5f819050919050565b61197981611967565b82525050565b5f6020820190506119925f830184611970565b92915050565b5f604051905090565b5f80fd5b5f80fd5b6119b281611967565b81146119bc575f80fd5b50565b5f813590506119cd816119a9565b92915050565b5f8115159050919050565b6119e7816119d3565b81146119f1575f80fd5b50565b5f81359050611a02816119de565b92915050565b5f8060408385031215611a1e57611a1d6119a1565b5b5f611a2b858286016119bf565b9250506020611a3c858286016119f4565b9150509250929050565b5f60208284031215611a5b57611a5a6119a1565b5b5f611a68848285016119bf565b91505092915050565b7f4e487b71000000000000000000000000000000000000000000000000000000005f52602160045260245ffd5b60088110611aaf57611aae611a71565b5b50565b5f819050611abf82611a9e565b919050565b5f611ace82611ab2565b9050919050565b611ade81611ac4565b82525050565b5f602082019050611af75f830184611ad5565b92915050565b5f73ffffffffffffffffffffffffffffffffffffffff82169050919050565b5f611b2682611afd565b9050919050565b611b3681611b1c565b82525050565b5f602082019050611b4f5f830184611b2d565b92915050565b611b5e816119d3565b82525050565b5f602082019050611b775f830184611b55565b92915050565b5f80fd5b5f601f19601f8301169050919050565b7f4e487b71000000000000000000000000000000000000000000000000000000005f52604160045260245ffd5b611bc782611b81565b810181811067ffffffffffffffff82111715611be657611be5611b91565b5b80604052505050565b5f611bf8611998565b9050611c048282611bbe565b919050565b5f67ffffffffffffffff821115611c2357611c22611b91565b5b602082029050602081019050919050565b5f80fd5b611c4181611b1c565b8114611c4b575f80fd5b50565b5f81359050611c5c81611c38565b92915050565b5f611c74611c6f84611c09565b611bef565b90508083825260208201905060208402830185811115611c9757611c96611c34565b5b835b81811015611cc05780611cac8882611c4e565b845260208401935050602081019050611c99565b5050509392505050565b5f82601f830112611cde57611cdd611b7d565b5b8135611cee848260208601611c62565b91505092915050565b5f67ffffffffffffffff821115611d1157611d10611b91565b5b602082029050602081019050919050565b5f611d34611d2f84611cf7565b611bef565b90508083825260208201905060208402830185811115611d5757611d56611c34565b5b835b81811015611d805780611d6c88826119bf565b845260208401935050602081019050611d59565b5050509392505050565b5f82601f830112611d9e57611d9d611b7d565b5b8135611dae848260208601611d22565b91505092915050565b5f67ffffffffffffffff821115611dd157611dd0611b91565b5b602082029050602081019050919050565b5f80fd5b5f67ffffffffffffffff821115611e0057611dff611b91565b5b611e0982611b81565b9050602081019050919050565b828183375f83830152505050565b5f611e36611e3184611de6565b611bef565b905082815260208101848484011115611e5257611e51611de2565b5b611e5d848285611e16565b509392505050565b5f82601f830112611e7957611e78611b7d565b5b8135611e89848260208601611e24565b91505092915050565b5f611ea4611e9f84611db7565b611bef565b90508083825260208201905060208402830185811115611ec757611ec6611c34565b5b835b81811015611f0e57803567ffffffffffffffff811115611eec57611eeb611b7d565b5b808601611ef98982611e65565b85526020850194505050602081019050611ec9565b5050509392505050565b5f82601f830112611f2c57611f2b611b7d565b5b8135611f3c848260208601611e92565b91505092915050565b5f67ffffffffffffffff821115611f5f57611f5e611b91565b5b611f6882611b81565b9050602081019050919050565b5f611f87611f8284611f45565b611bef565b905082815260208101848484011115611fa357611fa2611de2565b5b611fae848285611e16565b509392505050565b5f82601f830112611fca57611fc9611b7d565b5b8135611fda848260208601611f75565b91505092915050565b5f805f8060808587031215611ffb57611ffa6119a1565b5b5f85013567ffffffffffffffff811115612018576120176119a5565b5b61202487828801611cca565b945050602085013567ffffffffffffffff811115612045576120446119a5565b5b61205187828801611d8a565b935050604085013567ffffffffffffffff811115612072576120716119a5565b5b61207e87828801611f18565b925050606085013567ffffffffffffffff81111561209f5761209e6119a5565b5b6120ab87828801611fb6565b91505092959194509250565b5f80604083850312156120cd576120cc6119a1565b5b5f6120da858286016119bf565b92505060206120eb85828601611c4e565b9150509250929050565b6120fe816119d3565b82525050565b61210d81611967565b82525050565b606082015f8201516121275f8501826120f5565b50602082015161213a60208501826120f5565b50604082015161214d6040850182612104565b50505050565b5f6060820190506121665f830184612113565b92915050565b5f60208284031215612181576121806119a1565b5b5f61218e84828501611c4e565b91505092915050565b5f819050919050565b5f6121ba6121b56121b084611afd565b612197565b611afd565b9050919050565b5f6121cb826121a0565b9050919050565b5f6121dc826121c1565b9050919050565b6121ec816121d2565b82525050565b5f6020820190506122055f8301846121e3565b92915050565b5f82825260208201905092915050565b7f437573746f6d44414f3a20766f74696e6720636c6f73656400000000000000005f82015250565b5f61224f60188361220b565b915061225a8261221b565b602082019050919050565b5f6020820190508181035f83015261227c81612243565b9050919050565b7f437573746f6d44414f3a20616c726561647920766f74656400000000000000005f82015250565b5f6122b760188361220b565b91506122c282612283565b602082019050919050565b5f6020820190508181035f8301526122e4816122ab565b9050919050565b5f6040820190506122fe5f830185611b2d565b61230b6020830184611970565b9392505050565b5f81519050612320816119a9565b92915050565b5f6020828403121561233b5761233a6119a1565b5b5f61234884828501612312565b91505092915050565b7f437573746f6d44414f3a206e6f20766f74696e6720706f7765720000000000005f82015250565b5f612385601a8361220b565b915061239082612351565b602082019050919050565b5f6020820190508181035f8301526123b281612379565b9050919050565b7f4e487b71000000000000000000000000000000000000000000000000000000005f52601160045260245ffd5b5f6123f082611967565b91506123fb83611967565b9250828201905080821115612413576124126123b9565b5b92915050565b5f60408201905061242c5f830185611b55565b6124396020830184611970565b9392505050565b7f437573746f6d44414f3a20696e76616c696420696400000000000000000000005f82015250565b5f61247460158361220b565b915061247f82612440565b602082019050919050565b5f6020820190508181035f8301526124a181612468565b9050919050565b7f437573746f6d44414f3a206e6f7420617574686f72697a6564000000000000005f82015250565b5f6124dc60198361220b565b91506124e7826124a8565b602082019050919050565b5f6020820190508181035f830152612509816124d0565b9050919050565b5f61251a82611967565b915061252583611967565b925082820390508181111561253d5761253c6123b9565b5b92915050565b7f437573746f6d44414f3a2070726f706f73657220766f7465732062656c6f77205f8201527f7468726573686f6c640000000000000000000000000000000000000000000000602082015250565b5f61259d60298361220b565b91506125a882612543565b604082019050919050565b5f6020820190508181035f8301526125ca81612591565b9050919050565b7f437573746f6d44414f3a20696e76616c69642070726f706f73616c20706172615f8201527f6d65746572730000000000000000000000000000000000000000000000000000602082015250565b5f61262b60268361220b565b9150612636826125d1565b604082019050919050565b5f6020820190508181035f8301526126588161261f565b9050919050565b7f437573746f6d44414f3a20746f6f206d616e7920616374696f6e7300000000005f82015250565b5f612693601b8361220b565b915061269e8261265f565b602082019050919050565b5f6020820190508181035f8301526126c081612687565b9050919050565b5f6126d182611967565b91507fffffffffffffffffffffffffffffffffffffffffffffffffffffffffffffffff8203612703576127026123b9565b5b600182019050919050565b5f81519050919050565b7f4e487b71000000000000000000000000000000000000000000000000000000005f52602260045260245ffd5b5f600282049050600182168061275c57607f821691505b60208210810361276f5761276e612718565b5b50919050565b5f819050815f5260205f209050919050565b5f6020601f8301049050919050565b5f82821b905092915050565b5f600883026127d17fffffffffffffffffffffffffffffffffffffffffffffffffffffffffffffffff82612796565b6127db8683612796565b95508019841693508086168417925050509392505050565b5f61280d61280861280384611967565b612197565b611967565b9050919050565b5f819050919050565b612826836127f3565b61283a61283282612814565b8484546127a2565b825550505050565b5f90565b61284e612842565b61285981848461281d565b505050565b5b8181101561287c576128715f82612846565b60018101905061285f565b5050565b601f8211156128c15761289281612775565b61289b84612787565b810160208510156128aa578190505b6128be6128b685612787565b83018261285e565b50505b505050565b5f82821c905092915050565b5f6128e15f19846008026128c6565b1980831691505092915050565b5f6128f983836128d2565b9150826002028217905092915050565b6129128261270e565b67ffffffffffffffff81111561292b5761292a611b91565b5b6129358254612745565b612940828285612880565b5f60209050601f831160018114612971575f841561295f578287015190505b61296985826128ee565b8655506129d0565b601f19841661297f86612775565b5f5b828110156129a657848901518255600182019150602085019450602081019050612981565b868310156129c357848901516129bf601f8916826128d2565b8355505b6001600288020188555050505b505050505050565b5f81519050919050565b5f82825260208201905092915050565b5f819050602082019050919050565b612a0a81611b1c565b82525050565b5f612a1b8383612a01565b60208301905092915050565b5f602082019050919050565b5f612a3d826129d8565b612a4781856129e2565b9350612a52836129f2565b805f5b83811015612a82578151612a698882612a10565b9750612a7483612a27565b925050600181019050612a55565b5085935050505092915050565b5f81519050919050565b5f82825260208201905092915050565b5f819050602082019050919050565b5f612ac38383612104565b60208301905092915050565b5f602082019050919050565b5f612ae582612a8f565b612aef8185612a99565b9350612afa83612aa9565b805f5b83811015612b2a578151612b118882612ab8565b9750612b1c83612acf565b925050600181019050612afd565b5085935050505092915050565b5f81519050919050565b5f82825260208201905092915050565b5f819050602082019050919050565b5f81519050919050565b5f82825260208201905092915050565b8281835e5f83830152505050565b5f612b9282612b60565b612b9c8185612b6a565b9350612bac818560208601612b7a565b612bb581611b81565b840191505092915050565b5f612bcb8383612b88565b905092915050565b5f602082019050919050565b5f612be982612b37565b612bf38185612b41565b935083602082028501612c0585612b51565b805f5b85811015612c405784840389528151612c218582612bc0565b9450612c2c83612bd3565b925060208a01995050600181019050612c08565b50829750879550505050505092915050565b5f612c5c8261270e565b612c66818561220b565b9350612c76818560208601612b7a565b612c7f81611b81565b840191505092915050565b5f60c0820190508181035f830152612ca28189612a33565b90508181036020830152612cb68188612adb565b90508181036040830152612cca8187612bdf565b9050612cd96060830186611970565b612ce66080830185611970565b81810360a0830152612cf88184612c52565b9050979650505050505050565b7f437573746f6d44414f3a206e6f742073756363656564656400000000000000005f82015250565b5f612d3960188361220b565b9150612d4482612d05565b602082019050919050565b5f6020820190508181035f830152612d6681612d2d565b9050919050565b7f437573746f6d44414f3a206e6f742072656164790000000000000000000000005f82015250565b5f612da160148361220b565b9150612dac82612d6d565b602082019050919050565b5f6020820190508181035f830152612dce81612d95565b9050919050565b7f4e487b71000000000000000000000000000000000000000000000000000000005f52603260045260245ffd5b5f81905092915050565b5f819050815f5260205f209050919050565b5f8154612e2a81612745565b612e348186612e02565b9450600182165f8114612e4e5760018114612e6357612e95565b60ff1983168652811515820286019350612e95565b612e6c85612e0c565b5f5b83811015612e8d57815481890152600182019150602081019050612e6e565b838801955050505b50505092915050565b5f612ea98284612e1e565b915081905092915050565b7f437573746f6d44414f3a20616374696f6e206661696c656400000000000000005f82015250565b5f612ee860188361220b565b9150612ef382612eb4565b602082019050919050565b5f6020820190508181035f830152612f1581612edc565b9050919050565b7f5265656e7472616e637947756172643a207265656e7472616e742063616c6c005f82015250565b5f612f50601f8361220b565b9150612f5b82612f1c565b602082019050919050565b5f6020820190508181035f830152612f7d81612f44565b9050919050565b7f5061757361626c653a20706175736564000000000000000000000000000000005f82015250565b5f612fb860108361220b565b9150612fc382612f84565b602082019050919050565b5f6020820190508181035f830152612fe581612fac565b9050919050565b7f5061757361626c653a206e6f74207061757365640000000000000000000000005f82015250565b5f61302060148361220b565b915061302b82612fec565b602082019050919050565b5f6020820190508181035f83015261304d81613014565b9050919050565b601f8211156130955761306681612e0c565b61306f84612787565b8101602085101561307e578190505b61309261308a85612787565b83018261285e565b50505b505050565b6130a382612b60565b67ffffffffffffffff8111156130bc576130bb611b91565b5b6130c68254612745565b6130d1828285613054565b5f60209050601f831160018114613102575f84156130f0578287015190505b6130fa85826128ee565b865550613161565b601f19841661311086612e0c565b5f5b8281101561313757848901518255600182019150602085019450602081019050613112565b868310156131545784890151613150601f8916826128d2565b8355505b6001600288020188555050505b50505050505056fea2646970667358221220873eab3b63fada7cb5148475bdce501d6279fad7b8aa921e2a7df17d24af7dcc64736f6c634300081a0033",
			"opcodes": "PUSH2 0x1A0 PUSH1 0x40 MSTORE CALLVALUE DUP1 ISZERO PUSH2 0x10 JUMPI PUSH0 DUP1 REVERT JUMPDEST POP PUSH1 0x40 MLOAD PUSH2 0x364A CODESIZE SUB DUP1 PUSH2 0x364A DUP4 CODECOPY DUP2 DUP2 ADD PUSH1 0x40 MSTORE DUP2 ADD SWAP1 PUSH2 0x32 SWAP2 SWAP1 PUSH2 0x314 JUMP JUMPDEST CALLER PUSH1 0x1 PUSH0 DUP2 SWAP1 SSTORE POP PUSH0 PUSH1 0x1 PUSH0 PUSH2 0x100 EXP DUP2 SLOAD DUP2 PUSH1 0xFF MUL NOT AND SWAP1 DUP4 ISZERO ISZERO MUL OR SWAP1 SSTORE POP PUSH0 PUSH20 0xFFFFFFFFFFFFFFFFFFFFFFFFFFFFFFFFFFFFFFFF AND DUP2 PUSH20 0xFFFFFFFFFFFFFFFFFFFFFFFFFFFFFFFFFFFFFFFF AND SUB PUSH2 0xC3 JUMPI PUSH0 PUSH1 0x40 MLOAD PUSH32 0x1E4FBDF700000000000000000000000000000000000000000000000000000000 DUP2 MSTORE PUSH1 0x4 ADD PUSH2 0xBA SWAP2 SWAP1 PUSH2 0x3E7 JUMP JUMPDEST PUSH1 0x40 MLOAD DUP1 SWAP2 SUB SWAP1 REVERT JUMPDEST PUSH2 0xD2 DUP2 PUSH2 0x186 PUSH1 0x20 SHL PUSH1 0x20 SHR JUMP JUMPDEST POP DUP9 PUSH20 0xFFFFFFFFFFFFFFFFFFFFFFFFFFFFFFFFFFFFFFFF AND PUSH1 0x80 DUP2 PUSH20 0xFFFFFFFFFFFFFFFFFFFFFFFFFFFFFFFFFFFFFFFF AND DUP2 MSTORE POP POP DUP8 PUSH20 0xFFFFFFFFFFFFFFFFFFFFFFFFFFFFFFFFFFFFFFFF AND PUSH1 0xA0 DUP2 PUSH20 0xFFFFFFFFFFFFFFFFFFFFFFFFFFFFFFFFFFFFFFFF AND DUP2 MSTORE POP POP DUP7 PUSH1 0xC0 DUP2 DUP2 MSTORE POP POP DUP6 PUSH1 0xE0 DUP2 DUP2 MSTORE POP POP DUP5 PUSH2 0x100 DUP2 DUP2 MSTORE POP POP DUP4 PUSH2 0x120 DUP2 DUP2 MSTORE POP POP DUP3 PUSH2 0x140 DUP2 DUP2 MSTORE POP POP DUP2 PUSH2 0x160 DUP2 DUP2 MSTORE POP POP DUP1 PUSH2 0x180 DUP2 DUP2 MSTORE POP POP POP POP POP POP POP POP POP POP POP PUSH2 0x400 JUMP JUMPDEST PUSH0 PUSH1 0x1 DUP1 SLOAD SWAP1 PUSH2 0x100 EXP SWAP1 DIV PUSH20 0xFFFFFFFFFFFFFFFFFFFFFFFFFFFFFFFFFFFFFFFF AND SWAP1 POP DUP2 PUSH1 0x1 DUP1 PUSH2 0x100 EXP DUP2 SLOAD DUP2 PUSH20 0xFFFFFFFFFFFFFFFFFFFFFFFFFFFFFFFFFFFFFFFF MUL NOT AND SWAP1 DUP4 PUSH20 0xFFFFFFFFFFFFFFFFFFFFFFFFFFFFFFFFFFFFFFFF AND MUL OR SWAP1 SSTORE POP DUP2 PUSH20 0xFFFFFFFFFFFFFFFFFFFFFFFFFFFFFFFFFFFFFFFF AND DUP2 PUSH20 0xFFFFFFFFFFFFFFFFFFFFFFFFFFFFFFFFFFFFFFFF AND PUSH32 0x8BE0079C531659141344CD1FD0A4F28419497F9722A3DAAFE3B4186F6B6457E0 PUSH1 0x40 MLOAD PUSH1 0x40 MLOAD DUP1 SWAP2 SUB SWAP1 LOG3 POP POP JUMP JUMPDEST PUSH0 DUP1 REVERT JUMPDEST PUSH0 PUSH20 0xFFFFFFFFFFFFFFFFFFFFFFFFFFFFFFFFFFFFFFFF DUP3 AND SWAP1 POP SWAP2 SWAP1 POP JUMP JUMPDEST PUSH0 PUSH2 0x275 DUP3 PUSH2 0x24C JUMP JUMPDEST SWAP1 POP SWAP2 SWAP1 POP JUMP JUMPDEST PUSH0 PUSH2 0x286 DUP3 PUSH2 0x26B JUMP JUMPDEST SWAP1 POP SWAP2 SWAP1 POP JUMP JUMPDEST PUSH2 0x296 DUP2 PUSH2 0x27C JUMP JUMPDEST DUP2 EQ PUSH2 0x2A0 JUMPI PUSH0 DUP1 REVERT JUMPDEST POP JUMP JUMPDEST PUSH0 DUP2 MLOAD SWAP1 POP PUSH2 0x2B1 DUP2 PUSH2 0x28D JUMP JUMPDEST SWAP3 SWAP2 POP POP JUMP JUMPDEST PUSH2 0x2C0 DUP2 PUSH2 0x26B JUMP JUMPDEST DUP2 EQ PUSH2 0x2CA JUMPI PUSH0 DUP1 REVERT JUMPDEST POP JUMP JUMPDEST PUSH0 DUP2 MLOAD SWAP1 POP PUSH2 0x2DB DUP2 PUSH2 0x2B7 JUMP JUMPDEST SWAP3 SWAP2 POP POP JUMP JUMPDEST PUSH0 DUP2 SWAP1 POP SWAP2 SWAP1 POP JUMP JUMPDEST PUSH2 0x2F3 DUP2 PUSH2 0x2E1 JUMP JUMPDEST DUP2 EQ PUSH2 0x2FD JUMPI PUSH0 DUP1 REVERT JUMPDEST POP JUMP JUMPDEST PUSH0 DUP2 MLOAD SWAP1 POP PUSH2 0x30E DUP2 PUSH2 0x2EA JUMP JUMPDEST SWAP3 SWAP2 POP POP JUMP JUMPDEST PUSH0 DUP1 PUSH0 DUP1 PUSH0 DUP1 PUSH0 DUP1 PUSH0 PUSH2 0x120 DUP11 DUP13 SUB SLT ISZERO PUSH2 0x332 JUMPI PUSH2 0x331 PUSH2 0x248 JUMP JUMPDEST JUMPDEST PUSH0 PUSH2 0x33F DUP13 DUP3 DUP14 ADD PUSH2 0x2A3 JUMP JUMPDEST SWAP10 POP POP PUSH1 0x20 PUSH2 0x350 DUP13 DUP3 DUP14 ADD PUSH2 0x2CD JUMP JUMPDEST SWAP9 POP POP PUSH1 0x40 PUSH2 0x361 DUP13 DUP3 DUP14 ADD PUSH2 0x300 JUMP JUMPDEST SWAP8 POP POP PUSH1 0x60 PUSH2 0x372 DUP13 DUP3 DUP14 ADD PUSH2 0x300 JUMP JUMPDEST SWAP7 POP POP PUSH1 0x80 PUSH2 0x383 DUP13 DUP3 DUP14 ADD PUSH2 0x300 JUMP JUMPDEST SWAP6 POP POP PUSH1 0xA0 PUSH2 0x394 DUP13 DUP3 DUP14 ADD PUSH2 0x300 JUMP JUMPDEST SWAP5 POP POP PUSH1 0xC0 PUSH2 0x3A5 DUP13 DUP3 DUP14 ADD PUSH2 0x300 JUMP JUMPDEST SWAP4 POP POP PUSH1 0xE0 PUSH2 0x3B6 DUP13 DUP3 DUP14 ADD PUSH2 0x300 JUMP JUMPDEST SWAP3 POP POP PUSH2 0x100 PUSH2 0x3C8 DUP13 DUP3 DUP14 ADD PUSH2 0x300 JUMP JUMPDEST SWAP2 POP POP SWAP3 SWAP6 SWAP9 POP SWAP3 SWAP6 SWAP9 POP SWAP3 SWAP6 SWAP9 JUMP JUMPDEST PUSH2 0x3E1 DUP2 PUSH2 0x26B JUMP JUMPDEST DUP3 MSTORE POP POP JUMP JUMPDEST PUSH0 PUSH1 0x20 DUP3 ADD SWAP1 POP PUSH2 0x3FA PUSH0 DUP4 ADD DUP5 PUSH2 0x3D8 JUMP JUMPDEST SWAP3 SWAP2 POP POP JUMP JUMPDEST PUSH1 0x80 MLOAD PUSH1 0xA0 MLOAD PUSH1 0xC0 MLOAD PUSH1 0xE0 MLOAD PUSH2 0x100 MLOAD PUSH2 0x120 MLOAD PUSH2 0x140 MLOAD PUSH2 0x160 MLOAD PUSH2 0x180 MLOAD PUSH2 0x319F PUSH2 0x4AB PUSH0 CODECOPY PUSH0 DUP2 DUP2 PUSH2 0xBB9 ADD MSTORE PUSH2 0xD6B ADD MSTORE PUSH0 DUP2 DUP2 PUSH2 0x97D ADD MSTORE PUSH2 0xFBA ADD MSTORE PUSH0 DUP2 DUP2 PUSH2 0x1096 ADD MSTORE PUSH2 0x11B1 ADD MSTORE PUSH0 DUP2 DUP2 PUSH2 0x7F2 ADD MSTORE PUSH2 0x909 ADD MSTORE PUSH0 DUP2 DUP2 PUSH2 0xC06 ADD MSTORE PUSH2 0xFDE ADD MSTORE PUSH0 DUP2 DUP2 PUSH2 0x4EF ADD MSTORE PUSH2 0xEC9 ADD MSTORE PUSH0 DUP2 DUP2 PUSH2 0x816 ADD MSTORE PUSH2 0xE95 ADD MSTORE PUSH0 DUP2 DUP2 PUSH2 0xA02 ADD MSTORE PUSH2 0xB95 ADD MSTORE PUSH0 DUP2 DUP2 PUSH2 0x631 ADD MSTORE DUP2 DUP2 PUSH2 0xC27 ADD MSTORE PUSH2 0x1259 ADD MSTORE PUSH2 0x319F PUSH0 RETURN INVALID PUSH1 0x80 PUSH1 0x40 MSTORE PUSH1 0x4 CALLDATASIZE LT PUSH2 0x13F JUMPI PUSH0 CALLDATALOAD PUSH1 0xE0 SHR DUP1 PUSH4 0x7D5E81E2 GT PUSH2 0xB5 JUMPI DUP1 PUSH4 0xDDF0B009 GT PUSH2 0x6E JUMPI DUP1 PUSH4 0xDDF0B009 EQ PUSH2 0x3F1 JUMPI DUP1 PUSH4 0xE23A9A52 EQ PUSH2 0x419 JUMPI DUP1 PUSH4 0xEEF09BAD EQ PUSH2 0x455 JUMPI DUP1 PUSH4 0xF2FDE38B EQ PUSH2 0x47F JUMPI DUP1 PUSH4 0xF96DAE0A EQ PUSH2 0x4A7 JUMPI DUP1 PUSH4 0xFE0D94C1 EQ PUSH2 0x4D1 JUMPI PUSH2 0x13F JUMP JUMPDEST DUP1 PUSH4 0x7D5E81E2 EQ PUSH2 0x2F7 JUMPI DUP1 PUSH4 0x8456CB59 EQ PUSH2 0x333 JUMPI DUP1 PUSH4 0x8DA5CB5B EQ PUSH2 0x349 JUMPI DUP1 PUSH4 0xA06DB7DC EQ PUSH2 0x373 JUMPI DUP1 PUSH4 0xB58131B0 EQ PUSH2 0x39D JUMPI DUP1 PUSH4 0xDA35C664 EQ PUSH2 0x3C7 JUMPI PUSH2 0x13F JUMP JUMPDEST DUP1 PUSH4 0x3F4BA83A GT PUSH2 0x107 JUMPI DUP1 PUSH4 0x3F4BA83A EQ PUSH2 0x225 JUMPI DUP1 PUSH4 0x40E58EE5 EQ PUSH2 0x23B JUMPI DUP1 PUSH4 0x452A9320 EQ PUSH2 0x263 JUMPI DUP1 PUSH4 0x4AFD4F0E EQ PUSH2 0x28D JUMPI DUP1 PUSH4 0x5C975ABB EQ PUSH2 0x2B7 JUMPI DUP1 PUSH4 0x715018A6 EQ PUSH2 0x2E1 JUMPI PUSH2 0x13F JUMP JUMPDEST DUP1 PUSH4 0x2A251A3 EQ PUSH2 0x143 JUMPI DUP1 PUSH4 0x15373E3D EQ PUSH2 0x16D JUMPI DUP1 PUSH4 0x24BC1A64 EQ PUSH2 0x195 JUMPI DUP1 PUSH4 0x3932ABB1 EQ PUSH2 0x1BF JUMPI DUP1 PUSH4 0x3E4F49E6 EQ PUSH2 0x1E9 JUMPI JUMPDEST PUSH0 DUP1 REVERT JUMPDEST CALLVALUE DUP1 ISZERO PUSH2 0x14E JUMPI PUSH0 DUP1 REVERT JUMPDEST POP PUSH2 0x157 PUSH2 0x4ED JUMP JUMPDEST PUSH1 0x40 MLOAD PUSH2 0x164 SWAP2 SWAP1 PUSH2 0x197F JUMP JUMPDEST PUSH1 0x40 MLOAD DUP1 SWAP2 SUB SWAP1 RETURN JUMPDEST CALLVALUE DUP1 ISZERO PUSH2 0x178 JUMPI PUSH0 DUP1 REVERT JUMPDEST POP PUSH2 0x193 PUSH1 0x4 DUP1 CALLDATASIZE SUB DUP2 ADD SWAP1 PUSH2 0x18E SWAP2 SWAP1 PUSH2 0x1A08 JUMP JUMPDEST PUSH2 0x511 JUMP JUMPDEST STOP JUMPDEST CALLVALUE DUP1 ISZERO PUSH2 0x1A0 JUMPI PUSH0 DUP1 REVERT JUMPDEST POP PUSH2 0x1A9 PUSH2 0x7F0 JUMP JUMPDEST PUSH1 0x40 MLOAD PUSH2 0x1B6 SWAP2 SWAP1 PUSH2 0x197F JUMP JUMPDEST PUSH1 0x40 MLOAD DUP1 SWAP2 SUB SWAP1 RETURN JUMPDEST CALLVALUE DUP1 ISZERO PUSH2 0x1CA JUMPI PUSH0 DUP1 REVERT JUMPDEST POP PUSH2 0x1D3 PUSH2 0x814 JUMP JUMPDEST PUSH1 0x40 MLOAD PUSH2 0x1E0 SWAP2 SWAP1 PUSH2 0x197F JUMP JUMPDEST PUSH1 0x40 MLOAD DUP1 SWAP2 SUB SWAP1 RETURN JUMPDEST CALLVALUE DUP1 ISZERO PUSH2 0x1F4 JUMPI PUSH0 DUP1 REVERT JUMPDEST POP PUSH2 0x20F PUSH1 0x4 DUP1 CALLDATASIZE SUB DUP2 ADD SWAP1 PUSH2 0x20A SWAP2 SWAP1 PUSH2 0x1A46 JUMP JUMPDEST PUSH2 0x838 JUMP JUMPDEST PUSH1 0x40 MLOAD PUSH2 0x21C SWAP2 SWAP1 PUSH2 0x1AE4 JUMP JUMPDEST PUSH1 0x40 MLOAD DUP1 SWAP2 SUB SWAP1 RETURN JUMPDEST CALLVALUE DUP1 ISZERO PUSH2 0x230 JUMPI PUSH0 DUP1 REVERT JUMPDEST POP PUSH2 0x239 PUSH2 0x9C6 JUMP JUMPDEST STOP JUMPDEST CALLVALUE DUP1 ISZERO PUSH2 0x246 JUMPI PUSH0 DUP1 REVERT JUMPDEST POP PUSH2 0x261 PUSH1 0x4 DUP1 CALLDATASIZE SUB DUP2 ADD SWAP1 PUSH2 0x25C SWAP2 SWAP1 PUSH2 0x1A46 JUMP JUMPDEST PUSH2 0x9D8 JUMP JUMPDEST STOP JUMPDEST CALLVALUE DUP1 ISZERO PUSH2 0x26E JUMPI PUSH0 DUP1 REVERT JUMPDEST POP PUSH2 0x277 PUSH2 0xB93 JUMP JUMPDEST PUSH1 0x40 MLOAD PUSH2 0x284 SWAP2 SWAP1 PUSH2 0x1B3C JUMP JUMPDEST PUSH1 0x40 MLOAD DUP1 SWAP2 SUB SWAP1 RETURN JUMPDEST CALLVALUE DUP1 ISZERO PUSH2 0x298 JUMPI PUSH0 DUP1 REVERT JUMPDEST POP PUSH2 0x2A1 PUSH2 0xBB7 JUMP JUMPDEST PUSH1 0x40 MLOAD PUSH2 0x2AE SWAP2 SWAP1 PUSH2 0x197F JUMP JUMPDEST PUSH1 0x40 MLOAD DUP1 SWAP2 SUB SWAP1 RETURN JUMPDEST CALLVALUE DUP1 ISZERO PUSH2 0x2C2 JUMPI PUSH0 DUP1 REVERT JUMPDEST POP PUSH2 0x2CB PUSH2 0xBDB JUMP JUMPDEST PUSH1 0x40 MLOAD PUSH2 0x2D8 SWAP2 SWAP1 PUSH2 0x1B64 JUMP JUMPDEST PUSH1 0x40 MLOAD DUP1 SWAP2 SUB SWAP1 RETURN JUMPDEST CALLVALUE DUP1 ISZERO PUSH2 0x2EC JUMPI PUSH0 DUP1 REVERT JUMPDEST POP PUSH2 0x2F5 PUSH2 0xBF0 JUMP JUMPDEST STOP JUMPDEST CALLVALUE DUP1 ISZERO PUSH2 0x302 JUMPI PUSH0 DUP1 REVERT JUMPDEST POP PUSH2 0x31D PUSH1 0x4 DUP1 CALLDATASIZE SUB DUP2 ADD SWAP1 PUSH2 0x318 SWAP2 SWAP1 PUSH2 0x1FE3 JUMP JUMPDEST PUSH2 0xC03 JUMP JUMPDEST PUSH1 0x40 MLOAD PUSH2 0x32A SWAP2 SWAP1 PUSH2 0x197F JUMP JUMPDEST PUSH1 0x40 MLOAD DUP1 SWAP2 SUB SWAP1 RETURN JUMPDEST CALLVALUE DUP1 ISZERO PUSH2 0x33E JUMPI PUSH0 DUP1 REVERT JUMPDEST POP PUSH2 0x347 PUSH2 0xF7F JUMP JUMPDEST STOP JUMPDEST CALLVALUE DUP1 ISZERO PUSH2 0x354 JUMPI PUSH0 DUP1 REVERT JUMPDEST POP PUSH2 0x35D PUSH2 0xF91 JUMP JUMPDEST PUSH1 0x40 MLOAD PUSH2 0x36A SWAP2 SWAP1 PUSH2 0x1B3C JUMP JUMPDEST PUSH1 0x40 MLOAD DUP1 SWAP2 SUB SWAP1 RETURN JUMPDEST CALLVALUE DUP1 ISZERO PUSH2 0x37E JUMPI PUSH0 DUP1 REVERT JUMPDEST POP PUSH2 0x387 PUSH2 0xFB8 JUMP JUMPDEST PUSH1 0x40 MLOAD PUSH2 0x394 SWAP2 SWAP1 PUSH2 0x197F JUMP JUMPDEST PUSH1 0x40 MLOAD DUP1 SWAP2 SUB SWAP1 RETURN JUMPDEST CALLVALUE DUP1 ISZERO PUSH2 0x3A8 JUMPI PUSH0 DUP1 REVERT JUMPDEST POP PUSH2 0x3B1 PUSH2 0xFDC JUMP JUMPDEST PUSH1 0x40 MLOAD PUSH2 0x3BE SWAP2 SWAP1 PUSH2 0x197F JUMP JUMPDEST PUSH1 0x40 MLOAD DUP1 SWAP2 SUB SWAP1 RETURN JUMPDEST CALLVALUE DUP1 ISZERO PUSH2 0x3D2 JUMPI PUSH0 DUP1 REVERT JUMPDEST POP PUSH2 0x3DB PUSH2 0x1000 JUMP JUMPDEST PUSH1 0x40 MLOAD PUSH2 0x3E8 SWAP2 SWAP1 PUSH2 0x197F JUMP JUMPDEST PUSH1 0x40 MLOAD DUP1 SWAP2 SUB SWAP1 RETURN JUMPDEST CALLVALUE DUP1 ISZERO PUSH2 0x3FC JUMPI PUSH0 DUP1 REVERT JUMPDEST POP PUSH2 0x417 PUSH1 0x4 DUP1 CALLDATASIZE SUB DUP2 ADD SWAP1 PUSH2 0x412 SWAP2 SWAP1 PUSH2 0x1A46 JUMP JUMPDEST PUSH2 0x1009 JUMP JUMPDEST STOP JUMPDEST CALLVALUE DUP1 ISZERO PUSH2 0x424 JUMPI PUSH0 DUP1 REVERT JUMPDEST POP PUSH2 0x43F PUSH1 0x4 DUP1 CALLDATASIZE SUB DUP2 ADD SWAP1 PUSH2 0x43A SWAP2 SWAP1 PUSH2 0x20B7 JUMP JUMPDEST PUSH2 0x1108 JUMP JUMPDEST PUSH1 0x40 MLOAD PUSH2 0x44C SWAP2 SWAP1 PUSH2 0x2153 JUMP JUMPDEST PUSH1 0x40 MLOAD DUP1 SWAP2 SUB SWAP1 RETURN JUMPDEST CALLVALUE DUP1 ISZERO PUSH2 0x460 JUMPI PUSH0 DUP1 REVERT JUMPDEST POP PUSH2 0x469 PUSH2 0x11AF JUMP JUMPDEST PUSH1 0x40 MLOAD PUSH2 0x476 SWAP2 SWAP1 PUSH2 0x197F JUMP JUMPDEST PUSH1 0x40 MLOAD DUP1 SWAP2 SUB SWAP1 RETURN JUMPDEST CALLVALUE DUP1 ISZERO PUSH2 0x48A JUMPI PUSH0 DUP1 REVERT JUMPDEST POP PUSH2 0x4A5 PUSH1 0x4 DUP1 CALLDATASIZE SUB DUP2 ADD SWAP1 PUSH2 0x4A0 SWAP2 SWAP1 PUSH2 0x216C JUMP JUMPDEST PUSH2 0x11D3 JUMP JUMPDEST STOP JUMPDEST CALLVALUE DUP1 ISZERO PUSH2 0x4B2 JUMPI PUSH0 DUP1 REVERT JUMPDEST POP PUSH2 0x4BB PUSH2 0x1257 JUMP JUMPDEST PUSH1 0x40 MLOAD PUSH2 0x4C8 SWAP2 SWAP1 PUSH2 0x21F2 JUMP JUMPDEST PUSH1 0x40 MLOAD DUP1 SWAP2 SUB SWAP1 RETURN JUMPDEST PUSH2 0x4EB PUSH1 0x4 DUP1 CALLDATASIZE SUB DUP2 ADD SWAP1 PUSH2 0x4E6 SWAP2 SWAP1 PUSH2 0x1A46 JUMP JUMPDEST PUSH2 0x127B JUMP JUMPDEST STOP JUMPDEST PUSH32 0x0 DUP2 JUMP JUMPDEST PUSH2 0x519 PUSH2 0x14A6 JUMP JUMPDEST PUSH0 PUSH1 0x3 PUSH0 DUP5 DUP2 MSTORE PUSH1 0x20 ADD SWAP1 DUP2 MSTORE PUSH1 0x20 ADD PUSH0 KECCAK256 SWAP1 POP PUSH1 0x1 PUSH1 0x7 DUP2 GT ISZERO PUSH2 0x541 JUMPI PUSH2 0x540 PUSH2 0x1A71 JUMP JUMPDEST JUMPDEST PUSH2 0x54A DUP5 PUSH2 0x838 JUMP JUMPDEST PUSH1 0x7 DUP2 GT ISZERO PUSH2 0x55C JUMPI PUSH2 0x55B PUSH2 0x1A71 JUMP JUMPDEST JUMPDEST EQ PUSH2 0x59C JUMPI PUSH1 0x40 MLOAD PUSH32 0x8C379A000000000000000000000000000000000000000000000000000000000 DUP2 MSTORE PUSH1 0x4 ADD PUSH2 0x593 SWAP1 PUSH2 0x2265 JUMP JUMPDEST PUSH1 0x40 MLOAD DUP1 SWAP2 SUB SWAP1 REVERT JUMPDEST PUSH0 DUP2 PUSH1 0xC ADD PUSH0 CALLER PUSH20 0xFFFFFFFFFFFFFFFFFFFFFFFFFFFFFFFFFFFFFFFF AND PUSH20 0xFFFFFFFFFFFFFFFFFFFFFFFFFFFFFFFFFFFFFFFF AND DUP2 MSTORE PUSH1 0x20 ADD SWAP1 DUP2 MSTORE PUSH1 0x20 ADD PUSH0 KECCAK256 SWAP1 POP DUP1 PUSH0 ADD PUSH0 SWAP1 SLOAD SWAP1 PUSH2 0x100 EXP SWAP1 DIV PUSH1 0xFF AND ISZERO PUSH2 0x62E JUMPI PUSH1 0x40 MLOAD PUSH32 0x8C379A000000000000000000000000000000000000000000000000000000000 DUP2 MSTORE PUSH1 0x4 ADD PUSH2 0x625 SWAP1 PUSH2 0x22CD JUMP JUMPDEST PUSH1 0x40 MLOAD DUP1 SWAP2 SUB SWAP1 REVERT JUMPDEST PUSH0 PUSH32 0x0 PUSH20 0xFFFFFFFFFFFFFFFFFFFFFFFFFFFFFFFFFFFFFFFF AND PUSH4 0x3A46B1A8 CALLER DUP6 PUSH1 0x6 ADD SLOAD PUSH1 0x40 MLOAD DUP4 PUSH4 0xFFFFFFFF AND PUSH1 0xE0 SHL DUP2 MSTORE PUSH1 0x4 ADD PUSH2 0x68E SWAP3 SWAP2 SWAP1 PUSH2 0x22EB JUMP JUMPDEST PUSH1 0x20 PUSH1 0x40 MLOAD DUP1 DUP4 SUB DUP2 DUP7 GAS STATICCALL ISZERO DUP1 ISZERO PUSH2 0x6A9 JUMPI RETURNDATASIZE PUSH0 DUP1 RETURNDATACOPY RETURNDATASIZE PUSH0 REVERT JUMPDEST POP POP POP POP PUSH1 0x40 MLOAD RETURNDATASIZE PUSH1 0x1F NOT PUSH1 0x1F DUP3 ADD AND DUP3 ADD DUP1 PUSH1 0x40 MSTORE POP DUP2 ADD SWAP1 PUSH2 0x6CD SWAP2 SWAP1 PUSH2 0x2326 JUMP JUMPDEST SWAP1 POP PUSH0 DUP2 GT PUSH2 0x711 JUMPI PUSH1 0x40 MLOAD PUSH32 0x8C379A000000000000000000000000000000000000000000000000000000000 DUP2 MSTORE PUSH1 0x4 ADD PUSH2 0x708 SWAP1 PUSH2 0x239B JUMP JUMPDEST PUSH1 0x40 MLOAD DUP1 SWAP2 SUB SWAP1 REVERT JUMPDEST DUP4 ISZERO PUSH2 0x736 JUMPI DUP1 DUP4 PUSH1 0x9 ADD PUSH0 DUP3 DUP3 SLOAD PUSH2 0x72A SWAP2 SWAP1 PUSH2 0x23E6 JUMP JUMPDEST SWAP3 POP POP DUP2 SWAP1 SSTORE POP PUSH2 0x751 JUMP JUMPDEST DUP1 DUP4 PUSH1 0xA ADD PUSH0 DUP3 DUP3 SLOAD PUSH2 0x749 SWAP2 SWAP1 PUSH2 0x23E6 JUMP JUMPDEST SWAP3 POP POP DUP2 SWAP1 SSTORE POP JUMPDEST PUSH1 0x1 DUP3 PUSH0 ADD PUSH0 PUSH2 0x100 EXP DUP2 SLOAD DUP2 PUSH1 0xFF MUL NOT AND SWAP1 DUP4 ISZERO ISZERO MUL OR SWAP1 SSTORE POP DUP4 DUP3 PUSH0 ADD PUSH1 0x1 PUSH2 0x100 EXP DUP2 SLOAD DUP2 PUSH1 0xFF MUL NOT AND SWAP1 DUP4 ISZERO ISZERO MUL OR SWAP1 SSTORE POP DUP1 DUP3 PUSH1 0x1 ADD DUP2 SWAP1 SSTORE POP DUP5 CALLER PUSH20 0xFFFFFFFFFFFFFFFFFFFFFFFFFFFFFFFFFFFFFFFF AND PUSH32 0x877856338E13F63D0C36822FF0EF736B80934CD90574A3A5BC9262C39D217C46 DUP7 DUP5 PUSH1 0x40 MLOAD PUSH2 0x7D9 SWAP3 SWAP2 SWAP1 PUSH2 0x2419 JUMP JUMPDEST PUSH1 0x40 MLOAD DUP1 SWAP2 SUB SWAP1 LOG3 POP POP POP PUSH2 0x7EC PUSH2 0x14F3 JUMP JUMPDEST POP POP JUMP JUMPDEST PUSH32 0x0 DUP2 JUMP JUMPDEST PUSH32 0x0 DUP2 JUMP JUMPDEST PUSH0 DUP1 DUP3 GT DUP1 ISZERO PUSH2 0x84A JUMPI POP PUSH1 0x2 SLOAD DUP3 GT ISZERO JUMPDEST PUSH2 0x889 JUMPI PUSH1 0x40 MLOAD PUSH32 0x8C379A000000000000000000000000000000000000000000000000000000000 DUP2 MSTORE PUSH1 0x4 ADD PUSH2 0x880 SWAP1 PUSH2 0x248A JUMP JUMPDEST PUSH1 0x40 MLOAD DUP1 SWAP2 SUB SWAP1 REVERT JUMPDEST PUSH0 PUSH1 0x3 PUSH0 DUP5 DUP2 MSTORE PUSH1 0x20 ADD SWAP1 DUP2 MSTORE PUSH1 0x20 ADD PUSH0 KECCAK256 SWAP1 POP DUP1 PUSH1 0xB ADD PUSH0 SWAP1 SLOAD SWAP1 PUSH2 0x100 EXP SWAP1 DIV PUSH1 0xFF AND ISZERO PUSH2 0x8BD JUMPI PUSH1 0x2 SWAP2 POP POP PUSH2 0x9C1 JUMP JUMPDEST DUP1 PUSH1 0xB ADD PUSH1 0x1 SWAP1 SLOAD SWAP1 PUSH2 0x100 EXP SWAP1 DIV PUSH1 0xFF AND ISZERO PUSH2 0x8DE JUMPI PUSH1 0x7 SWAP2 POP POP PUSH2 0x9C1 JUMP JUMPDEST DUP1 PUSH1 0x6 ADD SLOAD NUMBER GT PUSH2 0x8F2 JUMPI PUSH0 SWAP2 POP POP PUSH2 0x9C1 JUMP JUMPDEST DUP1 PUSH1 0x7 ADD SLOAD NUMBER GT PUSH2 0x907 JUMPI PUSH1 0x1 SWAP2 POP POP PUSH2 0x9C1 JUMP JUMPDEST PUSH32 0x0 DUP2 PUSH1 0x9 ADD SLOAD LT DUP1 PUSH2 0x941 JUMPI POP DUP1 PUSH1 0xA ADD SLOAD DUP2 PUSH1 0x9 ADD SLOAD GT ISZERO JUMPDEST ISZERO PUSH2 0x950 JUMPI PUSH1 0x3 SWAP2 POP POP PUSH2 0x9C1 JUMP JUMPDEST PUSH0 DUP2 PUSH1 0x2 ADD SLOAD SUB PUSH2 0x965 JUMPI PUSH1 0x4 SWAP2 POP POP PUSH2 0x9C1 JUMP JUMPDEST DUP1 PUSH1 0x2 ADD SLOAD TIMESTAMP LT ISZERO PUSH2 0x97B JUMPI PUSH1 0x5 SWAP2 POP POP PUSH2 0x9C1 JUMP JUMPDEST PUSH32 0x0 DUP2 PUSH1 0x2 ADD SLOAD PUSH2 0x9AB SWAP2 SWAP1 PUSH2 0x23E6 JUMP JUMPDEST TIMESTAMP LT PUSH2 0x9BB JUMPI PUSH1 0x6 SWAP2 POP POP PUSH2 0x9C1 JUMP JUMPDEST PUSH1 0x5 SWAP2 POP POP JUMPDEST SWAP2 SWAP1 POP JUMP JUMPDEST PUSH2 0x9CE PUSH2 0x14FC JUMP JUMPDEST PUSH2 0x9D6 PUSH2 0x1583 JUMP JUMPDEST JUMP JUMPDEST PUSH2 0x9E0 PUSH2 0x15E4 JUMP JUMPDEST PUSH0 PUSH1 0x3 PUSH0 DUP4 DUP2 MSTORE PUSH1 0x20 ADD SWAP1 DUP2 MSTORE PUSH1 0x20 ADD PUSH0 KECCAK256 SWAP1 POP PUSH0 PUSH2 0x9FE DUP4 PUSH2 0x838 JUMP JUMPDEST SWAP1 POP PUSH32 0x0 PUSH20 0xFFFFFFFFFFFFFFFFFFFFFFFFFFFFFFFFFFFFFFFF AND CALLER PUSH20 0xFFFFFFFFFFFFFFFFFFFFFFFFFFFFFFFFFFFFFFFF AND EQ DUP1 PUSH2 0xB06 JUMPI POP DUP2 PUSH1 0x1 ADD PUSH0 SWAP1 SLOAD SWAP1 PUSH2 0x100 EXP SWAP1 DIV PUSH20 0xFFFFFFFFFFFFFFFFFFFFFFFFFFFFFFFFFFFFFFFF AND PUSH20 0xFFFFFFFFFFFFFFFFFFFFFFFFFFFFFFFFFFFFFFFF AND CALLER PUSH20 0xFFFFFFFFFFFFFFFFFFFFFFFFFFFFFFFFFFFFFFFF AND EQ DUP1 ISZERO PUSH2 0xB05 JUMPI POP PUSH0 PUSH1 0x7 DUP2 GT ISZERO PUSH2 0xAC1 JUMPI PUSH2 0xAC0 PUSH2 0x1A71 JUMP JUMPDEST JUMPDEST DUP2 PUSH1 0x7 DUP2 GT ISZERO PUSH2 0xAD4 JUMPI PUSH2 0xAD3 PUSH2 0x1A71 JUMP JUMPDEST JUMPDEST EQ DUP1 PUSH2 0xB04 JUMPI POP PUSH1 0x1 PUSH1 0x7 DUP2 GT ISZERO PUSH2 0xAEF JUMPI PUSH2 0xAEE PUSH2 0x1A71 JUMP JUMPDEST JUMPDEST DUP2 PUSH1 0x7 DUP2 GT ISZERO PUSH2 0xB02 JUMPI PUSH2 0xB01 PUSH2 0x1A71 JUMP JUMPDEST JUMPDEST EQ JUMPDEST JUMPDEST JUMPDEST PUSH2 0xB45 JUMPI PUSH1 0x40 MLOAD PUSH32 0x8C379A000000000000000000000000000000000000000000000000000000000 DUP2 MSTORE PUSH1 0x4 ADD PUSH2 0xB3C SWAP1 PUSH2 0x24F2 JUMP JUMPDEST PUSH1 0x40 MLOAD DUP1 SWAP2 SUB SWAP1 REVERT JUMPDEST PUSH1 0x1 DUP3 PUSH1 0xB ADD PUSH0 PUSH2 0x100 EXP DUP2 SLOAD DUP2 PUSH1 0xFF MUL NOT AND SWAP1 DUP4 ISZERO ISZERO MUL OR SWAP1 SSTORE POP DUP3 PUSH32 0x789CF55BE980739DAD1D0699B93B58E806B51C9D96619BFA8FE0A28ABAA7B30C PUSH1 0x40 MLOAD PUSH1 0x40 MLOAD DUP1 SWAP2 SUB SWAP1 LOG2 POP POP POP JUMP JUMPDEST PUSH32 0x0 DUP2 JUMP JUMPDEST PUSH32 0x0 DUP2 JUMP JUMPDEST PUSH0 PUSH1 0x1 PUSH0 SWAP1 SLOAD SWAP1 PUSH2 0x100 EXP SWAP1 DIV PUSH1 0xFF AND SWAP1 POP SWAP1 JUMP JUMPDEST PUSH2 0xBF8 PUSH2 0x14FC JUMP JUMPDEST PUSH2 0xC01 PUSH0 PUSH2 0x162E JUMP JUMPDEST JUMP JUMPDEST PUSH0 PUSH32 0x0 PUSH32 0x0 PUSH20 0xFFFFFFFFFFFFFFFFFFFFFFFFFFFFFFFFFFFFFFFF AND PUSH4 0x3A46B1A8 CALLER PUSH1 0x1 NUMBER PUSH2 0xC6F SWAP2 SWAP1 PUSH2 0x2510 JUMP JUMPDEST PUSH1 0x40 MLOAD DUP4 PUSH4 0xFFFFFFFF AND PUSH1 0xE0 SHL DUP2 MSTORE PUSH1 0x4 ADD PUSH2 0xC8C SWAP3 SWAP2 SWAP1 PUSH2 0x22EB JUMP JUMPDEST PUSH1 0x20 PUSH1 0x40 MLOAD DUP1 DUP4 SUB DUP2 DUP7 GAS STATICCALL ISZERO DUP1 ISZERO PUSH2 0xCA7 JUMPI RETURNDATASIZE PUSH0 DUP1 RETURNDATACOPY RETURNDATASIZE PUSH0 REVERT JUMPDEST POP POP POP POP PUSH1 0x40 MLOAD RETURNDATASIZE PUSH1 0x1F NOT PUSH1 0x1F DUP3 ADD AND DUP3 ADD DUP1 PUSH1 0x40 MSTORE POP DUP2 ADD SWAP1 PUSH2 0xCCB SWAP2 SWAP1 PUSH2 0x2326 JUMP JUMPDEST LT ISZERO PUSH2 0xD0C JUMPI PUSH1 0x40 MLOAD PUSH32 0x8C379A000000000000000000000000000000000000000000000000000000000 DUP2 MSTORE PUSH1 0x4 ADD PUSH2 0xD03 SWAP1 PUSH2 0x25B3 JUMP JUMPDEST PUSH1 0x40 MLOAD DUP1 SWAP2 SUB SWAP1 REVERT JUMPDEST PUSH0 DUP6 MLOAD GT DUP1 ISZERO PUSH2 0xD1D JUMPI POP DUP4 MLOAD DUP6 MLOAD EQ JUMPDEST DUP1 ISZERO PUSH2 0xD2A JUMPI POP DUP3 MLOAD DUP6 MLOAD EQ JUMPDEST PUSH2 0xD69 JUMPI PUSH1 0x40 MLOAD PUSH32 0x8C379A000000000000000000000000000000000000000000000000000000000 DUP2 MSTORE PUSH1 0x4 ADD PUSH2 0xD60 SWAP1 PUSH2 0x2641 JUMP JUMPDEST PUSH1 0x40 MLOAD DUP1 SWAP2 SUB SWAP1 REVERT JUMPDEST PUSH32 0x0 DUP6 MLOAD GT ISZERO PUSH2 0xDCD JUMPI PUSH1 0x40 MLOAD PUSH32 0x8C379A000000000000000000000000000000000000000000000000000000000 DUP2 MSTORE PUSH1 0x4 ADD PUSH2 0xDC4 SWAP1 PUSH2 0x26A9 JUMP JUMPDEST PUSH1 0x40 MLOAD DUP1 SWAP2 SUB SWAP1 REVERT JUMPDEST PUSH1 0x2 PUSH0 DUP2 SLOAD DUP1 SWAP3 SWAP2 SWAP1 PUSH2 0xDDF SWAP1 PUSH2 0x26C7 JUMP JUMPDEST SWAP2 SWAP1 POP SSTORE POP PUSH0 PUSH1 0x2 SLOAD SWAP1 POP PUSH0 PUSH1 0x3 PUSH0 DUP4 DUP2 MSTORE PUSH1 0x20 ADD SWAP1 DUP2 MSTORE PUSH1 0x20 ADD PUSH0 KECCAK256 SWAP1 POP DUP2 DUP2 PUSH0 ADD DUP2 SWAP1 SSTORE POP CALLER DUP2 PUSH1 0x1 ADD PUSH0 PUSH2 0x100 EXP DUP2 SLOAD DUP2 PUSH20 0xFFFFFFFFFFFFFFFFFFFFFFFFFFFFFFFFFFFFFFFF MUL NOT AND SWAP1 DUP4 PUSH20 0xFFFFFFFFFFFFFFFFFFFFFFFFFFFFFFFFFFFFFFFF AND MUL OR SWAP1 SSTORE POP DUP7 DUP2 PUSH1 0x3 ADD SWAP1 DUP1 MLOAD SWAP1 PUSH1 0x20 ADD SWAP1 PUSH2 0xE60 SWAP3 SWAP2 SWAP1 PUSH2 0x17A1 JUMP JUMPDEST POP DUP6 DUP2 PUSH1 0x4 ADD SWAP1 DUP1 MLOAD SWAP1 PUSH1 0x20 ADD SWAP1 PUSH2 0xE79 SWAP3 SWAP2 SWAP1 PUSH2 0x1828 JUMP JUMPDEST POP DUP5 DUP2 PUSH1 0x5 ADD SWAP1 DUP1 MLOAD SWAP1 PUSH1 0x20 ADD SWAP1 PUSH2 0xE92 SWAP3 SWAP2 SWAP1 PUSH2 0x1873 JUMP JUMPDEST POP PUSH32 0x0 NUMBER PUSH2 0xEBF SWAP2 SWAP1 PUSH2 0x23E6 JUMP JUMPDEST DUP2 PUSH1 0x6 ADD DUP2 SWAP1 SSTORE POP PUSH32 0x0 DUP2 PUSH1 0x6 ADD SLOAD PUSH2 0xEF7 SWAP2 SWAP1 PUSH2 0x23E6 JUMP JUMPDEST DUP2 PUSH1 0x7 ADD DUP2 SWAP1 SSTORE POP DUP4 DUP2 PUSH1 0x8 ADD SWAP1 DUP2 PUSH2 0xF10 SWAP2 SWAP1 PUSH2 0x2909 JUMP JUMPDEST POP CALLER PUSH20 0xFFFFFFFFFFFFFFFFFFFFFFFFFFFFFFFFFFFFFFFF AND DUP3 PUSH32 0x95F03E437E6D5037418F12BEF80FC7E0A5F27754C078A1D5D3F62D39BAC44E50 DUP10 DUP10 DUP10 DUP7 PUSH1 0x6 ADD SLOAD DUP8 PUSH1 0x7 ADD SLOAD DUP12 PUSH1 0x40 MLOAD PUSH2 0xF6A SWAP7 SWAP6 SWAP5 SWAP4 SWAP3 SWAP2 SWAP1 PUSH2 0x2C8A JUMP JUMPDEST PUSH1 0x40 MLOAD DUP1 SWAP2 SUB SWAP1 LOG3 DUP2 SWAP3 POP POP POP SWAP5 SWAP4 POP POP POP POP JUMP JUMPDEST PUSH2 0xF87 PUSH2 0x14FC JUMP JUMPDEST PUSH2 0xF8F PUSH2 0x16F0 JUMP JUMPDEST JUMP JUMPDEST PUSH0 PUSH1 0x1 DUP1 SLOAD SWAP1 PUSH2 0x100 EXP SWAP1 DIV PUSH20 0xFFFFFFFFFFFFFFFFFFFFFFFFFFFFFFFFFFFFFFFF AND SWAP1 POP SWAP1 JUMP JUMPDEST PUSH32 0x0 DUP2 JUMP JUMPDEST PUSH32 0x0 DUP2 JUMP JUMPDEST PUSH0 PUSH1 0x2 SLOAD SWAP1 POP SWAP1 JUMP JUMPDEST PUSH2 0x1011 PUSH2 0x15E4 JUMP JUMPDEST PUSH1 0x4 PUSH1 0x7 DUP2 GT ISZERO PUSH2 0x1025 JUMPI PUSH2 0x1024 PUSH2 0x1A71 JUMP JUMPDEST JUMPDEST PUSH2 0x102E DUP3 PUSH2 0x838 JUMP JUMPDEST PUSH1 0x7 DUP2 GT ISZERO PUSH2 0x1040 JUMPI PUSH2 0x103F PUSH2 0x1A71 JUMP JUMPDEST JUMPDEST EQ PUSH2 0x1080 JUMPI PUSH1 0x40 MLOAD PUSH32 0x8C379A000000000000000000000000000000000000000000000000000000000 DUP2 MSTORE PUSH1 0x4 ADD PUSH2 0x1077 SWAP1 PUSH2 0x2D4F JUMP JUMPDEST PUSH1 0x40 MLOAD DUP1 SWAP2 SUB SWAP1 REVERT JUMPDEST PUSH0 PUSH1 0x3 PUSH0 DUP4 DUP2 MSTORE PUSH1 0x20 ADD SWAP1 DUP2 MSTORE PUSH1 0x20 ADD PUSH0 KECCAK256 SWAP1 POP PUSH32 0x0 TIMESTAMP PUSH2 0x10C0 SWAP2 SWAP1 PUSH2 0x23E6 JUMP JUMPDEST DUP2 PUSH1 0x2 ADD DUP2 SWAP1 SSTORE POP DUP2 PUSH32 0x9A2E42FD6722813D69113E7D0079D3D940171428DF7373DF9C7F7617CFDA2892 DUP3 PUSH1 0x2 ADD SLOAD PUSH1 0x40 MLOAD PUSH2 0x10FC SWAP2 SWAP1 PUSH2 0x197F JUMP JUMPDEST PUSH1 0x40 MLOAD DUP1 SWAP2 SUB SWAP1 LOG2 POP POP JUMP JUMPDEST PUSH2 0x1110 PUSH2 0x18CA JUMP JUMPDEST PUSH1 0x3 PUSH0 DUP5 DUP2 MSTORE PUSH1 0x20 ADD SWAP1 DUP2 MSTORE PUSH1 0x20 ADD PUSH0 KECCAK256 PUSH1 0xC ADD PUSH0 DUP4 PUSH20 0xFFFFFFFFFFFFFFFFFFFFFFFFFFFFFFFFFFFFFFFF AND PUSH20 0xFFFFFFFFFFFFFFFFFFFFFFFFFFFFFFFFFFFFFFFF AND DUP2 MSTORE PUSH1 0x20 ADD SWAP1 DUP2 MSTORE PUSH1 0x20 ADD PUSH0 KECCAK256 PUSH1 0x40 MLOAD DUP1 PUSH1 0x60 ADD PUSH1 0x40 MSTORE SWAP1 DUP2 PUSH0 DUP3 ADD PUSH0 SWAP1 SLOAD SWAP1 PUSH2 0x100 EXP SWAP1 DIV PUSH1 0xFF AND ISZERO ISZERO ISZERO ISZERO DUP2 MSTORE PUSH1 0x20 ADD PUSH0 DUP3 ADD PUSH1 0x1 SWAP1 SLOAD SWAP1 PUSH2 0x100 EXP SWAP1 DIV PUSH1 0xFF AND ISZERO ISZERO ISZERO ISZERO DUP2 MSTORE PUSH1 0x20 ADD PUSH1 0x1 DUP3 ADD SLOAD DUP2 MSTORE POP POP SWAP1 POP SWAP3 SWAP2 POP POP JUMP JUMPDEST PUSH32 0x0 DUP2 JUMP JUMPDEST PUSH2 0x11DB PUSH2 0x14FC JUMP JUMPDEST PUSH0 PUSH20 0xFFFFFFFFFFFFFFFFFFFFFFFFFFFFFFFFFFFFFFFF AND DUP2 PUSH20 0xFFFFFFFFFFFFFFFFFFFFFFFFFFFFFFFFFFFFFFFF AND SUB PUSH2 0x124B JUMPI PUSH0 PUSH1 0x40 MLOAD PUSH32 0x1E4FBDF700000000000000000000000000000000000000000000000000000000 DUP2 MSTORE PUSH1 0x4 ADD PUSH2 0x1242 SWAP2 SWAP1 PUSH2 0x1B3C JUMP JUMPDEST PUSH1 0x40 MLOAD DUP1 SWAP2 SUB SWAP1 REVERT JUMPDEST PUSH2 0x1254 DUP2 PUSH2 0x162E JUMP JUMPDEST POP JUMP JUMPDEST PUSH32 0x0 DUP2 JUMP JUMPDEST PUSH2 0x1283 PUSH2 0x14A6 JUMP JUMPDEST PUSH2 0x128B PUSH2 0x15E4 JUMP JUMPDEST PUSH1 0x5 PUSH1 0x7 DUP2 GT ISZERO PUSH2 0x129F JUMPI PUSH2 0x129E PUSH2 0x1A71 JUMP JUMPDEST JUMPDEST PUSH2 0x12A8 DUP3 PUSH2 0x838 JUMP JUMPDEST PUSH1 0x7 DUP2 GT ISZERO PUSH2 0x12BA JUMPI PUSH2 0x12B9 PUSH2 0x1A71 JUMP JUMPDEST JUMPDEST EQ PUSH2 0x12FA JUMPI PUSH1 0x40 MLOAD PUSH32 0x8C379A000000000000000000000000000000000000000000000000000000000 DUP2 MSTORE PUSH1 0x4 ADD PUSH2 0x12F1 SWAP1 PUSH2 0x2DB7 JUMP JUMPDEST PUSH1 0x40 MLOAD DUP1 SWAP2 SUB SWAP1 REVERT JUMPDEST PUSH0 PUSH1 0x3 PUSH0 DUP4 DUP2 MSTORE PUSH1 0x20 ADD SWAP1 DUP2 MSTORE PUSH1 0x20 ADD PUSH0 KECCAK256 SWAP1 POP PUSH1 0x1 DUP2 PUSH1 0xB ADD PUSH1 0x1 PUSH2 0x100 EXP DUP2 SLOAD DUP2 PUSH1 0xFF MUL NOT AND SWAP1 DUP4 ISZERO ISZERO MUL OR SWAP1 SSTORE POP PUSH0 JUMPDEST DUP2 PUSH1 0x3 ADD DUP1 SLOAD SWAP1 POP DUP2 LT ISZERO PUSH2 0x146C JUMPI PUSH0 DUP3 PUSH1 0x3 ADD DUP3 DUP2 SLOAD DUP2 LT PUSH2 0x1353 JUMPI PUSH2 0x1352 PUSH2 0x2DD5 JUMP JUMPDEST JUMPDEST SWAP1 PUSH0 MSTORE PUSH1 0x20 PUSH0 KECCAK256 ADD PUSH0 SWAP1 SLOAD SWAP1 PUSH2 0x100 EXP SWAP1 DIV PUSH20 0xFFFFFFFFFFFFFFFFFFFFFFFFFFFFFFFFFFFFFFFF AND PUSH20 0xFFFFFFFFFFFFFFFFFFFFFFFFFFFFFFFFFFFFFFFF AND DUP4 PUSH1 0x4 ADD DUP4 DUP2 SLOAD DUP2 LT PUSH2 0x13A7 JUMPI PUSH2 0x13A6 PUSH2 0x2DD5 JUMP JUMPDEST JUMPDEST SWAP1 PUSH0 MSTORE PUSH1 0x20 PUSH0 KECCAK256 ADD SLOAD DUP5 PUSH1 0x5 ADD DUP5 DUP2 SLOAD DUP2 LT PUSH2 0x13C6 JUMPI PUSH2 0x13C5 PUSH2 0x2DD5 JUMP JUMPDEST JUMPDEST SWAP1 PUSH0 MSTORE PUSH1 0x20 PUSH0 KECCAK256 ADD PUSH1 0x40 MLOAD PUSH2 0x13DB SWAP2 SWAP1 PUSH2 0x2E9E JUMP JUMPDEST PUSH0 PUSH1 0x40 MLOAD DUP1 DUP4 SUB DUP2 DUP6 DUP8 GAS CALL SWAP3 POP POP POP RETURNDATASIZE DUP1 PUSH0 DUP2 EQ PUSH2 0x1415 JUMPI PUSH1 0x40 MLOAD SWAP2 POP PUSH1 0x1F NOT PUSH1 0x3F RETURNDATASIZE ADD AND DUP3 ADD PUSH1 0x40 MSTORE RETURNDATASIZE DUP3 MSTORE RETURNDATASIZE PUSH0 PUSH1 0x20 DUP5 ADD RETURNDATACOPY PUSH2 0x141A JUMP JUMPDEST PUSH1 0x60 SWAP2 POP JUMPDEST POP POP SWAP1 POP DUP1 PUSH2 0x145E JUMPI PUSH1 0x40 MLOAD PUSH32 0x8C379A000000000000000000000000000000000000000000000000000000000 DUP2 MSTORE PUSH1 0x4 ADD PUSH2 0x1455 SWAP1 PUSH2 0x2EFE JUMP JUMPDEST PUSH1 0x40 MLOAD DUP1 SWAP2 SUB SWAP1 REVERT JUMPDEST POP DUP1 DUP1 PUSH1 0x1 ADD SWAP2 POP POP PUSH2 0x132D JUMP JUMPDEST POP DUP2 PUSH32 0x712AE1383F79AC853F8D882153778E0260EF8F03B504E2866E0593E04D2B291F PUSH1 0x40 MLOAD PUSH1 0x40 MLOAD DUP1 SWAP2 SUB SWAP1 LOG2 POP PUSH2 0x14A3 PUSH2 0x14F3 JUMP JUMPDEST POP JUMP JUMPDEST PUSH1 0x2 PUSH0 SLOAD SUB PUSH2 0x14EA JUMPI PUSH1 0x40 MLOAD PUSH32 0x8C379A000000000000000000000000000000000000000000000000000000000 DUP2 MSTORE PUSH1 0x4 ADD PUSH2 0x14E1 SWAP1 PUSH2 0x2F66 JUMP JUMPDEST PUSH1 0x40 MLOAD DUP1 SWAP2 SUB SWAP1 REVERT JUMPDEST PUSH1 0x2 PUSH0 DUP2 SWAP1 SSTORE POP JUMP JUMPDEST PUSH1 0x1 PUSH0 DUP2 SWAP1 SSTORE POP JUMP JUMPDEST PUSH2 0x1504 PUSH2 0x1751 JUMP JUMPDEST PUSH20 0xFFFFFFFFFFFFFFFFFFFFFFFFFFFFFFFFFFFFFFFF AND PUSH2 0x1522 PUSH2 0xF91 JUMP JUMPDEST PUSH20 0xFFFFFFFFFFFFFFFFFFFFFFFFFFFFFFFFFFFFFFFF AND EQ PUSH2 0x1581 JUMPI PUSH2 0x1545 PUSH2 0x1751 JUMP JUMPDEST PUSH1 0x40 MLOAD PUSH32 0x118CDAA700000000000000000000000000000000000000000000000000000000 DUP2 MSTORE PUSH1 0x4 ADD PUSH2 0x1578 SWAP2 SWAP1 PUSH2 0x1B3C JUMP JUMPDEST PUSH1 0x40 MLOAD DUP1 SWAP2 SUB SWAP1 REVERT JUMPDEST JUMP JUMPDEST PUSH2 0x158B PUSH2 0x1758 JUMP JUMPDEST PUSH0 PUSH1 0x1 PUSH0 PUSH2 0x100 EXP DUP2 SLOAD DUP2 PUSH1 0xFF MUL NOT AND SWAP1 DUP4 ISZERO ISZERO MUL OR SWAP1 SSTORE POP PUSH32 0x5DB9EE0A495BF2E6FF9C91A7834C1BA4FDD244A5E8AA4E537BD38AEAE4B073AA PUSH2 0x15CD PUSH2 0x1751 JUMP JUMPDEST PUSH1 0x40 MLOAD PUSH2 0x15DA SWAP2 SWAP1 PUSH2 0x1B3C JUMP JUMPDEST PUSH1 0x40 MLOAD DUP1 SWAP2 SUB SWAP1 LOG1 JUMP JUMPDEST PUSH2 0x15EC PUSH2 0xBDB JUMP JUMPDEST ISZERO PUSH2 0x162C JUMPI PUSH1 0x40 MLOAD PUSH32 0x8C379A000000000000000000000000000000000000000000000000000000000 DUP2 MSTORE PUSH1 0x4 ADD PUSH2 0x1623 SWAP1 PUSH2 0x2FCE JUMP JUMPDEST PUSH1 0x40 MLOAD DUP1 SWAP2 SUB SWAP1 REVERT JUMPDEST JUMP JUMPDEST PUSH0 PUSH1 0x1 DUP1 SLOAD SWAP1 PUSH2 0x100 EXP SWAP1 DIV PUSH20 0xFFFFFFFFFFFFFFFFFFFFFFFFFFFFFFFFFFFFFFFF AND SWAP1 POP DUP2 PUSH1 0x1 DUP1 PUSH2 0x100 EXP DUP2 SLOAD DUP2 PUSH20 0xFFFFFFFFFFFFFFFFFFFFFFFFFFFFFFFFFFFFFFFF MUL NOT AND SWAP1 DUP4 PUSH20 0xFFFFFFFFFFFFFFFFFFFFFFFFFFFFFFFFFFFFFFFF AND MUL OR SWAP1 SSTORE POP DUP2 PUSH20 0xFFFFFFFFFFFFFFFFFFFFFFFFFFFFFFFFFFFFFFFF AND DUP2 PUSH20 0xFFFFFFFFFFFFFFFFFFFFFFFFFFFFFFFFFFFFFFFF AND PUSH32 0x8BE0079C531659141344CD1FD0A4F28419497F9722A3DAAFE3B4186F6B6457E0 PUSH1 0x40 MLOAD PUSH1 0x40 MLOAD DUP1 SWAP2 SUB SWAP1 LOG3 POP POP JUMP JUMPDEST PUSH2 0x16F8 PUSH2 0x15E4 JUMP JUMPDEST PUSH1 0x1 DUP1 PUSH0 PUSH2 0x100 EXP DUP2 SLOAD DUP2 PUSH1 0xFF MUL NOT AND SWAP1 DUP4 ISZERO ISZERO MUL OR SWAP1 SSTORE POP PUSH32 0x62E78CEA01BEE320CD4E420270B5EA74000D11B0C9F74754EBDBFC544B05A258 PUSH2 0x173A PUSH2 0x1751 JUMP JUMPDEST PUSH1 0x40 MLOAD PUSH2 0x1747 SWAP2 SWAP1 PUSH2 0x1B3C JUMP JUMPDEST PUSH1 0x40 MLOAD DUP1 SWAP2 SUB SWAP1 LOG1 JUMP JUMPDEST PUSH0 CALLER SWAP1 POP SWAP1 JUMP JUMPDEST PUSH2 0x1760 PUSH2 0xBDB JUMP JUMPDEST PUSH2 0x179F JUMPI PUSH1 0x40 MLOAD PUSH32 0x8C379A000000000000000000000000000000000000000000000000000000000 DUP2 MSTORE PUSH1 0x4 ADD PUSH2 0x1796 SWAP1 PUSH2 0x3036 JUMP JUMPDEST PUSH1 0x40 MLOAD DUP1 SWAP2 SUB SWAP1 REVERT JUMPDEST JUMP JUMPDEST DUP3 DUP1 SLOAD DUP3 DUP3 SSTORE SWAP1 PUSH0 MSTORE PUSH1 0x20 PUSH0 KECCAK256 SWAP1 DUP2 ADD SWAP3 DUP3 ISZERO PUSH2 0x1817 JUMPI SWAP2 PUSH1 0x20 MUL DUP3 ADD JUMPDEST DUP3 DUP2 GT ISZERO PUSH2 0x1816 JUMPI DUP3 MLOAD DUP3 PUSH0 PUSH2 0x100 EXP DUP2 SLOAD DUP2 PUSH20 0xFFFFFFFFFFFFFFFFFFFFFFFFFFFFFFFFFFFFFFFF MUL NOT AND SWAP1 DUP4 PUSH20 0xFFFFFFFFFFFFFFFFFFFFFFFFFFFFFFFFFFFFFFFF AND MUL OR SWAP1 SSTORE POP SWAP2 PUSH1 0x20 ADD SWAP2 SWAP1 PUSH1 0x1 ADD SWAP1 PUSH2 0x17BF JUMP JUMPDEST JUMPDEST POP SWAP1 POP PUSH2 0x1824 SWAP2 SWAP1 PUSH2 0x18EC JUMP JUMPDEST POP SWAP1 JUMP JUMPDEST DUP3 DUP1 SLOAD DUP3 DUP3 SSTORE SWAP1 PUSH0 MSTORE PUSH1 0x20 PUSH0 KECCAK256 SWAP1 DUP2 ADD SWAP3 DUP3 ISZERO PUSH2 0x1862 JUMPI SWAP2 PUSH1 0x20 MUL DUP3 ADD JUMPDEST DUP3 DUP2 GT ISZERO PUSH2 0x1861 JUMPI DUP3 MLOAD DUP3 SSTORE SWAP2 PUSH1 0x20 ADD SWAP2 SWAP1 PUSH1 0x1 ADD SWAP1 PUSH2 0x1846 JUMP JUMPDEST JUMPDEST POP SWAP1 POP PUSH2 0x186F SWAP2 SWAP1 PUSH2 0x18EC JUMP JUMPDEST POP SWAP1 JUMP JUMPDEST DUP3 DUP1 SLOAD DUP3 DUP3 SSTORE SWAP1 PUSH0 MSTORE PUSH1 0x20 PUSH0 KECCAK256 SWAP1 DUP2 ADD SWAP3 DUP3 ISZERO PUSH2 0x18B9 JUMPI SWAP2 PUSH1 0x20 MUL DUP3 ADD JUMPDEST DUP3 DUP2 GT ISZERO PUSH2 0x18B8 JUMPI DUP3 MLOAD DUP3 SWAP1 DUP2 PUSH2 0x18A8 SWAP2 SWAP1 PUSH2 0x309A JUMP JUMPDEST POP SWAP2 PUSH1 0x20 ADD SWAP2 SWAP1 PUSH1 0x1 ADD SWAP1 PUSH2 0x1891 JUMP JUMPDEST JUMPDEST POP SWAP1 POP PUSH2 0x18C6 SWAP2 SWAP1 PUSH2 0x1907 JUMP JUMPDEST POP SWAP1 JUMP JUMPDEST PUSH1 0x40 MLOAD DUP1 PUSH1 0x60 ADD PUSH1 0x40 MSTORE DUP1 PUSH0 ISZERO ISZERO DUP2 MSTORE PUSH1 0x20 ADD PUSH0 ISZERO ISZERO DUP2 MSTORE PUSH1 0x20 ADD PUSH0 DUP2 MSTORE POP SWAP1 JUMP JUMPDEST JUMPDEST DUP1 DUP3 GT ISZERO PUSH2 0x1903 JUMPI PUSH0 DUP2 PUSH0 SWAP1 SSTORE POP PUSH1 0x1 ADD PUSH2 0x18ED JUMP JUMPDEST POP SWAP1 JUMP JUMPDEST JUMPDEST DUP1 DUP3 GT ISZERO PUSH2 0x1926 JUMPI PUSH0 DUP2 DUP2 PUSH2 0x191D SWAP2 SWAP1 PUSH2 0x192A JUMP JUMPDEST POP PUSH1 0x1 ADD PUSH2 0x1908 JUMP JUMPDEST POP SWAP1 JUMP JUMPDEST POP DUP1 SLOAD PUSH2 0x1936 SWAP1 PUSH2 0x2745 JUMP JUMPDEST PUSH0 DUP3 SSTORE DUP1 PUSH1 0x1F LT PUSH2 0x1947 JUMPI POP PUSH2 0x1964 JUMP JUMPDEST PUSH1 0x1F ADD PUSH1 0x20 SWAP1 DIV SWAP1 PUSH0 MSTORE PUSH1 0x20 PUSH0 KECCAK256 SWAP1 DUP2 ADD SWAP1 PUSH2 0x1963 SWAP2 SWAP1 PUSH2 0x18EC JUMP JUMPDEST JUMPDEST POP JUMP JUMPDEST PUSH0 DUP2 SWAP1 POP SWAP2 SWAP1 POP JUMP JUMPDEST PUSH2 0x1979 DUP2 PUSH2 0x1967 JUMP JUMPDEST DUP3 MSTORE POP POP JUMP JUMPDEST PUSH0 PUSH1 0x20 DUP3 ADD SWAP1 POP PUSH2 0x1992 PUSH0 DUP4 ADD DUP5 PUSH2 0x1970 JUMP JUMPDEST SWAP3 SWAP2 POP POP JUMP JUMPDEST PUSH0 PUSH1 0x40 MLOAD SWAP1 POP SWAP1 JUMP JUMPDEST PUSH0 DUP1 REVERT JUMPDEST PUSH0 DUP1 REVERT JUMPDEST PUSH2 0x19B2 DUP2 PUSH2 0x1967 JUMP JUMPDEST DUP2 EQ PUSH2 0x19BC JUMPI PUSH0 DUP1 REVERT JUMPDEST POP JUMP JUMPDEST PUSH0 DUP2 CALLDATALOAD SWAP1 POP PUSH2 0x19CD DUP2 PUSH2 0x19A9 JUMP JUMPDEST SWAP3 SWAP2 POP POP JUMP JUMPDEST PUSH0 DUP2 ISZERO ISZERO SWAP1 POP SWAP2 SWAP1 POP JUMP JUMPDEST PUSH2 0x19E7 DUP2 PUSH2 0x19D3 JUMP JUMPDEST DUP2 EQ PUSH2 0x19F1 JUMPI PUSH0 DUP1 REVERT JUMPDEST POP JUMP JUMPDEST PUSH0 DUP2 CALLDATALOAD SWAP1 POP PUSH2 0x1A02 DUP2 PUSH2 0x19DE JUMP JUMPDEST SWAP3 SWAP2 POP POP JUMP JUMPDEST PUSH0 DUP1 PUSH1 0x40 DUP4 DUP6 SUB SLT ISZERO PUSH2 0x1A1E JUMPI PUSH2 0x1A1D PUSH2 0x19A1 JUMP JUMPDEST JUMPDEST PUSH0 PUSH2 0x1A2B DUP6 DUP3 DUP7 ADD PUSH2 0x19BF JUMP JUMPDEST SWAP3 POP POP PUSH1 0x20 PUSH2 0x1A3C DUP6 DUP3 DUP7 ADD PUSH2 0x19F4 JUMP JUMPDEST SWAP2 POP POP SWAP3 POP SWAP3 SWAP1 POP JUMP JUMPDEST PUSH0 PUSH1 0x20 DUP3 DUP5 SUB SLT ISZERO PUSH2 0x1A5B JUMPI PUSH2 0x1A5A PUSH2 0x19A1 JUMP JUMPDEST JUMPDEST PUSH0 PUSH2 0x1A68 DUP5 DUP3 DUP6 ADD PUSH2 0x19BF JUMP JUMPDEST SWAP2 POP POP SWAP3 SWAP2 POP POP JUMP JUMPDEST PUSH32 0x4E487B7100000000000000000000000000000000000000000000000000000000 PUSH0 MSTORE PUSH1 0x21 PUSH1 0x4 MSTORE PUSH1 0x24 PUSH0 REVERT JUMPDEST PUSH1 0x8 DUP2 LT PUSH2 0x1AAF JUMPI PUSH2 0x1AAE PUSH2 0x1A71 JUMP JUMPDEST JUMPDEST POP JUMP JUMPDEST PUSH0 DUP2 SWAP1 POP PUSH2 0x1ABF DUP3 PUSH2 0x1A9E JUMP JUMPDEST SWAP2 SWAP1 POP JUMP JUMPDEST PUSH0 PUSH2 0x1ACE DUP3 PUSH2 0x1AB2 JUMP JUMPDEST SWAP1 POP SWAP2 SWAP1 POP JUMP JUMPDEST PUSH2 0x1ADE DUP2 PUSH2 0x1AC4 JUMP JUMPDEST DUP3 MSTORE POP POP JUMP JUMPDEST PUSH0 PUSH1 0x20 DUP3 ADD SWAP1 POP PUSH2 0x1AF7 PUSH0 DUP4 ADD DUP5 PUSH2 0x1AD5 JUMP JUMPDEST SWAP3 SWAP2 POP POP JUMP JUMPDEST PUSH0 PUSH20 0xFFFFFFFFFFFFFFFFFFFFFFFFFFFFFFFFFFFFFFFF DUP3 AND SWAP1 POP SWAP2 SWAP1 POP JUMP JUMPDEST PUSH0 PUSH2 0x1B26 DUP3 PUSH2 0x1AFD JUMP JUMPDEST SWAP1 POP SWAP2 SWAP1 POP JUMP JUMPDEST PUSH2 0x1B36 DUP2 PUSH2 0x1B1C JUMP JUMPDEST DUP3 MSTORE POP POP JUMP JUMPDEST PUSH0 PUSH1 0x20 DUP3 ADD SWAP1 POP PUSH2 0x1B4F PUSH0 DUP4 ADD DUP5 PUSH2 0x1B2D JUMP JUMPDEST SWAP3 SWAP2 POP POP JUMP JUMPDEST PUSH2 0x1B5E DUP2 PUSH2 0x19D3 JUMP JUMPDEST DUP3 MSTORE POP POP JUMP JUMPDEST PUSH0 PUSH1 0x20 DUP3 ADD SWAP1 POP PUSH2 0x1B77 PUSH0 DUP4 ADD DUP5 PUSH2 0x1B55 JUMP JUMPDEST SWAP3 SWAP2 POP POP JUMP JUMPDEST PUSH0 DUP1 REVERT JUMPDEST PUSH0 PUSH1 0x1F NOT PUSH1 0x1F DUP4 ADD AND SWAP1 POP SWAP2 SWAP1 POP JUMP JUMPDEST PUSH32 0x4E487B7100000000000000000000000000000000000000000000000000000000 PUSH0 MSTORE PUSH1 0x41 PUSH1 0x4 MSTORE PUSH1 0x24 PUSH0 REVERT JUMPDEST PUSH2 0x1BC7 DUP3 PUSH2 0x1B81 JUMP JUMPDEST DUP2 ADD DUP2 DUP2 LT PUSH8 0xFFFFFFFFFFFFFFFF DUP3 GT OR ISZERO PUSH2 0x1BE6 JUMPI PUSH2 0x1BE5 PUSH2 0x1B91 JUMP JUMPDEST JUMPDEST DUP1 PUSH1 0x40 MSTORE POP POP POP JUMP JUMPDEST PUSH0 PUSH2 0x1BF8 PUSH2 0x1998 JUMP JUMPDEST SWAP1 POP PUSH2 0x1C04 DUP3 DUP3 PUSH2 0x1BBE JUMP JUMPDEST SWAP2 SWAP1 POP JUMP JUMPDEST PUSH0 PUSH8 0xFFFFFFFFFFFFFFFF DUP3 GT ISZERO PUSH2 0x1C23 JUMPI PUSH2 0x1C22 PUSH2 0x1B91 JUMP JUMPDEST JUMPDEST PUSH1 0x20 DUP3 MUL SWAP1 POP PUSH1 0x20 DUP2 ADD SWAP1 POP SWAP2 SWAP1 POP JUMP JUMPDEST PUSH0 DUP1 REVERT JUMPDEST PUSH2 0x1C41 DUP2 PUSH2 0x1B1C JUMP JUMPDEST DUP2 EQ PUSH2 0x1C4B JUMPI PUSH0 DUP1 REVERT JUMPDEST POP JUMP JUMPDEST PUSH0 DUP2 CALLDATALOAD SWAP1 POP PUSH2 0x1C5C DUP2 PUSH2 0x1C38 JUMP JUMPDEST SWAP3 SWAP2 POP POP JUMP JUMPDEST PUSH0 PUSH2 0x1C74 PUSH2 0x1C6F DUP5 PUSH2 0x1C09 JUMP JUMPDEST PUSH2 0x1BEF JUMP JUMPDEST SWAP1 POP DUP1 DUP4 DUP3 MSTORE PUSH1 0x20 DUP3 ADD SWAP1 POP PUSH1 0x20 DUP5 MUL DUP4 ADD DUP6 DUP2 GT ISZERO PUSH2 0x1C97 JUMPI PUSH2 0x1C96 PUSH2 0x1C34 JUMP JUMPDEST JUMPDEST DUP4 JUMPDEST DUP2 DUP2 LT ISZERO PUSH2 0x1CC0 JUMPI DUP1 PUSH2 0x1CAC DUP9 DUP3 PUSH2 0x1C4E JUMP JUMPDEST DUP5 MSTORE PUSH1 0x20 DUP5 ADD SWAP4 POP POP PUSH1 0x20 DUP2 ADD SWAP1 POP PUSH2 0x1C99 JUMP JUMPDEST POP POP POP SWAP4 SWAP3 POP POP POP JUMP JUMPDEST PUSH0 DUP3 PUSH1 0x1F DUP4 ADD SLT PUSH2 0x1CDE JUMPI PUSH2 0x1CDD PUSH2 0x1B7D JUMP JUMPDEST JUMPDEST DUP2 CALLDATALOAD PUSH2 0x1CEE DUP5 DUP3 PUSH1 0x20 DUP7 ADD PUSH2 0x1C62 JUMP JUMPDEST SWAP2 POP POP SWAP3 SWAP2 POP POP JUMP JUMPDEST PUSH0 PUSH8 0xFFFFFFFFFFFFFFFF DUP3 GT ISZERO PUSH2 0x1D11 JUMPI PUSH2 0x1D10 PUSH2 0x1B91 JUMP JUMPDEST JUMPDEST PUSH1 0x20 DUP3 MUL SWAP1 POP PUSH1 0x20 DUP2 ADD SWAP1 POP SWAP2 SWAP1 POP JUMP JUMPDEST PUSH0 PUSH2 0x1D34 PUSH2 0x1D2F DUP5 PUSH2 0x1CF7 JUMP JUMPDEST PUSH2 0x1BEF JUMP JUMPDEST SWAP1 POP DUP1 DUP4 DUP3 MSTORE PUSH1 0x20 DUP3 ADD SWAP1 POP PUSH1 0x20 DUP5 MUL DUP4 ADD DUP6 DUP2 GT ISZERO PUSH2 0x1D57 JUMPI PUSH2 0x1D56 PUSH2 0x1C34 JUMP JUMPDEST JUMPDEST DUP4 JUMPDEST DUP2 DUP2 LT ISZERO PUSH2 0x1D80 JUMPI DUP1 PUSH2 0x1D6C DUP9 DUP3 PUSH2 0x19BF JUMP JUMPDEST DUP5 MSTORE PUSH1 0x20 DUP5 ADD SWAP4 POP POP PUSH1 0x20 DUP2 ADD SWAP1 POP PUSH2 0x1D59 JUMP JUMPDEST POP POP POP SWAP4 SWAP3 POP POP POP JUMP JUMPDEST PUSH0 DUP3 PUSH1 0x1F DUP4 ADD SLT PUSH2 0x1D9E JUMPI PUSH2 0x1D9D PUSH2 0x1B7D JUMP JUMPDEST JUMPDEST DUP2 CALLDATALOAD PUSH2 0x1DAE DUP5 DUP3 PUSH1 0x20 DUP7 ADD PUSH2 0x1D22 JUMP JUMPDEST SWAP2 POP POP SWAP3 SWAP2 POP POP JUMP JUMPDEST PUSH0 PUSH8 0xFFFFFFFFFFFFFFFF DUP3 GT ISZERO PUSH2 0x1DD1 JUMPI PUSH2 0x1DD0 PUSH2 0x1B91 JUMP JUMPDEST JUMPDEST PUSH1 0x20 DUP3 MUL SWAP1 POP PUSH1 0x20 DUP2 ADD SWAP1 POP SWAP2 SWAP1 POP JUMP JUMPDEST PUSH0 DUP1 REVERT JUMPDEST PUSH0 PUSH8 0xFFFFFFFFFFFFFFFF DUP3 GT ISZERO PUSH2 0x1E00 JUMPI PUSH2 0x1DFF PUSH2 0x1B91 JUMP JUMPDEST JUMPDEST PUSH2 0x1E09 DUP3 PUSH2 0x1B81 JUMP JUMPDEST SWAP1 POP PUSH1 0x20 DUP2 ADD SWAP1 POP SWAP2 SWAP1 POP JUMP JUMPDEST DUP3 DUP2 DUP4 CALLDATACOPY PUSH0 DUP4 DUP4 ADD MSTORE POP POP POP JUMP JUMPDEST PUSH0 PUSH2 0x1E36 PUSH2 0x1E31 DUP5 PUSH2 0x1DE6 JUMP JUMPDEST PUSH2 0x1BEF JUMP JUMPDEST SWAP1 POP DUP3 DUP2 MSTORE PUSH1 0x20 DUP2 ADD DUP5 DUP5 DUP5 ADD GT ISZERO PUSH2 0x1E52 JUMPI PUSH2 0x1E51 PUSH2 0x1DE2 JUMP JUMPDEST JUMPDEST PUSH2 0x1E5D DUP5 DUP3 DUP6 PUSH2 0x1E16 JUMP JUMPDEST POP SWAP4 SWAP3 POP POP POP JUMP JUMPDEST PUSH0 DUP3 PUSH1 0x1F DUP4 ADD SLT PUSH2 0x1E79 JUMPI PUSH2 0x1E78 PUSH2 0x1B7D JUMP JUMPDEST JUMPDEST DUP2 CALLDATALOAD PUSH2 0x1E89 DUP5 DUP3 PUSH1 0x20 DUP7 ADD PUSH2 0x1E24 JUMP JUMPDEST SWAP2 POP POP SWAP3 SWAP2 POP POP JUMP JUMPDEST PUSH0 PUSH2 0x1EA4 PUSH2 0x1E9F DUP5 PUSH2 0x1DB7 JUMP JUMPDEST PUSH2 0x1BEF JUMP JUMPDEST SWAP1 POP DUP1 DUP4 DUP3 MSTORE PUSH1 0x20 DUP3 ADD SWAP1 POP PUSH1 0x20 DUP5 MUL DUP4 ADD DUP6 DUP2 GT ISZERO PUSH2 0x1EC7 JUMPI PUSH2 0x1EC6 PUSH2 0x1C34 JUMP JUMPDEST JUMPDEST DUP4 JUMPDEST DUP2 DUP2 LT ISZERO PUSH2 0x1F0E JUMPI DUP1 CALLDATALOAD PUSH8 0xFFFFFFFFFFFFFFFF DUP2 GT ISZERO PUSH2 0x1EEC JUMPI PUSH2 0x1EEB PUSH2 0x1B7D JUMP JUMPDEST JUMPDEST DUP1 DUP7 ADD PUSH2 0x1EF9 DUP10 DUP3 PUSH2 0x1E65 JUMP JUMPDEST DUP6 MSTORE PUSH1 0x20 DUP6 ADD SWAP5 POP POP POP PUSH1 0x20 DUP2 ADD SWAP1 POP PUSH2 0x1EC9 JUMP JUMPDEST POP POP POP SWAP4 SWAP3 POP POP POP JUMP JUMPDEST PUSH0 DUP3 PUSH1 0x1F DUP4 ADD SLT PUSH2 0x1F2C JUMPI PUSH2 0x1F2B PUSH2 0x1B7D JUMP JUMPDEST JUMPDEST DUP2 CALLDATALOAD PUSH2 0x1F3C DUP5 DUP3 PUSH1 0x20 DUP7 ADD PUSH2 0x1E92 JUMP JUMPDEST SWAP2 POP POP SWAP3 SWAP2 POP POP JUMP JUMPDEST PUSH0 PUSH8 0xFFFFFFFFFFFFFFFF DUP3 GT ISZERO PUSH2 0x1F5F JUMPI PUSH2 0x1F5E PUSH2 0x1B91 JUMP JUMPDEST JUMPDEST PUSH2 0x1F68 DUP3 PUSH2 0x1B81 JUMP JUMPDEST SWAP1 POP PUSH1 0x20 DUP2 ADD SWAP1 POP SWAP2 SWAP1 POP JUMP JUMPDEST PUSH0 PUSH2 0x1F87 PUSH2 0x1F82 DUP5 PUSH2 0x1F45 JUMP JUMPDEST PUSH2 0x1BEF JUMP JUMPDEST SWAP1 POP DUP3 DUP2 MSTORE PUSH1 0x20 DUP2 ADD DUP5 DUP5 DUP5 ADD GT ISZERO PUSH2 0x1FA3 JUMPI PUSH2 0x1FA2 PUSH2 0x1DE2 JUMP JUMPDEST JUMPDEST PUSH2 0x1FAE DUP5 DUP3 DUP6 PUSH2 0x1E16 JUMP JUMPDEST POP SWAP4 SWAP3 POP POP POP JUMP JUMPDEST PUSH0 DUP3 PUSH1 0x1F DUP4 ADD SLT PUSH2 0x1FCA JUMPI PUSH2 0x1FC9 PUSH2 0x1B7D JUMP JUMPDEST JUMPDEST DUP2 CALLDATALOAD PUSH2 0x1FDA DUP5 DUP3 PUSH1 0x20 DUP7 ADD PUSH2 0x1F75 JUMP JUMPDEST SWAP2 POP POP SWAP3 SWAP2 POP POP JUMP JUMPDEST PUSH0 DUP1 PUSH0 DUP1 PUSH1 0x80 DUP6 DUP8 SUB SLT ISZERO PUSH2 0x1FFB JUMPI PUSH2 0x1FFA PUSH2 0x19A1 JUMP JUMPDEST JUMPDEST PUSH0 DUP6 ADD CALLDATALOAD PUSH8 0xFFFFFFFFFFFFFFFF DUP2 GT ISZERO PUSH2 0x2018 JUMPI PUSH2 0x2017 PUSH2 0x19A5 JUMP JUMPDEST JUMPDEST PUSH2 0x2024 DUP8 DUP3 DUP9 ADD PUSH2 0x1CCA JUMP JUMPDEST SWAP5 POP POP PUSH1 0x20 DUP6 ADD CALLDATALOAD PUSH8 0xFFFFFFFFFFFFFFFF DUP2 GT ISZERO PUSH2 0x2045 JUMPI PUSH2 0x2044 PUSH2 0x19A5 JUMP JUMPDEST JUMPDEST PUSH2 0x2051 DUP8 DUP3 DUP9 ADD PUSH2 0x1D8A JUMP JUMPDEST SWAP4 POP POP PUSH1 0x40 DUP6 ADD CALLDATALOAD PUSH8 0xFFFFFFFFFFFFFFFF DUP2 GT ISZERO PUSH2 0x2072 JUMPI PUSH2 0x2071 PUSH2 0x19A5 JUMP JUMPDEST JUMPDEST PUSH2 0x207E DUP8 DUP3 DUP9 ADD PUSH2 0x1F18 JUMP JUMPDEST SWAP3 POP POP PUSH1 0x60 DUP6 ADD CALLDATALOAD PUSH8 0xFFFFFFFFFFFFFFFF DUP2 GT ISZERO PUSH2 0x209F JUMPI PUSH2 0x209E PUSH2 0x19A5 JUMP JUMPDEST JUMPDEST PUSH2 0x20AB DUP8 DUP3 DUP9 ADD PUSH2 0x1FB6 JUMP JUMPDEST SWAP2 POP POP SWAP3 SWAP6 SWAP2 SWAP5 POP SWAP3 POP JUMP JUMPDEST PUSH0 DUP1 PUSH1 0x40 DUP4 DUP6 SUB SLT ISZERO PUSH2 0x20CD JUMPI PUSH2 0x20CC PUSH2 0x19A1 JUMP JUMPDEST JUMPDEST PUSH0 PUSH2 0x20DA DUP6 DUP3 DUP7 ADD PUSH2 0x19BF JUMP JUMPDEST SWAP3 POP POP PUSH1 0x20 PUSH2 0x20EB DUP6 DUP3 DUP7 ADD PUSH2 0x1C4E JUMP JUMPDEST SWAP2 POP POP SWAP3 POP SWAP3 SWAP1 POP JUMP JUMPDEST PUSH2 0x20FE DUP2 PUSH2 0x19D3 JUMP JUMPDEST DUP3 MSTORE POP POP JUMP JUMPDEST PUSH2 0x210D DUP2 PUSH2 0x1967 JUMP JUMPDEST DUP3 MSTORE POP POP JUMP JUMPDEST PUSH1 0x60 DUP3 ADD PUSH0 DUP3 ADD MLOAD PUSH2 0x2127 PUSH0 DUP6 ADD DUP3 PUSH2 0x20F5 JUMP JUMPDEST POP PUSH1 0x20 DUP3 ADD MLOAD PUSH2 0x213A PUSH1 0x20 DUP6 ADD DUP3 PUSH2 0x20F5 JUMP JUMPDEST POP PUSH1 0x40 DUP3 ADD MLOAD PUSH2 0x214D PUSH1 0x40 DUP6 ADD DUP3 PUSH2 0x2104 JUMP JUMPDEST POP POP POP POP JUMP JUMPDEST PUSH0 PUSH1 0x60 DUP3 ADD SWAP1 POP PUSH2 0x2166 PUSH0 DUP4 ADD DUP5 PUSH2 0x2113 JUMP JUMPDEST SWAP3 SWAP2 POP POP JUMP JUMPDEST PUSH0 PUSH1 0x20 DUP3 DUP5 SUB SLT ISZERO PUSH2 0x2181 JUMPI PUSH2 0x2180 PUSH2 0x19A1 JUMP JUMPDEST JUMPDEST PUSH0 PUSH2 0x218E DUP5 DUP3 DUP6 ADD PUSH2 0x1C4E JUMP JUMPDEST SWAP2 POP POP SWAP3 SWAP2 POP POP JUMP JUMPDEST PUSH0 DUP2 SWAP1 POP SWAP2 SWAP1 POP JUMP JUMPDEST PUSH0 PUSH2 0x21BA PUSH2 0x21B5 PUSH2 0x21B0 DUP5 PUSH2 0x1AFD JUMP JUMPDEST PUSH2 0x2197 JUMP JUMPDEST PUSH2 0x1AFD JUMP JUMPDEST SWAP1 POP SWAP2 SWAP1 POP JUMP JUMPDEST PUSH0 PUSH2 0x21CB DUP3 PUSH2 0x21A0 JUMP JUMPDEST SWAP1 POP SWAP2 SWAP1 POP JUMP JUMPDEST PUSH0 PUSH2 0x21DC DUP3 PUSH2 0x21C1 JUMP JUMPDEST SWAP1 POP SWAP2 SWAP1 POP JUMP JUMPDEST PUSH2 0x21EC DUP2 PUSH2 0x21D2 JUMP JUMPDEST DUP3 MSTORE POP POP JUMP JUMPDEST PUSH0 PUSH1 0x20 DUP3 ADD SWAP1 POP PUSH2 0x2205 PUSH0 DUP4 ADD DUP5 PUSH2 0x21E3 JUMP JUMPDEST SWAP3 SWAP2 POP POP JUMP JUMPDEST PUSH0 DUP3 DUP3 MSTORE PUSH1 0x20 DUP3 ADD SWAP1 POP SWAP3 SWAP2 POP POP JUMP JUMPDEST PUSH32 0x437573746F6D44414F3A20766F74696E6720636C6F7365640000000000000000 PUSH0 DUP3 ADD MSTORE POP JUMP JUMPDEST PUSH0 PUSH2 0x224F PUSH1 0x18 DUP4 PUSH2 0x220B JUMP JUMPDEST SWAP2 POP PUSH2 0x225A DUP3 PUSH2 0x221B JUMP JUMPDEST PUSH1 0x20 DUP3 ADD SWAP1 POP SWAP2 SWAP1 POP JUMP JUMPDEST PUSH0 PUSH1 0x20 DUP3 ADD SWAP1 POP DUP2 DUP2 SUB PUSH0 DUP4 ADD MSTORE PUSH2 0x227C DUP2 PUSH2 0x2243 JUMP JUMPDEST SWAP1 POP SWAP2 SWAP1 POP JUMP JUMPDEST PUSH32 0x437573746F6D44414F3A20616C726561647920766F7465640000000000000000 PUSH0 DUP3 ADD MSTORE POP JUMP JUMPDEST PUSH0 PUSH2 0x22B7 PUSH1 0x18 DUP4 PUSH2 0x220B JUMP JUMPDEST SWAP2 POP PUSH2 0x22C2 DUP3 PUSH2 0x2283 JUMP JUMPDEST PUSH1 0x20 DUP3 ADD SWAP1 POP SWAP2 SWAP1 POP JUMP JUMPDEST PUSH0 PUSH1 0x20 DUP3 ADD SWAP1 POP DUP2 DUP2 SUB PUSH0 DUP4 ADD MSTORE PUSH2 0x22E4 DUP2 PUSH2 0x22AB JUMP JUMPDEST SWAP1 POP SWAP2 SWAP1 POP JUMP JUMPDEST PUSH0 PUSH1 0x40 DUP3 ADD SWAP1 POP PUSH2 0x22FE PUSH0 DUP4 ADD DUP6 PUSH2 0x1B2D JUMP JUMPDEST PUSH2 0x230B PUSH1 0x20 DUP4 ADD DUP5 PUSH2 0x1970 JUMP JUMPDEST SWAP4 SWAP3 POP POP POP JUMP JUMPDEST PUSH0 DUP2 MLOAD SWAP1 POP PUSH2 0x2320 DUP2 PUSH2 0x19A9 JUMP JUMPDEST SWAP3 SWAP2 POP POP JUMP JUMPDEST PUSH0 PUSH1 0x20 DUP3 DUP5 SUB SLT ISZERO PUSH2 0x233B JUMPI PUSH2 0x233A PUSH2 0x19A1 JUMP JUMPDEST JUMPDEST PUSH0 PUSH2 0x2348 DUP5 DUP3 DUP6 ADD PUSH2 0x2312 JUMP JUMPDEST SWAP2 POP POP SWAP3 SWAP2 POP POP JUMP JUMPDEST PUSH32 0x437573746F6D44414F3A206E6F20766F74696E6720706F776572000000000000 PUSH0 DUP3 ADD MSTORE POP JUMP JUMPDEST PUSH0 PUSH2 0x2385 PUSH1 0x1A DUP4 PUSH2 0x220B JUMP JUMPDEST SWAP2 POP PUSH2 0x2390 DUP3 PUSH2 0x2351 JUMP JUMPDEST PUSH1 0x20 DUP3 ADD SWAP1 POP SWAP2 SWAP1 POP JUMP JUMPDEST PUSH0 PUSH1 0x20 DUP3 ADD SWAP1 POP DUP2 DUP2 SUB PUSH0 DUP4 ADD MSTORE PUSH2 0x23B2 DUP2 PUSH2 0x2379 JUMP JUMPDEST SWAP1 POP SWAP2 SWAP1 POP JUMP JUMPDEST PUSH32 0x4E487B7100000000000000000000000000000000000000000000000000000000 PUSH0 MSTORE PUSH1 0x11 PUSH1 0x4 MSTORE PUSH1 0x24 PUSH0 REVERT JUMPDEST PUSH0 PUSH2 0x23F0 DUP3 PUSH2 0x1967 JUMP JUMPDEST SWAP2 POP PUSH2 0x23FB DUP4 PUSH2 0x1967 JUMP JUMPDEST SWAP3 POP DUP3 DUP3 ADD SWAP1 POP DUP1 DUP3 GT ISZERO PUSH2 0x2413 JUMPI PUSH2 0x2412 PUSH2 0x23B9 JUMP JUMPDEST JUMPDEST SWAP3 SWAP2 POP POP JUMP JUMPDEST PUSH0 PUSH1 0x40 DUP3 ADD SWAP1 POP PUSH2 0x242C PUSH0 DUP4 ADD DUP6 PUSH2 0x1B55 JUMP JUMPDEST PUSH2 0x2439 PUSH1 0x20 DUP4 ADD DUP5 PUSH2 0x1970 JUMP JUMPDEST SWAP4 SWAP3 POP POP POP JUMP JUMPDEST PUSH32 0x437573746F6D44414F3A20696E76616C69642069640000000000000000000000 PUSH0 DUP3 ADD MSTORE POP JUMP JUMPDEST PUSH0 PUSH2 0x2474 PUSH1 0x15 DUP4 PUSH2 0x220B JUMP JUMPDEST SWAP2 POP PUSH2 0x247F DUP3 PUSH2 0x2440 JUMP JUMPDEST PUSH1 0x20 DUP3 ADD SWAP1 POP SWAP2 SWAP1 POP JUMP JUMPDEST PUSH0 PUSH1 0x20 DUP3 ADD SWAP1 POP DUP2 DUP2 SUB PUSH0 DUP4 ADD MSTORE PUSH2 0x24A1 DUP2 PUSH2 0x2468 JUMP JUMPDEST SWAP1 POP SWAP2 SWAP1 POP JUMP JUMPDEST PUSH32 0x437573746F6D44414F3A206E6F7420617574686F72697A656400000000000000 PUSH0 DUP3 ADD MSTORE POP JUMP JUMPDEST PUSH0 PUSH2 0x24DC PUSH1 0x19 DUP4 PUSH2 0x220B JUMP JUMPDEST SWAP2 POP PUSH2 0x24E7 DUP3 PUSH2 0x24A8 JUMP JUMPDEST PUSH1 0x20 DUP3 ADD SWAP1 POP SWAP2 SWAP1 POP JUMP JUMPDEST PUSH0 PUSH1 0x20 DUP3 ADD SWAP1 POP DUP2 DUP2 SUB PUSH0 DUP4 ADD MSTORE PUSH2 0x2509 DUP2 PUSH2 0x24D0 JUMP JUMPDEST SWAP1 POP SWAP2 SWAP1 POP JUMP JUMPDEST PUSH0 PUSH2 0x251A DUP3 PUSH2 0x1967 JUMP JUMPDEST SWAP2 POP PUSH2 0x2525 DUP4 PUSH2 0x1967 JUMP JUMPDEST SWAP3 POP DUP3 DUP3 SUB SWAP1 POP DUP2 DUP2 GT ISZERO PUSH2 0x253D JUMPI PUSH2 0x253C PUSH2 0x23B9 JUMP JUMPDEST JUMPDEST SWAP3 SWAP2 POP POP JUMP JUMPDEST PUSH32 0x437573746F6D44414F3A2070726F706F73657220766F7465732062656C6F7720 PUSH0 DUP3 ADD MSTORE PUSH32 0x7468726573686F6C640000000000000000000000000000000000000000000000 PUSH1 0x20 DUP3 ADD MSTORE POP JUMP JUMPDEST PUSH0 PUSH2 0x259D PUSH1 0x29 DUP4 PUSH2 0x220B JUMP JUMPDEST SWAP2 POP PUSH2 0x25A8 DUP3 PUSH2 0x2543 JUMP JUMPDEST PUSH1 0x40 DUP3 ADD SWAP1 POP SWAP2 SWAP1 POP JUMP JUMPDEST PUSH0 PUSH1 0x20 DUP3 ADD SWAP1 POP DUP2 DUP2 SUB PUSH0 DUP4 ADD MSTORE PUSH2 0x25CA DUP2 PUSH2 0x2591 JUMP JUMPDEST SWAP1 POP SWAP2 SWAP1 POP JUMP JUMPDEST PUSH32 0x437573746F6D44414F3A20696E76616C69642070726F706F73616C2070617261 PUSH0 DUP3 ADD MSTORE PUSH32 0x6D65746572730000000000000000000000000000000000000000000000000000 PUSH1 0x20 DUP3 ADD MSTORE POP JUMP JUMPDEST PUSH0 PUSH2 0x262B PUSH1 0x26 DUP4 PUSH2 0x220B JUMP JUMPDEST SWAP2 POP PUSH2 0x2636 DUP3 PUSH2 0x25D1 JUMP JUMPDEST PUSH1 0x40 DUP3 ADD SWAP1 POP SWAP2 SWAP1 POP JUMP JUMPDEST PUSH0 PUSH1 0x20 DUP3 ADD SWAP1 POP DUP2 DUP2 SUB PUSH0 DUP4 ADD MSTORE PUSH2 0x2658 DUP2 PUSH2 0x261F JUMP JUMPDEST SWAP1 POP SWAP2 SWAP1 POP JUMP JUMPDEST PUSH32 0x437573746F6D44414F3A20746F6F206D616E7920616374696F6E730000000000 PUSH0 DUP3 ADD MSTORE POP JUMP JUMPDEST PUSH0 PUSH2 0x2693 PUSH1 0x1B DUP4 PUSH2 0x220B JUMP JUMPDEST SWAP2 POP PUSH2 0x269E DUP3 PUSH2 0x265F JUMP JUMPDEST PUSH1 0x20 DUP3 ADD SWAP1 POP SWAP2 SWAP1 POP JUMP JUMPDEST PUSH0 PUSH1 0x20 DUP3 ADD SWAP1 POP DUP2 DUP2 SUB PUSH0 DUP4 ADD MSTORE PUSH2 0x26C0 DUP2 PUSH2 0x2687 JUMP JUMPDEST SWAP1 POP SWAP2 SWAP1 POP JUMP JUMPDEST PUSH0 PUSH2 0x26D1 DUP3 PUSH2 0x1967 JUMP JUMPDEST SWAP2 POP PUSH32 0xFFFFFFFFFFFFFFFFFFFFFFFFFFFFFFFFFFFFFFFFFFFFFFFFFFFFFFFFFFFFFFFF DUP3 SUB PUSH2 0x2703 JUMPI PUSH2 0x2702 PUSH2 0x23B9 JUMP JUMPDEST JUMPDEST PUSH1 0x1 DUP3 ADD SWAP1 POP SWAP2 SWAP1 POP JUMP JUMPDEST PUSH0 DUP2 MLOAD SWAP1 POP SWAP2 SWAP1 POP JUMP JUMPDEST PUSH32 0x4E487B7100000000000000000000000000000000000000000000000000000000 PUSH0 MSTORE PUSH1 0x22 PUSH1 0x4 MSTORE PUSH1 0x24 PUSH0 REVERT JUMPDEST PUSH0 PUSH1 0x2 DUP3 DIV SWAP1 POP PUSH1 0x1 DUP3 AND DUP1 PUSH2 0x275C JUMPI PUSH1 0x7F DUP3 AND SWAP2 POP JUMPDEST PUSH1 0x20 DUP3 LT DUP2 SUB PUSH2 0x276F JUMPI PUSH2 0x276E PUSH2 0x2718 JUMP JUMPDEST JUMPDEST POP SWAP2 SWAP1 POP JUMP JUMPDEST PUSH0 DUP2 SWAP1 POP DUP2 PUSH0 MSTORE PUSH1 0x20 PUSH0 KECCAK256 SWAP1 POP SWAP2 SWAP1 POP JUMP JUMPDEST PUSH0 PUSH1 0x20 PUSH1 0x1F DUP4 ADD DIV SWAP1 POP SWAP2 SWAP1 POP JUMP JUMPDEST PUSH0 DUP3 DUP3 SHL SWAP1 POP SWAP3 SWAP2 POP POP JUMP JUMPDEST PUSH0 PUSH1 0x8 DUP4 MUL PUSH2 0x27D1 PUSH32 0xFFFFFFFFFFFFFFFFFFFFFFFFFFFFFFFFFFFFFFFFFFFFFFFFFFFFFFFFFFFFFFFF DUP3 PUSH2 0x2796 JUMP JUMPDEST PUSH2 0x27DB DUP7 DUP4 PUSH2 0x2796 JUMP JUMPDEST SWAP6 POP DUP1 NOT DUP5 AND SWAP4 POP DUP1 DUP7 AND DUP5 OR SWAP3 POP POP POP SWAP4 SWAP3 POP POP POP JUMP JUMPDEST PUSH0 PUSH2 0x280D PUSH2 0x2808 PUSH2 0x2803 DUP5 PUSH2 0x1967 JUMP JUMPDEST PUSH2 0x2197 JUMP JUMPDEST PUSH2 0x1967 JUMP JUMPDEST SWAP1 POP SWAP2 SWAP1 POP JUMP JUMPDEST PUSH0 DUP2 SWAP1 POP SWAP2 SWAP1 POP JUMP JUMPDEST PUSH2 0x2826 DUP4 PUSH2 0x27F3 JUMP JUMPDEST PUSH2 0x283A PUSH2 0x2832 DUP3 PUSH2 0x2814 JUMP JUMPDEST DUP5 DUP5 SLOAD PUSH2 0x27A2 JUMP JUMPDEST DUP3 SSTORE POP POP POP POP JUMP JUMPDEST PUSH0 SWAP1 JUMP JUMPDEST PUSH2 0x284E PUSH2 0x2842 JUMP JUMPDEST PUSH2 0x2859 DUP2 DUP5 DUP5 PUSH2 0x281D JUMP JUMPDEST POP POP POP JUMP JUMPDEST JUMPDEST DUP2 DUP2 LT ISZERO PUSH2 0x287C JUMPI PUSH2 0x2871 PUSH0 DUP3 PUSH2 0x2846 JUMP JUMPDEST PUSH1 0x1 DUP2 ADD SWAP1 POP PUSH2 0x285F JUMP JUMPDEST POP POP JUMP JUMPDEST PUSH1 0x1F DUP3 GT ISZERO PUSH2 0x28C1 JUMPI PUSH2 0x2892 DUP2 PUSH2 0x2775 JUMP JUMPDEST PUSH2 0x289B DUP5 PUSH2 0x2787 JUMP JUMPDEST DUP2 ADD PUSH1 0x20 DUP6 LT ISZERO PUSH2 0x28AA JUMPI DUP2 SWAP1 POP JUMPDEST PUSH2 0x28BE PUSH2 0x28B6 DUP6 PUSH2 0x2787 JUMP JUMPDEST DUP4 ADD DUP3 PUSH2 0x285E JUMP JUMPDEST POP POP JUMPDEST POP POP POP JUMP JUMPDEST PUSH0 DUP3 DUP3 SHR SWAP1 POP SWAP3 SWAP2 POP POP JUMP JUMPDEST PUSH0 PUSH2 0x28E1 PUSH0 NOT DUP5 PUSH1 0x8 MUL PUSH2 0x28C6 JUMP JUMPDEST NOT DUP1 DUP4 AND SWAP2 POP POP SWAP3 SWAP2 POP POP JUMP JUMPDEST PUSH0 PUSH2 0x28F9 DUP4 DUP4 PUSH2 0x28D2 JUMP JUMPDEST SWAP2 POP DUP3 PUSH1 0x2 MUL DUP3 OR SWAP1 POP SWAP3 SWAP2 POP POP JUMP JUMPDEST PUSH2 0x2912 DUP3 PUSH2 0x270E JUMP JUMPDEST PUSH8 0xFFFFFFFFFFFFFFFF DUP2 GT ISZERO PUSH2 0x292B JUMPI PUSH2 0x292A PUSH2 0x1B91 JUMP JUMPDEST JUMPDEST PUSH2 0x2935 DUP3 SLOAD PUSH2 0x2745 JUMP JUMPDEST PUSH2 0x2940 DUP3 DUP3 DUP6 PUSH2 0x2880 JUMP JUMPDEST PUSH0 PUSH1 0x20 SWAP1 POP PUSH1 0x1F DUP4 GT PUSH1 0x1 DUP2 EQ PUSH2 0x2971 JUMPI PUSH0 DUP5 ISZERO PUSH2 0x295F JUMPI DUP3 DUP8 ADD MLOAD SWAP1 POP JUMPDEST PUSH2 0x2969 DUP6 DUP3 PUSH2 0x28EE JUMP JUMPDEST DUP7 SSTORE POP PUSH2 0x29D0 JUMP JUMPDEST PUSH1 0x1F NOT DUP5 AND PUSH2 0x297F DUP7 PUSH2 0x2775 JUMP JUMPDEST PUSH0 JUMPDEST DUP3 DUP2 LT ISZERO PUSH2 0x29A6 JUMPI DUP5 DUP10 ADD MLOAD DUP3 SSTORE PUSH1 0x1 DUP3 ADD SWAP2 POP PUSH1 0x20 DUP6 ADD SWAP5 POP PUSH1 0x20 DUP2 ADD SWAP1 POP PUSH2 0x2981 JUMP JUMPDEST DUP7 DUP4 LT ISZERO PUSH2 0x29C3 JUMPI DUP5 DUP10 ADD MLOAD PUSH2 0x29BF PUSH1 0x1F DUP10 AND DUP3 PUSH2 0x28D2 JUMP JUMPDEST DUP4 SSTORE POP JUMPDEST PUSH1 0x1 PUSH1 0x2 DUP9 MUL ADD DUP9 SSTORE POP POP POP JUMPDEST POP POP POP POP POP POP JUMP JUMPDEST PUSH0 DUP2 MLOAD SWAP1 POP SWAP2 SWAP1 POP JUMP JUMPDEST PUSH0 DUP3 DUP3 MSTORE PUSH1 0x20 DUP3 ADD SWAP1 POP SWAP3 SWAP2 POP POP JUMP JUMPDEST PUSH0 DUP2 SWAP1 POP PUSH1 0x20 DUP3 ADD SWAP1 POP SWAP2 SWAP1 POP JUMP JUMPDEST PUSH2 0x2A0A DUP2 PUSH2 0x1B1C JUMP JUMPDEST DUP3 MSTORE POP POP JUMP JUMPDEST PUSH0 PUSH2 0x2A1B DUP4 DUP4 PUSH2 0x2A01 JUMP JUMPDEST PUSH1 0x20 DUP4 ADD SWAP1 POP SWAP3 SWAP2 POP POP JUMP JUMPDEST PUSH0 PUSH1 0x20 DUP3 ADD SWAP1 POP SWAP2 SWAP1 POP JUMP JUMPDEST PUSH0 PUSH2 0x2A3D DUP3 PUSH2 0x29D8 JUMP JUMPDEST PUSH2 0x2A47 DUP2 DUP6 PUSH2 0x29E2 JUMP JUMPDEST SWAP4 POP PUSH2 0x2A52 DUP4 PUSH2 0x29F2 JUMP JUMPDEST DUP1 PUSH0 JUMPDEST DUP4 DUP2 LT ISZERO PUSH2 0x2A82 JUMPI DUP2 MLOAD PUSH2 0x2A69 DUP9 DUP3 PUSH2 0x2A10 JUMP JUMPDEST SWAP8 POP PUSH2 0x2A74 DUP4 PUSH2 0x2A27 JUMP JUMPDEST SWAP3 POP POP PUSH1 0x1 DUP2 ADD SWAP1 POP PUSH2 0x2A55 JUMP JUMPDEST POP DUP6 SWAP4 POP POP POP POP SWAP3 SWAP2 POP POP JUMP JUMPDEST PUSH0 DUP2 MLOAD SWAP1 POP SWAP2 SWAP1 POP JUMP JUMPDEST PUSH0 DUP3 DUP3 MSTORE PUSH1 0x20 DUP3 ADD SWAP1 POP SWAP3 SWAP2 POP POP JUMP JUMPDEST PUSH0 DUP2 SWAP1 POP PUSH1 0x20 DUP3 ADD SWAP1 POP SWAP2 SWAP1 POP JUMP JUMPDEST PUSH0 PUSH2 0x2AC3 DUP4 DUP4 PUSH2 0x2104 JUMP JUMPDEST PUSH1 0x20 DUP4 ADD SWAP1 POP SWAP3 SWAP2 POP POP JUMP JUMPDEST PUSH0 PUSH1 0x20 DUP3 ADD SWAP1 POP SWAP2 SWAP1 POP JUMP JUMPDEST PUSH0 PUSH2 0x2AE5 DUP3 PUSH2 0x2A8F JUMP JUMPDEST PUSH2 0x2AEF DUP2 DUP6 PUSH2 0x2A99 JUMP JUMPDEST SWAP4 POP PUSH2 0x2AFA DUP4 PUSH2 0x2AA9 JUMP JUMPDEST DUP1 PUSH0 JUMPDEST DUP4 DUP2 LT ISZERO PUSH2 0x2B2A JUMPI DUP2 MLOAD PUSH2 0x2B11 DUP9 DUP3 PUSH2 0x2AB8 JUMP JUMPDEST SWAP8 POP PUSH2 0x2B1C DUP4 PUSH2 0x2ACF JUMP JUMPDEST SWAP3 POP POP PUSH1 0x1 DUP2 ADD SWAP1 POP PUSH2 0x2AFD JUMP JUMPDEST POP DUP6 SWAP4 POP POP POP POP SWAP3 SWAP2 POP POP JUMP JUMPDEST PUSH0 DUP2 MLOAD SWAP1 POP SWAP2 SWAP1 POP JUMP JUMPDEST PUSH0 DUP3 DUP3 MSTORE PUSH1 0x20 DUP3 ADD SWAP1 POP SWAP3 SWAP2 POP POP JUMP JUMPDEST PUSH0 DUP2 SWAP1 POP PUSH1 0x20 DUP3 ADD SWAP1 POP SWAP2 SWAP1 POP JUMP JUMPDEST PUSH0 DUP2 MLOAD SWAP1 POP SWAP2 SWAP1 POP JUMP JUMPDEST PUSH0 DUP3 DUP3 MSTORE PUSH1 0x20 DUP3 ADD SWAP1 POP SWAP3 SWAP2 POP POP JUMP JUMPDEST DUP3 DUP2 DUP4 MCOPY PUSH0 DUP4 DUP4 ADD MSTORE POP POP POP JUMP JUMPDEST PUSH0 PUSH2 0x2B92 DUP3 PUSH2 0x2B60 JUMP JUMPDEST PUSH2 0x2B9C DUP2 DUP6 PUSH2 0x2B6A JUMP JUMPDEST SWAP4 POP PUSH2 0x2BAC DUP2 DUP6 PUSH1 0x20 DUP7 ADD PUSH2 0x2B7A JUMP JUMPDEST PUSH2 0x2BB5 DUP2 PUSH2 0x1B81 JUMP JUMPDEST DUP5 ADD SWAP2 POP POP SWAP3 SWAP2 POP POP JUMP JUMPDEST PUSH0 PUSH2 0x2BCB DUP4 DUP4 PUSH2 0x2B88 JUMP JUMPDEST SWAP1 POP SWAP3 SWAP2 POP POP JUMP JUMPDEST PUSH0 PUSH1 0x20 DUP3 ADD SWAP1 POP SWAP2 SWAP1 POP JUMP JUMPDEST PUSH0 PUSH2 0x2BE9 DUP3 PUSH2 0x2B37 JUMP JUMPDEST PUSH2 0x2BF3 DUP2 DUP6 PUSH2 0x2B41 JUMP JUMPDEST SWAP4 POP DUP4 PUSH1 0x20 DUP3 MUL DUP6 ADD PUSH2 0x2C05 DUP6 PUSH2 0x2B51 JUMP JUMPDEST DUP1 PUSH0 JUMPDEST DUP6 DUP2 LT ISZERO PUSH2 0x2C40 JUMPI DUP5 DUP5 SUB DUP10 MSTORE DUP2 MLOAD PUSH2 0x2C21 DUP6 DUP3 PUSH2 0x2BC0 JUMP JUMPDEST SWAP5 POP PUSH2 0x2C2C DUP4 PUSH2 0x2BD3 JUMP JUMPDEST SWAP3 POP PUSH1 0x20 DUP11 ADD SWAP10 POP POP PUSH1 0x1 DUP2 ADD SWAP1 POP PUSH2 0x2C08 JUMP JUMPDEST POP DUP3 SWAP8 POP DUP8 SWAP6 POP POP POP POP POP POP SWAP3 SWAP2 POP POP JUMP JUMPDEST PUSH0 PUSH2 0x2C5C DUP3 PUSH2 0x270E JUMP JUMPDEST PUSH2 0x2C66 DUP2 DUP6 PUSH2 0x220B JUMP JUMPDEST SWAP4 POP PUSH2 0x2C76 DUP2 DUP6 PUSH1 0x20 DUP7 ADD PUSH2 0x2B7A JUMP JUMPDEST PUSH2 0x2C7F DUP2 PUSH2 0x1B81 JUMP JUMPDEST DUP5 ADD SWAP2 POP POP SWAP3 SWAP2 POP POP JUMP JUMPDEST PUSH0 PUSH1 0xC0 DUP3 ADD SWAP1 POP DUP2 DUP2 SUB PUSH0 DUP4 ADD MSTORE PUSH2 0x2CA2 DUP2 DUP10 PUSH2 0x2A33 JUMP JUMPDEST SWAP1 POP DUP2 DUP2 SUB PUSH1 0x20 DUP4 ADD MSTORE PUSH2 0x2CB6 DUP2 DUP9 PUSH2 0x2ADB JUMP JUMPDEST SWAP1 POP DUP2 DUP2 SUB PUSH1 0x40 DUP4 ADD MSTORE PUSH2 0x2CCA DUP2 DUP8 PUSH2 0x2BDF JUMP JUMPDEST SWAP1 POP PUSH2 0x2CD9 PUSH1 0x60 DUP4 ADD DUP7 PUSH2 0x1970 JUMP JUMPDEST PUSH2 0x2CE6 PUSH1 0x80 DUP4 ADD DUP6 PUSH2 0x1970 JUMP JUMPDEST DUP2 DUP2 SUB PUSH1 0xA0 DUP4 ADD MSTORE PUSH2 0x2CF8 DUP2 DUP5 PUSH2 0x2C52 JUMP JUMPDEST SWAP1 POP SWAP8 SWAP7 POP POP POP POP POP POP POP JUMP JUMPDEST PUSH32 0x437573746F6D44414F3A206E6F74207375636365656465640000000000000000 PUSH0 DUP3 ADD MSTORE POP JUMP JUMPDEST PUSH0 PUSH2 0x2D39 PUSH1 0x18 DUP4 PUSH2 0x220B JUMP JUMPDEST SWAP2 POP PUSH2 0x2D44 DUP3 PUSH2 0x2D05 JUMP JUMPDEST PUSH1 0x20 DUP3 ADD SWAP1 POP SWAP2 SWAP1 POP JUMP JUMPDEST PUSH0 PUSH1 0x20 DUP3 ADD SWAP1 POP DUP2 DUP2 SUB PUSH0 DUP4 ADD MSTORE PUSH2 0x2D66 DUP2 PUSH2 0x2D2D JUMP JUMPDEST SWAP1 POP SWAP2 SWAP1 POP JUMP JUMPDEST PUSH32 0x437573746F6D44414F3A206E6F74207265616479000000000000000000000000 PUSH0 DUP3 ADD MSTORE POP JUMP JUMPDEST PUSH0 PUSH2 0x2DA1 PUSH1 0x14 DUP4 PUSH2 0x220B JUMP JUMPDEST SWAP2 POP PUSH2 0x2DAC DUP3 PUSH2 0x2D6D JUMP JUMPDEST PUSH1 0x20 DUP3 ADD SWAP1 POP SWAP2 SWAP1 POP JUMP JUMPDEST PUSH0 PUSH1 0x20 DUP3 ADD SWAP1 POP DUP2 DUP2 SUB PUSH0 DUP4 ADD MSTORE PUSH2 0x2DCE DUP2 PUSH2 0x2D95 JUMP JUMPDEST SWAP1 POP SWAP2 SWAP1 POP JUMP JUMPDEST PUSH32 0x4E487B7100000000000000000000000000000000000000000000000000000000 PUSH0 MSTORE PUSH1 0x32 PUSH1 0x4 MSTORE PUSH1 0x24 PUSH0 REVERT JUMPDEST PUSH0 DUP2 SWAP1 POP SWAP3 SWAP2 POP POP JUMP JUMPDEST PUSH0 DUP2 SWAP1 POP DUP2 PUSH0 MSTORE PUSH1 0x20 PUSH0 KECCAK256 SWAP1 POP SWAP2 SWAP1 POP JUMP JUMPDEST PUSH0 DUP2 SLOAD PUSH2 0x2E2A DUP2 PUSH2 0x2745 JUMP JUMPDEST PUSH2 0x2E34 DUP2 DUP7 PUSH2 0x2E02 JUMP JUMPDEST SWAP5 POP PUSH1 0x1 DUP3 AND PUSH0 DUP2 EQ PUSH2 0x2E4E JUMPI PUSH1 0x1 DUP2 EQ PUSH2 0x2E63 JUMPI PUSH2 0x2E95 JUMP JUMPDEST PUSH1 0xFF NOT DUP4 AND DUP7 MSTORE DUP2 ISZERO ISZERO DUP3 MUL DUP7 ADD SWAP4 POP PUSH2 0x2E95 JUMP JUMPDEST PUSH2 0x2E6C DUP6 PUSH2 0x2E0C JUMP JUMPDEST PUSH0 JUMPDEST DUP4 DUP2 LT ISZERO PUSH2 0x2E8D JUMPI DUP2 SLOAD DUP2 DUP10 ADD MSTORE PUSH1 0x1 DUP3 ADD SWAP2 POP PUSH1 0x20 DUP2 ADD SWAP1 POP PUSH2 0x2E6E JUMP JUMPDEST DUP4 DUP9 ADD SWAP6 POP POP POP JUMPDEST POP POP POP SWAP3 SWAP2 POP POP JUMP JUMPDEST PUSH0 PUSH2 0x2EA9 DUP3 DUP5 PUSH2 0x2E1E JUMP JUMPDEST SWAP2 POP DUP2 SWAP1 POP SWAP3 SWAP2 POP POP JUMP JUMPDEST PUSH32 0x437573746F6D44414F3A20616374696F6E206661696C65640000000000000000 PUSH0 DUP3 ADD MSTORE POP JUMP JUMPDEST PUSH0 PUSH2 0x2EE8 PUSH1 0x18 DUP4 PUSH2 0x220B JUMP JUMPDEST SWAP2 POP PUSH2 0x2EF3 DUP3 PUSH2 0x2EB4 JUMP JUMPDEST PUSH1 0x20 DUP3 ADD SWAP1 POP SWAP2 SWAP1 POP JUMP JUMPDEST PUSH0 PUSH1 0x20 DUP3 ADD SWAP1 POP DUP2 DUP2 SUB PUSH0 DUP4 ADD MSTORE PUSH2 0x2F15 DUP2 PUSH2 0x2EDC JUMP JUMPDEST SWAP1 POP SWAP2 SWAP1 POP JUMP JUMPDEST PUSH32 0x5265656E7472616E637947756172643A207265656E7472616E742063616C6C00 PUSH0 DUP3 ADD MSTORE POP JUMP JUMPDEST PUSH0 PUSH2 0x2F50 PUSH1 0x1F DUP4 PUSH2 0x220B JUMP JUMPDEST SWAP2 POP PUSH2 0x2F5B DUP3 PUSH2 0x2F1C JUMP JUMPDEST PUSH1 0x20 DUP3 ADD SWAP1 POP SWAP2 SWAP1 POP JUMP JUMPDEST PUSH0 PUSH1 0x20 DUP3 ADD SWAP1 POP DUP2 DUP2 SUB PUSH0 DUP4 ADD MSTORE PUSH2 0x2F7D DUP2 PUSH2 0x2F44 JUMP JUMPDEST SWAP1 POP SWAP2 SWAP1 POP JUMP JUMPDEST PUSH32 0x5061757361626C653A2070617573656400000000000000000000000000000000 PUSH0 DUP3 ADD MSTORE POP JUMP JUMPDEST PUSH0 PUSH2 0x2FB8 PUSH1 0x10 DUP4 PUSH2 0x220B JUMP JUMPDEST SWAP2 POP PUSH2 0x2FC3 DUP3 PUSH2 0x2F84 JUMP JUMPDEST PUSH1 0x20 DUP3 ADD SWAP1 POP SWAP2 SWAP1 POP JUMP JUMPDEST PUSH0 PUSH1 0x20 DUP3 ADD SWAP1 POP DUP2 DUP2 SUB PUSH0 DUP4 ADD MSTORE PUSH2 0x2FE5 DUP2 PUSH2 0x2FAC JUMP JUMPDEST SWAP1 POP SWAP2 SWAP1 POP JUMP JUMPDEST PUSH32 0x5061757361626C653A206E6F7420706175736564000000000000000000000000 PUSH0 DUP3 ADD MSTORE POP JUMP JUMPDEST PUSH0 PUSH2 0x3020 PUSH1 0x14 DUP4 PUSH2 0x220B JUMP JUMPDEST SWAP2 POP PUSH2 0x302B DUP3 PUSH2 0x2FEC JUMP JUMPDEST PUSH1 0x20 DUP3 ADD SWAP1 POP SWAP2 SWAP1 POP JUMP JUMPDEST PUSH0 PUSH1 0x20 DUP3 ADD SWAP1 POP DUP2 DUP2 SUB PUSH0 DUP4 ADD MSTORE PUSH2 0x304D DUP2 PUSH2 0x3014 JUMP JUMPDEST SWAP1 POP SWAP2 SWAP1 POP JUMP JUMPDEST PUSH1 0x1F DUP3 GT ISZERO PUSH2 0x3095 JUMPI PUSH2 0x3066 DUP2 PUSH2 0x2E0C JUMP JUMPDEST PUSH2 0x306F DUP5 PUSH2 0x2787 JUMP JUMPDEST DUP2 ADD PUSH1 0x20 DUP6 LT ISZERO PUSH2 0x307E JUMPI DUP2 SWAP1 POP JUMPDEST PUSH2 0x3092 PUSH2 0x308A DUP6 PUSH2 0x2787 JUMP JUMPDEST DUP4 ADD DUP3 PUSH2 0x285E JUMP JUMPDEST POP POP JUMPDEST POP POP POP JUMP JUMPDEST PUSH2 0x30A3 DUP3 PUSH2 0x2B60 JUMP JUMPDEST PUSH8 0xFFFFFFFFFFFFFFFF DUP2 GT ISZERO PUSH2 0x30BC JUMPI PUSH2 0x30BB PUSH2 0x1B91 JUMP JUMPDEST JUMPDEST PUSH2 0x30C6 DUP3 SLOAD PUSH2 0x2745 JUMP JUMPDEST PUSH2 0x30D1 DUP3 DUP3 DUP6 PUSH2 0x3054 JUMP JUMPDEST PUSH0 PUSH1 0x20 SWAP1 POP PUSH1 0x1F DUP4 GT PUSH1 0x1 DUP2 EQ PUSH2 0x3102 JUMPI PUSH0 DUP5 ISZERO PUSH2 0x30F0 JUMPI DUP3 DUP8 ADD MLOAD SWAP1 POP JUMPDEST PUSH2 0x30FA DUP6 DUP3 PUSH2 0x28EE JUMP JUMPDEST DUP7 SSTORE POP PUSH2 0x3161 JUMP JUMPDEST PUSH1 0x1F NOT DUP5 AND PUSH2 0x3110 DUP7 PUSH2 0x2E0C JUMP JUMPDEST PUSH0 JUMPDEST DUP3 DUP2 LT ISZERO PUSH2 0x3137 JUMPI DUP5 DUP10 ADD MLOAD DUP3 SSTORE PUSH1 0x1 DUP3 ADD SWAP2 POP PUSH1 0x20 DUP6 ADD SWAP5 POP PUSH1 0x20 DUP2 ADD SWAP1 POP PUSH2 0x3112 JUMP JUMPDEST DUP7 DUP4 LT ISZERO PUSH2 0x3154 JUMPI DUP5 DUP10 ADD MLOAD PUSH2 0x3150 PUSH1 0x1F DUP10 AND DUP3 PUSH2 0x28D2 JUMP JUMPDEST DUP4 SSTORE POP JUMPDEST PUSH1 0x1 PUSH1 0x2 DUP9 MUL ADD DUP9 SSTORE POP POP POP JUMPDEST POP POP POP POP POP POP JUMP INVALID LOG2 PUSH5 0x6970667358 0x22 SLT KECCAK256 DUP8 RETURNDATACOPY 0xAB EXTCODESIZE PUSH4 0xFADA7CB5 EQ DUP5 PUSH22 0xBDCE501D6279FAD7B8AA921E2A7DF17D24AF7DCC6473 PUSH16 0x6C634300081A00330000000000000000 "
		},
		"gasEstimates": {
			"creation": {
				"codeDepositCost": "2540600",
				"executionCost": "infinite",
				"totalCost": "infinite"
			},
			"external": {
				"cancel(uint256)": "infinite",
				"castVote(uint256,bool)": "infinite",
				"execute(uint256)": "infinite",
				"getReceipt(uint256,address)": "infinite",
				"governanceToken()": "infinite",
				"gracePeriod()": "infinite",
				"guardian()": "infinite",
				"maxActions()": "infinite",
				"owner()": "2630",
				"pause()": "infinite",
				"paused()": "2584",
				"proposalCount()": "2565",
				"proposalThreshold()": "infinite",
				"propose(address[],uint256[],bytes[],string)": "infinite",
				"queue(uint256)": "infinite",
				"quorumVotes()": "infinite",
				"renounceOwnership()": "infinite",
				"state(uint256)": "infinite",
				"timelockDelay()": "infinite",
				"transferOwnership(address)": "infinite",
				"unpause()": "infinite",
				"votingDelay()": "infinite",
				"votingPeriod()": "infinite"
			}
		},
		"methodIdentifiers": {
			"cancel(uint256)": "40e58ee5",
			"castVote(uint256,bool)": "15373e3d",
			"execute(uint256)": "fe0d94c1",
			"getReceipt(uint256,address)": "e23a9a52",
			"governanceToken()": "f96dae0a",
			"gracePeriod()": "a06db7dc",
			"guardian()": "452a9320",
			"maxActions()": "4afd4f0e",
			"owner()": "8da5cb5b",
			"pause()": "8456cb59",
			"paused()": "5c975abb",
			"proposalCount()": "da35c664",
			"proposalThreshold()": "b58131b0",
			"propose(address[],uint256[],bytes[],string)": "7d5e81e2",
			"queue(uint256)": "ddf0b009",
			"quorumVotes()": "24bc1a64",
			"renounceOwnership()": "715018a6",
			"state(uint256)": "3e4f49e6",
			"timelockDelay()": "eef09bad",
			"transferOwnership(address)": "f2fde38b",
			"unpause()": "3f4ba83a",
			"votingDelay()": "3932abb1",
			"votingPeriod()": "02a251a3"
		}
	},
	"abi": [
		{
			"inputs": [
				{
					"internalType": "contract ERC20Votes",
					"name": "_token",
					"type": "address"
				},
				{
					"internalType": "address",
					"name": "_guardian",
					"type": "address"
				},
				{
					"internalType": "uint256",
					"name": "_votingDelay",
					"type": "uint256"
				},
				{
					"internalType": "uint256",
					"name": "_votingPeriod",
					"type": "uint256"
				},
				{
					"internalType": "uint256",
					"name": "_proposalThreshold",
					"type": "uint256"
				},
				{
					"internalType": "uint256",
					"name": "_quorumVotes",
					"type": "uint256"
				},
				{
					"internalType": "uint256",
					"name": "_timelockDelay",
					"type": "uint256"
				},
				{
					"internalType": "uint256",
					"name": "_gracePeriod",
					"type": "uint256"
				},
				{
					"internalType": "uint256",
					"name": "_maxActions",
					"type": "uint256"
				}
			],
			"stateMutability": "nonpayable",
			"type": "constructor"
		},
		{
			"inputs": [
				{
					"internalType": "address",
					"name": "owner",
					"type": "address"
				}
			],
			"name": "OwnableInvalidOwner",
			"type": "error"
		},
		{
			"inputs": [
				{
					"internalType": "address",
					"name": "account",
					"type": "address"
				}
			],
			"name": "OwnableUnauthorizedAccount",
			"type": "error"
		},
		{
			"anonymous": false,
			"inputs": [
				{
					"indexed": true,
					"internalType": "address",
					"name": "previousOwner",
					"type": "address"
				},
				{
					"indexed": true,
					"internalType": "address",
					"name": "newOwner",
					"type": "address"
				}
			],
			"name": "OwnershipTransferred",
			"type": "event"
		},
		{
			"anonymous": false,
			"inputs": [
				{
					"indexed": false,
					"internalType": "address",
					"name": "account",
					"type": "address"
				}
			],
			"name": "Paused",
			"type": "event"
		},
		{
			"anonymous": false,
			"inputs": [
				{
					"indexed": true,
					"internalType": "uint256",
					"name": "id",
					"type": "uint256"
				}
			],
			"name": "ProposalCanceled",
			"type": "event"
		},
		{
			"anonymous": false,
			"inputs": [
				{
					"indexed": true,
					"internalType": "uint256",
					"name": "id",
					"type": "uint256"
				},
				{
					"indexed": true,
					"internalType": "address",
					"name": "proposer",
					"type": "address"
				},
				{
					"indexed": false,
					"internalType": "address[]",
					"name": "targets",
					"type": "address[]"
				},
				{
					"indexed": false,
					"internalType": "uint256[]",
					"name": "values",
					"type": "uint256[]"
				},
				{
					"indexed": false,
					"internalType": "bytes[]",
					"name": "calldatas",
					"type": "bytes[]"
				},
				{
					"indexed": false,
					"internalType": "uint256",
					"name": "startBlock",
					"type": "uint256"
				},
				{
					"indexed": false,
					"internalType": "uint256",
					"name": "endBlock",
					"type": "uint256"
				},
				{
					"indexed": false,
					"internalType": "string",
					"name": "description",
					"type": "string"
				}
			],
			"name": "ProposalCreated",
			"type": "event"
		},
		{
			"anonymous": false,
			"inputs": [
				{
					"indexed": true,
					"internalType": "uint256",
					"name": "id",
					"type": "uint256"
				}
			],
			"name": "ProposalExecuted",
			"type": "event"
		},
		{
			"anonymous": false,
			"inputs": [
				{
					"indexed": true,
					"internalType": "uint256",
					"name": "id",
					"type": "uint256"
				},
				{
					"indexed": false,
					"internalType": "uint256",
					"name": "eta",
					"type": "uint256"
				}
			],
			"name": "ProposalQueued",
			"type": "event"
		},
		{
			"anonymous": false,
			"inputs": [
				{
					"indexed": false,
					"internalType": "address",
					"name": "account",
					"type": "address"
				}
			],
			"name": "Unpaused",
			"type": "event"
		},
		{
			"anonymous": false,
			"inputs": [
				{
					"indexed": true,
					"internalType": "address",
					"name": "voter",
					"type": "address"
				},
				{
					"indexed": true,
					"internalType": "uint256",
					"name": "proposalId",
					"type": "uint256"
				},
				{
					"indexed": false,
					"internalType": "bool",
					"name": "support",
					"type": "bool"
				},
				{
					"indexed": false,
					"internalType": "uint256",
					"name": "votes",
					"type": "uint256"
				}
			],
			"name": "VoteCast",
			"type": "event"
		},
		{
			"inputs": [
				{
					"internalType": "uint256",
					"name": "proposalId",
					"type": "uint256"
				}
			],
			"name": "cancel",
			"outputs": [],
			"stateMutability": "nonpayable",
			"type": "function"
		},
		{
			"inputs": [
				{
					"internalType": "uint256",
					"name": "proposalId",
					"type": "uint256"
				},
				{
					"internalType": "bool",
					"name": "support",
					"type": "bool"
				}
			],
			"name": "castVote",
			"outputs": [],
			"stateMutability": "nonpayable",
			"type": "function"
		},
		{
			"inputs": [
				{
					"internalType": "uint256",
					"name": "proposalId",
					"type": "uint256"
				}
			],
			"name": "execute",
			"outputs": [],
			"stateMutability": "payable",
			"type": "function"
		},
		{
			"inputs": [
				{
					"internalType": "uint256",
					"name": "proposalId",
					"type": "uint256"
				},
				{
					"internalType": "address",
					"name": "voter",
					"type": "address"
				}
			],
			"name": "getReceipt",
			"outputs": [
				{
					"components": [
						{
							"internalType": "bool",
							"name": "hasVoted",
							"type": "bool"
						},
						{
							"internalType": "bool",
							"name": "support",
							"type": "bool"
						},
						{
							"internalType": "uint256",
							"name": "votes",
							"type": "uint256"
						}
					],
					"internalType": "struct CustomDAO.Receipt",
					"name": "",
					"type": "tuple"
				}
			],
			"stateMutability": "view",
			"type": "function"
		},
		{
			"inputs": [],
			"name": "governanceToken",
			"outputs": [
				{
					"internalType": "contract ERC20Votes",
					"name": "",
					"type": "address"
				}
			],
			"stateMutability": "view",
			"type": "function"
		},
		{
			"inputs": [],
			"name": "gracePeriod",
			"outputs": [
				{
					"internalType": "uint256",
					"name": "",
					"type": "uint256"
				}
			],
			"stateMutability": "view",
			"type": "function"
		},
		{
			"inputs": [],
			"name": "guardian",
			"outputs": [
				{
					"internalType": "address",
					"name": "",
					"type": "address"
				}
			],
			"stateMutability": "view",
			"type": "function"
		},
		{
			"inputs": [],
			"name": "maxActions",
			"outputs": [
				{
					"internalType": "uint256",
					"name": "",
					"type": "uint256"
				}
			],
			"stateMutability": "view",
			"type": "function"
		},
		{
			"inputs": [],
			"name": "owner",
			"outputs": [
				{
					"internalType": "address",
					"name": "",
					"type": "address"
				}
			],
			"stateMutability": "view",
			"type": "function"
		},
		{
			"inputs": [],
			"name": "pause",
			"outputs": [],
			"stateMutability": "nonpayable",
			"type": "function"
		},
		{
			"inputs": [],
			"name": "paused",
			"outputs": [
				{
					"internalType": "bool",
					"name": "",
					"type": "bool"
				}
			],
			"stateMutability": "view",
			"type": "function"
		},
		{
			"inputs": [],
			"name": "proposalCount",
			"outputs": [
				{
					"internalType": "uint256",
					"name": "",
					"type": "uint256"
				}
			],
			"stateMutability": "view",
			"type": "function"
		},
		{
			"inputs": [],
			"name": "proposalThreshold",
			"outputs": [
				{
					"internalType": "uint256",
					"name": "",
					"type": "uint256"
				}
			],
			"stateMutability": "view",
			"type": "function"
		},
		{
			"inputs": [
				{
					"internalType": "address[]",
					"name": "targets",
					"type": "address[]"
				},
				{
					"internalType": "uint256[]",
					"name": "values",
					"type": "uint256[]"
				},
				{
					"internalType": "bytes[]",
					"name": "calldatas",
					"type": "bytes[]"
				},
				{
					"internalType": "string",
					"name": "description",
					"type": "string"
				}
			],
			"name": "propose",
			"outputs": [
				{
					"internalType": "uint256",
					"name": "",
					"type": "uint256"
				}
			],
			"stateMutability": "nonpayable",
			"type": "function"
		},
		{
			"inputs": [
				{
					"internalType": "uint256",
					"name": "proposalId",
					"type": "uint256"
				}
			],
			"name": "queue",
			"outputs": [],
			"stateMutability": "nonpayable",
			"type": "function"
		},
		{
			"inputs": [],
			"name": "quorumVotes",
			"outputs": [
				{
					"internalType": "uint256",
					"name": "",
					"type": "uint256"
				}
			],
			"stateMutability": "view",
			"type": "function"
		},
		{
			"inputs": [],
			"name": "renounceOwnership",
			"outputs": [],
			"stateMutability": "nonpayable",
			"type": "function"
		},
		{
			"inputs": [
				{
					"internalType": "uint256",
					"name": "proposalId",
					"type": "uint256"
				}
			],
			"name": "state",
			"outputs": [
				{
					"internalType": "enum CustomDAO.ProposalState",
					"name": "",
					"type": "uint8"
				}
			],
			"stateMutability": "view",
			"type": "function"
		},
		{
			"inputs": [],
			"name": "timelockDelay",
			"outputs": [
				{
					"internalType": "uint256",
					"name": "",
					"type": "uint256"
				}
			],
			"stateMutability": "view",
			"type": "function"
		},
		{
			"inputs": [
				{
					"internalType": "address",
					"name": "newOwner",
					"type": "address"
				}
			],
			"name": "transferOwnership",
			"outputs": [],
			"stateMutability": "nonpayable",
			"type": "function"
		},
		{
			"inputs": [],
			"name": "unpause",
			"outputs": [],
			"stateMutability": "nonpayable",
			"type": "function"
		},
		{
			"inputs": [],
			"name": "votingDelay",
			"outputs": [
				{
					"internalType": "uint256",
					"name": "",
					"type": "uint256"
				}
			],
			"stateMutability": "view",
			"type": "function"
		},
		{
			"inputs": [],
			"name": "votingPeriod",
			"outputs": [
				{
					"internalType": "uint256",
					"name": "",
					"type": "uint256"
				}
			],
			"stateMutability": "view",
			"type": "function"
		}
	]
}