{
	"data": {
		"bytecode": {
			"linkReferences": {},
			"object": "610180604052348015610010575f80fd5b50604051612e76380380612e7683398101604081905261002f91610463565b336040518060400160405280601581526020017f5061646920476f7665726e616e636520546f6b656e000000000000000000000081525080604051806040016040528060018152602001603160f81b8152506040518060400160405280601581526020017f5061646920476f7665726e616e636520546f6b656e0000000000000000000000815250604051806040016040528060088152602001672820a22496a3a7ab60c11b81525081600390816100e7919061054c565b5060046100f4828261054c565b5061010491508390506005610377565b61012052610113816006610377565b61014052815160208084019190912060e052815190820120610100524660a05261019f60e05161010051604080517f8b73c3c69bb8fe3d512ecc4cf759cc79239f7b179b0ffacaa9a75d522b39400f60208201529081019290925260608201524660808201523060a08201525f9060c00160405160208183030381529060405280519060200120905090565b60805250503060c052506001600160a01b0381166101d757604051631e4fbdf760e01b81525f60048201526024015b60405180910390fd5b6101e0816103a9565b50600b805460ff60a01b191690556001600c556001600160a01b03841661023d5760405162461bcd60e51b815260206004820152601160248201527024b73b30b634b21031aaa9a21030b2323960791b60448201526064016101ce565b6001600160a01b0383166102865760405162461bcd60e51b815260206004820152601060248201526f496e76616c696420747265617375727960801b60448201526064016101ce565b61271061ffff831611156102d05760405162461bcd60e51b815260206004820152601160248201527009ad2dce840cccaca40e8dede40d0d2ced607b1b60448201526064016101ce565b61271061ffff821611156103265760405162461bcd60e51b815260206004820152601360248201527f52656465656d2066656520746f6f20686967680000000000000000000000000060448201526064016101ce565b6001600160a01b0393841661016052600d8054939094166001600160b01b031990931692909217600160a01b61ffff928316021761ffff60b01b1916600160b01b929091169190910217905561065e565b5f6020835110156103925761038b836103fa565b90506103a3565b8161039d848261054c565b5060ff90505b92915050565b600b80546001600160a01b038381166001600160a01b0319831681179093556040519116919082907f8be0079c531659141344cd1fd0a4f28419497f9722a3daafe3b4186f6b6457e0905f90a35050565b5f80829050601f81511115610424578260405163305a27a960e01b81526004016101ce9190610606565b805161042f8261063b565b179392505050565b80516001600160a01b038116811461044d575f80fd5b919050565b805161ffff8116811461044d575f80fd5b5f805f8060808587031215610476575f80fd5b61047f85610437565b935061048d60208601610437565b925061049b60408601610452565b91506104a960608601610452565b905092959194509250565b634e487b7160e01b5f52604160045260245ffd5b600181811c908216806104dc57607f821691505b6020821081036104fa57634e487b7160e01b5f52602260045260245ffd5b50919050565b601f82111561054757805f5260205f20601f840160051c810160208510156105255750805b601f840160051c820191505b81811015610544575f8155600101610531565b50505b505050565b81516001600160401b03811115610565576105656104b4565b6105798161057384546104c8565b84610500565b6020601f8211600181146105ab575f83156105945750848201515b5f19600385901b1c1916600184901b178455610544565b5f84815260208120601f198516915b828110156105da57878501518255602094850194600190920191016105ba565b50848210156105f757868401515f19600387901b60f8161c191681555b50505050600190811b01905550565b602081525f82518060208401528060208501604085015e5f604082850101526040601f19601f83011684010191505092915050565b805160208083015191908110156104fa575f1960209190910360031b1b16919050565b60805160a05160c05160e051610100516101205161014051610160516127a86106ce5f395f81816102a601528181610a2501528181610d8e0152610dcc01525f61144c01525f61141f01525f6110fb01525f6110d301525f61102e01525f61105801525f61108201526127a85ff3fe608060405234801561000f575f80fd5b5060043610610234575f3560e01c80637ecebe0011610135578063a0712d68116100b4578063dd62ed3e11610079578063dd62ed3e1461052a578063f0f4426014610562578063f1127ed814610575578063f2fde38b146105b4578063fd967f47146105c7575f80fd5b8063a0712d68146104cb578063a9059cbb146104de578063c3cda520146104f1578063d505accf14610504578063db006a7514610517575f80fd5b806391ddadf4116100fa57806391ddadf41461046957806395d89b411461048857806397c8bcc1146104905780639ab24eb0146104a55780639ef833d4146104b8575f80fd5b80637ecebe001461040f5780638456cb591461042257806384b0196e1461042a5780638da5cb5b146104455780638e539e8c14610456575f80fd5b80633a46b1a8116101c15780635c975abb116101865780635c975abb1461039257806361d027b3146103a45780636fcfff45146103b757806370a08231146103df578063715018a614610407575f80fd5b80633a46b1a81461032f5780633f4ba83a146103425780634bf5d7e91461034c578063587cde1e146103545780635c19a95c1461037f575f80fd5b806318160ddd1161020757806318160ddd146102e057806323b872dd146102f2578063313ce5671461030557806332cb6b0c146103145780633644e51514610327575f80fd5b806306fdde0314610238578063095ea7b31461025657806309f6442c146102795780630c577bdc146102a1575b5f80fd5b6102406105d0565b60405161024d919061238a565b60405180910390f35b6102696102643660046123b7565b610660565b604051901515815260200161024d565b600d5461028e90600160b01b900461ffff1681565b60405161ffff909116815260200161024d565b6102c87f000000000000000000000000000000000000000000000000000000000000000081565b6040516001600160a01b03909116815260200161024d565b6002545b60405190815260200161024d565b6102696103003660046123df565b610679565b6040516012815260200161024d565b6102e46b033b2e3c9fd0803ce800000081565b6102e461069c565b6102e461033d3660046123b7565b6106aa565b61034a6106e4565b005b6102406106f6565b6102c8610362366004612419565b6001600160a01b039081165f908152600860205260409020541690565b61034a61038d366004612419565b61076e565b600b54600160a01b900460ff16610269565b600d546102c8906001600160a01b031681565b6103ca6103c5366004612419565b61077d565b60405163ffffffff909116815260200161024d565b6102e46103ed366004612419565b6001600160a01b03165f9081526020819052604090205490565b61034a610787565b6102e461041d366004612419565b610798565b61034a6107a2565b6104326107b2565b60405161024d9796959493929190612432565b600b546001600160a01b03166102c8565b6102e46104643660046124c8565b6107f4565b610471610818565b60405165ffffffffffff909116815260200161024d565b610240610821565b600d5461028e90600160a01b900461ffff1681565b6102e46104b3366004612419565b610830565b61034a6104c63660046124f0565b610850565b61034a6104d93660046124c8565b610968565b6102696104ec3660046123b7565b610af5565b61034a6104ff366004612531565b610b02565b61034a610512366004612585565b610bbe565b61034a6105253660046124c8565b610cf4565b6102e46105383660046125eb565b6001600160a01b039182165f90815260016020908152604080832093909416825291909152205490565b61034a610570366004612419565b610e35565b610588610583366004612613565b610eda565b60408051825165ffffffffffff1681526020928301516001600160d01b0316928101929092520161024d565b61034a6105c2366004612419565b610efe565b61028e61271081565b6060600380546105df90612650565b80601f016020809104026020016040519081016040528092919081815260200182805461060b90612650565b80156106565780601f1061062d57610100808354040283529160200191610656565b820191905f5260205f20905b81548152906001019060200180831161063957829003601f168201915b5050505050905090565b5f3361066d818585610f38565b60019150505b92915050565b5f33610686858285610f4a565b610691858585610fc5565b506001949350505050565b5f6106a5611022565b905090565b5f6106d46106b78361114b565b6001600160a01b0385165f90815260096020526040902090611199565b6001600160d01b03169392505050565b6106ec611249565b6106f4611276565b565b60606107006112cb565b65ffffffffffff16610710610818565b65ffffffffffff1614610736576040516301bfc1c560e61b815260040160405180910390fd5b5060408051808201909152601d81527f6d6f64653d626c6f636b6e756d6265722666726f6d3d64656661756c74000000602082015290565b3361077981836112d5565b5050565b5f61067382611346565b61078f611249565b6106f45f611367565b5f610673826113b8565b6107aa611249565b6106f46113d5565b5f6060805f805f60606107c3611418565b6107cb611445565b604080515f80825260208201909252600f60f81b9b939a50919850469750309650945092509050565b5f6108096108018361114b565b600a90611199565b6001600160d01b031692915050565b5f6106a56112cb565b6060600480546105df90612650565b6001600160a01b0381165f90815260096020526040812061080990611472565b610858611249565b61271061ffff831611156108a75760405162461bcd60e51b815260206004820152601160248201527009ad2dce840cccaca40e8dede40d0d2ced607b1b60448201526064015b60405180910390fd5b61271061ffff821611156108f35760405162461bcd60e51b81526020600482015260136024820152720a4cac8cacada40cccaca40e8dede40d0d2ced606b1b604482015260640161089e565b600d805463ffffffff60a01b1916600160a01b61ffff85811691820261ffff60b01b191692909217600160b01b928516928302179092556040805192835260208301919091527f2ac80c14c28700f7b5e36f947d572149fe2e3947bac32c3a8c098f3e03722c11910160405180910390a15050565b6109706114a9565b6109786114f6565b5f81116109b45760405162461bcd60e51b815260206004820152600a6024820152690416d6f756e74203e20360b41b604482015260640161089e565b6b033b2e3c9fd0803ce8000000816109cb60025490565b6109d5919061269c565b1115610a185760405162461bcd60e51b815260206004820152601260248201527145786365656473206d617820737570706c7960701b604482015260640161089e565b610a4d6001600160a01b037f00000000000000000000000000000000000000000000000000000000000000001633308461154f565b600d545f9061271090610a6b90600160a01b900461ffff16846126af565b610a7591906126da565b90505f610a8282846126f9565b9050610a8e33826115b6565b8115610aaa57600d54610aaa906001600160a01b0316836115b6565b604080518281526020810184905233917f25b428dfde728ccfaddad7e29e4ac23c24ed7fd1a6e3e3f91894a9a073f5dfff91015b60405180910390a25050610af26001600c55565b50565b5f3361066d818585610fc5565b83421115610b2657604051632341d78760e11b81526004810185905260240161089e565b604080517fe48329057bfd03d55e49b547132e39cffd9c1820ad7b9d4c5307691425d15adf60208201526001600160a01b0388169181019190915260608101869052608081018590525f90610b9f90610b979060a001604051602081830303815290604052805190602001206115ea565b858585611616565b9050610bab8187611642565b610bb581886112d5565b50505050505050565b83421115610be25760405163313c898160e11b81526004810185905260240161089e565b5f7f6e71edae12b1b97f4d1f60370fef10105fa2faae0126114a169c64845d6126c9888888610c2d8c6001600160a01b03165f90815260076020526040902080546001810190915590565b6040805160208101969096526001600160a01b0394851690860152929091166060840152608083015260a082015260c0810186905260e0016040516020818303038152906040528051906020012090505f610c87826115ea565b90505f610c9682878787611616565b9050896001600160a01b0316816001600160a01b031614610cdd576040516325c0072360e11b81526001600160a01b0380831660048301528b16602482015260440161089e565b610ce88a8a8a610f38565b50505050505050505050565b610cfc6114a9565b610d046114f6565b5f8111610d405760405162461bcd60e51b815260206004820152600a6024820152690416d6f756e74203e20360b41b604482015260640161089e565b600d545f9061271090610d5e90600160b01b900461ffff16846126af565b610d6891906126da565b90505f610d7582846126f9565b9050610d813384611694565b610db56001600160a01b037f00000000000000000000000000000000000000000000000000000000000000001633836116c8565b8115610df557600d54610df5906001600160a01b037f000000000000000000000000000000000000000000000000000000000000000081169116846116c8565b604080518481526020810183905290810183905233907f484c40561359f3e3b8be9101897f8680aa82fbe1df9fd9038e0dbc628403264690606001610ade565b610e3d611249565b6001600160a01b038116610e865760405162461bcd60e51b815260206004820152601060248201526f496e76616c696420747265617375727960801b604482015260640161089e565b600d80546001600160a01b0319166001600160a01b0383169081179091556040519081527f7dae230f18360d76a040c81f050aa14eb9d6dc7901b20fc5d855e2a20fe814d19060200160405180910390a150565b604080518082019091525f8082526020820152610ef783836116f9565b9392505050565b610f06611249565b6001600160a01b038116610f2f57604051631e4fbdf760e01b81525f600482015260240161089e565b610af281611367565b610f45838383600161172d565b505050565b6001600160a01b038381165f908152600160209081526040808320938616835292905220545f198114610fbf5781811015610fb157604051637dc7a0d960e11b81526001600160a01b0384166004820152602481018290526044810183905260640161089e565b610fbf84848484035f61172d565b50505050565b6001600160a01b038316610fee57604051634b637e8f60e11b81525f600482015260240161089e565b6001600160a01b0382166110175760405163ec442f0560e01b81525f600482015260240161089e565b610f458383836117ff565b5f306001600160a01b037f00000000000000000000000000000000000000000000000000000000000000001614801561107a57507f000000000000000000000000000000000000000000000000000000000000000046145b156110a457507f000000000000000000000000000000000000000000000000000000000000000090565b6106a5604080517f8b73c3c69bb8fe3d512ecc4cf759cc79239f7b179b0ffacaa9a75d522b39400f60208201527f0000000000000000000000000000000000000000000000000000000000000000918101919091527f000000000000000000000000000000000000000000000000000000000000000060608201524660808201523060a08201525f9060c00160405160208183030381529060405280519060200120905090565b5f80611155610818565b90508065ffffffffffff16831061119057604051637669fc0f60e11b81526004810184905265ffffffffffff8216602482015260440161089e565b610ef78361180a565b81545f90818160058111156111f5575f6111b284611840565b6111bc90856126f9565b5f8881526020902090915081015465ffffffffffff90811690871610156111e5578091506111f3565b6111f081600161269c565b92505b505b5f61120287878585611998565b9050801561123c57611226876112196001846126f9565b5f91825260209091200190565b54600160301b90046001600160d01b031661123e565b5f5b979650505050505050565b600b546001600160a01b031633146106f45760405163118cdaa760e01b815233600482015260240161089e565b61127e6119f7565b600b805460ff60a01b191690557f5db9ee0a495bf2e6ff9c91a7834c1ba4fdd244a5e8aa4e537bd38aeae4b073aa335b6040516001600160a01b03909116815260200160405180910390a1565b5f6106a54361180a565b6001600160a01b038281165f8181526008602052604080822080548686166001600160a01b0319821681179092559151919094169392849290917f3134e8a2e6d97e929a7e54011ea5485d7d196dd5f0ba4d4ef95803e8e3fc257f9190a4610f45818361134186611a47565b611a64565b6001600160a01b0381165f9081526009602052604081205461067390611bcd565b600b80546001600160a01b038381166001600160a01b0319831681179093556040519116919082907f8be0079c531659141344cd1fd0a4f28419497f9722a3daafe3b4186f6b6457e0905f90a35050565b6001600160a01b0381165f90815260076020526040812054610673565b6113dd6114a9565b600b805460ff60a01b1916600160a01b1790557f62e78cea01bee320cd4e420270b5ea74000d11b0c9f74754ebdbfc544b05a2586112ae3390565b60606106a57f00000000000000000000000000000000000000000000000000000000000000006005611bfd565b60606106a57f00000000000000000000000000000000000000000000000000000000000000006006611bfd565b80545f9080156114a15761148b836112196001846126f9565b54600160301b90046001600160d01b0316610ef7565b5f9392505050565b600b54600160a01b900460ff16156106f45760405162461bcd60e51b815260206004820152601060248201526f14185d5cd8589b194e881c185d5cd95960821b604482015260640161089e565b6002600c54036115485760405162461bcd60e51b815260206004820152601f60248201527f5265656e7472616e637947756172643a207265656e7472616e742063616c6c00604482015260640161089e565b6002600c55565b6040516001600160a01b038481166024830152838116604483015260648201839052610fbf9186918216906323b872dd906084015b604051602081830303815290604052915060e01b6020820180516001600160e01b038381831617835250505050611ca6565b6001600160a01b0382166115df5760405163ec442f0560e01b81525f600482015260240161089e565b6107795f83836117ff565b5f6106736115f6611022565b8360405161190160f01b8152600281019290925260228201526042902090565b5f805f8061162688888888611d12565b9250925092506116368282611dda565b50909695505050505050565b6001600160a01b0382165f908152600760205260409020805460018101909155818114610f45576040516301d4b62360e61b81526001600160a01b03841660048201526024810182905260440161089e565b6001600160a01b0382166116bd57604051634b637e8f60e11b81525f600482015260240161089e565b610779825f836117ff565b6040516001600160a01b03838116602483015260448201839052610f4591859182169063a9059cbb90606401611584565b604080518082019091525f80825260208201526001600160a01b0383165f908152600960205260409020610ef79083611e92565b6001600160a01b0384166117565760405163e602df0560e01b81525f600482015260240161089e565b6001600160a01b03831661177f57604051634a1406b160e11b81525f600482015260240161089e565b6001600160a01b038085165f9081526001602090815260408083209387168352929052208290558015610fbf57826001600160a01b0316846001600160a01b03167f8c5be1e5ebec7d5bd14f71427d1e84f3dd0314c0f7b2291e5b200ac8c7c3b925846040516117f191815260200190565b60405180910390a350505050565b610f45838383611eff565b5f65ffffffffffff82111561183c576040516306dfcc6560e41b8152603060048201526024810183905260440161089e565b5090565b5f6001821161184d575090565b816001600160801b82106118665760809190911c9060401b5b6801000000000000000082106118815760409190911c9060201b5b64010000000082106118985760209190911c9060101b5b6201000082106118ad5760109190911c9060081b5b61010082106118c15760089190911c9060041b5b601082106118d45760049190911c9060021b5b600482106118e05760011b5b600302600190811c908185816118f8576118f86126c6565b048201901c90506001818581611910576119106126c6565b048201901c90506001818581611928576119286126c6565b048201901c90506001818581611940576119406126c6565b048201901c90506001818581611958576119586126c6565b048201901c90506001818581611970576119706126c6565b048201901c905061198f818581611989576119896126c6565b04821190565b90039392505050565b5f5b818310156119ef575f6119ad8484611f65565b5f8781526020902090915065ffffffffffff86169082015465ffffffffffff1611156119db578092506119e9565b6119e681600161269c565b93505b5061199a565b509392505050565b600b54600160a01b900460ff166106f45760405162461bcd60e51b815260206004820152601460248201527314185d5cd8589b194e881b9bdd081c185d5cd95960621b604482015260640161089e565b6001600160a01b0381165f90815260208190526040812054610673565b816001600160a01b0316836001600160a01b031614158015611a8557505f81115b15610f45576001600160a01b03831615611b2c576001600160a01b0383165f9081526009602052604081208190611ac790611f7f611ac286611f8a565b611fbd565b6001600160d01b031691506001600160d01b03169150846001600160a01b03167fdec2bacdd2f05b59de34da9b523dff8be42e5e38e818c82fdb0bae774387a7248383604051611b21929190918252602082015260400190565b60405180910390a250505b6001600160a01b03821615610f45576001600160a01b0382165f9081526009602052604081208190611b6490611ff5611ac286611f8a565b6001600160d01b031691506001600160d01b03169150836001600160a01b03167fdec2bacdd2f05b59de34da9b523dff8be42e5e38e818c82fdb0bae774387a7248383604051611bbe929190918252602082015260400190565b60405180910390a25050505050565b5f63ffffffff82111561183c576040516306dfcc6560e41b8152602060048201526024810183905260440161089e565b606060ff8314611c1757611c1083612000565b9050610673565b818054611c2390612650565b80601f0160208091040260200160405190810160405280929190818152602001828054611c4f90612650565b8015611c9a5780601f10611c7157610100808354040283529160200191611c9a565b820191905f5260205f20905b815481529060010190602001808311611c7d57829003601f168201915b50505050509050610673565b5f8060205f8451602086015f885af180611cc5576040513d5f823e3d81fd5b50505f513d91508115611cdc578060011415611ce9565b6001600160a01b0384163b155b15610fbf57604051635274afe760e01b81526001600160a01b038516600482015260240161089e565b5f80807f7fffffffffffffffffffffffffffffff5d576e7357a4501ddfe92f46681b20a0841115611d4b57505f91506003905082611dd0565b604080515f808252602082018084528a905260ff891692820192909252606081018790526080810186905260019060a0016020604051602081039080840390855afa158015611d9c573d5f803e3d5ffd5b5050604051601f1901519150506001600160a01b038116611dc757505f925060019150829050611dd0565b92505f91508190505b9450945094915050565b5f826003811115611ded57611ded61270c565b03611df6575050565b6001826003811115611e0a57611e0a61270c565b03611e285760405163f645eedf60e01b815260040160405180910390fd5b6002826003811115611e3c57611e3c61270c565b03611e5d5760405163fce698f760e01b81526004810182905260240161089e565b6003826003811115611e7157611e7161270c565b03610779576040516335e2f38360e21b81526004810182905260240161089e565b604080518082019091525f8082526020820152825f018263ffffffff1681548110611ebf57611ebf612720565b5f9182526020918290206040805180820190915291015465ffffffffffff81168252600160301b90046001600160d01b0316918101919091529392505050565b611f0a83838361203d565b6001600160a01b038316611f5a575f611f2260025490565b90506001600160d01b0380821115611f5757604051630e58ae9360e11b8152600481018390526024810182905260440161089e565b50505b610f45838383612163565b5f611f7360028484186126da565b610ef79084841661269c565b5f610ef78284612734565b5f6001600160d01b0382111561183c576040516306dfcc6560e41b815260d060048201526024810183905260440161089e565b5f80611fe8611fca610818565b611fe0611fd688611472565b868863ffffffff16565b8791906121d8565b915091505b935093915050565b5f610ef78284612753565b60605f61200c836121e5565b6040805160208082528183019092529192505f91906020820181803683375050509182525060208101929092525090565b6001600160a01b038316612067578060025f82825461205c919061269c565b909155506120d79050565b6001600160a01b0383165f90815260208190526040902054818110156120b95760405163391434e360e21b81526001600160a01b0385166004820152602481018290526044810183905260640161089e565b6001600160a01b0384165f9081526020819052604090209082900390555b6001600160a01b0382166120f357600280548290039055612111565b6001600160a01b0382165f9081526020819052604090208054820190555b816001600160a01b0316836001600160a01b03167fddf252ad1be2c89b69c2b068fc378daa952ba7f163c4a11628f55a4df523b3ef8360405161215691815260200190565b60405180910390a3505050565b6001600160a01b03831661218557612182600a611ff5611ac284611f8a565b50505b6001600160a01b0382166121a7576121a4600a611f7f611ac284611f8a565b50505b6001600160a01b038381165f90815260086020526040808220548584168352912054610f4592918216911683611a64565b5f80611fe885858561220c565b5f60ff8216601f81111561067357604051632cd44ac360e21b815260040160405180910390fd5b82545f9081908015612302575f612228876112196001856126f9565b805490915065ffffffffffff80821691600160301b90046001600160d01b031690881682111561226b57604051632520601d60e01b815260040160405180910390fd5b8765ffffffffffff168265ffffffffffff16036122a457825465ffffffffffff16600160301b6001600160d01b038916021783556122f4565b6040805180820190915265ffffffffffff808a1682526001600160d01b03808a1660208085019182528d54600181018f555f8f81529190912094519151909216600160301b029216919091179101555b9450859350611fed92505050565b50506040805180820190915265ffffffffffff80851682526001600160d01b0380851660208085019182528854600181018a555f8a815291822095519251909316600160301b029190931617920191909155905081611fed565b5f81518084528060208401602086015e5f602082860101526020601f19601f83011685010191505092915050565b602081525f610ef7602083018461235c565b80356001600160a01b03811681146123b2575f80fd5b919050565b5f80604083850312156123c8575f80fd5b6123d18361239c565b946020939093013593505050565b5f805f606084860312156123f1575f80fd5b6123fa8461239c565b92506124086020850161239c565b929592945050506040919091013590565b5f60208284031215612429575f80fd5b610ef78261239c565b60ff60f81b8816815260e060208201525f61245060e083018961235c565b8281036040840152612462818961235c565b606084018890526001600160a01b038716608085015260a0840186905283810360c0850152845180825260208087019350909101905f5b818110156124b7578351835260209384019390920191600101612499565b50909b9a5050505050505050505050565b5f602082840312156124d8575f80fd5b5035919050565b803561ffff811681146123b2575f80fd5b5f8060408385031215612501575f80fd5b61250a836124df565b9150612518602084016124df565b90509250929050565b803560ff811681146123b2575f80fd5b5f805f805f8060c08789031215612546575f80fd5b61254f8761239c565b9550602087013594506040870135935061256b60608801612521565b9598949750929560808101359460a0909101359350915050565b5f805f805f805f60e0888a03121561259b575f80fd5b6125a48861239c565b96506125b26020890161239c565b955060408801359450606088013593506125ce60808901612521565b9699959850939692959460a0840135945060c09093013592915050565b5f80604083850312156125fc575f80fd5b6126058361239c565b91506125186020840161239c565b5f8060408385031215612624575f80fd5b61262d8361239c565b9150602083013563ffffffff81168114612645575f80fd5b809150509250929050565b600181811c9082168061266457607f821691505b60208210810361268257634e487b7160e01b5f52602260045260245ffd5b50919050565b634e487b7160e01b5f52601160045260245ffd5b8082018082111561067357610673612688565b808202811582820484141761067357610673612688565b634e487b7160e01b5f52601260045260245ffd5b5f826126f457634e487b7160e01b5f52601260045260245ffd5b500490565b8181038181111561067357610673612688565b634e487b7160e01b5f52602160045260245ffd5b634e487b7160e01b5f52603260045260245ffd5b6001600160d01b03828116828216039081111561067357610673612688565b6001600160d01b0381811683821601908111156106735761067361268856fea2646970667358221220975193de415baab1c66dbed9792e52e889eb181424b2157598bd6167e52bc11864736f6c634300081a0033",
			"opcodes": "PUSH2 0x180 PUSH1 0x40 MSTORE CALLVALUE DUP1 ISZERO PUSH2 0x10 JUMPI PUSH0 DUP1 REVERT JUMPDEST POP PUSH1 0x40 MLOAD PUSH2 0x2E76 CODESIZE SUB DUP1 PUSH2 0x2E76 DUP4 CODECOPY DUP2 ADD PUSH1 0x40 DUP2 SWAP1 MSTORE PUSH2 0x2F SWAP2 PUSH2 0x463 JUMP JUMPDEST CALLER PUSH1 0x40 MLOAD DUP1 PUSH1 0x40 ADD PUSH1 0x40 MSTORE DUP1 PUSH1 0x15 DUP2 MSTORE PUSH1 0x20 ADD PUSH32 0x5061646920476F7665726E616E636520546F6B656E0000000000000000000000 DUP2 MSTORE POP DUP1 PUSH1 0x40 MLOAD DUP1 PUSH1 0x40 ADD PUSH1 0x40 MSTORE DUP1 PUSH1 0x1 DUP2 MSTORE PUSH1 0x20 ADD PUSH1 0x31 PUSH1 0xF8 SHL DUP2 MSTORE POP PUSH1 0x40 MLOAD DUP1 PUSH1 0x40 ADD PUSH1 0x40 MSTORE DUP1 PUSH1 0x15 DUP2 MSTORE PUSH1 0x20 ADD PUSH32 0x5061646920476F7665726E616E636520546F6B656E0000000000000000000000 DUP2 MSTORE POP PUSH1 0x40 MLOAD DUP1 PUSH1 0x40 ADD PUSH1 0x40 MSTORE DUP1 PUSH1 0x8 DUP2 MSTORE PUSH1 0x20 ADD PUSH8 0x2820A22496A3A7AB PUSH1 0xC1 SHL DUP2 MSTORE POP DUP2 PUSH1 0x3 SWAP1 DUP2 PUSH2 0xE7 SWAP2 SWAP1 PUSH2 0x54C JUMP JUMPDEST POP PUSH1 0x4 PUSH2 0xF4 DUP3 DUP3 PUSH2 0x54C JUMP JUMPDEST POP PUSH2 0x104 SWAP2 POP DUP4 SWAP1 POP PUSH1 0x5 PUSH2 0x377 JUMP JUMPDEST PUSH2 0x120 MSTORE PUSH2 0x113 DUP2 PUSH1 0x6 PUSH2 0x377 JUMP JUMPDEST PUSH2 0x140 MSTORE DUP2 MLOAD PUSH1 0x20 DUP1 DUP5 ADD SWAP2 SWAP1 SWAP2 KECCAK256 PUSH1 0xE0 MSTORE DUP2 MLOAD SWAP1 DUP3 ADD KECCAK256 PUSH2 0x100 MSTORE CHAINID PUSH1 0xA0 MSTORE PUSH2 0x19F PUSH1 0xE0 MLOAD PUSH2 0x100 MLOAD PUSH1 0x40 DUP1 MLOAD PUSH32 0x8B73C3C69BB8FE3D512ECC4CF759CC79239F7B179B0FFACAA9A75D522B39400F PUSH1 0x20 DUP3 ADD MSTORE SWAP1 DUP2 ADD SWAP3 SWAP1 SWAP3 MSTORE PUSH1 0x60 DUP3 ADD MSTORE CHAINID PUSH1 0x80 DUP3 ADD MSTORE ADDRESS PUSH1 0xA0 DUP3 ADD MSTORE PUSH0 SWAP1 PUSH1 0xC0 ADD PUSH1 0x40 MLOAD PUSH1 0x20 DUP2 DUP4 SUB SUB DUP2 MSTORE SWAP1 PUSH1 0x40 MSTORE DUP1 MLOAD SWAP1 PUSH1 0x20 ADD KECCAK256 SWAP1 POP SWAP1 JUMP JUMPDEST PUSH1 0x80 MSTORE POP POP ADDRESS PUSH1 0xC0 MSTORE POP PUSH1 0x1 PUSH1 0x1 PUSH1 0xA0 SHL SUB DUP2 AND PUSH2 0x1D7 JUMPI PUSH1 0x40 MLOAD PUSH4 0x1E4FBDF7 PUSH1 0xE0 SHL DUP2 MSTORE PUSH0 PUSH1 0x4 DUP3 ADD MSTORE PUSH1 0x24 ADD JUMPDEST PUSH1 0x40 MLOAD DUP1 SWAP2 SUB SWAP1 REVERT JUMPDEST PUSH2 0x1E0 DUP2 PUSH2 0x3A9 JUMP JUMPDEST POP PUSH1 0xB DUP1 SLOAD PUSH1 0xFF PUSH1 0xA0 SHL NOT AND SWAP1 SSTORE PUSH1 0x1 PUSH1 0xC SSTORE PUSH1 0x1 PUSH1 0x1 PUSH1 0xA0 SHL SUB DUP5 AND PUSH2 0x23D JUMPI PUSH1 0x40 MLOAD PUSH3 0x461BCD PUSH1 0xE5 SHL DUP2 MSTORE PUSH1 0x20 PUSH1 0x4 DUP3 ADD MSTORE PUSH1 0x11 PUSH1 0x24 DUP3 ADD MSTORE PUSH17 0x24B73B30B634B21031AAA9A21030B23239 PUSH1 0x79 SHL PUSH1 0x44 DUP3 ADD MSTORE PUSH1 0x64 ADD PUSH2 0x1CE JUMP JUMPDEST PUSH1 0x1 PUSH1 0x1 PUSH1 0xA0 SHL SUB DUP4 AND PUSH2 0x286 JUMPI PUSH1 0x40 MLOAD PUSH3 0x461BCD PUSH1 0xE5 SHL DUP2 MSTORE PUSH1 0x20 PUSH1 0x4 DUP3 ADD MSTORE PUSH1 0x10 PUSH1 0x24 DUP3 ADD MSTORE PUSH16 0x496E76616C6964207472656173757279 PUSH1 0x80 SHL PUSH1 0x44 DUP3 ADD MSTORE PUSH1 0x64 ADD PUSH2 0x1CE JUMP JUMPDEST PUSH2 0x2710 PUSH2 0xFFFF DUP4 AND GT ISZERO PUSH2 0x2D0 JUMPI PUSH1 0x40 MLOAD PUSH3 0x461BCD PUSH1 0xE5 SHL DUP2 MSTORE PUSH1 0x20 PUSH1 0x4 DUP3 ADD MSTORE PUSH1 0x11 PUSH1 0x24 DUP3 ADD MSTORE PUSH17 0x9AD2DCE840CCCACA40E8DEDE40D0D2CED PUSH1 0x7B SHL PUSH1 0x44 DUP3 ADD MSTORE PUSH1 0x64 ADD PUSH2 0x1CE JUMP JUMPDEST PUSH2 0x2710 PUSH2 0xFFFF DUP3 AND GT ISZERO PUSH2 0x326 JUMPI PUSH1 0x40 MLOAD PUSH3 0x461BCD PUSH1 0xE5 SHL DUP2 MSTORE PUSH1 0x20 PUSH1 0x4 DUP3 ADD MSTORE PUSH1 0x13 PUSH1 0x24 DUP3 ADD MSTORE PUSH32 0x52656465656D2066656520746F6F206869676800000000000000000000000000 PUSH1 0x44 DUP3 ADD MSTORE PUSH1 0x64 ADD PUSH2 0x1CE JUMP JUMPDEST PUSH1 0x1 PUSH1 0x1 PUSH1 0xA0 SHL SUB SWAP4 DUP5 AND PUSH2 0x160 MSTORE PUSH1 0xD DUP1 SLOAD SWAP4 SWAP1 SWAP5 AND PUSH1 0x1 PUSH1 0x1 PUSH1 0xB0 SHL SUB NOT SWAP1 SWAP4 AND SWAP3 SWAP1 SWAP3 OR PUSH1 0x1 PUSH1 0xA0 SHL PUSH2 0xFFFF SWAP3 DUP4 AND MUL OR PUSH2 0xFFFF PUSH1 0xB0 SHL NOT AND PUSH1 0x1 PUSH1 0xB0 SHL SWAP3 SWAP1 SWAP2 AND SWAP2 SWAP1 SWAP2 MUL OR SWAP1 SSTORE PUSH2 0x65E JUMP JUMPDEST PUSH0 PUSH1 0x20 DUP4 MLOAD LT ISZERO PUSH2 0x392 JUMPI PUSH2 0x38B DUP4 PUSH2 0x3FA JUMP JUMPDEST SWAP1 POP PUSH2 0x3A3 JUMP JUMPDEST DUP2 PUSH2 0x39D DUP5 DUP3 PUSH2 0x54C JUMP JUMPDEST POP PUSH1 0xFF SWAP1 POP JUMPDEST SWAP3 SWAP2 POP POP JUMP JUMPDEST PUSH1 0xB DUP1 SLOAD PUSH1 0x1 PUSH1 0x1 PUSH1 0xA0 SHL SUB DUP4 DUP2 AND PUSH1 0x1 PUSH1 0x1 PUSH1 0xA0 SHL SUB NOT DUP4 AND DUP2 OR SWAP1 SWAP4 SSTORE PUSH1 0x40 MLOAD SWAP2 AND SWAP2 SWAP1 DUP3 SWAP1 PUSH32 0x8BE0079C531659141344CD1FD0A4F28419497F9722A3DAAFE3B4186F6B6457E0 SWAP1 PUSH0 SWAP1 LOG3 POP POP JUMP JUMPDEST PUSH0 DUP1 DUP3 SWAP1 POP PUSH1 0x1F DUP2 MLOAD GT ISZERO PUSH2 0x424 JUMPI DUP3 PUSH1 0x40 MLOAD PUSH4 0x305A27A9 PUSH1 0xE0 SHL DUP2 MSTORE PUSH1 0x4 ADD PUSH2 0x1CE SWAP2 SWAP1 PUSH2 0x606 JUMP JUMPDEST DUP1 MLOAD PUSH2 0x42F DUP3 PUSH2 0x63B JUMP JUMPDEST OR SWAP4 SWAP3 POP POP POP JUMP JUMPDEST DUP1 MLOAD PUSH1 0x1 PUSH1 0x1 PUSH1 0xA0 SHL SUB DUP2 AND DUP2 EQ PUSH2 0x44D JUMPI PUSH0 DUP1 REVERT JUMPDEST SWAP2 SWAP1 POP JUMP JUMPDEST DUP1 MLOAD PUSH2 0xFFFF DUP2 AND DUP2 EQ PUSH2 0x44D JUMPI PUSH0 DUP1 REVERT JUMPDEST PUSH0 DUP1 PUSH0 DUP1 PUSH1 0x80 DUP6 DUP8 SUB SLT ISZERO PUSH2 0x476 JUMPI PUSH0 DUP1 REVERT JUMPDEST PUSH2 0x47F DUP6 PUSH2 0x437 JUMP JUMPDEST SWAP4 POP PUSH2 0x48D PUSH1 0x20 DUP7 ADD PUSH2 0x437 JUMP JUMPDEST SWAP3 POP PUSH2 0x49B PUSH1 0x40 DUP7 ADD PUSH2 0x452 JUMP JUMPDEST SWAP2 POP PUSH2 0x4A9 PUSH1 0x60 DUP7 ADD PUSH2 0x452 JUMP JUMPDEST SWAP1 POP SWAP3 SWAP6 SWAP2 SWAP5 POP SWAP3 POP JUMP JUMPDEST PUSH4 0x4E487B71 PUSH1 0xE0 SHL PUSH0 MSTORE PUSH1 0x41 PUSH1 0x4 MSTORE PUSH1 0x24 PUSH0 REVERT JUMPDEST PUSH1 0x1 DUP2 DUP2 SHR SWAP1 DUP3 AND DUP1 PUSH2 0x4DC JUMPI PUSH1 0x7F DUP3 AND SWAP2 POP JUMPDEST PUSH1 0x20 DUP3 LT DUP2 SUB PUSH2 0x4FA JUMPI PUSH4 0x4E487B71 PUSH1 0xE0 SHL PUSH0 MSTORE PUSH1 0x22 PUSH1 0x4 MSTORE PUSH1 0x24 PUSH0 REVERT JUMPDEST POP SWAP2 SWAP1 POP JUMP JUMPDEST PUSH1 0x1F DUP3 GT ISZERO PUSH2 0x547 JUMPI DUP1 PUSH0 MSTORE PUSH1 0x20 PUSH0 KECCAK256 PUSH1 0x1F DUP5 ADD PUSH1 0x5 SHR DUP2 ADD PUSH1 0x20 DUP6 LT ISZERO PUSH2 0x525 JUMPI POP DUP1 JUMPDEST PUSH1 0x1F DUP5 ADD PUSH1 0x5 SHR DUP3 ADD SWAP2 POP JUMPDEST DUP2 DUP2 LT ISZERO PUSH2 0x544 JUMPI PUSH0 DUP2 SSTORE PUSH1 0x1 ADD PUSH2 0x531 JUMP JUMPDEST POP POP JUMPDEST POP POP POP JUMP JUMPDEST DUP2 MLOAD PUSH1 0x1 PUSH1 0x1 PUSH1 0x40 SHL SUB DUP2 GT ISZERO PUSH2 0x565 JUMPI PUSH2 0x565 PUSH2 0x4B4 JUMP JUMPDEST PUSH2 0x579 DUP2 PUSH2 0x573 DUP5 SLOAD PUSH2 0x4C8 JUMP JUMPDEST DUP5 PUSH2 0x500 JUMP JUMPDEST PUSH1 0x20 PUSH1 0x1F DUP3 GT PUSH1 0x1 DUP2 EQ PUSH2 0x5AB JUMPI PUSH0 DUP4 ISZERO PUSH2 0x594 JUMPI POP DUP5 DUP3 ADD MLOAD JUMPDEST PUSH0 NOT PUSH1 0x3 DUP6 SWAP1 SHL SHR NOT AND PUSH1 0x1 DUP5 SWAP1 SHL OR DUP5 SSTORE PUSH2 0x544 JUMP JUMPDEST PUSH0 DUP5 DUP2 MSTORE PUSH1 0x20 DUP2 KECCAK256 PUSH1 0x1F NOT DUP6 AND SWAP2 JUMPDEST DUP3 DUP2 LT ISZERO PUSH2 0x5DA JUMPI DUP8 DUP6 ADD MLOAD DUP3 SSTORE PUSH1 0x20 SWAP5 DUP6 ADD SWAP5 PUSH1 0x1 SWAP1 SWAP3 ADD SWAP2 ADD PUSH2 0x5BA JUMP JUMPDEST POP DUP5 DUP3 LT ISZERO PUSH2 0x5F7 JUMPI DUP7 DUP5 ADD MLOAD PUSH0 NOT PUSH1 0x3 DUP8 SWAP1 SHL PUSH1 0xF8 AND SHR NOT AND DUP2 SSTORE JUMPDEST POP POP POP POP PUSH1 0x1 SWAP1 DUP2 SHL ADD SWAP1 SSTORE POP JUMP JUMPDEST PUSH1 0x20 DUP2 MSTORE PUSH0 DUP3 MLOAD DUP1 PUSH1 0x20 DUP5 ADD MSTORE DUP1 PUSH1 0x20 DUP6 ADD PUSH1 0x40 DUP6 ADD MCOPY PUSH0 PUSH1 0x40 DUP3 DUP6 ADD ADD MSTORE PUSH1 0x40 PUSH1 0x1F NOT PUSH1 0x1F DUP4 ADD AND DUP5 ADD ADD SWAP2 POP POP SWAP3 SWAP2 POP POP JUMP JUMPDEST DUP1 MLOAD PUSH1 0x20 DUP1 DUP4 ADD MLOAD SWAP2 SWAP1 DUP2 LT ISZERO PUSH2 0x4FA JUMPI PUSH0 NOT PUSH1 0x20 SWAP2 SWAP1 SWAP2 SUB PUSH1 0x3 SHL SHL AND SWAP2 SWAP1 POP JUMP JUMPDEST PUSH1 0x80 MLOAD PUSH1 0xA0 MLOAD PUSH1 0xC0 MLOAD PUSH1 0xE0 MLOAD PUSH2 0x100 MLOAD PUSH2 0x120 MLOAD PUSH2 0x140 MLOAD PUSH2 0x160 MLOAD PUSH2 0x27A8 PUSH2 0x6CE PUSH0 CODECOPY PUSH0 DUP2 DUP2 PUSH2 0x2A6 ADD MSTORE DUP2 DUP2 PUSH2 0xA25 ADD MSTORE DUP2 DUP2 PUSH2 0xD8E ADD MSTORE PUSH2 0xDCC ADD MSTORE PUSH0 PUSH2 0x144C ADD MSTORE PUSH0 PUSH2 0x141F ADD MSTORE PUSH0 PUSH2 0x10FB ADD MSTORE PUSH0 PUSH2 0x10D3 ADD MSTORE PUSH0 PUSH2 0x102E ADD MSTORE PUSH0 PUSH2 0x1058 ADD MSTORE PUSH0 PUSH2 0x1082 ADD MSTORE PUSH2 0x27A8 PUSH0 RETURN INVALID PUSH1 0x80 PUSH1 0x40 MSTORE CALLVALUE DUP1 ISZERO PUSH2 0xF JUMPI PUSH0 DUP1 REVERT JUMPDEST POP PUSH1 0x4 CALLDATASIZE LT PUSH2 0x234 JUMPI PUSH0 CALLDATALOAD PUSH1 0xE0 SHR DUP1 PUSH4 0x7ECEBE00 GT PUSH2 0x135 JUMPI DUP1 PUSH4 0xA0712D68 GT PUSH2 0xB4 JUMPI DUP1 PUSH4 0xDD62ED3E GT PUSH2 0x79 JUMPI DUP1 PUSH4 0xDD62ED3E EQ PUSH2 0x52A JUMPI DUP1 PUSH4 0xF0F44260 EQ PUSH2 0x562 JUMPI DUP1 PUSH4 0xF1127ED8 EQ PUSH2 0x575 JUMPI DUP1 PUSH4 0xF2FDE38B EQ PUSH2 0x5B4 JUMPI DUP1 PUSH4 0xFD967F47 EQ PUSH2 0x5C7 JUMPI PUSH0 DUP1 REVERT JUMPDEST DUP1 PUSH4 0xA0712D68 EQ PUSH2 0x4CB JUMPI DUP1 PUSH4 0xA9059CBB EQ PUSH2 0x4DE JUMPI DUP1 PUSH4 0xC3CDA520 EQ PUSH2 0x4F1 JUMPI DUP1 PUSH4 0xD505ACCF EQ PUSH2 0x504 JUMPI DUP1 PUSH4 0xDB006A75 EQ PUSH2 0x517 JUMPI PUSH0 DUP1 REVERT JUMPDEST DUP1 PUSH4 0x91DDADF4 GT PUSH2 0xFA JUMPI DUP1 PUSH4 0x91DDADF4 EQ PUSH2 0x469 JUMPI DUP1 PUSH4 0x95D89B41 EQ PUSH2 0x488 JUMPI DUP1 PUSH4 0x97C8BCC1 EQ PUSH2 0x490 JUMPI DUP1 PUSH4 0x9AB24EB0 EQ PUSH2 0x4A5 JUMPI DUP1 PUSH4 0x9EF833D4 EQ PUSH2 0x4B8 JUMPI PUSH0 DUP1 REVERT JUMPDEST DUP1 PUSH4 0x7ECEBE00 EQ PUSH2 0x40F JUMPI DUP1 PUSH4 0x8456CB59 EQ PUSH2 0x422 JUMPI DUP1 PUSH4 0x84B0196E EQ PUSH2 0x42A JUMPI DUP1 PUSH4 0x8DA5CB5B EQ PUSH2 0x445 JUMPI DUP1 PUSH4 0x8E539E8C EQ PUSH2 0x456 JUMPI PUSH0 DUP1 REVERT JUMPDEST DUP1 PUSH4 0x3A46B1A8 GT PUSH2 0x1C1 JUMPI DUP1 PUSH4 0x5C975ABB GT PUSH2 0x186 JUMPI DUP1 PUSH4 0x5C975ABB EQ PUSH2 0x392 JUMPI DUP1 PUSH4 0x61D027B3 EQ PUSH2 0x3A4 JUMPI DUP1 PUSH4 0x6FCFFF45 EQ PUSH2 0x3B7 JUMPI DUP1 PUSH4 0x70A08231 EQ PUSH2 0x3DF JUMPI DUP1 PUSH4 0x715018A6 EQ PUSH2 0x407 JUMPI PUSH0 DUP1 REVERT JUMPDEST DUP1 PUSH4 0x3A46B1A8 EQ PUSH2 0x32F JUMPI DUP1 PUSH4 0x3F4BA83A EQ PUSH2 0x342 JUMPI DUP1 PUSH4 0x4BF5D7E9 EQ PUSH2 0x34C JUMPI DUP1 PUSH4 0x587CDE1E EQ PUSH2 0x354 JUMPI DUP1 PUSH4 0x5C19A95C EQ PUSH2 0x37F JUMPI PUSH0 DUP1 REVERT JUMPDEST DUP1 PUSH4 0x18160DDD GT PUSH2 0x207 JUMPI DUP1 PUSH4 0x18160DDD EQ PUSH2 0x2E0 JUMPI DUP1 PUSH4 0x23B872DD EQ PUSH2 0x2F2 JUMPI DUP1 PUSH4 0x313CE567 EQ PUSH2 0x305 JUMPI DUP1 PUSH4 0x32CB6B0C EQ PUSH2 0x314 JUMPI DUP1 PUSH4 0x3644E515 EQ PUSH2 0x327 JUMPI PUSH0 DUP1 REVERT JUMPDEST DUP1 PUSH4 0x6FDDE03 EQ PUSH2 0x238 JUMPI DUP1 PUSH4 0x95EA7B3 EQ PUSH2 0x256 JUMPI DUP1 PUSH4 0x9F6442C EQ PUSH2 0x279 JUMPI DUP1 PUSH4 0xC577BDC EQ PUSH2 0x2A1 JUMPI JUMPDEST PUSH0 DUP1 REVERT JUMPDEST PUSH2 0x240 PUSH2 0x5D0 JUMP JUMPDEST PUSH1 0x40 MLOAD PUSH2 0x24D SWAP2 SWAP1 PUSH2 0x238A JUMP JUMPDEST PUSH1 0x40 MLOAD DUP1 SWAP2 SUB SWAP1 RETURN JUMPDEST PUSH2 0x269 PUSH2 0x264 CALLDATASIZE PUSH1 0x4 PUSH2 0x23B7 JUMP JUMPDEST PUSH2 0x660 JUMP JUMPDEST PUSH1 0x40 MLOAD SWAP1 ISZERO ISZERO DUP2 MSTORE PUSH1 0x20 ADD PUSH2 0x24D JUMP JUMPDEST PUSH1 0xD SLOAD PUSH2 0x28E SWAP1 PUSH1 0x1 PUSH1 0xB0 SHL SWAP1 DIV PUSH2 0xFFFF AND DUP2 JUMP JUMPDEST PUSH1 0x40 MLOAD PUSH2 0xFFFF SWAP1 SWAP2 AND DUP2 MSTORE PUSH1 0x20 ADD PUSH2 0x24D JUMP JUMPDEST PUSH2 0x2C8 PUSH32 0x0 DUP2 JUMP JUMPDEST PUSH1 0x40 MLOAD PUSH1 0x1 PUSH1 0x1 PUSH1 0xA0 SHL SUB SWAP1 SWAP2 AND DUP2 MSTORE PUSH1 0x20 ADD PUSH2 0x24D JUMP JUMPDEST PUSH1 0x2 SLOAD JUMPDEST PUSH1 0x40 MLOAD SWAP1 DUP2 MSTORE PUSH1 0x20 ADD PUSH2 0x24D JUMP JUMPDEST PUSH2 0x269 PUSH2 0x300 CALLDATASIZE PUSH1 0x4 PUSH2 0x23DF JUMP JUMPDEST PUSH2 0x679 JUMP JUMPDEST PUSH1 0x40 MLOAD PUSH1 0x12 DUP2 MSTORE PUSH1 0x20 ADD PUSH2 0x24D JUMP JUMPDEST PUSH2 0x2E4 PUSH12 0x33B2E3C9FD0803CE8000000 DUP2 JUMP JUMPDEST PUSH2 0x2E4 PUSH2 0x69C JUMP JUMPDEST PUSH2 0x2E4 PUSH2 0x33D CALLDATASIZE PUSH1 0x4 PUSH2 0x23B7 JUMP JUMPDEST PUSH2 0x6AA JUMP JUMPDEST PUSH2 0x34A PUSH2 0x6E4 JUMP JUMPDEST STOP JUMPDEST PUSH2 0x240 PUSH2 0x6F6 JUMP JUMPDEST PUSH2 0x2C8 PUSH2 0x362 CALLDATASIZE PUSH1 0x4 PUSH2 0x2419 JUMP JUMPDEST PUSH1 0x1 PUSH1 0x1 PUSH1 0xA0 SHL SUB SWAP1 DUP2 AND PUSH0 SWAP1 DUP2 MSTORE PUSH1 0x8 PUSH1 0x20 MSTORE PUSH1 0x40 SWAP1 KECCAK256 SLOAD AND SWAP1 JUMP JUMPDEST PUSH2 0x34A PUSH2 0x38D CALLDATASIZE PUSH1 0x4 PUSH2 0x2419 JUMP JUMPDEST PUSH2 0x76E JUMP JUMPDEST PUSH1 0xB SLOAD PUSH1 0x1 PUSH1 0xA0 SHL SWAP1 DIV PUSH1 0xFF AND PUSH2 0x269 JUMP JUMPDEST PUSH1 0xD SLOAD PUSH2 0x2C8 SWAP1 PUSH1 0x1 PUSH1 0x1 PUSH1 0xA0 SHL SUB AND DUP2 JUMP JUMPDEST PUSH2 0x3CA PUSH2 0x3C5 CALLDATASIZE PUSH1 0x4 PUSH2 0x2419 JUMP JUMPDEST PUSH2 0x77D JUMP JUMPDEST PUSH1 0x40 MLOAD PUSH4 0xFFFFFFFF SWAP1 SWAP2 AND DUP2 MSTORE PUSH1 0x20 ADD PUSH2 0x24D JUMP JUMPDEST PUSH2 0x2E4 PUSH2 0x3ED CALLDATASIZE PUSH1 0x4 PUSH2 0x2419 JUMP JUMPDEST PUSH1 0x1 PUSH1 0x1 PUSH1 0xA0 SHL SUB AND PUSH0 SWAP1 DUP2 MSTORE PUSH1 0x20 DUP2 SWAP1 MSTORE PUSH1 0x40 SWAP1 KECCAK256 SLOAD SWAP1 JUMP JUMPDEST PUSH2 0x34A PUSH2 0x787 JUMP JUMPDEST PUSH2 0x2E4 PUSH2 0x41D CALLDATASIZE PUSH1 0x4 PUSH2 0x2419 JUMP JUMPDEST PUSH2 0x798 JUMP JUMPDEST PUSH2 0x34A PUSH2 0x7A2 JUMP JUMPDEST PUSH2 0x432 PUSH2 0x7B2 JUMP JUMPDEST PUSH1 0x40 MLOAD PUSH2 0x24D SWAP8 SWAP7 SWAP6 SWAP5 SWAP4 SWAP3 SWAP2 SWAP1 PUSH2 0x2432 JUMP JUMPDEST PUSH1 0xB SLOAD PUSH1 0x1 PUSH1 0x1 PUSH1 0xA0 SHL SUB AND PUSH2 0x2C8 JUMP JUMPDEST PUSH2 0x2E4 PUSH2 0x464 CALLDATASIZE PUSH1 0x4 PUSH2 0x24C8 JUMP JUMPDEST PUSH2 0x7F4 JUMP JUMPDEST PUSH2 0x471 PUSH2 0x818 JUMP JUMPDEST PUSH1 0x40 MLOAD PUSH6 0xFFFFFFFFFFFF SWAP1 SWAP2 AND DUP2 MSTORE PUSH1 0x20 ADD PUSH2 0x24D JUMP JUMPDEST PUSH2 0x240 PUSH2 0x821 JUMP JUMPDEST PUSH1 0xD SLOAD PUSH2 0x28E SWAP1 PUSH1 0x1 PUSH1 0xA0 SHL SWAP1 DIV PUSH2 0xFFFF AND DUP2 JUMP JUMPDEST PUSH2 0x2E4 PUSH2 0x4B3 CALLDATASIZE PUSH1 0x4 PUSH2 0x2419 JUMP JUMPDEST PUSH2 0x830 JUMP JUMPDEST PUSH2 0x34A PUSH2 0x4C6 CALLDATASIZE PUSH1 0x4 PUSH2 0x24F0 JUMP JUMPDEST PUSH2 0x850 JUMP JUMPDEST PUSH2 0x34A PUSH2 0x4D9 CALLDATASIZE PUSH1 0x4 PUSH2 0x24C8 JUMP JUMPDEST PUSH2 0x968 JUMP JUMPDEST PUSH2 0x269 PUSH2 0x4EC CALLDATASIZE PUSH1 0x4 PUSH2 0x23B7 JUMP JUMPDEST PUSH2 0xAF5 JUMP JUMPDEST PUSH2 0x34A PUSH2 0x4FF CALLDATASIZE PUSH1 0x4 PUSH2 0x2531 JUMP JUMPDEST PUSH2 0xB02 JUMP JUMPDEST PUSH2 0x34A PUSH2 0x512 CALLDATASIZE PUSH1 0x4 PUSH2 0x2585 JUMP JUMPDEST PUSH2 0xBBE JUMP JUMPDEST PUSH2 0x34A PUSH2 0x525 CALLDATASIZE PUSH1 0x4 PUSH2 0x24C8 JUMP JUMPDEST PUSH2 0xCF4 JUMP JUMPDEST PUSH2 0x2E4 PUSH2 0x538 CALLDATASIZE PUSH1 0x4 PUSH2 0x25EB JUMP JUMPDEST PUSH1 0x1 PUSH1 0x1 PUSH1 0xA0 SHL SUB SWAP2 DUP3 AND PUSH0 SWAP1 DUP2 MSTORE PUSH1 0x1 PUSH1 0x20 SWAP1 DUP2 MSTORE PUSH1 0x40 DUP1 DUP4 KECCAK256 SWAP4 SWAP1 SWAP5 AND DUP3 MSTORE SWAP2 SWAP1 SWAP2 MSTORE KECCAK256 SLOAD SWAP1 JUMP JUMPDEST PUSH2 0x34A PUSH2 0x570 CALLDATASIZE PUSH1 0x4 PUSH2 0x2419 JUMP JUMPDEST PUSH2 0xE35 JUMP JUMPDEST PUSH2 0x588 PUSH2 0x583 CALLDATASIZE PUSH1 0x4 PUSH2 0x2613 JUMP JUMPDEST PUSH2 0xEDA JUMP JUMPDEST PUSH1 0x40 DUP1 MLOAD DUP3 MLOAD PUSH6 0xFFFFFFFFFFFF AND DUP2 MSTORE PUSH1 0x20 SWAP3 DUP4 ADD MLOAD PUSH1 0x1 PUSH1 0x1 PUSH1 0xD0 SHL SUB AND SWAP3 DUP2 ADD SWAP3 SWAP1 SWAP3 MSTORE ADD PUSH2 0x24D JUMP JUMPDEST PUSH2 0x34A PUSH2 0x5C2 CALLDATASIZE PUSH1 0x4 PUSH2 0x2419 JUMP JUMPDEST PUSH2 0xEFE JUMP JUMPDEST PUSH2 0x28E PUSH2 0x2710 DUP2 JUMP JUMPDEST PUSH1 0x60 PUSH1 0x3 DUP1 SLOAD PUSH2 0x5DF SWAP1 PUSH2 0x2650 JUMP JUMPDEST DUP1 PUSH1 0x1F ADD PUSH1 0x20 DUP1 SWAP2 DIV MUL PUSH1 0x20 ADD PUSH1 0x40 MLOAD SWAP1 DUP2 ADD PUSH1 0x40 MSTORE DUP1 SWAP3 SWAP2 SWAP1 DUP2 DUP2 MSTORE PUSH1 0x20 ADD DUP3 DUP1 SLOAD PUSH2 0x60B SWAP1 PUSH2 0x2650 JUMP JUMPDEST DUP1 ISZERO PUSH2 0x656 JUMPI DUP1 PUSH1 0x1F LT PUSH2 0x62D JUMPI PUSH2 0x100 DUP1 DUP4 SLOAD DIV MUL DUP4 MSTORE SWAP2 PUSH1 0x20 ADD SWAP2 PUSH2 0x656 JUMP JUMPDEST DUP3 ADD SWAP2 SWAP1 PUSH0 MSTORE PUSH1 0x20 PUSH0 KECCAK256 SWAP1 JUMPDEST DUP2 SLOAD DUP2 MSTORE SWAP1 PUSH1 0x1 ADD SWAP1 PUSH1 0x20 ADD DUP1 DUP4 GT PUSH2 0x639 JUMPI DUP3 SWAP1 SUB PUSH1 0x1F AND DUP3 ADD SWAP2 JUMPDEST POP POP POP POP POP SWAP1 POP SWAP1 JUMP JUMPDEST PUSH0 CALLER PUSH2 0x66D DUP2 DUP6 DUP6 PUSH2 0xF38 JUMP JUMPDEST PUSH1 0x1 SWAP2 POP POP JUMPDEST SWAP3 SWAP2 POP POP JUMP JUMPDEST PUSH0 CALLER PUSH2 0x686 DUP6 DUP3 DUP6 PUSH2 0xF4A JUMP JUMPDEST PUSH2 0x691 DUP6 DUP6 DUP6 PUSH2 0xFC5 JUMP JUMPDEST POP PUSH1 0x1 SWAP5 SWAP4 POP POP POP POP JUMP JUMPDEST PUSH0 PUSH2 0x6A5 PUSH2 0x1022 JUMP JUMPDEST SWAP1 POP SWAP1 JUMP JUMPDEST PUSH0 PUSH2 0x6D4 PUSH2 0x6B7 DUP4 PUSH2 0x114B JUMP JUMPDEST PUSH1 0x1 PUSH1 0x1 PUSH1 0xA0 SHL SUB DUP6 AND PUSH0 SWAP1 DUP2 MSTORE PUSH1 0x9 PUSH1 0x20 MSTORE PUSH1 0x40 SWAP1 KECCAK256 SWAP1 PUSH2 0x1199 JUMP JUMPDEST PUSH1 0x1 PUSH1 0x1 PUSH1 0xD0 SHL SUB AND SWAP4 SWAP3 POP POP POP JUMP JUMPDEST PUSH2 0x6EC PUSH2 0x1249 JUMP JUMPDEST PUSH2 0x6F4 PUSH2 0x1276 JUMP JUMPDEST JUMP JUMPDEST PUSH1 0x60 PUSH2 0x700 PUSH2 0x12CB JUMP JUMPDEST PUSH6 0xFFFFFFFFFFFF AND PUSH2 0x710 PUSH2 0x818 JUMP JUMPDEST PUSH6 0xFFFFFFFFFFFF AND EQ PUSH2 0x736 JUMPI PUSH1 0x40 MLOAD PUSH4 0x1BFC1C5 PUSH1 0xE6 SHL DUP2 MSTORE PUSH1 0x4 ADD PUSH1 0x40 MLOAD DUP1 SWAP2 SUB SWAP1 REVERT JUMPDEST POP PUSH1 0x40 DUP1 MLOAD DUP1 DUP3 ADD SWAP1 SWAP2 MSTORE PUSH1 0x1D DUP2 MSTORE PUSH32 0x6D6F64653D626C6F636B6E756D6265722666726F6D3D64656661756C74000000 PUSH1 0x20 DUP3 ADD MSTORE SWAP1 JUMP JUMPDEST CALLER PUSH2 0x779 DUP2 DUP4 PUSH2 0x12D5 JUMP JUMPDEST POP POP JUMP JUMPDEST PUSH0 PUSH2 0x673 DUP3 PUSH2 0x1346 JUMP JUMPDEST PUSH2 0x78F PUSH2 0x1249 JUMP JUMPDEST PUSH2 0x6F4 PUSH0 PUSH2 0x1367 JUMP JUMPDEST PUSH0 PUSH2 0x673 DUP3 PUSH2 0x13B8 JUMP JUMPDEST PUSH2 0x7AA PUSH2 0x1249 JUMP JUMPDEST PUSH2 0x6F4 PUSH2 0x13D5 JUMP JUMPDEST PUSH0 PUSH1 0x60 DUP1 PUSH0 DUP1 PUSH0 PUSH1 0x60 PUSH2 0x7C3 PUSH2 0x1418 JUMP JUMPDEST PUSH2 0x7CB PUSH2 0x1445 JUMP JUMPDEST PUSH1 0x40 DUP1 MLOAD PUSH0 DUP1 DUP3 MSTORE PUSH1 0x20 DUP3 ADD SWAP1 SWAP3 MSTORE PUSH1 0xF PUSH1 0xF8 SHL SWAP12 SWAP4 SWAP11 POP SWAP2 SWAP9 POP CHAINID SWAP8 POP ADDRESS SWAP7 POP SWAP5 POP SWAP3 POP SWAP1 POP JUMP JUMPDEST PUSH0 PUSH2 0x809 PUSH2 0x801 DUP4 PUSH2 0x114B JUMP JUMPDEST PUSH1 0xA SWAP1 PUSH2 0x1199 JUMP JUMPDEST PUSH1 0x1 PUSH1 0x1 PUSH1 0xD0 SHL SUB AND SWAP3 SWAP2 POP POP JUMP JUMPDEST PUSH0 PUSH2 0x6A5 PUSH2 0x12CB JUMP JUMPDEST PUSH1 0x60 PUSH1 0x4 DUP1 SLOAD PUSH2 0x5DF SWAP1 PUSH2 0x2650 JUMP JUMPDEST PUSH1 0x1 PUSH1 0x1 PUSH1 0xA0 SHL SUB DUP2 AND PUSH0 SWAP1 DUP2 MSTORE PUSH1 0x9 PUSH1 0x20 MSTORE PUSH1 0x40 DUP2 KECCAK256 PUSH2 0x809 SWAP1 PUSH2 0x1472 JUMP JUMPDEST PUSH2 0x858 PUSH2 0x1249 JUMP JUMPDEST PUSH2 0x2710 PUSH2 0xFFFF DUP4 AND GT ISZERO PUSH2 0x8A7 JUMPI PUSH1 0x40 MLOAD PUSH3 0x461BCD PUSH1 0xE5 SHL DUP2 MSTORE PUSH1 0x20 PUSH1 0x4 DUP3 ADD MSTORE PUSH1 0x11 PUSH1 0x24 DUP3 ADD MSTORE PUSH17 0x9AD2DCE840CCCACA40E8DEDE40D0D2CED PUSH1 0x7B SHL PUSH1 0x44 DUP3 ADD MSTORE PUSH1 0x64 ADD JUMPDEST PUSH1 0x40 MLOAD DUP1 SWAP2 SUB SWAP1 REVERT JUMPDEST PUSH2 0x2710 PUSH2 0xFFFF DUP3 AND GT ISZERO PUSH2 0x8F3 JUMPI PUSH1 0x40 MLOAD PUSH3 0x461BCD PUSH1 0xE5 SHL DUP2 MSTORE PUSH1 0x20 PUSH1 0x4 DUP3 ADD MSTORE PUSH1 0x13 PUSH1 0x24 DUP3 ADD MSTORE PUSH19 0xA4CAC8CACADA40CCCACA40E8DEDE40D0D2CED PUSH1 0x6B SHL PUSH1 0x44 DUP3 ADD MSTORE PUSH1 0x64 ADD PUSH2 0x89E JUMP JUMPDEST PUSH1 0xD DUP1 SLOAD PUSH4 0xFFFFFFFF PUSH1 0xA0 SHL NOT AND PUSH1 0x1 PUSH1 0xA0 SHL PUSH2 0xFFFF DUP6 DUP2 AND SWAP2 DUP3 MUL PUSH2 0xFFFF PUSH1 0xB0 SHL NOT AND SWAP3 SWAP1 SWAP3 OR PUSH1 0x1 PUSH1 0xB0 SHL SWAP3 DUP6 AND SWAP3 DUP4 MUL OR SWAP1 SWAP3 SSTORE PUSH1 0x40 DUP1 MLOAD SWAP3 DUP4 MSTORE PUSH1 0x20 DUP4 ADD SWAP2 SWAP1 SWAP2 MSTORE PUSH32 0x2AC80C14C28700F7B5E36F947D572149FE2E3947BAC32C3A8C098F3E03722C11 SWAP2 ADD PUSH1 0x40 MLOAD DUP1 SWAP2 SUB SWAP1 LOG1 POP POP JUMP JUMPDEST PUSH2 0x970 PUSH2 0x14A9 JUMP JUMPDEST PUSH2 0x978 PUSH2 0x14F6 JUMP JUMPDEST PUSH0 DUP2 GT PUSH2 0x9B4 JUMPI PUSH1 0x40 MLOAD PUSH3 0x461BCD PUSH1 0xE5 SHL DUP2 MSTORE PUSH1 0x20 PUSH1 0x4 DUP3 ADD MSTORE PUSH1 0xA PUSH1 0x24 DUP3 ADD MSTORE PUSH10 0x416D6F756E74203E203 PUSH1 0xB4 SHL PUSH1 0x44 DUP3 ADD MSTORE PUSH1 0x64 ADD PUSH2 0x89E JUMP JUMPDEST PUSH12 0x33B2E3C9FD0803CE8000000 DUP2 PUSH2 0x9CB PUSH1 0x2 SLOAD SWAP1 JUMP JUMPDEST PUSH2 0x9D5 SWAP2 SWAP1 PUSH2 0x269C JUMP JUMPDEST GT ISZERO PUSH2 0xA18 JUMPI PUSH1 0x40 MLOAD PUSH3 0x461BCD PUSH1 0xE5 SHL DUP2 MSTORE PUSH1 0x20 PUSH1 0x4 DUP3 ADD MSTORE PUSH1 0x12 PUSH1 0x24 DUP3 ADD MSTORE PUSH18 0x45786365656473206D617820737570706C79 PUSH1 0x70 SHL PUSH1 0x44 DUP3 ADD MSTORE PUSH1 0x64 ADD PUSH2 0x89E JUMP JUMPDEST PUSH2 0xA4D PUSH1 0x1 PUSH1 0x1 PUSH1 0xA0 SHL SUB PUSH32 0x0 AND CALLER ADDRESS DUP5 PUSH2 0x154F JUMP JUMPDEST PUSH1 0xD SLOAD PUSH0 SWAP1 PUSH2 0x2710 SWAP1 PUSH2 0xA6B SWAP1 PUSH1 0x1 PUSH1 0xA0 SHL SWAP1 DIV PUSH2 0xFFFF AND DUP5 PUSH2 0x26AF JUMP JUMPDEST PUSH2 0xA75 SWAP2 SWAP1 PUSH2 0x26DA JUMP JUMPDEST SWAP1 POP PUSH0 PUSH2 0xA82 DUP3 DUP5 PUSH2 0x26F9 JUMP JUMPDEST SWAP1 POP PUSH2 0xA8E CALLER DUP3 PUSH2 0x15B6 JUMP JUMPDEST DUP2 ISZERO PUSH2 0xAAA JUMPI PUSH1 0xD SLOAD PUSH2 0xAAA SWAP1 PUSH1 0x1 PUSH1 0x1 PUSH1 0xA0 SHL SUB AND DUP4 PUSH2 0x15B6 JUMP JUMPDEST PUSH1 0x40 DUP1 MLOAD DUP3 DUP2 MSTORE PUSH1 0x20 DUP2 ADD DUP5 SWAP1 MSTORE CALLER SWAP2 PUSH32 0x25B428DFDE728CCFADDAD7E29E4AC23C24ED7FD1A6E3E3F91894A9A073F5DFFF SWAP2 ADD JUMPDEST PUSH1 0x40 MLOAD DUP1 SWAP2 SUB SWAP1 LOG2 POP POP PUSH2 0xAF2 PUSH1 0x1 PUSH1 0xC SSTORE JUMP JUMPDEST POP JUMP JUMPDEST PUSH0 CALLER PUSH2 0x66D DUP2 DUP6 DUP6 PUSH2 0xFC5 JUMP JUMPDEST DUP4 TIMESTAMP GT ISZERO PUSH2 0xB26 JUMPI PUSH1 0x40 MLOAD PUSH4 0x2341D787 PUSH1 0xE1 SHL DUP2 MSTORE PUSH1 0x4 DUP2 ADD DUP6 SWAP1 MSTORE PUSH1 0x24 ADD PUSH2 0x89E JUMP JUMPDEST PUSH1 0x40 DUP1 MLOAD PUSH32 0xE48329057BFD03D55E49B547132E39CFFD9C1820AD7B9D4C5307691425D15ADF PUSH1 0x20 DUP3 ADD MSTORE PUSH1 0x1 PUSH1 0x1 PUSH1 0xA0 SHL SUB DUP9 AND SWAP2 DUP2 ADD SWAP2 SWAP1 SWAP2 MSTORE PUSH1 0x60 DUP2 ADD DUP7 SWAP1 MSTORE PUSH1 0x80 DUP2 ADD DUP6 SWAP1 MSTORE PUSH0 SWAP1 PUSH2 0xB9F SWAP1 PUSH2 0xB97 SWAP1 PUSH1 0xA0 ADD PUSH1 0x40 MLOAD PUSH1 0x20 DUP2 DUP4 SUB SUB DUP2 MSTORE SWAP1 PUSH1 0x40 MSTORE DUP1 MLOAD SWAP1 PUSH1 0x20 ADD KECCAK256 PUSH2 0x15EA JUMP JUMPDEST DUP6 DUP6 DUP6 PUSH2 0x1616 JUMP JUMPDEST SWAP1 POP PUSH2 0xBAB DUP2 DUP8 PUSH2 0x1642 JUMP JUMPDEST PUSH2 0xBB5 DUP2 DUP9 PUSH2 0x12D5 JUMP JUMPDEST POP POP POP POP POP POP POP JUMP JUMPDEST DUP4 TIMESTAMP GT ISZERO PUSH2 0xBE2 JUMPI PUSH1 0x40 MLOAD PUSH4 0x313C8981 PUSH1 0xE1 SHL DUP2 MSTORE PUSH1 0x4 DUP2 ADD DUP6 SWAP1 MSTORE PUSH1 0x24 ADD PUSH2 0x89E JUMP JUMPDEST PUSH0 PUSH32 0x6E71EDAE12B1B97F4D1F60370FEF10105FA2FAAE0126114A169C64845D6126C9 DUP9 DUP9 DUP9 PUSH2 0xC2D DUP13 PUSH1 0x1 PUSH1 0x1 PUSH1 0xA0 SHL SUB AND PUSH0 SWAP1 DUP2 MSTORE PUSH1 0x7 PUSH1 0x20 MSTORE PUSH1 0x40 SWAP1 KECCAK256 DUP1 SLOAD PUSH1 0x1 DUP2 ADD SWAP1 SWAP2 SSTORE SWAP1 JUMP JUMPDEST PUSH1 0x40 DUP1 MLOAD PUSH1 0x20 DUP2 ADD SWAP7 SWAP1 SWAP7 MSTORE PUSH1 0x1 PUSH1 0x1 PUSH1 0xA0 SHL SUB SWAP5 DUP6 AND SWAP1 DUP7 ADD MSTORE SWAP3 SWAP1 SWAP2 AND PUSH1 0x60 DUP5 ADD MSTORE PUSH1 0x80 DUP4 ADD MSTORE PUSH1 0xA0 DUP3 ADD MSTORE PUSH1 0xC0 DUP2 ADD DUP7 SWAP1 MSTORE PUSH1 0xE0 ADD PUSH1 0x40 MLOAD PUSH1 0x20 DUP2 DUP4 SUB SUB DUP2 MSTORE SWAP1 PUSH1 0x40 MSTORE DUP1 MLOAD SWAP1 PUSH1 0x20 ADD KECCAK256 SWAP1 POP PUSH0 PUSH2 0xC87 DUP3 PUSH2 0x15EA JUMP JUMPDEST SWAP1 POP PUSH0 PUSH2 0xC96 DUP3 DUP8 DUP8 DUP8 PUSH2 0x1616 JUMP JUMPDEST SWAP1 POP DUP10 PUSH1 0x1 PUSH1 0x1 PUSH1 0xA0 SHL SUB AND DUP2 PUSH1 0x1 PUSH1 0x1 PUSH1 0xA0 SHL SUB AND EQ PUSH2 0xCDD JUMPI PUSH1 0x40 MLOAD PUSH4 0x25C00723 PUSH1 0xE1 SHL DUP2 MSTORE PUSH1 0x1 PUSH1 0x1 PUSH1 0xA0 SHL SUB DUP1 DUP4 AND PUSH1 0x4 DUP4 ADD MSTORE DUP12 AND PUSH1 0x24 DUP3 ADD MSTORE PUSH1 0x44 ADD PUSH2 0x89E JUMP JUMPDEST PUSH2 0xCE8 DUP11 DUP11 DUP11 PUSH2 0xF38 JUMP JUMPDEST POP POP POP POP POP POP POP POP POP POP JUMP JUMPDEST PUSH2 0xCFC PUSH2 0x14A9 JUMP JUMPDEST PUSH2 0xD04 PUSH2 0x14F6 JUMP JUMPDEST PUSH0 DUP2 GT PUSH2 0xD40 JUMPI PUSH1 0x40 MLOAD PUSH3 0x461BCD PUSH1 0xE5 SHL DUP2 MSTORE PUSH1 0x20 PUSH1 0x4 DUP3 ADD MSTORE PUSH1 0xA PUSH1 0x24 DUP3 ADD MSTORE PUSH10 0x416D6F756E74203E203 PUSH1 0xB4 SHL PUSH1 0x44 DUP3 ADD MSTORE PUSH1 0x64 ADD PUSH2 0x89E JUMP JUMPDEST PUSH1 0xD SLOAD PUSH0 SWAP1 PUSH2 0x2710 SWAP1 PUSH2 0xD5E SWAP1 PUSH1 0x1 PUSH1 0xB0 SHL SWAP1 DIV PUSH2 0xFFFF AND DUP5 PUSH2 0x26AF JUMP JUMPDEST PUSH2 0xD68 SWAP2 SWAP1 PUSH2 0x26DA JUMP JUMPDEST SWAP1 POP PUSH0 PUSH2 0xD75 DUP3 DUP5 PUSH2 0x26F9 JUMP JUMPDEST SWAP1 POP PUSH2 0xD81 CALLER DUP5 PUSH2 0x1694 JUMP JUMPDEST PUSH2 0xDB5 PUSH1 0x1 PUSH1 0x1 PUSH1 0xA0 SHL SUB PUSH32 0x0 AND CALLER DUP4 PUSH2 0x16C8 JUMP JUMPDEST DUP2 ISZERO PUSH2 0xDF5 JUMPI PUSH1 0xD SLOAD PUSH2 0xDF5 SWAP1 PUSH1 0x1 PUSH1 0x1 PUSH1 0xA0 SHL SUB PUSH32 0x0 DUP2 AND SWAP2 AND DUP5 PUSH2 0x16C8 JUMP JUMPDEST PUSH1 0x40 DUP1 MLOAD DUP5 DUP2 MSTORE PUSH1 0x20 DUP2 ADD DUP4 SWAP1 MSTORE SWAP1 DUP2 ADD DUP4 SWAP1 MSTORE CALLER SWAP1 PUSH32 0x484C40561359F3E3B8BE9101897F8680AA82FBE1DF9FD9038E0DBC6284032646 SWAP1 PUSH1 0x60 ADD PUSH2 0xADE JUMP JUMPDEST PUSH2 0xE3D PUSH2 0x1249 JUMP JUMPDEST PUSH1 0x1 PUSH1 0x1 PUSH1 0xA0 SHL SUB DUP2 AND PUSH2 0xE86 JUMPI PUSH1 0x40 MLOAD PUSH3 0x461BCD PUSH1 0xE5 SHL DUP2 MSTORE PUSH1 0x20 PUSH1 0x4 DUP3 ADD MSTORE PUSH1 0x10 PUSH1 0x24 DUP3 ADD MSTORE PUSH16 0x496E76616C6964207472656173757279 PUSH1 0x80 SHL PUSH1 0x44 DUP3 ADD MSTORE PUSH1 0x64 ADD PUSH2 0x89E JUMP JUMPDEST PUSH1 0xD DUP1 SLOAD PUSH1 0x1 PUSH1 0x1 PUSH1 0xA0 SHL SUB NOT AND PUSH1 0x1 PUSH1 0x1 PUSH1 0xA0 SHL SUB DUP4 AND SWAP1 DUP2 OR SWAP1 SWAP2 SSTORE PUSH1 0x40 MLOAD SWAP1 DUP2 MSTORE PUSH32 0x7DAE230F18360D76A040C81F050AA14EB9D6DC7901B20FC5D855E2A20FE814D1 SWAP1 PUSH1 0x20 ADD PUSH1 0x40 MLOAD DUP1 SWAP2 SUB SWAP1 LOG1 POP JUMP JUMPDEST PUSH1 0x40 DUP1 MLOAD DUP1 DUP3 ADD SWAP1 SWAP2 MSTORE PUSH0 DUP1 DUP3 MSTORE PUSH1 0x20 DUP3 ADD MSTORE PUSH2 0xEF7 DUP4 DUP4 PUSH2 0x16F9 JUMP JUMPDEST SWAP4 SWAP3 POP POP POP JUMP JUMPDEST PUSH2 0xF06 PUSH2 0x1249 JUMP JUMPDEST PUSH1 0x1 PUSH1 0x1 PUSH1 0xA0 SHL SUB DUP2 AND PUSH2 0xF2F JUMPI PUSH1 0x40 MLOAD PUSH4 0x1E4FBDF7 PUSH1 0xE0 SHL DUP2 MSTORE PUSH0 PUSH1 0x4 DUP3 ADD MSTORE PUSH1 0x24 ADD PUSH2 0x89E JUMP JUMPDEST PUSH2 0xAF2 DUP2 PUSH2 0x1367 JUMP JUMPDEST PUSH2 0xF45 DUP4 DUP4 DUP4 PUSH1 0x1 PUSH2 0x172D JUMP JUMPDEST POP POP POP JUMP JUMPDEST PUSH1 0x1 PUSH1 0x1 PUSH1 0xA0 SHL SUB DUP4 DUP2 AND PUSH0 SWAP1 DUP2 MSTORE PUSH1 0x1 PUSH1 0x20 SWAP1 DUP2 MSTORE PUSH1 0x40 DUP1 DUP4 KECCAK256 SWAP4 DUP7 AND DUP4 MSTORE SWAP3 SWAP1 MSTORE KECCAK256 SLOAD PUSH0 NOT DUP2 EQ PUSH2 0xFBF JUMPI DUP2 DUP2 LT ISZERO PUSH2 0xFB1 JUMPI PUSH1 0x40 MLOAD PUSH4 0x7DC7A0D9 PUSH1 0xE1 SHL DUP2 MSTORE PUSH1 0x1 PUSH1 0x1 PUSH1 0xA0 SHL SUB DUP5 AND PUSH1 0x4 DUP3 ADD MSTORE PUSH1 0x24 DUP2 ADD DUP3 SWAP1 MSTORE PUSH1 0x44 DUP2 ADD DUP4 SWAP1 MSTORE PUSH1 0x64 ADD PUSH2 0x89E JUMP JUMPDEST PUSH2 0xFBF DUP5 DUP5 DUP5 DUP5 SUB PUSH0 PUSH2 0x172D JUMP JUMPDEST POP POP POP POP JUMP JUMPDEST PUSH1 0x1 PUSH1 0x1 PUSH1 0xA0 SHL SUB DUP4 AND PUSH2 0xFEE JUMPI PUSH1 0x40 MLOAD PUSH4 0x4B637E8F PUSH1 0xE1 SHL DUP2 MSTORE PUSH0 PUSH1 0x4 DUP3 ADD MSTORE PUSH1 0x24 ADD PUSH2 0x89E JUMP JUMPDEST PUSH1 0x1 PUSH1 0x1 PUSH1 0xA0 SHL SUB DUP3 AND PUSH2 0x1017 JUMPI PUSH1 0x40 MLOAD PUSH4 0xEC442F05 PUSH1 0xE0 SHL DUP2 MSTORE PUSH0 PUSH1 0x4 DUP3 ADD MSTORE PUSH1 0x24 ADD PUSH2 0x89E JUMP JUMPDEST PUSH2 0xF45 DUP4 DUP4 DUP4 PUSH2 0x17FF JUMP JUMPDEST PUSH0 ADDRESS PUSH1 0x1 PUSH1 0x1 PUSH1 0xA0 SHL SUB PUSH32 0x0 AND EQ DUP1 ISZERO PUSH2 0x107A JUMPI POP PUSH32 0x0 CHAINID EQ JUMPDEST ISZERO PUSH2 0x10A4 JUMPI POP PUSH32 0x0 SWAP1 JUMP JUMPDEST PUSH2 0x6A5 PUSH1 0x40 DUP1 MLOAD PUSH32 0x8B73C3C69BB8FE3D512ECC4CF759CC79239F7B179B0FFACAA9A75D522B39400F PUSH1 0x20 DUP3 ADD MSTORE PUSH32 0x0 SWAP2 DUP2 ADD SWAP2 SWAP1 SWAP2 MSTORE PUSH32 0x0 PUSH1 0x60 DUP3 ADD MSTORE CHAINID PUSH1 0x80 DUP3 ADD MSTORE ADDRESS PUSH1 0xA0 DUP3 ADD MSTORE PUSH0 SWAP1 PUSH1 0xC0 ADD PUSH1 0x40 MLOAD PUSH1 0x20 DUP2 DUP4 SUB SUB DUP2 MSTORE SWAP1 PUSH1 0x40 MSTORE DUP1 MLOAD SWAP1 PUSH1 0x20 ADD KECCAK256 SWAP1 POP SWAP1 JUMP JUMPDEST PUSH0 DUP1 PUSH2 0x1155 PUSH2 0x818 JUMP JUMPDEST SWAP1 POP DUP1 PUSH6 0xFFFFFFFFFFFF AND DUP4 LT PUSH2 0x1190 JUMPI PUSH1 0x40 MLOAD PUSH4 0x7669FC0F PUSH1 0xE1 SHL DUP2 MSTORE PUSH1 0x4 DUP2 ADD DUP5 SWAP1 MSTORE PUSH6 0xFFFFFFFFFFFF DUP3 AND PUSH1 0x24 DUP3 ADD MSTORE PUSH1 0x44 ADD PUSH2 0x89E JUMP JUMPDEST PUSH2 0xEF7 DUP4 PUSH2 0x180A JUMP JUMPDEST DUP2 SLOAD PUSH0 SWAP1 DUP2 DUP2 PUSH1 0x5 DUP2 GT ISZERO PUSH2 0x11F5 JUMPI PUSH0 PUSH2 0x11B2 DUP5 PUSH2 0x1840 JUMP JUMPDEST PUSH2 0x11BC SWAP1 DUP6 PUSH2 0x26F9 JUMP JUMPDEST PUSH0 DUP9 DUP2 MSTORE PUSH1 0x20 SWAP1 KECCAK256 SWAP1 SWAP2 POP DUP2 ADD SLOAD PUSH6 0xFFFFFFFFFFFF SWAP1 DUP2 AND SWAP1 DUP8 AND LT ISZERO PUSH2 0x11E5 JUMPI DUP1 SWAP2 POP PUSH2 0x11F3 JUMP JUMPDEST PUSH2 0x11F0 DUP2 PUSH1 0x1 PUSH2 0x269C JUMP JUMPDEST SWAP3 POP JUMPDEST POP JUMPDEST PUSH0 PUSH2 0x1202 DUP8 DUP8 DUP6 DUP6 PUSH2 0x1998 JUMP JUMPDEST SWAP1 POP DUP1 ISZERO PUSH2 0x123C JUMPI PUSH2 0x1226 DUP8 PUSH2 0x1219 PUSH1 0x1 DUP5 PUSH2 0x26F9 JUMP JUMPDEST PUSH0 SWAP2 DUP3 MSTORE PUSH1 0x20 SWAP1 SWAP2 KECCAK256 ADD SWAP1 JUMP JUMPDEST SLOAD PUSH1 0x1 PUSH1 0x30 SHL SWAP1 DIV PUSH1 0x1 PUSH1 0x1 PUSH1 0xD0 SHL SUB AND PUSH2 0x123E JUMP JUMPDEST PUSH0 JUMPDEST SWAP8 SWAP7 POP POP POP POP POP POP POP JUMP JUMPDEST PUSH1 0xB SLOAD PUSH1 0x1 PUSH1 0x1 PUSH1 0xA0 SHL SUB AND CALLER EQ PUSH2 0x6F4 JUMPI PUSH1 0x40 MLOAD PUSH4 0x118CDAA7 PUSH1 0xE0 SHL DUP2 MSTORE CALLER PUSH1 0x4 DUP3 ADD MSTORE PUSH1 0x24 ADD PUSH2 0x89E JUMP JUMPDEST PUSH2 0x127E PUSH2 0x19F7 JUMP JUMPDEST PUSH1 0xB DUP1 SLOAD PUSH1 0xFF PUSH1 0xA0 SHL NOT AND SWAP1 SSTORE PUSH32 0x5DB9EE0A495BF2E6FF9C91A7834C1BA4FDD244A5E8AA4E537BD38AEAE4B073AA CALLER JUMPDEST PUSH1 0x40 MLOAD PUSH1 0x1 PUSH1 0x1 PUSH1 0xA0 SHL SUB SWAP1 SWAP2 AND DUP2 MSTORE PUSH1 0x20 ADD PUSH1 0x40 MLOAD DUP1 SWAP2 SUB SWAP1 LOG1 JUMP JUMPDEST PUSH0 PUSH2 0x6A5 NUMBER PUSH2 0x180A JUMP JUMPDEST PUSH1 0x1 PUSH1 0x1 PUSH1 0xA0 SHL SUB DUP3 DUP2 AND PUSH0 DUP2 DUP2 MSTORE PUSH1 0x8 PUSH1 0x20 MSTORE PUSH1 0x40 DUP1 DUP3 KECCAK256 DUP1 SLOAD DUP7 DUP7 AND PUSH1 0x1 PUSH1 0x1 PUSH1 0xA0 SHL SUB NOT DUP3 AND DUP2 OR SWAP1 SWAP3 SSTORE SWAP2 MLOAD SWAP2 SWAP1 SWAP5 AND SWAP4 SWAP3 DUP5 SWAP3 SWAP1 SWAP2 PUSH32 0x3134E8A2E6D97E929A7E54011EA5485D7D196DD5F0BA4D4EF95803E8E3FC257F SWAP2 SWAP1 LOG4 PUSH2 0xF45 DUP2 DUP4 PUSH2 0x1341 DUP7 PUSH2 0x1A47 JUMP JUMPDEST PUSH2 0x1A64 JUMP JUMPDEST PUSH1 0x1 PUSH1 0x1 PUSH1 0xA0 SHL SUB DUP2 AND PUSH0 SWAP1 DUP2 MSTORE PUSH1 0x9 PUSH1 0x20 MSTORE PUSH1 0x40 DUP2 KECCAK256 SLOAD PUSH2 0x673 SWAP1 PUSH2 0x1BCD JUMP JUMPDEST PUSH1 0xB DUP1 SLOAD PUSH1 0x1 PUSH1 0x1 PUSH1 0xA0 SHL SUB DUP4 DUP2 AND PUSH1 0x1 PUSH1 0x1 PUSH1 0xA0 SHL SUB NOT DUP4 AND DUP2 OR SWAP1 SWAP4 SSTORE PUSH1 0x40 MLOAD SWAP2 AND SWAP2 SWAP1 DUP3 SWAP1 PUSH32 0x8BE0079C531659141344CD1FD0A4F28419497F9722A3DAAFE3B4186F6B6457E0 SWAP1 PUSH0 SWAP1 LOG3 POP POP JUMP JUMPDEST PUSH1 0x1 PUSH1 0x1 PUSH1 0xA0 SHL SUB DUP2 AND PUSH0 SWAP1 DUP2 MSTORE PUSH1 0x7 PUSH1 0x20 MSTORE PUSH1 0x40 DUP2 KECCAK256 SLOAD PUSH2 0x673 JUMP JUMPDEST PUSH2 0x13DD PUSH2 0x14A9 JUMP JUMPDEST PUSH1 0xB DUP1 SLOAD PUSH1 0xFF PUSH1 0xA0 SHL NOT AND PUSH1 0x1 PUSH1 0xA0 SHL OR SWAP1 SSTORE PUSH32 0x62E78CEA01BEE320CD4E420270B5EA74000D11B0C9F74754EBDBFC544B05A258 PUSH2 0x12AE CALLER SWAP1 JUMP JUMPDEST PUSH1 0x60 PUSH2 0x6A5 PUSH32 0x0 PUSH1 0x5 PUSH2 0x1BFD JUMP JUMPDEST PUSH1 0x60 PUSH2 0x6A5 PUSH32 0x0 PUSH1 0x6 PUSH2 0x1BFD JUMP JUMPDEST DUP1 SLOAD PUSH0 SWAP1 DUP1 ISZERO PUSH2 0x14A1 JUMPI PUSH2 0x148B DUP4 PUSH2 0x1219 PUSH1 0x1 DUP5 PUSH2 0x26F9 JUMP JUMPDEST SLOAD PUSH1 0x1 PUSH1 0x30 SHL SWAP1 DIV PUSH1 0x1 PUSH1 0x1 PUSH1 0xD0 SHL SUB AND PUSH2 0xEF7 JUMP JUMPDEST PUSH0 SWAP4 SWAP3 POP POP POP JUMP JUMPDEST PUSH1 0xB SLOAD PUSH1 0x1 PUSH1 0xA0 SHL SWAP1 DIV PUSH1 0xFF AND ISZERO PUSH2 0x6F4 JUMPI PUSH1 0x40 MLOAD PUSH3 0x461BCD PUSH1 0xE5 SHL DUP2 MSTORE PUSH1 0x20 PUSH1 0x4 DUP3 ADD MSTORE PUSH1 0x10 PUSH1 0x24 DUP3 ADD MSTORE PUSH16 0x14185D5CD8589B194E881C185D5CD959 PUSH1 0x82 SHL PUSH1 0x44 DUP3 ADD MSTORE PUSH1 0x64 ADD PUSH2 0x89E JUMP JUMPDEST PUSH1 0x2 PUSH1 0xC SLOAD SUB PUSH2 0x1548 JUMPI PUSH1 0x40 MLOAD PUSH3 0x461BCD PUSH1 0xE5 SHL DUP2 MSTORE PUSH1 0x20 PUSH1 0x4 DUP3 ADD MSTORE PUSH1 0x1F PUSH1 0x24 DUP3 ADD MSTORE PUSH32 0x5265656E7472616E637947756172643A207265656E7472616E742063616C6C00 PUSH1 0x44 DUP3 ADD MSTORE PUSH1 0x64 ADD PUSH2 0x89E JUMP JUMPDEST PUSH1 0x2 PUSH1 0xC SSTORE JUMP JUMPDEST PUSH1 0x40 MLOAD PUSH1 0x1 PUSH1 0x1 PUSH1 0xA0 SHL SUB DUP5 DUP2 AND PUSH1 0x24 DUP4 ADD MSTORE DUP4 DUP2 AND PUSH1 0x44 DUP4 ADD MSTORE PUSH1 0x64 DUP3 ADD DUP4 SWAP1 MSTORE PUSH2 0xFBF SWAP2 DUP7 SWAP2 DUP3 AND SWAP1 PUSH4 0x23B872DD SWAP1 PUSH1 0x84 ADD JUMPDEST PUSH1 0x40 MLOAD PUSH1 0x20 DUP2 DUP4 SUB SUB DUP2 MSTORE SWAP1 PUSH1 0x40 MSTORE SWAP2 POP PUSH1 0xE0 SHL PUSH1 0x20 DUP3 ADD DUP1 MLOAD PUSH1 0x1 PUSH1 0x1 PUSH1 0xE0 SHL SUB DUP4 DUP2 DUP4 AND OR DUP4 MSTORE POP POP POP POP PUSH2 0x1CA6 JUMP JUMPDEST PUSH1 0x1 PUSH1 0x1 PUSH1 0xA0 SHL SUB DUP3 AND PUSH2 0x15DF JUMPI PUSH1 0x40 MLOAD PUSH4 0xEC442F05 PUSH1 0xE0 SHL DUP2 MSTORE PUSH0 PUSH1 0x4 DUP3 ADD MSTORE PUSH1 0x24 ADD PUSH2 0x89E JUMP JUMPDEST PUSH2 0x779 PUSH0 DUP4 DUP4 PUSH2 0x17FF JUMP JUMPDEST PUSH0 PUSH2 0x673 PUSH2 0x15F6 PUSH2 0x1022 JUMP JUMPDEST DUP4 PUSH1 0x40 MLOAD PUSH2 0x1901 PUSH1 0xF0 SHL DUP2 MSTORE PUSH1 0x2 DUP2 ADD SWAP3 SWAP1 SWAP3 MSTORE PUSH1 0x22 DUP3 ADD MSTORE PUSH1 0x42 SWAP1 KECCAK256 SWAP1 JUMP JUMPDEST PUSH0 DUP1 PUSH0 DUP1 PUSH2 0x1626 DUP9 DUP9 DUP9 DUP9 PUSH2 0x1D12 JUMP JUMPDEST SWAP3 POP SWAP3 POP SWAP3 POP PUSH2 0x1636 DUP3 DUP3 PUSH2 0x1DDA JUMP JUMPDEST POP SWAP1 SWAP7 SWAP6 POP POP POP POP POP POP JUMP JUMPDEST PUSH1 0x1 PUSH1 0x1 PUSH1 0xA0 SHL SUB DUP3 AND PUSH0 SWAP1 DUP2 MSTORE PUSH1 0x7 PUSH1 0x20 MSTORE PUSH1 0x40 SWAP1 KECCAK256 DUP1 SLOAD PUSH1 0x1 DUP2 ADD SWAP1 SWAP2 SSTORE DUP2 DUP2 EQ PUSH2 0xF45 JUMPI PUSH1 0x40 MLOAD PUSH4 0x1D4B623 PUSH1 0xE6 SHL DUP2 MSTORE PUSH1 0x1 PUSH1 0x1 PUSH1 0xA0 SHL SUB DUP5 AND PUSH1 0x4 DUP3 ADD MSTORE PUSH1 0x24 DUP2 ADD DUP3 SWAP1 MSTORE PUSH1 0x44 ADD PUSH2 0x89E JUMP JUMPDEST PUSH1 0x1 PUSH1 0x1 PUSH1 0xA0 SHL SUB DUP3 AND PUSH2 0x16BD JUMPI PUSH1 0x40 MLOAD PUSH4 0x4B637E8F PUSH1 0xE1 SHL DUP2 MSTORE PUSH0 PUSH1 0x4 DUP3 ADD MSTORE PUSH1 0x24 ADD PUSH2 0x89E JUMP JUMPDEST PUSH2 0x779 DUP3 PUSH0 DUP4 PUSH2 0x17FF JUMP JUMPDEST PUSH1 0x40 MLOAD PUSH1 0x1 PUSH1 0x1 PUSH1 0xA0 SHL SUB DUP4 DUP2 AND PUSH1 0x24 DUP4 ADD MSTORE PUSH1 0x44 DUP3 ADD DUP4 SWAP1 MSTORE PUSH2 0xF45 SWAP2 DUP6 SWAP2 DUP3 AND SWAP1 PUSH4 0xA9059CBB SWAP1 PUSH1 0x64 ADD PUSH2 0x1584 JUMP JUMPDEST PUSH1 0x40 DUP1 MLOAD DUP1 DUP3 ADD SWAP1 SWAP2 MSTORE PUSH0 DUP1 DUP3 MSTORE PUSH1 0x20 DUP3 ADD MSTORE PUSH1 0x1 PUSH1 0x1 PUSH1 0xA0 SHL SUB DUP4 AND PUSH0 SWAP1 DUP2 MSTORE PUSH1 0x9 PUSH1 0x20 MSTORE PUSH1 0x40 SWAP1 KECCAK256 PUSH2 0xEF7 SWAP1 DUP4 PUSH2 0x1E92 JUMP JUMPDEST PUSH1 0x1 PUSH1 0x1 PUSH1 0xA0 SHL SUB DUP5 AND PUSH2 0x1756 JUMPI PUSH1 0x40 MLOAD PUSH4 0xE602DF05 PUSH1 0xE0 SHL DUP2 MSTORE PUSH0 PUSH1 0x4 DUP3 ADD MSTORE PUSH1 0x24 ADD PUSH2 0x89E JUMP JUMPDEST PUSH1 0x1 PUSH1 0x1 PUSH1 0xA0 SHL SUB DUP4 AND PUSH2 0x177F JUMPI PUSH1 0x40 MLOAD PUSH4 0x4A1406B1 PUSH1 0xE1 SHL DUP2 MSTORE PUSH0 PUSH1 0x4 DUP3 ADD MSTORE PUSH1 0x24 ADD PUSH2 0x89E JUMP JUMPDEST PUSH1 0x1 PUSH1 0x1 PUSH1 0xA0 SHL SUB DUP1 DUP6 AND PUSH0 SWAP1 DUP2 MSTORE PUSH1 0x1 PUSH1 0x20 SWAP1 DUP2 MSTORE PUSH1 0x40 DUP1 DUP4 KECCAK256 SWAP4 DUP8 AND DUP4 MSTORE SWAP3 SWAP1 MSTORE KECCAK256 DUP3 SWAP1 SSTORE DUP1 ISZERO PUSH2 0xFBF JUMPI DUP3 PUSH1 0x1 PUSH1 0x1 PUSH1 0xA0 SHL SUB AND DUP5 PUSH1 0x1 PUSH1 0x1 PUSH1 0xA0 SHL SUB AND PUSH32 0x8C5BE1E5EBEC7D5BD14F71427D1E84F3DD0314C0F7B2291E5B200AC8C7C3B925 DUP5 PUSH1 0x40 MLOAD PUSH2 0x17F1 SWAP2 DUP2 MSTORE PUSH1 0x20 ADD SWAP1 JUMP JUMPDEST PUSH1 0x40 MLOAD DUP1 SWAP2 SUB SWAP1 LOG3 POP POP POP POP JUMP JUMPDEST PUSH2 0xF45 DUP4 DUP4 DUP4 PUSH2 0x1EFF JUMP JUMPDEST PUSH0 PUSH6 0xFFFFFFFFFFFF DUP3 GT ISZERO PUSH2 0x183C JUMPI PUSH1 0x40 MLOAD PUSH4 0x6DFCC65 PUSH1 0xE4 SHL DUP2 MSTORE PUSH1 0x30 PUSH1 0x4 DUP3 ADD MSTORE PUSH1 0x24 DUP2 ADD DUP4 SWAP1 MSTORE PUSH1 0x44 ADD PUSH2 0x89E JUMP JUMPDEST POP SWAP1 JUMP JUMPDEST PUSH0 PUSH1 0x1 DUP3 GT PUSH2 0x184D JUMPI POP SWAP1 JUMP JUMPDEST DUP2 PUSH1 0x1 PUSH1 0x1 PUSH1 0x80 SHL DUP3 LT PUSH2 0x1866 JUMPI PUSH1 0x80 SWAP2 SWAP1 SWAP2 SHR SWAP1 PUSH1 0x40 SHL JUMPDEST PUSH9 0x10000000000000000 DUP3 LT PUSH2 0x1881 JUMPI PUSH1 0x40 SWAP2 SWAP1 SWAP2 SHR SWAP1 PUSH1 0x20 SHL JUMPDEST PUSH5 0x100000000 DUP3 LT PUSH2 0x1898 JUMPI PUSH1 0x20 SWAP2 SWAP1 SWAP2 SHR SWAP1 PUSH1 0x10 SHL JUMPDEST PUSH3 0x10000 DUP3 LT PUSH2 0x18AD JUMPI PUSH1 0x10 SWAP2 SWAP1 SWAP2 SHR SWAP1 PUSH1 0x8 SHL JUMPDEST PUSH2 0x100 DUP3 LT PUSH2 0x18C1 JUMPI PUSH1 0x8 SWAP2 SWAP1 SWAP2 SHR SWAP1 PUSH1 0x4 SHL JUMPDEST PUSH1 0x10 DUP3 LT PUSH2 0x18D4 JUMPI PUSH1 0x4 SWAP2 SWAP1 SWAP2 SHR SWAP1 PUSH1 0x2 SHL JUMPDEST PUSH1 0x4 DUP3 LT PUSH2 0x18E0 JUMPI PUSH1 0x1 SHL JUMPDEST PUSH1 0x3 MUL PUSH1 0x1 SWAP1 DUP2 SHR SWAP1 DUP2 DUP6 DUP2 PUSH2 0x18F8 JUMPI PUSH2 0x18F8 PUSH2 0x26C6 JUMP JUMPDEST DIV DUP3 ADD SWAP1 SHR SWAP1 POP PUSH1 0x1 DUP2 DUP6 DUP2 PUSH2 0x1910 JUMPI PUSH2 0x1910 PUSH2 0x26C6 JUMP JUMPDEST DIV DUP3 ADD SWAP1 SHR SWAP1 POP PUSH1 0x1 DUP2 DUP6 DUP2 PUSH2 0x1928 JUMPI PUSH2 0x1928 PUSH2 0x26C6 JUMP JUMPDEST DIV DUP3 ADD SWAP1 SHR SWAP1 POP PUSH1 0x1 DUP2 DUP6 DUP2 PUSH2 0x1940 JUMPI PUSH2 0x1940 PUSH2 0x26C6 JUMP JUMPDEST DIV DUP3 ADD SWAP1 SHR SWAP1 POP PUSH1 0x1 DUP2 DUP6 DUP2 PUSH2 0x1958 JUMPI PUSH2 0x1958 PUSH2 0x26C6 JUMP JUMPDEST DIV DUP3 ADD SWAP1 SHR SWAP1 POP PUSH1 0x1 DUP2 DUP6 DUP2 PUSH2 0x1970 JUMPI PUSH2 0x1970 PUSH2 0x26C6 JUMP JUMPDEST DIV DUP3 ADD SWAP1 SHR SWAP1 POP PUSH2 0x198F DUP2 DUP6 DUP2 PUSH2 0x1989 JUMPI PUSH2 0x1989 PUSH2 0x26C6 JUMP JUMPDEST DIV DUP3 GT SWAP1 JUMP JUMPDEST SWAP1 SUB SWAP4 SWAP3 POP POP POP JUMP JUMPDEST PUSH0 JUMPDEST DUP2 DUP4 LT ISZERO PUSH2 0x19EF JUMPI PUSH0 PUSH2 0x19AD DUP5 DUP5 PUSH2 0x1F65 JUMP JUMPDEST PUSH0 DUP8 DUP2 MSTORE PUSH1 0x20 SWAP1 KECCAK256 SWAP1 SWAP2 POP PUSH6 0xFFFFFFFFFFFF DUP7 AND SWAP1 DUP3 ADD SLOAD PUSH6 0xFFFFFFFFFFFF AND GT ISZERO PUSH2 0x19DB JUMPI DUP1 SWAP3 POP PUSH2 0x19E9 JUMP JUMPDEST PUSH2 0x19E6 DUP2 PUSH1 0x1 PUSH2 0x269C JUMP JUMPDEST SWAP4 POP JUMPDEST POP PUSH2 0x199A JUMP JUMPDEST POP SWAP4 SWAP3 POP POP POP JUMP JUMPDEST PUSH1 0xB SLOAD PUSH1 0x1 PUSH1 0xA0 SHL SWAP1 DIV PUSH1 0xFF AND PUSH2 0x6F4 JUMPI PUSH1 0x40 MLOAD PUSH3 0x461BCD PUSH1 0xE5 SHL DUP2 MSTORE PUSH1 0x20 PUSH1 0x4 DUP3 ADD MSTORE PUSH1 0x14 PUSH1 0x24 DUP3 ADD MSTORE PUSH20 0x14185D5CD8589B194E881B9BDD081C185D5CD959 PUSH1 0x62 SHL PUSH1 0x44 DUP3 ADD MSTORE PUSH1 0x64 ADD PUSH2 0x89E JUMP JUMPDEST PUSH1 0x1 PUSH1 0x1 PUSH1 0xA0 SHL SUB DUP2 AND PUSH0 SWAP1 DUP2 MSTORE PUSH1 0x20 DUP2 SWAP1 MSTORE PUSH1 0x40 DUP2 KECCAK256 SLOAD PUSH2 0x673 JUMP JUMPDEST DUP2 PUSH1 0x1 PUSH1 0x1 PUSH1 0xA0 SHL SUB AND DUP4 PUSH1 0x1 PUSH1 0x1 PUSH1 0xA0 SHL SUB AND EQ ISZERO DUP1 ISZERO PUSH2 0x1A85 JUMPI POP PUSH0 DUP2 GT JUMPDEST ISZERO PUSH2 0xF45 JUMPI PUSH1 0x1 PUSH1 0x1 PUSH1 0xA0 SHL SUB DUP4 AND ISZERO PUSH2 0x1B2C JUMPI PUSH1 0x1 PUSH1 0x1 PUSH1 0xA0 SHL SUB DUP4 AND PUSH0 SWAP1 DUP2 MSTORE PUSH1 0x9 PUSH1 0x20 MSTORE PUSH1 0x40 DUP2 KECCAK256 DUP2 SWAP1 PUSH2 0x1AC7 SWAP1 PUSH2 0x1F7F PUSH2 0x1AC2 DUP7 PUSH2 0x1F8A JUMP JUMPDEST PUSH2 0x1FBD JUMP JUMPDEST PUSH1 0x1 PUSH1 0x1 PUSH1 0xD0 SHL SUB AND SWAP2 POP PUSH1 0x1 PUSH1 0x1 PUSH1 0xD0 SHL SUB AND SWAP2 POP DUP5 PUSH1 0x1 PUSH1 0x1 PUSH1 0xA0 SHL SUB AND PUSH32 0xDEC2BACDD2F05B59DE34DA9B523DFF8BE42E5E38E818C82FDB0BAE774387A724 DUP4 DUP4 PUSH1 0x40 MLOAD PUSH2 0x1B21 SWAP3 SWAP2 SWAP1 SWAP2 DUP3 MSTORE PUSH1 0x20 DUP3 ADD MSTORE PUSH1 0x40 ADD SWAP1 JUMP JUMPDEST PUSH1 0x40 MLOAD DUP1 SWAP2 SUB SWAP1 LOG2 POP POP JUMPDEST PUSH1 0x1 PUSH1 0x1 PUSH1 0xA0 SHL SUB DUP3 AND ISZERO PUSH2 0xF45 JUMPI PUSH1 0x1 PUSH1 0x1 PUSH1 0xA0 SHL SUB DUP3 AND PUSH0 SWAP1 DUP2 MSTORE PUSH1 0x9 PUSH1 0x20 MSTORE PUSH1 0x40 DUP2 KECCAK256 DUP2 SWAP1 PUSH2 0x1B64 SWAP1 PUSH2 0x1FF5 PUSH2 0x1AC2 DUP7 PUSH2 0x1F8A JUMP JUMPDEST PUSH1 0x1 PUSH1 0x1 PUSH1 0xD0 SHL SUB AND SWAP2 POP PUSH1 0x1 PUSH1 0x1 PUSH1 0xD0 SHL SUB AND SWAP2 POP DUP4 PUSH1 0x1 PUSH1 0x1 PUSH1 0xA0 SHL SUB AND PUSH32 0xDEC2BACDD2F05B59DE34DA9B523DFF8BE42E5E38E818C82FDB0BAE774387A724 DUP4 DUP4 PUSH1 0x40 MLOAD PUSH2 0x1BBE SWAP3 SWAP2 SWAP1 SWAP2 DUP3 MSTORE PUSH1 0x20 DUP3 ADD MSTORE PUSH1 0x40 ADD SWAP1 JUMP JUMPDEST PUSH1 0x40 MLOAD DUP1 SWAP2 SUB SWAP1 LOG2 POP POP POP POP POP JUMP JUMPDEST PUSH0 PUSH4 0xFFFFFFFF DUP3 GT ISZERO PUSH2 0x183C JUMPI PUSH1 0x40 MLOAD PUSH4 0x6DFCC65 PUSH1 0xE4 SHL DUP2 MSTORE PUSH1 0x20 PUSH1 0x4 DUP3 ADD MSTORE PUSH1 0x24 DUP2 ADD DUP4 SWAP1 MSTORE PUSH1 0x44 ADD PUSH2 0x89E JUMP JUMPDEST PUSH1 0x60 PUSH1 0xFF DUP4 EQ PUSH2 0x1C17 JUMPI PUSH2 0x1C10 DUP4 PUSH2 0x2000 JUMP JUMPDEST SWAP1 POP PUSH2 0x673 JUMP JUMPDEST DUP2 DUP1 SLOAD PUSH2 0x1C23 SWAP1 PUSH2 0x2650 JUMP JUMPDEST DUP1 PUSH1 0x1F ADD PUSH1 0x20 DUP1 SWAP2 DIV MUL PUSH1 0x20 ADD PUSH1 0x40 MLOAD SWAP1 DUP2 ADD PUSH1 0x40 MSTORE DUP1 SWAP3 SWAP2 SWAP1 DUP2 DUP2 MSTORE PUSH1 0x20 ADD DUP3 DUP1 SLOAD PUSH2 0x1C4F SWAP1 PUSH2 0x2650 JUMP JUMPDEST DUP1 ISZERO PUSH2 0x1C9A JUMPI DUP1 PUSH1 0x1F LT PUSH2 0x1C71 JUMPI PUSH2 0x100 DUP1 DUP4 SLOAD DIV MUL DUP4 MSTORE SWAP2 PUSH1 0x20 ADD SWAP2 PUSH2 0x1C9A JUMP JUMPDEST DUP3 ADD SWAP2 SWAP1 PUSH0 MSTORE PUSH1 0x20 PUSH0 KECCAK256 SWAP1 JUMPDEST DUP2 SLOAD DUP2 MSTORE SWAP1 PUSH1 0x1 ADD SWAP1 PUSH1 0x20 ADD DUP1 DUP4 GT PUSH2 0x1C7D JUMPI DUP3 SWAP1 SUB PUSH1 0x1F AND DUP3 ADD SWAP2 JUMPDEST POP POP POP POP POP SWAP1 POP PUSH2 0x673 JUMP JUMPDEST PUSH0 DUP1 PUSH1 0x20 PUSH0 DUP5 MLOAD PUSH1 0x20 DUP7 ADD PUSH0 DUP9 GAS CALL DUP1 PUSH2 0x1CC5 JUMPI PUSH1 0x40 MLOAD RETURNDATASIZE PUSH0 DUP3 RETURNDATACOPY RETURNDATASIZE DUP2 REVERT JUMPDEST POP POP PUSH0 MLOAD RETURNDATASIZE SWAP2 POP DUP2 ISZERO PUSH2 0x1CDC JUMPI DUP1 PUSH1 0x1 EQ ISZERO PUSH2 0x1CE9 JUMP JUMPDEST PUSH1 0x1 PUSH1 0x1 PUSH1 0xA0 SHL SUB DUP5 AND EXTCODESIZE ISZERO JUMPDEST ISZERO PUSH2 0xFBF JUMPI PUSH1 0x40 MLOAD PUSH4 0x5274AFE7 PUSH1 0xE0 SHL DUP2 MSTORE PUSH1 0x1 PUSH1 0x1 PUSH1 0xA0 SHL SUB DUP6 AND PUSH1 0x4 DUP3 ADD MSTORE PUSH1 0x24 ADD PUSH2 0x89E JUMP JUMPDEST PUSH0 DUP1 DUP1 PUSH32 0x7FFFFFFFFFFFFFFFFFFFFFFFFFFFFFFF5D576E7357A4501DDFE92F46681B20A0 DUP5 GT ISZERO PUSH2 0x1D4B JUMPI POP PUSH0 SWAP2 POP PUSH1 0x3 SWAP1 POP DUP3 PUSH2 0x1DD0 JUMP JUMPDEST PUSH1 0x40 DUP1 MLOAD PUSH0 DUP1 DUP3 MSTORE PUSH1 0x20 DUP3 ADD DUP1 DUP5 MSTORE DUP11 SWAP1 MSTORE PUSH1 0xFF DUP10 AND SWAP3 DUP3 ADD SWAP3 SWAP1 SWAP3 MSTORE PUSH1 0x60 DUP2 ADD DUP8 SWAP1 MSTORE PUSH1 0x80 DUP2 ADD DUP7 SWAP1 MSTORE PUSH1 0x1 SWAP1 PUSH1 0xA0 ADD PUSH1 0x20 PUSH1 0x40 MLOAD PUSH1 0x20 DUP2 SUB SWAP1 DUP1 DUP5 SUB SWAP1 DUP6 GAS STATICCALL ISZERO DUP1 ISZERO PUSH2 0x1D9C JUMPI RETURNDATASIZE PUSH0 DUP1 RETURNDATACOPY RETURNDATASIZE PUSH0 REVERT JUMPDEST POP POP PUSH1 0x40 MLOAD PUSH1 0x1F NOT ADD MLOAD SWAP2 POP POP PUSH1 0x1 PUSH1 0x1 PUSH1 0xA0 SHL SUB DUP2 AND PUSH2 0x1DC7 JUMPI POP PUSH0 SWAP3 POP PUSH1 0x1 SWAP2 POP DUP3 SWAP1 POP PUSH2 0x1DD0 JUMP JUMPDEST SWAP3 POP PUSH0 SWAP2 POP DUP2 SWAP1 POP JUMPDEST SWAP5 POP SWAP5 POP SWAP5 SWAP2 POP POP JUMP JUMPDEST PUSH0 DUP3 PUSH1 0x3 DUP2 GT ISZERO PUSH2 0x1DED JUMPI PUSH2 0x1DED PUSH2 0x270C JUMP JUMPDEST SUB PUSH2 0x1DF6 JUMPI POP POP JUMP JUMPDEST PUSH1 0x1 DUP3 PUSH1 0x3 DUP2 GT ISZERO PUSH2 0x1E0A JUMPI PUSH2 0x1E0A PUSH2 0x270C JUMP JUMPDEST SUB PUSH2 0x1E28 JUMPI PUSH1 0x40 MLOAD PUSH4 0xF645EEDF PUSH1 0xE0 SHL DUP2 MSTORE PUSH1 0x4 ADD PUSH1 0x40 MLOAD DUP1 SWAP2 SUB SWAP1 REVERT JUMPDEST PUSH1 0x2 DUP3 PUSH1 0x3 DUP2 GT ISZERO PUSH2 0x1E3C JUMPI PUSH2 0x1E3C PUSH2 0x270C JUMP JUMPDEST SUB PUSH2 0x1E5D JUMPI PUSH1 0x40 MLOAD PUSH4 0xFCE698F7 PUSH1 0xE0 SHL DUP2 MSTORE PUSH1 0x4 DUP2 ADD DUP3 SWAP1 MSTORE PUSH1 0x24 ADD PUSH2 0x89E JUMP JUMPDEST PUSH1 0x3 DUP3 PUSH1 0x3 DUP2 GT ISZERO PUSH2 0x1E71 JUMPI PUSH2 0x1E71 PUSH2 0x270C JUMP JUMPDEST SUB PUSH2 0x779 JUMPI PUSH1 0x40 MLOAD PUSH4 0x35E2F383 PUSH1 0xE2 SHL DUP2 MSTORE PUSH1 0x4 DUP2 ADD DUP3 SWAP1 MSTORE PUSH1 0x24 ADD PUSH2 0x89E JUMP JUMPDEST PUSH1 0x40 DUP1 MLOAD DUP1 DUP3 ADD SWAP1 SWAP2 MSTORE PUSH0 DUP1 DUP3 MSTORE PUSH1 0x20 DUP3 ADD MSTORE DUP3 PUSH0 ADD DUP3 PUSH4 0xFFFFFFFF AND DUP2 SLOAD DUP2 LT PUSH2 0x1EBF JUMPI PUSH2 0x1EBF PUSH2 0x2720 JUMP JUMPDEST PUSH0 SWAP2 DUP3 MSTORE PUSH1 0x20 SWAP2 DUP3 SWAP1 KECCAK256 PUSH1 0x40 DUP1 MLOAD DUP1 DUP3 ADD SWAP1 SWAP2 MSTORE SWAP2 ADD SLOAD PUSH6 0xFFFFFFFFFFFF DUP2 AND DUP3 MSTORE PUSH1 0x1 PUSH1 0x30 SHL SWAP1 DIV PUSH1 0x1 PUSH1 0x1 PUSH1 0xD0 SHL SUB AND SWAP2 DUP2 ADD SWAP2 SWAP1 SWAP2 MSTORE SWAP4 SWAP3 POP POP POP JUMP JUMPDEST PUSH2 0x1F0A DUP4 DUP4 DUP4 PUSH2 0x203D JUMP JUMPDEST PUSH1 0x1 PUSH1 0x1 PUSH1 0xA0 SHL SUB DUP4 AND PUSH2 0x1F5A JUMPI PUSH0 PUSH2 0x1F22 PUSH1 0x2 SLOAD SWAP1 JUMP JUMPDEST SWAP1 POP PUSH1 0x1 PUSH1 0x1 PUSH1 0xD0 SHL SUB DUP1 DUP3 GT ISZERO PUSH2 0x1F57 JUMPI PUSH1 0x40 MLOAD PUSH4 0xE58AE93 PUSH1 0xE1 SHL DUP2 MSTORE PUSH1 0x4 DUP2 ADD DUP4 SWAP1 MSTORE PUSH1 0x24 DUP2 ADD DUP3 SWAP1 MSTORE PUSH1 0x44 ADD PUSH2 0x89E JUMP JUMPDEST POP POP JUMPDEST PUSH2 0xF45 DUP4 DUP4 DUP4 PUSH2 0x2163 JUMP JUMPDEST PUSH0 PUSH2 0x1F73 PUSH1 0x2 DUP5 DUP5 XOR PUSH2 0x26DA JUMP JUMPDEST PUSH2 0xEF7 SWAP1 DUP5 DUP5 AND PUSH2 0x269C JUMP JUMPDEST PUSH0 PUSH2 0xEF7 DUP3 DUP5 PUSH2 0x2734 JUMP JUMPDEST PUSH0 PUSH1 0x1 PUSH1 0x1 PUSH1 0xD0 SHL SUB DUP3 GT ISZERO PUSH2 0x183C JUMPI PUSH1 0x40 MLOAD PUSH4 0x6DFCC65 PUSH1 0xE4 SHL DUP2 MSTORE PUSH1 0xD0 PUSH1 0x4 DUP3 ADD MSTORE PUSH1 0x24 DUP2 ADD DUP4 SWAP1 MSTORE PUSH1 0x44 ADD PUSH2 0x89E JUMP JUMPDEST PUSH0 DUP1 PUSH2 0x1FE8 PUSH2 0x1FCA PUSH2 0x818 JUMP JUMPDEST PUSH2 0x1FE0 PUSH2 0x1FD6 DUP9 PUSH2 0x1472 JUMP JUMPDEST DUP7 DUP9 PUSH4 0xFFFFFFFF AND JUMP JUMPDEST DUP8 SWAP2 SWAP1 PUSH2 0x21D8 JUMP JUMPDEST SWAP2 POP SWAP2 POP JUMPDEST SWAP4 POP SWAP4 SWAP2 POP POP JUMP JUMPDEST PUSH0 PUSH2 0xEF7 DUP3 DUP5 PUSH2 0x2753 JUMP JUMPDEST PUSH1 0x60 PUSH0 PUSH2 0x200C DUP4 PUSH2 0x21E5 JUMP JUMPDEST PUSH1 0x40 DUP1 MLOAD PUSH1 0x20 DUP1 DUP3 MSTORE DUP2 DUP4 ADD SWAP1 SWAP3 MSTORE SWAP2 SWAP3 POP PUSH0 SWAP2 SWAP1 PUSH1 0x20 DUP3 ADD DUP2 DUP1 CALLDATASIZE DUP4 CALLDATACOPY POP POP POP SWAP2 DUP3 MSTORE POP PUSH1 0x20 DUP2 ADD SWAP3 SWAP1 SWAP3 MSTORE POP SWAP1 JUMP JUMPDEST PUSH1 0x1 PUSH1 0x1 PUSH1 0xA0 SHL SUB DUP4 AND PUSH2 0x2067 JUMPI DUP1 PUSH1 0x2 PUSH0 DUP3 DUP3 SLOAD PUSH2 0x205C SWAP2 SWAP1 PUSH2 0x269C JUMP JUMPDEST SWAP1 SWAP2 SSTORE POP PUSH2 0x20D7 SWAP1 POP JUMP JUMPDEST PUSH1 0x1 PUSH1 0x1 PUSH1 0xA0 SHL SUB DUP4 AND PUSH0 SWAP1 DUP2 MSTORE PUSH1 0x20 DUP2 SWAP1 MSTORE PUSH1 0x40 SWAP1 KECCAK256 SLOAD DUP2 DUP2 LT ISZERO PUSH2 0x20B9 JUMPI PUSH1 0x40 MLOAD PUSH4 0x391434E3 PUSH1 0xE2 SHL DUP2 MSTORE PUSH1 0x1 PUSH1 0x1 PUSH1 0xA0 SHL SUB DUP6 AND PUSH1 0x4 DUP3 ADD MSTORE PUSH1 0x24 DUP2 ADD DUP3 SWAP1 MSTORE PUSH1 0x44 DUP2 ADD DUP4 SWAP1 MSTORE PUSH1 0x64 ADD PUSH2 0x89E JUMP JUMPDEST PUSH1 0x1 PUSH1 0x1 PUSH1 0xA0 SHL SUB DUP5 AND PUSH0 SWAP1 DUP2 MSTORE PUSH1 0x20 DUP2 SWAP1 MSTORE PUSH1 0x40 SWAP1 KECCAK256 SWAP1 DUP3 SWAP1 SUB SWAP1 SSTORE JUMPDEST PUSH1 0x1 PUSH1 0x1 PUSH1 0xA0 SHL SUB DUP3 AND PUSH2 0x20F3 JUMPI PUSH1 0x2 DUP1 SLOAD DUP3 SWAP1 SUB SWAP1 SSTORE PUSH2 0x2111 JUMP JUMPDEST PUSH1 0x1 PUSH1 0x1 PUSH1 0xA0 SHL SUB DUP3 AND PUSH0 SWAP1 DUP2 MSTORE PUSH1 0x20 DUP2 SWAP1 MSTORE PUSH1 0x40 SWAP1 KECCAK256 DUP1 SLOAD DUP3 ADD SWAP1 SSTORE JUMPDEST DUP2 PUSH1 0x1 PUSH1 0x1 PUSH1 0xA0 SHL SUB AND DUP4 PUSH1 0x1 PUSH1 0x1 PUSH1 0xA0 SHL SUB AND PUSH32 0xDDF252AD1BE2C89B69C2B068FC378DAA952BA7F163C4A11628F55A4DF523B3EF DUP4 PUSH1 0x40 MLOAD PUSH2 0x2156 SWAP2 DUP2 MSTORE PUSH1 0x20 ADD SWAP1 JUMP JUMPDEST PUSH1 0x40 MLOAD DUP1 SWAP2 SUB SWAP1 LOG3 POP POP POP JUMP JUMPDEST PUSH1 0x1 PUSH1 0x1 PUSH1 0xA0 SHL SUB DUP4 AND PUSH2 0x2185 JUMPI PUSH2 0x2182 PUSH1 0xA PUSH2 0x1FF5 PUSH2 0x1AC2 DUP5 PUSH2 0x1F8A JUMP JUMPDEST POP POP JUMPDEST PUSH1 0x1 PUSH1 0x1 PUSH1 0xA0 SHL SUB DUP3 AND PUSH2 0x21A7 JUMPI PUSH2 0x21A4 PUSH1 0xA PUSH2 0x1F7F PUSH2 0x1AC2 DUP5 PUSH2 0x1F8A JUMP JUMPDEST POP POP JUMPDEST PUSH1 0x1 PUSH1 0x1 PUSH1 0xA0 SHL SUB DUP4 DUP2 AND PUSH0 SWAP1 DUP2 MSTORE PUSH1 0x8 PUSH1 0x20 MSTORE PUSH1 0x40 DUP1 DUP3 KECCAK256 SLOAD DUP6 DUP5 AND DUP4 MSTORE SWAP2 KECCAK256 SLOAD PUSH2 0xF45 SWAP3 SWAP2 DUP3 AND SWAP2 AND DUP4 PUSH2 0x1A64 JUMP JUMPDEST PUSH0 DUP1 PUSH2 0x1FE8 DUP6 DUP6 DUP6 PUSH2 0x220C JUMP JUMPDEST PUSH0 PUSH1 0xFF DUP3 AND PUSH1 0x1F DUP2 GT ISZERO PUSH2 0x673 JUMPI PUSH1 0x40 MLOAD PUSH4 0x2CD44AC3 PUSH1 0xE2 SHL DUP2 MSTORE PUSH1 0x4 ADD PUSH1 0x40 MLOAD DUP1 SWAP2 SUB SWAP1 REVERT JUMPDEST DUP3 SLOAD PUSH0 SWAP1 DUP2 SWAP1 DUP1 ISZERO PUSH2 0x2302 JUMPI PUSH0 PUSH2 0x2228 DUP8 PUSH2 0x1219 PUSH1 0x1 DUP6 PUSH2 0x26F9 JUMP JUMPDEST DUP1 SLOAD SWAP1 SWAP2 POP PUSH6 0xFFFFFFFFFFFF DUP1 DUP3 AND SWAP2 PUSH1 0x1 PUSH1 0x30 SHL SWAP1 DIV PUSH1 0x1 PUSH1 0x1 PUSH1 0xD0 SHL SUB AND SWAP1 DUP9 AND DUP3 GT ISZERO PUSH2 0x226B JUMPI PUSH1 0x40 MLOAD PUSH4 0x2520601D PUSH1 0xE0 SHL DUP2 MSTORE PUSH1 0x4 ADD PUSH1 0x40 MLOAD DUP1 SWAP2 SUB SWAP1 REVERT JUMPDEST DUP8 PUSH6 0xFFFFFFFFFFFF AND DUP3 PUSH6 0xFFFFFFFFFFFF AND SUB PUSH2 0x22A4 JUMPI DUP3 SLOAD PUSH6 0xFFFFFFFFFFFF AND PUSH1 0x1 PUSH1 0x30 SHL PUSH1 0x1 PUSH1 0x1 PUSH1 0xD0 SHL SUB DUP10 AND MUL OR DUP4 SSTORE PUSH2 0x22F4 JUMP JUMPDEST PUSH1 0x40 DUP1 MLOAD DUP1 DUP3 ADD SWAP1 SWAP2 MSTORE PUSH6 0xFFFFFFFFFFFF DUP1 DUP11 AND DUP3 MSTORE PUSH1 0x1 PUSH1 0x1 PUSH1 0xD0 SHL SUB DUP1 DUP11 AND PUSH1 0x20 DUP1 DUP6 ADD SWAP2 DUP3 MSTORE DUP14 SLOAD PUSH1 0x1 DUP2 ADD DUP16 SSTORE PUSH0 DUP16 DUP2 MSTORE SWAP2 SWAP1 SWAP2 KECCAK256 SWAP5 MLOAD SWAP2 MLOAD SWAP1 SWAP3 AND PUSH1 0x1 PUSH1 0x30 SHL MUL SWAP3 AND SWAP2 SWAP1 SWAP2 OR SWAP2 ADD SSTORE JUMPDEST SWAP5 POP DUP6 SWAP4 POP PUSH2 0x1FED SWAP3 POP POP POP JUMP JUMPDEST POP POP PUSH1 0x40 DUP1 MLOAD DUP1 DUP3 ADD SWAP1 SWAP2 MSTORE PUSH6 0xFFFFFFFFFFFF DUP1 DUP6 AND DUP3 MSTORE PUSH1 0x1 PUSH1 0x1 PUSH1 0xD0 SHL SUB DUP1 DUP6 AND PUSH1 0x20 DUP1 DUP6 ADD SWAP2 DUP3 MSTORE DUP9 SLOAD PUSH1 0x1 DUP2 ADD DUP11 SSTORE PUSH0 DUP11 DUP2 MSTORE SWAP2 DUP3 KECCAK256 SWAP6 MLOAD SWAP3 MLOAD SWAP1 SWAP4 AND PUSH1 0x1 PUSH1 0x30 SHL MUL SWAP2 SWAP1 SWAP4 AND OR SWAP3 ADD SWAP2 SWAP1 SWAP2 SSTORE SWAP1 POP DUP2 PUSH2 0x1FED JUMP JUMPDEST PUSH0 DUP2 MLOAD DUP1 DUP5 MSTORE DUP1 PUSH1 0x20 DUP5 ADD PUSH1 0x20 DUP7 ADD MCOPY PUSH0 PUSH1 0x20 DUP3 DUP7 ADD ADD MSTORE PUSH1 0x20 PUSH1 0x1F NOT PUSH1 0x1F DUP4 ADD AND DUP6 ADD ADD SWAP2 POP POP SWAP3 SWAP2 POP POP JUMP JUMPDEST PUSH1 0x20 DUP2 MSTORE PUSH0 PUSH2 0xEF7 PUSH1 0x20 DUP4 ADD DUP5 PUSH2 0x235C JUMP JUMPDEST DUP1 CALLDATALOAD PUSH1 0x1 PUSH1 0x1 PUSH1 0xA0 SHL SUB DUP2 AND DUP2 EQ PUSH2 0x23B2 JUMPI PUSH0 DUP1 REVERT JUMPDEST SWAP2 SWAP1 POP JUMP JUMPDEST PUSH0 DUP1 PUSH1 0x40 DUP4 DUP6 SUB SLT ISZERO PUSH2 0x23C8 JUMPI PUSH0 DUP1 REVERT JUMPDEST PUSH2 0x23D1 DUP4 PUSH2 0x239C JUMP JUMPDEST SWAP5 PUSH1 0x20 SWAP4 SWAP1 SWAP4 ADD CALLDATALOAD SWAP4 POP POP POP JUMP JUMPDEST PUSH0 DUP1 PUSH0 PUSH1 0x60 DUP5 DUP7 SUB SLT ISZERO PUSH2 0x23F1 JUMPI PUSH0 DUP1 REVERT JUMPDEST PUSH2 0x23FA DUP5 PUSH2 0x239C JUMP JUMPDEST SWAP3 POP PUSH2 0x2408 PUSH1 0x20 DUP6 ADD PUSH2 0x239C JUMP JUMPDEST SWAP3 SWAP6 SWAP3 SWAP5 POP POP POP PUSH1 0x40 SWAP2 SWAP1 SWAP2 ADD CALLDATALOAD SWAP1 JUMP JUMPDEST PUSH0 PUSH1 0x20 DUP3 DUP5 SUB SLT ISZERO PUSH2 0x2429 JUMPI PUSH0 DUP1 REVERT JUMPDEST PUSH2 0xEF7 DUP3 PUSH2 0x239C JUMP JUMPDEST PUSH1 0xFF PUSH1 0xF8 SHL DUP9 AND DUP2 MSTORE PUSH1 0xE0 PUSH1 0x20 DUP3 ADD MSTORE PUSH0 PUSH2 0x2450 PUSH1 0xE0 DUP4 ADD DUP10 PUSH2 0x235C JUMP JUMPDEST DUP3 DUP2 SUB PUSH1 0x40 DUP5 ADD MSTORE PUSH2 0x2462 DUP2 DUP10 PUSH2 0x235C JUMP JUMPDEST PUSH1 0x60 DUP5 ADD DUP9 SWAP1 MSTORE PUSH1 0x1 PUSH1 0x1 PUSH1 0xA0 SHL SUB DUP8 AND PUSH1 0x80 DUP6 ADD MSTORE PUSH1 0xA0 DUP5 ADD DUP7 SWAP1 MSTORE DUP4 DUP2 SUB PUSH1 0xC0 DUP6 ADD MSTORE DUP5 MLOAD DUP1 DUP3 MSTORE PUSH1 0x20 DUP1 DUP8 ADD SWAP4 POP SWAP1 SWAP2 ADD SWAP1 PUSH0 JUMPDEST DUP2 DUP2 LT ISZERO PUSH2 0x24B7 JUMPI DUP4 MLOAD DUP4 MSTORE PUSH1 0x20 SWAP4 DUP5 ADD SWAP4 SWAP1 SWAP3 ADD SWAP2 PUSH1 0x1 ADD PUSH2 0x2499 JUMP JUMPDEST POP SWAP1 SWAP12 SWAP11 POP POP POP POP POP POP POP POP POP POP POP JUMP JUMPDEST PUSH0 PUSH1 0x20 DUP3 DUP5 SUB SLT ISZERO PUSH2 0x24D8 JUMPI PUSH0 DUP1 REVERT JUMPDEST POP CALLDATALOAD SWAP2 SWAP1 POP JUMP JUMPDEST DUP1 CALLDATALOAD PUSH2 0xFFFF DUP2 AND DUP2 EQ PUSH2 0x23B2 JUMPI PUSH0 DUP1 REVERT JUMPDEST PUSH0 DUP1 PUSH1 0x40 DUP4 DUP6 SUB SLT ISZERO PUSH2 0x2501 JUMPI PUSH0 DUP1 REVERT JUMPDEST PUSH2 0x250A DUP4 PUSH2 0x24DF JUMP JUMPDEST SWAP2 POP PUSH2 0x2518 PUSH1 0x20 DUP5 ADD PUSH2 0x24DF JUMP JUMPDEST SWAP1 POP SWAP3 POP SWAP3 SWAP1 POP JUMP JUMPDEST DUP1 CALLDATALOAD PUSH1 0xFF DUP2 AND DUP2 EQ PUSH2 0x23B2 JUMPI PUSH0 DUP1 REVERT JUMPDEST PUSH0 DUP1 PUSH0 DUP1 PUSH0 DUP1 PUSH1 0xC0 DUP8 DUP10 SUB SLT ISZERO PUSH2 0x2546 JUMPI PUSH0 DUP1 REVERT JUMPDEST PUSH2 0x254F DUP8 PUSH2 0x239C JUMP JUMPDEST SWAP6 POP PUSH1 0x20 DUP8 ADD CALLDATALOAD SWAP5 POP PUSH1 0x40 DUP8 ADD CALLDATALOAD SWAP4 POP PUSH2 0x256B PUSH1 0x60 DUP9 ADD PUSH2 0x2521 JUMP JUMPDEST SWAP6 SWAP9 SWAP5 SWAP8 POP SWAP3 SWAP6 PUSH1 0x80 DUP2 ADD CALLDATALOAD SWAP5 PUSH1 0xA0 SWAP1 SWAP2 ADD CALLDATALOAD SWAP4 POP SWAP2 POP POP JUMP JUMPDEST PUSH0 DUP1 PUSH0 DUP1 PUSH0 DUP1 PUSH0 PUSH1 0xE0 DUP9 DUP11 SUB SLT ISZERO PUSH2 0x259B JUMPI PUSH0 DUP1 REVERT JUMPDEST PUSH2 0x25A4 DUP9 PUSH2 0x239C JUMP JUMPDEST SWAP7 POP PUSH2 0x25B2 PUSH1 0x20 DUP10 ADD PUSH2 0x239C JUMP JUMPDEST SWAP6 POP PUSH1 0x40 DUP9 ADD CALLDATALOAD SWAP5 POP PUSH1 0x60 DUP9 ADD CALLDATALOAD SWAP4 POP PUSH2 0x25CE PUSH1 0x80 DUP10 ADD PUSH2 0x2521 JUMP JUMPDEST SWAP7 SWAP10 SWAP6 SWAP9 POP SWAP4 SWAP7 SWAP3 SWAP6 SWAP5 PUSH1 0xA0 DUP5 ADD CALLDATALOAD SWAP5 POP PUSH1 0xC0 SWAP1 SWAP4 ADD CALLDATALOAD SWAP3 SWAP2 POP POP JUMP JUMPDEST PUSH0 DUP1 PUSH1 0x40 DUP4 DUP6 SUB SLT ISZERO PUSH2 0x25FC JUMPI PUSH0 DUP1 REVERT JUMPDEST PUSH2 0x2605 DUP4 PUSH2 0x239C JUMP JUMPDEST SWAP2 POP PUSH2 0x2518 PUSH1 0x20 DUP5 ADD PUSH2 0x239C JUMP JUMPDEST PUSH0 DUP1 PUSH1 0x40 DUP4 DUP6 SUB SLT ISZERO PUSH2 0x2624 JUMPI PUSH0 DUP1 REVERT JUMPDEST PUSH2 0x262D DUP4 PUSH2 0x239C JUMP JUMPDEST SWAP2 POP PUSH1 0x20 DUP4 ADD CALLDATALOAD PUSH4 0xFFFFFFFF DUP2 AND DUP2 EQ PUSH2 0x2645 JUMPI PUSH0 DUP1 REVERT JUMPDEST DUP1 SWAP2 POP POP SWAP3 POP SWAP3 SWAP1 POP JUMP JUMPDEST PUSH1 0x1 DUP2 DUP2 SHR SWAP1 DUP3 AND DUP1 PUSH2 0x2664 JUMPI PUSH1 0x7F DUP3 AND SWAP2 POP JUMPDEST PUSH1 0x20 DUP3 LT DUP2 SUB PUSH2 0x2682 JUMPI PUSH4 0x4E487B71 PUSH1 0xE0 SHL PUSH0 MSTORE PUSH1 0x22 PUSH1 0x4 MSTORE PUSH1 0x24 PUSH0 REVERT JUMPDEST POP SWAP2 SWAP1 POP JUMP JUMPDEST PUSH4 0x4E487B71 PUSH1 0xE0 SHL PUSH0 MSTORE PUSH1 0x11 PUSH1 0x4 MSTORE PUSH1 0x24 PUSH0 REVERT JUMPDEST DUP1 DUP3 ADD DUP1 DUP3 GT ISZERO PUSH2 0x673 JUMPI PUSH2 0x673 PUSH2 0x2688 JUMP JUMPDEST DUP1 DUP3 MUL DUP2 ISZERO DUP3 DUP3 DIV DUP5 EQ OR PUSH2 0x673 JUMPI PUSH2 0x673 PUSH2 0x2688 JUMP JUMPDEST PUSH4 0x4E487B71 PUSH1 0xE0 SHL PUSH0 MSTORE PUSH1 0x12 PUSH1 0x4 MSTORE PUSH1 0x24 PUSH0 REVERT JUMPDEST PUSH0 DUP3 PUSH2 0x26F4 JUMPI PUSH4 0x4E487B71 PUSH1 0xE0 SHL PUSH0 MSTORE PUSH1 0x12 PUSH1 0x4 MSTORE PUSH1 0x24 PUSH0 REVERT JUMPDEST POP DIV SWAP1 JUMP JUMPDEST DUP2 DUP2 SUB DUP2 DUP2 GT ISZERO PUSH2 0x673 JUMPI PUSH2 0x673 PUSH2 0x2688 JUMP JUMPDEST PUSH4 0x4E487B71 PUSH1 0xE0 SHL PUSH0 MSTORE PUSH1 0x21 PUSH1 0x4 MSTORE PUSH1 0x24 PUSH0 REVERT JUMPDEST PUSH4 0x4E487B71 PUSH1 0xE0 SHL PUSH0 MSTORE PUSH1 0x32 PUSH1 0x4 MSTORE PUSH1 0x24 PUSH0 REVERT JUMPDEST PUSH1 0x1 PUSH1 0x1 PUSH1 0xD0 SHL SUB DUP3 DUP2 AND DUP3 DUP3 AND SUB SWAP1 DUP2 GT ISZERO PUSH2 0x673 JUMPI PUSH2 0x673 PUSH2 0x2688 JUMP JUMPDEST PUSH1 0x1 PUSH1 0x1 PUSH1 0xD0 SHL SUB DUP2 DUP2 AND DUP4 DUP3 AND ADD SWAP1 DUP2 GT ISZERO PUSH2 0x673 JUMPI PUSH2 0x673 PUSH2 0x2688 JUMP INVALID LOG2 PUSH5 0x6970667358 0x22 SLT KECCAK256 SWAP8 MLOAD SWAP4 0xDE COINBASE JUMPDEST 0xAA 0xB1 0xC6 PUSH14 0xBED9792E52E889EB181424B21575 SWAP9 0xBD PUSH2 0x67E5 0x2B 0xC1 XOR PUSH5 0x736F6C6343 STOP ADDMOD BYTE STOP CALLER "
		},
		"gasEstimates": {
			"creation": {
				"codeDepositCost": "2030400",
				"executionCost": "infinite",
				"totalCost": "infinite"
			},
			"external": {
				"CLOCK_MODE()": "infinite",
				"DOMAIN_SEPARATOR()": "infinite",
				"MAX_BPS()": "335",
				"MAX_SUPPLY()": "306",
				"allowance(address,address)": "infinite",
				"approve(address,uint256)": "24781",
				"balanceOf(address)": "2648",
				"checkpoints(address,uint32)": "infinite",
				"clock()": "infinite",
				"cusd()": "infinite",
				"decimals()": "266",
				"delegate(address)": "infinite",
				"delegateBySig(address,uint256,uint256,uint8,bytes32,bytes32)": "infinite",
				"delegates(address)": "2676",
				"eip712Domain()": "infinite",
				"getPastTotalSupply(uint256)": "infinite",
				"getPastVotes(address,uint256)": "infinite",
				"getVotes(address)": "infinite",
				"mint(uint256)": "infinite",
				"mintFeeBps()": "2418",
				"name()": "infinite",
				"nonces(address)": "infinite",
				"numCheckpoints(address)": "infinite",
				"owner()": "2442",
				"pause()": "infinite",
				"paused()": "2365",
				"permit(address,address,uint256,uint256,uint8,bytes32,bytes32)": "infinite",
				"redeem(uint256)": "infinite",
				"redeemFeeBps()": "2420",
				"renounceOwnership()": "infinite",
				"setFees(uint16,uint16)": "infinite",
				"setTreasury(address)": "27887",
				"symbol()": "infinite",
				"totalSupply()": "2326",
				"transfer(address,uint256)": "infinite",
				"transferFrom(address,address,uint256)": "infinite",
				"transferOwnership(address)": "28443",
				"treasury()": "2403",
				"unpause()": "infinite"
			},
			"internal": {
				"_update(address,address,uint256)": "infinite"
			}
		},
		"methodIdentifiers": {
			"CLOCK_MODE()": "4bf5d7e9",
			"DOMAIN_SEPARATOR()": "3644e515",
			"MAX_BPS()": "fd967f47",
			"MAX_SUPPLY()": "32cb6b0c",
			"allowance(address,address)": "dd62ed3e",
			"approve(address,uint256)": "095ea7b3",
			"balanceOf(address)": "70a08231",
			"checkpoints(address,uint32)": "f1127ed8",
			"clock()": "91ddadf4",
			"cusd()": "0c577bdc",
			"decimals()": "313ce567",
			"delegate(address)": "5c19a95c",
			"delegateBySig(address,uint256,uint256,uint8,bytes32,bytes32)": "c3cda520",
			"delegates(address)": "587cde1e",
			"eip712Domain()": "84b0196e",
			"getPastTotalSupply(uint256)": "8e539e8c",
			"getPastVotes(address,uint256)": "3a46b1a8",
			"getVotes(address)": "9ab24eb0",
			"mint(uint256)": "a0712d68",
			"mintFeeBps()": "97c8bcc1",
			"name()": "06fdde03",
			"nonces(address)": "7ecebe00",
			"numCheckpoints(address)": "6fcfff45",
			"owner()": "8da5cb5b",
			"pause()": "8456cb59",
			"paused()": "5c975abb",
			"permit(address,address,uint256,uint256,uint8,bytes32,bytes32)": "d505accf",
			"redeem(uint256)": "db006a75",
			"redeemFeeBps()": "09f6442c",
			"renounceOwnership()": "715018a6",
			"setFees(uint16,uint16)": "9ef833d4",
			"setTreasury(address)": "f0f44260",
			"symbol()": "95d89b41",
			"totalSupply()": "18160ddd",
			"transfer(address,uint256)": "a9059cbb",
			"transferFrom(address,address,uint256)": "23b872dd",
			"transferOwnership(address)": "f2fde38b",
			"treasury()": "61d027b3",
			"unpause()": "3f4ba83a"
		}
	},
	"abi": [
		{
			"inputs": [
				{
					"internalType": "address",
					"name": "_cusd",
					"type": "address"
				},
				{
					"internalType": "address",
					"name": "_treasury",
					"type": "address"
				},
				{
					"internalType": "uint16",
					"name": "_mintFeeBps",
					"type": "uint16"
				},
				{
					"internalType": "uint16",
					"name": "_redeemFeeBps",
					"type": "uint16"
				}
			],
			"stateMutability": "nonpayable",
			"type": "constructor"
		},
		{
			"inputs": [],
			"name": "CheckpointUnorderedInsertion",
			"type": "error"
		},
		{
			"inputs": [],
			"name": "ECDSAInvalidSignature",
			"type": "error"
		},
		{
			"inputs": [
				{
					"internalType": "uint256",
					"name": "length",
					"type": "uint256"
				}
			],
			"name": "ECDSAInvalidSignatureLength",
			"type": "error"
		},
		{
			"inputs": [
				{
					"internalType": "bytes32",
					"name": "s",
					"type": "bytes32"
				}
			],
			"name": "ECDSAInvalidSignatureS",
			"type": "error"
		},
		{
			"inputs": [
				{
					"internalType": "uint256",
					"name": "increasedSupply",
					"type": "uint256"
				},
				{
					"internalType": "uint256",
					"name": "cap",
					"type": "uint256"
				}
			],
			"name": "ERC20ExceededSafeSupply",
			"type": "error"
		},
		{
			"inputs": [
				{
					"internalType": "address",
					"name": "spender",
					"type": "address"
				},
				{
					"internalType": "uint256",
					"name": "allowance",
					"type": "uint256"
				},
				{
					"internalType": "uint256",
					"name": "needed",
					"type": "uint256"
				}
			],
			"name": "ERC20InsufficientAllowance",
			"type": "error"
		},
		{
			"inputs": [
				{
					"internalType": "address",
					"name": "sender",
					"type": "address"
				},
				{
					"internalType": "uint256",
					"name": "balance",
					"type": "uint256"
				},
				{
					"internalType": "uint256",
					"name": "needed",
					"type": "uint256"
				}
			],
			"name": "ERC20InsufficientBalance",
			"type": "error"
		},
		{
			"inputs": [
				{
					"internalType": "address",
					"name": "approver",
					"type": "address"
				}
			],
			"name": "ERC20InvalidApprover",
			"type": "error"
		},
		{
			"inputs": [
				{
					"internalType": "address",
					"name": "receiver",
					"type": "address"
				}
			],
			"name": "ERC20InvalidReceiver",
			"type": "error"
		},
		{
			"inputs": [
				{
					"internalType": "address",
					"name": "sender",
					"type": "address"
				}
			],
			"name": "ERC20InvalidSender",
			"type": "error"
		},
		{
			"inputs": [
				{
					"internalType": "address",
					"name": "spender",
					"type": "address"
				}
			],
			"name": "ERC20InvalidSpender",
			"type": "error"
		},
		{
			"inputs": [
				{
					"internalType": "uint256",
					"name": "deadline",
					"type": "uint256"
				}
			],
			"name": "ERC2612ExpiredSignature",
			"type": "error"
		},
		{
			"inputs": [
				{
					"internalType": "address",
					"name": "signer",
					"type": "address"
				},
				{
					"internalType": "address",
					"name": "owner",
					"type": "address"
				}
			],
			"name": "ERC2612InvalidSigner",
			"type": "error"
		},
		{
			"inputs": [
				{
					"internalType": "uint256",
					"name": "timepoint",
					"type": "uint256"
				},
				{
					"internalType": "uint48",
					"name": "clock",
					"type": "uint48"
				}
			],
			"name": "ERC5805FutureLookup",
			"type": "error"
		},
		{
			"inputs": [],
			"name": "ERC6372InconsistentClock",
			"type": "error"
		},
		{
			"inputs": [
				{
					"internalType": "address",
					"name": "account",
					"type": "address"
				},
				{
					"internalType": "uint256",
					"name": "currentNonce",
					"type": "uint256"
				}
			],
			"name": "InvalidAccountNonce",
			"type": "error"
		},
		{
			"inputs": [],
			"name": "InvalidShortString",
			"type": "error"
		},
		{
			"inputs": [
				{
					"internalType": "address",
					"name": "owner",
					"type": "address"
				}
			],
			"name": "OwnableInvalidOwner",
			"type": "error"
		},
		{
			"inputs": [
				{
					"internalType": "address",
					"name": "account",
					"type": "address"
				}
			],
			"name": "OwnableUnauthorizedAccount",
			"type": "error"
		},
		{
			"inputs": [
				{
					"internalType": "uint8",
					"name": "bits",
					"type": "uint8"
				},
				{
					"internalType": "uint256",
					"name": "value",
					"type": "uint256"
				}
			],
			"name": "SafeCastOverflowedUintDowncast",
			"type": "error"
		},
		{
			"inputs": [
				{
					"internalType": "address",
					"name": "token",
					"type": "address"
				}
			],
			"name": "SafeERC20FailedOperation",
			"type": "error"
		},
		{
			"inputs": [
				{
					"internalType": "string",
					"name": "str",
					"type": "string"
				}
			],
			"name": "StringTooLong",
			"type": "error"
		},
		{
			"inputs": [
				{
					"internalType": "uint256",
					"name": "expiry",
					"type": "uint256"
				}
			],
			"name": "VotesExpiredSignature",
			"type": "error"
		},
		{
			"anonymous": false,
			"inputs": [
				{
					"indexed": true,
					"internalType": "address",
					"name": "owner",
					"type": "address"
				},
				{
					"indexed": true,
					"internalType": "address",
					"name": "spender",
					"type": "address"
				},
				{
					"indexed": false,
					"internalType": "uint256",
					"name": "value",
					"type": "uint256"
				}
			],
			"name": "Approval",
			"type": "event"
		},
		{
			"anonymous": false,
			"inputs": [
				{
					"indexed": true,
					"internalType": "address",
					"name": "delegator",
					"type": "address"
				},
				{
					"indexed": true,
					"internalType": "address",
					"name": "fromDelegate",
					"type": "address"
				},
				{
					"indexed": true,
					"internalType": "address",
					"name": "toDelegate",
					"type": "address"
				}
			],
			"name": "DelegateChanged",
			"type": "event"
		},
		{
			"anonymous": false,
			"inputs": [
				{
					"indexed": true,
					"internalType": "address",
					"name": "delegate",
					"type": "address"
				},
				{
					"indexed": false,
					"internalType": "uint256",
					"name": "previousVotes",
					"type": "uint256"
				},
				{
					"indexed": false,
					"internalType": "uint256",
					"name": "newVotes",
					"type": "uint256"
				}
			],
			"name": "DelegateVotesChanged",
			"type": "event"
		},
		{
			"anonymous": false,
			"inputs": [],
			"name": "EIP712DomainChanged",
			"type": "event"
		},
		{
			"anonymous": false,
			"inputs": [
				{
					"indexed": false,
					"internalType": "uint16",
					"name": "newMintFeeBps",
					"type": "uint16"
				},
				{
					"indexed": false,
					"internalType": "uint16",
					"name": "newRedeemFeeBps",
					"type": "uint16"
				}
			],
			"name": "FeesUpdated",
			"type": "event"
		},
		{
			"anonymous": false,
			"inputs": [
				{
					"indexed": true,
					"internalType": "address",
					"name": "to",
					"type": "address"
				},
				{
					"indexed": false,
					"internalType": "uint256",
					"name": "netAmount",
					"type": "uint256"
				},
				{
					"indexed": false,
					"internalType": "uint256",
					"name": "fee",
					"type": "uint256"
				}
			],
			"name": "Minted",
			"type": "event"
		},
		{
			"anonymous": false,
			"inputs": [
				{
					"indexed": true,
					"internalType": "address",
					"name": "previousOwner",
					"type": "address"
				},
				{
					"indexed": true,
					"internalType": "address",
					"name": "newOwner",
					"type": "address"
				}
			],
			"name": "OwnershipTransferred",
			"type": "event"
		},
		{
			"anonymous": false,
			"inputs": [
				{
					"indexed": false,
					"internalType": "address",
					"name": "account",
					"type": "address"
				}
			],
			"name": "Paused",
			"type": "event"
		},
		{
			"anonymous": false,
			"inputs": [
				{
					"indexed": true,
					"internalType": "address",
					"name": "from",
					"type": "address"
				},
				{
					"indexed": false,
					"internalType": "uint256",
					"name": "amount",
					"type": "uint256"
				},
				{
					"indexed": false,
					"internalType": "uint256",
					"name": "netCUSD",
					"type": "uint256"
				},
				{
					"indexed": false,
					"internalType": "uint256",
					"name": "fee",
					"type": "uint256"
				}
			],
			"name": "Redeemed",
			"type": "event"
		},
		{
			"anonymous": false,
			"inputs": [
				{
					"indexed": true,
					"internalType": "address",
					"name": "from",
					"type": "address"
				},
				{
					"indexed": true,
					"internalType": "address",
					"name": "to",
					"type": "address"
				},
				{
					"indexed": false,
					"internalType": "uint256",
					"name": "value",
					"type": "uint256"
				}
			],
			"name": "Transfer",
			"type": "event"
		},
		{
			"anonymous": false,
			"inputs": [
				{
					"indexed": false,
					"internalType": "address",
					"name": "newTreasury",
					"type": "address"
				}
			],
			"name": "TreasuryUpdated",
			"type": "event"
		},
		{
			"anonymous": false,
			"inputs": [
				{
					"indexed": false,
					"internalType": "address",
					"name": "account",
					"type": "address"
				}
			],
			"name": "Unpaused",
			"type": "event"
		},
		{
			"inputs": [],
			"name": "CLOCK_MODE",
			"outputs": [
				{
					"internalType": "string",
					"name": "",
					"type": "string"
				}
			],
			"stateMutability": "view",
			"type": "function"
		},
		{
			"inputs": [],
			"name": "DOMAIN_SEPARATOR",
			"outputs": [
				{
					"internalType": "bytes32",
					"name": "",
					"type": "bytes32"
				}
			],
			"stateMutability": "view",
			"type": "function"
		},
		{
			"inputs": [],
			"name": "MAX_BPS",
			"outputs": [
				{
					"internalType": "uint16",
					"name": "",
					"type": "uint16"
				}
			],
			"stateMutability": "view",
			"type": "function"
		},
		{
			"inputs": [],
			"name": "MAX_SUPPLY",
			"outputs": [
				{
					"internalType": "uint256",
					"name": "",
					"type": "uint256"
				}
			],
			"stateMutability": "view",
			"type": "function"
		},
		{
			"inputs": [
				{
					"internalType": "address",
					"name": "owner",
					"type": "address"
				},
				{
					"internalType": "address",
					"name": "spender",
					"type": "address"
				}
			],
			"name": "allowance",
			"outputs": [
				{
					"internalType": "uint256",
					"name": "",
					"type": "uint256"
				}
			],
			"stateMutability": "view",
			"type": "function"
		},
		{
			"inputs": [
				{
					"internalType": "address",
					"name": "spender",
					"type": "address"
				},
				{
					"internalType": "uint256",
					"name": "value",
					"type": "uint256"
				}
			],
			"name": "approve",
			"outputs": [
				{
					"internalType": "bool",
					"name": "",
					"type": "bool"
				}
			],
			"stateMutability": "nonpayable",
			"type": "function"
		},
		{
			"inputs": [
				{
					"internalType": "address",
					"name": "account",
					"type": "address"
				}
			],
			"name": "balanceOf",
			"outputs": [
				{
					"internalType": "uint256",
					"name": "",
					"type": "uint256"
				}
			],
			"stateMutability": "view",
			"type": "function"
		},
		{
			"inputs": [
				{
					"internalType": "address",
					"name": "account",
					"type": "address"
				},
				{
					"internalType": "uint32",
					"name": "pos",
					"type": "uint32"
				}
			],
			"name": "checkpoints",
			"outputs": [
				{
					"components": [
						{
							"internalType": "uint48",
							"name": "_key",
							"type": "uint48"
						},
						{
							"internalType": "uint208",
							"name": "_value",
							"type": "uint208"
						}
					],
					"internalType": "struct Checkpoints.Checkpoint208",
					"name": "",
					"type": "tuple"
				}
			],
			"stateMutability": "view",
			"type": "function"
		},
		{
			"inputs": [],
			"name": "clock",
			"outputs": [
				{
					"internalType": "uint48",
					"name": "",
					"type": "uint48"
				}
			],
			"stateMutability": "view",
			"type": "function"
		},
		{
			"inputs": [],
			"name": "cusd",
			"outputs": [
				{
					"internalType": "contract IERC20",
					"name": "",
					"type": "address"
				}
			],
			"stateMutability": "view",
			"type": "function"
		},
		{
			"inputs": [],
			"name": "decimals",
			"outputs": [
				{
					"internalType": "uint8",
					"name": "",
					"type": "uint8"
				}
			],
			"stateMutability": "view",
			"type": "function"
		},
		{
			"inputs": [
				{
					"internalType": "address",
					"name": "delegatee",
					"type": "address"
				}
			],
			"name": "delegate",
			"outputs": [],
			"stateMutability": "nonpayable",
			"type": "function"
		},
		{
			"inputs": [
				{
					"internalType": "address",
					"name": "delegatee",
					"type": "address"
				},
				{
					"internalType": "uint256",
					"name": "nonce",
					"type": "uint256"
				},
				{
					"internalType": "uint256",
					"name": "expiry",
					"type": "uint256"
				},
				{
					"internalType": "uint8",
					"name": "v",
					"type": "uint8"
				},
				{
					"internalType": "bytes32",
					"name": "r",
					"type": "bytes32"
				},
				{
					"internalType": "bytes32",
					"name": "s",
					"type": "bytes32"
				}
			],
			"name": "delegateBySig",
			"outputs": [],
			"stateMutability": "nonpayable",
			"type": "function"
		},
		{
			"inputs": [
				{
					"internalType": "address",
					"name": "account",
					"type": "address"
				}
			],
			"name": "delegates",
			"outputs": [
				{
					"internalType": "address",
					"name": "",
					"type": "address"
				}
			],
			"stateMutability": "view",
			"type": "function"
		},
		{
			"inputs": [],
			"name": "eip712Domain",
			"outputs": [
				{
					"internalType": "bytes1",
					"name": "fields",
					"type": "bytes1"
				},
				{
					"internalType": "string",
					"name": "name",
					"type": "string"
				},
				{
					"internalType": "string",
					"name": "version",
					"type": "string"
				},
				{
					"internalType": "uint256",
					"name": "chainId",
					"type": "uint256"
				},
				{
					"internalType": "address",
					"name": "verifyingContract",
					"type": "address"
				},
				{
					"internalType": "bytes32",
					"name": "salt",
					"type": "bytes32"
				},
				{
					"internalType": "uint256[]",
					"name": "extensions",
					"type": "uint256[]"
				}
			],
			"stateMutability": "view",
			"type": "function"
		},
		{
			"inputs": [
				{
					"internalType": "uint256",
					"name": "timepoint",
					"type": "uint256"
				}
			],
			"name": "getPastTotalSupply",
			"outputs": [
				{
					"internalType": "uint256",
					"name": "",
					"type": "uint256"
				}
			],
			"stateMutability": "view",
			"type": "function"
		},
		{
			"inputs": [
				{
					"internalType": "address",
					"name": "account",
					"type": "address"
				},
				{
					"internalType": "uint256",
					"name": "timepoint",
					"type": "uint256"
				}
			],
			"name": "getPastVotes",
			"outputs": [
				{
					"internalType": "uint256",
					"name": "",
					"type": "uint256"
				}
			],
			"stateMutability": "view",
			"type": "function"
		},
		{
			"inputs": [
				{
					"internalType": "address",
					"name": "account",
					"type": "address"
				}
			],
			"name": "getVotes",
			"outputs": [
				{
					"internalType": "uint256",
					"name": "",
					"type": "uint256"
				}
			],
			"stateMutability": "view",
			"type": "function"
		},
		{
			"inputs": [
				{
					"internalType": "uint256",
					"name": "amount",
					"type": "uint256"
				}
			],
			"name": "mint",
			"outputs": [],
			"stateMutability": "nonpayable",
			"type": "function"
		},
		{
			"inputs": [],
			"name": "mintFeeBps",
			"outputs": [
				{
					"internalType": "uint16",
					"name": "",
					"type": "uint16"
				}
			],
			"stateMutability": "view",
			"type": "function"
		},
		{
			"inputs": [],
			"name": "name",
			"outputs": [
				{
					"internalType": "string",
					"name": "",
					"type": "string"
				}
			],
			"stateMutability": "view",
			"type": "function"
		},
		{
			"inputs": [
				{
					"internalType": "address",
					"name": "owner",
					"type": "address"
				}
			],
			"name": "nonces",
			"outputs": [
				{
					"internalType": "uint256",
					"name": "",
					"type": "uint256"
				}
			],
			"stateMutability": "view",
			"type": "function"
		},
		{
			"inputs": [
				{
					"internalType": "address",
					"name": "account",
					"type": "address"
				}
			],
			"name": "numCheckpoints",
			"outputs": [
				{
					"internalType": "uint32",
					"name": "",
					"type": "uint32"
				}
			],
			"stateMutability": "view",
			"type": "function"
		},
		{
			"inputs": [],
			"name": "owner",
			"outputs": [
				{
					"internalType": "address",
					"name": "",
					"type": "address"
				}
			],
			"stateMutability": "view",
			"type": "function"
		},
		{
			"inputs": [],
			"name": "pause",
			"outputs": [],
			"stateMutability": "nonpayable",
			"type": "function"
		},
		{
			"inputs": [],
			"name": "paused",
			"outputs": [
				{
					"internalType": "bool",
					"name": "",
					"type": "bool"
				}
			],
			"stateMutability": "view",
			"type": "function"
		},
		{
			"inputs": [
				{
					"internalType": "address",
					"name": "owner",
					"type": "address"
				},
				{
					"internalType": "address",
					"name": "spender",
					"type": "address"
				},
				{
					"internalType": "uint256",
					"name": "value",
					"type": "uint256"
				},
				{
					"internalType": "uint256",
					"name": "deadline",
					"type": "uint256"
				},
				{
					"internalType": "uint8",
					"name": "v",
					"type": "uint8"
				},
				{
					"internalType": "bytes32",
					"name": "r",
					"type": "bytes32"
				},
				{
					"internalType": "bytes32",
					"name": "s",
					"type": "bytes32"
				}
			],
			"name": "permit",
			"outputs": [],
			"stateMutability": "nonpayable",
			"type": "function"
		},
		{
			"inputs": [
				{
					"internalType": "uint256",
					"name": "amount",
					"type": "uint256"
				}
			],
			"name": "redeem",
			"outputs": [],
			"stateMutability": "nonpayable",
			"type": "function"
		},
		{
			"inputs": [],
			"name": "redeemFeeBps",
			"outputs": [
				{
					"internalType": "uint16",
					"name": "",
					"type": "uint16"
				}
			],
			"stateMutability": "view",
			"type": "function"
		},
		{
			"inputs": [],
			"name": "renounceOwnership",
			"outputs": [],
			"stateMutability": "nonpayable",
			"type": "function"
		},
		{
			"inputs": [
				{
					"internalType": "uint16",
					"name": "_mintFeeBps",
					"type": "uint16"
				},
				{
					"internalType": "uint16",
					"name": "_redeemFeeBps",
					"type": "uint16"
				}
			],
			"name": "setFees",
			"outputs": [],
			"stateMutability": "nonpayable",
			"type": "function"
		},
		{
			"inputs": [
				{
					"internalType": "address",
					"name": "_treasury",
					"type": "address"
				}
			],
			"name": "setTreasury",
			"outputs": [],
			"stateMutability": "nonpayable",
			"type": "function"
		},
		{
			"inputs": [],
			"name": "symbol",
			"outputs": [
				{
					"internalType": "string",
					"name": "",
					"type": "string"
				}
			],
			"stateMutability": "view",
			"type": "function"
		},
		{
			"inputs": [],
			"name": "totalSupply",
			"outputs": [
				{
					"internalType": "uint256",
					"name": "",
					"type": "uint256"
				}
			],
			"stateMutability": "view",
			"type": "function"
		},
		{
			"inputs": [
				{
					"internalType": "address",
					"name": "to",
					"type": "address"
				},
				{
					"internalType": "uint256",
					"name": "value",
					"type": "uint256"
				}
			],
			"name": "transfer",
			"outputs": [
				{
					"internalType": "bool",
					"name": "",
					"type": "bool"
				}
			],
			"stateMutability": "nonpayable",
			"type": "function"
		},
		{
			"inputs": [
				{
					"internalType": "address",
					"name": "from",
					"type": "address"
				},
				{
					"internalType": "address",
					"name": "to",
					"type": "address"
				},
				{
					"internalType": "uint256",
					"name": "value",
					"type": "uint256"
				}
			],
			"name": "transferFrom",
			"outputs": [
				{
					"internalType": "bool",
					"name": "",
					"type": "bool"
				}
			],
			"stateMutability": "nonpayable",
			"type": "function"
		},
		{
			"inputs": [
				{
					"internalType": "address",
					"name": "newOwner",
					"type": "address"
				}
			],
			"name": "transferOwnership",
			"outputs": [],
			"stateMutability": "nonpayable",
			"type": "function"
		},
		{
			"inputs": [],
			"name": "treasury",
			"outputs": [
				{
					"internalType": "address",
					"name": "",
					"type": "address"
				}
			],
			"stateMutability": "view",
			"type": "function"
		},
		{
			"inputs": [],
			"name": "unpause",
			"outputs": [],
			"stateMutability": "nonpayable",
			"type": "function"
		}
	]
}