{
	"data": {
		"bytecode": {
			"linkReferences": {},
			"object": "6101606040526001601255348015610015575f5ffd5b50604051615bb2380380615bb283398101604081905261003491610366565b6040518060400160405280600c81526020016b1418591a541c9bdd1bd8dbdb60a21b815250604051806040016040528060018152602001603160f81b81525061008161026360201b60201c565b6040518060400160405280600f81526020016e050616469204d656d6265727368697608c1b815250604051806040016040528060048152602001635041444960e01b815250815f90816100d49190610458565b5060016100e18282610458565b5050506001600160a01b03811661011257604051631e4fbdf760e01b81525f60048201526024015b60405180910390fd5b61011b8161028b565b5061012782600c6102dc565b6101205261013681600d6102dc565b61014052815160208084019190912060e052815190820120610100524660a0526101c260e05161010051604080517f8b73c3c69bb8fe3d512ecc4cf759cc79239f7b179b0ffacaa9a75d522b39400f60208201529081019290925260608201524660808201523060a08201525f9060c00160405160208183030381529060405280519060200120905090565b60805250503060c052600e80546001600160a01b038781166001600160a01b031992831617909255600f80548784169083161790556010805486841690831617905560138490556011805492841692909116821790556102595760405162461bcd60e51b8152602060048201526012602482015271125b9d985b1a59081a1bdd081dd85b1b195d60721b6044820152606401610109565b505050505061056a565b5f3330148015610274575060143610155b15610286575060131936013560601c90565b503390565b600b80546001600160a01b038381166001600160a01b0319831681179093556040519116919082907f8be0079c531659141344cd1fd0a4f28419497f9722a3daafe3b4186f6b6457e0905f90a35050565b5f6020835110156102f7576102f08361030e565b9050610308565b816103028482610458565b5060ff90505b92915050565b5f5f829050601f81511115610338578260405163305a27a960e01b81526004016101099190610512565b805161034382610547565b179392505050565b80516001600160a01b0381168114610361575f5ffd5b919050565b5f5f5f5f5f60a0868803121561037a575f5ffd5b6103838661034b565b94506103916020870161034b565b935061039f6040870161034b565b9250606086015191506103b46080870161034b565b90509295509295909350565b634e487b7160e01b5f52604160045260245ffd5b600181811c908216806103e857607f821691505b60208210810361040657634e487b7160e01b5f52602260045260245ffd5b50919050565b601f82111561045357805f5260205f20601f840160051c810160208510156104315750805b601f840160051c820191505b81811015610450575f815560010161043d565b50505b505050565b81516001600160401b03811115610471576104716103c0565b6104858161047f84546103d4565b8461040c565b6020601f8211600181146104b7575f83156104a05750848201515b5f19600385901b1c1916600184901b178455610450565b5f84815260208120601f198516915b828110156104e657878501518255602094850194600190920191016104c6565b508482101561050357868401515f19600387901b60f8161c191681555b50505050600190811b01905550565b602081525f82518060208401528060208501604085015e5f604082850101526040601f19601f83011684010191505092915050565b80516020808301519190811015610406575f1960209190910360031b1b16919050565b60805160a05160c05160e0516101005161012051610140516155f76105bb5f395f61311d01525f6130f001525f6135e001525f6135b801525f61351301525f61353d01525f61356701526155f75ff3fe608060405234801561000f575f5ffd5b50600436106102e5575f3560e01c806370a0823111610195578063a230c524116100e4578063e1a9abf11161009e578063ed24911d11610079578063ed24911d146106bc578063edd501fa146106c4578063f08aa69f146106d7578063f2fde38b146106ea575f5ffd5b8063e1a9abf114610676578063e42dde2e14610696578063e985e9c5146106a9575f5ffd5b8063a230c52414610604578063a3f8d8ed14610617578063aa9aa17a1461062a578063b88d4fde1461063d578063c87b56dd14610650578063ca259ed214610663575f5ffd5b80638da5cb5b1161014f57806399bb93501161012a57806399bb9350146105b85780639bb0f759146105cb5780639fb755d7146105de578063a22cb465146105f1575f5ffd5b80638da5cb5b1461057e57806394d1ca6b1461058f57806395d89b41146105b0575f5ffd5b806370a0823114610503578063715018a6146105165780637ecebe001461051e57806384b0196e1461053d5780638502f1c2146105585780638baa5d8b1461056b575f5ffd5b80633013ce29116102515780634b870a831161020b5780636352211e116101e65780636352211e146104b757806363f0dcb2146104ca5780636a326ab1146104dd5780636eb60a80146104f0575f5ffd5b80634b870a831461047e5780634f6ccce7146104915780635939a84e146104a4575f5ffd5b80633013ce291461040c5780634158c1b51461041f57806342842e0e1461043257806342966c681461044557806345db283d14610458578063496786051461046b575f5ffd5b806318160ddd116102a257806318160ddd1461039057806323b872dd14610398578063241f8715146103ab57806329113bc8146103be5780632d0335ab146103d15780632f745c59146103f9575f5ffd5b806301ffc9a7146102e957806306fdde0314610311578063081812fc14610326578063095ea7b3146103515780630d39fc811461036657806311ce02671461037d575b5f5ffd5b6102fc6102f73660046140c9565b6106fd565b60405190151581526020015b60405180910390f35b61031961070d565b6040516103089190614112565b610339610334366004614124565b61079c565b6040516001600160a01b039091168152602001610308565b61036461035f36600461414f565b6107c3565b005b61036f60135481565b604051908152602001610308565b600e54610339906001600160a01b031681565b60085461036f565b6103646103a6366004614179565b6107d9565b6103646103b93660046141b7565b61086e565b601154610339906001600160a01b031681565b61036f6103df3660046141f6565b6001600160a01b03165f9081526014602052604090205490565b61036f61040736600461414f565b6108c1565b600f54610339906001600160a01b031681565b61036461042d366004614211565b610924565b610364610440366004614179565b610adc565b610364610453366004614124565b610afb565b6103646104663660046142cc565b610b0f565b61036461047936600461414f565b610c31565b61036461048c366004614343565b6111de565b61036f61049f366004614124565b611352565b6102fc6104b23660046141f6565b6113a7565b6103396104c5366004614124565b611414565b6103646104d8366004614393565b61141e565b6103646104eb3660046141f6565b611649565b6103646104fe3660046143c3565b61169a565b61036f6105113660046141f6565b61191d565b610364611962565b61036f61052c3660046141f6565b60146020525f908152604090205481565b610545611975565b604051610308979695949392919061447c565b6103646105663660046141f6565b6119b7565b6103646105793660046144eb565b611d2a565b600b546001600160a01b0316610339565b6105a261059d366004614542565b611f7b565b60405161030892919061457a565b6103196124f6565b601054610339906001600160a01b031681565b6103646105d93660046141f6565b612505565b6103646105ec3660046141f6565b6125b8565b6103646105ff366004614594565b612659565b6102fc6106123660046141f6565b61266b565b6103646106253660046145c0565b61269d565b6103646106383660046145e8565b6128d1565b61036461064b36600461474e565b6129a7565b61031961065e366004614124565b6129c6565b610364610671366004614343565b6129d1565b6106896106843660046141f6565b6129d9565b60405161030891906147c8565b6103646106a43660046141f6565b612a53565b6102fc6106b7366004614211565b612bd1565b61036f612bfe565b6103396106d23660046141f6565b612c0c565b61036f6106e53660046147da565b612c84565b6103646106f83660046141f6565b612e8b565b5f61070782612ec5565b92915050565b60605f805461071b90614844565b80601f016020809104026020016040519081016040528092919081815260200182805461074790614844565b80156107925780601f1061076957610100808354040283529160200191610792565b820191905f5260205f20905b81548152906001019060200180831161077557829003601f168201915b5050505050905090565b5f6107a682612ee9565b505f828152600460205260409020546001600160a01b0316610707565b6107d582826107d0612f21565b612f49565b5050565b6001600160a01b03821661080757604051633250574960e11b81525f60048201526024015b60405180910390fd5b5f61081a8383610815612f21565b612f56565b9050836001600160a01b0316816001600160a01b031614610868576040516364283d7b60e01b81526001600160a01b03808616600483015260248201849052821660448201526064016107fe565b50505050565b826001600160a01b031682826001600160a01b03167f41195084f354bc7da593812f4b0e44aec4e701ef0e7f6e15a5a574c33503437d426040516108b491815260200190565b60405180910390a4505050565b5f6108cb8361191d565b82106108fc5760405163295f44f760e21b81526001600160a01b0384166004820152602481018390526044016107fe565b506001600160a01b03919091165f908152600660209081526040808320938352929052205490565b81806001600160a01b0316610937612f21565b6001600160a01b0316148061096c575061095081612c0c565b6001600160a01b0316610961612f21565b6001600160a01b0316145b6109cb5760405162461bcd60e51b815260206004820152602a60248201527f556e617574686f72697a65643a204e6f74206d656d626572206f7220726570726044820152696573656e74617469766560b01b60648201526084016107fe565b600e5460405163022b92c360e21b81526001600160a01b0385811660048301525f9216906308ae4b0c906024015f60405180830381865afa158015610a12573d5f5f3e3d5ffd5b505050506040513d5f823e601f3d908101601f19168201604052610a3991908101906148e4565b6001600160a01b038085166020830152600e5460405163af947d0560e01b8152929350169063af947d0590610a7290849060040161499f565b5f604051808303815f87803b158015610a89575f5ffd5b505af1158015610a9b573d5f5f3e3d5ffd5b50506040516001600160a01b038087169350871691507ff53ec35310a21208780fc7b462ee5d0a47d8ae1c3aa5e0ecdab144ff78dea3a8905f90a350505050565b610af683838360405180602001604052805f8152506129a7565b505050565b610b03612f6a565b610b0c81612fc8565b50565b5f6040518060800160405280610b23612f21565b6001600160a01b0316815260200142815260200186868080601f0160208091040260200160405190810160405280939291908181526020018383808284375f92019190915250505090825250602001610b7c8486614a37565b9052600e54604051630109db1b60e51b81529192506001600160a01b03169063213b636090610bb19089908590600401614b63565b5f604051808303815f87803b158015610bc8575f5ffd5b505af1158015610bda573d5f5f3e3d5ffd5b50505050610be6612f21565b6001600160a01b0316867f37b3e104208f85d1df430bbefbe3fee48f2b666f587576036f4d60ef673af50c42604051610c2191815260200190565b60405180910390a3505050505050565b600e54604051632c9cd42760e11b81526001600160a01b03808516600483015284921690635939a84e90602401602060405180830381865afa158015610c79573d5f5f3e3d5ffd5b505050506040513d601f19601f82011682018060405250810190610c9d9190614b7b565b610ce15760405162461bcd60e51b81526020600482015260156024820152742737ba103932b3b4b9ba32b932b2103630bbbcb2b960591b60448201526064016107fe565b600e5460405163554ae56760e01b81526001600160a01b0383811660048301525f92169063554ae567906024015f60405180830381865afa158015610d28573d5f5f3e3d5ffd5b505050506040513d5f823e601f3d908101601f19168201604052610d4f9190810190614bfb565b90508060a00151610d945760405162461bcd60e51b815260206004820152600f60248201526e4c617779657220696e61637469766560881b60448201526064016107fe565b610d9c612f21565b6001600160a01b0316846001600160a01b031614610e135760405162461bcd60e51b815260206004820152602e60248201527f556e617574686f72697a65643a204f6e6c792061737369676e6564206c61777960448201526d65722063616e207265736f6c766560901b60648201526084016107fe565b600e5460405163f09790dd60e01b8152600481018590525f916001600160a01b03169063f09790dd906024015f60405180830381865afa158015610e59573d5f5f3e3d5ffd5b505050506040513d5f823e601f3d908101601f19168201604052610e809190810190614cc5565b9050846001600160a01b031681604001516001600160a01b031614610ee75760405162461bcd60e51b815260206004820152601b60248201527f43617365206e6f742061737369676e656420746f206c6177796572000000000060448201526064016107fe565b8060c0015115610f315760405162461bcd60e51b815260206004820152601560248201527410d85cd948185b1c9958591e481c995cdbdb1d9959605a1b60448201526064016107fe565b600160c08201524260a0820152600e5460405163f47be47760e01b81526001600160a01b039091169063f47be47790610f6e908490600401614d8d565b5f604051808303815f87803b158015610f85575f5ffd5b505af1158015610f97573d5f5f3e3d5ffd5b5050600e5460405163554ae56760e01b81526001600160a01b0389811660048301525f9450909116915063554ae567906024015f60405180830381865afa158015610fe4573d5f5f3e3d5ffd5b505050506040513d5f823e601f3d908101601f1916820160405261100b9190810190614bfb565b60208101518051919250905f90611023906001614e2b565b6001600160401b0381111561103a5761103a61461a565b604051908082528060200260200182016040528015611063578160200160208202803683370190505b5090505f805b83518110156110d75783818151811061108457611084614e3e565b602002602001015183828151811061109e5761109e614e3e565b602002602001018181525050888482815181106110bd576110bd614e3e565b6020026020010151036110cf57600191505b600101611069565b50806110fe5787828451815181106110f1576110f1614e3e565b6020026020010181815250505b6020840182905260e085015160808501805161111b908390614e2b565b905250600e54604051638450000160e01b81526001600160a01b039091169063845000019061114e908790600401614e52565b5f604051808303815f87803b158015611165575f5ffd5b505af1158015611177573d5f5f3e3d5ffd5b5050505061119e611186612f21565b60e0870151600f546001600160a01b03169190613000565b60405188906001600160a01b038b16907f8c367c1c13bf9b767a56a0b09a4a9372dd331ad43693c05b58e5f25f123340df905f90a3505050505050505050565b826001600160a01b03166111f0612f21565b6001600160a01b03161461123e5760405162461bcd60e51b815260206004820152601560248201527421b0b71037b7363c9039b4b3b7103ab81039b2b63360591b60448201526064016107fe565b6040805160c0810182526001600160a01b038516815281515f808252602082810190945292820190815260200184848080601f0160208091040260200160405190810160405280939291908181526020018383808284375f9201829052509385525050426020840152506040808301919091526001606090920191909152600e549051638450000160e01b81529192506001600160a01b0316906384500001906112ec908490600401614e52565b5f604051808303815f87803b158015611303575f5ffd5b505af1158015611315573d5f5f3e3d5ffd5b50506040516001600160a01b03871692507f477258c324e1dc966c3e151d300b92686593e768b5c01e809c2c820eee02cffc91505f90a250505050565b5f61135c60085490565b82106113845760405163295f44f760e21b81525f6004820152602481018390526044016107fe565b6008828154811061139757611397614e3e565b905f5260205f2001549050919050565b600e54604051632c9cd42760e11b81526001600160a01b0383811660048301525f921690635939a84e906024015b602060405180830381865afa1580156113f0573d5f5f3e3d5ffd5b505050506040513d601f19601f820116820180604052508101906107079190614b7b565b5f61070782612ee9565b611426612f6a565b600e5460405163f09790dd60e01b8152600481018490525f916001600160a01b03169063f09790dd906024015f60405180830381865afa15801561146c573d5f5f3e3d5ffd5b505050506040513d5f823e601f3d908101601f191682016040526114939190810190614cc5565b80519091505f036114dc5760405162461bcd60e51b815260206004820152601360248201527210d85cd948191bd95cc81b9bdd08195e1a5cdd606a1b60448201526064016107fe565b8060c00151156115265760405162461bcd60e51b815260206004820152601560248201527410d85cd948185b1c9958591e481c995cdbdb1d9959605a1b60448201526064016107fe565b6001600160a01b0382166115755760405162461bcd60e51b8152602060048201526016602482015275496e76616c696420726566756e64206164647265737360501b60448201526064016107fe565b600160c08201524260a0820152600e5460405163f47be47760e01b81526001600160a01b039091169063f47be477906115b2908490600401614d8d565b5f604051808303815f87803b1580156115c9575f5ffd5b505af11580156115db573d5f5f3e3d5ffd5b50505060e0820151600f546115fc92506001600160a01b0316908490613000565b816001600160a01b0316837f038795cdd1e401fdbdb393603caf11dad9cc78ce117fa7bdc2332458787481208360e0015160405161163c91815260200190565b60405180910390a3505050565b611651612f6a565b600f80546001600160a01b0319166001600160a01b0383169081179091556040517fbd4032c1c91da2791730ea1bbc82c6b6f857da7c0a8318143d19ef74e62cd913905f90a250565b846001600160a01b03166116ac612f21565b6001600160a01b0316146117025760405162461bcd60e51b815260206004820152601b60248201527f4f6e6c79206d656d6265722063616e206372656174652063617365000000000060448201526064016107fe565b5f61170c8661191d565b116117595760405162461bcd60e51b815260206004820152601760248201527f4d656d62657273686970204e465420726571756972656400000000000000000060448201526064016107fe565b600e546040805163426e040360e11b815290515f926001600160a01b0316916384dc0806916004808301926020929190829003018187875af11580156117a1573d5f5f3e3d5ffd5b505050506040513d601f19601f820116820180604052508101906117c59190614ef6565b90505f604051806101000160405280838152602001886001600160a01b03168152602001896001600160a01b0316815260200187878080601f0160208091040260200160405190810160405280939291908181526020018383808284375f920182905250938552505042602084015250604080830182905260608301919091526080909101869052600e54905163f47be47760e01b81529192506001600160a01b03169063f47be4779061187d908490600401614d8d565b5f604051808303815f87803b158015611894575f5ffd5b505af11580156118a6573d5f5f3e3d5ffd5b5050600f546118c392506001600160a01b0316905088308761305f565b866001600160a01b031682896001600160a01b03167fc18563ff27245b6f08b02acadbabd8d64917c95f956596f4a216768f8a91baa18660405161190b911515815260200190565b60405180910390a45050505050505050565b5f6001600160a01b038216611947576040516322718ad960e21b81525f60048201526024016107fe565b506001600160a01b03165f9081526003602052604090205490565b61196a612f6a565b6119735f613098565b565b5f6060805f5f5f60606119866130e9565b61198e613116565b604080515f80825260208201909252600f60f81b9b939a50919850469750309650945092509050565b6119bf612f6a565b5f8190505f816001600160a01b03166318160ddd6040518163ffffffff1660e01b8152600401602060405180830381865afa158015611a00573d5f5f3e3d5ffd5b505050506040513d601f19601f82011682018060405250810190611a249190614ef6565b90505f826001600160a01b0316638da5cb5b6040518163ffffffff1660e01b81526004016020604051808303815f875af1158015611a64573d5f5f3e3d5ffd5b505050506040513d601f19601f82011682018060405250810190611a889190614f0d565b60405163f2fde38b60e01b81523060048201529091506001600160a01b0384169063f2fde38b906024015f604051808303815f87803b158015611ac9575f5ffd5b505af1158015611adb573d5f5f3e3d5ffd5b505f925050505b82811015611cb857604051634f6ccce760e01b8152600481018290525f906001600160a01b03861690634f6ccce790602401602060405180830381865afa158015611b2f573d5f5f3e3d5ffd5b505050506040513d601f19601f82011682018060405250810190611b539190614ef6565b6040516331a9108f60e11b8152600481018290529091505f906001600160a01b03871690636352211e90602401602060405180830381865afa158015611b9b573d5f5f3e3d5ffd5b505050506040513d601f19601f82011682018060405250810190611bbf9190614f0d565b90506001600160a01b038116611bd6575050611cb0565b60405163c87b56dd60e01b8152600481018390525f906001600160a01b0388169063c87b56dd906024015f60405180830381865afa158015611c1a573d5f5f3e3d5ffd5b505050506040513d5f823e601f3d908101601f19168201604052611c419190810190614f28565b9050611c4d8284613143565b611c5783826131a4565b604051630852cd8d60e31b8152600481018490526001600160a01b038816906342966c68906024015f604051808303815f87803b158015611c96575f5ffd5b505af1158015611ca8573d5f5f3e3d5ffd5b505050505050505b600101611ae2565b50826001600160a01b031663f2fde38b611cd0612f21565b6040516001600160e01b031960e084901b1681526001600160a01b0390911660048201526024015f604051808303815f87803b158015611d0e575f5ffd5b505af1158015611d20573d5f5f3e3d5ffd5b5050505050505050565b611d338461191d565b15611d805760405162461bcd60e51b815260206004820152601a60248201527f416c726561647920686173206d656d62657273686970204e465400000000000060448201526064016107fe565b6013548114611dd15760405162461bcd60e51b815260206004820152601860248201527f7061792074686520657861637420616d6f756e7420212121000000000000000060448201526064016107fe565b611df6611ddc612f21565b601054600f546001600160a01b039081169291168461305f565b601280545f9182611e0683614f59565b919050559050611e168582613143565b611e558185858080601f0160208091040260200160405190810160405280939291908181526020018383808284375f920191909152506131a492505050565b611e60308287612f49565b5f6040518060e00160405280876001600160a01b031681526020015f6001600160a01b0316815260200183815260200186868080601f0160208091040260200160405190810160405280939291908181526020018383808284375f9201829052509385525050426020840152506040808301919091526001606090920191909152600e54905163af947d0560e01b81529192506001600160a01b03169063af947d0590611f1190849060040161499f565b5f604051808303815f87803b158015611f28575f5ffd5b505af1158015611f3a573d5f5f3e3d5ffd5b50506040518492506001600160a01b03891691507f0ff8d95af74a8c072247e3c2b5e73ab929e2eb87e62682f83f5707bc5bc4a759905f90a3505050505050565b6011545f906060906001600160a01b0316611f94612f21565b6001600160a01b031614611fea5760405162461bcd60e51b815260206004820152601960248201527f4f6e6c7920686f742077616c6c65742063616e2072656c61790000000000000060448201526064016107fe565b84608001354211156120345760405162461bcd60e51b8152602060048201526013602482015272151c985b9cd858dd1a5bdb88195e1c1a5c9959606a1b60448201526064016107fe565b3061204560408701602088016141f6565b6001600160a01b03161461209b5760405162461bcd60e51b815260206004820152601760248201527f496e76616c69642074617267657420636f6e747261637400000000000000000060448201526064016107fe565b60145f6120ab60208801886141f6565b6001600160a01b03166001600160a01b031681526020019081526020015f205485606001351461210d5760405162461bcd60e51b815260206004820152600d60248201526c496e76616c6964206e6f6e636560981b60448201526064016107fe565b5f6121ce7ff6109b17bad5d696da1177c53dbf6b26362adb31d830c28e818ecc649963f42761213f60208901896141f6565b61214f60408a0160208b016141f6565b61215c60408b018b614f71565b60405161216a929190614fb3565b6040805191829003822060208301959095526001600160a01b0393841690820152911660608083019190915260808083019390935289013560a08201529088013560c082015260e001604051602081830303815290604052805190602001206131f3565b90505f6122108287878080601f0160208091040260200160405190810160405280939291908181526020018383808284375f9201919091525061321f92505050565b905061221f60208801886141f6565b6001600160a01b0316816001600160a01b0316146122735760405162461bcd60e51b8152602060048201526011602482015270496e76616c6964207369676e617475726560781b60448201526064016107fe565b6001600160a01b0381166122ba5760405162461bcd60e51b815260206004820152600e60248201526d24b73b30b634b21039b4b3b732b960911b60448201526064016107fe565b60145f6122ca60208a018a6141f6565b6001600160a01b0316815260208101919091526040015f9081208054916122f083614f59565b909155503090506123046040890189614f71565b61231160208b018b6141f6565b60405160200161232393929190614fc2565b60408051601f198184030181529082905261233d91614fff565b5f604051808303815f865af19150503d805f8114612376576040519150601f19603f3d011682016040523d82523d5f602084013e61237b565b606091505b5090945092505f600461239160408a018a614f71565b9050106124685760186123a760408a018a614f71565b60038181106123b8576123b8614e3e565b909101356001600160f81b03191690911c905060106123da60408b018b614f71565b60028181106123eb576123eb614e3e565b909101356001600160f81b03191690911c9050600861240d60408c018c614f71565b600181811061241e5761241e614e3e565b909101356001600160f81b03191690911c905061243e60408c018c614f71565b5f81811061244e5761244e614e3e565b9050013560f81c60f81b6001600160f81b03191617171790505b612470612f21565b6001600160a01b031661248660208a018a6141f6565b6001600160a01b03167f0d363f61fa19cc252cab2e447e0cea9813f68ab25df891aa540047efd799107d83888c606001356040516124e3939291906001600160e01b03199390931683529015156020830152604082015260600190565b60405180910390a3505050935093915050565b60606001805461071b90614844565b61250d612f6a565b60405163428178e160e11b81526001600160a01b03821660048201523090638502f1c2906024015f604051808303815f87803b15801561254b575f5ffd5b505af115801561255d573d5f5f3e3d5ffd5b5050604051637216ef1760e11b81526001600160a01b038416600482015230925063e42dde2e91506024015f604051808303815f87803b15801561259f575f5ffd5b505af11580156125b1573d5f5f3e3d5ffd5b5050505050565b6125c0612f6a565b6001600160a01b0381166126085760405162461bcd60e51b815260206004820152600f60248201526e496e76616c6964206164647265737360881b60448201526064016107fe565b601180546001600160a01b038381166001600160a01b0319831681179093556040519116919082907f6e73ffa1a8f189f9779dbf1c167b351dcf9278e2d77b08f45e0244a6d2d2a2b7905f90a35050565b6107d5612664612f21565b8383613247565b600e5460405163288c314960e21b81526001600160a01b0383811660048301525f92169063a230c524906024016113d5565b600b546001600160a01b03166126b1612f21565b6001600160a01b03161461271a5760405162461bcd60e51b815260206004820152602a60248201527f556e617574686f72697a65643a204f6e6c79206f776e65722063616e207570646044820152696174652073746174757360b01b60648201526084016107fe565b600e5460405163a6c6a8f360e01b8152600481018490525f916001600160a01b03169063a6c6a8f3906024015f60405180830381865afa158015612760573d5f5f3e3d5ffd5b505050506040513d5f823e601f3d908101601f191682016040526127879190810190615196565b80519091505f036127da5760405162461bcd60e51b815260206004820152601760248201527f496e636964656e7420646f6573206e6f7420657869737400000000000000000060448201526064016107fe565b8160ff1660028111156127ef576127ef61529c565b816080019060028111156128055761280561529c565b908160028111156128185761281861529c565b905250612823612f21565b6001600160a01b0390811660a0830152600e5460405163a599681f60e01b815291169063a599681f9061285a90849060040161531e565b5f604051808303815f87803b158015612871575f5ffd5b505af1158015612883573d5f5f3e3d5ffd5b5050505061288f612f21565b6001600160a01b0316837f1203445afe71a7457fedfe3ed5f7dfbcefac21aeacee1baf8af2b4639fbfdbeb8460405161163c919060ff91909116815260200190565b600b546001600160a01b03166128e5612f21565b6001600160a01b0316146129475760405162461bcd60e51b815260206004820152602360248201527f556e617574686f72697a65643a204f6e6c79206f776e65722063616e20726577604482015262185c9960ea1b60648201526084016107fe565b600f5461295e906001600160a01b03168483613000565b60408051828152602081018490526001600160a01b038516917f09bc545157f97ca1d7d6020a624c818e914739c4a4f4203f263439ed019ac270910160405180910390a2505050565b6129b28484846107d9565b6108686129bd612f21565b858585856132dd565b606061070782613404565b61123e612f6a565b600e54604051638bfeffe560e01b81526001600160a01b0383811660048301526060925f92911690638bfeffe5906024015f60405180830381865afa158015612a24573d5f5f3e3d5ffd5b505050506040513d5f823e601f3d908101601f19168201604052612a4b91908101906153ce565b509392505050565b612a5b612f6a565b600f546040516370a0823160e01b81523060048201525f916001600160a01b0316906370a0823190602401602060405180830381865afa158015612aa1573d5f5f3e3d5ffd5b505050506040513d601f19601f82011682018060405250810190612ac59190614ef6565b90505f8111612b165760405162461bcd60e51b815260206004820152601c60248201527f4e6f20746f6b656e2062616c616e636520746f207472616e736665720000000060448201526064016107fe565b600f5460405163a9059cbb60e01b81526001600160a01b038481166004830152602482018490525f92169063a9059cbb906044016020604051808303815f875af1158015612b66573d5f5f3e3d5ffd5b505050506040513d601f19601f82011682018060405250810190612b8a9190614b7b565b905080610af65760405162461bcd60e51b8152602060048201526015602482015274151bdad95b881d1c985b9cd9995c8819985a5b1959605a1b60448201526064016107fe565b6001600160a01b039182165f90815260056020908152604080832093909416825291909152205460ff1690565b5f612c07613507565b905090565b600e5460405163022b92c360e21b81526001600160a01b0383811660048301525f9216906308ae4b0c906024015f60405180830381865afa158015612c53573d5f5f3e3d5ffd5b505050506040513d5f823e601f3d908101601f19168201604052612c7a91908101906148e4565b6020015192915050565b600e54604080516305cc6a2d60e11b815290515f926001600160a01b031691630b98d45a916004808301926020929190829003018187875af1158015612ccc573d5f5f3e3d5ffd5b505050506040513d601f19601f82011682018060405250810190612cf09190614ef6565b90505f604051806101000160405280838152602001612d0d612f21565b6001600160a01b0316815260200187878080601f0160208091040260200160405190810160405280939291908181526020018383808284375f92018290525093855250504260208085019190915260408085018490526060850184905280518481529182019052608090930192919050612dc7565b612db460405180608001604052805f6001600160a01b031681526020015f815260200160608152602001606081525090565b815260200190600190039081612d825790505b508152602001612dd78587614a37565b9052600e5460405163a599681f60e01b81529192506001600160a01b03169063a599681f90612e0a90849060040161531e565b5f604051808303815f87803b158015612e21575f5ffd5b505af1158015612e33573d5f5f3e3d5ffd5b50505050612e3f612f21565b6001600160a01b0316827f159eae2587974b857c8b28d8d49d8cca50cc87fc9b0bd9bd76467f77aaf5c8b642604051612e7a91815260200190565b60405180910390a350949350505050565b612e93612f6a565b6001600160a01b038116612ebc57604051631e4fbdf760e01b81525f60048201526024016107fe565b610b0c81613098565b5f6001600160e01b03198216632483248360e11b1480610707575061070782613630565b5f818152600260205260408120546001600160a01b03168061070757604051637e27328960e01b8152600481018490526024016107fe565b5f3330148015612f32575060143610155b15612f44575060131936013560601c90565b503390565b610af68383836001613654565b5f612f62848484613758565b949350505050565b612f72612f21565b6001600160a01b0316612f8d600b546001600160a01b031690565b6001600160a01b03161461197357612fa3612f21565b60405163118cdaa760e01b81526001600160a01b0390911660048201526024016107fe565b5f612fd45f835f612f56565b90506001600160a01b0381166107d557604051637e27328960e01b8152600481018390526024016107fe565b6040516001600160a01b03838116602483015260448201839052610af691859182169063a9059cbb906064015b604051602081830303815290604052915060e01b6020820180516001600160e01b038381831617835250505050613823565b6040516001600160a01b0384811660248301528381166044830152606482018390526108689186918216906323b872dd9060840161302d565b600b80546001600160a01b038381166001600160a01b0319831681179093556040519116919082907f8be0079c531659141344cd1fd0a4f28419497f9722a3daafe3b4186f6b6457e0905f90a35050565b6060612c077f0000000000000000000000000000000000000000000000000000000000000000600c61388f565b6060612c077f0000000000000000000000000000000000000000000000000000000000000000600d61388f565b6001600160a01b03821661316c57604051633250574960e11b81525f60048201526024016107fe565b5f61317883835f612f56565b90506001600160a01b03811615610af6576040516339e3563760e11b81525f60048201526024016107fe565b5f828152600a602052604090206131bb8282615475565b506040518281527ff8e1a15aba9398e019f0b49df1a4fde98ee17ae345cb5f6b5e2c27f5033e8ce79060200160405180910390a15050565b5f6107076131ff613507565b8360405161190160f01b8152600281019290925260228201526042902090565b5f5f5f5f61322d8686613938565b92509250925061323d8282613981565b5090949350505050565b6001600160a01b03821661327957604051630b61174360e31b81526001600160a01b03831660048201526024016107fe565b6001600160a01b038381165f81815260056020908152604080832094871680845294825291829020805460ff191686151590811790915591519182527f17307eab39ab6107e8899845ad3d59bd9653f200f220920489ca2b5937696c31910161163c565b6001600160a01b0383163b156125b157604051630a85bd0160e11b81526001600160a01b0384169063150b7a029061331f90889088908790879060040161552f565b6020604051808303815f875af1925050508015613359575060408051601f3d908101601f191682019092526133569181019061556b565b60015b6133c0573d808015613386576040519150601f19603f3d011682016040523d82523d5f602084013e61338b565b606091505b5080515f036133b857604051633250574960e11b81526001600160a01b03851660048201526024016107fe565b805160208201fd5b6001600160e01b03198116630a85bd0160e11b146133fc57604051633250574960e11b81526001600160a01b03851660048201526024016107fe565b505050505050565b606061340f82612ee9565b505f828152600a60205260408120805461342890614844565b80601f016020809104026020016040519081016040528092919081815260200182805461345490614844565b801561349f5780601f106134765761010080835404028352916020019161349f565b820191905f5260205f20905b81548152906001019060200180831161348257829003601f168201915b505050505090505f6134bb60408051602081019091525f815290565b905080515f036134cc575092915050565b8151156134fe5780826040516020016134e6929190615586565b60405160208183030381529060405292505050919050565b612f6284613a39565b5f306001600160a01b037f00000000000000000000000000000000000000000000000000000000000000001614801561355f57507f000000000000000000000000000000000000000000000000000000000000000046145b1561358957507f000000000000000000000000000000000000000000000000000000000000000090565b612c07604080517f8b73c3c69bb8fe3d512ecc4cf759cc79239f7b179b0ffacaa9a75d522b39400f60208201527f0000000000000000000000000000000000000000000000000000000000000000918101919091527f000000000000000000000000000000000000000000000000000000000000000060608201524660808201523060a08201525f9060c00160405160208183030381529060405280519060200120905090565b5f6001600160e01b0319821663780e9d6360e01b1480610707575061070782613aaa565b808061366857506001600160a01b03821615155b15613729575f61367784612ee9565b90506001600160a01b038316158015906136a35750826001600160a01b0316816001600160a01b031614155b80156136b657506136b48184612bd1565b155b156136df5760405163a9fbf51f60e01b81526001600160a01b03841660048201526024016107fe565b81156137275783856001600160a01b0316826001600160a01b03167f8c5be1e5ebec7d5bd14f71427d1e84f3dd0314c0f7b2291e5b200ac8c7c3b92560405160405180910390a45b505b50505f90815260046020526040902080546001600160a01b0319166001600160a01b0392909216919091179055565b5f5f613765858585613af9565b90506001600160a01b0381166137c1576137bc84600880545f838152600960205260408120829055600182018355919091527ff3f7a9fe364faab93b216da50a3214154f22a0a2b415b23a84c8169e8b636ee30155565b6137e4565b846001600160a01b0316816001600160a01b0316146137e4576137e48185613beb565b6001600160a01b038516613800576137fb84613c68565b612f62565b846001600160a01b0316816001600160a01b031614612f6257612f628585613d0f565b5f5f60205f8451602086015f885af180613842576040513d5f823e3d81fd5b50505f513d91508115613859578060011415613866565b6001600160a01b0384163b155b1561086857604051635274afe760e01b81526001600160a01b03851660048201526024016107fe565b606060ff83146138a9576138a283613d5d565b9050610707565b8180546138b590614844565b80601f01602080910402602001604051908101604052809291908181526020018280546138e190614844565b801561392c5780601f106139035761010080835404028352916020019161392c565b820191905f5260205f20905b81548152906001019060200180831161390f57829003601f168201915b50505050509050610707565b5f5f5f835160410361396f576020840151604085015160608601515f1a61396188828585613d9a565b95509550955050505061397a565b505081515f91506002905b9250925092565b5f8260038111156139945761399461529c565b0361399d575050565b60018260038111156139b1576139b161529c565b036139cf5760405163f645eedf60e01b815260040160405180910390fd5b60028260038111156139e3576139e361529c565b03613a045760405163fce698f760e01b8152600481018290526024016107fe565b6003826003811115613a1857613a1861529c565b036107d5576040516335e2f38360e21b8152600481018290526024016107fe565b6060613a4482612ee9565b505f613a5a60408051602081019091525f815290565b90505f815111613a785760405180602001604052805f815250613aa3565b80613a8284613e62565b604051602001613a93929190615586565b6040516020818303038152906040525b9392505050565b5f6001600160e01b031982166380ac58cd60e01b1480613ada57506001600160e01b03198216635b5e139f60e01b145b8061070757506301ffc9a760e01b6001600160e01b0319831614610707565b5f828152600260205260408120546001600160a01b0390811690831615613b2557613b25818486613ef1565b6001600160a01b03811615613b5f57613b405f855f5f613654565b6001600160a01b0381165f90815260036020526040902080545f190190555b6001600160a01b03851615613b8d576001600160a01b0385165f908152600360205260409020805460010190555b5f8481526002602052604080822080546001600160a01b0319166001600160a01b0389811691821790925591518793918516917fddf252ad1be2c89b69c2b068fc378daa952ba7f163c4a11628f55a4df523b3ef91a4949350505050565b5f613bf58361191d565b5f838152600760209081526040808320546001600160a01b0388168452600690925290912091925090818314613c4a575f83815260208281526040808320548584528184208190558352600790915290208290555b5f938452600760209081526040808620869055938552525081205550565b6008545f90613c799060019061559a565b5f8381526009602052604081205460088054939450909284908110613ca057613ca0614e3e565b905f5260205f20015490508060088381548110613cbf57613cbf614e3e565b5f918252602080832090910192909255828152600990915260408082208490558582528120556008805480613cf657613cf66155ad565b600190038181905f5260205f20015f9055905550505050565b5f6001613d1b8461191d565b613d25919061559a565b6001600160a01b039093165f908152600660209081526040808320868452825280832085905593825260079052919091209190915550565b60605f613d6983613f55565b6040805160208082528183019092529192505f91906020820181803683375050509182525060208101929092525090565b5f80807f7fffffffffffffffffffffffffffffff5d576e7357a4501ddfe92f46681b20a0841115613dd357505f91506003905082613e58565b604080515f808252602082018084528a905260ff891692820192909252606081018790526080810186905260019060a0016020604051602081039080840390855afa158015613e24573d5f5f3e3d5ffd5b5050604051601f1901519150506001600160a01b038116613e4f57505f925060019150829050613e58565b92505f91508190505b9450945094915050565b60605f613e6e83613f7c565b60010190505f816001600160401b03811115613e8c57613e8c61461a565b6040519080825280601f01601f191660200182016040528015613eb6576020820181803683370190505b5090508181016020015b5f19016f181899199a1a9b1b9c1cb0b131b232b360811b600a86061a8153600a8504945084613ec057509392505050565b613efc838383614053565b610af6576001600160a01b038316613f2a57604051637e27328960e01b8152600481018290526024016107fe565b60405163177e802f60e01b81526001600160a01b0383166004820152602481018290526044016107fe565b5f60ff8216601f81111561070757604051632cd44ac360e21b815260040160405180910390fd5b5f8072184f03e93ff9f4daa797ed6e38ed64bf6a1f0160401b8310613fba5772184f03e93ff9f4daa797ed6e38ed64bf6a1f0160401b830492506040015b6d04ee2d6d415b85acef81000000008310613fe6576d04ee2d6d415b85acef8100000000830492506020015b662386f26fc10000831061400457662386f26fc10000830492506010015b6305f5e100831061401c576305f5e100830492506008015b612710831061403057612710830492506004015b60648310614042576064830492506002015b600a83106107075760010192915050565b5f6001600160a01b03831615801590612f625750826001600160a01b0316846001600160a01b0316148061408c575061408c8484612bd1565b80612f625750505f908152600460205260409020546001600160a01b03908116911614919050565b6001600160e01b031981168114610b0c575f5ffd5b5f602082840312156140d9575f5ffd5b8135613aa3816140b4565b5f81518084528060208401602086015e5f602082860101526020601f19601f83011685010191505092915050565b602081525f613aa360208301846140e4565b5f60208284031215614134575f5ffd5b5035919050565b6001600160a01b0381168114610b0c575f5ffd5b5f5f60408385031215614160575f5ffd5b823561416b8161413b565b946020939093013593505050565b5f5f5f6060848603121561418b575f5ffd5b83356141968161413b565b925060208401356141a68161413b565b929592945050506040919091013590565b5f5f5f606084860312156141c9575f5ffd5b83356141d48161413b565b92506020840135915060408401356141eb8161413b565b809150509250925092565b5f60208284031215614206575f5ffd5b8135613aa38161413b565b5f5f60408385031215614222575f5ffd5b823561422d8161413b565b9150602083013561423d8161413b565b809150509250929050565b5f5f83601f840112614258575f5ffd5b5081356001600160401b0381111561426e575f5ffd5b602083019150836020828501011115614285575f5ffd5b9250929050565b5f5f83601f84011261429c575f5ffd5b5081356001600160401b038111156142b2575f5ffd5b6020830191508360208260051b8501011115614285575f5ffd5b5f5f5f5f5f606086880312156142e0575f5ffd5b8535945060208601356001600160401b038111156142fc575f5ffd5b61430888828901614248565b90955093505060408601356001600160401b03811115614326575f5ffd5b6143328882890161428c565b969995985093965092949392505050565b5f5f5f60408486031215614355575f5ffd5b83356143608161413b565b925060208401356001600160401b0381111561437a575f5ffd5b61438686828701614248565b9497909650939450505050565b5f5f604083850312156143a4575f5ffd5b82359150602083013561423d8161413b565b8015158114610b0c575f5ffd5b5f5f5f5f5f5f60a087890312156143d8575f5ffd5b86356143e38161413b565b955060208701356143f38161413b565b945060408701356001600160401b0381111561440d575f5ffd5b61441989828a01614248565b909550935050606087013591506080870135614434816143b6565b809150509295509295509295565b5f8151808452602084019350602083015f5b82811015614472578151865260209586019590910190600101614454565b5093949350505050565b60ff60f81b8816815260e060208201525f61449a60e08301896140e4565b82810360408401526144ac81896140e4565b606084018890526001600160a01b038716608085015260a0840186905283810360c085015290506144dd8185614442565b9a9950505050505050505050565b5f5f5f5f606085870312156144fe575f5ffd5b84356145098161413b565b935060208501356001600160401b03811115614523575f5ffd5b61452f87828801614248565b9598909750949560400135949350505050565b5f5f5f60408486031215614554575f5ffd5b83356001600160401b03811115614569575f5ffd5b840160a08187031215614360575f5ffd5b8215158152604060208201525f612f6260408301846140e4565b5f5f604083850312156145a5575f5ffd5b82356145b08161413b565b9150602083013561423d816143b6565b5f5f604083850312156145d1575f5ffd5b82359150602083013560ff8116811461423d575f5ffd5b5f5f5f606084860312156145fa575f5ffd5b83356146058161413b565b95602085013595506040909401359392505050565b634e487b7160e01b5f52604160045260245ffd5b60405160e081016001600160401b03811182821017156146505761465061461a565b60405290565b60405160c081016001600160401b03811182821017156146505761465061461a565b60405161010081016001600160401b03811182821017156146505761465061461a565b604051608081016001600160401b03811182821017156146505761465061461a565b604051601f8201601f191681016001600160401b03811182821017156146e5576146e561461a565b604052919050565b5f6001600160401b038211156147055761470561461a565b50601f01601f191660200190565b5f614725614720846146ed565b6146bd565b9050828152838383011115614738575f5ffd5b828260208301375f602084830101529392505050565b5f5f5f5f60808587031215614761575f5ffd5b843561476c8161413b565b9350602085013561477c8161413b565b92506040850135915060608501356001600160401b0381111561479d575f5ffd5b8501601f810187136147ad575f5ffd5b6147bc87823560208401614713565b91505092959194509250565b602081525f613aa36020830184614442565b5f5f5f5f604085870312156147ed575f5ffd5b84356001600160401b03811115614802575f5ffd5b61480e87828801614248565b90955093505060208501356001600160401b0381111561482c575f5ffd5b6148388782880161428c565b95989497509550505050565b600181811c9082168061485857607f821691505b60208210810361487657634e487b7160e01b5f52602260045260245ffd5b50919050565b80516148878161413b565b919050565b5f82601f83011261489b575f5ffd5b81516148a9614720826146ed565b8181528460208386010111156148bd575f5ffd5b8160208501602083015e5f918101602001919091529392505050565b8051614887816143b6565b5f602082840312156148f4575f5ffd5b81516001600160401b03811115614909575f5ffd5b820160e0818503121561491a575f5ffd5b61492261462e565b61492b8261487c565b81526149396020830161487c565b60208201526040828101519082015260608201516001600160401b03811115614960575f5ffd5b61496c8682850161488c565b6060830152506080828101519082015260a0808301519082015261499260c083016148d9565b60c0820152949350505050565b6020815260018060a01b03825116602082015260018060a01b036020830151166040820152604082015160608201525f606083015160e060808401526149e96101008401826140e4565b9050608084015160a084015260a084015160c084015260c0840151151560e08401528091505092915050565b5f6001600160401b03821115614a2d57614a2d61461a565b5060051b60200190565b5f614a4461472084614a15565b8381526020810190600585901b840136811115614a5f575f5ffd5b845b81811015614aac5780356001600160401b03811115614a7e575f5ffd5b860136601f820112614a8e575f5ffd5b614a9d36823560208401614713565b85525060209384019301614a61565b509095945050505050565b5f82825180855260208501945060208160051b830101602085015f5b83811015614b0557601f19858403018852614aef8383516140e4565b6020988901989093509190910190600101614ad3565b50909695505050505050565b60018060a01b038151168252602081015160208301525f604082015160806040850152614b4160808501826140e4565b905060608301518482036060860152614b5a8282614ab7565b95945050505050565b828152604060208201525f612f626040830184614b11565b5f60208284031215614b8b575f5ffd5b8151613aa3816143b6565b5f82601f830112614ba5575f5ffd5b8151614bb361472082614a15565b8082825260208201915060208360051b860101925085831115614bd4575f5ffd5b602085015b83811015614bf1578051835260209283019201614bd9565b5095945050505050565b5f60208284031215614c0b575f5ffd5b81516001600160401b03811115614c20575f5ffd5b820160c08185031215614c31575f5ffd5b614c39614656565b614c428261487c565b815260208201516001600160401b03811115614c5c575f5ffd5b614c6886828501614b96565b60208301525060408201516001600160401b03811115614c86575f5ffd5b614c928682850161488c565b6040830152506060828101519082015260808083015190820152614cb860a083016148d9565b60a0820152949350505050565b5f60208284031215614cd5575f5ffd5b81516001600160401b03811115614cea575f5ffd5b82016101008185031215614cfc575f5ffd5b614d04614678565b81518152614d146020830161487c565b6020820152614d256040830161487c565b604082015260608201516001600160401b03811115614d42575f5ffd5b614d4e8682850161488c565b6060830152506080828101519082015260a08083015190820152614d7460c083016148d9565b60c082015260e091820151918101919091529392505050565b602081528151602082015260018060a01b03602083015116604082015260018060a01b0360408301511660608201525f60608301516101006080840152614dd86101208401826140e4565b9050608084015160a084015260a084015160c084015260c0840151614e0160e085018215159052565b5060e08401516101008401528091505092915050565b634e487b7160e01b5f52601160045260245ffd5b8082018082111561070757610707614e17565b634e487b7160e01b5f52603260045260245ffd5b602080825282516001600160a01b0316828201528281015160c06040840152805160e084018190525f92919091019082906101008501905b80831015614ead5783518252602082019150602084019350600183019250614e8a565b506040860151858203601f190160608701529250614ecb81846140e4565b9250505060608401516080840152608084015160a084015260a0840151612a4b60c085018215159052565b5f60208284031215614f06575f5ffd5b5051919050565b5f60208284031215614f1d575f5ffd5b8151613aa38161413b565b5f60208284031215614f38575f5ffd5b81516001600160401b03811115614f4d575f5ffd5b612f628482850161488c565b5f60018201614f6a57614f6a614e17565b5060010190565b5f5f8335601e19843603018112614f86575f5ffd5b8301803591506001600160401b03821115614f9f575f5ffd5b602001915036819003821315614285575f5ffd5b818382375f9101908152919050565b8284823760609190911b6bffffffffffffffffffffffff19169101908152601401919050565b5f81518060208401855e5f93019283525090919050565b5f613aa38284614fe8565b805160038110614887575f5ffd5b5f82601f830112615027575f5ffd5b815161503561472082614a15565b8082825260208201915060208360051b860101925085831115615056575f5ffd5b602085015b83811015614bf15780516001600160401b03811115615078575f5ffd5b615087886020838a010161488c565b8452506020928301920161505b565b5f82601f8301126150a5575f5ffd5b81516150b361472082614a15565b8082825260208201915060208360051b8601019250858311156150d4575f5ffd5b602085015b83811015614bf15780516001600160401b038111156150f6575f5ffd5b86016080818903601f1901121561510b575f5ffd5b61511361469b565b60208201516151218161413b565b81526040820151602082015260608201516001600160401b03811115615145575f5ffd5b6151548a60208386010161488c565b60408301525060808201516001600160401b03811115615172575f5ffd5b6151818a602083860101615018565b606083015250845250602092830192016150d9565b5f602082840312156151a6575f5ffd5b81516001600160401b038111156151bb575f5ffd5b820161010081850312156151cd575f5ffd5b6151d5614678565b815181526151e56020830161487c565b602082015260408201516001600160401b03811115615202575f5ffd5b61520e8682850161488c565b6040830152506060828101519082015261522a6080830161500a565b608082015261523b60a0830161487c565b60a082015260c08201516001600160401b03811115615258575f5ffd5b61526486828501615096565b60c08301525060e08201516001600160401b03811115615282575f5ffd5b61528e86828501615018565b60e083015250949350505050565b634e487b7160e01b5f52602160045260245ffd5b600381106152cc57634e487b7160e01b5f52602160045260245ffd5b9052565b5f82825180855260208501945060208160051b830101602085015f5b83811015614b0557601f19858403018852615308838351614b11565b60209889019890935091909101906001016152ec565b60208152815160208201525f602083015161534460408401826001600160a01b03169052565b50604083015161010060608401526153606101208401826140e4565b905060608401516080840152608084015161537e60a08501826152b0565b5060a08401516001600160a01b03811660c08501525060c0840151838203601f190160e08501526153af82826152d0565b91505060e0840151601f1984830301610100850152614b5a8282614ab7565b5f5f604083850312156153df575f5ffd5b82516001600160401b038111156153f4575f5ffd5b61540085828601614b96565b92505060208301516001600160401b0381111561541b575f5ffd5b61542785828601614b96565b9150509250929050565b601f821115610af657805f5260205f20601f840160051c810160208510156154565750805b601f840160051c820191505b818110156125b1575f8155600101615462565b81516001600160401b0381111561548e5761548e61461a565b6154a28161549c8454614844565b84615431565b6020601f8211600181146154d4575f83156154bd5750848201515b5f19600385901b1c1916600184901b1784556125b1565b5f84815260208120601f198516915b8281101561550357878501518255602094850194600190920191016154e3565b508482101561552057868401515f19600387901b60f8161c191681555b50505050600190811b01905550565b6001600160a01b03858116825284166020820152604081018390526080606082018190525f90615561908301846140e4565b9695505050505050565b5f6020828403121561557b575f5ffd5b8151613aa3816140b4565b5f612f626155948386614fe8565b84614fe8565b8181038181111561070757610707614e17565b634e487b7160e01b5f52603160045260245ffdfea2646970667358221220ec7ff16a4ef6af2cb478db76544a7d239b75e945c9c83755ec43fce22450f38664736f6c634300081e0033",
			"opcodes": "PUSH2 0x160 PUSH1 0x40 MSTORE PUSH1 0x1 PUSH1 0x12 SSTORE CALLVALUE DUP1 ISZERO PUSH2 0x15 JUMPI PUSH0 PUSH0 REVERT JUMPDEST POP PUSH1 0x40 MLOAD PUSH2 0x5BB2 CODESIZE SUB DUP1 PUSH2 0x5BB2 DUP4 CODECOPY DUP2 ADD PUSH1 0x40 DUP2 SWAP1 MSTORE PUSH2 0x34 SWAP2 PUSH2 0x366 JUMP JUMPDEST PUSH1 0x40 MLOAD DUP1 PUSH1 0x40 ADD PUSH1 0x40 MSTORE DUP1 PUSH1 0xC DUP2 MSTORE PUSH1 0x20 ADD PUSH12 0x1418591A541C9BDD1BD8DBDB PUSH1 0xA2 SHL DUP2 MSTORE POP PUSH1 0x40 MLOAD DUP1 PUSH1 0x40 ADD PUSH1 0x40 MSTORE DUP1 PUSH1 0x1 DUP2 MSTORE PUSH1 0x20 ADD PUSH1 0x31 PUSH1 0xF8 SHL DUP2 MSTORE POP PUSH2 0x81 PUSH2 0x263 PUSH1 0x20 SHL PUSH1 0x20 SHR JUMP JUMPDEST PUSH1 0x40 MLOAD DUP1 PUSH1 0x40 ADD PUSH1 0x40 MSTORE DUP1 PUSH1 0xF DUP2 MSTORE PUSH1 0x20 ADD PUSH15 0x50616469204D656D6265727368697 PUSH1 0x8C SHL DUP2 MSTORE POP PUSH1 0x40 MLOAD DUP1 PUSH1 0x40 ADD PUSH1 0x40 MSTORE DUP1 PUSH1 0x4 DUP2 MSTORE PUSH1 0x20 ADD PUSH4 0x50414449 PUSH1 0xE0 SHL DUP2 MSTORE POP DUP2 PUSH0 SWAP1 DUP2 PUSH2 0xD4 SWAP2 SWAP1 PUSH2 0x458 JUMP JUMPDEST POP PUSH1 0x1 PUSH2 0xE1 DUP3 DUP3 PUSH2 0x458 JUMP JUMPDEST POP POP POP PUSH1 0x1 PUSH1 0x1 PUSH1 0xA0 SHL SUB DUP2 AND PUSH2 0x112 JUMPI PUSH1 0x40 MLOAD PUSH4 0x1E4FBDF7 PUSH1 0xE0 SHL DUP2 MSTORE PUSH0 PUSH1 0x4 DUP3 ADD MSTORE PUSH1 0x24 ADD JUMPDEST PUSH1 0x40 MLOAD DUP1 SWAP2 SUB SWAP1 REVERT JUMPDEST PUSH2 0x11B DUP2 PUSH2 0x28B JUMP JUMPDEST POP PUSH2 0x127 DUP3 PUSH1 0xC PUSH2 0x2DC JUMP JUMPDEST PUSH2 0x120 MSTORE PUSH2 0x136 DUP2 PUSH1 0xD PUSH2 0x2DC JUMP JUMPDEST PUSH2 0x140 MSTORE DUP2 MLOAD PUSH1 0x20 DUP1 DUP5 ADD SWAP2 SWAP1 SWAP2 KECCAK256 PUSH1 0xE0 MSTORE DUP2 MLOAD SWAP1 DUP3 ADD KECCAK256 PUSH2 0x100 MSTORE CHAINID PUSH1 0xA0 MSTORE PUSH2 0x1C2 PUSH1 0xE0 MLOAD PUSH2 0x100 MLOAD PUSH1 0x40 DUP1 MLOAD PUSH32 0x8B73C3C69BB8FE3D512ECC4CF759CC79239F7B179B0FFACAA9A75D522B39400F PUSH1 0x20 DUP3 ADD MSTORE SWAP1 DUP2 ADD SWAP3 SWAP1 SWAP3 MSTORE PUSH1 0x60 DUP3 ADD MSTORE CHAINID PUSH1 0x80 DUP3 ADD MSTORE ADDRESS PUSH1 0xA0 DUP3 ADD MSTORE PUSH0 SWAP1 PUSH1 0xC0 ADD PUSH1 0x40 MLOAD PUSH1 0x20 DUP2 DUP4 SUB SUB DUP2 MSTORE SWAP1 PUSH1 0x40 MSTORE DUP1 MLOAD SWAP1 PUSH1 0x20 ADD KECCAK256 SWAP1 POP SWAP1 JUMP JUMPDEST PUSH1 0x80 MSTORE POP POP ADDRESS PUSH1 0xC0 MSTORE PUSH1 0xE DUP1 SLOAD PUSH1 0x1 PUSH1 0x1 PUSH1 0xA0 SHL SUB DUP8 DUP2 AND PUSH1 0x1 PUSH1 0x1 PUSH1 0xA0 SHL SUB NOT SWAP3 DUP4 AND OR SWAP1 SWAP3 SSTORE PUSH1 0xF DUP1 SLOAD DUP8 DUP5 AND SWAP1 DUP4 AND OR SWAP1 SSTORE PUSH1 0x10 DUP1 SLOAD DUP7 DUP5 AND SWAP1 DUP4 AND OR SWAP1 SSTORE PUSH1 0x13 DUP5 SWAP1 SSTORE PUSH1 0x11 DUP1 SLOAD SWAP3 DUP5 AND SWAP3 SWAP1 SWAP2 AND DUP3 OR SWAP1 SSTORE PUSH2 0x259 JUMPI PUSH1 0x40 MLOAD PUSH3 0x461BCD PUSH1 0xE5 SHL DUP2 MSTORE PUSH1 0x20 PUSH1 0x4 DUP3 ADD MSTORE PUSH1 0x12 PUSH1 0x24 DUP3 ADD MSTORE PUSH18 0x125B9D985B1A59081A1BDD081DD85B1B195D PUSH1 0x72 SHL PUSH1 0x44 DUP3 ADD MSTORE PUSH1 0x64 ADD PUSH2 0x109 JUMP JUMPDEST POP POP POP POP POP PUSH2 0x56A JUMP JUMPDEST PUSH0 CALLER ADDRESS EQ DUP1 ISZERO PUSH2 0x274 JUMPI POP PUSH1 0x14 CALLDATASIZE LT ISZERO JUMPDEST ISZERO PUSH2 0x286 JUMPI POP PUSH1 0x13 NOT CALLDATASIZE ADD CALLDATALOAD PUSH1 0x60 SHR SWAP1 JUMP JUMPDEST POP CALLER SWAP1 JUMP JUMPDEST PUSH1 0xB DUP1 SLOAD PUSH1 0x1 PUSH1 0x1 PUSH1 0xA0 SHL SUB DUP4 DUP2 AND PUSH1 0x1 PUSH1 0x1 PUSH1 0xA0 SHL SUB NOT DUP4 AND DUP2 OR SWAP1 SWAP4 SSTORE PUSH1 0x40 MLOAD SWAP2 AND SWAP2 SWAP1 DUP3 SWAP1 PUSH32 0x8BE0079C531659141344CD1FD0A4F28419497F9722A3DAAFE3B4186F6B6457E0 SWAP1 PUSH0 SWAP1 LOG3 POP POP JUMP JUMPDEST PUSH0 PUSH1 0x20 DUP4 MLOAD LT ISZERO PUSH2 0x2F7 JUMPI PUSH2 0x2F0 DUP4 PUSH2 0x30E JUMP JUMPDEST SWAP1 POP PUSH2 0x308 JUMP JUMPDEST DUP2 PUSH2 0x302 DUP5 DUP3 PUSH2 0x458 JUMP JUMPDEST POP PUSH1 0xFF SWAP1 POP JUMPDEST SWAP3 SWAP2 POP POP JUMP JUMPDEST PUSH0 PUSH0 DUP3 SWAP1 POP PUSH1 0x1F DUP2 MLOAD GT ISZERO PUSH2 0x338 JUMPI DUP3 PUSH1 0x40 MLOAD PUSH4 0x305A27A9 PUSH1 0xE0 SHL DUP2 MSTORE PUSH1 0x4 ADD PUSH2 0x109 SWAP2 SWAP1 PUSH2 0x512 JUMP JUMPDEST DUP1 MLOAD PUSH2 0x343 DUP3 PUSH2 0x547 JUMP JUMPDEST OR SWAP4 SWAP3 POP POP POP JUMP JUMPDEST DUP1 MLOAD PUSH1 0x1 PUSH1 0x1 PUSH1 0xA0 SHL SUB DUP2 AND DUP2 EQ PUSH2 0x361 JUMPI PUSH0 PUSH0 REVERT JUMPDEST SWAP2 SWAP1 POP JUMP JUMPDEST PUSH0 PUSH0 PUSH0 PUSH0 PUSH0 PUSH1 0xA0 DUP7 DUP9 SUB SLT ISZERO PUSH2 0x37A JUMPI PUSH0 PUSH0 REVERT JUMPDEST PUSH2 0x383 DUP7 PUSH2 0x34B JUMP JUMPDEST SWAP5 POP PUSH2 0x391 PUSH1 0x20 DUP8 ADD PUSH2 0x34B JUMP JUMPDEST SWAP4 POP PUSH2 0x39F PUSH1 0x40 DUP8 ADD PUSH2 0x34B JUMP JUMPDEST SWAP3 POP PUSH1 0x60 DUP7 ADD MLOAD SWAP2 POP PUSH2 0x3B4 PUSH1 0x80 DUP8 ADD PUSH2 0x34B JUMP JUMPDEST SWAP1 POP SWAP3 SWAP6 POP SWAP3 SWAP6 SWAP1 SWAP4 POP JUMP JUMPDEST PUSH4 0x4E487B71 PUSH1 0xE0 SHL PUSH0 MSTORE PUSH1 0x41 PUSH1 0x4 MSTORE PUSH1 0x24 PUSH0 REVERT JUMPDEST PUSH1 0x1 DUP2 DUP2 SHR SWAP1 DUP3 AND DUP1 PUSH2 0x3E8 JUMPI PUSH1 0x7F DUP3 AND SWAP2 POP JUMPDEST PUSH1 0x20 DUP3 LT DUP2 SUB PUSH2 0x406 JUMPI PUSH4 0x4E487B71 PUSH1 0xE0 SHL PUSH0 MSTORE PUSH1 0x22 PUSH1 0x4 MSTORE PUSH1 0x24 PUSH0 REVERT JUMPDEST POP SWAP2 SWAP1 POP JUMP JUMPDEST PUSH1 0x1F DUP3 GT ISZERO PUSH2 0x453 JUMPI DUP1 PUSH0 MSTORE PUSH1 0x20 PUSH0 KECCAK256 PUSH1 0x1F DUP5 ADD PUSH1 0x5 SHR DUP2 ADD PUSH1 0x20 DUP6 LT ISZERO PUSH2 0x431 JUMPI POP DUP1 JUMPDEST PUSH1 0x1F DUP5 ADD PUSH1 0x5 SHR DUP3 ADD SWAP2 POP JUMPDEST DUP2 DUP2 LT ISZERO PUSH2 0x450 JUMPI PUSH0 DUP2 SSTORE PUSH1 0x1 ADD PUSH2 0x43D JUMP JUMPDEST POP POP JUMPDEST POP POP POP JUMP JUMPDEST DUP2 MLOAD PUSH1 0x1 PUSH1 0x1 PUSH1 0x40 SHL SUB DUP2 GT ISZERO PUSH2 0x471 JUMPI PUSH2 0x471 PUSH2 0x3C0 JUMP JUMPDEST PUSH2 0x485 DUP2 PUSH2 0x47F DUP5 SLOAD PUSH2 0x3D4 JUMP JUMPDEST DUP5 PUSH2 0x40C JUMP JUMPDEST PUSH1 0x20 PUSH1 0x1F DUP3 GT PUSH1 0x1 DUP2 EQ PUSH2 0x4B7 JUMPI PUSH0 DUP4 ISZERO PUSH2 0x4A0 JUMPI POP DUP5 DUP3 ADD MLOAD JUMPDEST PUSH0 NOT PUSH1 0x3 DUP6 SWAP1 SHL SHR NOT AND PUSH1 0x1 DUP5 SWAP1 SHL OR DUP5 SSTORE PUSH2 0x450 JUMP JUMPDEST PUSH0 DUP5 DUP2 MSTORE PUSH1 0x20 DUP2 KECCAK256 PUSH1 0x1F NOT DUP6 AND SWAP2 JUMPDEST DUP3 DUP2 LT ISZERO PUSH2 0x4E6 JUMPI DUP8 DUP6 ADD MLOAD DUP3 SSTORE PUSH1 0x20 SWAP5 DUP6 ADD SWAP5 PUSH1 0x1 SWAP1 SWAP3 ADD SWAP2 ADD PUSH2 0x4C6 JUMP JUMPDEST POP DUP5 DUP3 LT ISZERO PUSH2 0x503 JUMPI DUP7 DUP5 ADD MLOAD PUSH0 NOT PUSH1 0x3 DUP8 SWAP1 SHL PUSH1 0xF8 AND SHR NOT AND DUP2 SSTORE JUMPDEST POP POP POP POP PUSH1 0x1 SWAP1 DUP2 SHL ADD SWAP1 SSTORE POP JUMP JUMPDEST PUSH1 0x20 DUP2 MSTORE PUSH0 DUP3 MLOAD DUP1 PUSH1 0x20 DUP5 ADD MSTORE DUP1 PUSH1 0x20 DUP6 ADD PUSH1 0x40 DUP6 ADD MCOPY PUSH0 PUSH1 0x40 DUP3 DUP6 ADD ADD MSTORE PUSH1 0x40 PUSH1 0x1F NOT PUSH1 0x1F DUP4 ADD AND DUP5 ADD ADD SWAP2 POP POP SWAP3 SWAP2 POP POP JUMP JUMPDEST DUP1 MLOAD PUSH1 0x20 DUP1 DUP4 ADD MLOAD SWAP2 SWAP1 DUP2 LT ISZERO PUSH2 0x406 JUMPI PUSH0 NOT PUSH1 0x20 SWAP2 SWAP1 SWAP2 SUB PUSH1 0x3 SHL SHL AND SWAP2 SWAP1 POP JUMP JUMPDEST PUSH1 0x80 MLOAD PUSH1 0xA0 MLOAD PUSH1 0xC0 MLOAD PUSH1 0xE0 MLOAD PUSH2 0x100 MLOAD PUSH2 0x120 MLOAD PUSH2 0x140 MLOAD PUSH2 0x55F7 PUSH2 0x5BB PUSH0 CODECOPY PUSH0 PUSH2 0x311D ADD MSTORE PUSH0 PUSH2 0x30F0 ADD MSTORE PUSH0 PUSH2 0x35E0 ADD MSTORE PUSH0 PUSH2 0x35B8 ADD MSTORE PUSH0 PUSH2 0x3513 ADD MSTORE PUSH0 PUSH2 0x353D ADD MSTORE PUSH0 PUSH2 0x3567 ADD MSTORE PUSH2 0x55F7 PUSH0 RETURN INVALID PUSH1 0x80 PUSH1 0x40 MSTORE CALLVALUE DUP1 ISZERO PUSH2 0xF JUMPI PUSH0 PUSH0 REVERT JUMPDEST POP PUSH1 0x4 CALLDATASIZE LT PUSH2 0x2E5 JUMPI PUSH0 CALLDATALOAD PUSH1 0xE0 SHR DUP1 PUSH4 0x70A08231 GT PUSH2 0x195 JUMPI DUP1 PUSH4 0xA230C524 GT PUSH2 0xE4 JUMPI DUP1 PUSH4 0xE1A9ABF1 GT PUSH2 0x9E JUMPI DUP1 PUSH4 0xED24911D GT PUSH2 0x79 JUMPI DUP1 PUSH4 0xED24911D EQ PUSH2 0x6BC JUMPI DUP1 PUSH4 0xEDD501FA EQ PUSH2 0x6C4 JUMPI DUP1 PUSH4 0xF08AA69F EQ PUSH2 0x6D7 JUMPI DUP1 PUSH4 0xF2FDE38B EQ PUSH2 0x6EA JUMPI PUSH0 PUSH0 REVERT JUMPDEST DUP1 PUSH4 0xE1A9ABF1 EQ PUSH2 0x676 JUMPI DUP1 PUSH4 0xE42DDE2E EQ PUSH2 0x696 JUMPI DUP1 PUSH4 0xE985E9C5 EQ PUSH2 0x6A9 JUMPI PUSH0 PUSH0 REVERT JUMPDEST DUP1 PUSH4 0xA230C524 EQ PUSH2 0x604 JUMPI DUP1 PUSH4 0xA3F8D8ED EQ PUSH2 0x617 JUMPI DUP1 PUSH4 0xAA9AA17A EQ PUSH2 0x62A JUMPI DUP1 PUSH4 0xB88D4FDE EQ PUSH2 0x63D JUMPI DUP1 PUSH4 0xC87B56DD EQ PUSH2 0x650 JUMPI DUP1 PUSH4 0xCA259ED2 EQ PUSH2 0x663 JUMPI PUSH0 PUSH0 REVERT JUMPDEST DUP1 PUSH4 0x8DA5CB5B GT PUSH2 0x14F JUMPI DUP1 PUSH4 0x99BB9350 GT PUSH2 0x12A JUMPI DUP1 PUSH4 0x99BB9350 EQ PUSH2 0x5B8 JUMPI DUP1 PUSH4 0x9BB0F759 EQ PUSH2 0x5CB JUMPI DUP1 PUSH4 0x9FB755D7 EQ PUSH2 0x5DE JUMPI DUP1 PUSH4 0xA22CB465 EQ PUSH2 0x5F1 JUMPI PUSH0 PUSH0 REVERT JUMPDEST DUP1 PUSH4 0x8DA5CB5B EQ PUSH2 0x57E JUMPI DUP1 PUSH4 0x94D1CA6B EQ PUSH2 0x58F JUMPI DUP1 PUSH4 0x95D89B41 EQ PUSH2 0x5B0 JUMPI PUSH0 PUSH0 REVERT JUMPDEST DUP1 PUSH4 0x70A08231 EQ PUSH2 0x503 JUMPI DUP1 PUSH4 0x715018A6 EQ PUSH2 0x516 JUMPI DUP1 PUSH4 0x7ECEBE00 EQ PUSH2 0x51E JUMPI DUP1 PUSH4 0x84B0196E EQ PUSH2 0x53D JUMPI DUP1 PUSH4 0x8502F1C2 EQ PUSH2 0x558 JUMPI DUP1 PUSH4 0x8BAA5D8B EQ PUSH2 0x56B JUMPI PUSH0 PUSH0 REVERT JUMPDEST DUP1 PUSH4 0x3013CE29 GT PUSH2 0x251 JUMPI DUP1 PUSH4 0x4B870A83 GT PUSH2 0x20B JUMPI DUP1 PUSH4 0x6352211E GT PUSH2 0x1E6 JUMPI DUP1 PUSH4 0x6352211E EQ PUSH2 0x4B7 JUMPI DUP1 PUSH4 0x63F0DCB2 EQ PUSH2 0x4CA JUMPI DUP1 PUSH4 0x6A326AB1 EQ PUSH2 0x4DD JUMPI DUP1 PUSH4 0x6EB60A80 EQ PUSH2 0x4F0 JUMPI PUSH0 PUSH0 REVERT JUMPDEST DUP1 PUSH4 0x4B870A83 EQ PUSH2 0x47E JUMPI DUP1 PUSH4 0x4F6CCCE7 EQ PUSH2 0x491 JUMPI DUP1 PUSH4 0x5939A84E EQ PUSH2 0x4A4 JUMPI PUSH0 PUSH0 REVERT JUMPDEST DUP1 PUSH4 0x3013CE29 EQ PUSH2 0x40C JUMPI DUP1 PUSH4 0x4158C1B5 EQ PUSH2 0x41F JUMPI DUP1 PUSH4 0x42842E0E EQ PUSH2 0x432 JUMPI DUP1 PUSH4 0x42966C68 EQ PUSH2 0x445 JUMPI DUP1 PUSH4 0x45DB283D EQ PUSH2 0x458 JUMPI DUP1 PUSH4 0x49678605 EQ PUSH2 0x46B JUMPI PUSH0 PUSH0 REVERT JUMPDEST DUP1 PUSH4 0x18160DDD GT PUSH2 0x2A2 JUMPI DUP1 PUSH4 0x18160DDD EQ PUSH2 0x390 JUMPI DUP1 PUSH4 0x23B872DD EQ PUSH2 0x398 JUMPI DUP1 PUSH4 0x241F8715 EQ PUSH2 0x3AB JUMPI DUP1 PUSH4 0x29113BC8 EQ PUSH2 0x3BE JUMPI DUP1 PUSH4 0x2D0335AB EQ PUSH2 0x3D1 JUMPI DUP1 PUSH4 0x2F745C59 EQ PUSH2 0x3F9 JUMPI PUSH0 PUSH0 REVERT JUMPDEST DUP1 PUSH4 0x1FFC9A7 EQ PUSH2 0x2E9 JUMPI DUP1 PUSH4 0x6FDDE03 EQ PUSH2 0x311 JUMPI DUP1 PUSH4 0x81812FC EQ PUSH2 0x326 JUMPI DUP1 PUSH4 0x95EA7B3 EQ PUSH2 0x351 JUMPI DUP1 PUSH4 0xD39FC81 EQ PUSH2 0x366 JUMPI DUP1 PUSH4 0x11CE0267 EQ PUSH2 0x37D JUMPI JUMPDEST PUSH0 PUSH0 REVERT JUMPDEST PUSH2 0x2FC PUSH2 0x2F7 CALLDATASIZE PUSH1 0x4 PUSH2 0x40C9 JUMP JUMPDEST PUSH2 0x6FD JUMP JUMPDEST PUSH1 0x40 MLOAD SWAP1 ISZERO ISZERO DUP2 MSTORE PUSH1 0x20 ADD JUMPDEST PUSH1 0x40 MLOAD DUP1 SWAP2 SUB SWAP1 RETURN JUMPDEST PUSH2 0x319 PUSH2 0x70D JUMP JUMPDEST PUSH1 0x40 MLOAD PUSH2 0x308 SWAP2 SWAP1 PUSH2 0x4112 JUMP JUMPDEST PUSH2 0x339 PUSH2 0x334 CALLDATASIZE PUSH1 0x4 PUSH2 0x4124 JUMP JUMPDEST PUSH2 0x79C JUMP JUMPDEST PUSH1 0x40 MLOAD PUSH1 0x1 PUSH1 0x1 PUSH1 0xA0 SHL SUB SWAP1 SWAP2 AND DUP2 MSTORE PUSH1 0x20 ADD PUSH2 0x308 JUMP JUMPDEST PUSH2 0x364 PUSH2 0x35F CALLDATASIZE PUSH1 0x4 PUSH2 0x414F JUMP JUMPDEST PUSH2 0x7C3 JUMP JUMPDEST STOP JUMPDEST PUSH2 0x36F PUSH1 0x13 SLOAD DUP2 JUMP JUMPDEST PUSH1 0x40 MLOAD SWAP1 DUP2 MSTORE PUSH1 0x20 ADD PUSH2 0x308 JUMP JUMPDEST PUSH1 0xE SLOAD PUSH2 0x339 SWAP1 PUSH1 0x1 PUSH1 0x1 PUSH1 0xA0 SHL SUB AND DUP2 JUMP JUMPDEST PUSH1 0x8 SLOAD PUSH2 0x36F JUMP JUMPDEST PUSH2 0x364 PUSH2 0x3A6 CALLDATASIZE PUSH1 0x4 PUSH2 0x4179 JUMP JUMPDEST PUSH2 0x7D9 JUMP JUMPDEST PUSH2 0x364 PUSH2 0x3B9 CALLDATASIZE PUSH1 0x4 PUSH2 0x41B7 JUMP JUMPDEST PUSH2 0x86E JUMP JUMPDEST PUSH1 0x11 SLOAD PUSH2 0x339 SWAP1 PUSH1 0x1 PUSH1 0x1 PUSH1 0xA0 SHL SUB AND DUP2 JUMP JUMPDEST PUSH2 0x36F PUSH2 0x3DF CALLDATASIZE PUSH1 0x4 PUSH2 0x41F6 JUMP JUMPDEST PUSH1 0x1 PUSH1 0x1 PUSH1 0xA0 SHL SUB AND PUSH0 SWAP1 DUP2 MSTORE PUSH1 0x14 PUSH1 0x20 MSTORE PUSH1 0x40 SWAP1 KECCAK256 SLOAD SWAP1 JUMP JUMPDEST PUSH2 0x36F PUSH2 0x407 CALLDATASIZE PUSH1 0x4 PUSH2 0x414F JUMP JUMPDEST PUSH2 0x8C1 JUMP JUMPDEST PUSH1 0xF SLOAD PUSH2 0x339 SWAP1 PUSH1 0x1 PUSH1 0x1 PUSH1 0xA0 SHL SUB AND DUP2 JUMP JUMPDEST PUSH2 0x364 PUSH2 0x42D CALLDATASIZE PUSH1 0x4 PUSH2 0x4211 JUMP JUMPDEST PUSH2 0x924 JUMP JUMPDEST PUSH2 0x364 PUSH2 0x440 CALLDATASIZE PUSH1 0x4 PUSH2 0x4179 JUMP JUMPDEST PUSH2 0xADC JUMP JUMPDEST PUSH2 0x364 PUSH2 0x453 CALLDATASIZE PUSH1 0x4 PUSH2 0x4124 JUMP JUMPDEST PUSH2 0xAFB JUMP JUMPDEST PUSH2 0x364 PUSH2 0x466 CALLDATASIZE PUSH1 0x4 PUSH2 0x42CC JUMP JUMPDEST PUSH2 0xB0F JUMP JUMPDEST PUSH2 0x364 PUSH2 0x479 CALLDATASIZE PUSH1 0x4 PUSH2 0x414F JUMP JUMPDEST PUSH2 0xC31 JUMP JUMPDEST PUSH2 0x364 PUSH2 0x48C CALLDATASIZE PUSH1 0x4 PUSH2 0x4343 JUMP JUMPDEST PUSH2 0x11DE JUMP JUMPDEST PUSH2 0x36F PUSH2 0x49F CALLDATASIZE PUSH1 0x4 PUSH2 0x4124 JUMP JUMPDEST PUSH2 0x1352 JUMP JUMPDEST PUSH2 0x2FC PUSH2 0x4B2 CALLDATASIZE PUSH1 0x4 PUSH2 0x41F6 JUMP JUMPDEST PUSH2 0x13A7 JUMP JUMPDEST PUSH2 0x339 PUSH2 0x4C5 CALLDATASIZE PUSH1 0x4 PUSH2 0x4124 JUMP JUMPDEST PUSH2 0x1414 JUMP JUMPDEST PUSH2 0x364 PUSH2 0x4D8 CALLDATASIZE PUSH1 0x4 PUSH2 0x4393 JUMP JUMPDEST PUSH2 0x141E JUMP JUMPDEST PUSH2 0x364 PUSH2 0x4EB CALLDATASIZE PUSH1 0x4 PUSH2 0x41F6 JUMP JUMPDEST PUSH2 0x1649 JUMP JUMPDEST PUSH2 0x364 PUSH2 0x4FE CALLDATASIZE PUSH1 0x4 PUSH2 0x43C3 JUMP JUMPDEST PUSH2 0x169A JUMP JUMPDEST PUSH2 0x36F PUSH2 0x511 CALLDATASIZE PUSH1 0x4 PUSH2 0x41F6 JUMP JUMPDEST PUSH2 0x191D JUMP JUMPDEST PUSH2 0x364 PUSH2 0x1962 JUMP JUMPDEST PUSH2 0x36F PUSH2 0x52C CALLDATASIZE PUSH1 0x4 PUSH2 0x41F6 JUMP JUMPDEST PUSH1 0x14 PUSH1 0x20 MSTORE PUSH0 SWAP1 DUP2 MSTORE PUSH1 0x40 SWAP1 KECCAK256 SLOAD DUP2 JUMP JUMPDEST PUSH2 0x545 PUSH2 0x1975 JUMP JUMPDEST PUSH1 0x40 MLOAD PUSH2 0x308 SWAP8 SWAP7 SWAP6 SWAP5 SWAP4 SWAP3 SWAP2 SWAP1 PUSH2 0x447C JUMP JUMPDEST PUSH2 0x364 PUSH2 0x566 CALLDATASIZE PUSH1 0x4 PUSH2 0x41F6 JUMP JUMPDEST PUSH2 0x19B7 JUMP JUMPDEST PUSH2 0x364 PUSH2 0x579 CALLDATASIZE PUSH1 0x4 PUSH2 0x44EB JUMP JUMPDEST PUSH2 0x1D2A JUMP JUMPDEST PUSH1 0xB SLOAD PUSH1 0x1 PUSH1 0x1 PUSH1 0xA0 SHL SUB AND PUSH2 0x339 JUMP JUMPDEST PUSH2 0x5A2 PUSH2 0x59D CALLDATASIZE PUSH1 0x4 PUSH2 0x4542 JUMP JUMPDEST PUSH2 0x1F7B JUMP JUMPDEST PUSH1 0x40 MLOAD PUSH2 0x308 SWAP3 SWAP2 SWAP1 PUSH2 0x457A JUMP JUMPDEST PUSH2 0x319 PUSH2 0x24F6 JUMP JUMPDEST PUSH1 0x10 SLOAD PUSH2 0x339 SWAP1 PUSH1 0x1 PUSH1 0x1 PUSH1 0xA0 SHL SUB AND DUP2 JUMP JUMPDEST PUSH2 0x364 PUSH2 0x5D9 CALLDATASIZE PUSH1 0x4 PUSH2 0x41F6 JUMP JUMPDEST PUSH2 0x2505 JUMP JUMPDEST PUSH2 0x364 PUSH2 0x5EC CALLDATASIZE PUSH1 0x4 PUSH2 0x41F6 JUMP JUMPDEST PUSH2 0x25B8 JUMP JUMPDEST PUSH2 0x364 PUSH2 0x5FF CALLDATASIZE PUSH1 0x4 PUSH2 0x4594 JUMP JUMPDEST PUSH2 0x2659 JUMP JUMPDEST PUSH2 0x2FC PUSH2 0x612 CALLDATASIZE PUSH1 0x4 PUSH2 0x41F6 JUMP JUMPDEST PUSH2 0x266B JUMP JUMPDEST PUSH2 0x364 PUSH2 0x625 CALLDATASIZE PUSH1 0x4 PUSH2 0x45C0 JUMP JUMPDEST PUSH2 0x269D JUMP JUMPDEST PUSH2 0x364 PUSH2 0x638 CALLDATASIZE PUSH1 0x4 PUSH2 0x45E8 JUMP JUMPDEST PUSH2 0x28D1 JUMP JUMPDEST PUSH2 0x364 PUSH2 0x64B CALLDATASIZE PUSH1 0x4 PUSH2 0x474E JUMP JUMPDEST PUSH2 0x29A7 JUMP JUMPDEST PUSH2 0x319 PUSH2 0x65E CALLDATASIZE PUSH1 0x4 PUSH2 0x4124 JUMP JUMPDEST PUSH2 0x29C6 JUMP JUMPDEST PUSH2 0x364 PUSH2 0x671 CALLDATASIZE PUSH1 0x4 PUSH2 0x4343 JUMP JUMPDEST PUSH2 0x29D1 JUMP JUMPDEST PUSH2 0x689 PUSH2 0x684 CALLDATASIZE PUSH1 0x4 PUSH2 0x41F6 JUMP JUMPDEST PUSH2 0x29D9 JUMP JUMPDEST PUSH1 0x40 MLOAD PUSH2 0x308 SWAP2 SWAP1 PUSH2 0x47C8 JUMP JUMPDEST PUSH2 0x364 PUSH2 0x6A4 CALLDATASIZE PUSH1 0x4 PUSH2 0x41F6 JUMP JUMPDEST PUSH2 0x2A53 JUMP JUMPDEST PUSH2 0x2FC PUSH2 0x6B7 CALLDATASIZE PUSH1 0x4 PUSH2 0x4211 JUMP JUMPDEST PUSH2 0x2BD1 JUMP JUMPDEST PUSH2 0x36F PUSH2 0x2BFE JUMP JUMPDEST PUSH2 0x339 PUSH2 0x6D2 CALLDATASIZE PUSH1 0x4 PUSH2 0x41F6 JUMP JUMPDEST PUSH2 0x2C0C JUMP JUMPDEST PUSH2 0x36F PUSH2 0x6E5 CALLDATASIZE PUSH1 0x4 PUSH2 0x47DA JUMP JUMPDEST PUSH2 0x2C84 JUMP JUMPDEST PUSH2 0x364 PUSH2 0x6F8 CALLDATASIZE PUSH1 0x4 PUSH2 0x41F6 JUMP JUMPDEST PUSH2 0x2E8B JUMP JUMPDEST PUSH0 PUSH2 0x707 DUP3 PUSH2 0x2EC5 JUMP JUMPDEST SWAP3 SWAP2 POP POP JUMP JUMPDEST PUSH1 0x60 PUSH0 DUP1 SLOAD PUSH2 0x71B SWAP1 PUSH2 0x4844 JUMP JUMPDEST DUP1 PUSH1 0x1F ADD PUSH1 0x20 DUP1 SWAP2 DIV MUL PUSH1 0x20 ADD PUSH1 0x40 MLOAD SWAP1 DUP2 ADD PUSH1 0x40 MSTORE DUP1 SWAP3 SWAP2 SWAP1 DUP2 DUP2 MSTORE PUSH1 0x20 ADD DUP3 DUP1 SLOAD PUSH2 0x747 SWAP1 PUSH2 0x4844 JUMP JUMPDEST DUP1 ISZERO PUSH2 0x792 JUMPI DUP1 PUSH1 0x1F LT PUSH2 0x769 JUMPI PUSH2 0x100 DUP1 DUP4 SLOAD DIV MUL DUP4 MSTORE SWAP2 PUSH1 0x20 ADD SWAP2 PUSH2 0x792 JUMP JUMPDEST DUP3 ADD SWAP2 SWAP1 PUSH0 MSTORE PUSH1 0x20 PUSH0 KECCAK256 SWAP1 JUMPDEST DUP2 SLOAD DUP2 MSTORE SWAP1 PUSH1 0x1 ADD SWAP1 PUSH1 0x20 ADD DUP1 DUP4 GT PUSH2 0x775 JUMPI DUP3 SWAP1 SUB PUSH1 0x1F AND DUP3 ADD SWAP2 JUMPDEST POP POP POP POP POP SWAP1 POP SWAP1 JUMP JUMPDEST PUSH0 PUSH2 0x7A6 DUP3 PUSH2 0x2EE9 JUMP JUMPDEST POP PUSH0 DUP3 DUP2 MSTORE PUSH1 0x4 PUSH1 0x20 MSTORE PUSH1 0x40 SWAP1 KECCAK256 SLOAD PUSH1 0x1 PUSH1 0x1 PUSH1 0xA0 SHL SUB AND PUSH2 0x707 JUMP JUMPDEST PUSH2 0x7D5 DUP3 DUP3 PUSH2 0x7D0 PUSH2 0x2F21 JUMP JUMPDEST PUSH2 0x2F49 JUMP JUMPDEST POP POP JUMP JUMPDEST PUSH1 0x1 PUSH1 0x1 PUSH1 0xA0 SHL SUB DUP3 AND PUSH2 0x807 JUMPI PUSH1 0x40 MLOAD PUSH4 0x32505749 PUSH1 0xE1 SHL DUP2 MSTORE PUSH0 PUSH1 0x4 DUP3 ADD MSTORE PUSH1 0x24 ADD JUMPDEST PUSH1 0x40 MLOAD DUP1 SWAP2 SUB SWAP1 REVERT JUMPDEST PUSH0 PUSH2 0x81A DUP4 DUP4 PUSH2 0x815 PUSH2 0x2F21 JUMP JUMPDEST PUSH2 0x2F56 JUMP JUMPDEST SWAP1 POP DUP4 PUSH1 0x1 PUSH1 0x1 PUSH1 0xA0 SHL SUB AND DUP2 PUSH1 0x1 PUSH1 0x1 PUSH1 0xA0 SHL SUB AND EQ PUSH2 0x868 JUMPI PUSH1 0x40 MLOAD PUSH4 0x64283D7B PUSH1 0xE0 SHL DUP2 MSTORE PUSH1 0x1 PUSH1 0x1 PUSH1 0xA0 SHL SUB DUP1 DUP7 AND PUSH1 0x4 DUP4 ADD MSTORE PUSH1 0x24 DUP3 ADD DUP5 SWAP1 MSTORE DUP3 AND PUSH1 0x44 DUP3 ADD MSTORE PUSH1 0x64 ADD PUSH2 0x7FE JUMP JUMPDEST POP POP POP POP JUMP JUMPDEST DUP3 PUSH1 0x1 PUSH1 0x1 PUSH1 0xA0 SHL SUB AND DUP3 DUP3 PUSH1 0x1 PUSH1 0x1 PUSH1 0xA0 SHL SUB AND PUSH32 0x41195084F354BC7DA593812F4B0E44AEC4E701EF0E7F6E15A5A574C33503437D TIMESTAMP PUSH1 0x40 MLOAD PUSH2 0x8B4 SWAP2 DUP2 MSTORE PUSH1 0x20 ADD SWAP1 JUMP JUMPDEST PUSH1 0x40 MLOAD DUP1 SWAP2 SUB SWAP1 LOG4 POP POP POP JUMP JUMPDEST PUSH0 PUSH2 0x8CB DUP4 PUSH2 0x191D JUMP JUMPDEST DUP3 LT PUSH2 0x8FC JUMPI PUSH1 0x40 MLOAD PUSH4 0x295F44F7 PUSH1 0xE2 SHL DUP2 MSTORE PUSH1 0x1 PUSH1 0x1 PUSH1 0xA0 SHL SUB DUP5 AND PUSH1 0x4 DUP3 ADD MSTORE PUSH1 0x24 DUP2 ADD DUP4 SWAP1 MSTORE PUSH1 0x44 ADD PUSH2 0x7FE JUMP JUMPDEST POP PUSH1 0x1 PUSH1 0x1 PUSH1 0xA0 SHL SUB SWAP2 SWAP1 SWAP2 AND PUSH0 SWAP1 DUP2 MSTORE PUSH1 0x6 PUSH1 0x20 SWAP1 DUP2 MSTORE PUSH1 0x40 DUP1 DUP4 KECCAK256 SWAP4 DUP4 MSTORE SWAP3 SWAP1 MSTORE KECCAK256 SLOAD SWAP1 JUMP JUMPDEST DUP2 DUP1 PUSH1 0x1 PUSH1 0x1 PUSH1 0xA0 SHL SUB AND PUSH2 0x937 PUSH2 0x2F21 JUMP JUMPDEST PUSH1 0x1 PUSH1 0x1 PUSH1 0xA0 SHL SUB AND EQ DUP1 PUSH2 0x96C JUMPI POP PUSH2 0x950 DUP2 PUSH2 0x2C0C JUMP JUMPDEST PUSH1 0x1 PUSH1 0x1 PUSH1 0xA0 SHL SUB AND PUSH2 0x961 PUSH2 0x2F21 JUMP JUMPDEST PUSH1 0x1 PUSH1 0x1 PUSH1 0xA0 SHL SUB AND EQ JUMPDEST PUSH2 0x9CB JUMPI PUSH1 0x40 MLOAD PUSH3 0x461BCD PUSH1 0xE5 SHL DUP2 MSTORE PUSH1 0x20 PUSH1 0x4 DUP3 ADD MSTORE PUSH1 0x2A PUSH1 0x24 DUP3 ADD MSTORE PUSH32 0x556E617574686F72697A65643A204E6F74206D656D626572206F722072657072 PUSH1 0x44 DUP3 ADD MSTORE PUSH10 0x6573656E746174697665 PUSH1 0xB0 SHL PUSH1 0x64 DUP3 ADD MSTORE PUSH1 0x84 ADD PUSH2 0x7FE JUMP JUMPDEST PUSH1 0xE SLOAD PUSH1 0x40 MLOAD PUSH4 0x22B92C3 PUSH1 0xE2 SHL DUP2 MSTORE PUSH1 0x1 PUSH1 0x1 PUSH1 0xA0 SHL SUB DUP6 DUP2 AND PUSH1 0x4 DUP4 ADD MSTORE PUSH0 SWAP3 AND SWAP1 PUSH4 0x8AE4B0C SWAP1 PUSH1 0x24 ADD PUSH0 PUSH1 0x40 MLOAD DUP1 DUP4 SUB DUP2 DUP7 GAS STATICCALL ISZERO DUP1 ISZERO PUSH2 0xA12 JUMPI RETURNDATASIZE PUSH0 PUSH0 RETURNDATACOPY RETURNDATASIZE PUSH0 REVERT JUMPDEST POP POP POP POP PUSH1 0x40 MLOAD RETURNDATASIZE PUSH0 DUP3 RETURNDATACOPY PUSH1 0x1F RETURNDATASIZE SWAP1 DUP2 ADD PUSH1 0x1F NOT AND DUP3 ADD PUSH1 0x40 MSTORE PUSH2 0xA39 SWAP2 SWAP1 DUP2 ADD SWAP1 PUSH2 0x48E4 JUMP JUMPDEST PUSH1 0x1 PUSH1 0x1 PUSH1 0xA0 SHL SUB DUP1 DUP6 AND PUSH1 0x20 DUP4 ADD MSTORE PUSH1 0xE SLOAD PUSH1 0x40 MLOAD PUSH4 0xAF947D05 PUSH1 0xE0 SHL DUP2 MSTORE SWAP3 SWAP4 POP AND SWAP1 PUSH4 0xAF947D05 SWAP1 PUSH2 0xA72 SWAP1 DUP5 SWAP1 PUSH1 0x4 ADD PUSH2 0x499F JUMP JUMPDEST PUSH0 PUSH1 0x40 MLOAD DUP1 DUP4 SUB DUP2 PUSH0 DUP8 DUP1 EXTCODESIZE ISZERO DUP1 ISZERO PUSH2 0xA89 JUMPI PUSH0 PUSH0 REVERT JUMPDEST POP GAS CALL ISZERO DUP1 ISZERO PUSH2 0xA9B JUMPI RETURNDATASIZE PUSH0 PUSH0 RETURNDATACOPY RETURNDATASIZE PUSH0 REVERT JUMPDEST POP POP PUSH1 0x40 MLOAD PUSH1 0x1 PUSH1 0x1 PUSH1 0xA0 SHL SUB DUP1 DUP8 AND SWAP4 POP DUP8 AND SWAP2 POP PUSH32 0xF53EC35310A21208780FC7B462EE5D0A47D8AE1C3AA5E0ECDAB144FF78DEA3A8 SWAP1 PUSH0 SWAP1 LOG3 POP POP POP POP JUMP JUMPDEST PUSH2 0xAF6 DUP4 DUP4 DUP4 PUSH1 0x40 MLOAD DUP1 PUSH1 0x20 ADD PUSH1 0x40 MSTORE DUP1 PUSH0 DUP2 MSTORE POP PUSH2 0x29A7 JUMP JUMPDEST POP POP POP JUMP JUMPDEST PUSH2 0xB03 PUSH2 0x2F6A JUMP JUMPDEST PUSH2 0xB0C DUP2 PUSH2 0x2FC8 JUMP JUMPDEST POP JUMP JUMPDEST PUSH0 PUSH1 0x40 MLOAD DUP1 PUSH1 0x80 ADD PUSH1 0x40 MSTORE DUP1 PUSH2 0xB23 PUSH2 0x2F21 JUMP JUMPDEST PUSH1 0x1 PUSH1 0x1 PUSH1 0xA0 SHL SUB AND DUP2 MSTORE PUSH1 0x20 ADD TIMESTAMP DUP2 MSTORE PUSH1 0x20 ADD DUP7 DUP7 DUP1 DUP1 PUSH1 0x1F ADD PUSH1 0x20 DUP1 SWAP2 DIV MUL PUSH1 0x20 ADD PUSH1 0x40 MLOAD SWAP1 DUP2 ADD PUSH1 0x40 MSTORE DUP1 SWAP4 SWAP3 SWAP2 SWAP1 DUP2 DUP2 MSTORE PUSH1 0x20 ADD DUP4 DUP4 DUP1 DUP3 DUP5 CALLDATACOPY PUSH0 SWAP3 ADD SWAP2 SWAP1 SWAP2 MSTORE POP POP POP SWAP1 DUP3 MSTORE POP PUSH1 0x20 ADD PUSH2 0xB7C DUP5 DUP7 PUSH2 0x4A37 JUMP JUMPDEST SWAP1 MSTORE PUSH1 0xE SLOAD PUSH1 0x40 MLOAD PUSH4 0x109DB1B PUSH1 0xE5 SHL DUP2 MSTORE SWAP2 SWAP3 POP PUSH1 0x1 PUSH1 0x1 PUSH1 0xA0 SHL SUB AND SWAP1 PUSH4 0x213B6360 SWAP1 PUSH2 0xBB1 SWAP1 DUP10 SWAP1 DUP6 SWAP1 PUSH1 0x4 ADD PUSH2 0x4B63 JUMP JUMPDEST PUSH0 PUSH1 0x40 MLOAD DUP1 DUP4 SUB DUP2 PUSH0 DUP8 DUP1 EXTCODESIZE ISZERO DUP1 ISZERO PUSH2 0xBC8 JUMPI PUSH0 PUSH0 REVERT JUMPDEST POP GAS CALL ISZERO DUP1 ISZERO PUSH2 0xBDA JUMPI RETURNDATASIZE PUSH0 PUSH0 RETURNDATACOPY RETURNDATASIZE PUSH0 REVERT JUMPDEST POP POP POP POP PUSH2 0xBE6 PUSH2 0x2F21 JUMP JUMPDEST PUSH1 0x1 PUSH1 0x1 PUSH1 0xA0 SHL SUB AND DUP7 PUSH32 0x37B3E104208F85D1DF430BBEFBE3FEE48F2B666F587576036F4D60EF673AF50C TIMESTAMP PUSH1 0x40 MLOAD PUSH2 0xC21 SWAP2 DUP2 MSTORE PUSH1 0x20 ADD SWAP1 JUMP JUMPDEST PUSH1 0x40 MLOAD DUP1 SWAP2 SUB SWAP1 LOG3 POP POP POP POP POP POP JUMP JUMPDEST PUSH1 0xE SLOAD PUSH1 0x40 MLOAD PUSH4 0x2C9CD427 PUSH1 0xE1 SHL DUP2 MSTORE PUSH1 0x1 PUSH1 0x1 PUSH1 0xA0 SHL SUB DUP1 DUP6 AND PUSH1 0x4 DUP4 ADD MSTORE DUP5 SWAP3 AND SWAP1 PUSH4 0x5939A84E SWAP1 PUSH1 0x24 ADD PUSH1 0x20 PUSH1 0x40 MLOAD DUP1 DUP4 SUB DUP2 DUP7 GAS STATICCALL ISZERO DUP1 ISZERO PUSH2 0xC79 JUMPI RETURNDATASIZE PUSH0 PUSH0 RETURNDATACOPY RETURNDATASIZE PUSH0 REVERT JUMPDEST POP POP POP POP PUSH1 0x40 MLOAD RETURNDATASIZE PUSH1 0x1F NOT PUSH1 0x1F DUP3 ADD AND DUP3 ADD DUP1 PUSH1 0x40 MSTORE POP DUP2 ADD SWAP1 PUSH2 0xC9D SWAP2 SWAP1 PUSH2 0x4B7B JUMP JUMPDEST PUSH2 0xCE1 JUMPI PUSH1 0x40 MLOAD PUSH3 0x461BCD PUSH1 0xE5 SHL DUP2 MSTORE PUSH1 0x20 PUSH1 0x4 DUP3 ADD MSTORE PUSH1 0x15 PUSH1 0x24 DUP3 ADD MSTORE PUSH21 0x2737BA103932B3B4B9BA32B932B2103630BBBCB2B9 PUSH1 0x59 SHL PUSH1 0x44 DUP3 ADD MSTORE PUSH1 0x64 ADD PUSH2 0x7FE JUMP JUMPDEST PUSH1 0xE SLOAD PUSH1 0x40 MLOAD PUSH4 0x554AE567 PUSH1 0xE0 SHL DUP2 MSTORE PUSH1 0x1 PUSH1 0x1 PUSH1 0xA0 SHL SUB DUP4 DUP2 AND PUSH1 0x4 DUP4 ADD MSTORE PUSH0 SWAP3 AND SWAP1 PUSH4 0x554AE567 SWAP1 PUSH1 0x24 ADD PUSH0 PUSH1 0x40 MLOAD DUP1 DUP4 SUB DUP2 DUP7 GAS STATICCALL ISZERO DUP1 ISZERO PUSH2 0xD28 JUMPI RETURNDATASIZE PUSH0 PUSH0 RETURNDATACOPY RETURNDATASIZE PUSH0 REVERT JUMPDEST POP POP POP POP PUSH1 0x40 MLOAD RETURNDATASIZE PUSH0 DUP3 RETURNDATACOPY PUSH1 0x1F RETURNDATASIZE SWAP1 DUP2 ADD PUSH1 0x1F NOT AND DUP3 ADD PUSH1 0x40 MSTORE PUSH2 0xD4F SWAP2 SWAP1 DUP2 ADD SWAP1 PUSH2 0x4BFB JUMP JUMPDEST SWAP1 POP DUP1 PUSH1 0xA0 ADD MLOAD PUSH2 0xD94 JUMPI PUSH1 0x40 MLOAD PUSH3 0x461BCD PUSH1 0xE5 SHL DUP2 MSTORE PUSH1 0x20 PUSH1 0x4 DUP3 ADD MSTORE PUSH1 0xF PUSH1 0x24 DUP3 ADD MSTORE PUSH15 0x4C617779657220696E616374697665 PUSH1 0x88 SHL PUSH1 0x44 DUP3 ADD MSTORE PUSH1 0x64 ADD PUSH2 0x7FE JUMP JUMPDEST PUSH2 0xD9C PUSH2 0x2F21 JUMP JUMPDEST PUSH1 0x1 PUSH1 0x1 PUSH1 0xA0 SHL SUB AND DUP5 PUSH1 0x1 PUSH1 0x1 PUSH1 0xA0 SHL SUB AND EQ PUSH2 0xE13 JUMPI PUSH1 0x40 MLOAD PUSH3 0x461BCD PUSH1 0xE5 SHL DUP2 MSTORE PUSH1 0x20 PUSH1 0x4 DUP3 ADD MSTORE PUSH1 0x2E PUSH1 0x24 DUP3 ADD MSTORE PUSH32 0x556E617574686F72697A65643A204F6E6C792061737369676E6564206C617779 PUSH1 0x44 DUP3 ADD MSTORE PUSH14 0x65722063616E207265736F6C7665 PUSH1 0x90 SHL PUSH1 0x64 DUP3 ADD MSTORE PUSH1 0x84 ADD PUSH2 0x7FE JUMP JUMPDEST PUSH1 0xE SLOAD PUSH1 0x40 MLOAD PUSH4 0xF09790DD PUSH1 0xE0 SHL DUP2 MSTORE PUSH1 0x4 DUP2 ADD DUP6 SWAP1 MSTORE PUSH0 SWAP2 PUSH1 0x1 PUSH1 0x1 PUSH1 0xA0 SHL SUB AND SWAP1 PUSH4 0xF09790DD SWAP1 PUSH1 0x24 ADD PUSH0 PUSH1 0x40 MLOAD DUP1 DUP4 SUB DUP2 DUP7 GAS STATICCALL ISZERO DUP1 ISZERO PUSH2 0xE59 JUMPI RETURNDATASIZE PUSH0 PUSH0 RETURNDATACOPY RETURNDATASIZE PUSH0 REVERT JUMPDEST POP POP POP POP PUSH1 0x40 MLOAD RETURNDATASIZE PUSH0 DUP3 RETURNDATACOPY PUSH1 0x1F RETURNDATASIZE SWAP1 DUP2 ADD PUSH1 0x1F NOT AND DUP3 ADD PUSH1 0x40 MSTORE PUSH2 0xE80 SWAP2 SWAP1 DUP2 ADD SWAP1 PUSH2 0x4CC5 JUMP JUMPDEST SWAP1 POP DUP5 PUSH1 0x1 PUSH1 0x1 PUSH1 0xA0 SHL SUB AND DUP2 PUSH1 0x40 ADD MLOAD PUSH1 0x1 PUSH1 0x1 PUSH1 0xA0 SHL SUB AND EQ PUSH2 0xEE7 JUMPI PUSH1 0x40 MLOAD PUSH3 0x461BCD PUSH1 0xE5 SHL DUP2 MSTORE PUSH1 0x20 PUSH1 0x4 DUP3 ADD MSTORE PUSH1 0x1B PUSH1 0x24 DUP3 ADD MSTORE PUSH32 0x43617365206E6F742061737369676E656420746F206C61777965720000000000 PUSH1 0x44 DUP3 ADD MSTORE PUSH1 0x64 ADD PUSH2 0x7FE JUMP JUMPDEST DUP1 PUSH1 0xC0 ADD MLOAD ISZERO PUSH2 0xF31 JUMPI PUSH1 0x40 MLOAD PUSH3 0x461BCD PUSH1 0xE5 SHL DUP2 MSTORE PUSH1 0x20 PUSH1 0x4 DUP3 ADD MSTORE PUSH1 0x15 PUSH1 0x24 DUP3 ADD MSTORE PUSH21 0x10D85CD948185B1C9958591E481C995CDBDB1D9959 PUSH1 0x5A SHL PUSH1 0x44 DUP3 ADD MSTORE PUSH1 0x64 ADD PUSH2 0x7FE JUMP JUMPDEST PUSH1 0x1 PUSH1 0xC0 DUP3 ADD MSTORE TIMESTAMP PUSH1 0xA0 DUP3 ADD MSTORE PUSH1 0xE SLOAD PUSH1 0x40 MLOAD PUSH4 0xF47BE477 PUSH1 0xE0 SHL DUP2 MSTORE PUSH1 0x1 PUSH1 0x1 PUSH1 0xA0 SHL SUB SWAP1 SWAP2 AND SWAP1 PUSH4 0xF47BE477 SWAP1 PUSH2 0xF6E SWAP1 DUP5 SWAP1 PUSH1 0x4 ADD PUSH2 0x4D8D JUMP JUMPDEST PUSH0 PUSH1 0x40 MLOAD DUP1 DUP4 SUB DUP2 PUSH0 DUP8 DUP1 EXTCODESIZE ISZERO DUP1 ISZERO PUSH2 0xF85 JUMPI PUSH0 PUSH0 REVERT JUMPDEST POP GAS CALL ISZERO DUP1 ISZERO PUSH2 0xF97 JUMPI RETURNDATASIZE PUSH0 PUSH0 RETURNDATACOPY RETURNDATASIZE PUSH0 REVERT JUMPDEST POP POP PUSH1 0xE SLOAD PUSH1 0x40 MLOAD PUSH4 0x554AE567 PUSH1 0xE0 SHL DUP2 MSTORE PUSH1 0x1 PUSH1 0x1 PUSH1 0xA0 SHL SUB DUP10 DUP2 AND PUSH1 0x4 DUP4 ADD MSTORE PUSH0 SWAP5 POP SWAP1 SWAP2 AND SWAP2 POP PUSH4 0x554AE567 SWAP1 PUSH1 0x24 ADD PUSH0 PUSH1 0x40 MLOAD DUP1 DUP4 SUB DUP2 DUP7 GAS STATICCALL ISZERO DUP1 ISZERO PUSH2 0xFE4 JUMPI RETURNDATASIZE PUSH0 PUSH0 RETURNDATACOPY RETURNDATASIZE PUSH0 REVERT JUMPDEST POP POP POP POP PUSH1 0x40 MLOAD RETURNDATASIZE PUSH0 DUP3 RETURNDATACOPY PUSH1 0x1F RETURNDATASIZE SWAP1 DUP2 ADD PUSH1 0x1F NOT AND DUP3 ADD PUSH1 0x40 MSTORE PUSH2 0x100B SWAP2 SWAP1 DUP2 ADD SWAP1 PUSH2 0x4BFB JUMP JUMPDEST PUSH1 0x20 DUP2 ADD MLOAD DUP1 MLOAD SWAP2 SWAP3 POP SWAP1 PUSH0 SWAP1 PUSH2 0x1023 SWAP1 PUSH1 0x1 PUSH2 0x4E2B JUMP JUMPDEST PUSH1 0x1 PUSH1 0x1 PUSH1 0x40 SHL SUB DUP2 GT ISZERO PUSH2 0x103A JUMPI PUSH2 0x103A PUSH2 0x461A JUMP JUMPDEST PUSH1 0x40 MLOAD SWAP1 DUP1 DUP3 MSTORE DUP1 PUSH1 0x20 MUL PUSH1 0x20 ADD DUP3 ADD PUSH1 0x40 MSTORE DUP1 ISZERO PUSH2 0x1063 JUMPI DUP2 PUSH1 0x20 ADD PUSH1 0x20 DUP3 MUL DUP1 CALLDATASIZE DUP4 CALLDATACOPY ADD SWAP1 POP JUMPDEST POP SWAP1 POP PUSH0 DUP1 JUMPDEST DUP4 MLOAD DUP2 LT ISZERO PUSH2 0x10D7 JUMPI DUP4 DUP2 DUP2 MLOAD DUP2 LT PUSH2 0x1084 JUMPI PUSH2 0x1084 PUSH2 0x4E3E JUMP JUMPDEST PUSH1 0x20 MUL PUSH1 0x20 ADD ADD MLOAD DUP4 DUP3 DUP2 MLOAD DUP2 LT PUSH2 0x109E JUMPI PUSH2 0x109E PUSH2 0x4E3E JUMP JUMPDEST PUSH1 0x20 MUL PUSH1 0x20 ADD ADD DUP2 DUP2 MSTORE POP POP DUP9 DUP5 DUP3 DUP2 MLOAD DUP2 LT PUSH2 0x10BD JUMPI PUSH2 0x10BD PUSH2 0x4E3E JUMP JUMPDEST PUSH1 0x20 MUL PUSH1 0x20 ADD ADD MLOAD SUB PUSH2 0x10CF JUMPI PUSH1 0x1 SWAP2 POP JUMPDEST PUSH1 0x1 ADD PUSH2 0x1069 JUMP JUMPDEST POP DUP1 PUSH2 0x10FE JUMPI DUP8 DUP3 DUP5 MLOAD DUP2 MLOAD DUP2 LT PUSH2 0x10F1 JUMPI PUSH2 0x10F1 PUSH2 0x4E3E JUMP JUMPDEST PUSH1 0x20 MUL PUSH1 0x20 ADD ADD DUP2 DUP2 MSTORE POP POP JUMPDEST PUSH1 0x20 DUP5 ADD DUP3 SWAP1 MSTORE PUSH1 0xE0 DUP6 ADD MLOAD PUSH1 0x80 DUP6 ADD DUP1 MLOAD PUSH2 0x111B SWAP1 DUP4 SWAP1 PUSH2 0x4E2B JUMP JUMPDEST SWAP1 MSTORE POP PUSH1 0xE SLOAD PUSH1 0x40 MLOAD PUSH4 0x84500001 PUSH1 0xE0 SHL DUP2 MSTORE PUSH1 0x1 PUSH1 0x1 PUSH1 0xA0 SHL SUB SWAP1 SWAP2 AND SWAP1 PUSH4 0x84500001 SWAP1 PUSH2 0x114E SWAP1 DUP8 SWAP1 PUSH1 0x4 ADD PUSH2 0x4E52 JUMP JUMPDEST PUSH0 PUSH1 0x40 MLOAD DUP1 DUP4 SUB DUP2 PUSH0 DUP8 DUP1 EXTCODESIZE ISZERO DUP1 ISZERO PUSH2 0x1165 JUMPI PUSH0 PUSH0 REVERT JUMPDEST POP GAS CALL ISZERO DUP1 ISZERO PUSH2 0x1177 JUMPI RETURNDATASIZE PUSH0 PUSH0 RETURNDATACOPY RETURNDATASIZE PUSH0 REVERT JUMPDEST POP POP POP POP PUSH2 0x119E PUSH2 0x1186 PUSH2 0x2F21 JUMP JUMPDEST PUSH1 0xE0 DUP8 ADD MLOAD PUSH1 0xF SLOAD PUSH1 0x1 PUSH1 0x1 PUSH1 0xA0 SHL SUB AND SWAP2 SWAP1 PUSH2 0x3000 JUMP JUMPDEST PUSH1 0x40 MLOAD DUP9 SWAP1 PUSH1 0x1 PUSH1 0x1 PUSH1 0xA0 SHL SUB DUP12 AND SWAP1 PUSH32 0x8C367C1C13BF9B767A56A0B09A4A9372DD331AD43693C05B58E5F25F123340DF SWAP1 PUSH0 SWAP1 LOG3 POP POP POP POP POP POP POP POP POP JUMP JUMPDEST DUP3 PUSH1 0x1 PUSH1 0x1 PUSH1 0xA0 SHL SUB AND PUSH2 0x11F0 PUSH2 0x2F21 JUMP JUMPDEST PUSH1 0x1 PUSH1 0x1 PUSH1 0xA0 SHL SUB AND EQ PUSH2 0x123E JUMPI PUSH1 0x40 MLOAD PUSH3 0x461BCD PUSH1 0xE5 SHL DUP2 MSTORE PUSH1 0x20 PUSH1 0x4 DUP3 ADD MSTORE PUSH1 0x15 PUSH1 0x24 DUP3 ADD MSTORE PUSH21 0x21B0B71037B7363C9039B4B3B7103AB81039B2B633 PUSH1 0x59 SHL PUSH1 0x44 DUP3 ADD MSTORE PUSH1 0x64 ADD PUSH2 0x7FE JUMP JUMPDEST PUSH1 0x40 DUP1 MLOAD PUSH1 0xC0 DUP2 ADD DUP3 MSTORE PUSH1 0x1 PUSH1 0x1 PUSH1 0xA0 SHL SUB DUP6 AND DUP2 MSTORE DUP2 MLOAD PUSH0 DUP1 DUP3 MSTORE PUSH1 0x20 DUP3 DUP2 ADD SWAP1 SWAP5 MSTORE SWAP3 DUP3 ADD SWAP1 DUP2 MSTORE PUSH1 0x20 ADD DUP5 DUP5 DUP1 DUP1 PUSH1 0x1F ADD PUSH1 0x20 DUP1 SWAP2 DIV MUL PUSH1 0x20 ADD PUSH1 0x40 MLOAD SWAP1 DUP2 ADD PUSH1 0x40 MSTORE DUP1 SWAP4 SWAP3 SWAP2 SWAP1 DUP2 DUP2 MSTORE PUSH1 0x20 ADD DUP4 DUP4 DUP1 DUP3 DUP5 CALLDATACOPY PUSH0 SWAP3 ADD DUP3 SWAP1 MSTORE POP SWAP4 DUP6 MSTORE POP POP TIMESTAMP PUSH1 0x20 DUP5 ADD MSTORE POP PUSH1 0x40 DUP1 DUP4 ADD SWAP2 SWAP1 SWAP2 MSTORE PUSH1 0x1 PUSH1 0x60 SWAP1 SWAP3 ADD SWAP2 SWAP1 SWAP2 MSTORE PUSH1 0xE SLOAD SWAP1 MLOAD PUSH4 0x84500001 PUSH1 0xE0 SHL DUP2 MSTORE SWAP2 SWAP3 POP PUSH1 0x1 PUSH1 0x1 PUSH1 0xA0 SHL SUB AND SWAP1 PUSH4 0x84500001 SWAP1 PUSH2 0x12EC SWAP1 DUP5 SWAP1 PUSH1 0x4 ADD PUSH2 0x4E52 JUMP JUMPDEST PUSH0 PUSH1 0x40 MLOAD DUP1 DUP4 SUB DUP2 PUSH0 DUP8 DUP1 EXTCODESIZE ISZERO DUP1 ISZERO PUSH2 0x1303 JUMPI PUSH0 PUSH0 REVERT JUMPDEST POP GAS CALL ISZERO DUP1 ISZERO PUSH2 0x1315 JUMPI RETURNDATASIZE PUSH0 PUSH0 RETURNDATACOPY RETURNDATASIZE PUSH0 REVERT JUMPDEST POP POP PUSH1 0x40 MLOAD PUSH1 0x1 PUSH1 0x1 PUSH1 0xA0 SHL SUB DUP8 AND SWAP3 POP PUSH32 0x477258C324E1DC966C3E151D300B92686593E768B5C01E809C2C820EEE02CFFC SWAP2 POP PUSH0 SWAP1 LOG2 POP POP POP POP JUMP JUMPDEST PUSH0 PUSH2 0x135C PUSH1 0x8 SLOAD SWAP1 JUMP JUMPDEST DUP3 LT PUSH2 0x1384 JUMPI PUSH1 0x40 MLOAD PUSH4 0x295F44F7 PUSH1 0xE2 SHL DUP2 MSTORE PUSH0 PUSH1 0x4 DUP3 ADD MSTORE PUSH1 0x24 DUP2 ADD DUP4 SWAP1 MSTORE PUSH1 0x44 ADD PUSH2 0x7FE JUMP JUMPDEST PUSH1 0x8 DUP3 DUP2 SLOAD DUP2 LT PUSH2 0x1397 JUMPI PUSH2 0x1397 PUSH2 0x4E3E JUMP JUMPDEST SWAP1 PUSH0 MSTORE PUSH1 0x20 PUSH0 KECCAK256 ADD SLOAD SWAP1 POP SWAP2 SWAP1 POP JUMP JUMPDEST PUSH1 0xE SLOAD PUSH1 0x40 MLOAD PUSH4 0x2C9CD427 PUSH1 0xE1 SHL DUP2 MSTORE PUSH1 0x1 PUSH1 0x1 PUSH1 0xA0 SHL SUB DUP4 DUP2 AND PUSH1 0x4 DUP4 ADD MSTORE PUSH0 SWAP3 AND SWAP1 PUSH4 0x5939A84E SWAP1 PUSH1 0x24 ADD JUMPDEST PUSH1 0x20 PUSH1 0x40 MLOAD DUP1 DUP4 SUB DUP2 DUP7 GAS STATICCALL ISZERO DUP1 ISZERO PUSH2 0x13F0 JUMPI RETURNDATASIZE PUSH0 PUSH0 RETURNDATACOPY RETURNDATASIZE PUSH0 REVERT JUMPDEST POP POP POP POP PUSH1 0x40 MLOAD RETURNDATASIZE PUSH1 0x1F NOT PUSH1 0x1F DUP3 ADD AND DUP3 ADD DUP1 PUSH1 0x40 MSTORE POP DUP2 ADD SWAP1 PUSH2 0x707 SWAP2 SWAP1 PUSH2 0x4B7B JUMP JUMPDEST PUSH0 PUSH2 0x707 DUP3 PUSH2 0x2EE9 JUMP JUMPDEST PUSH2 0x1426 PUSH2 0x2F6A JUMP JUMPDEST PUSH1 0xE SLOAD PUSH1 0x40 MLOAD PUSH4 0xF09790DD PUSH1 0xE0 SHL DUP2 MSTORE PUSH1 0x4 DUP2 ADD DUP5 SWAP1 MSTORE PUSH0 SWAP2 PUSH1 0x1 PUSH1 0x1 PUSH1 0xA0 SHL SUB AND SWAP1 PUSH4 0xF09790DD SWAP1 PUSH1 0x24 ADD PUSH0 PUSH1 0x40 MLOAD DUP1 DUP4 SUB DUP2 DUP7 GAS STATICCALL ISZERO DUP1 ISZERO PUSH2 0x146C JUMPI RETURNDATASIZE PUSH0 PUSH0 RETURNDATACOPY RETURNDATASIZE PUSH0 REVERT JUMPDEST POP POP POP POP PUSH1 0x40 MLOAD RETURNDATASIZE PUSH0 DUP3 RETURNDATACOPY PUSH1 0x1F RETURNDATASIZE SWAP1 DUP2 ADD PUSH1 0x1F NOT AND DUP3 ADD PUSH1 0x40 MSTORE PUSH2 0x1493 SWAP2 SWAP1 DUP2 ADD SWAP1 PUSH2 0x4CC5 JUMP JUMPDEST DUP1 MLOAD SWAP1 SWAP2 POP PUSH0 SUB PUSH2 0x14DC JUMPI PUSH1 0x40 MLOAD PUSH3 0x461BCD PUSH1 0xE5 SHL DUP2 MSTORE PUSH1 0x20 PUSH1 0x4 DUP3 ADD MSTORE PUSH1 0x13 PUSH1 0x24 DUP3 ADD MSTORE PUSH19 0x10D85CD948191BD95CC81B9BDD08195E1A5CDD PUSH1 0x6A SHL PUSH1 0x44 DUP3 ADD MSTORE PUSH1 0x64 ADD PUSH2 0x7FE JUMP JUMPDEST DUP1 PUSH1 0xC0 ADD MLOAD ISZERO PUSH2 0x1526 JUMPI PUSH1 0x40 MLOAD PUSH3 0x461BCD PUSH1 0xE5 SHL DUP2 MSTORE PUSH1 0x20 PUSH1 0x4 DUP3 ADD MSTORE PUSH1 0x15 PUSH1 0x24 DUP3 ADD MSTORE PUSH21 0x10D85CD948185B1C9958591E481C995CDBDB1D9959 PUSH1 0x5A SHL PUSH1 0x44 DUP3 ADD MSTORE PUSH1 0x64 ADD PUSH2 0x7FE JUMP JUMPDEST PUSH1 0x1 PUSH1 0x1 PUSH1 0xA0 SHL SUB DUP3 AND PUSH2 0x1575 JUMPI PUSH1 0x40 MLOAD PUSH3 0x461BCD PUSH1 0xE5 SHL DUP2 MSTORE PUSH1 0x20 PUSH1 0x4 DUP3 ADD MSTORE PUSH1 0x16 PUSH1 0x24 DUP3 ADD MSTORE PUSH22 0x496E76616C696420726566756E642061646472657373 PUSH1 0x50 SHL PUSH1 0x44 DUP3 ADD MSTORE PUSH1 0x64 ADD PUSH2 0x7FE JUMP JUMPDEST PUSH1 0x1 PUSH1 0xC0 DUP3 ADD MSTORE TIMESTAMP PUSH1 0xA0 DUP3 ADD MSTORE PUSH1 0xE SLOAD PUSH1 0x40 MLOAD PUSH4 0xF47BE477 PUSH1 0xE0 SHL DUP2 MSTORE PUSH1 0x1 PUSH1 0x1 PUSH1 0xA0 SHL SUB SWAP1 SWAP2 AND SWAP1 PUSH4 0xF47BE477 SWAP1 PUSH2 0x15B2 SWAP1 DUP5 SWAP1 PUSH1 0x4 ADD PUSH2 0x4D8D JUMP JUMPDEST PUSH0 PUSH1 0x40 MLOAD DUP1 DUP4 SUB DUP2 PUSH0 DUP8 DUP1 EXTCODESIZE ISZERO DUP1 ISZERO PUSH2 0x15C9 JUMPI PUSH0 PUSH0 REVERT JUMPDEST POP GAS CALL ISZERO DUP1 ISZERO PUSH2 0x15DB JUMPI RETURNDATASIZE PUSH0 PUSH0 RETURNDATACOPY RETURNDATASIZE PUSH0 REVERT JUMPDEST POP POP POP PUSH1 0xE0 DUP3 ADD MLOAD PUSH1 0xF SLOAD PUSH2 0x15FC SWAP3 POP PUSH1 0x1 PUSH1 0x1 PUSH1 0xA0 SHL SUB AND SWAP1 DUP5 SWAP1 PUSH2 0x3000 JUMP JUMPDEST DUP2 PUSH1 0x1 PUSH1 0x1 PUSH1 0xA0 SHL SUB AND DUP4 PUSH32 0x38795CDD1E401FDBDB393603CAF11DAD9CC78CE117FA7BDC233245878748120 DUP4 PUSH1 0xE0 ADD MLOAD PUSH1 0x40 MLOAD PUSH2 0x163C SWAP2 DUP2 MSTORE PUSH1 0x20 ADD SWAP1 JUMP JUMPDEST PUSH1 0x40 MLOAD DUP1 SWAP2 SUB SWAP1 LOG3 POP POP POP JUMP JUMPDEST PUSH2 0x1651 PUSH2 0x2F6A JUMP JUMPDEST PUSH1 0xF DUP1 SLOAD PUSH1 0x1 PUSH1 0x1 PUSH1 0xA0 SHL SUB NOT AND PUSH1 0x1 PUSH1 0x1 PUSH1 0xA0 SHL SUB DUP4 AND SWAP1 DUP2 OR SWAP1 SWAP2 SSTORE PUSH1 0x40 MLOAD PUSH32 0xBD4032C1C91DA2791730EA1BBC82C6B6F857DA7C0A8318143D19EF74E62CD913 SWAP1 PUSH0 SWAP1 LOG2 POP JUMP JUMPDEST DUP5 PUSH1 0x1 PUSH1 0x1 PUSH1 0xA0 SHL SUB AND PUSH2 0x16AC PUSH2 0x2F21 JUMP JUMPDEST PUSH1 0x1 PUSH1 0x1 PUSH1 0xA0 SHL SUB AND EQ PUSH2 0x1702 JUMPI PUSH1 0x40 MLOAD PUSH3 0x461BCD PUSH1 0xE5 SHL DUP2 MSTORE PUSH1 0x20 PUSH1 0x4 DUP3 ADD MSTORE PUSH1 0x1B PUSH1 0x24 DUP3 ADD MSTORE PUSH32 0x4F6E6C79206D656D6265722063616E2063726561746520636173650000000000 PUSH1 0x44 DUP3 ADD MSTORE PUSH1 0x64 ADD PUSH2 0x7FE JUMP JUMPDEST PUSH0 PUSH2 0x170C DUP7 PUSH2 0x191D JUMP JUMPDEST GT PUSH2 0x1759 JUMPI PUSH1 0x40 MLOAD PUSH3 0x461BCD PUSH1 0xE5 SHL DUP2 MSTORE PUSH1 0x20 PUSH1 0x4 DUP3 ADD MSTORE PUSH1 0x17 PUSH1 0x24 DUP3 ADD MSTORE PUSH32 0x4D656D62657273686970204E4654207265717569726564000000000000000000 PUSH1 0x44 DUP3 ADD MSTORE PUSH1 0x64 ADD PUSH2 0x7FE JUMP JUMPDEST PUSH1 0xE SLOAD PUSH1 0x40 DUP1 MLOAD PUSH4 0x426E0403 PUSH1 0xE1 SHL DUP2 MSTORE SWAP1 MLOAD PUSH0 SWAP3 PUSH1 0x1 PUSH1 0x1 PUSH1 0xA0 SHL SUB AND SWAP2 PUSH4 0x84DC0806 SWAP2 PUSH1 0x4 DUP1 DUP4 ADD SWAP3 PUSH1 0x20 SWAP3 SWAP2 SWAP1 DUP3 SWAP1 SUB ADD DUP2 DUP8 DUP8 GAS CALL ISZERO DUP1 ISZERO PUSH2 0x17A1 JUMPI RETURNDATASIZE PUSH0 PUSH0 RETURNDATACOPY RETURNDATASIZE PUSH0 REVERT JUMPDEST POP POP POP POP PUSH1 0x40 MLOAD RETURNDATASIZE PUSH1 0x1F NOT PUSH1 0x1F DUP3 ADD AND DUP3 ADD DUP1 PUSH1 0x40 MSTORE POP DUP2 ADD SWAP1 PUSH2 0x17C5 SWAP2 SWAP1 PUSH2 0x4EF6 JUMP JUMPDEST SWAP1 POP PUSH0 PUSH1 0x40 MLOAD DUP1 PUSH2 0x100 ADD PUSH1 0x40 MSTORE DUP1 DUP4 DUP2 MSTORE PUSH1 0x20 ADD DUP9 PUSH1 0x1 PUSH1 0x1 PUSH1 0xA0 SHL SUB AND DUP2 MSTORE PUSH1 0x20 ADD DUP10 PUSH1 0x1 PUSH1 0x1 PUSH1 0xA0 SHL SUB AND DUP2 MSTORE PUSH1 0x20 ADD DUP8 DUP8 DUP1 DUP1 PUSH1 0x1F ADD PUSH1 0x20 DUP1 SWAP2 DIV MUL PUSH1 0x20 ADD PUSH1 0x40 MLOAD SWAP1 DUP2 ADD PUSH1 0x40 MSTORE DUP1 SWAP4 SWAP3 SWAP2 SWAP1 DUP2 DUP2 MSTORE PUSH1 0x20 ADD DUP4 DUP4 DUP1 DUP3 DUP5 CALLDATACOPY PUSH0 SWAP3 ADD DUP3 SWAP1 MSTORE POP SWAP4 DUP6 MSTORE POP POP TIMESTAMP PUSH1 0x20 DUP5 ADD MSTORE POP PUSH1 0x40 DUP1 DUP4 ADD DUP3 SWAP1 MSTORE PUSH1 0x60 DUP4 ADD SWAP2 SWAP1 SWAP2 MSTORE PUSH1 0x80 SWAP1 SWAP2 ADD DUP7 SWAP1 MSTORE PUSH1 0xE SLOAD SWAP1 MLOAD PUSH4 0xF47BE477 PUSH1 0xE0 SHL DUP2 MSTORE SWAP2 SWAP3 POP PUSH1 0x1 PUSH1 0x1 PUSH1 0xA0 SHL SUB AND SWAP1 PUSH4 0xF47BE477 SWAP1 PUSH2 0x187D SWAP1 DUP5 SWAP1 PUSH1 0x4 ADD PUSH2 0x4D8D JUMP JUMPDEST PUSH0 PUSH1 0x40 MLOAD DUP1 DUP4 SUB DUP2 PUSH0 DUP8 DUP1 EXTCODESIZE ISZERO DUP1 ISZERO PUSH2 0x1894 JUMPI PUSH0 PUSH0 REVERT JUMPDEST POP GAS CALL ISZERO DUP1 ISZERO PUSH2 0x18A6 JUMPI RETURNDATASIZE PUSH0 PUSH0 RETURNDATACOPY RETURNDATASIZE PUSH0 REVERT JUMPDEST POP POP PUSH1 0xF SLOAD PUSH2 0x18C3 SWAP3 POP PUSH1 0x1 PUSH1 0x1 PUSH1 0xA0 SHL SUB AND SWAP1 POP DUP9 ADDRESS DUP8 PUSH2 0x305F JUMP JUMPDEST DUP7 PUSH1 0x1 PUSH1 0x1 PUSH1 0xA0 SHL SUB AND DUP3 DUP10 PUSH1 0x1 PUSH1 0x1 PUSH1 0xA0 SHL SUB AND PUSH32 0xC18563FF27245B6F08B02ACADBABD8D64917C95F956596F4A216768F8A91BAA1 DUP7 PUSH1 0x40 MLOAD PUSH2 0x190B SWAP2 ISZERO ISZERO DUP2 MSTORE PUSH1 0x20 ADD SWAP1 JUMP JUMPDEST PUSH1 0x40 MLOAD DUP1 SWAP2 SUB SWAP1 LOG4 POP POP POP POP POP POP POP POP JUMP JUMPDEST PUSH0 PUSH1 0x1 PUSH1 0x1 PUSH1 0xA0 SHL SUB DUP3 AND PUSH2 0x1947 JUMPI PUSH1 0x40 MLOAD PUSH4 0x22718AD9 PUSH1 0xE2 SHL DUP2 MSTORE PUSH0 PUSH1 0x4 DUP3 ADD MSTORE PUSH1 0x24 ADD PUSH2 0x7FE JUMP JUMPDEST POP PUSH1 0x1 PUSH1 0x1 PUSH1 0xA0 SHL SUB AND PUSH0 SWAP1 DUP2 MSTORE PUSH1 0x3 PUSH1 0x20 MSTORE PUSH1 0x40 SWAP1 KECCAK256 SLOAD SWAP1 JUMP JUMPDEST PUSH2 0x196A PUSH2 0x2F6A JUMP JUMPDEST PUSH2 0x1973 PUSH0 PUSH2 0x3098 JUMP JUMPDEST JUMP JUMPDEST PUSH0 PUSH1 0x60 DUP1 PUSH0 PUSH0 PUSH0 PUSH1 0x60 PUSH2 0x1986 PUSH2 0x30E9 JUMP JUMPDEST PUSH2 0x198E PUSH2 0x3116 JUMP JUMPDEST PUSH1 0x40 DUP1 MLOAD PUSH0 DUP1 DUP3 MSTORE PUSH1 0x20 DUP3 ADD SWAP1 SWAP3 MSTORE PUSH1 0xF PUSH1 0xF8 SHL SWAP12 SWAP4 SWAP11 POP SWAP2 SWAP9 POP CHAINID SWAP8 POP ADDRESS SWAP7 POP SWAP5 POP SWAP3 POP SWAP1 POP JUMP JUMPDEST PUSH2 0x19BF PUSH2 0x2F6A JUMP JUMPDEST PUSH0 DUP2 SWAP1 POP PUSH0 DUP2 PUSH1 0x1 PUSH1 0x1 PUSH1 0xA0 SHL SUB AND PUSH4 0x18160DDD PUSH1 0x40 MLOAD DUP2 PUSH4 0xFFFFFFFF AND PUSH1 0xE0 SHL DUP2 MSTORE PUSH1 0x4 ADD PUSH1 0x20 PUSH1 0x40 MLOAD DUP1 DUP4 SUB DUP2 DUP7 GAS STATICCALL ISZERO DUP1 ISZERO PUSH2 0x1A00 JUMPI RETURNDATASIZE PUSH0 PUSH0 RETURNDATACOPY RETURNDATASIZE PUSH0 REVERT JUMPDEST POP POP POP POP PUSH1 0x40 MLOAD RETURNDATASIZE PUSH1 0x1F NOT PUSH1 0x1F DUP3 ADD AND DUP3 ADD DUP1 PUSH1 0x40 MSTORE POP DUP2 ADD SWAP1 PUSH2 0x1A24 SWAP2 SWAP1 PUSH2 0x4EF6 JUMP JUMPDEST SWAP1 POP PUSH0 DUP3 PUSH1 0x1 PUSH1 0x1 PUSH1 0xA0 SHL SUB AND PUSH4 0x8DA5CB5B PUSH1 0x40 MLOAD DUP2 PUSH4 0xFFFFFFFF AND PUSH1 0xE0 SHL DUP2 MSTORE PUSH1 0x4 ADD PUSH1 0x20 PUSH1 0x40 MLOAD DUP1 DUP4 SUB DUP2 PUSH0 DUP8 GAS CALL ISZERO DUP1 ISZERO PUSH2 0x1A64 JUMPI RETURNDATASIZE PUSH0 PUSH0 RETURNDATACOPY RETURNDATASIZE PUSH0 REVERT JUMPDEST POP POP POP POP PUSH1 0x40 MLOAD RETURNDATASIZE PUSH1 0x1F NOT PUSH1 0x1F DUP3 ADD AND DUP3 ADD DUP1 PUSH1 0x40 MSTORE POP DUP2 ADD SWAP1 PUSH2 0x1A88 SWAP2 SWAP1 PUSH2 0x4F0D JUMP JUMPDEST PUSH1 0x40 MLOAD PUSH4 0xF2FDE38B PUSH1 0xE0 SHL DUP2 MSTORE ADDRESS PUSH1 0x4 DUP3 ADD MSTORE SWAP1 SWAP2 POP PUSH1 0x1 PUSH1 0x1 PUSH1 0xA0 SHL SUB DUP5 AND SWAP1 PUSH4 0xF2FDE38B SWAP1 PUSH1 0x24 ADD PUSH0 PUSH1 0x40 MLOAD DUP1 DUP4 SUB DUP2 PUSH0 DUP8 DUP1 EXTCODESIZE ISZERO DUP1 ISZERO PUSH2 0x1AC9 JUMPI PUSH0 PUSH0 REVERT JUMPDEST POP GAS CALL ISZERO DUP1 ISZERO PUSH2 0x1ADB JUMPI RETURNDATASIZE PUSH0 PUSH0 RETURNDATACOPY RETURNDATASIZE PUSH0 REVERT JUMPDEST POP PUSH0 SWAP3 POP POP POP JUMPDEST DUP3 DUP2 LT ISZERO PUSH2 0x1CB8 JUMPI PUSH1 0x40 MLOAD PUSH4 0x4F6CCCE7 PUSH1 0xE0 SHL DUP2 MSTORE PUSH1 0x4 DUP2 ADD DUP3 SWAP1 MSTORE PUSH0 SWAP1 PUSH1 0x1 PUSH1 0x1 PUSH1 0xA0 SHL SUB DUP7 AND SWAP1 PUSH4 0x4F6CCCE7 SWAP1 PUSH1 0x24 ADD PUSH1 0x20 PUSH1 0x40 MLOAD DUP1 DUP4 SUB DUP2 DUP7 GAS STATICCALL ISZERO DUP1 ISZERO PUSH2 0x1B2F JUMPI RETURNDATASIZE PUSH0 PUSH0 RETURNDATACOPY RETURNDATASIZE PUSH0 REVERT JUMPDEST POP POP POP POP PUSH1 0x40 MLOAD RETURNDATASIZE PUSH1 0x1F NOT PUSH1 0x1F DUP3 ADD AND DUP3 ADD DUP1 PUSH1 0x40 MSTORE POP DUP2 ADD SWAP1 PUSH2 0x1B53 SWAP2 SWAP1 PUSH2 0x4EF6 JUMP JUMPDEST PUSH1 0x40 MLOAD PUSH4 0x31A9108F PUSH1 0xE1 SHL DUP2 MSTORE PUSH1 0x4 DUP2 ADD DUP3 SWAP1 MSTORE SWAP1 SWAP2 POP PUSH0 SWAP1 PUSH1 0x1 PUSH1 0x1 PUSH1 0xA0 SHL SUB DUP8 AND SWAP1 PUSH4 0x6352211E SWAP1 PUSH1 0x24 ADD PUSH1 0x20 PUSH1 0x40 MLOAD DUP1 DUP4 SUB DUP2 DUP7 GAS STATICCALL ISZERO DUP1 ISZERO PUSH2 0x1B9B JUMPI RETURNDATASIZE PUSH0 PUSH0 RETURNDATACOPY RETURNDATASIZE PUSH0 REVERT JUMPDEST POP POP POP POP PUSH1 0x40 MLOAD RETURNDATASIZE PUSH1 0x1F NOT PUSH1 0x1F DUP3 ADD AND DUP3 ADD DUP1 PUSH1 0x40 MSTORE POP DUP2 ADD SWAP1 PUSH2 0x1BBF SWAP2 SWAP1 PUSH2 0x4F0D JUMP JUMPDEST SWAP1 POP PUSH1 0x1 PUSH1 0x1 PUSH1 0xA0 SHL SUB DUP2 AND PUSH2 0x1BD6 JUMPI POP POP PUSH2 0x1CB0 JUMP JUMPDEST PUSH1 0x40 MLOAD PUSH4 0xC87B56DD PUSH1 0xE0 SHL DUP2 MSTORE PUSH1 0x4 DUP2 ADD DUP4 SWAP1 MSTORE PUSH0 SWAP1 PUSH1 0x1 PUSH1 0x1 PUSH1 0xA0 SHL SUB DUP9 AND SWAP1 PUSH4 0xC87B56DD SWAP1 PUSH1 0x24 ADD PUSH0 PUSH1 0x40 MLOAD DUP1 DUP4 SUB DUP2 DUP7 GAS STATICCALL ISZERO DUP1 ISZERO PUSH2 0x1C1A JUMPI RETURNDATASIZE PUSH0 PUSH0 RETURNDATACOPY RETURNDATASIZE PUSH0 REVERT JUMPDEST POP POP POP POP PUSH1 0x40 MLOAD RETURNDATASIZE PUSH0 DUP3 RETURNDATACOPY PUSH1 0x1F RETURNDATASIZE SWAP1 DUP2 ADD PUSH1 0x1F NOT AND DUP3 ADD PUSH1 0x40 MSTORE PUSH2 0x1C41 SWAP2 SWAP1 DUP2 ADD SWAP1 PUSH2 0x4F28 JUMP JUMPDEST SWAP1 POP PUSH2 0x1C4D DUP3 DUP5 PUSH2 0x3143 JUMP JUMPDEST PUSH2 0x1C57 DUP4 DUP3 PUSH2 0x31A4 JUMP JUMPDEST PUSH1 0x40 MLOAD PUSH4 0x852CD8D PUSH1 0xE3 SHL DUP2 MSTORE PUSH1 0x4 DUP2 ADD DUP5 SWAP1 MSTORE PUSH1 0x1 PUSH1 0x1 PUSH1 0xA0 SHL SUB DUP9 AND SWAP1 PUSH4 0x42966C68 SWAP1 PUSH1 0x24 ADD PUSH0 PUSH1 0x40 MLOAD DUP1 DUP4 SUB DUP2 PUSH0 DUP8 DUP1 EXTCODESIZE ISZERO DUP1 ISZERO PUSH2 0x1C96 JUMPI PUSH0 PUSH0 REVERT JUMPDEST POP GAS CALL ISZERO DUP1 ISZERO PUSH2 0x1CA8 JUMPI RETURNDATASIZE PUSH0 PUSH0 RETURNDATACOPY RETURNDATASIZE PUSH0 REVERT JUMPDEST POP POP POP POP POP POP POP JUMPDEST PUSH1 0x1 ADD PUSH2 0x1AE2 JUMP JUMPDEST POP DUP3 PUSH1 0x1 PUSH1 0x1 PUSH1 0xA0 SHL SUB AND PUSH4 0xF2FDE38B PUSH2 0x1CD0 PUSH2 0x2F21 JUMP JUMPDEST PUSH1 0x40 MLOAD PUSH1 0x1 PUSH1 0x1 PUSH1 0xE0 SHL SUB NOT PUSH1 0xE0 DUP5 SWAP1 SHL AND DUP2 MSTORE PUSH1 0x1 PUSH1 0x1 PUSH1 0xA0 SHL SUB SWAP1 SWAP2 AND PUSH1 0x4 DUP3 ADD MSTORE PUSH1 0x24 ADD PUSH0 PUSH1 0x40 MLOAD DUP1 DUP4 SUB DUP2 PUSH0 DUP8 DUP1 EXTCODESIZE ISZERO DUP1 ISZERO PUSH2 0x1D0E JUMPI PUSH0 PUSH0 REVERT JUMPDEST POP GAS CALL ISZERO DUP1 ISZERO PUSH2 0x1D20 JUMPI RETURNDATASIZE PUSH0 PUSH0 RETURNDATACOPY RETURNDATASIZE PUSH0 REVERT JUMPDEST POP POP POP POP POP POP POP POP JUMP JUMPDEST PUSH2 0x1D33 DUP5 PUSH2 0x191D JUMP JUMPDEST ISZERO PUSH2 0x1D80 JUMPI PUSH1 0x40 MLOAD PUSH3 0x461BCD PUSH1 0xE5 SHL DUP2 MSTORE PUSH1 0x20 PUSH1 0x4 DUP3 ADD MSTORE PUSH1 0x1A PUSH1 0x24 DUP3 ADD MSTORE PUSH32 0x416C726561647920686173206D656D62657273686970204E4654000000000000 PUSH1 0x44 DUP3 ADD MSTORE PUSH1 0x64 ADD PUSH2 0x7FE JUMP JUMPDEST PUSH1 0x13 SLOAD DUP2 EQ PUSH2 0x1DD1 JUMPI PUSH1 0x40 MLOAD PUSH3 0x461BCD PUSH1 0xE5 SHL DUP2 MSTORE PUSH1 0x20 PUSH1 0x4 DUP3 ADD MSTORE PUSH1 0x18 PUSH1 0x24 DUP3 ADD MSTORE PUSH32 0x7061792074686520657861637420616D6F756E74202121210000000000000000 PUSH1 0x44 DUP3 ADD MSTORE PUSH1 0x64 ADD PUSH2 0x7FE JUMP JUMPDEST PUSH2 0x1DF6 PUSH2 0x1DDC PUSH2 0x2F21 JUMP JUMPDEST PUSH1 0x10 SLOAD PUSH1 0xF SLOAD PUSH1 0x1 PUSH1 0x1 PUSH1 0xA0 SHL SUB SWAP1 DUP2 AND SWAP3 SWAP2 AND DUP5 PUSH2 0x305F JUMP JUMPDEST PUSH1 0x12 DUP1 SLOAD PUSH0 SWAP2 DUP3 PUSH2 0x1E06 DUP4 PUSH2 0x4F59 JUMP JUMPDEST SWAP2 SWAP1 POP SSTORE SWAP1 POP PUSH2 0x1E16 DUP6 DUP3 PUSH2 0x3143 JUMP JUMPDEST PUSH2 0x1E55 DUP2 DUP6 DUP6 DUP1 DUP1 PUSH1 0x1F ADD PUSH1 0x20 DUP1 SWAP2 DIV MUL PUSH1 0x20 ADD PUSH1 0x40 MLOAD SWAP1 DUP2 ADD PUSH1 0x40 MSTORE DUP1 SWAP4 SWAP3 SWAP2 SWAP1 DUP2 DUP2 MSTORE PUSH1 0x20 ADD DUP4 DUP4 DUP1 DUP3 DUP5 CALLDATACOPY PUSH0 SWAP3 ADD SWAP2 SWAP1 SWAP2 MSTORE POP PUSH2 0x31A4 SWAP3 POP POP POP JUMP JUMPDEST PUSH2 0x1E60 ADDRESS DUP3 DUP8 PUSH2 0x2F49 JUMP JUMPDEST PUSH0 PUSH1 0x40 MLOAD DUP1 PUSH1 0xE0 ADD PUSH1 0x40 MSTORE DUP1 DUP8 PUSH1 0x1 PUSH1 0x1 PUSH1 0xA0 SHL SUB AND DUP2 MSTORE PUSH1 0x20 ADD PUSH0 PUSH1 0x1 PUSH1 0x1 PUSH1 0xA0 SHL SUB AND DUP2 MSTORE PUSH1 0x20 ADD DUP4 DUP2 MSTORE PUSH1 0x20 ADD DUP7 DUP7 DUP1 DUP1 PUSH1 0x1F ADD PUSH1 0x20 DUP1 SWAP2 DIV MUL PUSH1 0x20 ADD PUSH1 0x40 MLOAD SWAP1 DUP2 ADD PUSH1 0x40 MSTORE DUP1 SWAP4 SWAP3 SWAP2 SWAP1 DUP2 DUP2 MSTORE PUSH1 0x20 ADD DUP4 DUP4 DUP1 DUP3 DUP5 CALLDATACOPY PUSH0 SWAP3 ADD DUP3 SWAP1 MSTORE POP SWAP4 DUP6 MSTORE POP POP TIMESTAMP PUSH1 0x20 DUP5 ADD MSTORE POP PUSH1 0x40 DUP1 DUP4 ADD SWAP2 SWAP1 SWAP2 MSTORE PUSH1 0x1 PUSH1 0x60 SWAP1 SWAP3 ADD SWAP2 SWAP1 SWAP2 MSTORE PUSH1 0xE SLOAD SWAP1 MLOAD PUSH4 0xAF947D05 PUSH1 0xE0 SHL DUP2 MSTORE SWAP2 SWAP3 POP PUSH1 0x1 PUSH1 0x1 PUSH1 0xA0 SHL SUB AND SWAP1 PUSH4 0xAF947D05 SWAP1 PUSH2 0x1F11 SWAP1 DUP5 SWAP1 PUSH1 0x4 ADD PUSH2 0x499F JUMP JUMPDEST PUSH0 PUSH1 0x40 MLOAD DUP1 DUP4 SUB DUP2 PUSH0 DUP8 DUP1 EXTCODESIZE ISZERO DUP1 ISZERO PUSH2 0x1F28 JUMPI PUSH0 PUSH0 REVERT JUMPDEST POP GAS CALL ISZERO DUP1 ISZERO PUSH2 0x1F3A JUMPI RETURNDATASIZE PUSH0 PUSH0 RETURNDATACOPY RETURNDATASIZE PUSH0 REVERT JUMPDEST POP POP PUSH1 0x40 MLOAD DUP5 SWAP3 POP PUSH1 0x1 PUSH1 0x1 PUSH1 0xA0 SHL SUB DUP10 AND SWAP2 POP PUSH32 0xFF8D95AF74A8C072247E3C2B5E73AB929E2EB87E62682F83F5707BC5BC4A759 SWAP1 PUSH0 SWAP1 LOG3 POP POP POP POP POP POP JUMP JUMPDEST PUSH1 0x11 SLOAD PUSH0 SWAP1 PUSH1 0x60 SWAP1 PUSH1 0x1 PUSH1 0x1 PUSH1 0xA0 SHL SUB AND PUSH2 0x1F94 PUSH2 0x2F21 JUMP JUMPDEST PUSH1 0x1 PUSH1 0x1 PUSH1 0xA0 SHL SUB AND EQ PUSH2 0x1FEA JUMPI PUSH1 0x40 MLOAD PUSH3 0x461BCD PUSH1 0xE5 SHL DUP2 MSTORE PUSH1 0x20 PUSH1 0x4 DUP3 ADD MSTORE PUSH1 0x19 PUSH1 0x24 DUP3 ADD MSTORE PUSH32 0x4F6E6C7920686F742077616C6C65742063616E2072656C617900000000000000 PUSH1 0x44 DUP3 ADD MSTORE PUSH1 0x64 ADD PUSH2 0x7FE JUMP JUMPDEST DUP5 PUSH1 0x80 ADD CALLDATALOAD TIMESTAMP GT ISZERO PUSH2 0x2034 JUMPI PUSH1 0x40 MLOAD PUSH3 0x461BCD PUSH1 0xE5 SHL DUP2 MSTORE PUSH1 0x20 PUSH1 0x4 DUP3 ADD MSTORE PUSH1 0x13 PUSH1 0x24 DUP3 ADD MSTORE PUSH19 0x151C985B9CD858DD1A5BDB88195E1C1A5C9959 PUSH1 0x6A SHL PUSH1 0x44 DUP3 ADD MSTORE PUSH1 0x64 ADD PUSH2 0x7FE JUMP JUMPDEST ADDRESS PUSH2 0x2045 PUSH1 0x40 DUP8 ADD PUSH1 0x20 DUP9 ADD PUSH2 0x41F6 JUMP JUMPDEST PUSH1 0x1 PUSH1 0x1 PUSH1 0xA0 SHL SUB AND EQ PUSH2 0x209B JUMPI PUSH1 0x40 MLOAD PUSH3 0x461BCD PUSH1 0xE5 SHL DUP2 MSTORE PUSH1 0x20 PUSH1 0x4 DUP3 ADD MSTORE PUSH1 0x17 PUSH1 0x24 DUP3 ADD MSTORE PUSH32 0x496E76616C69642074617267657420636F6E7472616374000000000000000000 PUSH1 0x44 DUP3 ADD MSTORE PUSH1 0x64 ADD PUSH2 0x7FE JUMP JUMPDEST PUSH1 0x14 PUSH0 PUSH2 0x20AB PUSH1 0x20 DUP9 ADD DUP9 PUSH2 0x41F6 JUMP JUMPDEST PUSH1 0x1 PUSH1 0x1 PUSH1 0xA0 SHL SUB AND PUSH1 0x1 PUSH1 0x1 PUSH1 0xA0 SHL SUB AND DUP2 MSTORE PUSH1 0x20 ADD SWAP1 DUP2 MSTORE PUSH1 0x20 ADD PUSH0 KECCAK256 SLOAD DUP6 PUSH1 0x60 ADD CALLDATALOAD EQ PUSH2 0x210D JUMPI PUSH1 0x40 MLOAD PUSH3 0x461BCD PUSH1 0xE5 SHL DUP2 MSTORE PUSH1 0x20 PUSH1 0x4 DUP3 ADD MSTORE PUSH1 0xD PUSH1 0x24 DUP3 ADD MSTORE PUSH13 0x496E76616C6964206E6F6E6365 PUSH1 0x98 SHL PUSH1 0x44 DUP3 ADD MSTORE PUSH1 0x64 ADD PUSH2 0x7FE JUMP JUMPDEST PUSH0 PUSH2 0x21CE PUSH32 0xF6109B17BAD5D696DA1177C53DBF6B26362ADB31D830C28E818ECC649963F427 PUSH2 0x213F PUSH1 0x20 DUP10 ADD DUP10 PUSH2 0x41F6 JUMP JUMPDEST PUSH2 0x214F PUSH1 0x40 DUP11 ADD PUSH1 0x20 DUP12 ADD PUSH2 0x41F6 JUMP JUMPDEST PUSH2 0x215C PUSH1 0x40 DUP12 ADD DUP12 PUSH2 0x4F71 JUMP JUMPDEST PUSH1 0x40 MLOAD PUSH2 0x216A SWAP3 SWAP2 SWAP1 PUSH2 0x4FB3 JUMP JUMPDEST PUSH1 0x40 DUP1 MLOAD SWAP2 DUP3 SWAP1 SUB DUP3 KECCAK256 PUSH1 0x20 DUP4 ADD SWAP6 SWAP1 SWAP6 MSTORE PUSH1 0x1 PUSH1 0x1 PUSH1 0xA0 SHL SUB SWAP4 DUP5 AND SWAP1 DUP3 ADD MSTORE SWAP2 AND PUSH1 0x60 DUP1 DUP4 ADD SWAP2 SWAP1 SWAP2 MSTORE PUSH1 0x80 DUP1 DUP4 ADD SWAP4 SWAP1 SWAP4 MSTORE DUP10 ADD CALLDATALOAD PUSH1 0xA0 DUP3 ADD MSTORE SWAP1 DUP9 ADD CALLDATALOAD PUSH1 0xC0 DUP3 ADD MSTORE PUSH1 0xE0 ADD PUSH1 0x40 MLOAD PUSH1 0x20 DUP2 DUP4 SUB SUB DUP2 MSTORE SWAP1 PUSH1 0x40 MSTORE DUP1 MLOAD SWAP1 PUSH1 0x20 ADD KECCAK256 PUSH2 0x31F3 JUMP JUMPDEST SWAP1 POP PUSH0 PUSH2 0x2210 DUP3 DUP8 DUP8 DUP1 DUP1 PUSH1 0x1F ADD PUSH1 0x20 DUP1 SWAP2 DIV MUL PUSH1 0x20 ADD PUSH1 0x40 MLOAD SWAP1 DUP2 ADD PUSH1 0x40 MSTORE DUP1 SWAP4 SWAP3 SWAP2 SWAP1 DUP2 DUP2 MSTORE PUSH1 0x20 ADD DUP4 DUP4 DUP1 DUP3 DUP5 CALLDATACOPY PUSH0 SWAP3 ADD SWAP2 SWAP1 SWAP2 MSTORE POP PUSH2 0x321F SWAP3 POP POP POP JUMP JUMPDEST SWAP1 POP PUSH2 0x221F PUSH1 0x20 DUP9 ADD DUP9 PUSH2 0x41F6 JUMP JUMPDEST PUSH1 0x1 PUSH1 0x1 PUSH1 0xA0 SHL SUB AND DUP2 PUSH1 0x1 PUSH1 0x1 PUSH1 0xA0 SHL SUB AND EQ PUSH2 0x2273 JUMPI PUSH1 0x40 MLOAD PUSH3 0x461BCD PUSH1 0xE5 SHL DUP2 MSTORE PUSH1 0x20 PUSH1 0x4 DUP3 ADD MSTORE PUSH1 0x11 PUSH1 0x24 DUP3 ADD MSTORE PUSH17 0x496E76616C6964207369676E6174757265 PUSH1 0x78 SHL PUSH1 0x44 DUP3 ADD MSTORE PUSH1 0x64 ADD PUSH2 0x7FE JUMP JUMPDEST PUSH1 0x1 PUSH1 0x1 PUSH1 0xA0 SHL SUB DUP2 AND PUSH2 0x22BA JUMPI PUSH1 0x40 MLOAD PUSH3 0x461BCD PUSH1 0xE5 SHL DUP2 MSTORE PUSH1 0x20 PUSH1 0x4 DUP3 ADD MSTORE PUSH1 0xE PUSH1 0x24 DUP3 ADD MSTORE PUSH14 0x24B73B30B634B21039B4B3B732B9 PUSH1 0x91 SHL PUSH1 0x44 DUP3 ADD MSTORE PUSH1 0x64 ADD PUSH2 0x7FE JUMP JUMPDEST PUSH1 0x14 PUSH0 PUSH2 0x22CA PUSH1 0x20 DUP11 ADD DUP11 PUSH2 0x41F6 JUMP JUMPDEST PUSH1 0x1 PUSH1 0x1 PUSH1 0xA0 SHL SUB AND DUP2 MSTORE PUSH1 0x20 DUP2 ADD SWAP2 SWAP1 SWAP2 MSTORE PUSH1 0x40 ADD PUSH0 SWAP1 DUP2 KECCAK256 DUP1 SLOAD SWAP2 PUSH2 0x22F0 DUP4 PUSH2 0x4F59 JUMP JUMPDEST SWAP1 SWAP2 SSTORE POP ADDRESS SWAP1 POP PUSH2 0x2304 PUSH1 0x40 DUP10 ADD DUP10 PUSH2 0x4F71 JUMP JUMPDEST PUSH2 0x2311 PUSH1 0x20 DUP12 ADD DUP12 PUSH2 0x41F6 JUMP JUMPDEST PUSH1 0x40 MLOAD PUSH1 0x20 ADD PUSH2 0x2323 SWAP4 SWAP3 SWAP2 SWAP1 PUSH2 0x4FC2 JUMP JUMPDEST PUSH1 0x40 DUP1 MLOAD PUSH1 0x1F NOT DUP2 DUP5 SUB ADD DUP2 MSTORE SWAP1 DUP3 SWAP1 MSTORE PUSH2 0x233D SWAP2 PUSH2 0x4FFF JUMP JUMPDEST PUSH0 PUSH1 0x40 MLOAD DUP1 DUP4 SUB DUP2 PUSH0 DUP7 GAS CALL SWAP2 POP POP RETURNDATASIZE DUP1 PUSH0 DUP2 EQ PUSH2 0x2376 JUMPI PUSH1 0x40 MLOAD SWAP2 POP PUSH1 0x1F NOT PUSH1 0x3F RETURNDATASIZE ADD AND DUP3 ADD PUSH1 0x40 MSTORE RETURNDATASIZE DUP3 MSTORE RETURNDATASIZE PUSH0 PUSH1 0x20 DUP5 ADD RETURNDATACOPY PUSH2 0x237B JUMP JUMPDEST PUSH1 0x60 SWAP2 POP JUMPDEST POP SWAP1 SWAP5 POP SWAP3 POP PUSH0 PUSH1 0x4 PUSH2 0x2391 PUSH1 0x40 DUP11 ADD DUP11 PUSH2 0x4F71 JUMP JUMPDEST SWAP1 POP LT PUSH2 0x2468 JUMPI PUSH1 0x18 PUSH2 0x23A7 PUSH1 0x40 DUP11 ADD DUP11 PUSH2 0x4F71 JUMP JUMPDEST PUSH1 0x3 DUP2 DUP2 LT PUSH2 0x23B8 JUMPI PUSH2 0x23B8 PUSH2 0x4E3E JUMP JUMPDEST SWAP1 SWAP2 ADD CALLDATALOAD PUSH1 0x1 PUSH1 0x1 PUSH1 0xF8 SHL SUB NOT AND SWAP1 SWAP2 SHR SWAP1 POP PUSH1 0x10 PUSH2 0x23DA PUSH1 0x40 DUP12 ADD DUP12 PUSH2 0x4F71 JUMP JUMPDEST PUSH1 0x2 DUP2 DUP2 LT PUSH2 0x23EB JUMPI PUSH2 0x23EB PUSH2 0x4E3E JUMP JUMPDEST SWAP1 SWAP2 ADD CALLDATALOAD PUSH1 0x1 PUSH1 0x1 PUSH1 0xF8 SHL SUB NOT AND SWAP1 SWAP2 SHR SWAP1 POP PUSH1 0x8 PUSH2 0x240D PUSH1 0x40 DUP13 ADD DUP13 PUSH2 0x4F71 JUMP JUMPDEST PUSH1 0x1 DUP2 DUP2 LT PUSH2 0x241E JUMPI PUSH2 0x241E PUSH2 0x4E3E JUMP JUMPDEST SWAP1 SWAP2 ADD CALLDATALOAD PUSH1 0x1 PUSH1 0x1 PUSH1 0xF8 SHL SUB NOT AND SWAP1 SWAP2 SHR SWAP1 POP PUSH2 0x243E PUSH1 0x40 DUP13 ADD DUP13 PUSH2 0x4F71 JUMP JUMPDEST PUSH0 DUP2 DUP2 LT PUSH2 0x244E JUMPI PUSH2 0x244E PUSH2 0x4E3E JUMP JUMPDEST SWAP1 POP ADD CALLDATALOAD PUSH1 0xF8 SHR PUSH1 0xF8 SHL PUSH1 0x1 PUSH1 0x1 PUSH1 0xF8 SHL SUB NOT AND OR OR OR SWAP1 POP JUMPDEST PUSH2 0x2470 PUSH2 0x2F21 JUMP JUMPDEST PUSH1 0x1 PUSH1 0x1 PUSH1 0xA0 SHL SUB AND PUSH2 0x2486 PUSH1 0x20 DUP11 ADD DUP11 PUSH2 0x41F6 JUMP JUMPDEST PUSH1 0x1 PUSH1 0x1 PUSH1 0xA0 SHL SUB AND PUSH32 0xD363F61FA19CC252CAB2E447E0CEA9813F68AB25DF891AA540047EFD799107D DUP4 DUP9 DUP13 PUSH1 0x60 ADD CALLDATALOAD PUSH1 0x40 MLOAD PUSH2 0x24E3 SWAP4 SWAP3 SWAP2 SWAP1 PUSH1 0x1 PUSH1 0x1 PUSH1 0xE0 SHL SUB NOT SWAP4 SWAP1 SWAP4 AND DUP4 MSTORE SWAP1 ISZERO ISZERO PUSH1 0x20 DUP4 ADD MSTORE PUSH1 0x40 DUP3 ADD MSTORE PUSH1 0x60 ADD SWAP1 JUMP JUMPDEST PUSH1 0x40 MLOAD DUP1 SWAP2 SUB SWAP1 LOG3 POP POP POP SWAP4 POP SWAP4 SWAP2 POP POP JUMP JUMPDEST PUSH1 0x60 PUSH1 0x1 DUP1 SLOAD PUSH2 0x71B SWAP1 PUSH2 0x4844 JUMP JUMPDEST PUSH2 0x250D PUSH2 0x2F6A JUMP JUMPDEST PUSH1 0x40 MLOAD PUSH4 0x428178E1 PUSH1 0xE1 SHL DUP2 MSTORE PUSH1 0x1 PUSH1 0x1 PUSH1 0xA0 SHL SUB DUP3 AND PUSH1 0x4 DUP3 ADD MSTORE ADDRESS SWAP1 PUSH4 0x8502F1C2 SWAP1 PUSH1 0x24 ADD PUSH0 PUSH1 0x40 MLOAD DUP1 DUP4 SUB DUP2 PUSH0 DUP8 DUP1 EXTCODESIZE ISZERO DUP1 ISZERO PUSH2 0x254B JUMPI PUSH0 PUSH0 REVERT JUMPDEST POP GAS CALL ISZERO DUP1 ISZERO PUSH2 0x255D JUMPI RETURNDATASIZE PUSH0 PUSH0 RETURNDATACOPY RETURNDATASIZE PUSH0 REVERT JUMPDEST POP POP PUSH1 0x40 MLOAD PUSH4 0x7216EF17 PUSH1 0xE1 SHL DUP2 MSTORE PUSH1 0x1 PUSH1 0x1 PUSH1 0xA0 SHL SUB DUP5 AND PUSH1 0x4 DUP3 ADD MSTORE ADDRESS SWAP3 POP PUSH4 0xE42DDE2E SWAP2 POP PUSH1 0x24 ADD PUSH0 PUSH1 0x40 MLOAD DUP1 DUP4 SUB DUP2 PUSH0 DUP8 DUP1 EXTCODESIZE ISZERO DUP1 ISZERO PUSH2 0x259F JUMPI PUSH0 PUSH0 REVERT JUMPDEST POP GAS CALL ISZERO DUP1 ISZERO PUSH2 0x25B1 JUMPI RETURNDATASIZE PUSH0 PUSH0 RETURNDATACOPY RETURNDATASIZE PUSH0 REVERT JUMPDEST POP POP POP POP POP JUMP JUMPDEST PUSH2 0x25C0 PUSH2 0x2F6A JUMP JUMPDEST PUSH1 0x1 PUSH1 0x1 PUSH1 0xA0 SHL SUB DUP2 AND PUSH2 0x2608 JUMPI PUSH1 0x40 MLOAD PUSH3 0x461BCD PUSH1 0xE5 SHL DUP2 MSTORE PUSH1 0x20 PUSH1 0x4 DUP3 ADD MSTORE PUSH1 0xF PUSH1 0x24 DUP3 ADD MSTORE PUSH15 0x496E76616C69642061646472657373 PUSH1 0x88 SHL PUSH1 0x44 DUP3 ADD MSTORE PUSH1 0x64 ADD PUSH2 0x7FE JUMP JUMPDEST PUSH1 0x11 DUP1 SLOAD PUSH1 0x1 PUSH1 0x1 PUSH1 0xA0 SHL SUB DUP4 DUP2 AND PUSH1 0x1 PUSH1 0x1 PUSH1 0xA0 SHL SUB NOT DUP4 AND DUP2 OR SWAP1 SWAP4 SSTORE PUSH1 0x40 MLOAD SWAP2 AND SWAP2 SWAP1 DUP3 SWAP1 PUSH32 0x6E73FFA1A8F189F9779DBF1C167B351DCF9278E2D77B08F45E0244A6D2D2A2B7 SWAP1 PUSH0 SWAP1 LOG3 POP POP JUMP JUMPDEST PUSH2 0x7D5 PUSH2 0x2664 PUSH2 0x2F21 JUMP JUMPDEST DUP4 DUP4 PUSH2 0x3247 JUMP JUMPDEST PUSH1 0xE SLOAD PUSH1 0x40 MLOAD PUSH4 0x288C3149 PUSH1 0xE2 SHL DUP2 MSTORE PUSH1 0x1 PUSH1 0x1 PUSH1 0xA0 SHL SUB DUP4 DUP2 AND PUSH1 0x4 DUP4 ADD MSTORE PUSH0 SWAP3 AND SWAP1 PUSH4 0xA230C524 SWAP1 PUSH1 0x24 ADD PUSH2 0x13D5 JUMP JUMPDEST PUSH1 0xB SLOAD PUSH1 0x1 PUSH1 0x1 PUSH1 0xA0 SHL SUB AND PUSH2 0x26B1 PUSH2 0x2F21 JUMP JUMPDEST PUSH1 0x1 PUSH1 0x1 PUSH1 0xA0 SHL SUB AND EQ PUSH2 0x271A JUMPI PUSH1 0x40 MLOAD PUSH3 0x461BCD PUSH1 0xE5 SHL DUP2 MSTORE PUSH1 0x20 PUSH1 0x4 DUP3 ADD MSTORE PUSH1 0x2A PUSH1 0x24 DUP3 ADD MSTORE PUSH32 0x556E617574686F72697A65643A204F6E6C79206F776E65722063616E20757064 PUSH1 0x44 DUP3 ADD MSTORE PUSH10 0x61746520737461747573 PUSH1 0xB0 SHL PUSH1 0x64 DUP3 ADD MSTORE PUSH1 0x84 ADD PUSH2 0x7FE JUMP JUMPDEST PUSH1 0xE SLOAD PUSH1 0x40 MLOAD PUSH4 0xA6C6A8F3 PUSH1 0xE0 SHL DUP2 MSTORE PUSH1 0x4 DUP2 ADD DUP5 SWAP1 MSTORE PUSH0 SWAP2 PUSH1 0x1 PUSH1 0x1 PUSH1 0xA0 SHL SUB AND SWAP1 PUSH4 0xA6C6A8F3 SWAP1 PUSH1 0x24 ADD PUSH0 PUSH1 0x40 MLOAD DUP1 DUP4 SUB DUP2 DUP7 GAS STATICCALL ISZERO DUP1 ISZERO PUSH2 0x2760 JUMPI RETURNDATASIZE PUSH0 PUSH0 RETURNDATACOPY RETURNDATASIZE PUSH0 REVERT JUMPDEST POP POP POP POP PUSH1 0x40 MLOAD RETURNDATASIZE PUSH0 DUP3 RETURNDATACOPY PUSH1 0x1F RETURNDATASIZE SWAP1 DUP2 ADD PUSH1 0x1F NOT AND DUP3 ADD PUSH1 0x40 MSTORE PUSH2 0x2787 SWAP2 SWAP1 DUP2 ADD SWAP1 PUSH2 0x5196 JUMP JUMPDEST DUP1 MLOAD SWAP1 SWAP2 POP PUSH0 SUB PUSH2 0x27DA JUMPI PUSH1 0x40 MLOAD PUSH3 0x461BCD PUSH1 0xE5 SHL DUP2 MSTORE PUSH1 0x20 PUSH1 0x4 DUP3 ADD MSTORE PUSH1 0x17 PUSH1 0x24 DUP3 ADD MSTORE PUSH32 0x496E636964656E7420646F6573206E6F74206578697374000000000000000000 PUSH1 0x44 DUP3 ADD MSTORE PUSH1 0x64 ADD PUSH2 0x7FE JUMP JUMPDEST DUP2 PUSH1 0xFF AND PUSH1 0x2 DUP2 GT ISZERO PUSH2 0x27EF JUMPI PUSH2 0x27EF PUSH2 0x529C JUMP JUMPDEST DUP2 PUSH1 0x80 ADD SWAP1 PUSH1 0x2 DUP2 GT ISZERO PUSH2 0x2805 JUMPI PUSH2 0x2805 PUSH2 0x529C JUMP JUMPDEST SWAP1 DUP2 PUSH1 0x2 DUP2 GT ISZERO PUSH2 0x2818 JUMPI PUSH2 0x2818 PUSH2 0x529C JUMP JUMPDEST SWAP1 MSTORE POP PUSH2 0x2823 PUSH2 0x2F21 JUMP JUMPDEST PUSH1 0x1 PUSH1 0x1 PUSH1 0xA0 SHL SUB SWAP1 DUP2 AND PUSH1 0xA0 DUP4 ADD MSTORE PUSH1 0xE SLOAD PUSH1 0x40 MLOAD PUSH4 0xA599681F PUSH1 0xE0 SHL DUP2 MSTORE SWAP2 AND SWAP1 PUSH4 0xA599681F SWAP1 PUSH2 0x285A SWAP1 DUP5 SWAP1 PUSH1 0x4 ADD PUSH2 0x531E JUMP JUMPDEST PUSH0 PUSH1 0x40 MLOAD DUP1 DUP4 SUB DUP2 PUSH0 DUP8 DUP1 EXTCODESIZE ISZERO DUP1 ISZERO PUSH2 0x2871 JUMPI PUSH0 PUSH0 REVERT JUMPDEST POP GAS CALL ISZERO DUP1 ISZERO PUSH2 0x2883 JUMPI RETURNDATASIZE PUSH0 PUSH0 RETURNDATACOPY RETURNDATASIZE PUSH0 REVERT JUMPDEST POP POP POP POP PUSH2 0x288F PUSH2 0x2F21 JUMP JUMPDEST PUSH1 0x1 PUSH1 0x1 PUSH1 0xA0 SHL SUB AND DUP4 PUSH32 0x1203445AFE71A7457FEDFE3ED5F7DFBCEFAC21AEACEE1BAF8AF2B4639FBFDBEB DUP5 PUSH1 0x40 MLOAD PUSH2 0x163C SWAP2 SWAP1 PUSH1 0xFF SWAP2 SWAP1 SWAP2 AND DUP2 MSTORE PUSH1 0x20 ADD SWAP1 JUMP JUMPDEST PUSH1 0xB SLOAD PUSH1 0x1 PUSH1 0x1 PUSH1 0xA0 SHL SUB AND PUSH2 0x28E5 PUSH2 0x2F21 JUMP JUMPDEST PUSH1 0x1 PUSH1 0x1 PUSH1 0xA0 SHL SUB AND EQ PUSH2 0x2947 JUMPI PUSH1 0x40 MLOAD PUSH3 0x461BCD PUSH1 0xE5 SHL DUP2 MSTORE PUSH1 0x20 PUSH1 0x4 DUP3 ADD MSTORE PUSH1 0x23 PUSH1 0x24 DUP3 ADD MSTORE PUSH32 0x556E617574686F72697A65643A204F6E6C79206F776E65722063616E20726577 PUSH1 0x44 DUP3 ADD MSTORE PUSH3 0x185C99 PUSH1 0xEA SHL PUSH1 0x64 DUP3 ADD MSTORE PUSH1 0x84 ADD PUSH2 0x7FE JUMP JUMPDEST PUSH1 0xF SLOAD PUSH2 0x295E SWAP1 PUSH1 0x1 PUSH1 0x1 PUSH1 0xA0 SHL SUB AND DUP5 DUP4 PUSH2 0x3000 JUMP JUMPDEST PUSH1 0x40 DUP1 MLOAD DUP3 DUP2 MSTORE PUSH1 0x20 DUP2 ADD DUP5 SWAP1 MSTORE PUSH1 0x1 PUSH1 0x1 PUSH1 0xA0 SHL SUB DUP6 AND SWAP2 PUSH32 0x9BC545157F97CA1D7D6020A624C818E914739C4A4F4203F263439ED019AC270 SWAP2 ADD PUSH1 0x40 MLOAD DUP1 SWAP2 SUB SWAP1 LOG2 POP POP POP JUMP JUMPDEST PUSH2 0x29B2 DUP5 DUP5 DUP5 PUSH2 0x7D9 JUMP JUMPDEST PUSH2 0x868 PUSH2 0x29BD PUSH2 0x2F21 JUMP JUMPDEST DUP6 DUP6 DUP6 DUP6 PUSH2 0x32DD JUMP JUMPDEST PUSH1 0x60 PUSH2 0x707 DUP3 PUSH2 0x3404 JUMP JUMPDEST PUSH2 0x123E PUSH2 0x2F6A JUMP JUMPDEST PUSH1 0xE SLOAD PUSH1 0x40 MLOAD PUSH4 0x8BFEFFE5 PUSH1 0xE0 SHL DUP2 MSTORE PUSH1 0x1 PUSH1 0x1 PUSH1 0xA0 SHL SUB DUP4 DUP2 AND PUSH1 0x4 DUP4 ADD MSTORE PUSH1 0x60 SWAP3 PUSH0 SWAP3 SWAP2 AND SWAP1 PUSH4 0x8BFEFFE5 SWAP1 PUSH1 0x24 ADD PUSH0 PUSH1 0x40 MLOAD DUP1 DUP4 SUB DUP2 DUP7 GAS STATICCALL ISZERO DUP1 ISZERO PUSH2 0x2A24 JUMPI RETURNDATASIZE PUSH0 PUSH0 RETURNDATACOPY RETURNDATASIZE PUSH0 REVERT JUMPDEST POP POP POP POP PUSH1 0x40 MLOAD RETURNDATASIZE PUSH0 DUP3 RETURNDATACOPY PUSH1 0x1F RETURNDATASIZE SWAP1 DUP2 ADD PUSH1 0x1F NOT AND DUP3 ADD PUSH1 0x40 MSTORE PUSH2 0x2A4B SWAP2 SWAP1 DUP2 ADD SWAP1 PUSH2 0x53CE JUMP JUMPDEST POP SWAP4 SWAP3 POP POP POP JUMP JUMPDEST PUSH2 0x2A5B PUSH2 0x2F6A JUMP JUMPDEST PUSH1 0xF SLOAD PUSH1 0x40 MLOAD PUSH4 0x70A08231 PUSH1 0xE0 SHL DUP2 MSTORE ADDRESS PUSH1 0x4 DUP3 ADD MSTORE PUSH0 SWAP2 PUSH1 0x1 PUSH1 0x1 PUSH1 0xA0 SHL SUB AND SWAP1 PUSH4 0x70A08231 SWAP1 PUSH1 0x24 ADD PUSH1 0x20 PUSH1 0x40 MLOAD DUP1 DUP4 SUB DUP2 DUP7 GAS STATICCALL ISZERO DUP1 ISZERO PUSH2 0x2AA1 JUMPI RETURNDATASIZE PUSH0 PUSH0 RETURNDATACOPY RETURNDATASIZE PUSH0 REVERT JUMPDEST POP POP POP POP PUSH1 0x40 MLOAD RETURNDATASIZE PUSH1 0x1F NOT PUSH1 0x1F DUP3 ADD AND DUP3 ADD DUP1 PUSH1 0x40 MSTORE POP DUP2 ADD SWAP1 PUSH2 0x2AC5 SWAP2 SWAP1 PUSH2 0x4EF6 JUMP JUMPDEST SWAP1 POP PUSH0 DUP2 GT PUSH2 0x2B16 JUMPI PUSH1 0x40 MLOAD PUSH3 0x461BCD PUSH1 0xE5 SHL DUP2 MSTORE PUSH1 0x20 PUSH1 0x4 DUP3 ADD MSTORE PUSH1 0x1C PUSH1 0x24 DUP3 ADD MSTORE PUSH32 0x4E6F20746F6B656E2062616C616E636520746F207472616E7366657200000000 PUSH1 0x44 DUP3 ADD MSTORE PUSH1 0x64 ADD PUSH2 0x7FE JUMP JUMPDEST PUSH1 0xF SLOAD PUSH1 0x40 MLOAD PUSH4 0xA9059CBB PUSH1 0xE0 SHL DUP2 MSTORE PUSH1 0x1 PUSH1 0x1 PUSH1 0xA0 SHL SUB DUP5 DUP2 AND PUSH1 0x4 DUP4 ADD MSTORE PUSH1 0x24 DUP3 ADD DUP5 SWAP1 MSTORE PUSH0 SWAP3 AND SWAP1 PUSH4 0xA9059CBB SWAP1 PUSH1 0x44 ADD PUSH1 0x20 PUSH1 0x40 MLOAD DUP1 DUP4 SUB DUP2 PUSH0 DUP8 GAS CALL ISZERO DUP1 ISZERO PUSH2 0x2B66 JUMPI RETURNDATASIZE PUSH0 PUSH0 RETURNDATACOPY RETURNDATASIZE PUSH0 REVERT JUMPDEST POP POP POP POP PUSH1 0x40 MLOAD RETURNDATASIZE PUSH1 0x1F NOT PUSH1 0x1F DUP3 ADD AND DUP3 ADD DUP1 PUSH1 0x40 MSTORE POP DUP2 ADD SWAP1 PUSH2 0x2B8A SWAP2 SWAP1 PUSH2 0x4B7B JUMP JUMPDEST SWAP1 POP DUP1 PUSH2 0xAF6 JUMPI PUSH1 0x40 MLOAD PUSH3 0x461BCD PUSH1 0xE5 SHL DUP2 MSTORE PUSH1 0x20 PUSH1 0x4 DUP3 ADD MSTORE PUSH1 0x15 PUSH1 0x24 DUP3 ADD MSTORE PUSH21 0x151BDAD95B881D1C985B9CD9995C8819985A5B1959 PUSH1 0x5A SHL PUSH1 0x44 DUP3 ADD MSTORE PUSH1 0x64 ADD PUSH2 0x7FE JUMP JUMPDEST PUSH1 0x1 PUSH1 0x1 PUSH1 0xA0 SHL SUB SWAP2 DUP3 AND PUSH0 SWAP1 DUP2 MSTORE PUSH1 0x5 PUSH1 0x20 SWAP1 DUP2 MSTORE PUSH1 0x40 DUP1 DUP4 KECCAK256 SWAP4 SWAP1 SWAP5 AND DUP3 MSTORE SWAP2 SWAP1 SWAP2 MSTORE KECCAK256 SLOAD PUSH1 0xFF AND SWAP1 JUMP JUMPDEST PUSH0 PUSH2 0x2C07 PUSH2 0x3507 JUMP JUMPDEST SWAP1 POP SWAP1 JUMP JUMPDEST PUSH1 0xE SLOAD PUSH1 0x40 MLOAD PUSH4 0x22B92C3 PUSH1 0xE2 SHL DUP2 MSTORE PUSH1 0x1 PUSH1 0x1 PUSH1 0xA0 SHL SUB DUP4 DUP2 AND PUSH1 0x4 DUP4 ADD MSTORE PUSH0 SWAP3 AND SWAP1 PUSH4 0x8AE4B0C SWAP1 PUSH1 0x24 ADD PUSH0 PUSH1 0x40 MLOAD DUP1 DUP4 SUB DUP2 DUP7 GAS STATICCALL ISZERO DUP1 ISZERO PUSH2 0x2C53 JUMPI RETURNDATASIZE PUSH0 PUSH0 RETURNDATACOPY RETURNDATASIZE PUSH0 REVERT JUMPDEST POP POP POP POP PUSH1 0x40 MLOAD RETURNDATASIZE PUSH0 DUP3 RETURNDATACOPY PUSH1 0x1F RETURNDATASIZE SWAP1 DUP2 ADD PUSH1 0x1F NOT AND DUP3 ADD PUSH1 0x40 MSTORE PUSH2 0x2C7A SWAP2 SWAP1 DUP2 ADD SWAP1 PUSH2 0x48E4 JUMP JUMPDEST PUSH1 0x20 ADD MLOAD SWAP3 SWAP2 POP POP JUMP JUMPDEST PUSH1 0xE SLOAD PUSH1 0x40 DUP1 MLOAD PUSH4 0x5CC6A2D PUSH1 0xE1 SHL DUP2 MSTORE SWAP1 MLOAD PUSH0 SWAP3 PUSH1 0x1 PUSH1 0x1 PUSH1 0xA0 SHL SUB AND SWAP2 PUSH4 0xB98D45A SWAP2 PUSH1 0x4 DUP1 DUP4 ADD SWAP3 PUSH1 0x20 SWAP3 SWAP2 SWAP1 DUP3 SWAP1 SUB ADD DUP2 DUP8 DUP8 GAS CALL ISZERO DUP1 ISZERO PUSH2 0x2CCC JUMPI RETURNDATASIZE PUSH0 PUSH0 RETURNDATACOPY RETURNDATASIZE PUSH0 REVERT JUMPDEST POP POP POP POP PUSH1 0x40 MLOAD RETURNDATASIZE PUSH1 0x1F NOT PUSH1 0x1F DUP3 ADD AND DUP3 ADD DUP1 PUSH1 0x40 MSTORE POP DUP2 ADD SWAP1 PUSH2 0x2CF0 SWAP2 SWAP1 PUSH2 0x4EF6 JUMP JUMPDEST SWAP1 POP PUSH0 PUSH1 0x40 MLOAD DUP1 PUSH2 0x100 ADD PUSH1 0x40 MSTORE DUP1 DUP4 DUP2 MSTORE PUSH1 0x20 ADD PUSH2 0x2D0D PUSH2 0x2F21 JUMP JUMPDEST PUSH1 0x1 PUSH1 0x1 PUSH1 0xA0 SHL SUB AND DUP2 MSTORE PUSH1 0x20 ADD DUP8 DUP8 DUP1 DUP1 PUSH1 0x1F ADD PUSH1 0x20 DUP1 SWAP2 DIV MUL PUSH1 0x20 ADD PUSH1 0x40 MLOAD SWAP1 DUP2 ADD PUSH1 0x40 MSTORE DUP1 SWAP4 SWAP3 SWAP2 SWAP1 DUP2 DUP2 MSTORE PUSH1 0x20 ADD DUP4 DUP4 DUP1 DUP3 DUP5 CALLDATACOPY PUSH0 SWAP3 ADD DUP3 SWAP1 MSTORE POP SWAP4 DUP6 MSTORE POP POP TIMESTAMP PUSH1 0x20 DUP1 DUP6 ADD SWAP2 SWAP1 SWAP2 MSTORE PUSH1 0x40 DUP1 DUP6 ADD DUP5 SWAP1 MSTORE PUSH1 0x60 DUP6 ADD DUP5 SWAP1 MSTORE DUP1 MLOAD DUP5 DUP2 MSTORE SWAP2 DUP3 ADD SWAP1 MSTORE PUSH1 0x80 SWAP1 SWAP4 ADD SWAP3 SWAP2 SWAP1 POP PUSH2 0x2DC7 JUMP JUMPDEST PUSH2 0x2DB4 PUSH1 0x40 MLOAD DUP1 PUSH1 0x80 ADD PUSH1 0x40 MSTORE DUP1 PUSH0 PUSH1 0x1 PUSH1 0x1 PUSH1 0xA0 SHL SUB AND DUP2 MSTORE PUSH1 0x20 ADD PUSH0 DUP2 MSTORE PUSH1 0x20 ADD PUSH1 0x60 DUP2 MSTORE PUSH1 0x20 ADD PUSH1 0x60 DUP2 MSTORE POP SWAP1 JUMP JUMPDEST DUP2 MSTORE PUSH1 0x20 ADD SWAP1 PUSH1 0x1 SWAP1 SUB SWAP1 DUP2 PUSH2 0x2D82 JUMPI SWAP1 POP JUMPDEST POP DUP2 MSTORE PUSH1 0x20 ADD PUSH2 0x2DD7 DUP6 DUP8 PUSH2 0x4A37 JUMP JUMPDEST SWAP1 MSTORE PUSH1 0xE SLOAD PUSH1 0x40 MLOAD PUSH4 0xA599681F PUSH1 0xE0 SHL DUP2 MSTORE SWAP2 SWAP3 POP PUSH1 0x1 PUSH1 0x1 PUSH1 0xA0 SHL SUB AND SWAP1 PUSH4 0xA599681F SWAP1 PUSH2 0x2E0A SWAP1 DUP5 SWAP1 PUSH1 0x4 ADD PUSH2 0x531E JUMP JUMPDEST PUSH0 PUSH1 0x40 MLOAD DUP1 DUP4 SUB DUP2 PUSH0 DUP8 DUP1 EXTCODESIZE ISZERO DUP1 ISZERO PUSH2 0x2E21 JUMPI PUSH0 PUSH0 REVERT JUMPDEST POP GAS CALL ISZERO DUP1 ISZERO PUSH2 0x2E33 JUMPI RETURNDATASIZE PUSH0 PUSH0 RETURNDATACOPY RETURNDATASIZE PUSH0 REVERT JUMPDEST POP POP POP POP PUSH2 0x2E3F PUSH2 0x2F21 JUMP JUMPDEST PUSH1 0x1 PUSH1 0x1 PUSH1 0xA0 SHL SUB AND DUP3 PUSH32 0x159EAE2587974B857C8B28D8D49D8CCA50CC87FC9B0BD9BD76467F77AAF5C8B6 TIMESTAMP PUSH1 0x40 MLOAD PUSH2 0x2E7A SWAP2 DUP2 MSTORE PUSH1 0x20 ADD SWAP1 JUMP JUMPDEST PUSH1 0x40 MLOAD DUP1 SWAP2 SUB SWAP1 LOG3 POP SWAP5 SWAP4 POP POP POP POP JUMP JUMPDEST PUSH2 0x2E93 PUSH2 0x2F6A JUMP JUMPDEST PUSH1 0x1 PUSH1 0x1 PUSH1 0xA0 SHL SUB DUP2 AND PUSH2 0x2EBC JUMPI PUSH1 0x40 MLOAD PUSH4 0x1E4FBDF7 PUSH1 0xE0 SHL DUP2 MSTORE PUSH0 PUSH1 0x4 DUP3 ADD MSTORE PUSH1 0x24 ADD PUSH2 0x7FE JUMP JUMPDEST PUSH2 0xB0C DUP2 PUSH2 0x3098 JUMP JUMPDEST PUSH0 PUSH1 0x1 PUSH1 0x1 PUSH1 0xE0 SHL SUB NOT DUP3 AND PUSH4 0x24832483 PUSH1 0xE1 SHL EQ DUP1 PUSH2 0x707 JUMPI POP PUSH2 0x707 DUP3 PUSH2 0x3630 JUMP JUMPDEST PUSH0 DUP2 DUP2 MSTORE PUSH1 0x2 PUSH1 0x20 MSTORE PUSH1 0x40 DUP2 KECCAK256 SLOAD PUSH1 0x1 PUSH1 0x1 PUSH1 0xA0 SHL SUB AND DUP1 PUSH2 0x707 JUMPI PUSH1 0x40 MLOAD PUSH4 0x7E273289 PUSH1 0xE0 SHL DUP2 MSTORE PUSH1 0x4 DUP2 ADD DUP5 SWAP1 MSTORE PUSH1 0x24 ADD PUSH2 0x7FE JUMP JUMPDEST PUSH0 CALLER ADDRESS EQ DUP1 ISZERO PUSH2 0x2F32 JUMPI POP PUSH1 0x14 CALLDATASIZE LT ISZERO JUMPDEST ISZERO PUSH2 0x2F44 JUMPI POP PUSH1 0x13 NOT CALLDATASIZE ADD CALLDATALOAD PUSH1 0x60 SHR SWAP1 JUMP JUMPDEST POP CALLER SWAP1 JUMP JUMPDEST PUSH2 0xAF6 DUP4 DUP4 DUP4 PUSH1 0x1 PUSH2 0x3654 JUMP JUMPDEST PUSH0 PUSH2 0x2F62 DUP5 DUP5 DUP5 PUSH2 0x3758 JUMP JUMPDEST SWAP5 SWAP4 POP POP POP POP JUMP JUMPDEST PUSH2 0x2F72 PUSH2 0x2F21 JUMP JUMPDEST PUSH1 0x1 PUSH1 0x1 PUSH1 0xA0 SHL SUB AND PUSH2 0x2F8D PUSH1 0xB SLOAD PUSH1 0x1 PUSH1 0x1 PUSH1 0xA0 SHL SUB AND SWAP1 JUMP JUMPDEST PUSH1 0x1 PUSH1 0x1 PUSH1 0xA0 SHL SUB AND EQ PUSH2 0x1973 JUMPI PUSH2 0x2FA3 PUSH2 0x2F21 JUMP JUMPDEST PUSH1 0x40 MLOAD PUSH4 0x118CDAA7 PUSH1 0xE0 SHL DUP2 MSTORE PUSH1 0x1 PUSH1 0x1 PUSH1 0xA0 SHL SUB SWAP1 SWAP2 AND PUSH1 0x4 DUP3 ADD MSTORE PUSH1 0x24 ADD PUSH2 0x7FE JUMP JUMPDEST PUSH0 PUSH2 0x2FD4 PUSH0 DUP4 PUSH0 PUSH2 0x2F56 JUMP JUMPDEST SWAP1 POP PUSH1 0x1 PUSH1 0x1 PUSH1 0xA0 SHL SUB DUP2 AND PUSH2 0x7D5 JUMPI PUSH1 0x40 MLOAD PUSH4 0x7E273289 PUSH1 0xE0 SHL DUP2 MSTORE PUSH1 0x4 DUP2 ADD DUP4 SWAP1 MSTORE PUSH1 0x24 ADD PUSH2 0x7FE JUMP JUMPDEST PUSH1 0x40 MLOAD PUSH1 0x1 PUSH1 0x1 PUSH1 0xA0 SHL SUB DUP4 DUP2 AND PUSH1 0x24 DUP4 ADD MSTORE PUSH1 0x44 DUP3 ADD DUP4 SWAP1 MSTORE PUSH2 0xAF6 SWAP2 DUP6 SWAP2 DUP3 AND SWAP1 PUSH4 0xA9059CBB SWAP1 PUSH1 0x64 ADD JUMPDEST PUSH1 0x40 MLOAD PUSH1 0x20 DUP2 DUP4 SUB SUB DUP2 MSTORE SWAP1 PUSH1 0x40 MSTORE SWAP2 POP PUSH1 0xE0 SHL PUSH1 0x20 DUP3 ADD DUP1 MLOAD PUSH1 0x1 PUSH1 0x1 PUSH1 0xE0 SHL SUB DUP4 DUP2 DUP4 AND OR DUP4 MSTORE POP POP POP POP PUSH2 0x3823 JUMP JUMPDEST PUSH1 0x40 MLOAD PUSH1 0x1 PUSH1 0x1 PUSH1 0xA0 SHL SUB DUP5 DUP2 AND PUSH1 0x24 DUP4 ADD MSTORE DUP4 DUP2 AND PUSH1 0x44 DUP4 ADD MSTORE PUSH1 0x64 DUP3 ADD DUP4 SWAP1 MSTORE PUSH2 0x868 SWAP2 DUP7 SWAP2 DUP3 AND SWAP1 PUSH4 0x23B872DD SWAP1 PUSH1 0x84 ADD PUSH2 0x302D JUMP JUMPDEST PUSH1 0xB DUP1 SLOAD PUSH1 0x1 PUSH1 0x1 PUSH1 0xA0 SHL SUB DUP4 DUP2 AND PUSH1 0x1 PUSH1 0x1 PUSH1 0xA0 SHL SUB NOT DUP4 AND DUP2 OR SWAP1 SWAP4 SSTORE PUSH1 0x40 MLOAD SWAP2 AND SWAP2 SWAP1 DUP3 SWAP1 PUSH32 0x8BE0079C531659141344CD1FD0A4F28419497F9722A3DAAFE3B4186F6B6457E0 SWAP1 PUSH0 SWAP1 LOG3 POP POP JUMP JUMPDEST PUSH1 0x60 PUSH2 0x2C07 PUSH32 0x0 PUSH1 0xC PUSH2 0x388F JUMP JUMPDEST PUSH1 0x60 PUSH2 0x2C07 PUSH32 0x0 PUSH1 0xD PUSH2 0x388F JUMP JUMPDEST PUSH1 0x1 PUSH1 0x1 PUSH1 0xA0 SHL SUB DUP3 AND PUSH2 0x316C JUMPI PUSH1 0x40 MLOAD PUSH4 0x32505749 PUSH1 0xE1 SHL DUP2 MSTORE PUSH0 PUSH1 0x4 DUP3 ADD MSTORE PUSH1 0x24 ADD PUSH2 0x7FE JUMP JUMPDEST PUSH0 PUSH2 0x3178 DUP4 DUP4 PUSH0 PUSH2 0x2F56 JUMP JUMPDEST SWAP1 POP PUSH1 0x1 PUSH1 0x1 PUSH1 0xA0 SHL SUB DUP2 AND ISZERO PUSH2 0xAF6 JUMPI PUSH1 0x40 MLOAD PUSH4 0x39E35637 PUSH1 0xE1 SHL DUP2 MSTORE PUSH0 PUSH1 0x4 DUP3 ADD MSTORE PUSH1 0x24 ADD PUSH2 0x7FE JUMP JUMPDEST PUSH0 DUP3 DUP2 MSTORE PUSH1 0xA PUSH1 0x20 MSTORE PUSH1 0x40 SWAP1 KECCAK256 PUSH2 0x31BB DUP3 DUP3 PUSH2 0x5475 JUMP JUMPDEST POP PUSH1 0x40 MLOAD DUP3 DUP2 MSTORE PUSH32 0xF8E1A15ABA9398E019F0B49DF1A4FDE98EE17AE345CB5F6B5E2C27F5033E8CE7 SWAP1 PUSH1 0x20 ADD PUSH1 0x40 MLOAD DUP1 SWAP2 SUB SWAP1 LOG1 POP POP JUMP JUMPDEST PUSH0 PUSH2 0x707 PUSH2 0x31FF PUSH2 0x3507 JUMP JUMPDEST DUP4 PUSH1 0x40 MLOAD PUSH2 0x1901 PUSH1 0xF0 SHL DUP2 MSTORE PUSH1 0x2 DUP2 ADD SWAP3 SWAP1 SWAP3 MSTORE PUSH1 0x22 DUP3 ADD MSTORE PUSH1 0x42 SWAP1 KECCAK256 SWAP1 JUMP JUMPDEST PUSH0 PUSH0 PUSH0 PUSH0 PUSH2 0x322D DUP7 DUP7 PUSH2 0x3938 JUMP JUMPDEST SWAP3 POP SWAP3 POP SWAP3 POP PUSH2 0x323D DUP3 DUP3 PUSH2 0x3981 JUMP JUMPDEST POP SWAP1 SWAP5 SWAP4 POP POP POP POP JUMP JUMPDEST PUSH1 0x1 PUSH1 0x1 PUSH1 0xA0 SHL SUB DUP3 AND PUSH2 0x3279 JUMPI PUSH1 0x40 MLOAD PUSH4 0xB611743 PUSH1 0xE3 SHL DUP2 MSTORE PUSH1 0x1 PUSH1 0x1 PUSH1 0xA0 SHL SUB DUP4 AND PUSH1 0x4 DUP3 ADD MSTORE PUSH1 0x24 ADD PUSH2 0x7FE JUMP JUMPDEST PUSH1 0x1 PUSH1 0x1 PUSH1 0xA0 SHL SUB DUP4 DUP2 AND PUSH0 DUP2 DUP2 MSTORE PUSH1 0x5 PUSH1 0x20 SWAP1 DUP2 MSTORE PUSH1 0x40 DUP1 DUP4 KECCAK256 SWAP5 DUP8 AND DUP1 DUP5 MSTORE SWAP5 DUP3 MSTORE SWAP2 DUP3 SWAP1 KECCAK256 DUP1 SLOAD PUSH1 0xFF NOT AND DUP7 ISZERO ISZERO SWAP1 DUP2 OR SWAP1 SWAP2 SSTORE SWAP2 MLOAD SWAP2 DUP3 MSTORE PUSH32 0x17307EAB39AB6107E8899845AD3D59BD9653F200F220920489CA2B5937696C31 SWAP2 ADD PUSH2 0x163C JUMP JUMPDEST PUSH1 0x1 PUSH1 0x1 PUSH1 0xA0 SHL SUB DUP4 AND EXTCODESIZE ISZERO PUSH2 0x25B1 JUMPI PUSH1 0x40 MLOAD PUSH4 0xA85BD01 PUSH1 0xE1 SHL DUP2 MSTORE PUSH1 0x1 PUSH1 0x1 PUSH1 0xA0 SHL SUB DUP5 AND SWAP1 PUSH4 0x150B7A02 SWAP1 PUSH2 0x331F SWAP1 DUP9 SWAP1 DUP9 SWAP1 DUP8 SWAP1 DUP8 SWAP1 PUSH1 0x4 ADD PUSH2 0x552F JUMP JUMPDEST PUSH1 0x20 PUSH1 0x40 MLOAD DUP1 DUP4 SUB DUP2 PUSH0 DUP8 GAS CALL SWAP3 POP POP POP DUP1 ISZERO PUSH2 0x3359 JUMPI POP PUSH1 0x40 DUP1 MLOAD PUSH1 0x1F RETURNDATASIZE SWAP1 DUP2 ADD PUSH1 0x1F NOT AND DUP3 ADD SWAP1 SWAP3 MSTORE PUSH2 0x3356 SWAP2 DUP2 ADD SWAP1 PUSH2 0x556B JUMP JUMPDEST PUSH1 0x1 JUMPDEST PUSH2 0x33C0 JUMPI RETURNDATASIZE DUP1 DUP1 ISZERO PUSH2 0x3386 JUMPI PUSH1 0x40 MLOAD SWAP2 POP PUSH1 0x1F NOT PUSH1 0x3F RETURNDATASIZE ADD AND DUP3 ADD PUSH1 0x40 MSTORE RETURNDATASIZE DUP3 MSTORE RETURNDATASIZE PUSH0 PUSH1 0x20 DUP5 ADD RETURNDATACOPY PUSH2 0x338B JUMP JUMPDEST PUSH1 0x60 SWAP2 POP JUMPDEST POP DUP1 MLOAD PUSH0 SUB PUSH2 0x33B8 JUMPI PUSH1 0x40 MLOAD PUSH4 0x32505749 PUSH1 0xE1 SHL DUP2 MSTORE PUSH1 0x1 PUSH1 0x1 PUSH1 0xA0 SHL SUB DUP6 AND PUSH1 0x4 DUP3 ADD MSTORE PUSH1 0x24 ADD PUSH2 0x7FE JUMP JUMPDEST DUP1 MLOAD PUSH1 0x20 DUP3 ADD REVERT JUMPDEST PUSH1 0x1 PUSH1 0x1 PUSH1 0xE0 SHL SUB NOT DUP2 AND PUSH4 0xA85BD01 PUSH1 0xE1 SHL EQ PUSH2 0x33FC JUMPI PUSH1 0x40 MLOAD PUSH4 0x32505749 PUSH1 0xE1 SHL DUP2 MSTORE PUSH1 0x1 PUSH1 0x1 PUSH1 0xA0 SHL SUB DUP6 AND PUSH1 0x4 DUP3 ADD MSTORE PUSH1 0x24 ADD PUSH2 0x7FE JUMP JUMPDEST POP POP POP POP POP POP JUMP JUMPDEST PUSH1 0x60 PUSH2 0x340F DUP3 PUSH2 0x2EE9 JUMP JUMPDEST POP PUSH0 DUP3 DUP2 MSTORE PUSH1 0xA PUSH1 0x20 MSTORE PUSH1 0x40 DUP2 KECCAK256 DUP1 SLOAD PUSH2 0x3428 SWAP1 PUSH2 0x4844 JUMP JUMPDEST DUP1 PUSH1 0x1F ADD PUSH1 0x20 DUP1 SWAP2 DIV MUL PUSH1 0x20 ADD PUSH1 0x40 MLOAD SWAP1 DUP2 ADD PUSH1 0x40 MSTORE DUP1 SWAP3 SWAP2 SWAP1 DUP2 DUP2 MSTORE PUSH1 0x20 ADD DUP3 DUP1 SLOAD PUSH2 0x3454 SWAP1 PUSH2 0x4844 JUMP JUMPDEST DUP1 ISZERO PUSH2 0x349F JUMPI DUP1 PUSH1 0x1F LT PUSH2 0x3476 JUMPI PUSH2 0x100 DUP1 DUP4 SLOAD DIV MUL DUP4 MSTORE SWAP2 PUSH1 0x20 ADD SWAP2 PUSH2 0x349F JUMP JUMPDEST DUP3 ADD SWAP2 SWAP1 PUSH0 MSTORE PUSH1 0x20 PUSH0 KECCAK256 SWAP1 JUMPDEST DUP2 SLOAD DUP2 MSTORE SWAP1 PUSH1 0x1 ADD SWAP1 PUSH1 0x20 ADD DUP1 DUP4 GT PUSH2 0x3482 JUMPI DUP3 SWAP1 SUB PUSH1 0x1F AND DUP3 ADD SWAP2 JUMPDEST POP POP POP POP POP SWAP1 POP PUSH0 PUSH2 0x34BB PUSH1 0x40 DUP1 MLOAD PUSH1 0x20 DUP2 ADD SWAP1 SWAP2 MSTORE PUSH0 DUP2 MSTORE SWAP1 JUMP JUMPDEST SWAP1 POP DUP1 MLOAD PUSH0 SUB PUSH2 0x34CC JUMPI POP SWAP3 SWAP2 POP POP JUMP JUMPDEST DUP2 MLOAD ISZERO PUSH2 0x34FE JUMPI DUP1 DUP3 PUSH1 0x40 MLOAD PUSH1 0x20 ADD PUSH2 0x34E6 SWAP3 SWAP2 SWAP1 PUSH2 0x5586 JUMP JUMPDEST PUSH1 0x40 MLOAD PUSH1 0x20 DUP2 DUP4 SUB SUB DUP2 MSTORE SWAP1 PUSH1 0x40 MSTORE SWAP3 POP POP POP SWAP2 SWAP1 POP JUMP JUMPDEST PUSH2 0x2F62 DUP5 PUSH2 0x3A39 JUMP JUMPDEST PUSH0 ADDRESS PUSH1 0x1 PUSH1 0x1 PUSH1 0xA0 SHL SUB PUSH32 0x0 AND EQ DUP1 ISZERO PUSH2 0x355F JUMPI POP PUSH32 0x0 CHAINID EQ JUMPDEST ISZERO PUSH2 0x3589 JUMPI POP PUSH32 0x0 SWAP1 JUMP JUMPDEST PUSH2 0x2C07 PUSH1 0x40 DUP1 MLOAD PUSH32 0x8B73C3C69BB8FE3D512ECC4CF759CC79239F7B179B0FFACAA9A75D522B39400F PUSH1 0x20 DUP3 ADD MSTORE PUSH32 0x0 SWAP2 DUP2 ADD SWAP2 SWAP1 SWAP2 MSTORE PUSH32 0x0 PUSH1 0x60 DUP3 ADD MSTORE CHAINID PUSH1 0x80 DUP3 ADD MSTORE ADDRESS PUSH1 0xA0 DUP3 ADD MSTORE PUSH0 SWAP1 PUSH1 0xC0 ADD PUSH1 0x40 MLOAD PUSH1 0x20 DUP2 DUP4 SUB SUB DUP2 MSTORE SWAP1 PUSH1 0x40 MSTORE DUP1 MLOAD SWAP1 PUSH1 0x20 ADD KECCAK256 SWAP1 POP SWAP1 JUMP JUMPDEST PUSH0 PUSH1 0x1 PUSH1 0x1 PUSH1 0xE0 SHL SUB NOT DUP3 AND PUSH4 0x780E9D63 PUSH1 0xE0 SHL EQ DUP1 PUSH2 0x707 JUMPI POP PUSH2 0x707 DUP3 PUSH2 0x3AAA JUMP JUMPDEST DUP1 DUP1 PUSH2 0x3668 JUMPI POP PUSH1 0x1 PUSH1 0x1 PUSH1 0xA0 SHL SUB DUP3 AND ISZERO ISZERO JUMPDEST ISZERO PUSH2 0x3729 JUMPI PUSH0 PUSH2 0x3677 DUP5 PUSH2 0x2EE9 JUMP JUMPDEST SWAP1 POP PUSH1 0x1 PUSH1 0x1 PUSH1 0xA0 SHL SUB DUP4 AND ISZERO DUP1 ISZERO SWAP1 PUSH2 0x36A3 JUMPI POP DUP3 PUSH1 0x1 PUSH1 0x1 PUSH1 0xA0 SHL SUB AND DUP2 PUSH1 0x1 PUSH1 0x1 PUSH1 0xA0 SHL SUB AND EQ ISZERO JUMPDEST DUP1 ISZERO PUSH2 0x36B6 JUMPI POP PUSH2 0x36B4 DUP2 DUP5 PUSH2 0x2BD1 JUMP JUMPDEST ISZERO JUMPDEST ISZERO PUSH2 0x36DF JUMPI PUSH1 0x40 MLOAD PUSH4 0xA9FBF51F PUSH1 0xE0 SHL DUP2 MSTORE PUSH1 0x1 PUSH1 0x1 PUSH1 0xA0 SHL SUB DUP5 AND PUSH1 0x4 DUP3 ADD MSTORE PUSH1 0x24 ADD PUSH2 0x7FE JUMP JUMPDEST DUP2 ISZERO PUSH2 0x3727 JUMPI DUP4 DUP6 PUSH1 0x1 PUSH1 0x1 PUSH1 0xA0 SHL SUB AND DUP3 PUSH1 0x1 PUSH1 0x1 PUSH1 0xA0 SHL SUB AND PUSH32 0x8C5BE1E5EBEC7D5BD14F71427D1E84F3DD0314C0F7B2291E5B200AC8C7C3B925 PUSH1 0x40 MLOAD PUSH1 0x40 MLOAD DUP1 SWAP2 SUB SWAP1 LOG4 JUMPDEST POP JUMPDEST POP POP PUSH0 SWAP1 DUP2 MSTORE PUSH1 0x4 PUSH1 0x20 MSTORE PUSH1 0x40 SWAP1 KECCAK256 DUP1 SLOAD PUSH1 0x1 PUSH1 0x1 PUSH1 0xA0 SHL SUB NOT AND PUSH1 0x1 PUSH1 0x1 PUSH1 0xA0 SHL SUB SWAP3 SWAP1 SWAP3 AND SWAP2 SWAP1 SWAP2 OR SWAP1 SSTORE JUMP JUMPDEST PUSH0 PUSH0 PUSH2 0x3765 DUP6 DUP6 DUP6 PUSH2 0x3AF9 JUMP JUMPDEST SWAP1 POP PUSH1 0x1 PUSH1 0x1 PUSH1 0xA0 SHL SUB DUP2 AND PUSH2 0x37C1 JUMPI PUSH2 0x37BC DUP5 PUSH1 0x8 DUP1 SLOAD PUSH0 DUP4 DUP2 MSTORE PUSH1 0x9 PUSH1 0x20 MSTORE PUSH1 0x40 DUP2 KECCAK256 DUP3 SWAP1 SSTORE PUSH1 0x1 DUP3 ADD DUP4 SSTORE SWAP2 SWAP1 SWAP2 MSTORE PUSH32 0xF3F7A9FE364FAAB93B216DA50A3214154F22A0A2B415B23A84C8169E8B636EE3 ADD SSTORE JUMP JUMPDEST PUSH2 0x37E4 JUMP JUMPDEST DUP5 PUSH1 0x1 PUSH1 0x1 PUSH1 0xA0 SHL SUB AND DUP2 PUSH1 0x1 PUSH1 0x1 PUSH1 0xA0 SHL SUB AND EQ PUSH2 0x37E4 JUMPI PUSH2 0x37E4 DUP2 DUP6 PUSH2 0x3BEB JUMP JUMPDEST PUSH1 0x1 PUSH1 0x1 PUSH1 0xA0 SHL SUB DUP6 AND PUSH2 0x3800 JUMPI PUSH2 0x37FB DUP5 PUSH2 0x3C68 JUMP JUMPDEST PUSH2 0x2F62 JUMP JUMPDEST DUP5 PUSH1 0x1 PUSH1 0x1 PUSH1 0xA0 SHL SUB AND DUP2 PUSH1 0x1 PUSH1 0x1 PUSH1 0xA0 SHL SUB AND EQ PUSH2 0x2F62 JUMPI PUSH2 0x2F62 DUP6 DUP6 PUSH2 0x3D0F JUMP JUMPDEST PUSH0 PUSH0 PUSH1 0x20 PUSH0 DUP5 MLOAD PUSH1 0x20 DUP7 ADD PUSH0 DUP9 GAS CALL DUP1 PUSH2 0x3842 JUMPI PUSH1 0x40 MLOAD RETURNDATASIZE PUSH0 DUP3 RETURNDATACOPY RETURNDATASIZE DUP2 REVERT JUMPDEST POP POP PUSH0 MLOAD RETURNDATASIZE SWAP2 POP DUP2 ISZERO PUSH2 0x3859 JUMPI DUP1 PUSH1 0x1 EQ ISZERO PUSH2 0x3866 JUMP JUMPDEST PUSH1 0x1 PUSH1 0x1 PUSH1 0xA0 SHL SUB DUP5 AND EXTCODESIZE ISZERO JUMPDEST ISZERO PUSH2 0x868 JUMPI PUSH1 0x40 MLOAD PUSH4 0x5274AFE7 PUSH1 0xE0 SHL DUP2 MSTORE PUSH1 0x1 PUSH1 0x1 PUSH1 0xA0 SHL SUB DUP6 AND PUSH1 0x4 DUP3 ADD MSTORE PUSH1 0x24 ADD PUSH2 0x7FE JUMP JUMPDEST PUSH1 0x60 PUSH1 0xFF DUP4 EQ PUSH2 0x38A9 JUMPI PUSH2 0x38A2 DUP4 PUSH2 0x3D5D JUMP JUMPDEST SWAP1 POP PUSH2 0x707 JUMP JUMPDEST DUP2 DUP1 SLOAD PUSH2 0x38B5 SWAP1 PUSH2 0x4844 JUMP JUMPDEST DUP1 PUSH1 0x1F ADD PUSH1 0x20 DUP1 SWAP2 DIV MUL PUSH1 0x20 ADD PUSH1 0x40 MLOAD SWAP1 DUP2 ADD PUSH1 0x40 MSTORE DUP1 SWAP3 SWAP2 SWAP1 DUP2 DUP2 MSTORE PUSH1 0x20 ADD DUP3 DUP1 SLOAD PUSH2 0x38E1 SWAP1 PUSH2 0x4844 JUMP JUMPDEST DUP1 ISZERO PUSH2 0x392C JUMPI DUP1 PUSH1 0x1F LT PUSH2 0x3903 JUMPI PUSH2 0x100 DUP1 DUP4 SLOAD DIV MUL DUP4 MSTORE SWAP2 PUSH1 0x20 ADD SWAP2 PUSH2 0x392C JUMP JUMPDEST DUP3 ADD SWAP2 SWAP1 PUSH0 MSTORE PUSH1 0x20 PUSH0 KECCAK256 SWAP1 JUMPDEST DUP2 SLOAD DUP2 MSTORE SWAP1 PUSH1 0x1 ADD SWAP1 PUSH1 0x20 ADD DUP1 DUP4 GT PUSH2 0x390F JUMPI DUP3 SWAP1 SUB PUSH1 0x1F AND DUP3 ADD SWAP2 JUMPDEST POP POP POP POP POP SWAP1 POP PUSH2 0x707 JUMP JUMPDEST PUSH0 PUSH0 PUSH0 DUP4 MLOAD PUSH1 0x41 SUB PUSH2 0x396F JUMPI PUSH1 0x20 DUP5 ADD MLOAD PUSH1 0x40 DUP6 ADD MLOAD PUSH1 0x60 DUP7 ADD MLOAD PUSH0 BYTE PUSH2 0x3961 DUP9 DUP3 DUP6 DUP6 PUSH2 0x3D9A JUMP JUMPDEST SWAP6 POP SWAP6 POP SWAP6 POP POP POP POP PUSH2 0x397A JUMP JUMPDEST POP POP DUP2 MLOAD PUSH0 SWAP2 POP PUSH1 0x2 SWAP1 JUMPDEST SWAP3 POP SWAP3 POP SWAP3 JUMP JUMPDEST PUSH0 DUP3 PUSH1 0x3 DUP2 GT ISZERO PUSH2 0x3994 JUMPI PUSH2 0x3994 PUSH2 0x529C JUMP JUMPDEST SUB PUSH2 0x399D JUMPI POP POP JUMP JUMPDEST PUSH1 0x1 DUP3 PUSH1 0x3 DUP2 GT ISZERO PUSH2 0x39B1 JUMPI PUSH2 0x39B1 PUSH2 0x529C JUMP JUMPDEST SUB PUSH2 0x39CF JUMPI PUSH1 0x40 MLOAD PUSH4 0xF645EEDF PUSH1 0xE0 SHL DUP2 MSTORE PUSH1 0x4 ADD PUSH1 0x40 MLOAD DUP1 SWAP2 SUB SWAP1 REVERT JUMPDEST PUSH1 0x2 DUP3 PUSH1 0x3 DUP2 GT ISZERO PUSH2 0x39E3 JUMPI PUSH2 0x39E3 PUSH2 0x529C JUMP JUMPDEST SUB PUSH2 0x3A04 JUMPI PUSH1 0x40 MLOAD PUSH4 0xFCE698F7 PUSH1 0xE0 SHL DUP2 MSTORE PUSH1 0x4 DUP2 ADD DUP3 SWAP1 MSTORE PUSH1 0x24 ADD PUSH2 0x7FE JUMP JUMPDEST PUSH1 0x3 DUP3 PUSH1 0x3 DUP2 GT ISZERO PUSH2 0x3A18 JUMPI PUSH2 0x3A18 PUSH2 0x529C JUMP JUMPDEST SUB PUSH2 0x7D5 JUMPI PUSH1 0x40 MLOAD PUSH4 0x35E2F383 PUSH1 0xE2 SHL DUP2 MSTORE PUSH1 0x4 DUP2 ADD DUP3 SWAP1 MSTORE PUSH1 0x24 ADD PUSH2 0x7FE JUMP JUMPDEST PUSH1 0x60 PUSH2 0x3A44 DUP3 PUSH2 0x2EE9 JUMP JUMPDEST POP PUSH0 PUSH2 0x3A5A PUSH1 0x40 DUP1 MLOAD PUSH1 0x20 DUP2 ADD SWAP1 SWAP2 MSTORE PUSH0 DUP2 MSTORE SWAP1 JUMP JUMPDEST SWAP1 POP PUSH0 DUP2 MLOAD GT PUSH2 0x3A78 JUMPI PUSH1 0x40 MLOAD DUP1 PUSH1 0x20 ADD PUSH1 0x40 MSTORE DUP1 PUSH0 DUP2 MSTORE POP PUSH2 0x3AA3 JUMP JUMPDEST DUP1 PUSH2 0x3A82 DUP5 PUSH2 0x3E62 JUMP JUMPDEST PUSH1 0x40 MLOAD PUSH1 0x20 ADD PUSH2 0x3A93 SWAP3 SWAP2 SWAP1 PUSH2 0x5586 JUMP JUMPDEST PUSH1 0x40 MLOAD PUSH1 0x20 DUP2 DUP4 SUB SUB DUP2 MSTORE SWAP1 PUSH1 0x40 MSTORE JUMPDEST SWAP4 SWAP3 POP POP POP JUMP JUMPDEST PUSH0 PUSH1 0x1 PUSH1 0x1 PUSH1 0xE0 SHL SUB NOT DUP3 AND PUSH4 0x80AC58CD PUSH1 0xE0 SHL EQ DUP1 PUSH2 0x3ADA JUMPI POP PUSH1 0x1 PUSH1 0x1 PUSH1 0xE0 SHL SUB NOT DUP3 AND PUSH4 0x5B5E139F PUSH1 0xE0 SHL EQ JUMPDEST DUP1 PUSH2 0x707 JUMPI POP PUSH4 0x1FFC9A7 PUSH1 0xE0 SHL PUSH1 0x1 PUSH1 0x1 PUSH1 0xE0 SHL SUB NOT DUP4 AND EQ PUSH2 0x707 JUMP JUMPDEST PUSH0 DUP3 DUP2 MSTORE PUSH1 0x2 PUSH1 0x20 MSTORE PUSH1 0x40 DUP2 KECCAK256 SLOAD PUSH1 0x1 PUSH1 0x1 PUSH1 0xA0 SHL SUB SWAP1 DUP2 AND SWAP1 DUP4 AND ISZERO PUSH2 0x3B25 JUMPI PUSH2 0x3B25 DUP2 DUP5 DUP7 PUSH2 0x3EF1 JUMP JUMPDEST PUSH1 0x1 PUSH1 0x1 PUSH1 0xA0 SHL SUB DUP2 AND ISZERO PUSH2 0x3B5F JUMPI PUSH2 0x3B40 PUSH0 DUP6 PUSH0 PUSH0 PUSH2 0x3654 JUMP JUMPDEST PUSH1 0x1 PUSH1 0x1 PUSH1 0xA0 SHL SUB DUP2 AND PUSH0 SWAP1 DUP2 MSTORE PUSH1 0x3 PUSH1 0x20 MSTORE PUSH1 0x40 SWAP1 KECCAK256 DUP1 SLOAD PUSH0 NOT ADD SWAP1 SSTORE JUMPDEST PUSH1 0x1 PUSH1 0x1 PUSH1 0xA0 SHL SUB DUP6 AND ISZERO PUSH2 0x3B8D JUMPI PUSH1 0x1 PUSH1 0x1 PUSH1 0xA0 SHL SUB DUP6 AND PUSH0 SWAP1 DUP2 MSTORE PUSH1 0x3 PUSH1 0x20 MSTORE PUSH1 0x40 SWAP1 KECCAK256 DUP1 SLOAD PUSH1 0x1 ADD SWAP1 SSTORE JUMPDEST PUSH0 DUP5 DUP2 MSTORE PUSH1 0x2 PUSH1 0x20 MSTORE PUSH1 0x40 DUP1 DUP3 KECCAK256 DUP1 SLOAD PUSH1 0x1 PUSH1 0x1 PUSH1 0xA0 SHL SUB NOT AND PUSH1 0x1 PUSH1 0x1 PUSH1 0xA0 SHL SUB DUP10 DUP2 AND SWAP2 DUP3 OR SWAP1 SWAP3 SSTORE SWAP2 MLOAD DUP8 SWAP4 SWAP2 DUP6 AND SWAP2 PUSH32 0xDDF252AD1BE2C89B69C2B068FC378DAA952BA7F163C4A11628F55A4DF523B3EF SWAP2 LOG4 SWAP5 SWAP4 POP POP POP POP JUMP JUMPDEST PUSH0 PUSH2 0x3BF5 DUP4 PUSH2 0x191D JUMP JUMPDEST PUSH0 DUP4 DUP2 MSTORE PUSH1 0x7 PUSH1 0x20 SWAP1 DUP2 MSTORE PUSH1 0x40 DUP1 DUP4 KECCAK256 SLOAD PUSH1 0x1 PUSH1 0x1 PUSH1 0xA0 SHL SUB DUP9 AND DUP5 MSTORE PUSH1 0x6 SWAP1 SWAP3 MSTORE SWAP1 SWAP2 KECCAK256 SWAP2 SWAP3 POP SWAP1 DUP2 DUP4 EQ PUSH2 0x3C4A JUMPI PUSH0 DUP4 DUP2 MSTORE PUSH1 0x20 DUP3 DUP2 MSTORE PUSH1 0x40 DUP1 DUP4 KECCAK256 SLOAD DUP6 DUP5 MSTORE DUP2 DUP5 KECCAK256 DUP2 SWAP1 SSTORE DUP4 MSTORE PUSH1 0x7 SWAP1 SWAP2 MSTORE SWAP1 KECCAK256 DUP3 SWAP1 SSTORE JUMPDEST PUSH0 SWAP4 DUP5 MSTORE PUSH1 0x7 PUSH1 0x20 SWAP1 DUP2 MSTORE PUSH1 0x40 DUP1 DUP7 KECCAK256 DUP7 SWAP1 SSTORE SWAP4 DUP6 MSTORE MSTORE POP DUP2 KECCAK256 SSTORE POP JUMP JUMPDEST PUSH1 0x8 SLOAD PUSH0 SWAP1 PUSH2 0x3C79 SWAP1 PUSH1 0x1 SWAP1 PUSH2 0x559A JUMP JUMPDEST PUSH0 DUP4 DUP2 MSTORE PUSH1 0x9 PUSH1 0x20 MSTORE PUSH1 0x40 DUP2 KECCAK256 SLOAD PUSH1 0x8 DUP1 SLOAD SWAP4 SWAP5 POP SWAP1 SWAP3 DUP5 SWAP1 DUP2 LT PUSH2 0x3CA0 JUMPI PUSH2 0x3CA0 PUSH2 0x4E3E JUMP JUMPDEST SWAP1 PUSH0 MSTORE PUSH1 0x20 PUSH0 KECCAK256 ADD SLOAD SWAP1 POP DUP1 PUSH1 0x8 DUP4 DUP2 SLOAD DUP2 LT PUSH2 0x3CBF JUMPI PUSH2 0x3CBF PUSH2 0x4E3E JUMP JUMPDEST PUSH0 SWAP2 DUP3 MSTORE PUSH1 0x20 DUP1 DUP4 KECCAK256 SWAP1 SWAP2 ADD SWAP3 SWAP1 SWAP3 SSTORE DUP3 DUP2 MSTORE PUSH1 0x9 SWAP1 SWAP2 MSTORE PUSH1 0x40 DUP1 DUP3 KECCAK256 DUP5 SWAP1 SSTORE DUP6 DUP3 MSTORE DUP2 KECCAK256 SSTORE PUSH1 0x8 DUP1 SLOAD DUP1 PUSH2 0x3CF6 JUMPI PUSH2 0x3CF6 PUSH2 0x55AD JUMP JUMPDEST PUSH1 0x1 SWAP1 SUB DUP2 DUP2 SWAP1 PUSH0 MSTORE PUSH1 0x20 PUSH0 KECCAK256 ADD PUSH0 SWAP1 SSTORE SWAP1 SSTORE POP POP POP POP JUMP JUMPDEST PUSH0 PUSH1 0x1 PUSH2 0x3D1B DUP5 PUSH2 0x191D JUMP JUMPDEST PUSH2 0x3D25 SWAP2 SWAP1 PUSH2 0x559A JUMP JUMPDEST PUSH1 0x1 PUSH1 0x1 PUSH1 0xA0 SHL SUB SWAP1 SWAP4 AND PUSH0 SWAP1 DUP2 MSTORE PUSH1 0x6 PUSH1 0x20 SWAP1 DUP2 MSTORE PUSH1 0x40 DUP1 DUP4 KECCAK256 DUP7 DUP5 MSTORE DUP3 MSTORE DUP1 DUP4 KECCAK256 DUP6 SWAP1 SSTORE SWAP4 DUP3 MSTORE PUSH1 0x7 SWAP1 MSTORE SWAP2 SWAP1 SWAP2 KECCAK256 SWAP2 SWAP1 SWAP2 SSTORE POP JUMP JUMPDEST PUSH1 0x60 PUSH0 PUSH2 0x3D69 DUP4 PUSH2 0x3F55 JUMP JUMPDEST PUSH1 0x40 DUP1 MLOAD PUSH1 0x20 DUP1 DUP3 MSTORE DUP2 DUP4 ADD SWAP1 SWAP3 MSTORE SWAP2 SWAP3 POP PUSH0 SWAP2 SWAP1 PUSH1 0x20 DUP3 ADD DUP2 DUP1 CALLDATASIZE DUP4 CALLDATACOPY POP POP POP SWAP2 DUP3 MSTORE POP PUSH1 0x20 DUP2 ADD SWAP3 SWAP1 SWAP3 MSTORE POP SWAP1 JUMP JUMPDEST PUSH0 DUP1 DUP1 PUSH32 0x7FFFFFFFFFFFFFFFFFFFFFFFFFFFFFFF5D576E7357A4501DDFE92F46681B20A0 DUP5 GT ISZERO PUSH2 0x3DD3 JUMPI POP PUSH0 SWAP2 POP PUSH1 0x3 SWAP1 POP DUP3 PUSH2 0x3E58 JUMP JUMPDEST PUSH1 0x40 DUP1 MLOAD PUSH0 DUP1 DUP3 MSTORE PUSH1 0x20 DUP3 ADD DUP1 DUP5 MSTORE DUP11 SWAP1 MSTORE PUSH1 0xFF DUP10 AND SWAP3 DUP3 ADD SWAP3 SWAP1 SWAP3 MSTORE PUSH1 0x60 DUP2 ADD DUP8 SWAP1 MSTORE PUSH1 0x80 DUP2 ADD DUP7 SWAP1 MSTORE PUSH1 0x1 SWAP1 PUSH1 0xA0 ADD PUSH1 0x20 PUSH1 0x40 MLOAD PUSH1 0x20 DUP2 SUB SWAP1 DUP1 DUP5 SUB SWAP1 DUP6 GAS STATICCALL ISZERO DUP1 ISZERO PUSH2 0x3E24 JUMPI RETURNDATASIZE PUSH0 PUSH0 RETURNDATACOPY RETURNDATASIZE PUSH0 REVERT JUMPDEST POP POP PUSH1 0x40 MLOAD PUSH1 0x1F NOT ADD MLOAD SWAP2 POP POP PUSH1 0x1 PUSH1 0x1 PUSH1 0xA0 SHL SUB DUP2 AND PUSH2 0x3E4F JUMPI POP PUSH0 SWAP3 POP PUSH1 0x1 SWAP2 POP DUP3 SWAP1 POP PUSH2 0x3E58 JUMP JUMPDEST SWAP3 POP PUSH0 SWAP2 POP DUP2 SWAP1 POP JUMPDEST SWAP5 POP SWAP5 POP SWAP5 SWAP2 POP POP JUMP JUMPDEST PUSH1 0x60 PUSH0 PUSH2 0x3E6E DUP4 PUSH2 0x3F7C JUMP JUMPDEST PUSH1 0x1 ADD SWAP1 POP PUSH0 DUP2 PUSH1 0x1 PUSH1 0x1 PUSH1 0x40 SHL SUB DUP2 GT ISZERO PUSH2 0x3E8C JUMPI PUSH2 0x3E8C PUSH2 0x461A JUMP JUMPDEST PUSH1 0x40 MLOAD SWAP1 DUP1 DUP3 MSTORE DUP1 PUSH1 0x1F ADD PUSH1 0x1F NOT AND PUSH1 0x20 ADD DUP3 ADD PUSH1 0x40 MSTORE DUP1 ISZERO PUSH2 0x3EB6 JUMPI PUSH1 0x20 DUP3 ADD DUP2 DUP1 CALLDATASIZE DUP4 CALLDATACOPY ADD SWAP1 POP JUMPDEST POP SWAP1 POP DUP2 DUP2 ADD PUSH1 0x20 ADD JUMPDEST PUSH0 NOT ADD PUSH16 0x181899199A1A9B1B9C1CB0B131B232B3 PUSH1 0x81 SHL PUSH1 0xA DUP7 MOD BYTE DUP2 MSTORE8 PUSH1 0xA DUP6 DIV SWAP5 POP DUP5 PUSH2 0x3EC0 JUMPI POP SWAP4 SWAP3 POP POP POP JUMP JUMPDEST PUSH2 0x3EFC DUP4 DUP4 DUP4 PUSH2 0x4053 JUMP JUMPDEST PUSH2 0xAF6 JUMPI PUSH1 0x1 PUSH1 0x1 PUSH1 0xA0 SHL SUB DUP4 AND PUSH2 0x3F2A JUMPI PUSH1 0x40 MLOAD PUSH4 0x7E273289 PUSH1 0xE0 SHL DUP2 MSTORE PUSH1 0x4 DUP2 ADD DUP3 SWAP1 MSTORE PUSH1 0x24 ADD PUSH2 0x7FE JUMP JUMPDEST PUSH1 0x40 MLOAD PUSH4 0x177E802F PUSH1 0xE0 SHL DUP2 MSTORE PUSH1 0x1 PUSH1 0x1 PUSH1 0xA0 SHL SUB DUP4 AND PUSH1 0x4 DUP3 ADD MSTORE PUSH1 0x24 DUP2 ADD DUP3 SWAP1 MSTORE PUSH1 0x44 ADD PUSH2 0x7FE JUMP JUMPDEST PUSH0 PUSH1 0xFF DUP3 AND PUSH1 0x1F DUP2 GT ISZERO PUSH2 0x707 JUMPI PUSH1 0x40 MLOAD PUSH4 0x2CD44AC3 PUSH1 0xE2 SHL DUP2 MSTORE PUSH1 0x4 ADD PUSH1 0x40 MLOAD DUP1 SWAP2 SUB SWAP1 REVERT JUMPDEST PUSH0 DUP1 PUSH19 0x184F03E93FF9F4DAA797ED6E38ED64BF6A1F01 PUSH1 0x40 SHL DUP4 LT PUSH2 0x3FBA JUMPI PUSH19 0x184F03E93FF9F4DAA797ED6E38ED64BF6A1F01 PUSH1 0x40 SHL DUP4 DIV SWAP3 POP PUSH1 0x40 ADD JUMPDEST PUSH14 0x4EE2D6D415B85ACEF8100000000 DUP4 LT PUSH2 0x3FE6 JUMPI PUSH14 0x4EE2D6D415B85ACEF8100000000 DUP4 DIV SWAP3 POP PUSH1 0x20 ADD JUMPDEST PUSH7 0x2386F26FC10000 DUP4 LT PUSH2 0x4004 JUMPI PUSH7 0x2386F26FC10000 DUP4 DIV SWAP3 POP PUSH1 0x10 ADD JUMPDEST PUSH4 0x5F5E100 DUP4 LT PUSH2 0x401C JUMPI PUSH4 0x5F5E100 DUP4 DIV SWAP3 POP PUSH1 0x8 ADD JUMPDEST PUSH2 0x2710 DUP4 LT PUSH2 0x4030 JUMPI PUSH2 0x2710 DUP4 DIV SWAP3 POP PUSH1 0x4 ADD JUMPDEST PUSH1 0x64 DUP4 LT PUSH2 0x4042 JUMPI PUSH1 0x64 DUP4 DIV SWAP3 POP PUSH1 0x2 ADD JUMPDEST PUSH1 0xA DUP4 LT PUSH2 0x707 JUMPI PUSH1 0x1 ADD SWAP3 SWAP2 POP POP JUMP JUMPDEST PUSH0 PUSH1 0x1 PUSH1 0x1 PUSH1 0xA0 SHL SUB DUP4 AND ISZERO DUP1 ISZERO SWAP1 PUSH2 0x2F62 JUMPI POP DUP3 PUSH1 0x1 PUSH1 0x1 PUSH1 0xA0 SHL SUB AND DUP5 PUSH1 0x1 PUSH1 0x1 PUSH1 0xA0 SHL SUB AND EQ DUP1 PUSH2 0x408C JUMPI POP PUSH2 0x408C DUP5 DUP5 PUSH2 0x2BD1 JUMP JUMPDEST DUP1 PUSH2 0x2F62 JUMPI POP POP PUSH0 SWAP1 DUP2 MSTORE PUSH1 0x4 PUSH1 0x20 MSTORE PUSH1 0x40 SWAP1 KECCAK256 SLOAD PUSH1 0x1 PUSH1 0x1 PUSH1 0xA0 SHL SUB SWAP1 DUP2 AND SWAP2 AND EQ SWAP2 SWAP1 POP JUMP JUMPDEST PUSH1 0x1 PUSH1 0x1 PUSH1 0xE0 SHL SUB NOT DUP2 AND DUP2 EQ PUSH2 0xB0C JUMPI PUSH0 PUSH0 REVERT JUMPDEST PUSH0 PUSH1 0x20 DUP3 DUP5 SUB SLT ISZERO PUSH2 0x40D9 JUMPI PUSH0 PUSH0 REVERT JUMPDEST DUP2 CALLDATALOAD PUSH2 0x3AA3 DUP2 PUSH2 0x40B4 JUMP JUMPDEST PUSH0 DUP2 MLOAD DUP1 DUP5 MSTORE DUP1 PUSH1 0x20 DUP5 ADD PUSH1 0x20 DUP7 ADD MCOPY PUSH0 PUSH1 0x20 DUP3 DUP7 ADD ADD MSTORE PUSH1 0x20 PUSH1 0x1F NOT PUSH1 0x1F DUP4 ADD AND DUP6 ADD ADD SWAP2 POP POP SWAP3 SWAP2 POP POP JUMP JUMPDEST PUSH1 0x20 DUP2 MSTORE PUSH0 PUSH2 0x3AA3 PUSH1 0x20 DUP4 ADD DUP5 PUSH2 0x40E4 JUMP JUMPDEST PUSH0 PUSH1 0x20 DUP3 DUP5 SUB SLT ISZERO PUSH2 0x4134 JUMPI PUSH0 PUSH0 REVERT JUMPDEST POP CALLDATALOAD SWAP2 SWAP1 POP JUMP JUMPDEST PUSH1 0x1 PUSH1 0x1 PUSH1 0xA0 SHL SUB DUP2 AND DUP2 EQ PUSH2 0xB0C JUMPI PUSH0 PUSH0 REVERT JUMPDEST PUSH0 PUSH0 PUSH1 0x40 DUP4 DUP6 SUB SLT ISZERO PUSH2 0x4160 JUMPI PUSH0 PUSH0 REVERT JUMPDEST DUP3 CALLDATALOAD PUSH2 0x416B DUP2 PUSH2 0x413B JUMP JUMPDEST SWAP5 PUSH1 0x20 SWAP4 SWAP1 SWAP4 ADD CALLDATALOAD SWAP4 POP POP POP JUMP JUMPDEST PUSH0 PUSH0 PUSH0 PUSH1 0x60 DUP5 DUP7 SUB SLT ISZERO PUSH2 0x418B JUMPI PUSH0 PUSH0 REVERT JUMPDEST DUP4 CALLDATALOAD PUSH2 0x4196 DUP2 PUSH2 0x413B JUMP JUMPDEST SWAP3 POP PUSH1 0x20 DUP5 ADD CALLDATALOAD PUSH2 0x41A6 DUP2 PUSH2 0x413B JUMP JUMPDEST SWAP3 SWAP6 SWAP3 SWAP5 POP POP POP PUSH1 0x40 SWAP2 SWAP1 SWAP2 ADD CALLDATALOAD SWAP1 JUMP JUMPDEST PUSH0 PUSH0 PUSH0 PUSH1 0x60 DUP5 DUP7 SUB SLT ISZERO PUSH2 0x41C9 JUMPI PUSH0 PUSH0 REVERT JUMPDEST DUP4 CALLDATALOAD PUSH2 0x41D4 DUP2 PUSH2 0x413B JUMP JUMPDEST SWAP3 POP PUSH1 0x20 DUP5 ADD CALLDATALOAD SWAP2 POP PUSH1 0x40 DUP5 ADD CALLDATALOAD PUSH2 0x41EB DUP2 PUSH2 0x413B JUMP JUMPDEST DUP1 SWAP2 POP POP SWAP3 POP SWAP3 POP SWAP3 JUMP JUMPDEST PUSH0 PUSH1 0x20 DUP3 DUP5 SUB SLT ISZERO PUSH2 0x4206 JUMPI PUSH0 PUSH0 REVERT JUMPDEST DUP2 CALLDATALOAD PUSH2 0x3AA3 DUP2 PUSH2 0x413B JUMP JUMPDEST PUSH0 PUSH0 PUSH1 0x40 DUP4 DUP6 SUB SLT ISZERO PUSH2 0x4222 JUMPI PUSH0 PUSH0 REVERT JUMPDEST DUP3 CALLDATALOAD PUSH2 0x422D DUP2 PUSH2 0x413B JUMP JUMPDEST SWAP2 POP PUSH1 0x20 DUP4 ADD CALLDATALOAD PUSH2 0x423D DUP2 PUSH2 0x413B JUMP JUMPDEST DUP1 SWAP2 POP POP SWAP3 POP SWAP3 SWAP1 POP JUMP JUMPDEST PUSH0 PUSH0 DUP4 PUSH1 0x1F DUP5 ADD SLT PUSH2 0x4258 JUMPI PUSH0 PUSH0 REVERT JUMPDEST POP DUP2 CALLDATALOAD PUSH1 0x1 PUSH1 0x1 PUSH1 0x40 SHL SUB DUP2 GT ISZERO PUSH2 0x426E JUMPI PUSH0 PUSH0 REVERT JUMPDEST PUSH1 0x20 DUP4 ADD SWAP2 POP DUP4 PUSH1 0x20 DUP3 DUP6 ADD ADD GT ISZERO PUSH2 0x4285 JUMPI PUSH0 PUSH0 REVERT JUMPDEST SWAP3 POP SWAP3 SWAP1 POP JUMP JUMPDEST PUSH0 PUSH0 DUP4 PUSH1 0x1F DUP5 ADD SLT PUSH2 0x429C JUMPI PUSH0 PUSH0 REVERT JUMPDEST POP DUP2 CALLDATALOAD PUSH1 0x1 PUSH1 0x1 PUSH1 0x40 SHL SUB DUP2 GT ISZERO PUSH2 0x42B2 JUMPI PUSH0 PUSH0 REVERT JUMPDEST PUSH1 0x20 DUP4 ADD SWAP2 POP DUP4 PUSH1 0x20 DUP3 PUSH1 0x5 SHL DUP6 ADD ADD GT ISZERO PUSH2 0x4285 JUMPI PUSH0 PUSH0 REVERT JUMPDEST PUSH0 PUSH0 PUSH0 PUSH0 PUSH0 PUSH1 0x60 DUP7 DUP9 SUB SLT ISZERO PUSH2 0x42E0 JUMPI PUSH0 PUSH0 REVERT JUMPDEST DUP6 CALLDATALOAD SWAP5 POP PUSH1 0x20 DUP7 ADD CALLDATALOAD PUSH1 0x1 PUSH1 0x1 PUSH1 0x40 SHL SUB DUP2 GT ISZERO PUSH2 0x42FC JUMPI PUSH0 PUSH0 REVERT JUMPDEST PUSH2 0x4308 DUP9 DUP3 DUP10 ADD PUSH2 0x4248 JUMP JUMPDEST SWAP1 SWAP6 POP SWAP4 POP POP PUSH1 0x40 DUP7 ADD CALLDATALOAD PUSH1 0x1 PUSH1 0x1 PUSH1 0x40 SHL SUB DUP2 GT ISZERO PUSH2 0x4326 JUMPI PUSH0 PUSH0 REVERT JUMPDEST PUSH2 0x4332 DUP9 DUP3 DUP10 ADD PUSH2 0x428C JUMP JUMPDEST SWAP7 SWAP10 SWAP6 SWAP9 POP SWAP4 SWAP7 POP SWAP3 SWAP5 SWAP4 SWAP3 POP POP POP JUMP JUMPDEST PUSH0 PUSH0 PUSH0 PUSH1 0x40 DUP5 DUP7 SUB SLT ISZERO PUSH2 0x4355 JUMPI PUSH0 PUSH0 REVERT JUMPDEST DUP4 CALLDATALOAD PUSH2 0x4360 DUP2 PUSH2 0x413B JUMP JUMPDEST SWAP3 POP PUSH1 0x20 DUP5 ADD CALLDATALOAD PUSH1 0x1 PUSH1 0x1 PUSH1 0x40 SHL SUB DUP2 GT ISZERO PUSH2 0x437A JUMPI PUSH0 PUSH0 REVERT JUMPDEST PUSH2 0x4386 DUP7 DUP3 DUP8 ADD PUSH2 0x4248 JUMP JUMPDEST SWAP5 SWAP8 SWAP1 SWAP7 POP SWAP4 SWAP5 POP POP POP POP JUMP JUMPDEST PUSH0 PUSH0 PUSH1 0x40 DUP4 DUP6 SUB SLT ISZERO PUSH2 0x43A4 JUMPI PUSH0 PUSH0 REVERT JUMPDEST DUP3 CALLDATALOAD SWAP2 POP PUSH1 0x20 DUP4 ADD CALLDATALOAD PUSH2 0x423D DUP2 PUSH2 0x413B JUMP JUMPDEST DUP1 ISZERO ISZERO DUP2 EQ PUSH2 0xB0C JUMPI PUSH0 PUSH0 REVERT JUMPDEST PUSH0 PUSH0 PUSH0 PUSH0 PUSH0 PUSH0 PUSH1 0xA0 DUP8 DUP10 SUB SLT ISZERO PUSH2 0x43D8 JUMPI PUSH0 PUSH0 REVERT JUMPDEST DUP7 CALLDATALOAD PUSH2 0x43E3 DUP2 PUSH2 0x413B JUMP JUMPDEST SWAP6 POP PUSH1 0x20 DUP8 ADD CALLDATALOAD PUSH2 0x43F3 DUP2 PUSH2 0x413B JUMP JUMPDEST SWAP5 POP PUSH1 0x40 DUP8 ADD CALLDATALOAD PUSH1 0x1 PUSH1 0x1 PUSH1 0x40 SHL SUB DUP2 GT ISZERO PUSH2 0x440D JUMPI PUSH0 PUSH0 REVERT JUMPDEST PUSH2 0x4419 DUP10 DUP3 DUP11 ADD PUSH2 0x4248 JUMP JUMPDEST SWAP1 SWAP6 POP SWAP4 POP POP PUSH1 0x60 DUP8 ADD CALLDATALOAD SWAP2 POP PUSH1 0x80 DUP8 ADD CALLDATALOAD PUSH2 0x4434 DUP2 PUSH2 0x43B6 JUMP JUMPDEST DUP1 SWAP2 POP POP SWAP3 SWAP6 POP SWAP3 SWAP6 POP SWAP3 SWAP6 JUMP JUMPDEST PUSH0 DUP2 MLOAD DUP1 DUP5 MSTORE PUSH1 0x20 DUP5 ADD SWAP4 POP PUSH1 0x20 DUP4 ADD PUSH0 JUMPDEST DUP3 DUP2 LT ISZERO PUSH2 0x4472 JUMPI DUP2 MLOAD DUP7 MSTORE PUSH1 0x20 SWAP6 DUP7 ADD SWAP6 SWAP1 SWAP2 ADD SWAP1 PUSH1 0x1 ADD PUSH2 0x4454 JUMP JUMPDEST POP SWAP4 SWAP5 SWAP4 POP POP POP POP JUMP JUMPDEST PUSH1 0xFF PUSH1 0xF8 SHL DUP9 AND DUP2 MSTORE PUSH1 0xE0 PUSH1 0x20 DUP3 ADD MSTORE PUSH0 PUSH2 0x449A PUSH1 0xE0 DUP4 ADD DUP10 PUSH2 0x40E4 JUMP JUMPDEST DUP3 DUP2 SUB PUSH1 0x40 DUP5 ADD MSTORE PUSH2 0x44AC DUP2 DUP10 PUSH2 0x40E4 JUMP JUMPDEST PUSH1 0x60 DUP5 ADD DUP9 SWAP1 MSTORE PUSH1 0x1 PUSH1 0x1 PUSH1 0xA0 SHL SUB DUP8 AND PUSH1 0x80 DUP6 ADD MSTORE PUSH1 0xA0 DUP5 ADD DUP7 SWAP1 MSTORE DUP4 DUP2 SUB PUSH1 0xC0 DUP6 ADD MSTORE SWAP1 POP PUSH2 0x44DD DUP2 DUP6 PUSH2 0x4442 JUMP JUMPDEST SWAP11 SWAP10 POP POP POP POP POP POP POP POP POP POP JUMP JUMPDEST PUSH0 PUSH0 PUSH0 PUSH0 PUSH1 0x60 DUP6 DUP8 SUB SLT ISZERO PUSH2 0x44FE JUMPI PUSH0 PUSH0 REVERT JUMPDEST DUP5 CALLDATALOAD PUSH2 0x4509 DUP2 PUSH2 0x413B JUMP JUMPDEST SWAP4 POP PUSH1 0x20 DUP6 ADD CALLDATALOAD PUSH1 0x1 PUSH1 0x1 PUSH1 0x40 SHL SUB DUP2 GT ISZERO PUSH2 0x4523 JUMPI PUSH0 PUSH0 REVERT JUMPDEST PUSH2 0x452F DUP8 DUP3 DUP9 ADD PUSH2 0x4248 JUMP JUMPDEST SWAP6 SWAP9 SWAP1 SWAP8 POP SWAP5 SWAP6 PUSH1 0x40 ADD CALLDATALOAD SWAP5 SWAP4 POP POP POP POP JUMP JUMPDEST PUSH0 PUSH0 PUSH0 PUSH1 0x40 DUP5 DUP7 SUB SLT ISZERO PUSH2 0x4554 JUMPI PUSH0 PUSH0 REVERT JUMPDEST DUP4 CALLDATALOAD PUSH1 0x1 PUSH1 0x1 PUSH1 0x40 SHL SUB DUP2 GT ISZERO PUSH2 0x4569 JUMPI PUSH0 PUSH0 REVERT JUMPDEST DUP5 ADD PUSH1 0xA0 DUP2 DUP8 SUB SLT ISZERO PUSH2 0x4360 JUMPI PUSH0 PUSH0 REVERT JUMPDEST DUP3 ISZERO ISZERO DUP2 MSTORE PUSH1 0x40 PUSH1 0x20 DUP3 ADD MSTORE PUSH0 PUSH2 0x2F62 PUSH1 0x40 DUP4 ADD DUP5 PUSH2 0x40E4 JUMP JUMPDEST PUSH0 PUSH0 PUSH1 0x40 DUP4 DUP6 SUB SLT ISZERO PUSH2 0x45A5 JUMPI PUSH0 PUSH0 REVERT JUMPDEST DUP3 CALLDATALOAD PUSH2 0x45B0 DUP2 PUSH2 0x413B JUMP JUMPDEST SWAP2 POP PUSH1 0x20 DUP4 ADD CALLDATALOAD PUSH2 0x423D DUP2 PUSH2 0x43B6 JUMP JUMPDEST PUSH0 PUSH0 PUSH1 0x40 DUP4 DUP6 SUB SLT ISZERO PUSH2 0x45D1 JUMPI PUSH0 PUSH0 REVERT JUMPDEST DUP3 CALLDATALOAD SWAP2 POP PUSH1 0x20 DUP4 ADD CALLDATALOAD PUSH1 0xFF DUP2 AND DUP2 EQ PUSH2 0x423D JUMPI PUSH0 PUSH0 REVERT JUMPDEST PUSH0 PUSH0 PUSH0 PUSH1 0x60 DUP5 DUP7 SUB SLT ISZERO PUSH2 0x45FA JUMPI PUSH0 PUSH0 REVERT JUMPDEST DUP4 CALLDATALOAD PUSH2 0x4605 DUP2 PUSH2 0x413B JUMP JUMPDEST SWAP6 PUSH1 0x20 DUP6 ADD CALLDATALOAD SWAP6 POP PUSH1 0x40 SWAP1 SWAP5 ADD CALLDATALOAD SWAP4 SWAP3 POP POP POP JUMP JUMPDEST PUSH4 0x4E487B71 PUSH1 0xE0 SHL PUSH0 MSTORE PUSH1 0x41 PUSH1 0x4 MSTORE PUSH1 0x24 PUSH0 REVERT JUMPDEST PUSH1 0x40 MLOAD PUSH1 0xE0 DUP2 ADD PUSH1 0x1 PUSH1 0x1 PUSH1 0x40 SHL SUB DUP2 GT DUP3 DUP3 LT OR ISZERO PUSH2 0x4650 JUMPI PUSH2 0x4650 PUSH2 0x461A JUMP JUMPDEST PUSH1 0x40 MSTORE SWAP1 JUMP JUMPDEST PUSH1 0x40 MLOAD PUSH1 0xC0 DUP2 ADD PUSH1 0x1 PUSH1 0x1 PUSH1 0x40 SHL SUB DUP2 GT DUP3 DUP3 LT OR ISZERO PUSH2 0x4650 JUMPI PUSH2 0x4650 PUSH2 0x461A JUMP JUMPDEST PUSH1 0x40 MLOAD PUSH2 0x100 DUP2 ADD PUSH1 0x1 PUSH1 0x1 PUSH1 0x40 SHL SUB DUP2 GT DUP3 DUP3 LT OR ISZERO PUSH2 0x4650 JUMPI PUSH2 0x4650 PUSH2 0x461A JUMP JUMPDEST PUSH1 0x40 MLOAD PUSH1 0x80 DUP2 ADD PUSH1 0x1 PUSH1 0x1 PUSH1 0x40 SHL SUB DUP2 GT DUP3 DUP3 LT OR ISZERO PUSH2 0x4650 JUMPI PUSH2 0x4650 PUSH2 0x461A JUMP JUMPDEST PUSH1 0x40 MLOAD PUSH1 0x1F DUP3 ADD PUSH1 0x1F NOT AND DUP2 ADD PUSH1 0x1 PUSH1 0x1 PUSH1 0x40 SHL SUB DUP2 GT DUP3 DUP3 LT OR ISZERO PUSH2 0x46E5 JUMPI PUSH2 0x46E5 PUSH2 0x461A JUMP JUMPDEST PUSH1 0x40 MSTORE SWAP2 SWAP1 POP JUMP JUMPDEST PUSH0 PUSH1 0x1 PUSH1 0x1 PUSH1 0x40 SHL SUB DUP3 GT ISZERO PUSH2 0x4705 JUMPI PUSH2 0x4705 PUSH2 0x461A JUMP JUMPDEST POP PUSH1 0x1F ADD PUSH1 0x1F NOT AND PUSH1 0x20 ADD SWAP1 JUMP JUMPDEST PUSH0 PUSH2 0x4725 PUSH2 0x4720 DUP5 PUSH2 0x46ED JUMP JUMPDEST PUSH2 0x46BD JUMP JUMPDEST SWAP1 POP DUP3 DUP2 MSTORE DUP4 DUP4 DUP4 ADD GT ISZERO PUSH2 0x4738 JUMPI PUSH0 PUSH0 REVERT JUMPDEST DUP3 DUP3 PUSH1 0x20 DUP4 ADD CALLDATACOPY PUSH0 PUSH1 0x20 DUP5 DUP4 ADD ADD MSTORE SWAP4 SWAP3 POP POP POP JUMP JUMPDEST PUSH0 PUSH0 PUSH0 PUSH0 PUSH1 0x80 DUP6 DUP8 SUB SLT ISZERO PUSH2 0x4761 JUMPI PUSH0 PUSH0 REVERT JUMPDEST DUP5 CALLDATALOAD PUSH2 0x476C DUP2 PUSH2 0x413B JUMP JUMPDEST SWAP4 POP PUSH1 0x20 DUP6 ADD CALLDATALOAD PUSH2 0x477C DUP2 PUSH2 0x413B JUMP JUMPDEST SWAP3 POP PUSH1 0x40 DUP6 ADD CALLDATALOAD SWAP2 POP PUSH1 0x60 DUP6 ADD CALLDATALOAD PUSH1 0x1 PUSH1 0x1 PUSH1 0x40 SHL SUB DUP2 GT ISZERO PUSH2 0x479D JUMPI PUSH0 PUSH0 REVERT JUMPDEST DUP6 ADD PUSH1 0x1F DUP2 ADD DUP8 SGT PUSH2 0x47AD JUMPI PUSH0 PUSH0 REVERT JUMPDEST PUSH2 0x47BC DUP8 DUP3 CALLDATALOAD PUSH1 0x20 DUP5 ADD PUSH2 0x4713 JUMP JUMPDEST SWAP2 POP POP SWAP3 SWAP6 SWAP2 SWAP5 POP SWAP3 POP JUMP JUMPDEST PUSH1 0x20 DUP2 MSTORE PUSH0 PUSH2 0x3AA3 PUSH1 0x20 DUP4 ADD DUP5 PUSH2 0x4442 JUMP JUMPDEST PUSH0 PUSH0 PUSH0 PUSH0 PUSH1 0x40 DUP6 DUP8 SUB SLT ISZERO PUSH2 0x47ED JUMPI PUSH0 PUSH0 REVERT JUMPDEST DUP5 CALLDATALOAD PUSH1 0x1 PUSH1 0x1 PUSH1 0x40 SHL SUB DUP2 GT ISZERO PUSH2 0x4802 JUMPI PUSH0 PUSH0 REVERT JUMPDEST PUSH2 0x480E DUP8 DUP3 DUP9 ADD PUSH2 0x4248 JUMP JUMPDEST SWAP1 SWAP6 POP SWAP4 POP POP PUSH1 0x20 DUP6 ADD CALLDATALOAD PUSH1 0x1 PUSH1 0x1 PUSH1 0x40 SHL SUB DUP2 GT ISZERO PUSH2 0x482C JUMPI PUSH0 PUSH0 REVERT JUMPDEST PUSH2 0x4838 DUP8 DUP3 DUP9 ADD PUSH2 0x428C JUMP JUMPDEST SWAP6 SWAP9 SWAP5 SWAP8 POP SWAP6 POP POP POP POP JUMP JUMPDEST PUSH1 0x1 DUP2 DUP2 SHR SWAP1 DUP3 AND DUP1 PUSH2 0x4858 JUMPI PUSH1 0x7F DUP3 AND SWAP2 POP JUMPDEST PUSH1 0x20 DUP3 LT DUP2 SUB PUSH2 0x4876 JUMPI PUSH4 0x4E487B71 PUSH1 0xE0 SHL PUSH0 MSTORE PUSH1 0x22 PUSH1 0x4 MSTORE PUSH1 0x24 PUSH0 REVERT JUMPDEST POP SWAP2 SWAP1 POP JUMP JUMPDEST DUP1 MLOAD PUSH2 0x4887 DUP2 PUSH2 0x413B JUMP JUMPDEST SWAP2 SWAP1 POP JUMP JUMPDEST PUSH0 DUP3 PUSH1 0x1F DUP4 ADD SLT PUSH2 0x489B JUMPI PUSH0 PUSH0 REVERT JUMPDEST DUP2 MLOAD PUSH2 0x48A9 PUSH2 0x4720 DUP3 PUSH2 0x46ED JUMP JUMPDEST DUP2 DUP2 MSTORE DUP5 PUSH1 0x20 DUP4 DUP7 ADD ADD GT ISZERO PUSH2 0x48BD JUMPI PUSH0 PUSH0 REVERT JUMPDEST DUP2 PUSH1 0x20 DUP6 ADD PUSH1 0x20 DUP4 ADD MCOPY PUSH0 SWAP2 DUP2 ADD PUSH1 0x20 ADD SWAP2 SWAP1 SWAP2 MSTORE SWAP4 SWAP3 POP POP POP JUMP JUMPDEST DUP1 MLOAD PUSH2 0x4887 DUP2 PUSH2 0x43B6 JUMP JUMPDEST PUSH0 PUSH1 0x20 DUP3 DUP5 SUB SLT ISZERO PUSH2 0x48F4 JUMPI PUSH0 PUSH0 REVERT JUMPDEST DUP2 MLOAD PUSH1 0x1 PUSH1 0x1 PUSH1 0x40 SHL SUB DUP2 GT ISZERO PUSH2 0x4909 JUMPI PUSH0 PUSH0 REVERT JUMPDEST DUP3 ADD PUSH1 0xE0 DUP2 DUP6 SUB SLT ISZERO PUSH2 0x491A JUMPI PUSH0 PUSH0 REVERT JUMPDEST PUSH2 0x4922 PUSH2 0x462E JUMP JUMPDEST PUSH2 0x492B DUP3 PUSH2 0x487C JUMP JUMPDEST DUP2 MSTORE PUSH2 0x4939 PUSH1 0x20 DUP4 ADD PUSH2 0x487C JUMP JUMPDEST PUSH1 0x20 DUP3 ADD MSTORE PUSH1 0x40 DUP3 DUP2 ADD MLOAD SWAP1 DUP3 ADD MSTORE PUSH1 0x60 DUP3 ADD MLOAD PUSH1 0x1 PUSH1 0x1 PUSH1 0x40 SHL SUB DUP2 GT ISZERO PUSH2 0x4960 JUMPI PUSH0 PUSH0 REVERT JUMPDEST PUSH2 0x496C DUP7 DUP3 DUP6 ADD PUSH2 0x488C JUMP JUMPDEST PUSH1 0x60 DUP4 ADD MSTORE POP PUSH1 0x80 DUP3 DUP2 ADD MLOAD SWAP1 DUP3 ADD MSTORE PUSH1 0xA0 DUP1 DUP4 ADD MLOAD SWAP1 DUP3 ADD MSTORE PUSH2 0x4992 PUSH1 0xC0 DUP4 ADD PUSH2 0x48D9 JUMP JUMPDEST PUSH1 0xC0 DUP3 ADD MSTORE SWAP5 SWAP4 POP POP POP POP JUMP JUMPDEST PUSH1 0x20 DUP2 MSTORE PUSH1 0x1 DUP1 PUSH1 0xA0 SHL SUB DUP3 MLOAD AND PUSH1 0x20 DUP3 ADD MSTORE PUSH1 0x1 DUP1 PUSH1 0xA0 SHL SUB PUSH1 0x20 DUP4 ADD MLOAD AND PUSH1 0x40 DUP3 ADD MSTORE PUSH1 0x40 DUP3 ADD MLOAD PUSH1 0x60 DUP3 ADD MSTORE PUSH0 PUSH1 0x60 DUP4 ADD MLOAD PUSH1 0xE0 PUSH1 0x80 DUP5 ADD MSTORE PUSH2 0x49E9 PUSH2 0x100 DUP5 ADD DUP3 PUSH2 0x40E4 JUMP JUMPDEST SWAP1 POP PUSH1 0x80 DUP5 ADD MLOAD PUSH1 0xA0 DUP5 ADD MSTORE PUSH1 0xA0 DUP5 ADD MLOAD PUSH1 0xC0 DUP5 ADD MSTORE PUSH1 0xC0 DUP5 ADD MLOAD ISZERO ISZERO PUSH1 0xE0 DUP5 ADD MSTORE DUP1 SWAP2 POP POP SWAP3 SWAP2 POP POP JUMP JUMPDEST PUSH0 PUSH1 0x1 PUSH1 0x1 PUSH1 0x40 SHL SUB DUP3 GT ISZERO PUSH2 0x4A2D JUMPI PUSH2 0x4A2D PUSH2 0x461A JUMP JUMPDEST POP PUSH1 0x5 SHL PUSH1 0x20 ADD SWAP1 JUMP JUMPDEST PUSH0 PUSH2 0x4A44 PUSH2 0x4720 DUP5 PUSH2 0x4A15 JUMP JUMPDEST DUP4 DUP2 MSTORE PUSH1 0x20 DUP2 ADD SWAP1 PUSH1 0x5 DUP6 SWAP1 SHL DUP5 ADD CALLDATASIZE DUP2 GT ISZERO PUSH2 0x4A5F JUMPI PUSH0 PUSH0 REVERT JUMPDEST DUP5 JUMPDEST DUP2 DUP2 LT ISZERO PUSH2 0x4AAC JUMPI DUP1 CALLDATALOAD PUSH1 0x1 PUSH1 0x1 PUSH1 0x40 SHL SUB DUP2 GT ISZERO PUSH2 0x4A7E JUMPI PUSH0 PUSH0 REVERT JUMPDEST DUP7 ADD CALLDATASIZE PUSH1 0x1F DUP3 ADD SLT PUSH2 0x4A8E JUMPI PUSH0 PUSH0 REVERT JUMPDEST PUSH2 0x4A9D CALLDATASIZE DUP3 CALLDATALOAD PUSH1 0x20 DUP5 ADD PUSH2 0x4713 JUMP JUMPDEST DUP6 MSTORE POP PUSH1 0x20 SWAP4 DUP5 ADD SWAP4 ADD PUSH2 0x4A61 JUMP JUMPDEST POP SWAP1 SWAP6 SWAP5 POP POP POP POP POP JUMP JUMPDEST PUSH0 DUP3 DUP3 MLOAD DUP1 DUP6 MSTORE PUSH1 0x20 DUP6 ADD SWAP5 POP PUSH1 0x20 DUP2 PUSH1 0x5 SHL DUP4 ADD ADD PUSH1 0x20 DUP6 ADD PUSH0 JUMPDEST DUP4 DUP2 LT ISZERO PUSH2 0x4B05 JUMPI PUSH1 0x1F NOT DUP6 DUP5 SUB ADD DUP9 MSTORE PUSH2 0x4AEF DUP4 DUP4 MLOAD PUSH2 0x40E4 JUMP JUMPDEST PUSH1 0x20 SWAP9 DUP10 ADD SWAP9 SWAP1 SWAP4 POP SWAP2 SWAP1 SWAP2 ADD SWAP1 PUSH1 0x1 ADD PUSH2 0x4AD3 JUMP JUMPDEST POP SWAP1 SWAP7 SWAP6 POP POP POP POP POP POP JUMP JUMPDEST PUSH1 0x1 DUP1 PUSH1 0xA0 SHL SUB DUP2 MLOAD AND DUP3 MSTORE PUSH1 0x20 DUP2 ADD MLOAD PUSH1 0x20 DUP4 ADD MSTORE PUSH0 PUSH1 0x40 DUP3 ADD MLOAD PUSH1 0x80 PUSH1 0x40 DUP6 ADD MSTORE PUSH2 0x4B41 PUSH1 0x80 DUP6 ADD DUP3 PUSH2 0x40E4 JUMP JUMPDEST SWAP1 POP PUSH1 0x60 DUP4 ADD MLOAD DUP5 DUP3 SUB PUSH1 0x60 DUP7 ADD MSTORE PUSH2 0x4B5A DUP3 DUP3 PUSH2 0x4AB7 JUMP JUMPDEST SWAP6 SWAP5 POP POP POP POP POP JUMP JUMPDEST DUP3 DUP2 MSTORE PUSH1 0x40 PUSH1 0x20 DUP3 ADD MSTORE PUSH0 PUSH2 0x2F62 PUSH1 0x40 DUP4 ADD DUP5 PUSH2 0x4B11 JUMP JUMPDEST PUSH0 PUSH1 0x20 DUP3 DUP5 SUB SLT ISZERO PUSH2 0x4B8B JUMPI PUSH0 PUSH0 REVERT JUMPDEST DUP2 MLOAD PUSH2 0x3AA3 DUP2 PUSH2 0x43B6 JUMP JUMPDEST PUSH0 DUP3 PUSH1 0x1F DUP4 ADD SLT PUSH2 0x4BA5 JUMPI PUSH0 PUSH0 REVERT JUMPDEST DUP2 MLOAD PUSH2 0x4BB3 PUSH2 0x4720 DUP3 PUSH2 0x4A15 JUMP JUMPDEST DUP1 DUP3 DUP3 MSTORE PUSH1 0x20 DUP3 ADD SWAP2 POP PUSH1 0x20 DUP4 PUSH1 0x5 SHL DUP7 ADD ADD SWAP3 POP DUP6 DUP4 GT ISZERO PUSH2 0x4BD4 JUMPI PUSH0 PUSH0 REVERT JUMPDEST PUSH1 0x20 DUP6 ADD JUMPDEST DUP4 DUP2 LT ISZERO PUSH2 0x4BF1 JUMPI DUP1 MLOAD DUP4 MSTORE PUSH1 0x20 SWAP3 DUP4 ADD SWAP3 ADD PUSH2 0x4BD9 JUMP JUMPDEST POP SWAP6 SWAP5 POP POP POP POP POP JUMP JUMPDEST PUSH0 PUSH1 0x20 DUP3 DUP5 SUB SLT ISZERO PUSH2 0x4C0B JUMPI PUSH0 PUSH0 REVERT JUMPDEST DUP2 MLOAD PUSH1 0x1 PUSH1 0x1 PUSH1 0x40 SHL SUB DUP2 GT ISZERO PUSH2 0x4C20 JUMPI PUSH0 PUSH0 REVERT JUMPDEST DUP3 ADD PUSH1 0xC0 DUP2 DUP6 SUB SLT ISZERO PUSH2 0x4C31 JUMPI PUSH0 PUSH0 REVERT JUMPDEST PUSH2 0x4C39 PUSH2 0x4656 JUMP JUMPDEST PUSH2 0x4C42 DUP3 PUSH2 0x487C JUMP JUMPDEST DUP2 MSTORE PUSH1 0x20 DUP3 ADD MLOAD PUSH1 0x1 PUSH1 0x1 PUSH1 0x40 SHL SUB DUP2 GT ISZERO PUSH2 0x4C5C JUMPI PUSH0 PUSH0 REVERT JUMPDEST PUSH2 0x4C68 DUP7 DUP3 DUP6 ADD PUSH2 0x4B96 JUMP JUMPDEST PUSH1 0x20 DUP4 ADD MSTORE POP PUSH1 0x40 DUP3 ADD MLOAD PUSH1 0x1 PUSH1 0x1 PUSH1 0x40 SHL SUB DUP2 GT ISZERO PUSH2 0x4C86 JUMPI PUSH0 PUSH0 REVERT JUMPDEST PUSH2 0x4C92 DUP7 DUP3 DUP6 ADD PUSH2 0x488C JUMP JUMPDEST PUSH1 0x40 DUP4 ADD MSTORE POP PUSH1 0x60 DUP3 DUP2 ADD MLOAD SWAP1 DUP3 ADD MSTORE PUSH1 0x80 DUP1 DUP4 ADD MLOAD SWAP1 DUP3 ADD MSTORE PUSH2 0x4CB8 PUSH1 0xA0 DUP4 ADD PUSH2 0x48D9 JUMP JUMPDEST PUSH1 0xA0 DUP3 ADD MSTORE SWAP5 SWAP4 POP POP POP POP JUMP JUMPDEST PUSH0 PUSH1 0x20 DUP3 DUP5 SUB SLT ISZERO PUSH2 0x4CD5 JUMPI PUSH0 PUSH0 REVERT JUMPDEST DUP2 MLOAD PUSH1 0x1 PUSH1 0x1 PUSH1 0x40 SHL SUB DUP2 GT ISZERO PUSH2 0x4CEA JUMPI PUSH0 PUSH0 REVERT JUMPDEST DUP3 ADD PUSH2 0x100 DUP2 DUP6 SUB SLT ISZERO PUSH2 0x4CFC JUMPI PUSH0 PUSH0 REVERT JUMPDEST PUSH2 0x4D04 PUSH2 0x4678 JUMP JUMPDEST DUP2 MLOAD DUP2 MSTORE PUSH2 0x4D14 PUSH1 0x20 DUP4 ADD PUSH2 0x487C JUMP JUMPDEST PUSH1 0x20 DUP3 ADD MSTORE PUSH2 0x4D25 PUSH1 0x40 DUP4 ADD PUSH2 0x487C JUMP JUMPDEST PUSH1 0x40 DUP3 ADD MSTORE PUSH1 0x60 DUP3 ADD MLOAD PUSH1 0x1 PUSH1 0x1 PUSH1 0x40 SHL SUB DUP2 GT ISZERO PUSH2 0x4D42 JUMPI PUSH0 PUSH0 REVERT JUMPDEST PUSH2 0x4D4E DUP7 DUP3 DUP6 ADD PUSH2 0x488C JUMP JUMPDEST PUSH1 0x60 DUP4 ADD MSTORE POP PUSH1 0x80 DUP3 DUP2 ADD MLOAD SWAP1 DUP3 ADD MSTORE PUSH1 0xA0 DUP1 DUP4 ADD MLOAD SWAP1 DUP3 ADD MSTORE PUSH2 0x4D74 PUSH1 0xC0 DUP4 ADD PUSH2 0x48D9 JUMP JUMPDEST PUSH1 0xC0 DUP3 ADD MSTORE PUSH1 0xE0 SWAP2 DUP3 ADD MLOAD SWAP2 DUP2 ADD SWAP2 SWAP1 SWAP2 MSTORE SWAP4 SWAP3 POP POP POP JUMP JUMPDEST PUSH1 0x20 DUP2 MSTORE DUP2 MLOAD PUSH1 0x20 DUP3 ADD MSTORE PUSH1 0x1 DUP1 PUSH1 0xA0 SHL SUB PUSH1 0x20 DUP4 ADD MLOAD AND PUSH1 0x40 DUP3 ADD MSTORE PUSH1 0x1 DUP1 PUSH1 0xA0 SHL SUB PUSH1 0x40 DUP4 ADD MLOAD AND PUSH1 0x60 DUP3 ADD MSTORE PUSH0 PUSH1 0x60 DUP4 ADD MLOAD PUSH2 0x100 PUSH1 0x80 DUP5 ADD MSTORE PUSH2 0x4DD8 PUSH2 0x120 DUP5 ADD DUP3 PUSH2 0x40E4 JUMP JUMPDEST SWAP1 POP PUSH1 0x80 DUP5 ADD MLOAD PUSH1 0xA0 DUP5 ADD MSTORE PUSH1 0xA0 DUP5 ADD MLOAD PUSH1 0xC0 DUP5 ADD MSTORE PUSH1 0xC0 DUP5 ADD MLOAD PUSH2 0x4E01 PUSH1 0xE0 DUP6 ADD DUP3 ISZERO ISZERO SWAP1 MSTORE JUMP JUMPDEST POP PUSH1 0xE0 DUP5 ADD MLOAD PUSH2 0x100 DUP5 ADD MSTORE DUP1 SWAP2 POP POP SWAP3 SWAP2 POP POP JUMP JUMPDEST PUSH4 0x4E487B71 PUSH1 0xE0 SHL PUSH0 MSTORE PUSH1 0x11 PUSH1 0x4 MSTORE PUSH1 0x24 PUSH0 REVERT JUMPDEST DUP1 DUP3 ADD DUP1 DUP3 GT ISZERO PUSH2 0x707 JUMPI PUSH2 0x707 PUSH2 0x4E17 JUMP JUMPDEST PUSH4 0x4E487B71 PUSH1 0xE0 SHL PUSH0 MSTORE PUSH1 0x32 PUSH1 0x4 MSTORE PUSH1 0x24 PUSH0 REVERT JUMPDEST PUSH1 0x20 DUP1 DUP3 MSTORE DUP3 MLOAD PUSH1 0x1 PUSH1 0x1 PUSH1 0xA0 SHL SUB AND DUP3 DUP3 ADD MSTORE DUP3 DUP2 ADD MLOAD PUSH1 0xC0 PUSH1 0x40 DUP5 ADD MSTORE DUP1 MLOAD PUSH1 0xE0 DUP5 ADD DUP2 SWAP1 MSTORE PUSH0 SWAP3 SWAP2 SWAP1 SWAP2 ADD SWAP1 DUP3 SWAP1 PUSH2 0x100 DUP6 ADD SWAP1 JUMPDEST DUP1 DUP4 LT ISZERO PUSH2 0x4EAD JUMPI DUP4 MLOAD DUP3 MSTORE PUSH1 0x20 DUP3 ADD SWAP2 POP PUSH1 0x20 DUP5 ADD SWAP4 POP PUSH1 0x1 DUP4 ADD SWAP3 POP PUSH2 0x4E8A JUMP JUMPDEST POP PUSH1 0x40 DUP7 ADD MLOAD DUP6 DUP3 SUB PUSH1 0x1F NOT ADD PUSH1 0x60 DUP8 ADD MSTORE SWAP3 POP PUSH2 0x4ECB DUP2 DUP5 PUSH2 0x40E4 JUMP JUMPDEST SWAP3 POP POP POP PUSH1 0x60 DUP5 ADD MLOAD PUSH1 0x80 DUP5 ADD MSTORE PUSH1 0x80 DUP5 ADD MLOAD PUSH1 0xA0 DUP5 ADD MSTORE PUSH1 0xA0 DUP5 ADD MLOAD PUSH2 0x2A4B PUSH1 0xC0 DUP6 ADD DUP3 ISZERO ISZERO SWAP1 MSTORE JUMP JUMPDEST PUSH0 PUSH1 0x20 DUP3 DUP5 SUB SLT ISZERO PUSH2 0x4F06 JUMPI PUSH0 PUSH0 REVERT JUMPDEST POP MLOAD SWAP2 SWAP1 POP JUMP JUMPDEST PUSH0 PUSH1 0x20 DUP3 DUP5 SUB SLT ISZERO PUSH2 0x4F1D JUMPI PUSH0 PUSH0 REVERT JUMPDEST DUP2 MLOAD PUSH2 0x3AA3 DUP2 PUSH2 0x413B JUMP JUMPDEST PUSH0 PUSH1 0x20 DUP3 DUP5 SUB SLT ISZERO PUSH2 0x4F38 JUMPI PUSH0 PUSH0 REVERT JUMPDEST DUP2 MLOAD PUSH1 0x1 PUSH1 0x1 PUSH1 0x40 SHL SUB DUP2 GT ISZERO PUSH2 0x4F4D JUMPI PUSH0 PUSH0 REVERT JUMPDEST PUSH2 0x2F62 DUP5 DUP3 DUP6 ADD PUSH2 0x488C JUMP JUMPDEST PUSH0 PUSH1 0x1 DUP3 ADD PUSH2 0x4F6A JUMPI PUSH2 0x4F6A PUSH2 0x4E17 JUMP JUMPDEST POP PUSH1 0x1 ADD SWAP1 JUMP JUMPDEST PUSH0 PUSH0 DUP4 CALLDATALOAD PUSH1 0x1E NOT DUP5 CALLDATASIZE SUB ADD DUP2 SLT PUSH2 0x4F86 JUMPI PUSH0 PUSH0 REVERT JUMPDEST DUP4 ADD DUP1 CALLDATALOAD SWAP2 POP PUSH1 0x1 PUSH1 0x1 PUSH1 0x40 SHL SUB DUP3 GT ISZERO PUSH2 0x4F9F JUMPI PUSH0 PUSH0 REVERT JUMPDEST PUSH1 0x20 ADD SWAP2 POP CALLDATASIZE DUP2 SWAP1 SUB DUP3 SGT ISZERO PUSH2 0x4285 JUMPI PUSH0 PUSH0 REVERT JUMPDEST DUP2 DUP4 DUP3 CALLDATACOPY PUSH0 SWAP2 ADD SWAP1 DUP2 MSTORE SWAP2 SWAP1 POP JUMP JUMPDEST DUP3 DUP5 DUP3 CALLDATACOPY PUSH1 0x60 SWAP2 SWAP1 SWAP2 SHL PUSH12 0xFFFFFFFFFFFFFFFFFFFFFFFF NOT AND SWAP2 ADD SWAP1 DUP2 MSTORE PUSH1 0x14 ADD SWAP2 SWAP1 POP JUMP JUMPDEST PUSH0 DUP2 MLOAD DUP1 PUSH1 0x20 DUP5 ADD DUP6 MCOPY PUSH0 SWAP4 ADD SWAP3 DUP4 MSTORE POP SWAP1 SWAP2 SWAP1 POP JUMP JUMPDEST PUSH0 PUSH2 0x3AA3 DUP3 DUP5 PUSH2 0x4FE8 JUMP JUMPDEST DUP1 MLOAD PUSH1 0x3 DUP2 LT PUSH2 0x4887 JUMPI PUSH0 PUSH0 REVERT JUMPDEST PUSH0 DUP3 PUSH1 0x1F DUP4 ADD SLT PUSH2 0x5027 JUMPI PUSH0 PUSH0 REVERT JUMPDEST DUP2 MLOAD PUSH2 0x5035 PUSH2 0x4720 DUP3 PUSH2 0x4A15 JUMP JUMPDEST DUP1 DUP3 DUP3 MSTORE PUSH1 0x20 DUP3 ADD SWAP2 POP PUSH1 0x20 DUP4 PUSH1 0x5 SHL DUP7 ADD ADD SWAP3 POP DUP6 DUP4 GT ISZERO PUSH2 0x5056 JUMPI PUSH0 PUSH0 REVERT JUMPDEST PUSH1 0x20 DUP6 ADD JUMPDEST DUP4 DUP2 LT ISZERO PUSH2 0x4BF1 JUMPI DUP1 MLOAD PUSH1 0x1 PUSH1 0x1 PUSH1 0x40 SHL SUB DUP2 GT ISZERO PUSH2 0x5078 JUMPI PUSH0 PUSH0 REVERT JUMPDEST PUSH2 0x5087 DUP9 PUSH1 0x20 DUP4 DUP11 ADD ADD PUSH2 0x488C JUMP JUMPDEST DUP5 MSTORE POP PUSH1 0x20 SWAP3 DUP4 ADD SWAP3 ADD PUSH2 0x505B JUMP JUMPDEST PUSH0 DUP3 PUSH1 0x1F DUP4 ADD SLT PUSH2 0x50A5 JUMPI PUSH0 PUSH0 REVERT JUMPDEST DUP2 MLOAD PUSH2 0x50B3 PUSH2 0x4720 DUP3 PUSH2 0x4A15 JUMP JUMPDEST DUP1 DUP3 DUP3 MSTORE PUSH1 0x20 DUP3 ADD SWAP2 POP PUSH1 0x20 DUP4 PUSH1 0x5 SHL DUP7 ADD ADD SWAP3 POP DUP6 DUP4 GT ISZERO PUSH2 0x50D4 JUMPI PUSH0 PUSH0 REVERT JUMPDEST PUSH1 0x20 DUP6 ADD JUMPDEST DUP4 DUP2 LT ISZERO PUSH2 0x4BF1 JUMPI DUP1 MLOAD PUSH1 0x1 PUSH1 0x1 PUSH1 0x40 SHL SUB DUP2 GT ISZERO PUSH2 0x50F6 JUMPI PUSH0 PUSH0 REVERT JUMPDEST DUP7 ADD PUSH1 0x80 DUP2 DUP10 SUB PUSH1 0x1F NOT ADD SLT ISZERO PUSH2 0x510B JUMPI PUSH0 PUSH0 REVERT JUMPDEST PUSH2 0x5113 PUSH2 0x469B JUMP JUMPDEST PUSH1 0x20 DUP3 ADD MLOAD PUSH2 0x5121 DUP2 PUSH2 0x413B JUMP JUMPDEST DUP2 MSTORE PUSH1 0x40 DUP3 ADD MLOAD PUSH1 0x20 DUP3 ADD MSTORE PUSH1 0x60 DUP3 ADD MLOAD PUSH1 0x1 PUSH1 0x1 PUSH1 0x40 SHL SUB DUP2 GT ISZERO PUSH2 0x5145 JUMPI PUSH0 PUSH0 REVERT JUMPDEST PUSH2 0x5154 DUP11 PUSH1 0x20 DUP4 DUP7 ADD ADD PUSH2 0x488C JUMP JUMPDEST PUSH1 0x40 DUP4 ADD MSTORE POP PUSH1 0x80 DUP3 ADD MLOAD PUSH1 0x1 PUSH1 0x1 PUSH1 0x40 SHL SUB DUP2 GT ISZERO PUSH2 0x5172 JUMPI PUSH0 PUSH0 REVERT JUMPDEST PUSH2 0x5181 DUP11 PUSH1 0x20 DUP4 DUP7 ADD ADD PUSH2 0x5018 JUMP JUMPDEST PUSH1 0x60 DUP4 ADD MSTORE POP DUP5 MSTORE POP PUSH1 0x20 SWAP3 DUP4 ADD SWAP3 ADD PUSH2 0x50D9 JUMP JUMPDEST PUSH0 PUSH1 0x20 DUP3 DUP5 SUB SLT ISZERO PUSH2 0x51A6 JUMPI PUSH0 PUSH0 REVERT JUMPDEST DUP2 MLOAD PUSH1 0x1 PUSH1 0x1 PUSH1 0x40 SHL SUB DUP2 GT ISZERO PUSH2 0x51BB JUMPI PUSH0 PUSH0 REVERT JUMPDEST DUP3 ADD PUSH2 0x100 DUP2 DUP6 SUB SLT ISZERO PUSH2 0x51CD JUMPI PUSH0 PUSH0 REVERT JUMPDEST PUSH2 0x51D5 PUSH2 0x4678 JUMP JUMPDEST DUP2 MLOAD DUP2 MSTORE PUSH2 0x51E5 PUSH1 0x20 DUP4 ADD PUSH2 0x487C JUMP JUMPDEST PUSH1 0x20 DUP3 ADD MSTORE PUSH1 0x40 DUP3 ADD MLOAD PUSH1 0x1 PUSH1 0x1 PUSH1 0x40 SHL SUB DUP2 GT ISZERO PUSH2 0x5202 JUMPI PUSH0 PUSH0 REVERT JUMPDEST PUSH2 0x520E DUP7 DUP3 DUP6 ADD PUSH2 0x488C JUMP JUMPDEST PUSH1 0x40 DUP4 ADD MSTORE POP PUSH1 0x60 DUP3 DUP2 ADD MLOAD SWAP1 DUP3 ADD MSTORE PUSH2 0x522A PUSH1 0x80 DUP4 ADD PUSH2 0x500A JUMP JUMPDEST PUSH1 0x80 DUP3 ADD MSTORE PUSH2 0x523B PUSH1 0xA0 DUP4 ADD PUSH2 0x487C JUMP JUMPDEST PUSH1 0xA0 DUP3 ADD MSTORE PUSH1 0xC0 DUP3 ADD MLOAD PUSH1 0x1 PUSH1 0x1 PUSH1 0x40 SHL SUB DUP2 GT ISZERO PUSH2 0x5258 JUMPI PUSH0 PUSH0 REVERT JUMPDEST PUSH2 0x5264 DUP7 DUP3 DUP6 ADD PUSH2 0x5096 JUMP JUMPDEST PUSH1 0xC0 DUP4 ADD MSTORE POP PUSH1 0xE0 DUP3 ADD MLOAD PUSH1 0x1 PUSH1 0x1 PUSH1 0x40 SHL SUB DUP2 GT ISZERO PUSH2 0x5282 JUMPI PUSH0 PUSH0 REVERT JUMPDEST PUSH2 0x528E DUP7 DUP3 DUP6 ADD PUSH2 0x5018 JUMP JUMPDEST PUSH1 0xE0 DUP4 ADD MSTORE POP SWAP5 SWAP4 POP POP POP POP JUMP JUMPDEST PUSH4 0x4E487B71 PUSH1 0xE0 SHL PUSH0 MSTORE PUSH1 0x21 PUSH1 0x4 MSTORE PUSH1 0x24 PUSH0 REVERT JUMPDEST PUSH1 0x3 DUP2 LT PUSH2 0x52CC JUMPI PUSH4 0x4E487B71 PUSH1 0xE0 SHL PUSH0 MSTORE PUSH1 0x21 PUSH1 0x4 MSTORE PUSH1 0x24 PUSH0 REVERT JUMPDEST SWAP1 MSTORE JUMP JUMPDEST PUSH0 DUP3 DUP3 MLOAD DUP1 DUP6 MSTORE PUSH1 0x20 DUP6 ADD SWAP5 POP PUSH1 0x20 DUP2 PUSH1 0x5 SHL DUP4 ADD ADD PUSH1 0x20 DUP6 ADD PUSH0 JUMPDEST DUP4 DUP2 LT ISZERO PUSH2 0x4B05 JUMPI PUSH1 0x1F NOT DUP6 DUP5 SUB ADD DUP9 MSTORE PUSH2 0x5308 DUP4 DUP4 MLOAD PUSH2 0x4B11 JUMP JUMPDEST PUSH1 0x20 SWAP9 DUP10 ADD SWAP9 SWAP1 SWAP4 POP SWAP2 SWAP1 SWAP2 ADD SWAP1 PUSH1 0x1 ADD PUSH2 0x52EC JUMP JUMPDEST PUSH1 0x20 DUP2 MSTORE DUP2 MLOAD PUSH1 0x20 DUP3 ADD MSTORE PUSH0 PUSH1 0x20 DUP4 ADD MLOAD PUSH2 0x5344 PUSH1 0x40 DUP5 ADD DUP3 PUSH1 0x1 PUSH1 0x1 PUSH1 0xA0 SHL SUB AND SWAP1 MSTORE JUMP JUMPDEST POP PUSH1 0x40 DUP4 ADD MLOAD PUSH2 0x100 PUSH1 0x60 DUP5 ADD MSTORE PUSH2 0x5360 PUSH2 0x120 DUP5 ADD DUP3 PUSH2 0x40E4 JUMP JUMPDEST SWAP1 POP PUSH1 0x60 DUP5 ADD MLOAD PUSH1 0x80 DUP5 ADD MSTORE PUSH1 0x80 DUP5 ADD MLOAD PUSH2 0x537E PUSH1 0xA0 DUP6 ADD DUP3 PUSH2 0x52B0 JUMP JUMPDEST POP PUSH1 0xA0 DUP5 ADD MLOAD PUSH1 0x1 PUSH1 0x1 PUSH1 0xA0 SHL SUB DUP2 AND PUSH1 0xC0 DUP6 ADD MSTORE POP PUSH1 0xC0 DUP5 ADD MLOAD DUP4 DUP3 SUB PUSH1 0x1F NOT ADD PUSH1 0xE0 DUP6 ADD MSTORE PUSH2 0x53AF DUP3 DUP3 PUSH2 0x52D0 JUMP JUMPDEST SWAP2 POP POP PUSH1 0xE0 DUP5 ADD MLOAD PUSH1 0x1F NOT DUP5 DUP4 SUB ADD PUSH2 0x100 DUP6 ADD MSTORE PUSH2 0x4B5A DUP3 DUP3 PUSH2 0x4AB7 JUMP JUMPDEST PUSH0 PUSH0 PUSH1 0x40 DUP4 DUP6 SUB SLT ISZERO PUSH2 0x53DF JUMPI PUSH0 PUSH0 REVERT JUMPDEST DUP3 MLOAD PUSH1 0x1 PUSH1 0x1 PUSH1 0x40 SHL SUB DUP2 GT ISZERO PUSH2 0x53F4 JUMPI PUSH0 PUSH0 REVERT JUMPDEST PUSH2 0x5400 DUP6 DUP3 DUP7 ADD PUSH2 0x4B96 JUMP JUMPDEST SWAP3 POP POP PUSH1 0x20 DUP4 ADD MLOAD PUSH1 0x1 PUSH1 0x1 PUSH1 0x40 SHL SUB DUP2 GT ISZERO PUSH2 0x541B JUMPI PUSH0 PUSH0 REVERT JUMPDEST PUSH2 0x5427 DUP6 DUP3 DUP7 ADD PUSH2 0x4B96 JUMP JUMPDEST SWAP2 POP POP SWAP3 POP SWAP3 SWAP1 POP JUMP JUMPDEST PUSH1 0x1F DUP3 GT ISZERO PUSH2 0xAF6 JUMPI DUP1 PUSH0 MSTORE PUSH1 0x20 PUSH0 KECCAK256 PUSH1 0x1F DUP5 ADD PUSH1 0x5 SHR DUP2 ADD PUSH1 0x20 DUP6 LT ISZERO PUSH2 0x5456 JUMPI POP DUP1 JUMPDEST PUSH1 0x1F DUP5 ADD PUSH1 0x5 SHR DUP3 ADD SWAP2 POP JUMPDEST DUP2 DUP2 LT ISZERO PUSH2 0x25B1 JUMPI PUSH0 DUP2 SSTORE PUSH1 0x1 ADD PUSH2 0x5462 JUMP JUMPDEST DUP2 MLOAD PUSH1 0x1 PUSH1 0x1 PUSH1 0x40 SHL SUB DUP2 GT ISZERO PUSH2 0x548E JUMPI PUSH2 0x548E PUSH2 0x461A JUMP JUMPDEST PUSH2 0x54A2 DUP2 PUSH2 0x549C DUP5 SLOAD PUSH2 0x4844 JUMP JUMPDEST DUP5 PUSH2 0x5431 JUMP JUMPDEST PUSH1 0x20 PUSH1 0x1F DUP3 GT PUSH1 0x1 DUP2 EQ PUSH2 0x54D4 JUMPI PUSH0 DUP4 ISZERO PUSH2 0x54BD JUMPI POP DUP5 DUP3 ADD MLOAD JUMPDEST PUSH0 NOT PUSH1 0x3 DUP6 SWAP1 SHL SHR NOT AND PUSH1 0x1 DUP5 SWAP1 SHL OR DUP5 SSTORE PUSH2 0x25B1 JUMP JUMPDEST PUSH0 DUP5 DUP2 MSTORE PUSH1 0x20 DUP2 KECCAK256 PUSH1 0x1F NOT DUP6 AND SWAP2 JUMPDEST DUP3 DUP2 LT ISZERO PUSH2 0x5503 JUMPI DUP8 DUP6 ADD MLOAD DUP3 SSTORE PUSH1 0x20 SWAP5 DUP6 ADD SWAP5 PUSH1 0x1 SWAP1 SWAP3 ADD SWAP2 ADD PUSH2 0x54E3 JUMP JUMPDEST POP DUP5 DUP3 LT ISZERO PUSH2 0x5520 JUMPI DUP7 DUP5 ADD MLOAD PUSH0 NOT PUSH1 0x3 DUP8 SWAP1 SHL PUSH1 0xF8 AND SHR NOT AND DUP2 SSTORE JUMPDEST POP POP POP POP PUSH1 0x1 SWAP1 DUP2 SHL ADD SWAP1 SSTORE POP JUMP JUMPDEST PUSH1 0x1 PUSH1 0x1 PUSH1 0xA0 SHL SUB DUP6 DUP2 AND DUP3 MSTORE DUP5 AND PUSH1 0x20 DUP3 ADD MSTORE PUSH1 0x40 DUP2 ADD DUP4 SWAP1 MSTORE PUSH1 0x80 PUSH1 0x60 DUP3 ADD DUP2 SWAP1 MSTORE PUSH0 SWAP1 PUSH2 0x5561 SWAP1 DUP4 ADD DUP5 PUSH2 0x40E4 JUMP JUMPDEST SWAP7 SWAP6 POP POP POP POP POP POP JUMP JUMPDEST PUSH0 PUSH1 0x20 DUP3 DUP5 SUB SLT ISZERO PUSH2 0x557B JUMPI PUSH0 PUSH0 REVERT JUMPDEST DUP2 MLOAD PUSH2 0x3AA3 DUP2 PUSH2 0x40B4 JUMP JUMPDEST PUSH0 PUSH2 0x2F62 PUSH2 0x5594 DUP4 DUP7 PUSH2 0x4FE8 JUMP JUMPDEST DUP5 PUSH2 0x4FE8 JUMP JUMPDEST DUP2 DUP2 SUB DUP2 DUP2 GT ISZERO PUSH2 0x707 JUMPI PUSH2 0x707 PUSH2 0x4E17 JUMP JUMPDEST PUSH4 0x4E487B71 PUSH1 0xE0 SHL PUSH0 MSTORE PUSH1 0x31 PUSH1 0x4 MSTORE PUSH1 0x24 PUSH0 REVERT INVALID LOG2 PUSH5 0x6970667358 0x22 SLT KECCAK256 EOFCREATE 0x7F CALL PUSH11 0x4EF6AF2CB478DB76544A7D 0x23 SWAP12 PUSH22 0xE945C9C83755EC43FCE22450F38664736F6C63430008 0x1E STOP CALLER "
		},
		"gasEstimates": {
			"creation": {
				"codeDepositCost": "4401400",
				"executionCost": "infinite",
				"totalCost": "infinite"
			},
			"external": {
				"addCase(address,address,string,uint256,bool)": "infinite",
				"addCorroboration(uint256,string,string[])": "infinite",
				"adminCancelCase(uint256,address)": "infinite",
				"approve(address,uint256)": "31652",
				"assignRepresentative(address,address)": "infinite",
				"balanceOf(address)": "2625",
				"burn(uint256)": "infinite",
				"confirmEmergencyResponse(address,uint256,address)": "infinite",
				"eip712Domain()": "infinite",
				"executeMetaTransaction((address,address,bytes,uint256,uint256),bytes)": "infinite",
				"getApproved(uint256)": "infinite",
				"getDomainSeparator()": "infinite",
				"getNonce(address)": "2662",
				"getOpenCases(address)": "infinite",
				"getRepresentative(address)": "infinite",
				"hotWallet()": "2448",
				"isApprovedForAll(address,address)": "infinite",
				"isLawyer(address)": "infinite",
				"isMember(address)": "infinite",
				"migrateNftAndCaseTokens(address)": "infinite",
				"migrateNftFromOldContract(address)": "infinite",
				"mintMembershipNFT(address,string,uint256)": "infinite",
				"name()": "infinite",
				"nftPrice()": "2429",
				"nonces(address)": "2600",
				"owner()": "2398",
				"ownerOf(uint256)": "infinite",
				"padiWallet()": "2403",
				"paymentToken()": "2382",
				"registerLawyer(address,string)": "infinite",
				"renounceOwnership()": "infinite",
				"reportIncident(string,string[])": "infinite",
				"resolveCase(address,uint256)": "infinite",
				"rewardLawyerForEmergency(address,uint256,uint256)": "infinite",
				"safeTransferFrom(address,address,uint256)": "infinite",
				"safeTransferFrom(address,address,uint256,bytes)": "infinite",
				"setApprovalForAll(address,bool)": "infinite",
				"setHotWallet(address)": "infinite",
				"setPaymentToken(address)": "infinite",
				"signUpLawyer(address,string)": "infinite",
				"storageContract()": "2493",
				"supportsInterface(bytes4)": "infinite",
				"symbol()": "infinite",
				"tokenByIndex(uint256)": "6800",
				"tokenOfOwnerByIndex(address,uint256)": "5073",
				"tokenURI(uint256)": "infinite",
				"totalSupply()": "2337",
				"transferFrom(address,address,uint256)": "infinite",
				"transferOwnership(address)": "infinite",
				"transferTokenCaseBalance(address)": "infinite",
				"updateIncidentStatus(uint256,uint8)": "infinite"
			},
			"internal": {
				"_increaseBalance(address,uint128)": "infinite",
				"_msgSender()": "92",
				"_update(address,uint256,address)": "infinite"
			}
		},
		"methodIdentifiers": {
			"addCase(address,address,string,uint256,bool)": "6eb60a80",
			"addCorroboration(uint256,string,string[])": "45db283d",
			"adminCancelCase(uint256,address)": "63f0dcb2",
			"approve(address,uint256)": "095ea7b3",
			"assignRepresentative(address,address)": "4158c1b5",
			"balanceOf(address)": "70a08231",
			"burn(uint256)": "42966c68",
			"confirmEmergencyResponse(address,uint256,address)": "241f8715",
			"eip712Domain()": "84b0196e",
			"executeMetaTransaction((address,address,bytes,uint256,uint256),bytes)": "94d1ca6b",
			"getApproved(uint256)": "081812fc",
			"getDomainSeparator()": "ed24911d",
			"getNonce(address)": "2d0335ab",
			"getOpenCases(address)": "e1a9abf1",
			"getRepresentative(address)": "edd501fa",
			"hotWallet()": "29113bc8",
			"isApprovedForAll(address,address)": "e985e9c5",
			"isLawyer(address)": "5939a84e",
			"isMember(address)": "a230c524",
			"migrateNftAndCaseTokens(address)": "9bb0f759",
			"migrateNftFromOldContract(address)": "8502f1c2",
			"mintMembershipNFT(address,string,uint256)": "8baa5d8b",
			"name()": "06fdde03",
			"nftPrice()": "0d39fc81",
			"nonces(address)": "7ecebe00",
			"owner()": "8da5cb5b",
			"ownerOf(uint256)": "6352211e",
			"padiWallet()": "99bb9350",
			"paymentToken()": "3013ce29",
			"registerLawyer(address,string)": "ca259ed2",
			"renounceOwnership()": "715018a6",
			"reportIncident(string,string[])": "f08aa69f",
			"resolveCase(address,uint256)": "49678605",
			"rewardLawyerForEmergency(address,uint256,uint256)": "aa9aa17a",
			"safeTransferFrom(address,address,uint256)": "42842e0e",
			"safeTransferFrom(address,address,uint256,bytes)": "b88d4fde",
			"setApprovalForAll(address,bool)": "a22cb465",
			"setHotWallet(address)": "9fb755d7",
			"setPaymentToken(address)": "6a326ab1",
			"signUpLawyer(address,string)": "4b870a83",
			"storageContract()": "11ce0267",
			"supportsInterface(bytes4)": "01ffc9a7",
			"symbol()": "95d89b41",
			"tokenByIndex(uint256)": "4f6ccce7",
			"tokenOfOwnerByIndex(address,uint256)": "2f745c59",
			"tokenURI(uint256)": "c87b56dd",
			"totalSupply()": "18160ddd",
			"transferFrom(address,address,uint256)": "23b872dd",
			"transferOwnership(address)": "f2fde38b",
			"transferTokenCaseBalance(address)": "e42dde2e",
			"updateIncidentStatus(uint256,uint8)": "a3f8d8ed"
		}
	},
	"abi": [
		{
			"inputs": [
				{
					"internalType": "address",
					"name": "_storage",
					"type": "address"
				},
				{
					"internalType": "address",
					"name": "_paymentToken",
					"type": "address"
				},
				{
					"internalType": "address",
					"name": "_padiWallet",
					"type": "address"
				},
				{
					"internalType": "uint256",
					"name": "_nftPrice",
					"type": "uint256"
				},
				{
					"internalType": "address",
					"name": "_hotWallet",
					"type": "address"
				}
			],
			"stateMutability": "nonpayable",
			"type": "constructor"
		},
		{
			"inputs": [],
			"name": "ECDSAInvalidSignature",
			"type": "error"
		},
		{
			"inputs": [
				{
					"internalType": "uint256",
					"name": "length",
					"type": "uint256"
				}
			],
			"name": "ECDSAInvalidSignatureLength",
			"type": "error"
		},
		{
			"inputs": [
				{
					"internalType": "bytes32",
					"name": "s",
					"type": "bytes32"
				}
			],
			"name": "ECDSAInvalidSignatureS",
			"type": "error"
		},
		{
			"inputs": [],
			"name": "ERC721EnumerableForbiddenBatchMint",
			"type": "error"
		},
		{
			"inputs": [
				{
					"internalType": "address",
					"name": "sender",
					"type": "address"
				},
				{
					"internalType": "uint256",
					"name": "tokenId",
					"type": "uint256"
				},
				{
					"internalType": "address",
					"name": "owner",
					"type": "address"
				}
			],
			"name": "ERC721IncorrectOwner",
			"type": "error"
		},
		{
			"inputs": [
				{
					"internalType": "address",
					"name": "operator",
					"type": "address"
				},
				{
					"internalType": "uint256",
					"name": "tokenId",
					"type": "uint256"
				}
			],
			"name": "ERC721InsufficientApproval",
			"type": "error"
		},
		{
			"inputs": [
				{
					"internalType": "address",
					"name": "approver",
					"type": "address"
				}
			],
			"name": "ERC721InvalidApprover",
			"type": "error"
		},
		{
			"inputs": [
				{
					"internalType": "address",
					"name": "operator",
					"type": "address"
				}
			],
			"name": "ERC721InvalidOperator",
			"type": "error"
		},
		{
			"inputs": [
				{
					"internalType": "address",
					"name": "owner",
					"type": "address"
				}
			],
			"name": "ERC721InvalidOwner",
			"type": "error"
		},
		{
			"inputs": [
				{
					"internalType": "address",
					"name": "receiver",
					"type": "address"
				}
			],
			"name": "ERC721InvalidReceiver",
			"type": "error"
		},
		{
			"inputs": [
				{
					"internalType": "address",
					"name": "sender",
					"type": "address"
				}
			],
			"name": "ERC721InvalidSender",
			"type": "error"
		},
		{
			"inputs": [
				{
					"internalType": "uint256",
					"name": "tokenId",
					"type": "uint256"
				}
			],
			"name": "ERC721NonexistentToken",
			"type": "error"
		},
		{
			"inputs": [
				{
					"internalType": "address",
					"name": "owner",
					"type": "address"
				},
				{
					"internalType": "uint256",
					"name": "index",
					"type": "uint256"
				}
			],
			"name": "ERC721OutOfBoundsIndex",
			"type": "error"
		},
		{
			"inputs": [],
			"name": "InvalidShortString",
			"type": "error"
		},
		{
			"inputs": [
				{
					"internalType": "address",
					"name": "owner",
					"type": "address"
				}
			],
			"name": "OwnableInvalidOwner",
			"type": "error"
		},
		{
			"inputs": [
				{
					"internalType": "address",
					"name": "account",
					"type": "address"
				}
			],
			"name": "OwnableUnauthorizedAccount",
			"type": "error"
		},
		{
			"inputs": [
				{
					"internalType": "address",
					"name": "token",
					"type": "address"
				}
			],
			"name": "SafeERC20FailedOperation",
			"type": "error"
		},
		{
			"inputs": [
				{
					"internalType": "string",
					"name": "str",
					"type": "string"
				}
			],
			"name": "StringTooLong",
			"type": "error"
		},
		{
			"anonymous": false,
			"inputs": [
				{
					"indexed": true,
					"internalType": "address",
					"name": "owner",
					"type": "address"
				},
				{
					"indexed": true,
					"internalType": "address",
					"name": "approved",
					"type": "address"
				},
				{
					"indexed": true,
					"internalType": "uint256",
					"name": "tokenId",
					"type": "uint256"
				}
			],
			"name": "Approval",
			"type": "event"
		},
		{
			"anonymous": false,
			"inputs": [
				{
					"indexed": true,
					"internalType": "address",
					"name": "owner",
					"type": "address"
				},
				{
					"indexed": true,
					"internalType": "address",
					"name": "operator",
					"type": "address"
				},
				{
					"indexed": false,
					"internalType": "bool",
					"name": "approved",
					"type": "bool"
				}
			],
			"name": "ApprovalForAll",
			"type": "event"
		},
		{
			"anonymous": false,
			"inputs": [
				{
					"indexed": false,
					"internalType": "uint256",
					"name": "_fromTokenId",
					"type": "uint256"
				},
				{
					"indexed": false,
					"internalType": "uint256",
					"name": "_toTokenId",
					"type": "uint256"
				}
			],
			"name": "BatchMetadataUpdate",
			"type": "event"
		},
		{
			"anonymous": false,
			"inputs": [
				{
					"indexed": true,
					"internalType": "address",
					"name": "lawyerAddress",
					"type": "address"
				},
				{
					"indexed": true,
					"internalType": "uint256",
					"name": "caseId",
					"type": "uint256"
				},
				{
					"indexed": true,
					"internalType": "address",
					"name": "memberAddress",
					"type": "address"
				},
				{
					"indexed": false,
					"internalType": "bool",
					"name": "isEmergency",
					"type": "bool"
				}
			],
			"name": "CaseAdded",
			"type": "event"
		},
		{
			"anonymous": false,
			"inputs": [
				{
					"indexed": true,
					"internalType": "uint256",
					"name": "caseId",
					"type": "uint256"
				},
				{
					"indexed": true,
					"internalType": "address",
					"name": "member",
					"type": "address"
				},
				{
					"indexed": false,
					"internalType": "uint256",
					"name": "refundAmount",
					"type": "uint256"
				}
			],
			"name": "CaseCancelled",
			"type": "event"
		},
		{
			"anonymous": false,
			"inputs": [
				{
					"indexed": true,
					"internalType": "address",
					"name": "lawyerAddress",
					"type": "address"
				},
				{
					"indexed": true,
					"internalType": "uint256",
					"name": "caseId",
					"type": "uint256"
				}
			],
			"name": "CaseResolved",
			"type": "event"
		},
		{
			"anonymous": false,
			"inputs": [
				{
					"indexed": true,
					"internalType": "uint256",
					"name": "incidentId",
					"type": "uint256"
				},
				{
					"indexed": true,
					"internalType": "address",
					"name": "corroborator",
					"type": "address"
				},
				{
					"indexed": false,
					"internalType": "uint256",
					"name": "timestamp",
					"type": "uint256"
				}
			],
			"name": "CorroborationAdded",
			"type": "event"
		},
		{
			"anonymous": false,
			"inputs": [],
			"name": "EIP712DomainChanged",
			"type": "event"
		},
		{
			"anonymous": false,
			"inputs": [
				{
					"indexed": true,
					"internalType": "address",
					"name": "lawyerAddress",
					"type": "address"
				},
				{
					"indexed": true,
					"internalType": "uint256",
					"name": "caseId",
					"type": "uint256"
				},
				{
					"indexed": true,
					"internalType": "address",
					"name": "memberAddress",
					"type": "address"
				},
				{
					"indexed": false,
					"internalType": "uint256",
					"name": "timestamp",
					"type": "uint256"
				}
			],
			"name": "EmergencyResponseConfirmed",
			"type": "event"
		},
		{
			"anonymous": false,
			"inputs": [
				{
					"indexed": true,
					"internalType": "address",
					"name": "oldWallet",
					"type": "address"
				},
				{
					"indexed": true,
					"internalType": "address",
					"name": "newWallet",
					"type": "address"
				}
			],
			"name": "HotWalletUpdated",
			"type": "event"
		},
		{
			"anonymous": false,
			"inputs": [
				{
					"indexed": true,
					"internalType": "uint256",
					"name": "incidentId",
					"type": "uint256"
				},
				{
					"indexed": true,
					"internalType": "address",
					"name": "reporter",
					"type": "address"
				},
				{
					"indexed": false,
					"internalType": "uint256",
					"name": "timestamp",
					"type": "uint256"
				}
			],
			"name": "IncidentReported",
			"type": "event"
		},
		{
			"anonymous": false,
			"inputs": [
				{
					"indexed": true,
					"internalType": "uint256",
					"name": "incidentId",
					"type": "uint256"
				},
				{
					"indexed": false,
					"internalType": "uint8",
					"name": "status",
					"type": "uint8"
				},
				{
					"indexed": true,
					"internalType": "address",
					"name": "verifier",
					"type": "address"
				}
			],
			"name": "IncidentStatusUpdated",
			"type": "event"
		},
		{
			"anonymous": false,
			"inputs": [
				{
					"indexed": true,
					"internalType": "address",
					"name": "lawyerAddress",
					"type": "address"
				},
				{
					"indexed": false,
					"internalType": "uint256",
					"name": "rewardAmount",
					"type": "uint256"
				},
				{
					"indexed": false,
					"internalType": "uint256",
					"name": "caseId",
					"type": "uint256"
				}
			],
			"name": "LawyerRewarded",
			"type": "event"
		},
		{
			"anonymous": false,
			"inputs": [
				{
					"indexed": true,
					"internalType": "address",
					"name": "lawyerAddress",
					"type": "address"
				}
			],
			"name": "LawyerSignedUp",
			"type": "event"
		},
		{
			"anonymous": false,
			"inputs": [
				{
					"indexed": true,
					"internalType": "address",
					"name": "memberAddress",
					"type": "address"
				},
				{
					"indexed": true,
					"internalType": "uint256",
					"name": "tokenId",
					"type": "uint256"
				}
			],
			"name": "MembershipNFTMinted",
			"type": "event"
		},
		{
			"anonymous": false,
			"inputs": [
				{
					"indexed": true,
					"internalType": "address",
					"name": "from",
					"type": "address"
				},
				{
					"indexed": true,
					"internalType": "address",
					"name": "relayer",
					"type": "address"
				},
				{
					"indexed": false,
					"internalType": "bytes4",
					"name": "functionSelector",
					"type": "bytes4"
				},
				{
					"indexed": false,
					"internalType": "bool",
					"name": "success",
					"type": "bool"
				},
				{
					"indexed": false,
					"internalType": "uint256",
					"name": "nonce",
					"type": "uint256"
				}
			],
			"name": "MetaTransactionExecuted",
			"type": "event"
		},
		{
			"anonymous": false,
			"inputs": [
				{
					"indexed": false,
					"internalType": "uint256",
					"name": "_tokenId",
					"type": "uint256"
				}
			],
			"name": "MetadataUpdate",
			"type": "event"
		},
		{
			"anonymous": false,
			"inputs": [
				{
					"indexed": true,
					"internalType": "address",
					"name": "previousOwner",
					"type": "address"
				},
				{
					"indexed": true,
					"internalType": "address",
					"name": "newOwner",
					"type": "address"
				}
			],
			"name": "OwnershipTransferred",
			"type": "event"
		},
		{
			"anonymous": false,
			"inputs": [
				{
					"indexed": true,
					"internalType": "address",
					"name": "tokenAddress",
					"type": "address"
				}
			],
			"name": "PaymentTokenUpdated",
			"type": "event"
		},
		{
			"anonymous": false,
			"inputs": [
				{
					"indexed": true,
					"internalType": "address",
					"name": "memberAddress",
					"type": "address"
				},
				{
					"indexed": true,
					"internalType": "address",
					"name": "representativeAddress",
					"type": "address"
				}
			],
			"name": "RepresentativeAssigned",
			"type": "event"
		},
		{
			"anonymous": false,
			"inputs": [
				{
					"indexed": false,
					"internalType": "address",
					"name": "owner",
					"type": "address"
				},
				{
					"indexed": false,
					"internalType": "uint256",
					"name": "oldTokenId",
					"type": "uint256"
				}
			],
			"name": "Testing",
			"type": "event"
		},
		{
			"anonymous": false,
			"inputs": [
				{
					"indexed": true,
					"internalType": "address",
					"name": "from",
					"type": "address"
				},
				{
					"indexed": true,
					"internalType": "address",
					"name": "to",
					"type": "address"
				},
				{
					"indexed": true,
					"internalType": "uint256",
					"name": "tokenId",
					"type": "uint256"
				}
			],
			"name": "Transfer",
			"type": "event"
		},
		{
			"inputs": [
				{
					"internalType": "address",
					"name": "lawyerAddress",
					"type": "address"
				},
				{
					"internalType": "address",
					"name": "memberAddress",
					"type": "address"
				},
				{
					"internalType": "string",
					"name": "descriptionMetadata",
					"type": "string"
				},
				{
					"internalType": "uint256",
					"name": "rewardAmount",
					"type": "uint256"
				},
				{
					"internalType": "bool",
					"name": "isEmergency",
					"type": "bool"
				}
			],
			"name": "addCase",
			"outputs": [],
			"stateMutability": "nonpayable",
			"type": "function"
		},
		{
			"inputs": [
				{
					"internalType": "uint256",
					"name": "incidentId",
					"type": "uint256"
				},
				{
					"internalType": "string",
					"name": "comment",
					"type": "string"
				},
				{
					"internalType": "string[]",
					"name": "mediaURIs",
					"type": "string[]"
				}
			],
			"name": "addCorroboration",
			"outputs": [],
			"stateMutability": "nonpayable",
			"type": "function"
		},
		{
			"inputs": [
				{
					"internalType": "uint256",
					"name": "caseId",
					"type": "uint256"
				},
				{
					"internalType": "address",
					"name": "refundTo",
					"type": "address"
				}
			],
			"name": "adminCancelCase",
			"outputs": [],
			"stateMutability": "nonpayable",
			"type": "function"
		},
		{
			"inputs": [
				{
					"internalType": "address",
					"name": "to",
					"type": "address"
				},
				{
					"internalType": "uint256",
					"name": "tokenId",
					"type": "uint256"
				}
			],
			"name": "approve",
			"outputs": [],
			"stateMutability": "nonpayable",
			"type": "function"
		},
		{
			"inputs": [
				{
					"internalType": "address",
					"name": "member",
					"type": "address"
				},
				{
					"internalType": "address",
					"name": "representative",
					"type": "address"
				}
			],
			"name": "assignRepresentative",
			"outputs": [],
			"stateMutability": "nonpayable",
			"type": "function"
		},
		{
			"inputs": [
				{
					"internalType": "address",
					"name": "owner",
					"type": "address"
				}
			],
			"name": "balanceOf",
			"outputs": [
				{
					"internalType": "uint256",
					"name": "",
					"type": "uint256"
				}
			],
			"stateMutability": "view",
			"type": "function"
		},
		{
			"inputs": [
				{
					"internalType": "uint256",
					"name": "tokenId",
					"type": "uint256"
				}
			],
			"name": "burn",
			"outputs": [],
			"stateMutability": "nonpayable",
			"type": "function"
		},
		{
			"inputs": [
				{
					"internalType": "address",
					"name": "memberAddress",
					"type": "address"
				},
				{
					"internalType": "uint256",
					"name": "caseId",
					"type": "uint256"
				},
				{
					"internalType": "address",
					"name": "lawyerAddress",
					"type": "address"
				}
			],
			"name": "confirmEmergencyResponse",
			"outputs": [],
			"stateMutability": "nonpayable",
			"type": "function"
		},
		{
			"inputs": [],
			"name": "eip712Domain",
			"outputs": [
				{
					"internalType": "bytes1",
					"name": "fields",
					"type": "bytes1"
				},
				{
					"internalType": "string",
					"name": "name",
					"type": "string"
				},
				{
					"internalType": "string",
					"name": "version",
					"type": "string"
				},
				{
					"internalType": "uint256",
					"name": "chainId",
					"type": "uint256"
				},
				{
					"internalType": "address",
					"name": "verifyingContract",
					"type": "address"
				},
				{
					"internalType": "bytes32",
					"name": "salt",
					"type": "bytes32"
				},
				{
					"internalType": "uint256[]",
					"name": "extensions",
					"type": "uint256[]"
				}
			],
			"stateMutability": "view",
			"type": "function"
		},
		{
			"inputs": [
				{
					"components": [
						{
							"internalType": "address",
							"name": "from",
							"type": "address"
						},
						{
							"internalType": "address",
							"name": "to",
							"type": "address"
						},
						{
							"internalType": "bytes",
							"name": "data",
							"type": "bytes"
						},
						{
							"internalType": "uint256",
							"name": "nonce",
							"type": "uint256"
						},
						{
							"internalType": "uint256",
							"name": "deadline",
							"type": "uint256"
						}
					],
					"internalType": "struct PadiProtocol.MetaTransaction",
					"name": "metaTx",
					"type": "tuple"
				},
				{
					"internalType": "bytes",
					"name": "signature",
					"type": "bytes"
				}
			],
			"name": "executeMetaTransaction",
			"outputs": [
				{
					"internalType": "bool",
					"name": "success",
					"type": "bool"
				},
				{
					"internalType": "bytes",
					"name": "returnData",
					"type": "bytes"
				}
			],
			"stateMutability": "nonpayable",
			"type": "function"
		},
		{
			"inputs": [
				{
					"internalType": "uint256",
					"name": "tokenId",
					"type": "uint256"
				}
			],
			"name": "getApproved",
			"outputs": [
				{
					"internalType": "address",
					"name": "",
					"type": "address"
				}
			],
			"stateMutability": "view",
			"type": "function"
		},
		{
			"inputs": [],
			"name": "getDomainSeparator",
			"outputs": [
				{
					"internalType": "bytes32",
					"name": "",
					"type": "bytes32"
				}
			],
			"stateMutability": "view",
			"type": "function"
		},
		{
			"inputs": [
				{
					"internalType": "address",
					"name": "user",
					"type": "address"
				}
			],
			"name": "getNonce",
			"outputs": [
				{
					"internalType": "uint256",
					"name": "",
					"type": "uint256"
				}
			],
			"stateMutability": "view",
			"type": "function"
		},
		{
			"inputs": [
				{
					"internalType": "address",
					"name": "lawyer",
					"type": "address"
				}
			],
			"name": "getOpenCases",
			"outputs": [
				{
					"internalType": "uint256[]",
					"name": "",
					"type": "uint256[]"
				}
			],
			"stateMutability": "view",
			"type": "function"
		},
		{
			"inputs": [
				{
					"internalType": "address",
					"name": "member",
					"type": "address"
				}
			],
			"name": "getRepresentative",
			"outputs": [
				{
					"internalType": "address",
					"name": "",
					"type": "address"
				}
			],
			"stateMutability": "view",
			"type": "function"
		},
		{
			"inputs": [],
			"name": "hotWallet",
			"outputs": [
				{
					"internalType": "address",
					"name": "",
					"type": "address"
				}
			],
			"stateMutability": "view",
			"type": "function"
		},
		{
			"inputs": [
				{
					"internalType": "address",
					"name": "owner",
					"type": "address"
				},
				{
					"internalType": "address",
					"name": "operator",
					"type": "address"
				}
			],
			"name": "isApprovedForAll",
			"outputs": [
				{
					"internalType": "bool",
					"name": "",
					"type": "bool"
				}
			],
			"stateMutability": "view",
			"type": "function"
		},
		{
			"inputs": [
				{
					"internalType": "address",
					"name": "lawyerAddress",
					"type": "address"
				}
			],
			"name": "isLawyer",
			"outputs": [
				{
					"internalType": "bool",
					"name": "",
					"type": "bool"
				}
			],
			"stateMutability": "view",
			"type": "function"
		},
		{
			"inputs": [
				{
					"internalType": "address",
					"name": "memberAddress",
					"type": "address"
				}
			],
			"name": "isMember",
			"outputs": [
				{
					"internalType": "bool",
					"name": "",
					"type": "bool"
				}
			],
			"stateMutability": "view",
			"type": "function"
		},
		{
			"inputs": [
				{
					"internalType": "address",
					"name": "oldContractAddress",
					"type": "address"
				}
			],
			"name": "migrateNftAndCaseTokens",
			"outputs": [],
			"stateMutability": "nonpayable",
			"type": "function"
		},
		{
			"inputs": [
				{
					"internalType": "address",
					"name": "oldContractAddress",
					"type": "address"
				}
			],
			"name": "migrateNftFromOldContract",
			"outputs": [],
			"stateMutability": "nonpayable",
			"type": "function"
		},
		{
			"inputs": [
				{
					"internalType": "address",
					"name": "member",
					"type": "address"
				},
				{
					"internalType": "string",
					"name": "metadataURI",
					"type": "string"
				},
				{
					"internalType": "uint256",
					"name": "paymentAmount",
					"type": "uint256"
				}
			],
			"name": "mintMembershipNFT",
			"outputs": [],
			"stateMutability": "nonpayable",
			"type": "function"
		},
		{
			"inputs": [],
			"name": "name",
			"outputs": [
				{
					"internalType": "string",
					"name": "",
					"type": "string"
				}
			],
			"stateMutability": "view",
			"type": "function"
		},
		{
			"inputs": [],
			"name": "nftPrice",
			"outputs": [
				{
					"internalType": "uint256",
					"name": "",
					"type": "uint256"
				}
			],
			"stateMutability": "view",
			"type": "function"
		},
		{
			"inputs": [
				{
					"internalType": "address",
					"name": "",
					"type": "address"
				}
			],
			"name": "nonces",
			"outputs": [
				{
					"internalType": "uint256",
					"name": "",
					"type": "uint256"
				}
			],
			"stateMutability": "view",
			"type": "function"
		},
		{
			"inputs": [],
			"name": "owner",
			"outputs": [
				{
					"internalType": "address",
					"name": "",
					"type": "address"
				}
			],
			"stateMutability": "view",
			"type": "function"
		},
		{
			"inputs": [
				{
					"internalType": "uint256",
					"name": "tokenId",
					"type": "uint256"
				}
			],
			"name": "ownerOf",
			"outputs": [
				{
					"internalType": "address",
					"name": "",
					"type": "address"
				}
			],
			"stateMutability": "view",
			"type": "function"
		},
		{
			"inputs": [],
			"name": "padiWallet",
			"outputs": [
				{
					"internalType": "address",
					"name": "",
					"type": "address"
				}
			],
			"stateMutability": "view",
			"type": "function"
		},
		{
			"inputs": [],
			"name": "paymentToken",
			"outputs": [
				{
					"internalType": "contract IERC20",
					"name": "",
					"type": "address"
				}
			],
			"stateMutability": "view",
			"type": "function"
		},
		{
			"inputs": [
				{
					"internalType": "address",
					"name": "lawyer",
					"type": "address"
				},
				{
					"internalType": "string",
					"name": "profileURI",
					"type": "string"
				}
			],
			"name": "registerLawyer",
			"outputs": [],
			"stateMutability": "nonpayable",
			"type": "function"
		},
		{
			"inputs": [],
			"name": "renounceOwnership",
			"outputs": [],
			"stateMutability": "nonpayable",
			"type": "function"
		},
		{
			"inputs": [
				{
					"internalType": "string",
					"name": "descriptionMetadata",
					"type": "string"
				},
				{
					"internalType": "string[]",
					"name": "mediaURIs",
					"type": "string[]"
				}
			],
			"name": "reportIncident",
			"outputs": [
				{
					"internalType": "uint256",
					"name": "incidentId",
					"type": "uint256"
				}
			],
			"stateMutability": "nonpayable",
			"type": "function"
		},
		{
			"inputs": [
				{
					"internalType": "address",
					"name": "lawyerAddress",
					"type": "address"
				},
				{
					"internalType": "uint256",
					"name": "caseId",
					"type": "uint256"
				}
			],
			"name": "resolveCase",
			"outputs": [],
			"stateMutability": "nonpayable",
			"type": "function"
		},
		{
			"inputs": [
				{
					"internalType": "address",
					"name": "lawyerAddress",
					"type": "address"
				},
				{
					"internalType": "uint256",
					"name": "caseId",
					"type": "uint256"
				},
				{
					"internalType": "uint256",
					"name": "rewardAmount",
					"type": "uint256"
				}
			],
			"name": "rewardLawyerForEmergency",
			"outputs": [],
			"stateMutability": "nonpayable",
			"type": "function"
		},
		{
			"inputs": [
				{
					"internalType": "address",
					"name": "from",
					"type": "address"
				},
				{
					"internalType": "address",
					"name": "to",
					"type": "address"
				},
				{
					"internalType": "uint256",
					"name": "tokenId",
					"type": "uint256"
				}
			],
			"name": "safeTransferFrom",
			"outputs": [],
			"stateMutability": "nonpayable",
			"type": "function"
		},
		{
			"inputs": [
				{
					"internalType": "address",
					"name": "from",
					"type": "address"
				},
				{
					"internalType": "address",
					"name": "to",
					"type": "address"
				},
				{
					"internalType": "uint256",
					"name": "tokenId",
					"type": "uint256"
				},
				{
					"internalType": "bytes",
					"name": "data",
					"type": "bytes"
				}
			],
			"name": "safeTransferFrom",
			"outputs": [],
			"stateMutability": "nonpayable",
			"type": "function"
		},
		{
			"inputs": [
				{
					"internalType": "address",
					"name": "operator",
					"type": "address"
				},
				{
					"internalType": "bool",
					"name": "approved",
					"type": "bool"
				}
			],
			"name": "setApprovalForAll",
			"outputs": [],
			"stateMutability": "nonpayable",
			"type": "function"
		},
		{
			"inputs": [
				{
					"internalType": "address",
					"name": "newHotWallet",
					"type": "address"
				}
			],
			"name": "setHotWallet",
			"outputs": [],
			"stateMutability": "nonpayable",
			"type": "function"
		},
		{
			"inputs": [
				{
					"internalType": "address",
					"name": "token",
					"type": "address"
				}
			],
			"name": "setPaymentToken",
			"outputs": [],
			"stateMutability": "nonpayable",
			"type": "function"
		},
		{
			"inputs": [
				{
					"internalType": "address",
					"name": "lawyer",
					"type": "address"
				},
				{
					"internalType": "string",
					"name": "profileURI",
					"type": "string"
				}
			],
			"name": "signUpLawyer",
			"outputs": [],
			"stateMutability": "nonpayable",
			"type": "function"
		},
		{
			"inputs": [],
			"name": "storageContract",
			"outputs": [
				{
					"internalType": "contract IPadiStorage",
					"name": "",
					"type": "address"
				}
			],
			"stateMutability": "view",
			"type": "function"
		},
		{
			"inputs": [
				{
					"internalType": "bytes4",
					"name": "interfaceId",
					"type": "bytes4"
				}
			],
			"name": "supportsInterface",
			"outputs": [
				{
					"internalType": "bool",
					"name": "",
					"type": "bool"
				}
			],
			"stateMutability": "view",
			"type": "function"
		},
		{
			"inputs": [],
			"name": "symbol",
			"outputs": [
				{
					"internalType": "string",
					"name": "",
					"type": "string"
				}
			],
			"stateMutability": "view",
			"type": "function"
		},
		{
			"inputs": [
				{
					"internalType": "uint256",
					"name": "index",
					"type": "uint256"
				}
			],
			"name": "tokenByIndex",
			"outputs": [
				{
					"internalType": "uint256",
					"name": "",
					"type": "uint256"
				}
			],
			"stateMutability": "view",
			"type": "function"
		},
		{
			"inputs": [
				{
					"internalType": "address",
					"name": "owner",
					"type": "address"
				},
				{
					"internalType": "uint256",
					"name": "index",
					"type": "uint256"
				}
			],
			"name": "tokenOfOwnerByIndex",
			"outputs": [
				{
					"internalType": "uint256",
					"name": "",
					"type": "uint256"
				}
			],
			"stateMutability": "view",
			"type": "function"
		},
		{
			"inputs": [
				{
					"internalType": "uint256",
					"name": "tokenId",
					"type": "uint256"
				}
			],
			"name": "tokenURI",
			"outputs": [
				{
					"internalType": "string",
					"name": "",
					"type": "string"
				}
			],
			"stateMutability": "view",
			"type": "function"
		},
		{
			"inputs": [],
			"name": "totalSupply",
			"outputs": [
				{
					"internalType": "uint256",
					"name": "",
					"type": "uint256"
				}
			],
			"stateMutability": "view",
			"type": "function"
		},
		{
			"inputs": [
				{
					"internalType": "address",
					"name": "from",
					"type": "address"
				},
				{
					"internalType": "address",
					"name": "to",
					"type": "address"
				},
				{
					"internalType": "uint256",
					"name": "tokenId",
					"type": "uint256"
				}
			],
			"name": "transferFrom",
			"outputs": [],
			"stateMutability": "nonpayable",
			"type": "function"
		},
		{
			"inputs": [
				{
					"internalType": "address",
					"name": "newOwner",
					"type": "address"
				}
			],
			"name": "transferOwnership",
			"outputs": [],
			"stateMutability": "nonpayable",
			"type": "function"
		},
		{
			"inputs": [
				{
					"internalType": "address",
					"name": "newContract",
					"type": "address"
				}
			],
			"name": "transferTokenCaseBalance",
			"outputs": [],
			"stateMutability": "nonpayable",
			"type": "function"
		},
		{
			"inputs": [
				{
					"internalType": "uint256",
					"name": "incidentId",
					"type": "uint256"
				},
				{
					"internalType": "uint8",
					"name": "status",
					"type": "uint8"
				}
			],
			"name": "updateIncidentStatus",
			"outputs": [],
			"stateMutability": "nonpayable",
			"type": "function"
		}
	]
}