{
	"data": {
		"bytecode": {
			"linkReferences": {},
			"object": "60806040526001600f55348015610014575f80fd5b506040516147cc3803806147cc8339810160408190526100339161017f565b336040518060400160405280600f81526020016e050616469204d656d6265727368697608c1b815250604051806040016040528060048152602001635041444960e01b815250815f9081610087919061025f565b506001610094828261025f565b5050506001600160a01b0381166100c457604051631e4fbdf760e01b81525f600482015260240160405180910390fd5b6100cd81610113565b50600c80546001600160a01b03199081166001600160a01b0396871617909155600d8054821694861694909417909355600e805490931691909316179055601055610319565b600b80546001600160a01b038381166001600160a01b0319831681179093556040519116919082907f8be0079c531659141344cd1fd0a4f28419497f9722a3daafe3b4186f6b6457e0905f90a35050565b80516001600160a01b038116811461017a575f80fd5b919050565b5f805f8060808587031215610192575f80fd5b61019b85610164565b93506101a960208601610164565b92506101b760408601610164565b6060959095015193969295505050565b634e487b7160e01b5f52604160045260245ffd5b600181811c908216806101ef57607f821691505b60208210810361020d57634e487b7160e01b5f52602260045260245ffd5b50919050565b601f82111561025a57805f5260205f20601f840160051c810160208510156102385750805b601f840160051c820191505b81811015610257575f8155600101610244565b50505b505050565b81516001600160401b03811115610278576102786101c7565b61028c8161028684546101db565b84610213565b6020601f8211600181146102be575f83156102a75750848201515b5f19600385901b1c1916600184901b178455610257565b5f84815260208120601f198516915b828110156102ed57878501518255602094850194600190920191016102cd565b508482101561030a57868401515f19600387901b60f8161c191681555b50505050600190811b01905550565b6144a6806103265f395ff3fe608060405234801561000f575f80fd5b5060043610610260575f3560e01c80636eb60a801161014b578063a3f8d8ed116100bf578063e1a9abf111610084578063e1a9abf114610535578063e42dde2e14610555578063e985e9c514610568578063edd501fa1461057b578063f08aa69f1461058e578063f2fde38b146105a1575f80fd5b8063a3f8d8ed146104d6578063aa9aa17a146104e9578063b88d4fde146104fc578063c87b56dd1461050f578063ca259ed214610522575f80fd5b80638da5cb5b116101105780638da5cb5b1461047157806395d89b411461048257806399bb93501461048a5780639bb0f7591461049d578063a22cb465146104b0578063a230c524146104c3575f80fd5b80636eb60a801461041d57806370a0823114610430578063715018a6146104435780638502f1c21461044b5780638baa5d8b1461045e575f80fd5b80633013ce29116101e257806349678605116101a757806349678605146103ab5780634b870a83146103be5780634f6ccce7146103d15780635939a84e146103e45780636352211e146103f75780636a326ab11461040a575f80fd5b80633013ce291461034c5780634158c1b51461035f57806342842e0e1461037257806342966c681461038557806345db283d14610398575f80fd5b806311ce02671161022857806311ce0267146102f857806318160ddd1461030b57806323b872dd14610313578063241f8715146103265780632f745c5914610339575f80fd5b806301ffc9a71461026457806306fdde031461028c578063081812fc146102a1578063095ea7b3146102cc5780630d39fc81146102e1575b5f80fd5b6102776102723660046130f3565b6105b4565b60405190151581526020015b60405180910390f35b6102946105c4565b604051610283919061313c565b6102b46102af36600461314e565b610653565b6040516001600160a01b039091168152602001610283565b6102df6102da366004613179565b61067a565b005b6102ea60105481565b604051908152602001610283565b600c546102b4906001600160a01b031681565b6008546102ea565b6102df6103213660046131a3565b610689565b6102df6103343660046131e1565b610717565b6102ea610347366004613179565b61076a565b600d546102b4906001600160a01b031681565b6102df61036d366004613220565b6107cd565b6102df6103803660046131a3565b61096e565b6102df61039336600461314e565b61098d565b6102df6103a63660046132db565b6109a1565b6102df6103b9366004613179565b610aa8565b6102df6103cc366004613352565b61103f565b6102ea6103df36600461314e565b6111a3565b6102776103f23660046133a2565b6111f8565b6102b461040536600461314e565b611265565b6102df6104183660046133a2565b61126f565b6102df61042b3660046133ca565b6112c0565b6102ea61043e3660046133a2565b611533565b6102df611578565b6102df6104593660046133a2565b61158b565b6102df61046c366004613449565b6118e6565b600b546001600160a01b03166102b4565b610294611b31565b600e546102b4906001600160a01b031681565b6102df6104ab3660046133a2565b611b40565b6102df6104be3660046134a0565b611bf3565b6102776104d13660046133a2565b611bfe565b6102df6104e43660046134cc565b611c30565b6102df6104f73660046134f4565b611e41565b6102df61050a36600461365a565b611f07565b61029461051d36600461314e565b611f1f565b6102df610530366004613352565b611f2a565b6105486105433660046133a2565b611f32565b60405161028391906136d4565b6102df6105633660046133a2565b611fac565b610277610576366004613220565b61212a565b6102b46105893660046133a2565b612157565b6102ea61059c366004613716565b6121cf565b6102df6105af3660046133a2565b6123bb565b5f6105be826123f5565b92915050565b60605f80546105d290613780565b80601f01602080910402602001604051908101604052809291908181526020018280546105fe90613780565b80156106495780601f1061062057610100808354040283529160200191610649565b820191905f5260205f20905b81548152906001019060200180831161062c57829003601f168201915b5050505050905090565b5f61065d82612419565b505f828152600460205260409020546001600160a01b03166105be565b610685828233612451565b5050565b6001600160a01b0382166106b757604051633250574960e11b81525f60048201526024015b60405180910390fd5b5f6106c383833361245e565b9050836001600160a01b0316816001600160a01b031614610711576040516364283d7b60e01b81526001600160a01b03808616600483015260248201849052821660448201526064016106ae565b50505050565b826001600160a01b031682826001600160a01b03167f41195084f354bc7da593812f4b0e44aec4e701ef0e7f6e15a5a574c33503437d4260405161075d91815260200190565b60405180910390a4505050565b5f61077483611533565b82106107a55760405163295f44f760e21b81526001600160a01b0384166004820152602481018390526044016106ae565b506001600160a01b03919091165f908152600660209081526040808320938352929052205490565b81336001600160a01b03821614806107fe57506107e981612157565b6001600160a01b0316336001600160a01b0316145b61085d5760405162461bcd60e51b815260206004820152602a60248201527f556e617574686f72697a65643a204e6f74206d656d626572206f7220726570726044820152696573656e74617469766560b01b60648201526084016106ae565b600c5460405163022b92c360e21b81526001600160a01b0385811660048301525f9216906308ae4b0c906024015f60405180830381865afa1580156108a4573d5f803e3d5ffd5b505050506040513d5f823e601f3d908101601f191682016040526108cb9190810190613820565b6001600160a01b038085166020830152600c5460405163af947d0560e01b8152929350169063af947d05906109049084906004016138db565b5f604051808303815f87803b15801561091b575f80fd5b505af115801561092d573d5f803e3d5ffd5b50506040516001600160a01b038087169350871691507ff53ec35310a21208780fc7b462ee5d0a47d8ae1c3aa5e0ecdab144ff78dea3a8905f90a350505050565b61098883838360405180602001604052805f815250611f07565b505050565b610995612472565b61099e8161249f565b50565b5f6040518060800160405280336001600160a01b0316815260200142815260200186868080601f0160208091040260200160405190810160405280939291908181526020018383808284375f92019190915250505090825250602001610a078486613973565b9052600c54604051630109db1b60e51b81529192506001600160a01b03169063213b636090610a3c9089908590600401613a94565b5f604051808303815f87803b158015610a53575f80fd5b505af1158015610a65573d5f803e3d5ffd5b50506040514281523392508891507f37b3e104208f85d1df430bbefbe3fee48f2b666f587576036f4d60ef673af50c9060200160405180910390a3505050505050565b600c54604051632c9cd42760e11b81526001600160a01b03808516600483015284921690635939a84e90602401602060405180830381865afa158015610af0573d5f803e3d5ffd5b505050506040513d601f19601f82011682018060405250810190610b149190613aac565b610b585760405162461bcd60e51b81526020600482015260156024820152742737ba103932b3b4b9ba32b932b2103630bbbcb2b960591b60448201526064016106ae565b600c5460405163554ae56760e01b81526001600160a01b0383811660048301525f92169063554ae567906024015f60405180830381865afa158015610b9f573d5f803e3d5ffd5b505050506040513d5f823e601f3d908101601f19168201604052610bc69190810190613b2c565b90508060a00151610c0b5760405162461bcd60e51b815260206004820152600f60248201526e4c617779657220696e61637469766560881b60448201526064016106ae565b6001600160a01b0384163314610c7a5760405162461bcd60e51b815260206004820152602e60248201527f556e617574686f72697a65643a204f6e6c792061737369676e6564206c61777960448201526d65722063616e207265736f6c766560901b60648201526084016106ae565b600c5460405163f09790dd60e01b8152600481018590525f916001600160a01b03169063f09790dd906024015f60405180830381865afa158015610cc0573d5f803e3d5ffd5b505050506040513d5f823e601f3d908101601f19168201604052610ce79190810190613bf6565b9050846001600160a01b031681604001516001600160a01b031614610d4e5760405162461bcd60e51b815260206004820152601b60248201527f43617365206e6f742061737369676e656420746f206c6177796572000000000060448201526064016106ae565b8060c0015115610d985760405162461bcd60e51b815260206004820152601560248201527410d85cd948185b1c9958591e481c995cdbdb1d9959605a1b60448201526064016106ae565b600160c08201524260a0820152600c5460405163f47be47760e01b81526001600160a01b039091169063f47be47790610dd5908490600401613cbe565b5f604051808303815f87803b158015610dec575f80fd5b505af1158015610dfe573d5f803e3d5ffd5b5050600c5460405163554ae56760e01b81526001600160a01b0389811660048301525f9450909116915063554ae567906024015f60405180830381865afa158015610e4b573d5f803e3d5ffd5b505050506040513d5f823e601f3d908101601f19168201604052610e729190810190613b2c565b60208101518051919250905f90610e8a906001613d5c565b6001600160401b03811115610ea157610ea1613526565b604051908082528060200260200182016040528015610eca578160200160208202803683370190505b5090505f805b8351811015610f3e57838181518110610eeb57610eeb613d6f565b6020026020010151838281518110610f0557610f05613d6f565b60200260200101818152505088848281518110610f2457610f24613d6f565b602002602001015103610f3657600191505b600101610ed0565b5080610f65578782845181518110610f5857610f58613d6f565b6020026020010181815250505b6020840182905260e0850151608085018051610f82908390613d5c565b905250600c54604051638450000160e01b81526001600160a01b0390911690638450000190610fb5908790600401613d83565b5f604051808303815f87803b158015610fcc575f80fd5b505af1158015610fde573d5f803e3d5ffd5b50505060e0860151600d54610fff92506001600160a01b03169033906124d7565b60405188906001600160a01b038b16907f8c367c1c13bf9b767a56a0b09a4a9372dd331ad43693c05b58e5f25f123340df905f90a3505050505050505050565b336001600160a01b0384161461108f5760405162461bcd60e51b815260206004820152601560248201527421b0b71037b7363c9039b4b3b7103ab81039b2b63360591b60448201526064016106ae565b6040805160c0810182526001600160a01b038516815281515f808252602082810190945292820190815260200184848080601f0160208091040260200160405190810160405280939291908181526020018383808284375f9201829052509385525050426020840152506040808301919091526001606090920191909152600c549051638450000160e01b81529192506001600160a01b03169063845000019061113d908490600401613d83565b5f604051808303815f87803b158015611154575f80fd5b505af1158015611166573d5f803e3d5ffd5b50506040516001600160a01b03871692507f477258c324e1dc966c3e151d300b92686593e768b5c01e809c2c820eee02cffc91505f90a250505050565b5f6111ad60085490565b82106111d55760405163295f44f760e21b81525f6004820152602481018390526044016106ae565b600882815481106111e8576111e8613d6f565b905f5260205f2001549050919050565b600c54604051632c9cd42760e11b81526001600160a01b0383811660048301525f921690635939a84e906024015b602060405180830381865afa158015611241573d5f803e3d5ffd5b505050506040513d601f19601f820116820180604052508101906105be9190613aac565b5f6105be82612419565b611277612472565b600d80546001600160a01b0319166001600160a01b0383169081179091556040517fbd4032c1c91da2791730ea1bbc82c6b6f857da7c0a8318143d19ef74e62cd913905f90a250565b336001600160a01b038616146113185760405162461bcd60e51b815260206004820152601b60248201527f4f6e6c79206d656d6265722063616e206372656174652063617365000000000060448201526064016106ae565b5f61132286611533565b1161136f5760405162461bcd60e51b815260206004820152601760248201527f4d656d62657273686970204e465420726571756972656400000000000000000060448201526064016106ae565b600c546040805163426e040360e11b815290515f926001600160a01b0316916384dc0806916004808301926020929190829003018187875af11580156113b7573d5f803e3d5ffd5b505050506040513d601f19601f820116820180604052508101906113db9190613e27565b90505f604051806101000160405280838152602001886001600160a01b03168152602001896001600160a01b0316815260200187878080601f0160208091040260200160405190810160405280939291908181526020018383808284375f920182905250938552505042602084015250604080830182905260608301919091526080909101869052600c54905163f47be47760e01b81529192506001600160a01b03169063f47be47790611493908490600401613cbe565b5f604051808303815f87803b1580156114aa575f80fd5b505af11580156114bc573d5f803e3d5ffd5b5050600d546114d992506001600160a01b03169050883087612536565b866001600160a01b031682896001600160a01b03167fc18563ff27245b6f08b02acadbabd8d64917c95f956596f4a216768f8a91baa186604051611521911515815260200190565b60405180910390a45050505050505050565b5f6001600160a01b03821661155d576040516322718ad960e21b81525f60048201526024016106ae565b506001600160a01b03165f9081526003602052604090205490565b611580612472565b6115895f61256f565b565b611593612472565b5f8190505f816001600160a01b03166318160ddd6040518163ffffffff1660e01b8152600401602060405180830381865afa1580156115d4573d5f803e3d5ffd5b505050506040513d601f19601f820116820180604052508101906115f89190613e27565b90505f826001600160a01b0316638da5cb5b6040518163ffffffff1660e01b81526004016020604051808303815f875af1158015611638573d5f803e3d5ffd5b505050506040513d601f19601f8201168201806040525081019061165c9190613e3e565b60405163f2fde38b60e01b81523060048201529091506001600160a01b0384169063f2fde38b906024015f604051808303815f87803b15801561169d575f80fd5b505af11580156116af573d5f803e3d5ffd5b505050505f5b8281101561188b57604051634f6ccce760e01b8152600481018290525f906001600160a01b03861690634f6ccce790602401602060405180830381865afa158015611702573d5f803e3d5ffd5b505050506040513d601f19601f820116820180604052508101906117269190613e27565b6040516331a9108f60e11b8152600481018290529091505f906001600160a01b03871690636352211e90602401602060405180830381865afa15801561176e573d5f803e3d5ffd5b505050506040513d601f19601f820116820180604052508101906117929190613e3e565b90506001600160a01b0381166117a9575050611883565b60405163c87b56dd60e01b8152600481018390525f906001600160a01b0388169063c87b56dd906024015f60405180830381865afa1580156117ed573d5f803e3d5ffd5b505050506040513d5f823e601f3d908101601f191682016040526118149190810190613e59565b905061182082846125c0565b61182a8382612621565b604051630852cd8d60e31b8152600481018490526001600160a01b038816906342966c68906024015f604051808303815f87803b158015611869575f80fd5b505af115801561187b573d5f803e3d5ffd5b505050505050505b6001016116b5565b5060405163f2fde38b60e01b81523360048201526001600160a01b0384169063f2fde38b906024015f604051808303815f87803b1580156118ca575f80fd5b505af11580156118dc573d5f803e3d5ffd5b5050505050505050565b6118ef84611533565b1561193c5760405162461bcd60e51b815260206004820152601a60248201527f416c726561647920686173206d656d62657273686970204e465400000000000060448201526064016106ae565b601054811461198d5760405162461bcd60e51b815260206004820152601860248201527f7061792074686520657861637420616d6f756e7420212121000000000000000060448201526064016106ae565b600e54600d546119ac916001600160a01b039182169133911684612536565b600f80545f91826119bc83613e8a565b9190505590506119cc85826125c0565b611a0b8185858080601f0160208091040260200160405190810160405280939291908181526020018383808284375f9201919091525061262192505050565b611a16308287612451565b5f6040518060e00160405280876001600160a01b031681526020015f6001600160a01b0316815260200183815260200186868080601f0160208091040260200160405190810160405280939291908181526020018383808284375f9201829052509385525050426020840152506040808301919091526001606090920191909152600c54905163af947d0560e01b81529192506001600160a01b03169063af947d0590611ac79084906004016138db565b5f604051808303815f87803b158015611ade575f80fd5b505af1158015611af0573d5f803e3d5ffd5b50506040518492506001600160a01b03891691507f0ff8d95af74a8c072247e3c2b5e73ab929e2eb87e62682f83f5707bc5bc4a759905f90a3505050505050565b6060600180546105d290613780565b611b48612472565b60405163428178e160e11b81526001600160a01b03821660048201523090638502f1c2906024015f604051808303815f87803b158015611b86575f80fd5b505af1158015611b98573d5f803e3d5ffd5b5050604051637216ef1760e11b81526001600160a01b038416600482015230925063e42dde2e91506024015f604051808303815f87803b158015611bda575f80fd5b505af1158015611bec573d5f803e3d5ffd5b5050505050565b610685338383612670565b600c5460405163288c314960e21b81526001600160a01b0383811660048301525f92169063a230c52490602401611226565b600b546001600160a01b03163314611c9d5760405162461bcd60e51b815260206004820152602a60248201527f556e617574686f72697a65643a204f6e6c79206f776e65722063616e207570646044820152696174652073746174757360b01b60648201526084016106ae565b600c5460405163a6c6a8f360e01b8152600481018490525f916001600160a01b03169063a6c6a8f3906024015f60405180830381865afa158015611ce3573d5f803e3d5ffd5b505050506040513d5f823e601f3d908101601f19168201604052611d0a919081019061402e565b80519091505f03611d5d5760405162461bcd60e51b815260206004820152601760248201527f496e636964656e7420646f6573206e6f7420657869737400000000000000000060448201526064016106ae565b8160ff166002811115611d7257611d72614134565b81608001906002811115611d8857611d88614134565b90816002811115611d9b57611d9b614134565b9052503360a0820152600c5460405163a599681f60e01b81526001600160a01b039091169063a599681f90611dd49084906004016141b6565b5f604051808303815f87803b158015611deb575f80fd5b505af1158015611dfd573d5f803e3d5ffd5b505060405160ff851681523392508591507f1203445afe71a7457fedfe3ed5f7dfbcefac21aeacee1baf8af2b4639fbfdbeb906020015b60405180910390a3505050565b600b546001600160a01b03163314611ea75760405162461bcd60e51b815260206004820152602360248201527f556e617574686f72697a65643a204f6e6c79206f776e65722063616e20726577604482015262185c9960ea1b60648201526084016106ae565b600d54611ebe906001600160a01b031684836124d7565b60408051828152602081018490526001600160a01b038516917f09bc545157f97ca1d7d6020a624c818e914739c4a4f4203f263439ed019ac270910160405180910390a2505050565b611f12848484610689565b6107113385858585612706565b60606105be8261282d565b61108f612472565b600c54604051638bfeffe560e01b81526001600160a01b0383811660048301526060925f92911690638bfeffe5906024015f60405180830381865afa158015611f7d573d5f803e3d5ffd5b505050506040513d5f823e601f3d908101601f19168201604052611fa49190810190614266565b509392505050565b611fb4612472565b600d546040516370a0823160e01b81523060048201525f916001600160a01b0316906370a0823190602401602060405180830381865afa158015611ffa573d5f803e3d5ffd5b505050506040513d601f19601f8201168201806040525081019061201e9190613e27565b90505f811161206f5760405162461bcd60e51b815260206004820152601c60248201527f4e6f20746f6b656e2062616c616e636520746f207472616e736665720000000060448201526064016106ae565b600d5460405163a9059cbb60e01b81526001600160a01b038481166004830152602482018490525f92169063a9059cbb906044016020604051808303815f875af11580156120bf573d5f803e3d5ffd5b505050506040513d601f19601f820116820180604052508101906120e39190613aac565b9050806109885760405162461bcd60e51b8152602060048201526015602482015274151bdad95b881d1c985b9cd9995c8819985a5b1959605a1b60448201526064016106ae565b6001600160a01b039182165f90815260056020908152604080832093909416825291909152205460ff1690565b600c5460405163022b92c360e21b81526001600160a01b0383811660048301525f9216906308ae4b0c906024015f60405180830381865afa15801561219e573d5f803e3d5ffd5b505050506040513d5f823e601f3d908101601f191682016040526121c59190810190613820565b6020015192915050565b600c54604080516305cc6a2d60e11b815290515f926001600160a01b031691630b98d45a916004808301926020929190829003018187875af1158015612217573d5f803e3d5ffd5b505050506040513d601f19601f8201168201806040525081019061223b9190613e27565b90505f604051806101000160405280838152602001336001600160a01b0316815260200187878080601f0160208091040260200160405190810160405280939291908181526020018383808284375f9201829052509385525050426020808501919091526040808501849052606085018490528051848152918201905260809093019291905061230b565b6122f860405180608001604052805f6001600160a01b031681526020015f815260200160608152602001606081525090565b8152602001906001900390816122c65790505b50815260200161231b8587613973565b9052600c5460405163a599681f60e01b81529192506001600160a01b03169063a599681f9061234e9084906004016141b6565b5f604051808303815f87803b158015612365575f80fd5b505af1158015612377573d5f803e3d5ffd5b50506040514281523392508491507f159eae2587974b857c8b28d8d49d8cca50cc87fc9b0bd9bd76467f77aaf5c8b69060200160405180910390a350949350505050565b6123c3612472565b6001600160a01b0381166123ec57604051631e4fbdf760e01b81525f60048201526024016106ae565b61099e8161256f565b5f6001600160e01b03198216632483248360e11b14806105be57506105be82612930565b5f818152600260205260408120546001600160a01b0316806105be57604051637e27328960e01b8152600481018490526024016106ae565b6109888383836001612954565b5f61246a848484612a58565b949350505050565b600b546001600160a01b031633146115895760405163118cdaa760e01b81523360048201526024016106ae565b5f6124ab5f835f61245e565b90506001600160a01b03811661068557604051637e27328960e01b8152600481018390526024016106ae565b6040516001600160a01b0383811660248301526044820183905261098891859182169063a9059cbb906064015b604051602081830303815290604052915060e01b6020820180516001600160e01b038381831617835250505050612b23565b6040516001600160a01b0384811660248301528381166044830152606482018390526107119186918216906323b872dd90608401612504565b600b80546001600160a01b038381166001600160a01b0319831681179093556040519116919082907f8be0079c531659141344cd1fd0a4f28419497f9722a3daafe3b4186f6b6457e0905f90a35050565b6001600160a01b0382166125e957604051633250574960e11b81525f60048201526024016106ae565b5f6125f583835f61245e565b90506001600160a01b03811615610988576040516339e3563760e11b81525f60048201526024016106ae565b5f828152600a60205260409020612638828261430d565b506040518281527ff8e1a15aba9398e019f0b49df1a4fde98ee17ae345cb5f6b5e2c27f5033e8ce79060200160405180910390a15050565b6001600160a01b0382166126a257604051630b61174360e31b81526001600160a01b03831660048201526024016106ae565b6001600160a01b038381165f81815260056020908152604080832094871680845294825291829020805460ff191686151590811790915591519182527f17307eab39ab6107e8899845ad3d59bd9653f200f220920489ca2b5937696c319101611e34565b6001600160a01b0383163b15611bec57604051630a85bd0160e11b81526001600160a01b0384169063150b7a02906127489088908890879087906004016143c7565b6020604051808303815f875af1925050508015612782575060408051601f3d908101601f1916820190925261277f91810190614403565b60015b6127e9573d8080156127af576040519150601f19603f3d011682016040523d82523d5f602084013e6127b4565b606091505b5080515f036127e157604051633250574960e11b81526001600160a01b03851660048201526024016106ae565b805181602001fd5b6001600160e01b03198116630a85bd0160e11b1461282557604051633250574960e11b81526001600160a01b03851660048201526024016106ae565b505050505050565b606061283882612419565b505f828152600a60205260408120805461285190613780565b80601f016020809104026020016040519081016040528092919081815260200182805461287d90613780565b80156128c85780601f1061289f576101008083540402835291602001916128c8565b820191905f5260205f20905b8154815290600101906020018083116128ab57829003601f168201915b505050505090505f6128e460408051602081019091525f815290565b905080515f036128f5575092915050565b81511561292757808260405160200161290f929190614435565b60405160208183030381529060405292505050919050565b61246a84612b8f565b5f6001600160e01b0319821663780e9d6360e01b14806105be57506105be82612c00565b808061296857506001600160a01b03821615155b15612a29575f61297784612419565b90506001600160a01b038316158015906129a35750826001600160a01b0316816001600160a01b031614155b80156129b657506129b4818461212a565b155b156129df5760405163a9fbf51f60e01b81526001600160a01b03841660048201526024016106ae565b8115612a275783856001600160a01b0316826001600160a01b03167f8c5be1e5ebec7d5bd14f71427d1e84f3dd0314c0f7b2291e5b200ac8c7c3b92560405160405180910390a45b505b50505f90815260046020526040902080546001600160a01b0319166001600160a01b0392909216919091179055565b5f80612a65858585612c4f565b90506001600160a01b038116612ac157612abc84600880545f838152600960205260408120829055600182018355919091527ff3f7a9fe364faab93b216da50a3214154f22a0a2b415b23a84c8169e8b636ee30155565b612ae4565b846001600160a01b0316816001600160a01b031614612ae457612ae48185612d41565b6001600160a01b038516612b0057612afb84612dbe565b61246a565b846001600160a01b0316816001600160a01b03161461246a5761246a8585612e65565b5f8060205f8451602086015f885af180612b42576040513d5f823e3d81fd5b50505f513d91508115612b59578060011415612b66565b6001600160a01b0384163b155b1561071157604051635274afe760e01b81526001600160a01b03851660048201526024016106ae565b6060612b9a82612419565b505f612bb060408051602081019091525f815290565b90505f815111612bce5760405180602001604052805f815250612bf9565b80612bd884612eb3565b604051602001612be9929190614435565b6040516020818303038152906040525b9392505050565b5f6001600160e01b031982166380ac58cd60e01b1480612c3057506001600160e01b03198216635b5e139f60e01b145b806105be57506301ffc9a760e01b6001600160e01b03198316146105be565b5f828152600260205260408120546001600160a01b0390811690831615612c7b57612c7b818486612f42565b6001600160a01b03811615612cb557612c965f855f80612954565b6001600160a01b0381165f90815260036020526040902080545f190190555b6001600160a01b03851615612ce3576001600160a01b0385165f908152600360205260409020805460010190555b5f8481526002602052604080822080546001600160a01b0319166001600160a01b0389811691821790925591518793918516917fddf252ad1be2c89b69c2b068fc378daa952ba7f163c4a11628f55a4df523b3ef91a4949350505050565b5f612d4b83611533565b5f838152600760209081526040808320546001600160a01b0388168452600690925290912091925090818314612da0575f83815260208281526040808320548584528184208190558352600790915290208290555b5f938452600760209081526040808620869055938552525081205550565b6008545f90612dcf90600190614449565b5f8381526009602052604081205460088054939450909284908110612df657612df6613d6f565b905f5260205f20015490508060088381548110612e1557612e15613d6f565b5f918252602080832090910192909255828152600990915260408082208490558582528120556008805480612e4c57612e4c61445c565b600190038181905f5260205f20015f9055905550505050565b5f6001612e7184611533565b612e7b9190614449565b6001600160a01b039093165f908152600660209081526040808320868452825280832085905593825260079052919091209190915550565b60605f612ebf83612fa6565b60010190505f816001600160401b03811115612edd57612edd613526565b6040519080825280601f01601f191660200182016040528015612f07576020820181803683370190505b5090508181016020015b5f19016f181899199a1a9b1b9c1cb0b131b232b360811b600a86061a8153600a8504945084612f1157509392505050565b612f4d83838361307d565b610988576001600160a01b038316612f7b57604051637e27328960e01b8152600481018290526024016106ae565b60405163177e802f60e01b81526001600160a01b0383166004820152602481018290526044016106ae565b5f8072184f03e93ff9f4daa797ed6e38ed64bf6a1f0160401b8310612fe45772184f03e93ff9f4daa797ed6e38ed64bf6a1f0160401b830492506040015b6d04ee2d6d415b85acef81000000008310613010576d04ee2d6d415b85acef8100000000830492506020015b662386f26fc10000831061302e57662386f26fc10000830492506010015b6305f5e1008310613046576305f5e100830492506008015b612710831061305a57612710830492506004015b6064831061306c576064830492506002015b600a83106105be5760010192915050565b5f6001600160a01b0383161580159061246a5750826001600160a01b0316846001600160a01b031614806130b657506130b6848461212a565b8061246a5750505f908152600460205260409020546001600160a01b03908116911614919050565b6001600160e01b03198116811461099e575f80fd5b5f60208284031215613103575f80fd5b8135612bf9816130de565b5f81518084528060208401602086015e5f602082860101526020601f19601f83011685010191505092915050565b602081525f612bf9602083018461310e565b5f6020828403121561315e575f80fd5b5035919050565b6001600160a01b038116811461099e575f80fd5b5f806040838503121561318a575f80fd5b823561319581613165565b946020939093013593505050565b5f805f606084860312156131b5575f80fd5b83356131c081613165565b925060208401356131d081613165565b929592945050506040919091013590565b5f805f606084860312156131f3575f80fd5b83356131fe81613165565b925060208401359150604084013561321581613165565b809150509250925092565b5f8060408385031215613231575f80fd5b823561323c81613165565b9150602083013561324c81613165565b809150509250929050565b5f8083601f840112613267575f80fd5b5081356001600160401b0381111561327d575f80fd5b602083019150836020828501011115613294575f80fd5b9250929050565b5f8083601f8401126132ab575f80fd5b5081356001600160401b038111156132c1575f80fd5b6020830191508360208260051b8501011115613294575f80fd5b5f805f805f606086880312156132ef575f80fd5b8535945060208601356001600160401b0381111561330b575f80fd5b61331788828901613257565b90955093505060408601356001600160401b03811115613335575f80fd5b6133418882890161329b565b969995985093965092949392505050565b5f805f60408486031215613364575f80fd5b833561336f81613165565b925060208401356001600160401b03811115613389575f80fd5b61339586828701613257565b9497909650939450505050565b5f602082840312156133b2575f80fd5b8135612bf981613165565b801515811461099e575f80fd5b5f805f805f8060a087890312156133df575f80fd5b86356133ea81613165565b955060208701356133fa81613165565b945060408701356001600160401b03811115613414575f80fd5b61342089828a01613257565b90955093505060608701359150608087013561343b816133bd565b809150509295509295509295565b5f805f806060858703121561345c575f80fd5b843561346781613165565b935060208501356001600160401b03811115613481575f80fd5b61348d87828801613257565b9598909750949560400135949350505050565b5f80604083850312156134b1575f80fd5b82356134bc81613165565b9150602083013561324c816133bd565b5f80604083850312156134dd575f80fd5b82359150602083013560ff8116811461324c575f80fd5b5f805f60608486031215613506575f80fd5b833561351181613165565b95602085013595506040909401359392505050565b634e487b7160e01b5f52604160045260245ffd5b60405160e081016001600160401b038111828210171561355c5761355c613526565b60405290565b60405160c081016001600160401b038111828210171561355c5761355c613526565b60405161010081016001600160401b038111828210171561355c5761355c613526565b604051608081016001600160401b038111828210171561355c5761355c613526565b604051601f8201601f191681016001600160401b03811182821017156135f1576135f1613526565b604052919050565b5f6001600160401b0382111561361157613611613526565b50601f01601f191660200190565b5f61363161362c846135f9565b6135c9565b9050828152838383011115613644575f80fd5b828260208301375f602084830101529392505050565b5f805f806080858703121561366d575f80fd5b843561367881613165565b9350602085013561368881613165565b92506040850135915060608501356001600160401b038111156136a9575f80fd5b8501601f810187136136b9575f80fd5b6136c88782356020840161361f565b91505092959194509250565b602080825282518282018190525f918401906040840190835b8181101561370b5783518352602093840193909201916001016136ed565b509095945050505050565b5f805f8060408587031215613729575f80fd5b84356001600160401b0381111561373e575f80fd5b61374a87828801613257565b90955093505060208501356001600160401b03811115613768575f80fd5b6137748782880161329b565b95989497509550505050565b600181811c9082168061379457607f821691505b6020821081036137b257634e487b7160e01b5f52602260045260245ffd5b50919050565b80516137c381613165565b919050565b5f82601f8301126137d7575f80fd5b81516137e561362c826135f9565b8181528460208386010111156137f9575f80fd5b8160208501602083015e5f918101602001919091529392505050565b80516137c3816133bd565b5f60208284031215613830575f80fd5b81516001600160401b03811115613845575f80fd5b820160e08185031215613856575f80fd5b61385e61353a565b613867826137b8565b8152613875602083016137b8565b60208201526040828101519082015260608201516001600160401b0381111561389c575f80fd5b6138a8868285016137c8565b6060830152506080828101519082015260a080830151908201526138ce60c08301613815565b60c0820152949350505050565b6020815260018060a01b03825116602082015260018060a01b036020830151166040820152604082015160608201525f606083015160e0608084015261392561010084018261310e565b9050608084015160a084015260a084015160c084015260c0840151151560e08401528091505092915050565b5f6001600160401b0382111561396957613969613526565b5060051b60200190565b5f61398061362c84613951565b8381526020810190600585901b84013681111561399b575f80fd5b845b8181101561370b5780356001600160401b038111156139ba575f80fd5b860136601f8201126139ca575f80fd5b6139d93682356020840161361f565b8552506020938401930161399d565b5f82825180855260208501945060208160051b830101602085015f5b83811015613a3657601f19858403018852613a2083835161310e565b6020988901989093509190910190600101613a04565b50909695505050505050565b60018060a01b038151168252602081015160208301525f604082015160806040850152613a72608085018261310e565b905060608301518482036060860152613a8b82826139e8565b95945050505050565b828152604060208201525f61246a6040830184613a42565b5f60208284031215613abc575f80fd5b8151612bf9816133bd565b5f82601f830112613ad6575f80fd5b8151613ae461362c82613951565b8082825260208201915060208360051b860101925085831115613b05575f80fd5b602085015b83811015613b22578051835260209283019201613b0a565b5095945050505050565b5f60208284031215613b3c575f80fd5b81516001600160401b03811115613b51575f80fd5b820160c08185031215613b62575f80fd5b613b6a613562565b613b73826137b8565b815260208201516001600160401b03811115613b8d575f80fd5b613b9986828501613ac7565b60208301525060408201516001600160401b03811115613bb7575f80fd5b613bc3868285016137c8565b6040830152506060828101519082015260808083015190820152613be960a08301613815565b60a0820152949350505050565b5f60208284031215613c06575f80fd5b81516001600160401b03811115613c1b575f80fd5b82016101008185031215613c2d575f80fd5b613c35613584565b81518152613c45602083016137b8565b6020820152613c56604083016137b8565b604082015260608201516001600160401b03811115613c73575f80fd5b613c7f868285016137c8565b6060830152506080828101519082015260a08083015190820152613ca560c08301613815565b60c082015260e091820151918101919091529392505050565b602081528151602082015260018060a01b03602083015116604082015260018060a01b0360408301511660608201525f60608301516101006080840152613d0961012084018261310e565b9050608084015160a084015260a084015160c084015260c0840151613d3260e085018215159052565b5060e08401516101008401528091505092915050565b634e487b7160e01b5f52601160045260245ffd5b808201808211156105be576105be613d48565b634e487b7160e01b5f52603260045260245ffd5b602080825282516001600160a01b0316828201528281015160c06040840152805160e084018190525f92919091019082906101008501905b80831015613dde5783518252602082019150602084019350600183019250613dbb565b506040860151858203601f190160608701529250613dfc818461310e565b9250505060608401516080840152608084015160a084015260a0840151611fa460c085018215159052565b5f60208284031215613e37575f80fd5b5051919050565b5f60208284031215613e4e575f80fd5b8151612bf981613165565b5f60208284031215613e69575f80fd5b81516001600160401b03811115613e7e575f80fd5b61246a848285016137c8565b5f60018201613e9b57613e9b613d48565b5060010190565b8051600381106137c3575f80fd5b5f82601f830112613ebf575f80fd5b8151613ecd61362c82613951565b8082825260208201915060208360051b860101925085831115613eee575f80fd5b602085015b83811015613b225780516001600160401b03811115613f10575f80fd5b613f1f886020838a01016137c8565b84525060209283019201613ef3565b5f82601f830112613f3d575f80fd5b8151613f4b61362c82613951565b8082825260208201915060208360051b860101925085831115613f6c575f80fd5b602085015b83811015613b225780516001600160401b03811115613f8e575f80fd5b86016080818903601f19011215613fa3575f80fd5b613fab6135a7565b6020820151613fb981613165565b81526040820151602082015260608201516001600160401b03811115613fdd575f80fd5b613fec8a6020838601016137c8565b60408301525060808201516001600160401b0381111561400a575f80fd5b6140198a602083860101613eb0565b60608301525084525060209283019201613f71565b5f6020828403121561403e575f80fd5b81516001600160401b03811115614053575f80fd5b82016101008185031215614065575f80fd5b61406d613584565b8151815261407d602083016137b8565b602082015260408201516001600160401b0381111561409a575f80fd5b6140a6868285016137c8565b604083015250606082810151908201526140c260808301613ea2565b60808201526140d360a083016137b8565b60a082015260c08201516001600160401b038111156140f0575f80fd5b6140fc86828501613f2e565b60c08301525060e08201516001600160401b0381111561411a575f80fd5b61412686828501613eb0565b60e083015250949350505050565b634e487b7160e01b5f52602160045260245ffd5b6003811061416457634e487b7160e01b5f52602160045260245ffd5b9052565b5f82825180855260208501945060208160051b830101602085015f5b83811015613a3657601f198584030188526141a0838351613a42565b6020988901989093509190910190600101614184565b60208152815160208201525f60208301516141dc60408401826001600160a01b03169052565b50604083015161010060608401526141f861012084018261310e565b905060608401516080840152608084015161421660a0850182614148565b5060a08401516001600160a01b03811660c08501525060c0840151838203601f190160e08501526142478282614168565b91505060e0840151601f1984830301610100850152613a8b82826139e8565b5f8060408385031215614277575f80fd5b82516001600160401b0381111561428c575f80fd5b61429885828601613ac7565b92505060208301516001600160401b038111156142b3575f80fd5b6142bf85828601613ac7565b9150509250929050565b601f82111561098857805f5260205f20601f840160051c810160208510156142ee5750805b601f840160051c820191505b81811015611bec575f81556001016142fa565b81516001600160401b0381111561432657614326613526565b61433a816143348454613780565b846142c9565b6020601f82116001811461436c575f83156143555750848201515b5f19600385901b1c1916600184901b178455611bec565b5f84815260208120601f198516915b8281101561439b578785015182556020948501946001909201910161437b565b50848210156143b857868401515f19600387901b60f8161c191681555b50505050600190811b01905550565b6001600160a01b03858116825284166020820152604081018390526080606082018190525f906143f99083018461310e565b9695505050505050565b5f60208284031215614413575f80fd5b8151612bf9816130de565b5f81518060208401855e5f93019283525090919050565b5f61246a614443838661441e565b8461441e565b818103818111156105be576105be613d48565b634e487b7160e01b5f52603160045260245ffdfea264697066735822122081904a9a094188e32bb0dd1a059f8051f16e62e6789d2ecf6b122d080b17ea1264736f6c634300081a0033",
			"opcodes": "PUSH1 0x80 PUSH1 0x40 MSTORE PUSH1 0x1 PUSH1 0xF SSTORE CALLVALUE DUP1 ISZERO PUSH2 0x14 JUMPI PUSH0 DUP1 REVERT JUMPDEST POP PUSH1 0x40 MLOAD PUSH2 0x47CC CODESIZE SUB DUP1 PUSH2 0x47CC DUP4 CODECOPY DUP2 ADD PUSH1 0x40 DUP2 SWAP1 MSTORE PUSH2 0x33 SWAP2 PUSH2 0x17F JUMP JUMPDEST CALLER PUSH1 0x40 MLOAD DUP1 PUSH1 0x40 ADD PUSH1 0x40 MSTORE DUP1 PUSH1 0xF DUP2 MSTORE PUSH1 0x20 ADD PUSH15 0x50616469204D656D6265727368697 PUSH1 0x8C SHL DUP2 MSTORE POP PUSH1 0x40 MLOAD DUP1 PUSH1 0x40 ADD PUSH1 0x40 MSTORE DUP1 PUSH1 0x4 DUP2 MSTORE PUSH1 0x20 ADD PUSH4 0x50414449 PUSH1 0xE0 SHL DUP2 MSTORE POP DUP2 PUSH0 SWAP1 DUP2 PUSH2 0x87 SWAP2 SWAP1 PUSH2 0x25F JUMP JUMPDEST POP PUSH1 0x1 PUSH2 0x94 DUP3 DUP3 PUSH2 0x25F JUMP JUMPDEST POP POP POP PUSH1 0x1 PUSH1 0x1 PUSH1 0xA0 SHL SUB DUP2 AND PUSH2 0xC4 JUMPI PUSH1 0x40 MLOAD PUSH4 0x1E4FBDF7 PUSH1 0xE0 SHL DUP2 MSTORE PUSH0 PUSH1 0x4 DUP3 ADD MSTORE PUSH1 0x24 ADD PUSH1 0x40 MLOAD DUP1 SWAP2 SUB SWAP1 REVERT JUMPDEST PUSH2 0xCD DUP2 PUSH2 0x113 JUMP JUMPDEST POP PUSH1 0xC DUP1 SLOAD PUSH1 0x1 PUSH1 0x1 PUSH1 0xA0 SHL SUB NOT SWAP1 DUP2 AND PUSH1 0x1 PUSH1 0x1 PUSH1 0xA0 SHL SUB SWAP7 DUP8 AND OR SWAP1 SWAP2 SSTORE PUSH1 0xD DUP1 SLOAD DUP3 AND SWAP5 DUP7 AND SWAP5 SWAP1 SWAP5 OR SWAP1 SWAP4 SSTORE PUSH1 0xE DUP1 SLOAD SWAP1 SWAP4 AND SWAP2 SWAP1 SWAP4 AND OR SWAP1 SSTORE PUSH1 0x10 SSTORE PUSH2 0x319 JUMP JUMPDEST PUSH1 0xB DUP1 SLOAD PUSH1 0x1 PUSH1 0x1 PUSH1 0xA0 SHL SUB DUP4 DUP2 AND PUSH1 0x1 PUSH1 0x1 PUSH1 0xA0 SHL SUB NOT DUP4 AND DUP2 OR SWAP1 SWAP4 SSTORE PUSH1 0x40 MLOAD SWAP2 AND SWAP2 SWAP1 DUP3 SWAP1 PUSH32 0x8BE0079C531659141344CD1FD0A4F28419497F9722A3DAAFE3B4186F6B6457E0 SWAP1 PUSH0 SWAP1 LOG3 POP POP JUMP JUMPDEST DUP1 MLOAD PUSH1 0x1 PUSH1 0x1 PUSH1 0xA0 SHL SUB DUP2 AND DUP2 EQ PUSH2 0x17A JUMPI PUSH0 DUP1 REVERT JUMPDEST SWAP2 SWAP1 POP JUMP JUMPDEST PUSH0 DUP1 PUSH0 DUP1 PUSH1 0x80 DUP6 DUP8 SUB SLT ISZERO PUSH2 0x192 JUMPI PUSH0 DUP1 REVERT JUMPDEST PUSH2 0x19B DUP6 PUSH2 0x164 JUMP JUMPDEST SWAP4 POP PUSH2 0x1A9 PUSH1 0x20 DUP7 ADD PUSH2 0x164 JUMP JUMPDEST SWAP3 POP PUSH2 0x1B7 PUSH1 0x40 DUP7 ADD PUSH2 0x164 JUMP JUMPDEST PUSH1 0x60 SWAP6 SWAP1 SWAP6 ADD MLOAD SWAP4 SWAP7 SWAP3 SWAP6 POP POP POP JUMP JUMPDEST PUSH4 0x4E487B71 PUSH1 0xE0 SHL PUSH0 MSTORE PUSH1 0x41 PUSH1 0x4 MSTORE PUSH1 0x24 PUSH0 REVERT JUMPDEST PUSH1 0x1 DUP2 DUP2 SHR SWAP1 DUP3 AND DUP1 PUSH2 0x1EF JUMPI PUSH1 0x7F DUP3 AND SWAP2 POP JUMPDEST PUSH1 0x20 DUP3 LT DUP2 SUB PUSH2 0x20D JUMPI PUSH4 0x4E487B71 PUSH1 0xE0 SHL PUSH0 MSTORE PUSH1 0x22 PUSH1 0x4 MSTORE PUSH1 0x24 PUSH0 REVERT JUMPDEST POP SWAP2 SWAP1 POP JUMP JUMPDEST PUSH1 0x1F DUP3 GT ISZERO PUSH2 0x25A JUMPI DUP1 PUSH0 MSTORE PUSH1 0x20 PUSH0 KECCAK256 PUSH1 0x1F DUP5 ADD PUSH1 0x5 SHR DUP2 ADD PUSH1 0x20 DUP6 LT ISZERO PUSH2 0x238 JUMPI POP DUP1 JUMPDEST PUSH1 0x1F DUP5 ADD PUSH1 0x5 SHR DUP3 ADD SWAP2 POP JUMPDEST DUP2 DUP2 LT ISZERO PUSH2 0x257 JUMPI PUSH0 DUP2 SSTORE PUSH1 0x1 ADD PUSH2 0x244 JUMP JUMPDEST POP POP JUMPDEST POP POP POP JUMP JUMPDEST DUP2 MLOAD PUSH1 0x1 PUSH1 0x1 PUSH1 0x40 SHL SUB DUP2 GT ISZERO PUSH2 0x278 JUMPI PUSH2 0x278 PUSH2 0x1C7 JUMP JUMPDEST PUSH2 0x28C DUP2 PUSH2 0x286 DUP5 SLOAD PUSH2 0x1DB JUMP JUMPDEST DUP5 PUSH2 0x213 JUMP JUMPDEST PUSH1 0x20 PUSH1 0x1F DUP3 GT PUSH1 0x1 DUP2 EQ PUSH2 0x2BE JUMPI PUSH0 DUP4 ISZERO PUSH2 0x2A7 JUMPI POP DUP5 DUP3 ADD MLOAD JUMPDEST PUSH0 NOT PUSH1 0x3 DUP6 SWAP1 SHL SHR NOT AND PUSH1 0x1 DUP5 SWAP1 SHL OR DUP5 SSTORE PUSH2 0x257 JUMP JUMPDEST PUSH0 DUP5 DUP2 MSTORE PUSH1 0x20 DUP2 KECCAK256 PUSH1 0x1F NOT DUP6 AND SWAP2 JUMPDEST DUP3 DUP2 LT ISZERO PUSH2 0x2ED JUMPI DUP8 DUP6 ADD MLOAD DUP3 SSTORE PUSH1 0x20 SWAP5 DUP6 ADD SWAP5 PUSH1 0x1 SWAP1 SWAP3 ADD SWAP2 ADD PUSH2 0x2CD JUMP JUMPDEST POP DUP5 DUP3 LT ISZERO PUSH2 0x30A JUMPI DUP7 DUP5 ADD MLOAD PUSH0 NOT PUSH1 0x3 DUP8 SWAP1 SHL PUSH1 0xF8 AND SHR NOT AND DUP2 SSTORE JUMPDEST POP POP POP POP PUSH1 0x1 SWAP1 DUP2 SHL ADD SWAP1 SSTORE POP JUMP JUMPDEST PUSH2 0x44A6 DUP1 PUSH2 0x326 PUSH0 CODECOPY PUSH0 RETURN INVALID PUSH1 0x80 PUSH1 0x40 MSTORE CALLVALUE DUP1 ISZERO PUSH2 0xF JUMPI PUSH0 DUP1 REVERT JUMPDEST POP PUSH1 0x4 CALLDATASIZE LT PUSH2 0x260 JUMPI PUSH0 CALLDATALOAD PUSH1 0xE0 SHR DUP1 PUSH4 0x6EB60A80 GT PUSH2 0x14B JUMPI DUP1 PUSH4 0xA3F8D8ED GT PUSH2 0xBF JUMPI DUP1 PUSH4 0xE1A9ABF1 GT PUSH2 0x84 JUMPI DUP1 PUSH4 0xE1A9ABF1 EQ PUSH2 0x535 JUMPI DUP1 PUSH4 0xE42DDE2E EQ PUSH2 0x555 JUMPI DUP1 PUSH4 0xE985E9C5 EQ PUSH2 0x568 JUMPI DUP1 PUSH4 0xEDD501FA EQ PUSH2 0x57B JUMPI DUP1 PUSH4 0xF08AA69F EQ PUSH2 0x58E JUMPI DUP1 PUSH4 0xF2FDE38B EQ PUSH2 0x5A1 JUMPI PUSH0 DUP1 REVERT JUMPDEST DUP1 PUSH4 0xA3F8D8ED EQ PUSH2 0x4D6 JUMPI DUP1 PUSH4 0xAA9AA17A EQ PUSH2 0x4E9 JUMPI DUP1 PUSH4 0xB88D4FDE EQ PUSH2 0x4FC JUMPI DUP1 PUSH4 0xC87B56DD EQ PUSH2 0x50F JUMPI DUP1 PUSH4 0xCA259ED2 EQ PUSH2 0x522 JUMPI PUSH0 DUP1 REVERT JUMPDEST DUP1 PUSH4 0x8DA5CB5B GT PUSH2 0x110 JUMPI DUP1 PUSH4 0x8DA5CB5B EQ PUSH2 0x471 JUMPI DUP1 PUSH4 0x95D89B41 EQ PUSH2 0x482 JUMPI DUP1 PUSH4 0x99BB9350 EQ PUSH2 0x48A JUMPI DUP1 PUSH4 0x9BB0F759 EQ PUSH2 0x49D JUMPI DUP1 PUSH4 0xA22CB465 EQ PUSH2 0x4B0 JUMPI DUP1 PUSH4 0xA230C524 EQ PUSH2 0x4C3 JUMPI PUSH0 DUP1 REVERT JUMPDEST DUP1 PUSH4 0x6EB60A80 EQ PUSH2 0x41D JUMPI DUP1 PUSH4 0x70A08231 EQ PUSH2 0x430 JUMPI DUP1 PUSH4 0x715018A6 EQ PUSH2 0x443 JUMPI DUP1 PUSH4 0x8502F1C2 EQ PUSH2 0x44B JUMPI DUP1 PUSH4 0x8BAA5D8B EQ PUSH2 0x45E JUMPI PUSH0 DUP1 REVERT JUMPDEST DUP1 PUSH4 0x3013CE29 GT PUSH2 0x1E2 JUMPI DUP1 PUSH4 0x49678605 GT PUSH2 0x1A7 JUMPI DUP1 PUSH4 0x49678605 EQ PUSH2 0x3AB JUMPI DUP1 PUSH4 0x4B870A83 EQ PUSH2 0x3BE JUMPI DUP1 PUSH4 0x4F6CCCE7 EQ PUSH2 0x3D1 JUMPI DUP1 PUSH4 0x5939A84E EQ PUSH2 0x3E4 JUMPI DUP1 PUSH4 0x6352211E EQ PUSH2 0x3F7 JUMPI DUP1 PUSH4 0x6A326AB1 EQ PUSH2 0x40A JUMPI PUSH0 DUP1 REVERT JUMPDEST DUP1 PUSH4 0x3013CE29 EQ PUSH2 0x34C JUMPI DUP1 PUSH4 0x4158C1B5 EQ PUSH2 0x35F JUMPI DUP1 PUSH4 0x42842E0E EQ PUSH2 0x372 JUMPI DUP1 PUSH4 0x42966C68 EQ PUSH2 0x385 JUMPI DUP1 PUSH4 0x45DB283D EQ PUSH2 0x398 JUMPI PUSH0 DUP1 REVERT JUMPDEST DUP1 PUSH4 0x11CE0267 GT PUSH2 0x228 JUMPI DUP1 PUSH4 0x11CE0267 EQ PUSH2 0x2F8 JUMPI DUP1 PUSH4 0x18160DDD EQ PUSH2 0x30B JUMPI DUP1 PUSH4 0x23B872DD EQ PUSH2 0x313 JUMPI DUP1 PUSH4 0x241F8715 EQ PUSH2 0x326 JUMPI DUP1 PUSH4 0x2F745C59 EQ PUSH2 0x339 JUMPI PUSH0 DUP1 REVERT JUMPDEST DUP1 PUSH4 0x1FFC9A7 EQ PUSH2 0x264 JUMPI DUP1 PUSH4 0x6FDDE03 EQ PUSH2 0x28C JUMPI DUP1 PUSH4 0x81812FC EQ PUSH2 0x2A1 JUMPI DUP1 PUSH4 0x95EA7B3 EQ PUSH2 0x2CC JUMPI DUP1 PUSH4 0xD39FC81 EQ PUSH2 0x2E1 JUMPI JUMPDEST PUSH0 DUP1 REVERT JUMPDEST PUSH2 0x277 PUSH2 0x272 CALLDATASIZE PUSH1 0x4 PUSH2 0x30F3 JUMP JUMPDEST PUSH2 0x5B4 JUMP JUMPDEST PUSH1 0x40 MLOAD SWAP1 ISZERO ISZERO DUP2 MSTORE PUSH1 0x20 ADD JUMPDEST PUSH1 0x40 MLOAD DUP1 SWAP2 SUB SWAP1 RETURN JUMPDEST PUSH2 0x294 PUSH2 0x5C4 JUMP JUMPDEST PUSH1 0x40 MLOAD PUSH2 0x283 SWAP2 SWAP1 PUSH2 0x313C JUMP JUMPDEST PUSH2 0x2B4 PUSH2 0x2AF CALLDATASIZE PUSH1 0x4 PUSH2 0x314E JUMP JUMPDEST PUSH2 0x653 JUMP JUMPDEST PUSH1 0x40 MLOAD PUSH1 0x1 PUSH1 0x1 PUSH1 0xA0 SHL SUB SWAP1 SWAP2 AND DUP2 MSTORE PUSH1 0x20 ADD PUSH2 0x283 JUMP JUMPDEST PUSH2 0x2DF PUSH2 0x2DA CALLDATASIZE PUSH1 0x4 PUSH2 0x3179 JUMP JUMPDEST PUSH2 0x67A JUMP JUMPDEST STOP JUMPDEST PUSH2 0x2EA PUSH1 0x10 SLOAD DUP2 JUMP JUMPDEST PUSH1 0x40 MLOAD SWAP1 DUP2 MSTORE PUSH1 0x20 ADD PUSH2 0x283 JUMP JUMPDEST PUSH1 0xC SLOAD PUSH2 0x2B4 SWAP1 PUSH1 0x1 PUSH1 0x1 PUSH1 0xA0 SHL SUB AND DUP2 JUMP JUMPDEST PUSH1 0x8 SLOAD PUSH2 0x2EA JUMP JUMPDEST PUSH2 0x2DF PUSH2 0x321 CALLDATASIZE PUSH1 0x4 PUSH2 0x31A3 JUMP JUMPDEST PUSH2 0x689 JUMP JUMPDEST PUSH2 0x2DF PUSH2 0x334 CALLDATASIZE PUSH1 0x4 PUSH2 0x31E1 JUMP JUMPDEST PUSH2 0x717 JUMP JUMPDEST PUSH2 0x2EA PUSH2 0x347 CALLDATASIZE PUSH1 0x4 PUSH2 0x3179 JUMP JUMPDEST PUSH2 0x76A JUMP JUMPDEST PUSH1 0xD SLOAD PUSH2 0x2B4 SWAP1 PUSH1 0x1 PUSH1 0x1 PUSH1 0xA0 SHL SUB AND DUP2 JUMP JUMPDEST PUSH2 0x2DF PUSH2 0x36D CALLDATASIZE PUSH1 0x4 PUSH2 0x3220 JUMP JUMPDEST PUSH2 0x7CD JUMP JUMPDEST PUSH2 0x2DF PUSH2 0x380 CALLDATASIZE PUSH1 0x4 PUSH2 0x31A3 JUMP JUMPDEST PUSH2 0x96E JUMP JUMPDEST PUSH2 0x2DF PUSH2 0x393 CALLDATASIZE PUSH1 0x4 PUSH2 0x314E JUMP JUMPDEST PUSH2 0x98D JUMP JUMPDEST PUSH2 0x2DF PUSH2 0x3A6 CALLDATASIZE PUSH1 0x4 PUSH2 0x32DB JUMP JUMPDEST PUSH2 0x9A1 JUMP JUMPDEST PUSH2 0x2DF PUSH2 0x3B9 CALLDATASIZE PUSH1 0x4 PUSH2 0x3179 JUMP JUMPDEST PUSH2 0xAA8 JUMP JUMPDEST PUSH2 0x2DF PUSH2 0x3CC CALLDATASIZE PUSH1 0x4 PUSH2 0x3352 JUMP JUMPDEST PUSH2 0x103F JUMP JUMPDEST PUSH2 0x2EA PUSH2 0x3DF CALLDATASIZE PUSH1 0x4 PUSH2 0x314E JUMP JUMPDEST PUSH2 0x11A3 JUMP JUMPDEST PUSH2 0x277 PUSH2 0x3F2 CALLDATASIZE PUSH1 0x4 PUSH2 0x33A2 JUMP JUMPDEST PUSH2 0x11F8 JUMP JUMPDEST PUSH2 0x2B4 PUSH2 0x405 CALLDATASIZE PUSH1 0x4 PUSH2 0x314E JUMP JUMPDEST PUSH2 0x1265 JUMP JUMPDEST PUSH2 0x2DF PUSH2 0x418 CALLDATASIZE PUSH1 0x4 PUSH2 0x33A2 JUMP JUMPDEST PUSH2 0x126F JUMP JUMPDEST PUSH2 0x2DF PUSH2 0x42B CALLDATASIZE PUSH1 0x4 PUSH2 0x33CA JUMP JUMPDEST PUSH2 0x12C0 JUMP JUMPDEST PUSH2 0x2EA PUSH2 0x43E CALLDATASIZE PUSH1 0x4 PUSH2 0x33A2 JUMP JUMPDEST PUSH2 0x1533 JUMP JUMPDEST PUSH2 0x2DF PUSH2 0x1578 JUMP JUMPDEST PUSH2 0x2DF PUSH2 0x459 CALLDATASIZE PUSH1 0x4 PUSH2 0x33A2 JUMP JUMPDEST PUSH2 0x158B JUMP JUMPDEST PUSH2 0x2DF PUSH2 0x46C CALLDATASIZE PUSH1 0x4 PUSH2 0x3449 JUMP JUMPDEST PUSH2 0x18E6 JUMP JUMPDEST PUSH1 0xB SLOAD PUSH1 0x1 PUSH1 0x1 PUSH1 0xA0 SHL SUB AND PUSH2 0x2B4 JUMP JUMPDEST PUSH2 0x294 PUSH2 0x1B31 JUMP JUMPDEST PUSH1 0xE SLOAD PUSH2 0x2B4 SWAP1 PUSH1 0x1 PUSH1 0x1 PUSH1 0xA0 SHL SUB AND DUP2 JUMP JUMPDEST PUSH2 0x2DF PUSH2 0x4AB CALLDATASIZE PUSH1 0x4 PUSH2 0x33A2 JUMP JUMPDEST PUSH2 0x1B40 JUMP JUMPDEST PUSH2 0x2DF PUSH2 0x4BE CALLDATASIZE PUSH1 0x4 PUSH2 0x34A0 JUMP JUMPDEST PUSH2 0x1BF3 JUMP JUMPDEST PUSH2 0x277 PUSH2 0x4D1 CALLDATASIZE PUSH1 0x4 PUSH2 0x33A2 JUMP JUMPDEST PUSH2 0x1BFE JUMP JUMPDEST PUSH2 0x2DF PUSH2 0x4E4 CALLDATASIZE PUSH1 0x4 PUSH2 0x34CC JUMP JUMPDEST PUSH2 0x1C30 JUMP JUMPDEST PUSH2 0x2DF PUSH2 0x4F7 CALLDATASIZE PUSH1 0x4 PUSH2 0x34F4 JUMP JUMPDEST PUSH2 0x1E41 JUMP JUMPDEST PUSH2 0x2DF PUSH2 0x50A CALLDATASIZE PUSH1 0x4 PUSH2 0x365A JUMP JUMPDEST PUSH2 0x1F07 JUMP JUMPDEST PUSH2 0x294 PUSH2 0x51D CALLDATASIZE PUSH1 0x4 PUSH2 0x314E JUMP JUMPDEST PUSH2 0x1F1F JUMP JUMPDEST PUSH2 0x2DF PUSH2 0x530 CALLDATASIZE PUSH1 0x4 PUSH2 0x3352 JUMP JUMPDEST PUSH2 0x1F2A JUMP JUMPDEST PUSH2 0x548 PUSH2 0x543 CALLDATASIZE PUSH1 0x4 PUSH2 0x33A2 JUMP JUMPDEST PUSH2 0x1F32 JUMP JUMPDEST PUSH1 0x40 MLOAD PUSH2 0x283 SWAP2 SWAP1 PUSH2 0x36D4 JUMP JUMPDEST PUSH2 0x2DF PUSH2 0x563 CALLDATASIZE PUSH1 0x4 PUSH2 0x33A2 JUMP JUMPDEST PUSH2 0x1FAC JUMP JUMPDEST PUSH2 0x277 PUSH2 0x576 CALLDATASIZE PUSH1 0x4 PUSH2 0x3220 JUMP JUMPDEST PUSH2 0x212A JUMP JUMPDEST PUSH2 0x2B4 PUSH2 0x589 CALLDATASIZE PUSH1 0x4 PUSH2 0x33A2 JUMP JUMPDEST PUSH2 0x2157 JUMP JUMPDEST PUSH2 0x2EA PUSH2 0x59C CALLDATASIZE PUSH1 0x4 PUSH2 0x3716 JUMP JUMPDEST PUSH2 0x21CF JUMP JUMPDEST PUSH2 0x2DF PUSH2 0x5AF CALLDATASIZE PUSH1 0x4 PUSH2 0x33A2 JUMP JUMPDEST PUSH2 0x23BB JUMP JUMPDEST PUSH0 PUSH2 0x5BE DUP3 PUSH2 0x23F5 JUMP JUMPDEST SWAP3 SWAP2 POP POP JUMP JUMPDEST PUSH1 0x60 PUSH0 DUP1 SLOAD PUSH2 0x5D2 SWAP1 PUSH2 0x3780 JUMP JUMPDEST DUP1 PUSH1 0x1F ADD PUSH1 0x20 DUP1 SWAP2 DIV MUL PUSH1 0x20 ADD PUSH1 0x40 MLOAD SWAP1 DUP2 ADD PUSH1 0x40 MSTORE DUP1 SWAP3 SWAP2 SWAP1 DUP2 DUP2 MSTORE PUSH1 0x20 ADD DUP3 DUP1 SLOAD PUSH2 0x5FE SWAP1 PUSH2 0x3780 JUMP JUMPDEST DUP1 ISZERO PUSH2 0x649 JUMPI DUP1 PUSH1 0x1F LT PUSH2 0x620 JUMPI PUSH2 0x100 DUP1 DUP4 SLOAD DIV MUL DUP4 MSTORE SWAP2 PUSH1 0x20 ADD SWAP2 PUSH2 0x649 JUMP JUMPDEST DUP3 ADD SWAP2 SWAP1 PUSH0 MSTORE PUSH1 0x20 PUSH0 KECCAK256 SWAP1 JUMPDEST DUP2 SLOAD DUP2 MSTORE SWAP1 PUSH1 0x1 ADD SWAP1 PUSH1 0x20 ADD DUP1 DUP4 GT PUSH2 0x62C JUMPI DUP3 SWAP1 SUB PUSH1 0x1F AND DUP3 ADD SWAP2 JUMPDEST POP POP POP POP POP SWAP1 POP SWAP1 JUMP JUMPDEST PUSH0 PUSH2 0x65D DUP3 PUSH2 0x2419 JUMP JUMPDEST POP PUSH0 DUP3 DUP2 MSTORE PUSH1 0x4 PUSH1 0x20 MSTORE PUSH1 0x40 SWAP1 KECCAK256 SLOAD PUSH1 0x1 PUSH1 0x1 PUSH1 0xA0 SHL SUB AND PUSH2 0x5BE JUMP JUMPDEST PUSH2 0x685 DUP3 DUP3 CALLER PUSH2 0x2451 JUMP JUMPDEST POP POP JUMP JUMPDEST PUSH1 0x1 PUSH1 0x1 PUSH1 0xA0 SHL SUB DUP3 AND PUSH2 0x6B7 JUMPI PUSH1 0x40 MLOAD PUSH4 0x32505749 PUSH1 0xE1 SHL DUP2 MSTORE PUSH0 PUSH1 0x4 DUP3 ADD MSTORE PUSH1 0x24 ADD JUMPDEST PUSH1 0x40 MLOAD DUP1 SWAP2 SUB SWAP1 REVERT JUMPDEST PUSH0 PUSH2 0x6C3 DUP4 DUP4 CALLER PUSH2 0x245E JUMP JUMPDEST SWAP1 POP DUP4 PUSH1 0x1 PUSH1 0x1 PUSH1 0xA0 SHL SUB AND DUP2 PUSH1 0x1 PUSH1 0x1 PUSH1 0xA0 SHL SUB AND EQ PUSH2 0x711 JUMPI PUSH1 0x40 MLOAD PUSH4 0x64283D7B PUSH1 0xE0 SHL DUP2 MSTORE PUSH1 0x1 PUSH1 0x1 PUSH1 0xA0 SHL SUB DUP1 DUP7 AND PUSH1 0x4 DUP4 ADD MSTORE PUSH1 0x24 DUP3 ADD DUP5 SWAP1 MSTORE DUP3 AND PUSH1 0x44 DUP3 ADD MSTORE PUSH1 0x64 ADD PUSH2 0x6AE JUMP JUMPDEST POP POP POP POP JUMP JUMPDEST DUP3 PUSH1 0x1 PUSH1 0x1 PUSH1 0xA0 SHL SUB AND DUP3 DUP3 PUSH1 0x1 PUSH1 0x1 PUSH1 0xA0 SHL SUB AND PUSH32 0x41195084F354BC7DA593812F4B0E44AEC4E701EF0E7F6E15A5A574C33503437D TIMESTAMP PUSH1 0x40 MLOAD PUSH2 0x75D SWAP2 DUP2 MSTORE PUSH1 0x20 ADD SWAP1 JUMP JUMPDEST PUSH1 0x40 MLOAD DUP1 SWAP2 SUB SWAP1 LOG4 POP POP POP JUMP JUMPDEST PUSH0 PUSH2 0x774 DUP4 PUSH2 0x1533 JUMP JUMPDEST DUP3 LT PUSH2 0x7A5 JUMPI PUSH1 0x40 MLOAD PUSH4 0x295F44F7 PUSH1 0xE2 SHL DUP2 MSTORE PUSH1 0x1 PUSH1 0x1 PUSH1 0xA0 SHL SUB DUP5 AND PUSH1 0x4 DUP3 ADD MSTORE PUSH1 0x24 DUP2 ADD DUP4 SWAP1 MSTORE PUSH1 0x44 ADD PUSH2 0x6AE JUMP JUMPDEST POP PUSH1 0x1 PUSH1 0x1 PUSH1 0xA0 SHL SUB SWAP2 SWAP1 SWAP2 AND PUSH0 SWAP1 DUP2 MSTORE PUSH1 0x6 PUSH1 0x20 SWAP1 DUP2 MSTORE PUSH1 0x40 DUP1 DUP4 KECCAK256 SWAP4 DUP4 MSTORE SWAP3 SWAP1 MSTORE KECCAK256 SLOAD SWAP1 JUMP JUMPDEST DUP2 CALLER PUSH1 0x1 PUSH1 0x1 PUSH1 0xA0 SHL SUB DUP3 AND EQ DUP1 PUSH2 0x7FE JUMPI POP PUSH2 0x7E9 DUP2 PUSH2 0x2157 JUMP JUMPDEST PUSH1 0x1 PUSH1 0x1 PUSH1 0xA0 SHL SUB AND CALLER PUSH1 0x1 PUSH1 0x1 PUSH1 0xA0 SHL SUB AND EQ JUMPDEST PUSH2 0x85D JUMPI PUSH1 0x40 MLOAD PUSH3 0x461BCD PUSH1 0xE5 SHL DUP2 MSTORE PUSH1 0x20 PUSH1 0x4 DUP3 ADD MSTORE PUSH1 0x2A PUSH1 0x24 DUP3 ADD MSTORE PUSH32 0x556E617574686F72697A65643A204E6F74206D656D626572206F722072657072 PUSH1 0x44 DUP3 ADD MSTORE PUSH10 0x6573656E746174697665 PUSH1 0xB0 SHL PUSH1 0x64 DUP3 ADD MSTORE PUSH1 0x84 ADD PUSH2 0x6AE JUMP JUMPDEST PUSH1 0xC SLOAD PUSH1 0x40 MLOAD PUSH4 0x22B92C3 PUSH1 0xE2 SHL DUP2 MSTORE PUSH1 0x1 PUSH1 0x1 PUSH1 0xA0 SHL SUB DUP6 DUP2 AND PUSH1 0x4 DUP4 ADD MSTORE PUSH0 SWAP3 AND SWAP1 PUSH4 0x8AE4B0C SWAP1 PUSH1 0x24 ADD PUSH0 PUSH1 0x40 MLOAD DUP1 DUP4 SUB DUP2 DUP7 GAS STATICCALL ISZERO DUP1 ISZERO PUSH2 0x8A4 JUMPI RETURNDATASIZE PUSH0 DUP1 RETURNDATACOPY RETURNDATASIZE PUSH0 REVERT JUMPDEST POP POP POP POP PUSH1 0x40 MLOAD RETURNDATASIZE PUSH0 DUP3 RETURNDATACOPY PUSH1 0x1F RETURNDATASIZE SWAP1 DUP2 ADD PUSH1 0x1F NOT AND DUP3 ADD PUSH1 0x40 MSTORE PUSH2 0x8CB SWAP2 SWAP1 DUP2 ADD SWAP1 PUSH2 0x3820 JUMP JUMPDEST PUSH1 0x1 PUSH1 0x1 PUSH1 0xA0 SHL SUB DUP1 DUP6 AND PUSH1 0x20 DUP4 ADD MSTORE PUSH1 0xC SLOAD PUSH1 0x40 MLOAD PUSH4 0xAF947D05 PUSH1 0xE0 SHL DUP2 MSTORE SWAP3 SWAP4 POP AND SWAP1 PUSH4 0xAF947D05 SWAP1 PUSH2 0x904 SWAP1 DUP5 SWAP1 PUSH1 0x4 ADD PUSH2 0x38DB JUMP JUMPDEST PUSH0 PUSH1 0x40 MLOAD DUP1 DUP4 SUB DUP2 PUSH0 DUP8 DUP1 EXTCODESIZE ISZERO DUP1 ISZERO PUSH2 0x91B JUMPI PUSH0 DUP1 REVERT JUMPDEST POP GAS CALL ISZERO DUP1 ISZERO PUSH2 0x92D JUMPI RETURNDATASIZE PUSH0 DUP1 RETURNDATACOPY RETURNDATASIZE PUSH0 REVERT JUMPDEST POP POP PUSH1 0x40 MLOAD PUSH1 0x1 PUSH1 0x1 PUSH1 0xA0 SHL SUB DUP1 DUP8 AND SWAP4 POP DUP8 AND SWAP2 POP PUSH32 0xF53EC35310A21208780FC7B462EE5D0A47D8AE1C3AA5E0ECDAB144FF78DEA3A8 SWAP1 PUSH0 SWAP1 LOG3 POP POP POP POP JUMP JUMPDEST PUSH2 0x988 DUP4 DUP4 DUP4 PUSH1 0x40 MLOAD DUP1 PUSH1 0x20 ADD PUSH1 0x40 MSTORE DUP1 PUSH0 DUP2 MSTORE POP PUSH2 0x1F07 JUMP JUMPDEST POP POP POP JUMP JUMPDEST PUSH2 0x995 PUSH2 0x2472 JUMP JUMPDEST PUSH2 0x99E DUP2 PUSH2 0x249F JUMP JUMPDEST POP JUMP JUMPDEST PUSH0 PUSH1 0x40 MLOAD DUP1 PUSH1 0x80 ADD PUSH1 0x40 MSTORE DUP1 CALLER PUSH1 0x1 PUSH1 0x1 PUSH1 0xA0 SHL SUB AND DUP2 MSTORE PUSH1 0x20 ADD TIMESTAMP DUP2 MSTORE PUSH1 0x20 ADD DUP7 DUP7 DUP1 DUP1 PUSH1 0x1F ADD PUSH1 0x20 DUP1 SWAP2 DIV MUL PUSH1 0x20 ADD PUSH1 0x40 MLOAD SWAP1 DUP2 ADD PUSH1 0x40 MSTORE DUP1 SWAP4 SWAP3 SWAP2 SWAP1 DUP2 DUP2 MSTORE PUSH1 0x20 ADD DUP4 DUP4 DUP1 DUP3 DUP5 CALLDATACOPY PUSH0 SWAP3 ADD SWAP2 SWAP1 SWAP2 MSTORE POP POP POP SWAP1 DUP3 MSTORE POP PUSH1 0x20 ADD PUSH2 0xA07 DUP5 DUP7 PUSH2 0x3973 JUMP JUMPDEST SWAP1 MSTORE PUSH1 0xC SLOAD PUSH1 0x40 MLOAD PUSH4 0x109DB1B PUSH1 0xE5 SHL DUP2 MSTORE SWAP2 SWAP3 POP PUSH1 0x1 PUSH1 0x1 PUSH1 0xA0 SHL SUB AND SWAP1 PUSH4 0x213B6360 SWAP1 PUSH2 0xA3C SWAP1 DUP10 SWAP1 DUP6 SWAP1 PUSH1 0x4 ADD PUSH2 0x3A94 JUMP JUMPDEST PUSH0 PUSH1 0x40 MLOAD DUP1 DUP4 SUB DUP2 PUSH0 DUP8 DUP1 EXTCODESIZE ISZERO DUP1 ISZERO PUSH2 0xA53 JUMPI PUSH0 DUP1 REVERT JUMPDEST POP GAS CALL ISZERO DUP1 ISZERO PUSH2 0xA65 JUMPI RETURNDATASIZE PUSH0 DUP1 RETURNDATACOPY RETURNDATASIZE PUSH0 REVERT JUMPDEST POP POP PUSH1 0x40 MLOAD TIMESTAMP DUP2 MSTORE CALLER SWAP3 POP DUP9 SWAP2 POP PUSH32 0x37B3E104208F85D1DF430BBEFBE3FEE48F2B666F587576036F4D60EF673AF50C SWAP1 PUSH1 0x20 ADD PUSH1 0x40 MLOAD DUP1 SWAP2 SUB SWAP1 LOG3 POP POP POP POP POP POP JUMP JUMPDEST PUSH1 0xC SLOAD PUSH1 0x40 MLOAD PUSH4 0x2C9CD427 PUSH1 0xE1 SHL DUP2 MSTORE PUSH1 0x1 PUSH1 0x1 PUSH1 0xA0 SHL SUB DUP1 DUP6 AND PUSH1 0x4 DUP4 ADD MSTORE DUP5 SWAP3 AND SWAP1 PUSH4 0x5939A84E SWAP1 PUSH1 0x24 ADD PUSH1 0x20 PUSH1 0x40 MLOAD DUP1 DUP4 SUB DUP2 DUP7 GAS STATICCALL ISZERO DUP1 ISZERO PUSH2 0xAF0 JUMPI RETURNDATASIZE PUSH0 DUP1 RETURNDATACOPY RETURNDATASIZE PUSH0 REVERT JUMPDEST POP POP POP POP PUSH1 0x40 MLOAD RETURNDATASIZE PUSH1 0x1F NOT PUSH1 0x1F DUP3 ADD AND DUP3 ADD DUP1 PUSH1 0x40 MSTORE POP DUP2 ADD SWAP1 PUSH2 0xB14 SWAP2 SWAP1 PUSH2 0x3AAC JUMP JUMPDEST PUSH2 0xB58 JUMPI PUSH1 0x40 MLOAD PUSH3 0x461BCD PUSH1 0xE5 SHL DUP2 MSTORE PUSH1 0x20 PUSH1 0x4 DUP3 ADD MSTORE PUSH1 0x15 PUSH1 0x24 DUP3 ADD MSTORE PUSH21 0x2737BA103932B3B4B9BA32B932B2103630BBBCB2B9 PUSH1 0x59 SHL PUSH1 0x44 DUP3 ADD MSTORE PUSH1 0x64 ADD PUSH2 0x6AE JUMP JUMPDEST PUSH1 0xC SLOAD PUSH1 0x40 MLOAD PUSH4 0x554AE567 PUSH1 0xE0 SHL DUP2 MSTORE PUSH1 0x1 PUSH1 0x1 PUSH1 0xA0 SHL SUB DUP4 DUP2 AND PUSH1 0x4 DUP4 ADD MSTORE PUSH0 SWAP3 AND SWAP1 PUSH4 0x554AE567 SWAP1 PUSH1 0x24 ADD PUSH0 PUSH1 0x40 MLOAD DUP1 DUP4 SUB DUP2 DUP7 GAS STATICCALL ISZERO DUP1 ISZERO PUSH2 0xB9F JUMPI RETURNDATASIZE PUSH0 DUP1 RETURNDATACOPY RETURNDATASIZE PUSH0 REVERT JUMPDEST POP POP POP POP PUSH1 0x40 MLOAD RETURNDATASIZE PUSH0 DUP3 RETURNDATACOPY PUSH1 0x1F RETURNDATASIZE SWAP1 DUP2 ADD PUSH1 0x1F NOT AND DUP3 ADD PUSH1 0x40 MSTORE PUSH2 0xBC6 SWAP2 SWAP1 DUP2 ADD SWAP1 PUSH2 0x3B2C JUMP JUMPDEST SWAP1 POP DUP1 PUSH1 0xA0 ADD MLOAD PUSH2 0xC0B JUMPI PUSH1 0x40 MLOAD PUSH3 0x461BCD PUSH1 0xE5 SHL DUP2 MSTORE PUSH1 0x20 PUSH1 0x4 DUP3 ADD MSTORE PUSH1 0xF PUSH1 0x24 DUP3 ADD MSTORE PUSH15 0x4C617779657220696E616374697665 PUSH1 0x88 SHL PUSH1 0x44 DUP3 ADD MSTORE PUSH1 0x64 ADD PUSH2 0x6AE JUMP JUMPDEST PUSH1 0x1 PUSH1 0x1 PUSH1 0xA0 SHL SUB DUP5 AND CALLER EQ PUSH2 0xC7A JUMPI PUSH1 0x40 MLOAD PUSH3 0x461BCD PUSH1 0xE5 SHL DUP2 MSTORE PUSH1 0x20 PUSH1 0x4 DUP3 ADD MSTORE PUSH1 0x2E PUSH1 0x24 DUP3 ADD MSTORE PUSH32 0x556E617574686F72697A65643A204F6E6C792061737369676E6564206C617779 PUSH1 0x44 DUP3 ADD MSTORE PUSH14 0x65722063616E207265736F6C7665 PUSH1 0x90 SHL PUSH1 0x64 DUP3 ADD MSTORE PUSH1 0x84 ADD PUSH2 0x6AE JUMP JUMPDEST PUSH1 0xC SLOAD PUSH1 0x40 MLOAD PUSH4 0xF09790DD PUSH1 0xE0 SHL DUP2 MSTORE PUSH1 0x4 DUP2 ADD DUP6 SWAP1 MSTORE PUSH0 SWAP2 PUSH1 0x1 PUSH1 0x1 PUSH1 0xA0 SHL SUB AND SWAP1 PUSH4 0xF09790DD SWAP1 PUSH1 0x24 ADD PUSH0 PUSH1 0x40 MLOAD DUP1 DUP4 SUB DUP2 DUP7 GAS STATICCALL ISZERO DUP1 ISZERO PUSH2 0xCC0 JUMPI RETURNDATASIZE PUSH0 DUP1 RETURNDATACOPY RETURNDATASIZE PUSH0 REVERT JUMPDEST POP POP POP POP PUSH1 0x40 MLOAD RETURNDATASIZE PUSH0 DUP3 RETURNDATACOPY PUSH1 0x1F RETURNDATASIZE SWAP1 DUP2 ADD PUSH1 0x1F NOT AND DUP3 ADD PUSH1 0x40 MSTORE PUSH2 0xCE7 SWAP2 SWAP1 DUP2 ADD SWAP1 PUSH2 0x3BF6 JUMP JUMPDEST SWAP1 POP DUP5 PUSH1 0x1 PUSH1 0x1 PUSH1 0xA0 SHL SUB AND DUP2 PUSH1 0x40 ADD MLOAD PUSH1 0x1 PUSH1 0x1 PUSH1 0xA0 SHL SUB AND EQ PUSH2 0xD4E JUMPI PUSH1 0x40 MLOAD PUSH3 0x461BCD PUSH1 0xE5 SHL DUP2 MSTORE PUSH1 0x20 PUSH1 0x4 DUP3 ADD MSTORE PUSH1 0x1B PUSH1 0x24 DUP3 ADD MSTORE PUSH32 0x43617365206E6F742061737369676E656420746F206C61777965720000000000 PUSH1 0x44 DUP3 ADD MSTORE PUSH1 0x64 ADD PUSH2 0x6AE JUMP JUMPDEST DUP1 PUSH1 0xC0 ADD MLOAD ISZERO PUSH2 0xD98 JUMPI PUSH1 0x40 MLOAD PUSH3 0x461BCD PUSH1 0xE5 SHL DUP2 MSTORE PUSH1 0x20 PUSH1 0x4 DUP3 ADD MSTORE PUSH1 0x15 PUSH1 0x24 DUP3 ADD MSTORE PUSH21 0x10D85CD948185B1C9958591E481C995CDBDB1D9959 PUSH1 0x5A SHL PUSH1 0x44 DUP3 ADD MSTORE PUSH1 0x64 ADD PUSH2 0x6AE JUMP JUMPDEST PUSH1 0x1 PUSH1 0xC0 DUP3 ADD MSTORE TIMESTAMP PUSH1 0xA0 DUP3 ADD MSTORE PUSH1 0xC SLOAD PUSH1 0x40 MLOAD PUSH4 0xF47BE477 PUSH1 0xE0 SHL DUP2 MSTORE PUSH1 0x1 PUSH1 0x1 PUSH1 0xA0 SHL SUB SWAP1 SWAP2 AND SWAP1 PUSH4 0xF47BE477 SWAP1 PUSH2 0xDD5 SWAP1 DUP5 SWAP1 PUSH1 0x4 ADD PUSH2 0x3CBE JUMP JUMPDEST PUSH0 PUSH1 0x40 MLOAD DUP1 DUP4 SUB DUP2 PUSH0 DUP8 DUP1 EXTCODESIZE ISZERO DUP1 ISZERO PUSH2 0xDEC JUMPI PUSH0 DUP1 REVERT JUMPDEST POP GAS CALL ISZERO DUP1 ISZERO PUSH2 0xDFE JUMPI RETURNDATASIZE PUSH0 DUP1 RETURNDATACOPY RETURNDATASIZE PUSH0 REVERT JUMPDEST POP POP PUSH1 0xC SLOAD PUSH1 0x40 MLOAD PUSH4 0x554AE567 PUSH1 0xE0 SHL DUP2 MSTORE PUSH1 0x1 PUSH1 0x1 PUSH1 0xA0 SHL SUB DUP10 DUP2 AND PUSH1 0x4 DUP4 ADD MSTORE PUSH0 SWAP5 POP SWAP1 SWAP2 AND SWAP2 POP PUSH4 0x554AE567 SWAP1 PUSH1 0x24 ADD PUSH0 PUSH1 0x40 MLOAD DUP1 DUP4 SUB DUP2 DUP7 GAS STATICCALL ISZERO DUP1 ISZERO PUSH2 0xE4B JUMPI RETURNDATASIZE PUSH0 DUP1 RETURNDATACOPY RETURNDATASIZE PUSH0 REVERT JUMPDEST POP POP POP POP PUSH1 0x40 MLOAD RETURNDATASIZE PUSH0 DUP3 RETURNDATACOPY PUSH1 0x1F RETURNDATASIZE SWAP1 DUP2 ADD PUSH1 0x1F NOT AND DUP3 ADD PUSH1 0x40 MSTORE PUSH2 0xE72 SWAP2 SWAP1 DUP2 ADD SWAP1 PUSH2 0x3B2C JUMP JUMPDEST PUSH1 0x20 DUP2 ADD MLOAD DUP1 MLOAD SWAP2 SWAP3 POP SWAP1 PUSH0 SWAP1 PUSH2 0xE8A SWAP1 PUSH1 0x1 PUSH2 0x3D5C JUMP JUMPDEST PUSH1 0x1 PUSH1 0x1 PUSH1 0x40 SHL SUB DUP2 GT ISZERO PUSH2 0xEA1 JUMPI PUSH2 0xEA1 PUSH2 0x3526 JUMP JUMPDEST PUSH1 0x40 MLOAD SWAP1 DUP1 DUP3 MSTORE DUP1 PUSH1 0x20 MUL PUSH1 0x20 ADD DUP3 ADD PUSH1 0x40 MSTORE DUP1 ISZERO PUSH2 0xECA JUMPI DUP2 PUSH1 0x20 ADD PUSH1 0x20 DUP3 MUL DUP1 CALLDATASIZE DUP4 CALLDATACOPY ADD SWAP1 POP JUMPDEST POP SWAP1 POP PUSH0 DUP1 JUMPDEST DUP4 MLOAD DUP2 LT ISZERO PUSH2 0xF3E JUMPI DUP4 DUP2 DUP2 MLOAD DUP2 LT PUSH2 0xEEB JUMPI PUSH2 0xEEB PUSH2 0x3D6F JUMP JUMPDEST PUSH1 0x20 MUL PUSH1 0x20 ADD ADD MLOAD DUP4 DUP3 DUP2 MLOAD DUP2 LT PUSH2 0xF05 JUMPI PUSH2 0xF05 PUSH2 0x3D6F JUMP JUMPDEST PUSH1 0x20 MUL PUSH1 0x20 ADD ADD DUP2 DUP2 MSTORE POP POP DUP9 DUP5 DUP3 DUP2 MLOAD DUP2 LT PUSH2 0xF24 JUMPI PUSH2 0xF24 PUSH2 0x3D6F JUMP JUMPDEST PUSH1 0x20 MUL PUSH1 0x20 ADD ADD MLOAD SUB PUSH2 0xF36 JUMPI PUSH1 0x1 SWAP2 POP JUMPDEST PUSH1 0x1 ADD PUSH2 0xED0 JUMP JUMPDEST POP DUP1 PUSH2 0xF65 JUMPI DUP8 DUP3 DUP5 MLOAD DUP2 MLOAD DUP2 LT PUSH2 0xF58 JUMPI PUSH2 0xF58 PUSH2 0x3D6F JUMP JUMPDEST PUSH1 0x20 MUL PUSH1 0x20 ADD ADD DUP2 DUP2 MSTORE POP POP JUMPDEST PUSH1 0x20 DUP5 ADD DUP3 SWAP1 MSTORE PUSH1 0xE0 DUP6 ADD MLOAD PUSH1 0x80 DUP6 ADD DUP1 MLOAD PUSH2 0xF82 SWAP1 DUP4 SWAP1 PUSH2 0x3D5C JUMP JUMPDEST SWAP1 MSTORE POP PUSH1 0xC SLOAD PUSH1 0x40 MLOAD PUSH4 0x84500001 PUSH1 0xE0 SHL DUP2 MSTORE PUSH1 0x1 PUSH1 0x1 PUSH1 0xA0 SHL SUB SWAP1 SWAP2 AND SWAP1 PUSH4 0x84500001 SWAP1 PUSH2 0xFB5 SWAP1 DUP8 SWAP1 PUSH1 0x4 ADD PUSH2 0x3D83 JUMP JUMPDEST PUSH0 PUSH1 0x40 MLOAD DUP1 DUP4 SUB DUP2 PUSH0 DUP8 DUP1 EXTCODESIZE ISZERO DUP1 ISZERO PUSH2 0xFCC JUMPI PUSH0 DUP1 REVERT JUMPDEST POP GAS CALL ISZERO DUP1 ISZERO PUSH2 0xFDE JUMPI RETURNDATASIZE PUSH0 DUP1 RETURNDATACOPY RETURNDATASIZE PUSH0 REVERT JUMPDEST POP POP POP PUSH1 0xE0 DUP7 ADD MLOAD PUSH1 0xD SLOAD PUSH2 0xFFF SWAP3 POP PUSH1 0x1 PUSH1 0x1 PUSH1 0xA0 SHL SUB AND SWAP1 CALLER SWAP1 PUSH2 0x24D7 JUMP JUMPDEST PUSH1 0x40 MLOAD DUP9 SWAP1 PUSH1 0x1 PUSH1 0x1 PUSH1 0xA0 SHL SUB DUP12 AND SWAP1 PUSH32 0x8C367C1C13BF9B767A56A0B09A4A9372DD331AD43693C05B58E5F25F123340DF SWAP1 PUSH0 SWAP1 LOG3 POP POP POP POP POP POP POP POP POP JUMP JUMPDEST CALLER PUSH1 0x1 PUSH1 0x1 PUSH1 0xA0 SHL SUB DUP5 AND EQ PUSH2 0x108F JUMPI PUSH1 0x40 MLOAD PUSH3 0x461BCD PUSH1 0xE5 SHL DUP2 MSTORE PUSH1 0x20 PUSH1 0x4 DUP3 ADD MSTORE PUSH1 0x15 PUSH1 0x24 DUP3 ADD MSTORE PUSH21 0x21B0B71037B7363C9039B4B3B7103AB81039B2B633 PUSH1 0x59 SHL PUSH1 0x44 DUP3 ADD MSTORE PUSH1 0x64 ADD PUSH2 0x6AE JUMP JUMPDEST PUSH1 0x40 DUP1 MLOAD PUSH1 0xC0 DUP2 ADD DUP3 MSTORE PUSH1 0x1 PUSH1 0x1 PUSH1 0xA0 SHL SUB DUP6 AND DUP2 MSTORE DUP2 MLOAD PUSH0 DUP1 DUP3 MSTORE PUSH1 0x20 DUP3 DUP2 ADD SWAP1 SWAP5 MSTORE SWAP3 DUP3 ADD SWAP1 DUP2 MSTORE PUSH1 0x20 ADD DUP5 DUP5 DUP1 DUP1 PUSH1 0x1F ADD PUSH1 0x20 DUP1 SWAP2 DIV MUL PUSH1 0x20 ADD PUSH1 0x40 MLOAD SWAP1 DUP2 ADD PUSH1 0x40 MSTORE DUP1 SWAP4 SWAP3 SWAP2 SWAP1 DUP2 DUP2 MSTORE PUSH1 0x20 ADD DUP4 DUP4 DUP1 DUP3 DUP5 CALLDATACOPY PUSH0 SWAP3 ADD DUP3 SWAP1 MSTORE POP SWAP4 DUP6 MSTORE POP POP TIMESTAMP PUSH1 0x20 DUP5 ADD MSTORE POP PUSH1 0x40 DUP1 DUP4 ADD SWAP2 SWAP1 SWAP2 MSTORE PUSH1 0x1 PUSH1 0x60 SWAP1 SWAP3 ADD SWAP2 SWAP1 SWAP2 MSTORE PUSH1 0xC SLOAD SWAP1 MLOAD PUSH4 0x84500001 PUSH1 0xE0 SHL DUP2 MSTORE SWAP2 SWAP3 POP PUSH1 0x1 PUSH1 0x1 PUSH1 0xA0 SHL SUB AND SWAP1 PUSH4 0x84500001 SWAP1 PUSH2 0x113D SWAP1 DUP5 SWAP1 PUSH1 0x4 ADD PUSH2 0x3D83 JUMP JUMPDEST PUSH0 PUSH1 0x40 MLOAD DUP1 DUP4 SUB DUP2 PUSH0 DUP8 DUP1 EXTCODESIZE ISZERO DUP1 ISZERO PUSH2 0x1154 JUMPI PUSH0 DUP1 REVERT JUMPDEST POP GAS CALL ISZERO DUP1 ISZERO PUSH2 0x1166 JUMPI RETURNDATASIZE PUSH0 DUP1 RETURNDATACOPY RETURNDATASIZE PUSH0 REVERT JUMPDEST POP POP PUSH1 0x40 MLOAD PUSH1 0x1 PUSH1 0x1 PUSH1 0xA0 SHL SUB DUP8 AND SWAP3 POP PUSH32 0x477258C324E1DC966C3E151D300B92686593E768B5C01E809C2C820EEE02CFFC SWAP2 POP PUSH0 SWAP1 LOG2 POP POP POP POP JUMP JUMPDEST PUSH0 PUSH2 0x11AD PUSH1 0x8 SLOAD SWAP1 JUMP JUMPDEST DUP3 LT PUSH2 0x11D5 JUMPI PUSH1 0x40 MLOAD PUSH4 0x295F44F7 PUSH1 0xE2 SHL DUP2 MSTORE PUSH0 PUSH1 0x4 DUP3 ADD MSTORE PUSH1 0x24 DUP2 ADD DUP4 SWAP1 MSTORE PUSH1 0x44 ADD PUSH2 0x6AE JUMP JUMPDEST PUSH1 0x8 DUP3 DUP2 SLOAD DUP2 LT PUSH2 0x11E8 JUMPI PUSH2 0x11E8 PUSH2 0x3D6F JUMP JUMPDEST SWAP1 PUSH0 MSTORE PUSH1 0x20 PUSH0 KECCAK256 ADD SLOAD SWAP1 POP SWAP2 SWAP1 POP JUMP JUMPDEST PUSH1 0xC SLOAD PUSH1 0x40 MLOAD PUSH4 0x2C9CD427 PUSH1 0xE1 SHL DUP2 MSTORE PUSH1 0x1 PUSH1 0x1 PUSH1 0xA0 SHL SUB DUP4 DUP2 AND PUSH1 0x4 DUP4 ADD MSTORE PUSH0 SWAP3 AND SWAP1 PUSH4 0x5939A84E SWAP1 PUSH1 0x24 ADD JUMPDEST PUSH1 0x20 PUSH1 0x40 MLOAD DUP1 DUP4 SUB DUP2 DUP7 GAS STATICCALL ISZERO DUP1 ISZERO PUSH2 0x1241 JUMPI RETURNDATASIZE PUSH0 DUP1 RETURNDATACOPY RETURNDATASIZE PUSH0 REVERT JUMPDEST POP POP POP POP PUSH1 0x40 MLOAD RETURNDATASIZE PUSH1 0x1F NOT PUSH1 0x1F DUP3 ADD AND DUP3 ADD DUP1 PUSH1 0x40 MSTORE POP DUP2 ADD SWAP1 PUSH2 0x5BE SWAP2 SWAP1 PUSH2 0x3AAC JUMP JUMPDEST PUSH0 PUSH2 0x5BE DUP3 PUSH2 0x2419 JUMP JUMPDEST PUSH2 0x1277 PUSH2 0x2472 JUMP JUMPDEST PUSH1 0xD DUP1 SLOAD PUSH1 0x1 PUSH1 0x1 PUSH1 0xA0 SHL SUB NOT AND PUSH1 0x1 PUSH1 0x1 PUSH1 0xA0 SHL SUB DUP4 AND SWAP1 DUP2 OR SWAP1 SWAP2 SSTORE PUSH1 0x40 MLOAD PUSH32 0xBD4032C1C91DA2791730EA1BBC82C6B6F857DA7C0A8318143D19EF74E62CD913 SWAP1 PUSH0 SWAP1 LOG2 POP JUMP JUMPDEST CALLER PUSH1 0x1 PUSH1 0x1 PUSH1 0xA0 SHL SUB DUP7 AND EQ PUSH2 0x1318 JUMPI PUSH1 0x40 MLOAD PUSH3 0x461BCD PUSH1 0xE5 SHL DUP2 MSTORE PUSH1 0x20 PUSH1 0x4 DUP3 ADD MSTORE PUSH1 0x1B PUSH1 0x24 DUP3 ADD MSTORE PUSH32 0x4F6E6C79206D656D6265722063616E2063726561746520636173650000000000 PUSH1 0x44 DUP3 ADD MSTORE PUSH1 0x64 ADD PUSH2 0x6AE JUMP JUMPDEST PUSH0 PUSH2 0x1322 DUP7 PUSH2 0x1533 JUMP JUMPDEST GT PUSH2 0x136F JUMPI PUSH1 0x40 MLOAD PUSH3 0x461BCD PUSH1 0xE5 SHL DUP2 MSTORE PUSH1 0x20 PUSH1 0x4 DUP3 ADD MSTORE PUSH1 0x17 PUSH1 0x24 DUP3 ADD MSTORE PUSH32 0x4D656D62657273686970204E4654207265717569726564000000000000000000 PUSH1 0x44 DUP3 ADD MSTORE PUSH1 0x64 ADD PUSH2 0x6AE JUMP JUMPDEST PUSH1 0xC SLOAD PUSH1 0x40 DUP1 MLOAD PUSH4 0x426E0403 PUSH1 0xE1 SHL DUP2 MSTORE SWAP1 MLOAD PUSH0 SWAP3 PUSH1 0x1 PUSH1 0x1 PUSH1 0xA0 SHL SUB AND SWAP2 PUSH4 0x84DC0806 SWAP2 PUSH1 0x4 DUP1 DUP4 ADD SWAP3 PUSH1 0x20 SWAP3 SWAP2 SWAP1 DUP3 SWAP1 SUB ADD DUP2 DUP8 DUP8 GAS CALL ISZERO DUP1 ISZERO PUSH2 0x13B7 JUMPI RETURNDATASIZE PUSH0 DUP1 RETURNDATACOPY RETURNDATASIZE PUSH0 REVERT JUMPDEST POP POP POP POP PUSH1 0x40 MLOAD RETURNDATASIZE PUSH1 0x1F NOT PUSH1 0x1F DUP3 ADD AND DUP3 ADD DUP1 PUSH1 0x40 MSTORE POP DUP2 ADD SWAP1 PUSH2 0x13DB SWAP2 SWAP1 PUSH2 0x3E27 JUMP JUMPDEST SWAP1 POP PUSH0 PUSH1 0x40 MLOAD DUP1 PUSH2 0x100 ADD PUSH1 0x40 MSTORE DUP1 DUP4 DUP2 MSTORE PUSH1 0x20 ADD DUP9 PUSH1 0x1 PUSH1 0x1 PUSH1 0xA0 SHL SUB AND DUP2 MSTORE PUSH1 0x20 ADD DUP10 PUSH1 0x1 PUSH1 0x1 PUSH1 0xA0 SHL SUB AND DUP2 MSTORE PUSH1 0x20 ADD DUP8 DUP8 DUP1 DUP1 PUSH1 0x1F ADD PUSH1 0x20 DUP1 SWAP2 DIV MUL PUSH1 0x20 ADD PUSH1 0x40 MLOAD SWAP1 DUP2 ADD PUSH1 0x40 MSTORE DUP1 SWAP4 SWAP3 SWAP2 SWAP1 DUP2 DUP2 MSTORE PUSH1 0x20 ADD DUP4 DUP4 DUP1 DUP3 DUP5 CALLDATACOPY PUSH0 SWAP3 ADD DUP3 SWAP1 MSTORE POP SWAP4 DUP6 MSTORE POP POP TIMESTAMP PUSH1 0x20 DUP5 ADD MSTORE POP PUSH1 0x40 DUP1 DUP4 ADD DUP3 SWAP1 MSTORE PUSH1 0x60 DUP4 ADD SWAP2 SWAP1 SWAP2 MSTORE PUSH1 0x80 SWAP1 SWAP2 ADD DUP7 SWAP1 MSTORE PUSH1 0xC SLOAD SWAP1 MLOAD PUSH4 0xF47BE477 PUSH1 0xE0 SHL DUP2 MSTORE SWAP2 SWAP3 POP PUSH1 0x1 PUSH1 0x1 PUSH1 0xA0 SHL SUB AND SWAP1 PUSH4 0xF47BE477 SWAP1 PUSH2 0x1493 SWAP1 DUP5 SWAP1 PUSH1 0x4 ADD PUSH2 0x3CBE JUMP JUMPDEST PUSH0 PUSH1 0x40 MLOAD DUP1 DUP4 SUB DUP2 PUSH0 DUP8 DUP1 EXTCODESIZE ISZERO DUP1 ISZERO PUSH2 0x14AA JUMPI PUSH0 DUP1 REVERT JUMPDEST POP GAS CALL ISZERO DUP1 ISZERO PUSH2 0x14BC JUMPI RETURNDATASIZE PUSH0 DUP1 RETURNDATACOPY RETURNDATASIZE PUSH0 REVERT JUMPDEST POP POP PUSH1 0xD SLOAD PUSH2 0x14D9 SWAP3 POP PUSH1 0x1 PUSH1 0x1 PUSH1 0xA0 SHL SUB AND SWAP1 POP DUP9 ADDRESS DUP8 PUSH2 0x2536 JUMP JUMPDEST DUP7 PUSH1 0x1 PUSH1 0x1 PUSH1 0xA0 SHL SUB AND DUP3 DUP10 PUSH1 0x1 PUSH1 0x1 PUSH1 0xA0 SHL SUB AND PUSH32 0xC18563FF27245B6F08B02ACADBABD8D64917C95F956596F4A216768F8A91BAA1 DUP7 PUSH1 0x40 MLOAD PUSH2 0x1521 SWAP2 ISZERO ISZERO DUP2 MSTORE PUSH1 0x20 ADD SWAP1 JUMP JUMPDEST PUSH1 0x40 MLOAD DUP1 SWAP2 SUB SWAP1 LOG4 POP POP POP POP POP POP POP POP JUMP JUMPDEST PUSH0 PUSH1 0x1 PUSH1 0x1 PUSH1 0xA0 SHL SUB DUP3 AND PUSH2 0x155D JUMPI PUSH1 0x40 MLOAD PUSH4 0x22718AD9 PUSH1 0xE2 SHL DUP2 MSTORE PUSH0 PUSH1 0x4 DUP3 ADD MSTORE PUSH1 0x24 ADD PUSH2 0x6AE JUMP JUMPDEST POP PUSH1 0x1 PUSH1 0x1 PUSH1 0xA0 SHL SUB AND PUSH0 SWAP1 DUP2 MSTORE PUSH1 0x3 PUSH1 0x20 MSTORE PUSH1 0x40 SWAP1 KECCAK256 SLOAD SWAP1 JUMP JUMPDEST PUSH2 0x1580 PUSH2 0x2472 JUMP JUMPDEST PUSH2 0x1589 PUSH0 PUSH2 0x256F JUMP JUMPDEST JUMP JUMPDEST PUSH2 0x1593 PUSH2 0x2472 JUMP JUMPDEST PUSH0 DUP2 SWAP1 POP PUSH0 DUP2 PUSH1 0x1 PUSH1 0x1 PUSH1 0xA0 SHL SUB AND PUSH4 0x18160DDD PUSH1 0x40 MLOAD DUP2 PUSH4 0xFFFFFFFF AND PUSH1 0xE0 SHL DUP2 MSTORE PUSH1 0x4 ADD PUSH1 0x20 PUSH1 0x40 MLOAD DUP1 DUP4 SUB DUP2 DUP7 GAS STATICCALL ISZERO DUP1 ISZERO PUSH2 0x15D4 JUMPI RETURNDATASIZE PUSH0 DUP1 RETURNDATACOPY RETURNDATASIZE PUSH0 REVERT JUMPDEST POP POP POP POP PUSH1 0x40 MLOAD RETURNDATASIZE PUSH1 0x1F NOT PUSH1 0x1F DUP3 ADD AND DUP3 ADD DUP1 PUSH1 0x40 MSTORE POP DUP2 ADD SWAP1 PUSH2 0x15F8 SWAP2 SWAP1 PUSH2 0x3E27 JUMP JUMPDEST SWAP1 POP PUSH0 DUP3 PUSH1 0x1 PUSH1 0x1 PUSH1 0xA0 SHL SUB AND PUSH4 0x8DA5CB5B PUSH1 0x40 MLOAD DUP2 PUSH4 0xFFFFFFFF AND PUSH1 0xE0 SHL DUP2 MSTORE PUSH1 0x4 ADD PUSH1 0x20 PUSH1 0x40 MLOAD DUP1 DUP4 SUB DUP2 PUSH0 DUP8 GAS CALL ISZERO DUP1 ISZERO PUSH2 0x1638 JUMPI RETURNDATASIZE PUSH0 DUP1 RETURNDATACOPY RETURNDATASIZE PUSH0 REVERT JUMPDEST POP POP POP POP PUSH1 0x40 MLOAD RETURNDATASIZE PUSH1 0x1F NOT PUSH1 0x1F DUP3 ADD AND DUP3 ADD DUP1 PUSH1 0x40 MSTORE POP DUP2 ADD SWAP1 PUSH2 0x165C SWAP2 SWAP1 PUSH2 0x3E3E JUMP JUMPDEST PUSH1 0x40 MLOAD PUSH4 0xF2FDE38B PUSH1 0xE0 SHL DUP2 MSTORE ADDRESS PUSH1 0x4 DUP3 ADD MSTORE SWAP1 SWAP2 POP PUSH1 0x1 PUSH1 0x1 PUSH1 0xA0 SHL SUB DUP5 AND SWAP1 PUSH4 0xF2FDE38B SWAP1 PUSH1 0x24 ADD PUSH0 PUSH1 0x40 MLOAD DUP1 DUP4 SUB DUP2 PUSH0 DUP8 DUP1 EXTCODESIZE ISZERO DUP1 ISZERO PUSH2 0x169D JUMPI PUSH0 DUP1 REVERT JUMPDEST POP GAS CALL ISZERO DUP1 ISZERO PUSH2 0x16AF JUMPI RETURNDATASIZE PUSH0 DUP1 RETURNDATACOPY RETURNDATASIZE PUSH0 REVERT JUMPDEST POP POP POP POP PUSH0 JUMPDEST DUP3 DUP2 LT ISZERO PUSH2 0x188B JUMPI PUSH1 0x40 MLOAD PUSH4 0x4F6CCCE7 PUSH1 0xE0 SHL DUP2 MSTORE PUSH1 0x4 DUP2 ADD DUP3 SWAP1 MSTORE PUSH0 SWAP1 PUSH1 0x1 PUSH1 0x1 PUSH1 0xA0 SHL SUB DUP7 AND SWAP1 PUSH4 0x4F6CCCE7 SWAP1 PUSH1 0x24 ADD PUSH1 0x20 PUSH1 0x40 MLOAD DUP1 DUP4 SUB DUP2 DUP7 GAS STATICCALL ISZERO DUP1 ISZERO PUSH2 0x1702 JUMPI RETURNDATASIZE PUSH0 DUP1 RETURNDATACOPY RETURNDATASIZE PUSH0 REVERT JUMPDEST POP POP POP POP PUSH1 0x40 MLOAD RETURNDATASIZE PUSH1 0x1F NOT PUSH1 0x1F DUP3 ADD AND DUP3 ADD DUP1 PUSH1 0x40 MSTORE POP DUP2 ADD SWAP1 PUSH2 0x1726 SWAP2 SWAP1 PUSH2 0x3E27 JUMP JUMPDEST PUSH1 0x40 MLOAD PUSH4 0x31A9108F PUSH1 0xE1 SHL DUP2 MSTORE PUSH1 0x4 DUP2 ADD DUP3 SWAP1 MSTORE SWAP1 SWAP2 POP PUSH0 SWAP1 PUSH1 0x1 PUSH1 0x1 PUSH1 0xA0 SHL SUB DUP8 AND SWAP1 PUSH4 0x6352211E SWAP1 PUSH1 0x24 ADD PUSH1 0x20 PUSH1 0x40 MLOAD DUP1 DUP4 SUB DUP2 DUP7 GAS STATICCALL ISZERO DUP1 ISZERO PUSH2 0x176E JUMPI RETURNDATASIZE PUSH0 DUP1 RETURNDATACOPY RETURNDATASIZE PUSH0 REVERT JUMPDEST POP POP POP POP PUSH1 0x40 MLOAD RETURNDATASIZE PUSH1 0x1F NOT PUSH1 0x1F DUP3 ADD AND DUP3 ADD DUP1 PUSH1 0x40 MSTORE POP DUP2 ADD SWAP1 PUSH2 0x1792 SWAP2 SWAP1 PUSH2 0x3E3E JUMP JUMPDEST SWAP1 POP PUSH1 0x1 PUSH1 0x1 PUSH1 0xA0 SHL SUB DUP2 AND PUSH2 0x17A9 JUMPI POP POP PUSH2 0x1883 JUMP JUMPDEST PUSH1 0x40 MLOAD PUSH4 0xC87B56DD PUSH1 0xE0 SHL DUP2 MSTORE PUSH1 0x4 DUP2 ADD DUP4 SWAP1 MSTORE PUSH0 SWAP1 PUSH1 0x1 PUSH1 0x1 PUSH1 0xA0 SHL SUB DUP9 AND SWAP1 PUSH4 0xC87B56DD SWAP1 PUSH1 0x24 ADD PUSH0 PUSH1 0x40 MLOAD DUP1 DUP4 SUB DUP2 DUP7 GAS STATICCALL ISZERO DUP1 ISZERO PUSH2 0x17ED JUMPI RETURNDATASIZE PUSH0 DUP1 RETURNDATACOPY RETURNDATASIZE PUSH0 REVERT JUMPDEST POP POP POP POP PUSH1 0x40 MLOAD RETURNDATASIZE PUSH0 DUP3 RETURNDATACOPY PUSH1 0x1F RETURNDATASIZE SWAP1 DUP2 ADD PUSH1 0x1F NOT AND DUP3 ADD PUSH1 0x40 MSTORE PUSH2 0x1814 SWAP2 SWAP1 DUP2 ADD SWAP1 PUSH2 0x3E59 JUMP JUMPDEST SWAP1 POP PUSH2 0x1820 DUP3 DUP5 PUSH2 0x25C0 JUMP JUMPDEST PUSH2 0x182A DUP4 DUP3 PUSH2 0x2621 JUMP JUMPDEST PUSH1 0x40 MLOAD PUSH4 0x852CD8D PUSH1 0xE3 SHL DUP2 MSTORE PUSH1 0x4 DUP2 ADD DUP5 SWAP1 MSTORE PUSH1 0x1 PUSH1 0x1 PUSH1 0xA0 SHL SUB DUP9 AND SWAP1 PUSH4 0x42966C68 SWAP1 PUSH1 0x24 ADD PUSH0 PUSH1 0x40 MLOAD DUP1 DUP4 SUB DUP2 PUSH0 DUP8 DUP1 EXTCODESIZE ISZERO DUP1 ISZERO PUSH2 0x1869 JUMPI PUSH0 DUP1 REVERT JUMPDEST POP GAS CALL ISZERO DUP1 ISZERO PUSH2 0x187B JUMPI RETURNDATASIZE PUSH0 DUP1 RETURNDATACOPY RETURNDATASIZE PUSH0 REVERT JUMPDEST POP POP POP POP POP POP POP JUMPDEST PUSH1 0x1 ADD PUSH2 0x16B5 JUMP JUMPDEST POP PUSH1 0x40 MLOAD PUSH4 0xF2FDE38B PUSH1 0xE0 SHL DUP2 MSTORE CALLER PUSH1 0x4 DUP3 ADD MSTORE PUSH1 0x1 PUSH1 0x1 PUSH1 0xA0 SHL SUB DUP5 AND SWAP1 PUSH4 0xF2FDE38B SWAP1 PUSH1 0x24 ADD PUSH0 PUSH1 0x40 MLOAD DUP1 DUP4 SUB DUP2 PUSH0 DUP8 DUP1 EXTCODESIZE ISZERO DUP1 ISZERO PUSH2 0x18CA JUMPI PUSH0 DUP1 REVERT JUMPDEST POP GAS CALL ISZERO DUP1 ISZERO PUSH2 0x18DC JUMPI RETURNDATASIZE PUSH0 DUP1 RETURNDATACOPY RETURNDATASIZE PUSH0 REVERT JUMPDEST POP POP POP POP POP POP POP POP JUMP JUMPDEST PUSH2 0x18EF DUP5 PUSH2 0x1533 JUMP JUMPDEST ISZERO PUSH2 0x193C JUMPI PUSH1 0x40 MLOAD PUSH3 0x461BCD PUSH1 0xE5 SHL DUP2 MSTORE PUSH1 0x20 PUSH1 0x4 DUP3 ADD MSTORE PUSH1 0x1A PUSH1 0x24 DUP3 ADD MSTORE PUSH32 0x416C726561647920686173206D656D62657273686970204E4654000000000000 PUSH1 0x44 DUP3 ADD MSTORE PUSH1 0x64 ADD PUSH2 0x6AE JUMP JUMPDEST PUSH1 0x10 SLOAD DUP2 EQ PUSH2 0x198D JUMPI PUSH1 0x40 MLOAD PUSH3 0x461BCD PUSH1 0xE5 SHL DUP2 MSTORE PUSH1 0x20 PUSH1 0x4 DUP3 ADD MSTORE PUSH1 0x18 PUSH1 0x24 DUP3 ADD MSTORE PUSH32 0x7061792074686520657861637420616D6F756E74202121210000000000000000 PUSH1 0x44 DUP3 ADD MSTORE PUSH1 0x64 ADD PUSH2 0x6AE JUMP JUMPDEST PUSH1 0xE SLOAD PUSH1 0xD SLOAD PUSH2 0x19AC SWAP2 PUSH1 0x1 PUSH1 0x1 PUSH1 0xA0 SHL SUB SWAP2 DUP3 AND SWAP2 CALLER SWAP2 AND DUP5 PUSH2 0x2536 JUMP JUMPDEST PUSH1 0xF DUP1 SLOAD PUSH0 SWAP2 DUP3 PUSH2 0x19BC DUP4 PUSH2 0x3E8A JUMP JUMPDEST SWAP2 SWAP1 POP SSTORE SWAP1 POP PUSH2 0x19CC DUP6 DUP3 PUSH2 0x25C0 JUMP JUMPDEST PUSH2 0x1A0B DUP2 DUP6 DUP6 DUP1 DUP1 PUSH1 0x1F ADD PUSH1 0x20 DUP1 SWAP2 DIV MUL PUSH1 0x20 ADD PUSH1 0x40 MLOAD SWAP1 DUP2 ADD PUSH1 0x40 MSTORE DUP1 SWAP4 SWAP3 SWAP2 SWAP1 DUP2 DUP2 MSTORE PUSH1 0x20 ADD DUP4 DUP4 DUP1 DUP3 DUP5 CALLDATACOPY PUSH0 SWAP3 ADD SWAP2 SWAP1 SWAP2 MSTORE POP PUSH2 0x2621 SWAP3 POP POP POP JUMP JUMPDEST PUSH2 0x1A16 ADDRESS DUP3 DUP8 PUSH2 0x2451 JUMP JUMPDEST PUSH0 PUSH1 0x40 MLOAD DUP1 PUSH1 0xE0 ADD PUSH1 0x40 MSTORE DUP1 DUP8 PUSH1 0x1 PUSH1 0x1 PUSH1 0xA0 SHL SUB AND DUP2 MSTORE PUSH1 0x20 ADD PUSH0 PUSH1 0x1 PUSH1 0x1 PUSH1 0xA0 SHL SUB AND DUP2 MSTORE PUSH1 0x20 ADD DUP4 DUP2 MSTORE PUSH1 0x20 ADD DUP7 DUP7 DUP1 DUP1 PUSH1 0x1F ADD PUSH1 0x20 DUP1 SWAP2 DIV MUL PUSH1 0x20 ADD PUSH1 0x40 MLOAD SWAP1 DUP2 ADD PUSH1 0x40 MSTORE DUP1 SWAP4 SWAP3 SWAP2 SWAP1 DUP2 DUP2 MSTORE PUSH1 0x20 ADD DUP4 DUP4 DUP1 DUP3 DUP5 CALLDATACOPY PUSH0 SWAP3 ADD DUP3 SWAP1 MSTORE POP SWAP4 DUP6 MSTORE POP POP TIMESTAMP PUSH1 0x20 DUP5 ADD MSTORE POP PUSH1 0x40 DUP1 DUP4 ADD SWAP2 SWAP1 SWAP2 MSTORE PUSH1 0x1 PUSH1 0x60 SWAP1 SWAP3 ADD SWAP2 SWAP1 SWAP2 MSTORE PUSH1 0xC SLOAD SWAP1 MLOAD PUSH4 0xAF947D05 PUSH1 0xE0 SHL DUP2 MSTORE SWAP2 SWAP3 POP PUSH1 0x1 PUSH1 0x1 PUSH1 0xA0 SHL SUB AND SWAP1 PUSH4 0xAF947D05 SWAP1 PUSH2 0x1AC7 SWAP1 DUP5 SWAP1 PUSH1 0x4 ADD PUSH2 0x38DB JUMP JUMPDEST PUSH0 PUSH1 0x40 MLOAD DUP1 DUP4 SUB DUP2 PUSH0 DUP8 DUP1 EXTCODESIZE ISZERO DUP1 ISZERO PUSH2 0x1ADE JUMPI PUSH0 DUP1 REVERT JUMPDEST POP GAS CALL ISZERO DUP1 ISZERO PUSH2 0x1AF0 JUMPI RETURNDATASIZE PUSH0 DUP1 RETURNDATACOPY RETURNDATASIZE PUSH0 REVERT JUMPDEST POP POP PUSH1 0x40 MLOAD DUP5 SWAP3 POP PUSH1 0x1 PUSH1 0x1 PUSH1 0xA0 SHL SUB DUP10 AND SWAP2 POP PUSH32 0xFF8D95AF74A8C072247E3C2B5E73AB929E2EB87E62682F83F5707BC5BC4A759 SWAP1 PUSH0 SWAP1 LOG3 POP POP POP POP POP POP JUMP JUMPDEST PUSH1 0x60 PUSH1 0x1 DUP1 SLOAD PUSH2 0x5D2 SWAP1 PUSH2 0x3780 JUMP JUMPDEST PUSH2 0x1B48 PUSH2 0x2472 JUMP JUMPDEST PUSH1 0x40 MLOAD PUSH4 0x428178E1 PUSH1 0xE1 SHL DUP2 MSTORE PUSH1 0x1 PUSH1 0x1 PUSH1 0xA0 SHL SUB DUP3 AND PUSH1 0x4 DUP3 ADD MSTORE ADDRESS SWAP1 PUSH4 0x8502F1C2 SWAP1 PUSH1 0x24 ADD PUSH0 PUSH1 0x40 MLOAD DUP1 DUP4 SUB DUP2 PUSH0 DUP8 DUP1 EXTCODESIZE ISZERO DUP1 ISZERO PUSH2 0x1B86 JUMPI PUSH0 DUP1 REVERT JUMPDEST POP GAS CALL ISZERO DUP1 ISZERO PUSH2 0x1B98 JUMPI RETURNDATASIZE PUSH0 DUP1 RETURNDATACOPY RETURNDATASIZE PUSH0 REVERT JUMPDEST POP POP PUSH1 0x40 MLOAD PUSH4 0x7216EF17 PUSH1 0xE1 SHL DUP2 MSTORE PUSH1 0x1 PUSH1 0x1 PUSH1 0xA0 SHL SUB DUP5 AND PUSH1 0x4 DUP3 ADD MSTORE ADDRESS SWAP3 POP PUSH4 0xE42DDE2E SWAP2 POP PUSH1 0x24 ADD PUSH0 PUSH1 0x40 MLOAD DUP1 DUP4 SUB DUP2 PUSH0 DUP8 DUP1 EXTCODESIZE ISZERO DUP1 ISZERO PUSH2 0x1BDA JUMPI PUSH0 DUP1 REVERT JUMPDEST POP GAS CALL ISZERO DUP1 ISZERO PUSH2 0x1BEC JUMPI RETURNDATASIZE PUSH0 DUP1 RETURNDATACOPY RETURNDATASIZE PUSH0 REVERT JUMPDEST POP POP POP POP POP JUMP JUMPDEST PUSH2 0x685 CALLER DUP4 DUP4 PUSH2 0x2670 JUMP JUMPDEST PUSH1 0xC SLOAD PUSH1 0x40 MLOAD PUSH4 0x288C3149 PUSH1 0xE2 SHL DUP2 MSTORE PUSH1 0x1 PUSH1 0x1 PUSH1 0xA0 SHL SUB DUP4 DUP2 AND PUSH1 0x4 DUP4 ADD MSTORE PUSH0 SWAP3 AND SWAP1 PUSH4 0xA230C524 SWAP1 PUSH1 0x24 ADD PUSH2 0x1226 JUMP JUMPDEST PUSH1 0xB SLOAD PUSH1 0x1 PUSH1 0x1 PUSH1 0xA0 SHL SUB AND CALLER EQ PUSH2 0x1C9D JUMPI PUSH1 0x40 MLOAD PUSH3 0x461BCD PUSH1 0xE5 SHL DUP2 MSTORE PUSH1 0x20 PUSH1 0x4 DUP3 ADD MSTORE PUSH1 0x2A PUSH1 0x24 DUP3 ADD MSTORE PUSH32 0x556E617574686F72697A65643A204F6E6C79206F776E65722063616E20757064 PUSH1 0x44 DUP3 ADD MSTORE PUSH10 0x61746520737461747573 PUSH1 0xB0 SHL PUSH1 0x64 DUP3 ADD MSTORE PUSH1 0x84 ADD PUSH2 0x6AE JUMP JUMPDEST PUSH1 0xC SLOAD PUSH1 0x40 MLOAD PUSH4 0xA6C6A8F3 PUSH1 0xE0 SHL DUP2 MSTORE PUSH1 0x4 DUP2 ADD DUP5 SWAP1 MSTORE PUSH0 SWAP2 PUSH1 0x1 PUSH1 0x1 PUSH1 0xA0 SHL SUB AND SWAP1 PUSH4 0xA6C6A8F3 SWAP1 PUSH1 0x24 ADD PUSH0 PUSH1 0x40 MLOAD DUP1 DUP4 SUB DUP2 DUP7 GAS STATICCALL ISZERO DUP1 ISZERO PUSH2 0x1CE3 JUMPI RETURNDATASIZE PUSH0 DUP1 RETURNDATACOPY RETURNDATASIZE PUSH0 REVERT JUMPDEST POP POP POP POP PUSH1 0x40 MLOAD RETURNDATASIZE PUSH0 DUP3 RETURNDATACOPY PUSH1 0x1F RETURNDATASIZE SWAP1 DUP2 ADD PUSH1 0x1F NOT AND DUP3 ADD PUSH1 0x40 MSTORE PUSH2 0x1D0A SWAP2 SWAP1 DUP2 ADD SWAP1 PUSH2 0x402E JUMP JUMPDEST DUP1 MLOAD SWAP1 SWAP2 POP PUSH0 SUB PUSH2 0x1D5D JUMPI PUSH1 0x40 MLOAD PUSH3 0x461BCD PUSH1 0xE5 SHL DUP2 MSTORE PUSH1 0x20 PUSH1 0x4 DUP3 ADD MSTORE PUSH1 0x17 PUSH1 0x24 DUP3 ADD MSTORE PUSH32 0x496E636964656E7420646F6573206E6F74206578697374000000000000000000 PUSH1 0x44 DUP3 ADD MSTORE PUSH1 0x64 ADD PUSH2 0x6AE JUMP JUMPDEST DUP2 PUSH1 0xFF AND PUSH1 0x2 DUP2 GT ISZERO PUSH2 0x1D72 JUMPI PUSH2 0x1D72 PUSH2 0x4134 JUMP JUMPDEST DUP2 PUSH1 0x80 ADD SWAP1 PUSH1 0x2 DUP2 GT ISZERO PUSH2 0x1D88 JUMPI PUSH2 0x1D88 PUSH2 0x4134 JUMP JUMPDEST SWAP1 DUP2 PUSH1 0x2 DUP2 GT ISZERO PUSH2 0x1D9B JUMPI PUSH2 0x1D9B PUSH2 0x4134 JUMP JUMPDEST SWAP1 MSTORE POP CALLER PUSH1 0xA0 DUP3 ADD MSTORE PUSH1 0xC SLOAD PUSH1 0x40 MLOAD PUSH4 0xA599681F PUSH1 0xE0 SHL DUP2 MSTORE PUSH1 0x1 PUSH1 0x1 PUSH1 0xA0 SHL SUB SWAP1 SWAP2 AND SWAP1 PUSH4 0xA599681F SWAP1 PUSH2 0x1DD4 SWAP1 DUP5 SWAP1 PUSH1 0x4 ADD PUSH2 0x41B6 JUMP JUMPDEST PUSH0 PUSH1 0x40 MLOAD DUP1 DUP4 SUB DUP2 PUSH0 DUP8 DUP1 EXTCODESIZE ISZERO DUP1 ISZERO PUSH2 0x1DEB JUMPI PUSH0 DUP1 REVERT JUMPDEST POP GAS CALL ISZERO DUP1 ISZERO PUSH2 0x1DFD JUMPI RETURNDATASIZE PUSH0 DUP1 RETURNDATACOPY RETURNDATASIZE PUSH0 REVERT JUMPDEST POP POP PUSH1 0x40 MLOAD PUSH1 0xFF DUP6 AND DUP2 MSTORE CALLER SWAP3 POP DUP6 SWAP2 POP PUSH32 0x1203445AFE71A7457FEDFE3ED5F7DFBCEFAC21AEACEE1BAF8AF2B4639FBFDBEB SWAP1 PUSH1 0x20 ADD JUMPDEST PUSH1 0x40 MLOAD DUP1 SWAP2 SUB SWAP1 LOG3 POP POP POP JUMP JUMPDEST PUSH1 0xB SLOAD PUSH1 0x1 PUSH1 0x1 PUSH1 0xA0 SHL SUB AND CALLER EQ PUSH2 0x1EA7 JUMPI PUSH1 0x40 MLOAD PUSH3 0x461BCD PUSH1 0xE5 SHL DUP2 MSTORE PUSH1 0x20 PUSH1 0x4 DUP3 ADD MSTORE PUSH1 0x23 PUSH1 0x24 DUP3 ADD MSTORE PUSH32 0x556E617574686F72697A65643A204F6E6C79206F776E65722063616E20726577 PUSH1 0x44 DUP3 ADD MSTORE PUSH3 0x185C99 PUSH1 0xEA SHL PUSH1 0x64 DUP3 ADD MSTORE PUSH1 0x84 ADD PUSH2 0x6AE JUMP JUMPDEST PUSH1 0xD SLOAD PUSH2 0x1EBE SWAP1 PUSH1 0x1 PUSH1 0x1 PUSH1 0xA0 SHL SUB AND DUP5 DUP4 PUSH2 0x24D7 JUMP JUMPDEST PUSH1 0x40 DUP1 MLOAD DUP3 DUP2 MSTORE PUSH1 0x20 DUP2 ADD DUP5 SWAP1 MSTORE PUSH1 0x1 PUSH1 0x1 PUSH1 0xA0 SHL SUB DUP6 AND SWAP2 PUSH32 0x9BC545157F97CA1D7D6020A624C818E914739C4A4F4203F263439ED019AC270 SWAP2 ADD PUSH1 0x40 MLOAD DUP1 SWAP2 SUB SWAP1 LOG2 POP POP POP JUMP JUMPDEST PUSH2 0x1F12 DUP5 DUP5 DUP5 PUSH2 0x689 JUMP JUMPDEST PUSH2 0x711 CALLER DUP6 DUP6 DUP6 DUP6 PUSH2 0x2706 JUMP JUMPDEST PUSH1 0x60 PUSH2 0x5BE DUP3 PUSH2 0x282D JUMP JUMPDEST PUSH2 0x108F PUSH2 0x2472 JUMP JUMPDEST PUSH1 0xC SLOAD PUSH1 0x40 MLOAD PUSH4 0x8BFEFFE5 PUSH1 0xE0 SHL DUP2 MSTORE PUSH1 0x1 PUSH1 0x1 PUSH1 0xA0 SHL SUB DUP4 DUP2 AND PUSH1 0x4 DUP4 ADD MSTORE PUSH1 0x60 SWAP3 PUSH0 SWAP3 SWAP2 AND SWAP1 PUSH4 0x8BFEFFE5 SWAP1 PUSH1 0x24 ADD PUSH0 PUSH1 0x40 MLOAD DUP1 DUP4 SUB DUP2 DUP7 GAS STATICCALL ISZERO DUP1 ISZERO PUSH2 0x1F7D JUMPI RETURNDATASIZE PUSH0 DUP1 RETURNDATACOPY RETURNDATASIZE PUSH0 REVERT JUMPDEST POP POP POP POP PUSH1 0x40 MLOAD RETURNDATASIZE PUSH0 DUP3 RETURNDATACOPY PUSH1 0x1F RETURNDATASIZE SWAP1 DUP2 ADD PUSH1 0x1F NOT AND DUP3 ADD PUSH1 0x40 MSTORE PUSH2 0x1FA4 SWAP2 SWAP1 DUP2 ADD SWAP1 PUSH2 0x4266 JUMP JUMPDEST POP SWAP4 SWAP3 POP POP POP JUMP JUMPDEST PUSH2 0x1FB4 PUSH2 0x2472 JUMP JUMPDEST PUSH1 0xD SLOAD PUSH1 0x40 MLOAD PUSH4 0x70A08231 PUSH1 0xE0 SHL DUP2 MSTORE ADDRESS PUSH1 0x4 DUP3 ADD MSTORE PUSH0 SWAP2 PUSH1 0x1 PUSH1 0x1 PUSH1 0xA0 SHL SUB AND SWAP1 PUSH4 0x70A08231 SWAP1 PUSH1 0x24 ADD PUSH1 0x20 PUSH1 0x40 MLOAD DUP1 DUP4 SUB DUP2 DUP7 GAS STATICCALL ISZERO DUP1 ISZERO PUSH2 0x1FFA JUMPI RETURNDATASIZE PUSH0 DUP1 RETURNDATACOPY RETURNDATASIZE PUSH0 REVERT JUMPDEST POP POP POP POP PUSH1 0x40 MLOAD RETURNDATASIZE PUSH1 0x1F NOT PUSH1 0x1F DUP3 ADD AND DUP3 ADD DUP1 PUSH1 0x40 MSTORE POP DUP2 ADD SWAP1 PUSH2 0x201E SWAP2 SWAP1 PUSH2 0x3E27 JUMP JUMPDEST SWAP1 POP PUSH0 DUP2 GT PUSH2 0x206F JUMPI PUSH1 0x40 MLOAD PUSH3 0x461BCD PUSH1 0xE5 SHL DUP2 MSTORE PUSH1 0x20 PUSH1 0x4 DUP3 ADD MSTORE PUSH1 0x1C PUSH1 0x24 DUP3 ADD MSTORE PUSH32 0x4E6F20746F6B656E2062616C616E636520746F207472616E7366657200000000 PUSH1 0x44 DUP3 ADD MSTORE PUSH1 0x64 ADD PUSH2 0x6AE JUMP JUMPDEST PUSH1 0xD SLOAD PUSH1 0x40 MLOAD PUSH4 0xA9059CBB PUSH1 0xE0 SHL DUP2 MSTORE PUSH1 0x1 PUSH1 0x1 PUSH1 0xA0 SHL SUB DUP5 DUP2 AND PUSH1 0x4 DUP4 ADD MSTORE PUSH1 0x24 DUP3 ADD DUP5 SWAP1 MSTORE PUSH0 SWAP3 AND SWAP1 PUSH4 0xA9059CBB SWAP1 PUSH1 0x44 ADD PUSH1 0x20 PUSH1 0x40 MLOAD DUP1 DUP4 SUB DUP2 PUSH0 DUP8 GAS CALL ISZERO DUP1 ISZERO PUSH2 0x20BF JUMPI RETURNDATASIZE PUSH0 DUP1 RETURNDATACOPY RETURNDATASIZE PUSH0 REVERT JUMPDEST POP POP POP POP PUSH1 0x40 MLOAD RETURNDATASIZE PUSH1 0x1F NOT PUSH1 0x1F DUP3 ADD AND DUP3 ADD DUP1 PUSH1 0x40 MSTORE POP DUP2 ADD SWAP1 PUSH2 0x20E3 SWAP2 SWAP1 PUSH2 0x3AAC JUMP JUMPDEST SWAP1 POP DUP1 PUSH2 0x988 JUMPI PUSH1 0x40 MLOAD PUSH3 0x461BCD PUSH1 0xE5 SHL DUP2 MSTORE PUSH1 0x20 PUSH1 0x4 DUP3 ADD MSTORE PUSH1 0x15 PUSH1 0x24 DUP3 ADD MSTORE PUSH21 0x151BDAD95B881D1C985B9CD9995C8819985A5B1959 PUSH1 0x5A SHL PUSH1 0x44 DUP3 ADD MSTORE PUSH1 0x64 ADD PUSH2 0x6AE JUMP JUMPDEST PUSH1 0x1 PUSH1 0x1 PUSH1 0xA0 SHL SUB SWAP2 DUP3 AND PUSH0 SWAP1 DUP2 MSTORE PUSH1 0x5 PUSH1 0x20 SWAP1 DUP2 MSTORE PUSH1 0x40 DUP1 DUP4 KECCAK256 SWAP4 SWAP1 SWAP5 AND DUP3 MSTORE SWAP2 SWAP1 SWAP2 MSTORE KECCAK256 SLOAD PUSH1 0xFF AND SWAP1 JUMP JUMPDEST PUSH1 0xC SLOAD PUSH1 0x40 MLOAD PUSH4 0x22B92C3 PUSH1 0xE2 SHL DUP2 MSTORE PUSH1 0x1 PUSH1 0x1 PUSH1 0xA0 SHL SUB DUP4 DUP2 AND PUSH1 0x4 DUP4 ADD MSTORE PUSH0 SWAP3 AND SWAP1 PUSH4 0x8AE4B0C SWAP1 PUSH1 0x24 ADD PUSH0 PUSH1 0x40 MLOAD DUP1 DUP4 SUB DUP2 DUP7 GAS STATICCALL ISZERO DUP1 ISZERO PUSH2 0x219E JUMPI RETURNDATASIZE PUSH0 DUP1 RETURNDATACOPY RETURNDATASIZE PUSH0 REVERT JUMPDEST POP POP POP POP PUSH1 0x40 MLOAD RETURNDATASIZE PUSH0 DUP3 RETURNDATACOPY PUSH1 0x1F RETURNDATASIZE SWAP1 DUP2 ADD PUSH1 0x1F NOT AND DUP3 ADD PUSH1 0x40 MSTORE PUSH2 0x21C5 SWAP2 SWAP1 DUP2 ADD SWAP1 PUSH2 0x3820 JUMP JUMPDEST PUSH1 0x20 ADD MLOAD SWAP3 SWAP2 POP POP JUMP JUMPDEST PUSH1 0xC SLOAD PUSH1 0x40 DUP1 MLOAD PUSH4 0x5CC6A2D PUSH1 0xE1 SHL DUP2 MSTORE SWAP1 MLOAD PUSH0 SWAP3 PUSH1 0x1 PUSH1 0x1 PUSH1 0xA0 SHL SUB AND SWAP2 PUSH4 0xB98D45A SWAP2 PUSH1 0x4 DUP1 DUP4 ADD SWAP3 PUSH1 0x20 SWAP3 SWAP2 SWAP1 DUP3 SWAP1 SUB ADD DUP2 DUP8 DUP8 GAS CALL ISZERO DUP1 ISZERO PUSH2 0x2217 JUMPI RETURNDATASIZE PUSH0 DUP1 RETURNDATACOPY RETURNDATASIZE PUSH0 REVERT JUMPDEST POP POP POP POP PUSH1 0x40 MLOAD RETURNDATASIZE PUSH1 0x1F NOT PUSH1 0x1F DUP3 ADD AND DUP3 ADD DUP1 PUSH1 0x40 MSTORE POP DUP2 ADD SWAP1 PUSH2 0x223B SWAP2 SWAP1 PUSH2 0x3E27 JUMP JUMPDEST SWAP1 POP PUSH0 PUSH1 0x40 MLOAD DUP1 PUSH2 0x100 ADD PUSH1 0x40 MSTORE DUP1 DUP4 DUP2 MSTORE PUSH1 0x20 ADD CALLER PUSH1 0x1 PUSH1 0x1 PUSH1 0xA0 SHL SUB AND DUP2 MSTORE PUSH1 0x20 ADD DUP8 DUP8 DUP1 DUP1 PUSH1 0x1F ADD PUSH1 0x20 DUP1 SWAP2 DIV MUL PUSH1 0x20 ADD PUSH1 0x40 MLOAD SWAP1 DUP2 ADD PUSH1 0x40 MSTORE DUP1 SWAP4 SWAP3 SWAP2 SWAP1 DUP2 DUP2 MSTORE PUSH1 0x20 ADD DUP4 DUP4 DUP1 DUP3 DUP5 CALLDATACOPY PUSH0 SWAP3 ADD DUP3 SWAP1 MSTORE POP SWAP4 DUP6 MSTORE POP POP TIMESTAMP PUSH1 0x20 DUP1 DUP6 ADD SWAP2 SWAP1 SWAP2 MSTORE PUSH1 0x40 DUP1 DUP6 ADD DUP5 SWAP1 MSTORE PUSH1 0x60 DUP6 ADD DUP5 SWAP1 MSTORE DUP1 MLOAD DUP5 DUP2 MSTORE SWAP2 DUP3 ADD SWAP1 MSTORE PUSH1 0x80 SWAP1 SWAP4 ADD SWAP3 SWAP2 SWAP1 POP PUSH2 0x230B JUMP JUMPDEST PUSH2 0x22F8 PUSH1 0x40 MLOAD DUP1 PUSH1 0x80 ADD PUSH1 0x40 MSTORE DUP1 PUSH0 PUSH1 0x1 PUSH1 0x1 PUSH1 0xA0 SHL SUB AND DUP2 MSTORE PUSH1 0x20 ADD PUSH0 DUP2 MSTORE PUSH1 0x20 ADD PUSH1 0x60 DUP2 MSTORE PUSH1 0x20 ADD PUSH1 0x60 DUP2 MSTORE POP SWAP1 JUMP JUMPDEST DUP2 MSTORE PUSH1 0x20 ADD SWAP1 PUSH1 0x1 SWAP1 SUB SWAP1 DUP2 PUSH2 0x22C6 JUMPI SWAP1 POP JUMPDEST POP DUP2 MSTORE PUSH1 0x20 ADD PUSH2 0x231B DUP6 DUP8 PUSH2 0x3973 JUMP JUMPDEST SWAP1 MSTORE PUSH1 0xC SLOAD PUSH1 0x40 MLOAD PUSH4 0xA599681F PUSH1 0xE0 SHL DUP2 MSTORE SWAP2 SWAP3 POP PUSH1 0x1 PUSH1 0x1 PUSH1 0xA0 SHL SUB AND SWAP1 PUSH4 0xA599681F SWAP1 PUSH2 0x234E SWAP1 DUP5 SWAP1 PUSH1 0x4 ADD PUSH2 0x41B6 JUMP JUMPDEST PUSH0 PUSH1 0x40 MLOAD DUP1 DUP4 SUB DUP2 PUSH0 DUP8 DUP1 EXTCODESIZE ISZERO DUP1 ISZERO PUSH2 0x2365 JUMPI PUSH0 DUP1 REVERT JUMPDEST POP GAS CALL ISZERO DUP1 ISZERO PUSH2 0x2377 JUMPI RETURNDATASIZE PUSH0 DUP1 RETURNDATACOPY RETURNDATASIZE PUSH0 REVERT JUMPDEST POP POP PUSH1 0x40 MLOAD TIMESTAMP DUP2 MSTORE CALLER SWAP3 POP DUP5 SWAP2 POP PUSH32 0x159EAE2587974B857C8B28D8D49D8CCA50CC87FC9B0BD9BD76467F77AAF5C8B6 SWAP1 PUSH1 0x20 ADD PUSH1 0x40 MLOAD DUP1 SWAP2 SUB SWAP1 LOG3 POP SWAP5 SWAP4 POP POP POP POP JUMP JUMPDEST PUSH2 0x23C3 PUSH2 0x2472 JUMP JUMPDEST PUSH1 0x1 PUSH1 0x1 PUSH1 0xA0 SHL SUB DUP2 AND PUSH2 0x23EC JUMPI PUSH1 0x40 MLOAD PUSH4 0x1E4FBDF7 PUSH1 0xE0 SHL DUP2 MSTORE PUSH0 PUSH1 0x4 DUP3 ADD MSTORE PUSH1 0x24 ADD PUSH2 0x6AE JUMP JUMPDEST PUSH2 0x99E DUP2 PUSH2 0x256F JUMP JUMPDEST PUSH0 PUSH1 0x1 PUSH1 0x1 PUSH1 0xE0 SHL SUB NOT DUP3 AND PUSH4 0x24832483 PUSH1 0xE1 SHL EQ DUP1 PUSH2 0x5BE JUMPI POP PUSH2 0x5BE DUP3 PUSH2 0x2930 JUMP JUMPDEST PUSH0 DUP2 DUP2 MSTORE PUSH1 0x2 PUSH1 0x20 MSTORE PUSH1 0x40 DUP2 KECCAK256 SLOAD PUSH1 0x1 PUSH1 0x1 PUSH1 0xA0 SHL SUB AND DUP1 PUSH2 0x5BE JUMPI PUSH1 0x40 MLOAD PUSH4 0x7E273289 PUSH1 0xE0 SHL DUP2 MSTORE PUSH1 0x4 DUP2 ADD DUP5 SWAP1 MSTORE PUSH1 0x24 ADD PUSH2 0x6AE JUMP JUMPDEST PUSH2 0x988 DUP4 DUP4 DUP4 PUSH1 0x1 PUSH2 0x2954 JUMP JUMPDEST PUSH0 PUSH2 0x246A DUP5 DUP5 DUP5 PUSH2 0x2A58 JUMP JUMPDEST SWAP5 SWAP4 POP POP POP POP JUMP JUMPDEST PUSH1 0xB SLOAD PUSH1 0x1 PUSH1 0x1 PUSH1 0xA0 SHL SUB AND CALLER EQ PUSH2 0x1589 JUMPI PUSH1 0x40 MLOAD PUSH4 0x118CDAA7 PUSH1 0xE0 SHL DUP2 MSTORE CALLER PUSH1 0x4 DUP3 ADD MSTORE PUSH1 0x24 ADD PUSH2 0x6AE JUMP JUMPDEST PUSH0 PUSH2 0x24AB PUSH0 DUP4 PUSH0 PUSH2 0x245E JUMP JUMPDEST SWAP1 POP PUSH1 0x1 PUSH1 0x1 PUSH1 0xA0 SHL SUB DUP2 AND PUSH2 0x685 JUMPI PUSH1 0x40 MLOAD PUSH4 0x7E273289 PUSH1 0xE0 SHL DUP2 MSTORE PUSH1 0x4 DUP2 ADD DUP4 SWAP1 MSTORE PUSH1 0x24 ADD PUSH2 0x6AE JUMP JUMPDEST PUSH1 0x40 MLOAD PUSH1 0x1 PUSH1 0x1 PUSH1 0xA0 SHL SUB DUP4 DUP2 AND PUSH1 0x24 DUP4 ADD MSTORE PUSH1 0x44 DUP3 ADD DUP4 SWAP1 MSTORE PUSH2 0x988 SWAP2 DUP6 SWAP2 DUP3 AND SWAP1 PUSH4 0xA9059CBB SWAP1 PUSH1 0x64 ADD JUMPDEST PUSH1 0x40 MLOAD PUSH1 0x20 DUP2 DUP4 SUB SUB DUP2 MSTORE SWAP1 PUSH1 0x40 MSTORE SWAP2 POP PUSH1 0xE0 SHL PUSH1 0x20 DUP3 ADD DUP1 MLOAD PUSH1 0x1 PUSH1 0x1 PUSH1 0xE0 SHL SUB DUP4 DUP2 DUP4 AND OR DUP4 MSTORE POP POP POP POP PUSH2 0x2B23 JUMP JUMPDEST PUSH1 0x40 MLOAD PUSH1 0x1 PUSH1 0x1 PUSH1 0xA0 SHL SUB DUP5 DUP2 AND PUSH1 0x24 DUP4 ADD MSTORE DUP4 DUP2 AND PUSH1 0x44 DUP4 ADD MSTORE PUSH1 0x64 DUP3 ADD DUP4 SWAP1 MSTORE PUSH2 0x711 SWAP2 DUP7 SWAP2 DUP3 AND SWAP1 PUSH4 0x23B872DD SWAP1 PUSH1 0x84 ADD PUSH2 0x2504 JUMP JUMPDEST PUSH1 0xB DUP1 SLOAD PUSH1 0x1 PUSH1 0x1 PUSH1 0xA0 SHL SUB DUP4 DUP2 AND PUSH1 0x1 PUSH1 0x1 PUSH1 0xA0 SHL SUB NOT DUP4 AND DUP2 OR SWAP1 SWAP4 SSTORE PUSH1 0x40 MLOAD SWAP2 AND SWAP2 SWAP1 DUP3 SWAP1 PUSH32 0x8BE0079C531659141344CD1FD0A4F28419497F9722A3DAAFE3B4186F6B6457E0 SWAP1 PUSH0 SWAP1 LOG3 POP POP JUMP JUMPDEST PUSH1 0x1 PUSH1 0x1 PUSH1 0xA0 SHL SUB DUP3 AND PUSH2 0x25E9 JUMPI PUSH1 0x40 MLOAD PUSH4 0x32505749 PUSH1 0xE1 SHL DUP2 MSTORE PUSH0 PUSH1 0x4 DUP3 ADD MSTORE PUSH1 0x24 ADD PUSH2 0x6AE JUMP JUMPDEST PUSH0 PUSH2 0x25F5 DUP4 DUP4 PUSH0 PUSH2 0x245E JUMP JUMPDEST SWAP1 POP PUSH1 0x1 PUSH1 0x1 PUSH1 0xA0 SHL SUB DUP2 AND ISZERO PUSH2 0x988 JUMPI PUSH1 0x40 MLOAD PUSH4 0x39E35637 PUSH1 0xE1 SHL DUP2 MSTORE PUSH0 PUSH1 0x4 DUP3 ADD MSTORE PUSH1 0x24 ADD PUSH2 0x6AE JUMP JUMPDEST PUSH0 DUP3 DUP2 MSTORE PUSH1 0xA PUSH1 0x20 MSTORE PUSH1 0x40 SWAP1 KECCAK256 PUSH2 0x2638 DUP3 DUP3 PUSH2 0x430D JUMP JUMPDEST POP PUSH1 0x40 MLOAD DUP3 DUP2 MSTORE PUSH32 0xF8E1A15ABA9398E019F0B49DF1A4FDE98EE17AE345CB5F6B5E2C27F5033E8CE7 SWAP1 PUSH1 0x20 ADD PUSH1 0x40 MLOAD DUP1 SWAP2 SUB SWAP1 LOG1 POP POP JUMP JUMPDEST PUSH1 0x1 PUSH1 0x1 PUSH1 0xA0 SHL SUB DUP3 AND PUSH2 0x26A2 JUMPI PUSH1 0x40 MLOAD PUSH4 0xB611743 PUSH1 0xE3 SHL DUP2 MSTORE PUSH1 0x1 PUSH1 0x1 PUSH1 0xA0 SHL SUB DUP4 AND PUSH1 0x4 DUP3 ADD MSTORE PUSH1 0x24 ADD PUSH2 0x6AE JUMP JUMPDEST PUSH1 0x1 PUSH1 0x1 PUSH1 0xA0 SHL SUB DUP4 DUP2 AND PUSH0 DUP2 DUP2 MSTORE PUSH1 0x5 PUSH1 0x20 SWAP1 DUP2 MSTORE PUSH1 0x40 DUP1 DUP4 KECCAK256 SWAP5 DUP8 AND DUP1 DUP5 MSTORE SWAP5 DUP3 MSTORE SWAP2 DUP3 SWAP1 KECCAK256 DUP1 SLOAD PUSH1 0xFF NOT AND DUP7 ISZERO ISZERO SWAP1 DUP2 OR SWAP1 SWAP2 SSTORE SWAP2 MLOAD SWAP2 DUP3 MSTORE PUSH32 0x17307EAB39AB6107E8899845AD3D59BD9653F200F220920489CA2B5937696C31 SWAP2 ADD PUSH2 0x1E34 JUMP JUMPDEST PUSH1 0x1 PUSH1 0x1 PUSH1 0xA0 SHL SUB DUP4 AND EXTCODESIZE ISZERO PUSH2 0x1BEC JUMPI PUSH1 0x40 MLOAD PUSH4 0xA85BD01 PUSH1 0xE1 SHL DUP2 MSTORE PUSH1 0x1 PUSH1 0x1 PUSH1 0xA0 SHL SUB DUP5 AND SWAP1 PUSH4 0x150B7A02 SWAP1 PUSH2 0x2748 SWAP1 DUP9 SWAP1 DUP9 SWAP1 DUP8 SWAP1 DUP8 SWAP1 PUSH1 0x4 ADD PUSH2 0x43C7 JUMP JUMPDEST PUSH1 0x20 PUSH1 0x40 MLOAD DUP1 DUP4 SUB DUP2 PUSH0 DUP8 GAS CALL SWAP3 POP POP POP DUP1 ISZERO PUSH2 0x2782 JUMPI POP PUSH1 0x40 DUP1 MLOAD PUSH1 0x1F RETURNDATASIZE SWAP1 DUP2 ADD PUSH1 0x1F NOT AND DUP3 ADD SWAP1 SWAP3 MSTORE PUSH2 0x277F SWAP2 DUP2 ADD SWAP1 PUSH2 0x4403 JUMP JUMPDEST PUSH1 0x1 JUMPDEST PUSH2 0x27E9 JUMPI RETURNDATASIZE DUP1 DUP1 ISZERO PUSH2 0x27AF JUMPI PUSH1 0x40 MLOAD SWAP2 POP PUSH1 0x1F NOT PUSH1 0x3F RETURNDATASIZE ADD AND DUP3 ADD PUSH1 0x40 MSTORE RETURNDATASIZE DUP3 MSTORE RETURNDATASIZE PUSH0 PUSH1 0x20 DUP5 ADD RETURNDATACOPY PUSH2 0x27B4 JUMP JUMPDEST PUSH1 0x60 SWAP2 POP JUMPDEST POP DUP1 MLOAD PUSH0 SUB PUSH2 0x27E1 JUMPI PUSH1 0x40 MLOAD PUSH4 0x32505749 PUSH1 0xE1 SHL DUP2 MSTORE PUSH1 0x1 PUSH1 0x1 PUSH1 0xA0 SHL SUB DUP6 AND PUSH1 0x4 DUP3 ADD MSTORE PUSH1 0x24 ADD PUSH2 0x6AE JUMP JUMPDEST DUP1 MLOAD DUP2 PUSH1 0x20 ADD REVERT JUMPDEST PUSH1 0x1 PUSH1 0x1 PUSH1 0xE0 SHL SUB NOT DUP2 AND PUSH4 0xA85BD01 PUSH1 0xE1 SHL EQ PUSH2 0x2825 JUMPI PUSH1 0x40 MLOAD PUSH4 0x32505749 PUSH1 0xE1 SHL DUP2 MSTORE PUSH1 0x1 PUSH1 0x1 PUSH1 0xA0 SHL SUB DUP6 AND PUSH1 0x4 DUP3 ADD MSTORE PUSH1 0x24 ADD PUSH2 0x6AE JUMP JUMPDEST POP POP POP POP POP POP JUMP JUMPDEST PUSH1 0x60 PUSH2 0x2838 DUP3 PUSH2 0x2419 JUMP JUMPDEST POP PUSH0 DUP3 DUP2 MSTORE PUSH1 0xA PUSH1 0x20 MSTORE PUSH1 0x40 DUP2 KECCAK256 DUP1 SLOAD PUSH2 0x2851 SWAP1 PUSH2 0x3780 JUMP JUMPDEST DUP1 PUSH1 0x1F ADD PUSH1 0x20 DUP1 SWAP2 DIV MUL PUSH1 0x20 ADD PUSH1 0x40 MLOAD SWAP1 DUP2 ADD PUSH1 0x40 MSTORE DUP1 SWAP3 SWAP2 SWAP1 DUP2 DUP2 MSTORE PUSH1 0x20 ADD DUP3 DUP1 SLOAD PUSH2 0x287D SWAP1 PUSH2 0x3780 JUMP JUMPDEST DUP1 ISZERO PUSH2 0x28C8 JUMPI DUP1 PUSH1 0x1F LT PUSH2 0x289F JUMPI PUSH2 0x100 DUP1 DUP4 SLOAD DIV MUL DUP4 MSTORE SWAP2 PUSH1 0x20 ADD SWAP2 PUSH2 0x28C8 JUMP JUMPDEST DUP3 ADD SWAP2 SWAP1 PUSH0 MSTORE PUSH1 0x20 PUSH0 KECCAK256 SWAP1 JUMPDEST DUP2 SLOAD DUP2 MSTORE SWAP1 PUSH1 0x1 ADD SWAP1 PUSH1 0x20 ADD DUP1 DUP4 GT PUSH2 0x28AB JUMPI DUP3 SWAP1 SUB PUSH1 0x1F AND DUP3 ADD SWAP2 JUMPDEST POP POP POP POP POP SWAP1 POP PUSH0 PUSH2 0x28E4 PUSH1 0x40 DUP1 MLOAD PUSH1 0x20 DUP2 ADD SWAP1 SWAP2 MSTORE PUSH0 DUP2 MSTORE SWAP1 JUMP JUMPDEST SWAP1 POP DUP1 MLOAD PUSH0 SUB PUSH2 0x28F5 JUMPI POP SWAP3 SWAP2 POP POP JUMP JUMPDEST DUP2 MLOAD ISZERO PUSH2 0x2927 JUMPI DUP1 DUP3 PUSH1 0x40 MLOAD PUSH1 0x20 ADD PUSH2 0x290F SWAP3 SWAP2 SWAP1 PUSH2 0x4435 JUMP JUMPDEST PUSH1 0x40 MLOAD PUSH1 0x20 DUP2 DUP4 SUB SUB DUP2 MSTORE SWAP1 PUSH1 0x40 MSTORE SWAP3 POP POP POP SWAP2 SWAP1 POP JUMP JUMPDEST PUSH2 0x246A DUP5 PUSH2 0x2B8F JUMP JUMPDEST PUSH0 PUSH1 0x1 PUSH1 0x1 PUSH1 0xE0 SHL SUB NOT DUP3 AND PUSH4 0x780E9D63 PUSH1 0xE0 SHL EQ DUP1 PUSH2 0x5BE JUMPI POP PUSH2 0x5BE DUP3 PUSH2 0x2C00 JUMP JUMPDEST DUP1 DUP1 PUSH2 0x2968 JUMPI POP PUSH1 0x1 PUSH1 0x1 PUSH1 0xA0 SHL SUB DUP3 AND ISZERO ISZERO JUMPDEST ISZERO PUSH2 0x2A29 JUMPI PUSH0 PUSH2 0x2977 DUP5 PUSH2 0x2419 JUMP JUMPDEST SWAP1 POP PUSH1 0x1 PUSH1 0x1 PUSH1 0xA0 SHL SUB DUP4 AND ISZERO DUP1 ISZERO SWAP1 PUSH2 0x29A3 JUMPI POP DUP3 PUSH1 0x1 PUSH1 0x1 PUSH1 0xA0 SHL SUB AND DUP2 PUSH1 0x1 PUSH1 0x1 PUSH1 0xA0 SHL SUB AND EQ ISZERO JUMPDEST DUP1 ISZERO PUSH2 0x29B6 JUMPI POP PUSH2 0x29B4 DUP2 DUP5 PUSH2 0x212A JUMP JUMPDEST ISZERO JUMPDEST ISZERO PUSH2 0x29DF JUMPI PUSH1 0x40 MLOAD PUSH4 0xA9FBF51F PUSH1 0xE0 SHL DUP2 MSTORE PUSH1 0x1 PUSH1 0x1 PUSH1 0xA0 SHL SUB DUP5 AND PUSH1 0x4 DUP3 ADD MSTORE PUSH1 0x24 ADD PUSH2 0x6AE JUMP JUMPDEST DUP2 ISZERO PUSH2 0x2A27 JUMPI DUP4 DUP6 PUSH1 0x1 PUSH1 0x1 PUSH1 0xA0 SHL SUB AND DUP3 PUSH1 0x1 PUSH1 0x1 PUSH1 0xA0 SHL SUB AND PUSH32 0x8C5BE1E5EBEC7D5BD14F71427D1E84F3DD0314C0F7B2291E5B200AC8C7C3B925 PUSH1 0x40 MLOAD PUSH1 0x40 MLOAD DUP1 SWAP2 SUB SWAP1 LOG4 JUMPDEST POP JUMPDEST POP POP PUSH0 SWAP1 DUP2 MSTORE PUSH1 0x4 PUSH1 0x20 MSTORE PUSH1 0x40 SWAP1 KECCAK256 DUP1 SLOAD PUSH1 0x1 PUSH1 0x1 PUSH1 0xA0 SHL SUB NOT AND PUSH1 0x1 PUSH1 0x1 PUSH1 0xA0 SHL SUB SWAP3 SWAP1 SWAP3 AND SWAP2 SWAP1 SWAP2 OR SWAP1 SSTORE JUMP JUMPDEST PUSH0 DUP1 PUSH2 0x2A65 DUP6 DUP6 DUP6 PUSH2 0x2C4F JUMP JUMPDEST SWAP1 POP PUSH1 0x1 PUSH1 0x1 PUSH1 0xA0 SHL SUB DUP2 AND PUSH2 0x2AC1 JUMPI PUSH2 0x2ABC DUP5 PUSH1 0x8 DUP1 SLOAD PUSH0 DUP4 DUP2 MSTORE PUSH1 0x9 PUSH1 0x20 MSTORE PUSH1 0x40 DUP2 KECCAK256 DUP3 SWAP1 SSTORE PUSH1 0x1 DUP3 ADD DUP4 SSTORE SWAP2 SWAP1 SWAP2 MSTORE PUSH32 0xF3F7A9FE364FAAB93B216DA50A3214154F22A0A2B415B23A84C8169E8B636EE3 ADD SSTORE JUMP JUMPDEST PUSH2 0x2AE4 JUMP JUMPDEST DUP5 PUSH1 0x1 PUSH1 0x1 PUSH1 0xA0 SHL SUB AND DUP2 PUSH1 0x1 PUSH1 0x1 PUSH1 0xA0 SHL SUB AND EQ PUSH2 0x2AE4 JUMPI PUSH2 0x2AE4 DUP2 DUP6 PUSH2 0x2D41 JUMP JUMPDEST PUSH1 0x1 PUSH1 0x1 PUSH1 0xA0 SHL SUB DUP6 AND PUSH2 0x2B00 JUMPI PUSH2 0x2AFB DUP5 PUSH2 0x2DBE JUMP JUMPDEST PUSH2 0x246A JUMP JUMPDEST DUP5 PUSH1 0x1 PUSH1 0x1 PUSH1 0xA0 SHL SUB AND DUP2 PUSH1 0x1 PUSH1 0x1 PUSH1 0xA0 SHL SUB AND EQ PUSH2 0x246A JUMPI PUSH2 0x246A DUP6 DUP6 PUSH2 0x2E65 JUMP JUMPDEST PUSH0 DUP1 PUSH1 0x20 PUSH0 DUP5 MLOAD PUSH1 0x20 DUP7 ADD PUSH0 DUP9 GAS CALL DUP1 PUSH2 0x2B42 JUMPI PUSH1 0x40 MLOAD RETURNDATASIZE PUSH0 DUP3 RETURNDATACOPY RETURNDATASIZE DUP2 REVERT JUMPDEST POP POP PUSH0 MLOAD RETURNDATASIZE SWAP2 POP DUP2 ISZERO PUSH2 0x2B59 JUMPI DUP1 PUSH1 0x1 EQ ISZERO PUSH2 0x2B66 JUMP JUMPDEST PUSH1 0x1 PUSH1 0x1 PUSH1 0xA0 SHL SUB DUP5 AND EXTCODESIZE ISZERO JUMPDEST ISZERO PUSH2 0x711 JUMPI PUSH1 0x40 MLOAD PUSH4 0x5274AFE7 PUSH1 0xE0 SHL DUP2 MSTORE PUSH1 0x1 PUSH1 0x1 PUSH1 0xA0 SHL SUB DUP6 AND PUSH1 0x4 DUP3 ADD MSTORE PUSH1 0x24 ADD PUSH2 0x6AE JUMP JUMPDEST PUSH1 0x60 PUSH2 0x2B9A DUP3 PUSH2 0x2419 JUMP JUMPDEST POP PUSH0 PUSH2 0x2BB0 PUSH1 0x40 DUP1 MLOAD PUSH1 0x20 DUP2 ADD SWAP1 SWAP2 MSTORE PUSH0 DUP2 MSTORE SWAP1 JUMP JUMPDEST SWAP1 POP PUSH0 DUP2 MLOAD GT PUSH2 0x2BCE JUMPI PUSH1 0x40 MLOAD DUP1 PUSH1 0x20 ADD PUSH1 0x40 MSTORE DUP1 PUSH0 DUP2 MSTORE POP PUSH2 0x2BF9 JUMP JUMPDEST DUP1 PUSH2 0x2BD8 DUP5 PUSH2 0x2EB3 JUMP JUMPDEST PUSH1 0x40 MLOAD PUSH1 0x20 ADD PUSH2 0x2BE9 SWAP3 SWAP2 SWAP1 PUSH2 0x4435 JUMP JUMPDEST PUSH1 0x40 MLOAD PUSH1 0x20 DUP2 DUP4 SUB SUB DUP2 MSTORE SWAP1 PUSH1 0x40 MSTORE JUMPDEST SWAP4 SWAP3 POP POP POP JUMP JUMPDEST PUSH0 PUSH1 0x1 PUSH1 0x1 PUSH1 0xE0 SHL SUB NOT DUP3 AND PUSH4 0x80AC58CD PUSH1 0xE0 SHL EQ DUP1 PUSH2 0x2C30 JUMPI POP PUSH1 0x1 PUSH1 0x1 PUSH1 0xE0 SHL SUB NOT DUP3 AND PUSH4 0x5B5E139F PUSH1 0xE0 SHL EQ JUMPDEST DUP1 PUSH2 0x5BE JUMPI POP PUSH4 0x1FFC9A7 PUSH1 0xE0 SHL PUSH1 0x1 PUSH1 0x1 PUSH1 0xE0 SHL SUB NOT DUP4 AND EQ PUSH2 0x5BE JUMP JUMPDEST PUSH0 DUP3 DUP2 MSTORE PUSH1 0x2 PUSH1 0x20 MSTORE PUSH1 0x40 DUP2 KECCAK256 SLOAD PUSH1 0x1 PUSH1 0x1 PUSH1 0xA0 SHL SUB SWAP1 DUP2 AND SWAP1 DUP4 AND ISZERO PUSH2 0x2C7B JUMPI PUSH2 0x2C7B DUP2 DUP5 DUP7 PUSH2 0x2F42 JUMP JUMPDEST PUSH1 0x1 PUSH1 0x1 PUSH1 0xA0 SHL SUB DUP2 AND ISZERO PUSH2 0x2CB5 JUMPI PUSH2 0x2C96 PUSH0 DUP6 PUSH0 DUP1 PUSH2 0x2954 JUMP JUMPDEST PUSH1 0x1 PUSH1 0x1 PUSH1 0xA0 SHL SUB DUP2 AND PUSH0 SWAP1 DUP2 MSTORE PUSH1 0x3 PUSH1 0x20 MSTORE PUSH1 0x40 SWAP1 KECCAK256 DUP1 SLOAD PUSH0 NOT ADD SWAP1 SSTORE JUMPDEST PUSH1 0x1 PUSH1 0x1 PUSH1 0xA0 SHL SUB DUP6 AND ISZERO PUSH2 0x2CE3 JUMPI PUSH1 0x1 PUSH1 0x1 PUSH1 0xA0 SHL SUB DUP6 AND PUSH0 SWAP1 DUP2 MSTORE PUSH1 0x3 PUSH1 0x20 MSTORE PUSH1 0x40 SWAP1 KECCAK256 DUP1 SLOAD PUSH1 0x1 ADD SWAP1 SSTORE JUMPDEST PUSH0 DUP5 DUP2 MSTORE PUSH1 0x2 PUSH1 0x20 MSTORE PUSH1 0x40 DUP1 DUP3 KECCAK256 DUP1 SLOAD PUSH1 0x1 PUSH1 0x1 PUSH1 0xA0 SHL SUB NOT AND PUSH1 0x1 PUSH1 0x1 PUSH1 0xA0 SHL SUB DUP10 DUP2 AND SWAP2 DUP3 OR SWAP1 SWAP3 SSTORE SWAP2 MLOAD DUP8 SWAP4 SWAP2 DUP6 AND SWAP2 PUSH32 0xDDF252AD1BE2C89B69C2B068FC378DAA952BA7F163C4A11628F55A4DF523B3EF SWAP2 LOG4 SWAP5 SWAP4 POP POP POP POP JUMP JUMPDEST PUSH0 PUSH2 0x2D4B DUP4 PUSH2 0x1533 JUMP JUMPDEST PUSH0 DUP4 DUP2 MSTORE PUSH1 0x7 PUSH1 0x20 SWAP1 DUP2 MSTORE PUSH1 0x40 DUP1 DUP4 KECCAK256 SLOAD PUSH1 0x1 PUSH1 0x1 PUSH1 0xA0 SHL SUB DUP9 AND DUP5 MSTORE PUSH1 0x6 SWAP1 SWAP3 MSTORE SWAP1 SWAP2 KECCAK256 SWAP2 SWAP3 POP SWAP1 DUP2 DUP4 EQ PUSH2 0x2DA0 JUMPI PUSH0 DUP4 DUP2 MSTORE PUSH1 0x20 DUP3 DUP2 MSTORE PUSH1 0x40 DUP1 DUP4 KECCAK256 SLOAD DUP6 DUP5 MSTORE DUP2 DUP5 KECCAK256 DUP2 SWAP1 SSTORE DUP4 MSTORE PUSH1 0x7 SWAP1 SWAP2 MSTORE SWAP1 KECCAK256 DUP3 SWAP1 SSTORE JUMPDEST PUSH0 SWAP4 DUP5 MSTORE PUSH1 0x7 PUSH1 0x20 SWAP1 DUP2 MSTORE PUSH1 0x40 DUP1 DUP7 KECCAK256 DUP7 SWAP1 SSTORE SWAP4 DUP6 MSTORE MSTORE POP DUP2 KECCAK256 SSTORE POP JUMP JUMPDEST PUSH1 0x8 SLOAD PUSH0 SWAP1 PUSH2 0x2DCF SWAP1 PUSH1 0x1 SWAP1 PUSH2 0x4449 JUMP JUMPDEST PUSH0 DUP4 DUP2 MSTORE PUSH1 0x9 PUSH1 0x20 MSTORE PUSH1 0x40 DUP2 KECCAK256 SLOAD PUSH1 0x8 DUP1 SLOAD SWAP4 SWAP5 POP SWAP1 SWAP3 DUP5 SWAP1 DUP2 LT PUSH2 0x2DF6 JUMPI PUSH2 0x2DF6 PUSH2 0x3D6F JUMP JUMPDEST SWAP1 PUSH0 MSTORE PUSH1 0x20 PUSH0 KECCAK256 ADD SLOAD SWAP1 POP DUP1 PUSH1 0x8 DUP4 DUP2 SLOAD DUP2 LT PUSH2 0x2E15 JUMPI PUSH2 0x2E15 PUSH2 0x3D6F JUMP JUMPDEST PUSH0 SWAP2 DUP3 MSTORE PUSH1 0x20 DUP1 DUP4 KECCAK256 SWAP1 SWAP2 ADD SWAP3 SWAP1 SWAP3 SSTORE DUP3 DUP2 MSTORE PUSH1 0x9 SWAP1 SWAP2 MSTORE PUSH1 0x40 DUP1 DUP3 KECCAK256 DUP5 SWAP1 SSTORE DUP6 DUP3 MSTORE DUP2 KECCAK256 SSTORE PUSH1 0x8 DUP1 SLOAD DUP1 PUSH2 0x2E4C JUMPI PUSH2 0x2E4C PUSH2 0x445C JUMP JUMPDEST PUSH1 0x1 SWAP1 SUB DUP2 DUP2 SWAP1 PUSH0 MSTORE PUSH1 0x20 PUSH0 KECCAK256 ADD PUSH0 SWAP1 SSTORE SWAP1 SSTORE POP POP POP POP JUMP JUMPDEST PUSH0 PUSH1 0x1 PUSH2 0x2E71 DUP5 PUSH2 0x1533 JUMP JUMPDEST PUSH2 0x2E7B SWAP2 SWAP1 PUSH2 0x4449 JUMP JUMPDEST PUSH1 0x1 PUSH1 0x1 PUSH1 0xA0 SHL SUB SWAP1 SWAP4 AND PUSH0 SWAP1 DUP2 MSTORE PUSH1 0x6 PUSH1 0x20 SWAP1 DUP2 MSTORE PUSH1 0x40 DUP1 DUP4 KECCAK256 DUP7 DUP5 MSTORE DUP3 MSTORE DUP1 DUP4 KECCAK256 DUP6 SWAP1 SSTORE SWAP4 DUP3 MSTORE PUSH1 0x7 SWAP1 MSTORE SWAP2 SWAP1 SWAP2 KECCAK256 SWAP2 SWAP1 SWAP2 SSTORE POP JUMP JUMPDEST PUSH1 0x60 PUSH0 PUSH2 0x2EBF DUP4 PUSH2 0x2FA6 JUMP JUMPDEST PUSH1 0x1 ADD SWAP1 POP PUSH0 DUP2 PUSH1 0x1 PUSH1 0x1 PUSH1 0x40 SHL SUB DUP2 GT ISZERO PUSH2 0x2EDD JUMPI PUSH2 0x2EDD PUSH2 0x3526 JUMP JUMPDEST PUSH1 0x40 MLOAD SWAP1 DUP1 DUP3 MSTORE DUP1 PUSH1 0x1F ADD PUSH1 0x1F NOT AND PUSH1 0x20 ADD DUP3 ADD PUSH1 0x40 MSTORE DUP1 ISZERO PUSH2 0x2F07 JUMPI PUSH1 0x20 DUP3 ADD DUP2 DUP1 CALLDATASIZE DUP4 CALLDATACOPY ADD SWAP1 POP JUMPDEST POP SWAP1 POP DUP2 DUP2 ADD PUSH1 0x20 ADD JUMPDEST PUSH0 NOT ADD PUSH16 0x181899199A1A9B1B9C1CB0B131B232B3 PUSH1 0x81 SHL PUSH1 0xA DUP7 MOD BYTE DUP2 MSTORE8 PUSH1 0xA DUP6 DIV SWAP5 POP DUP5 PUSH2 0x2F11 JUMPI POP SWAP4 SWAP3 POP POP POP JUMP JUMPDEST PUSH2 0x2F4D DUP4 DUP4 DUP4 PUSH2 0x307D JUMP JUMPDEST PUSH2 0x988 JUMPI PUSH1 0x1 PUSH1 0x1 PUSH1 0xA0 SHL SUB DUP4 AND PUSH2 0x2F7B JUMPI PUSH1 0x40 MLOAD PUSH4 0x7E273289 PUSH1 0xE0 SHL DUP2 MSTORE PUSH1 0x4 DUP2 ADD DUP3 SWAP1 MSTORE PUSH1 0x24 ADD PUSH2 0x6AE JUMP JUMPDEST PUSH1 0x40 MLOAD PUSH4 0x177E802F PUSH1 0xE0 SHL DUP2 MSTORE PUSH1 0x1 PUSH1 0x1 PUSH1 0xA0 SHL SUB DUP4 AND PUSH1 0x4 DUP3 ADD MSTORE PUSH1 0x24 DUP2 ADD DUP3 SWAP1 MSTORE PUSH1 0x44 ADD PUSH2 0x6AE JUMP JUMPDEST PUSH0 DUP1 PUSH19 0x184F03E93FF9F4DAA797ED6E38ED64BF6A1F01 PUSH1 0x40 SHL DUP4 LT PUSH2 0x2FE4 JUMPI PUSH19 0x184F03E93FF9F4DAA797ED6E38ED64BF6A1F01 PUSH1 0x40 SHL DUP4 DIV SWAP3 POP PUSH1 0x40 ADD JUMPDEST PUSH14 0x4EE2D6D415B85ACEF8100000000 DUP4 LT PUSH2 0x3010 JUMPI PUSH14 0x4EE2D6D415B85ACEF8100000000 DUP4 DIV SWAP3 POP PUSH1 0x20 ADD JUMPDEST PUSH7 0x2386F26FC10000 DUP4 LT PUSH2 0x302E JUMPI PUSH7 0x2386F26FC10000 DUP4 DIV SWAP3 POP PUSH1 0x10 ADD JUMPDEST PUSH4 0x5F5E100 DUP4 LT PUSH2 0x3046 JUMPI PUSH4 0x5F5E100 DUP4 DIV SWAP3 POP PUSH1 0x8 ADD JUMPDEST PUSH2 0x2710 DUP4 LT PUSH2 0x305A JUMPI PUSH2 0x2710 DUP4 DIV SWAP3 POP PUSH1 0x4 ADD JUMPDEST PUSH1 0x64 DUP4 LT PUSH2 0x306C JUMPI PUSH1 0x64 DUP4 DIV SWAP3 POP PUSH1 0x2 ADD JUMPDEST PUSH1 0xA DUP4 LT PUSH2 0x5BE JUMPI PUSH1 0x1 ADD SWAP3 SWAP2 POP POP JUMP JUMPDEST PUSH0 PUSH1 0x1 PUSH1 0x1 PUSH1 0xA0 SHL SUB DUP4 AND ISZERO DUP1 ISZERO SWAP1 PUSH2 0x246A JUMPI POP DUP3 PUSH1 0x1 PUSH1 0x1 PUSH1 0xA0 SHL SUB AND DUP5 PUSH1 0x1 PUSH1 0x1 PUSH1 0xA0 SHL SUB AND EQ DUP1 PUSH2 0x30B6 JUMPI POP PUSH2 0x30B6 DUP5 DUP5 PUSH2 0x212A JUMP JUMPDEST DUP1 PUSH2 0x246A JUMPI POP POP PUSH0 SWAP1 DUP2 MSTORE PUSH1 0x4 PUSH1 0x20 MSTORE PUSH1 0x40 SWAP1 KECCAK256 SLOAD PUSH1 0x1 PUSH1 0x1 PUSH1 0xA0 SHL SUB SWAP1 DUP2 AND SWAP2 AND EQ SWAP2 SWAP1 POP JUMP JUMPDEST PUSH1 0x1 PUSH1 0x1 PUSH1 0xE0 SHL SUB NOT DUP2 AND DUP2 EQ PUSH2 0x99E JUMPI PUSH0 DUP1 REVERT JUMPDEST PUSH0 PUSH1 0x20 DUP3 DUP5 SUB SLT ISZERO PUSH2 0x3103 JUMPI PUSH0 DUP1 REVERT JUMPDEST DUP2 CALLDATALOAD PUSH2 0x2BF9 DUP2 PUSH2 0x30DE JUMP JUMPDEST PUSH0 DUP2 MLOAD DUP1 DUP5 MSTORE DUP1 PUSH1 0x20 DUP5 ADD PUSH1 0x20 DUP7 ADD MCOPY PUSH0 PUSH1 0x20 DUP3 DUP7 ADD ADD MSTORE PUSH1 0x20 PUSH1 0x1F NOT PUSH1 0x1F DUP4 ADD AND DUP6 ADD ADD SWAP2 POP POP SWAP3 SWAP2 POP POP JUMP JUMPDEST PUSH1 0x20 DUP2 MSTORE PUSH0 PUSH2 0x2BF9 PUSH1 0x20 DUP4 ADD DUP5 PUSH2 0x310E JUMP JUMPDEST PUSH0 PUSH1 0x20 DUP3 DUP5 SUB SLT ISZERO PUSH2 0x315E JUMPI PUSH0 DUP1 REVERT JUMPDEST POP CALLDATALOAD SWAP2 SWAP1 POP JUMP JUMPDEST PUSH1 0x1 PUSH1 0x1 PUSH1 0xA0 SHL SUB DUP2 AND DUP2 EQ PUSH2 0x99E JUMPI PUSH0 DUP1 REVERT JUMPDEST PUSH0 DUP1 PUSH1 0x40 DUP4 DUP6 SUB SLT ISZERO PUSH2 0x318A JUMPI PUSH0 DUP1 REVERT JUMPDEST DUP3 CALLDATALOAD PUSH2 0x3195 DUP2 PUSH2 0x3165 JUMP JUMPDEST SWAP5 PUSH1 0x20 SWAP4 SWAP1 SWAP4 ADD CALLDATALOAD SWAP4 POP POP POP JUMP JUMPDEST PUSH0 DUP1 PUSH0 PUSH1 0x60 DUP5 DUP7 SUB SLT ISZERO PUSH2 0x31B5 JUMPI PUSH0 DUP1 REVERT JUMPDEST DUP4 CALLDATALOAD PUSH2 0x31C0 DUP2 PUSH2 0x3165 JUMP JUMPDEST SWAP3 POP PUSH1 0x20 DUP5 ADD CALLDATALOAD PUSH2 0x31D0 DUP2 PUSH2 0x3165 JUMP JUMPDEST SWAP3 SWAP6 SWAP3 SWAP5 POP POP POP PUSH1 0x40 SWAP2 SWAP1 SWAP2 ADD CALLDATALOAD SWAP1 JUMP JUMPDEST PUSH0 DUP1 PUSH0 PUSH1 0x60 DUP5 DUP7 SUB SLT ISZERO PUSH2 0x31F3 JUMPI PUSH0 DUP1 REVERT JUMPDEST DUP4 CALLDATALOAD PUSH2 0x31FE DUP2 PUSH2 0x3165 JUMP JUMPDEST SWAP3 POP PUSH1 0x20 DUP5 ADD CALLDATALOAD SWAP2 POP PUSH1 0x40 DUP5 ADD CALLDATALOAD PUSH2 0x3215 DUP2 PUSH2 0x3165 JUMP JUMPDEST DUP1 SWAP2 POP POP SWAP3 POP SWAP3 POP SWAP3 JUMP JUMPDEST PUSH0 DUP1 PUSH1 0x40 DUP4 DUP6 SUB SLT ISZERO PUSH2 0x3231 JUMPI PUSH0 DUP1 REVERT JUMPDEST DUP3 CALLDATALOAD PUSH2 0x323C DUP2 PUSH2 0x3165 JUMP JUMPDEST SWAP2 POP PUSH1 0x20 DUP4 ADD CALLDATALOAD PUSH2 0x324C DUP2 PUSH2 0x3165 JUMP JUMPDEST DUP1 SWAP2 POP POP SWAP3 POP SWAP3 SWAP1 POP JUMP JUMPDEST PUSH0 DUP1 DUP4 PUSH1 0x1F DUP5 ADD SLT PUSH2 0x3267 JUMPI PUSH0 DUP1 REVERT JUMPDEST POP DUP2 CALLDATALOAD PUSH1 0x1 PUSH1 0x1 PUSH1 0x40 SHL SUB DUP2 GT ISZERO PUSH2 0x327D JUMPI PUSH0 DUP1 REVERT JUMPDEST PUSH1 0x20 DUP4 ADD SWAP2 POP DUP4 PUSH1 0x20 DUP3 DUP6 ADD ADD GT ISZERO PUSH2 0x3294 JUMPI PUSH0 DUP1 REVERT JUMPDEST SWAP3 POP SWAP3 SWAP1 POP JUMP JUMPDEST PUSH0 DUP1 DUP4 PUSH1 0x1F DUP5 ADD SLT PUSH2 0x32AB JUMPI PUSH0 DUP1 REVERT JUMPDEST POP DUP2 CALLDATALOAD PUSH1 0x1 PUSH1 0x1 PUSH1 0x40 SHL SUB DUP2 GT ISZERO PUSH2 0x32C1 JUMPI PUSH0 DUP1 REVERT JUMPDEST PUSH1 0x20 DUP4 ADD SWAP2 POP DUP4 PUSH1 0x20 DUP3 PUSH1 0x5 SHL DUP6 ADD ADD GT ISZERO PUSH2 0x3294 JUMPI PUSH0 DUP1 REVERT JUMPDEST PUSH0 DUP1 PUSH0 DUP1 PUSH0 PUSH1 0x60 DUP7 DUP9 SUB SLT ISZERO PUSH2 0x32EF JUMPI PUSH0 DUP1 REVERT JUMPDEST DUP6 CALLDATALOAD SWAP5 POP PUSH1 0x20 DUP7 ADD CALLDATALOAD PUSH1 0x1 PUSH1 0x1 PUSH1 0x40 SHL SUB DUP2 GT ISZERO PUSH2 0x330B JUMPI PUSH0 DUP1 REVERT JUMPDEST PUSH2 0x3317 DUP9 DUP3 DUP10 ADD PUSH2 0x3257 JUMP JUMPDEST SWAP1 SWAP6 POP SWAP4 POP POP PUSH1 0x40 DUP7 ADD CALLDATALOAD PUSH1 0x1 PUSH1 0x1 PUSH1 0x40 SHL SUB DUP2 GT ISZERO PUSH2 0x3335 JUMPI PUSH0 DUP1 REVERT JUMPDEST PUSH2 0x3341 DUP9 DUP3 DUP10 ADD PUSH2 0x329B JUMP JUMPDEST SWAP7 SWAP10 SWAP6 SWAP9 POP SWAP4 SWAP7 POP SWAP3 SWAP5 SWAP4 SWAP3 POP POP POP JUMP JUMPDEST PUSH0 DUP1 PUSH0 PUSH1 0x40 DUP5 DUP7 SUB SLT ISZERO PUSH2 0x3364 JUMPI PUSH0 DUP1 REVERT JUMPDEST DUP4 CALLDATALOAD PUSH2 0x336F DUP2 PUSH2 0x3165 JUMP JUMPDEST SWAP3 POP PUSH1 0x20 DUP5 ADD CALLDATALOAD PUSH1 0x1 PUSH1 0x1 PUSH1 0x40 SHL SUB DUP2 GT ISZERO PUSH2 0x3389 JUMPI PUSH0 DUP1 REVERT JUMPDEST PUSH2 0x3395 DUP7 DUP3 DUP8 ADD PUSH2 0x3257 JUMP JUMPDEST SWAP5 SWAP8 SWAP1 SWAP7 POP SWAP4 SWAP5 POP POP POP POP JUMP JUMPDEST PUSH0 PUSH1 0x20 DUP3 DUP5 SUB SLT ISZERO PUSH2 0x33B2 JUMPI PUSH0 DUP1 REVERT JUMPDEST DUP2 CALLDATALOAD PUSH2 0x2BF9 DUP2 PUSH2 0x3165 JUMP JUMPDEST DUP1 ISZERO ISZERO DUP2 EQ PUSH2 0x99E JUMPI PUSH0 DUP1 REVERT JUMPDEST PUSH0 DUP1 PUSH0 DUP1 PUSH0 DUP1 PUSH1 0xA0 DUP8 DUP10 SUB SLT ISZERO PUSH2 0x33DF JUMPI PUSH0 DUP1 REVERT JUMPDEST DUP7 CALLDATALOAD PUSH2 0x33EA DUP2 PUSH2 0x3165 JUMP JUMPDEST SWAP6 POP PUSH1 0x20 DUP8 ADD CALLDATALOAD PUSH2 0x33FA DUP2 PUSH2 0x3165 JUMP JUMPDEST SWAP5 POP PUSH1 0x40 DUP8 ADD CALLDATALOAD PUSH1 0x1 PUSH1 0x1 PUSH1 0x40 SHL SUB DUP2 GT ISZERO PUSH2 0x3414 JUMPI PUSH0 DUP1 REVERT JUMPDEST PUSH2 0x3420 DUP10 DUP3 DUP11 ADD PUSH2 0x3257 JUMP JUMPDEST SWAP1 SWAP6 POP SWAP4 POP POP PUSH1 0x60 DUP8 ADD CALLDATALOAD SWAP2 POP PUSH1 0x80 DUP8 ADD CALLDATALOAD PUSH2 0x343B DUP2 PUSH2 0x33BD JUMP JUMPDEST DUP1 SWAP2 POP POP SWAP3 SWAP6 POP SWAP3 SWAP6 POP SWAP3 SWAP6 JUMP JUMPDEST PUSH0 DUP1 PUSH0 DUP1 PUSH1 0x60 DUP6 DUP8 SUB SLT ISZERO PUSH2 0x345C JUMPI PUSH0 DUP1 REVERT JUMPDEST DUP5 CALLDATALOAD PUSH2 0x3467 DUP2 PUSH2 0x3165 JUMP JUMPDEST SWAP4 POP PUSH1 0x20 DUP6 ADD CALLDATALOAD PUSH1 0x1 PUSH1 0x1 PUSH1 0x40 SHL SUB DUP2 GT ISZERO PUSH2 0x3481 JUMPI PUSH0 DUP1 REVERT JUMPDEST PUSH2 0x348D DUP8 DUP3 DUP9 ADD PUSH2 0x3257 JUMP JUMPDEST SWAP6 SWAP9 SWAP1 SWAP8 POP SWAP5 SWAP6 PUSH1 0x40 ADD CALLDATALOAD SWAP5 SWAP4 POP POP POP POP JUMP JUMPDEST PUSH0 DUP1 PUSH1 0x40 DUP4 DUP6 SUB SLT ISZERO PUSH2 0x34B1 JUMPI PUSH0 DUP1 REVERT JUMPDEST DUP3 CALLDATALOAD PUSH2 0x34BC DUP2 PUSH2 0x3165 JUMP JUMPDEST SWAP2 POP PUSH1 0x20 DUP4 ADD CALLDATALOAD PUSH2 0x324C DUP2 PUSH2 0x33BD JUMP JUMPDEST PUSH0 DUP1 PUSH1 0x40 DUP4 DUP6 SUB SLT ISZERO PUSH2 0x34DD JUMPI PUSH0 DUP1 REVERT JUMPDEST DUP3 CALLDATALOAD SWAP2 POP PUSH1 0x20 DUP4 ADD CALLDATALOAD PUSH1 0xFF DUP2 AND DUP2 EQ PUSH2 0x324C JUMPI PUSH0 DUP1 REVERT JUMPDEST PUSH0 DUP1 PUSH0 PUSH1 0x60 DUP5 DUP7 SUB SLT ISZERO PUSH2 0x3506 JUMPI PUSH0 DUP1 REVERT JUMPDEST DUP4 CALLDATALOAD PUSH2 0x3511 DUP2 PUSH2 0x3165 JUMP JUMPDEST SWAP6 PUSH1 0x20 DUP6 ADD CALLDATALOAD SWAP6 POP PUSH1 0x40 SWAP1 SWAP5 ADD CALLDATALOAD SWAP4 SWAP3 POP POP POP JUMP JUMPDEST PUSH4 0x4E487B71 PUSH1 0xE0 SHL PUSH0 MSTORE PUSH1 0x41 PUSH1 0x4 MSTORE PUSH1 0x24 PUSH0 REVERT JUMPDEST PUSH1 0x40 MLOAD PUSH1 0xE0 DUP2 ADD PUSH1 0x1 PUSH1 0x1 PUSH1 0x40 SHL SUB DUP2 GT DUP3 DUP3 LT OR ISZERO PUSH2 0x355C JUMPI PUSH2 0x355C PUSH2 0x3526 JUMP JUMPDEST PUSH1 0x40 MSTORE SWAP1 JUMP JUMPDEST PUSH1 0x40 MLOAD PUSH1 0xC0 DUP2 ADD PUSH1 0x1 PUSH1 0x1 PUSH1 0x40 SHL SUB DUP2 GT DUP3 DUP3 LT OR ISZERO PUSH2 0x355C JUMPI PUSH2 0x355C PUSH2 0x3526 JUMP JUMPDEST PUSH1 0x40 MLOAD PUSH2 0x100 DUP2 ADD PUSH1 0x1 PUSH1 0x1 PUSH1 0x40 SHL SUB DUP2 GT DUP3 DUP3 LT OR ISZERO PUSH2 0x355C JUMPI PUSH2 0x355C PUSH2 0x3526 JUMP JUMPDEST PUSH1 0x40 MLOAD PUSH1 0x80 DUP2 ADD PUSH1 0x1 PUSH1 0x1 PUSH1 0x40 SHL SUB DUP2 GT DUP3 DUP3 LT OR ISZERO PUSH2 0x355C JUMPI PUSH2 0x355C PUSH2 0x3526 JUMP JUMPDEST PUSH1 0x40 MLOAD PUSH1 0x1F DUP3 ADD PUSH1 0x1F NOT AND DUP2 ADD PUSH1 0x1 PUSH1 0x1 PUSH1 0x40 SHL SUB DUP2 GT DUP3 DUP3 LT OR ISZERO PUSH2 0x35F1 JUMPI PUSH2 0x35F1 PUSH2 0x3526 JUMP JUMPDEST PUSH1 0x40 MSTORE SWAP2 SWAP1 POP JUMP JUMPDEST PUSH0 PUSH1 0x1 PUSH1 0x1 PUSH1 0x40 SHL SUB DUP3 GT ISZERO PUSH2 0x3611 JUMPI PUSH2 0x3611 PUSH2 0x3526 JUMP JUMPDEST POP PUSH1 0x1F ADD PUSH1 0x1F NOT AND PUSH1 0x20 ADD SWAP1 JUMP JUMPDEST PUSH0 PUSH2 0x3631 PUSH2 0x362C DUP5 PUSH2 0x35F9 JUMP JUMPDEST PUSH2 0x35C9 JUMP JUMPDEST SWAP1 POP DUP3 DUP2 MSTORE DUP4 DUP4 DUP4 ADD GT ISZERO PUSH2 0x3644 JUMPI PUSH0 DUP1 REVERT JUMPDEST DUP3 DUP3 PUSH1 0x20 DUP4 ADD CALLDATACOPY PUSH0 PUSH1 0x20 DUP5 DUP4 ADD ADD MSTORE SWAP4 SWAP3 POP POP POP JUMP JUMPDEST PUSH0 DUP1 PUSH0 DUP1 PUSH1 0x80 DUP6 DUP8 SUB SLT ISZERO PUSH2 0x366D JUMPI PUSH0 DUP1 REVERT JUMPDEST DUP5 CALLDATALOAD PUSH2 0x3678 DUP2 PUSH2 0x3165 JUMP JUMPDEST SWAP4 POP PUSH1 0x20 DUP6 ADD CALLDATALOAD PUSH2 0x3688 DUP2 PUSH2 0x3165 JUMP JUMPDEST SWAP3 POP PUSH1 0x40 DUP6 ADD CALLDATALOAD SWAP2 POP PUSH1 0x60 DUP6 ADD CALLDATALOAD PUSH1 0x1 PUSH1 0x1 PUSH1 0x40 SHL SUB DUP2 GT ISZERO PUSH2 0x36A9 JUMPI PUSH0 DUP1 REVERT JUMPDEST DUP6 ADD PUSH1 0x1F DUP2 ADD DUP8 SGT PUSH2 0x36B9 JUMPI PUSH0 DUP1 REVERT JUMPDEST PUSH2 0x36C8 DUP8 DUP3 CALLDATALOAD PUSH1 0x20 DUP5 ADD PUSH2 0x361F JUMP JUMPDEST SWAP2 POP POP SWAP3 SWAP6 SWAP2 SWAP5 POP SWAP3 POP JUMP JUMPDEST PUSH1 0x20 DUP1 DUP3 MSTORE DUP3 MLOAD DUP3 DUP3 ADD DUP2 SWAP1 MSTORE PUSH0 SWAP2 DUP5 ADD SWAP1 PUSH1 0x40 DUP5 ADD SWAP1 DUP4 JUMPDEST DUP2 DUP2 LT ISZERO PUSH2 0x370B JUMPI DUP4 MLOAD DUP4 MSTORE PUSH1 0x20 SWAP4 DUP5 ADD SWAP4 SWAP1 SWAP3 ADD SWAP2 PUSH1 0x1 ADD PUSH2 0x36ED JUMP JUMPDEST POP SWAP1 SWAP6 SWAP5 POP POP POP POP POP JUMP JUMPDEST PUSH0 DUP1 PUSH0 DUP1 PUSH1 0x40 DUP6 DUP8 SUB SLT ISZERO PUSH2 0x3729 JUMPI PUSH0 DUP1 REVERT JUMPDEST DUP5 CALLDATALOAD PUSH1 0x1 PUSH1 0x1 PUSH1 0x40 SHL SUB DUP2 GT ISZERO PUSH2 0x373E JUMPI PUSH0 DUP1 REVERT JUMPDEST PUSH2 0x374A DUP8 DUP3 DUP9 ADD PUSH2 0x3257 JUMP JUMPDEST SWAP1 SWAP6 POP SWAP4 POP POP PUSH1 0x20 DUP6 ADD CALLDATALOAD PUSH1 0x1 PUSH1 0x1 PUSH1 0x40 SHL SUB DUP2 GT ISZERO PUSH2 0x3768 JUMPI PUSH0 DUP1 REVERT JUMPDEST PUSH2 0x3774 DUP8 DUP3 DUP9 ADD PUSH2 0x329B JUMP JUMPDEST SWAP6 SWAP9 SWAP5 SWAP8 POP SWAP6 POP POP POP POP JUMP JUMPDEST PUSH1 0x1 DUP2 DUP2 SHR SWAP1 DUP3 AND DUP1 PUSH2 0x3794 JUMPI PUSH1 0x7F DUP3 AND SWAP2 POP JUMPDEST PUSH1 0x20 DUP3 LT DUP2 SUB PUSH2 0x37B2 JUMPI PUSH4 0x4E487B71 PUSH1 0xE0 SHL PUSH0 MSTORE PUSH1 0x22 PUSH1 0x4 MSTORE PUSH1 0x24 PUSH0 REVERT JUMPDEST POP SWAP2 SWAP1 POP JUMP JUMPDEST DUP1 MLOAD PUSH2 0x37C3 DUP2 PUSH2 0x3165 JUMP JUMPDEST SWAP2 SWAP1 POP JUMP JUMPDEST PUSH0 DUP3 PUSH1 0x1F DUP4 ADD SLT PUSH2 0x37D7 JUMPI PUSH0 DUP1 REVERT JUMPDEST DUP2 MLOAD PUSH2 0x37E5 PUSH2 0x362C DUP3 PUSH2 0x35F9 JUMP JUMPDEST DUP2 DUP2 MSTORE DUP5 PUSH1 0x20 DUP4 DUP7 ADD ADD GT ISZERO PUSH2 0x37F9 JUMPI PUSH0 DUP1 REVERT JUMPDEST DUP2 PUSH1 0x20 DUP6 ADD PUSH1 0x20 DUP4 ADD MCOPY PUSH0 SWAP2 DUP2 ADD PUSH1 0x20 ADD SWAP2 SWAP1 SWAP2 MSTORE SWAP4 SWAP3 POP POP POP JUMP JUMPDEST DUP1 MLOAD PUSH2 0x37C3 DUP2 PUSH2 0x33BD JUMP JUMPDEST PUSH0 PUSH1 0x20 DUP3 DUP5 SUB SLT ISZERO PUSH2 0x3830 JUMPI PUSH0 DUP1 REVERT JUMPDEST DUP2 MLOAD PUSH1 0x1 PUSH1 0x1 PUSH1 0x40 SHL SUB DUP2 GT ISZERO PUSH2 0x3845 JUMPI PUSH0 DUP1 REVERT JUMPDEST DUP3 ADD PUSH1 0xE0 DUP2 DUP6 SUB SLT ISZERO PUSH2 0x3856 JUMPI PUSH0 DUP1 REVERT JUMPDEST PUSH2 0x385E PUSH2 0x353A JUMP JUMPDEST PUSH2 0x3867 DUP3 PUSH2 0x37B8 JUMP JUMPDEST DUP2 MSTORE PUSH2 0x3875 PUSH1 0x20 DUP4 ADD PUSH2 0x37B8 JUMP JUMPDEST PUSH1 0x20 DUP3 ADD MSTORE PUSH1 0x40 DUP3 DUP2 ADD MLOAD SWAP1 DUP3 ADD MSTORE PUSH1 0x60 DUP3 ADD MLOAD PUSH1 0x1 PUSH1 0x1 PUSH1 0x40 SHL SUB DUP2 GT ISZERO PUSH2 0x389C JUMPI PUSH0 DUP1 REVERT JUMPDEST PUSH2 0x38A8 DUP7 DUP3 DUP6 ADD PUSH2 0x37C8 JUMP JUMPDEST PUSH1 0x60 DUP4 ADD MSTORE POP PUSH1 0x80 DUP3 DUP2 ADD MLOAD SWAP1 DUP3 ADD MSTORE PUSH1 0xA0 DUP1 DUP4 ADD MLOAD SWAP1 DUP3 ADD MSTORE PUSH2 0x38CE PUSH1 0xC0 DUP4 ADD PUSH2 0x3815 JUMP JUMPDEST PUSH1 0xC0 DUP3 ADD MSTORE SWAP5 SWAP4 POP POP POP POP JUMP JUMPDEST PUSH1 0x20 DUP2 MSTORE PUSH1 0x1 DUP1 PUSH1 0xA0 SHL SUB DUP3 MLOAD AND PUSH1 0x20 DUP3 ADD MSTORE PUSH1 0x1 DUP1 PUSH1 0xA0 SHL SUB PUSH1 0x20 DUP4 ADD MLOAD AND PUSH1 0x40 DUP3 ADD MSTORE PUSH1 0x40 DUP3 ADD MLOAD PUSH1 0x60 DUP3 ADD MSTORE PUSH0 PUSH1 0x60 DUP4 ADD MLOAD PUSH1 0xE0 PUSH1 0x80 DUP5 ADD MSTORE PUSH2 0x3925 PUSH2 0x100 DUP5 ADD DUP3 PUSH2 0x310E JUMP JUMPDEST SWAP1 POP PUSH1 0x80 DUP5 ADD MLOAD PUSH1 0xA0 DUP5 ADD MSTORE PUSH1 0xA0 DUP5 ADD MLOAD PUSH1 0xC0 DUP5 ADD MSTORE PUSH1 0xC0 DUP5 ADD MLOAD ISZERO ISZERO PUSH1 0xE0 DUP5 ADD MSTORE DUP1 SWAP2 POP POP SWAP3 SWAP2 POP POP JUMP JUMPDEST PUSH0 PUSH1 0x1 PUSH1 0x1 PUSH1 0x40 SHL SUB DUP3 GT ISZERO PUSH2 0x3969 JUMPI PUSH2 0x3969 PUSH2 0x3526 JUMP JUMPDEST POP PUSH1 0x5 SHL PUSH1 0x20 ADD SWAP1 JUMP JUMPDEST PUSH0 PUSH2 0x3980 PUSH2 0x362C DUP5 PUSH2 0x3951 JUMP JUMPDEST DUP4 DUP2 MSTORE PUSH1 0x20 DUP2 ADD SWAP1 PUSH1 0x5 DUP6 SWAP1 SHL DUP5 ADD CALLDATASIZE DUP2 GT ISZERO PUSH2 0x399B JUMPI PUSH0 DUP1 REVERT JUMPDEST DUP5 JUMPDEST DUP2 DUP2 LT ISZERO PUSH2 0x370B JUMPI DUP1 CALLDATALOAD PUSH1 0x1 PUSH1 0x1 PUSH1 0x40 SHL SUB DUP2 GT ISZERO PUSH2 0x39BA JUMPI PUSH0 DUP1 REVERT JUMPDEST DUP7 ADD CALLDATASIZE PUSH1 0x1F DUP3 ADD SLT PUSH2 0x39CA JUMPI PUSH0 DUP1 REVERT JUMPDEST PUSH2 0x39D9 CALLDATASIZE DUP3 CALLDATALOAD PUSH1 0x20 DUP5 ADD PUSH2 0x361F JUMP JUMPDEST DUP6 MSTORE POP PUSH1 0x20 SWAP4 DUP5 ADD SWAP4 ADD PUSH2 0x399D JUMP JUMPDEST PUSH0 DUP3 DUP3 MLOAD DUP1 DUP6 MSTORE PUSH1 0x20 DUP6 ADD SWAP5 POP PUSH1 0x20 DUP2 PUSH1 0x5 SHL DUP4 ADD ADD PUSH1 0x20 DUP6 ADD PUSH0 JUMPDEST DUP4 DUP2 LT ISZERO PUSH2 0x3A36 JUMPI PUSH1 0x1F NOT DUP6 DUP5 SUB ADD DUP9 MSTORE PUSH2 0x3A20 DUP4 DUP4 MLOAD PUSH2 0x310E JUMP JUMPDEST PUSH1 0x20 SWAP9 DUP10 ADD SWAP9 SWAP1 SWAP4 POP SWAP2 SWAP1 SWAP2 ADD SWAP1 PUSH1 0x1 ADD PUSH2 0x3A04 JUMP JUMPDEST POP SWAP1 SWAP7 SWAP6 POP POP POP POP POP POP JUMP JUMPDEST PUSH1 0x1 DUP1 PUSH1 0xA0 SHL SUB DUP2 MLOAD AND DUP3 MSTORE PUSH1 0x20 DUP2 ADD MLOAD PUSH1 0x20 DUP4 ADD MSTORE PUSH0 PUSH1 0x40 DUP3 ADD MLOAD PUSH1 0x80 PUSH1 0x40 DUP6 ADD MSTORE PUSH2 0x3A72 PUSH1 0x80 DUP6 ADD DUP3 PUSH2 0x310E JUMP JUMPDEST SWAP1 POP PUSH1 0x60 DUP4 ADD MLOAD DUP5 DUP3 SUB PUSH1 0x60 DUP7 ADD MSTORE PUSH2 0x3A8B DUP3 DUP3 PUSH2 0x39E8 JUMP JUMPDEST SWAP6 SWAP5 POP POP POP POP POP JUMP JUMPDEST DUP3 DUP2 MSTORE PUSH1 0x40 PUSH1 0x20 DUP3 ADD MSTORE PUSH0 PUSH2 0x246A PUSH1 0x40 DUP4 ADD DUP5 PUSH2 0x3A42 JUMP JUMPDEST PUSH0 PUSH1 0x20 DUP3 DUP5 SUB SLT ISZERO PUSH2 0x3ABC JUMPI PUSH0 DUP1 REVERT JUMPDEST DUP2 MLOAD PUSH2 0x2BF9 DUP2 PUSH2 0x33BD JUMP JUMPDEST PUSH0 DUP3 PUSH1 0x1F DUP4 ADD SLT PUSH2 0x3AD6 JUMPI PUSH0 DUP1 REVERT JUMPDEST DUP2 MLOAD PUSH2 0x3AE4 PUSH2 0x362C DUP3 PUSH2 0x3951 JUMP JUMPDEST DUP1 DUP3 DUP3 MSTORE PUSH1 0x20 DUP3 ADD SWAP2 POP PUSH1 0x20 DUP4 PUSH1 0x5 SHL DUP7 ADD ADD SWAP3 POP DUP6 DUP4 GT ISZERO PUSH2 0x3B05 JUMPI PUSH0 DUP1 REVERT JUMPDEST PUSH1 0x20 DUP6 ADD JUMPDEST DUP4 DUP2 LT ISZERO PUSH2 0x3B22 JUMPI DUP1 MLOAD DUP4 MSTORE PUSH1 0x20 SWAP3 DUP4 ADD SWAP3 ADD PUSH2 0x3B0A JUMP JUMPDEST POP SWAP6 SWAP5 POP POP POP POP POP JUMP JUMPDEST PUSH0 PUSH1 0x20 DUP3 DUP5 SUB SLT ISZERO PUSH2 0x3B3C JUMPI PUSH0 DUP1 REVERT JUMPDEST DUP2 MLOAD PUSH1 0x1 PUSH1 0x1 PUSH1 0x40 SHL SUB DUP2 GT ISZERO PUSH2 0x3B51 JUMPI PUSH0 DUP1 REVERT JUMPDEST DUP3 ADD PUSH1 0xC0 DUP2 DUP6 SUB SLT ISZERO PUSH2 0x3B62 JUMPI PUSH0 DUP1 REVERT JUMPDEST PUSH2 0x3B6A PUSH2 0x3562 JUMP JUMPDEST PUSH2 0x3B73 DUP3 PUSH2 0x37B8 JUMP JUMPDEST DUP2 MSTORE PUSH1 0x20 DUP3 ADD MLOAD PUSH1 0x1 PUSH1 0x1 PUSH1 0x40 SHL SUB DUP2 GT ISZERO PUSH2 0x3B8D JUMPI PUSH0 DUP1 REVERT JUMPDEST PUSH2 0x3B99 DUP7 DUP3 DUP6 ADD PUSH2 0x3AC7 JUMP JUMPDEST PUSH1 0x20 DUP4 ADD MSTORE POP PUSH1 0x40 DUP3 ADD MLOAD PUSH1 0x1 PUSH1 0x1 PUSH1 0x40 SHL SUB DUP2 GT ISZERO PUSH2 0x3BB7 JUMPI PUSH0 DUP1 REVERT JUMPDEST PUSH2 0x3BC3 DUP7 DUP3 DUP6 ADD PUSH2 0x37C8 JUMP JUMPDEST PUSH1 0x40 DUP4 ADD MSTORE POP PUSH1 0x60 DUP3 DUP2 ADD MLOAD SWAP1 DUP3 ADD MSTORE PUSH1 0x80 DUP1 DUP4 ADD MLOAD SWAP1 DUP3 ADD MSTORE PUSH2 0x3BE9 PUSH1 0xA0 DUP4 ADD PUSH2 0x3815 JUMP JUMPDEST PUSH1 0xA0 DUP3 ADD MSTORE SWAP5 SWAP4 POP POP POP POP JUMP JUMPDEST PUSH0 PUSH1 0x20 DUP3 DUP5 SUB SLT ISZERO PUSH2 0x3C06 JUMPI PUSH0 DUP1 REVERT JUMPDEST DUP2 MLOAD PUSH1 0x1 PUSH1 0x1 PUSH1 0x40 SHL SUB DUP2 GT ISZERO PUSH2 0x3C1B JUMPI PUSH0 DUP1 REVERT JUMPDEST DUP3 ADD PUSH2 0x100 DUP2 DUP6 SUB SLT ISZERO PUSH2 0x3C2D JUMPI PUSH0 DUP1 REVERT JUMPDEST PUSH2 0x3C35 PUSH2 0x3584 JUMP JUMPDEST DUP2 MLOAD DUP2 MSTORE PUSH2 0x3C45 PUSH1 0x20 DUP4 ADD PUSH2 0x37B8 JUMP JUMPDEST PUSH1 0x20 DUP3 ADD MSTORE PUSH2 0x3C56 PUSH1 0x40 DUP4 ADD PUSH2 0x37B8 JUMP JUMPDEST PUSH1 0x40 DUP3 ADD MSTORE PUSH1 0x60 DUP3 ADD MLOAD PUSH1 0x1 PUSH1 0x1 PUSH1 0x40 SHL SUB DUP2 GT ISZERO PUSH2 0x3C73 JUMPI PUSH0 DUP1 REVERT JUMPDEST PUSH2 0x3C7F DUP7 DUP3 DUP6 ADD PUSH2 0x37C8 JUMP JUMPDEST PUSH1 0x60 DUP4 ADD MSTORE POP PUSH1 0x80 DUP3 DUP2 ADD MLOAD SWAP1 DUP3 ADD MSTORE PUSH1 0xA0 DUP1 DUP4 ADD MLOAD SWAP1 DUP3 ADD MSTORE PUSH2 0x3CA5 PUSH1 0xC0 DUP4 ADD PUSH2 0x3815 JUMP JUMPDEST PUSH1 0xC0 DUP3 ADD MSTORE PUSH1 0xE0 SWAP2 DUP3 ADD MLOAD SWAP2 DUP2 ADD SWAP2 SWAP1 SWAP2 MSTORE SWAP4 SWAP3 POP POP POP JUMP JUMPDEST PUSH1 0x20 DUP2 MSTORE DUP2 MLOAD PUSH1 0x20 DUP3 ADD MSTORE PUSH1 0x1 DUP1 PUSH1 0xA0 SHL SUB PUSH1 0x20 DUP4 ADD MLOAD AND PUSH1 0x40 DUP3 ADD MSTORE PUSH1 0x1 DUP1 PUSH1 0xA0 SHL SUB PUSH1 0x40 DUP4 ADD MLOAD AND PUSH1 0x60 DUP3 ADD MSTORE PUSH0 PUSH1 0x60 DUP4 ADD MLOAD PUSH2 0x100 PUSH1 0x80 DUP5 ADD MSTORE PUSH2 0x3D09 PUSH2 0x120 DUP5 ADD DUP3 PUSH2 0x310E JUMP JUMPDEST SWAP1 POP PUSH1 0x80 DUP5 ADD MLOAD PUSH1 0xA0 DUP5 ADD MSTORE PUSH1 0xA0 DUP5 ADD MLOAD PUSH1 0xC0 DUP5 ADD MSTORE PUSH1 0xC0 DUP5 ADD MLOAD PUSH2 0x3D32 PUSH1 0xE0 DUP6 ADD DUP3 ISZERO ISZERO SWAP1 MSTORE JUMP JUMPDEST POP PUSH1 0xE0 DUP5 ADD MLOAD PUSH2 0x100 DUP5 ADD MSTORE DUP1 SWAP2 POP POP SWAP3 SWAP2 POP POP JUMP JUMPDEST PUSH4 0x4E487B71 PUSH1 0xE0 SHL PUSH0 MSTORE PUSH1 0x11 PUSH1 0x4 MSTORE PUSH1 0x24 PUSH0 REVERT JUMPDEST DUP1 DUP3 ADD DUP1 DUP3 GT ISZERO PUSH2 0x5BE JUMPI PUSH2 0x5BE PUSH2 0x3D48 JUMP JUMPDEST PUSH4 0x4E487B71 PUSH1 0xE0 SHL PUSH0 MSTORE PUSH1 0x32 PUSH1 0x4 MSTORE PUSH1 0x24 PUSH0 REVERT JUMPDEST PUSH1 0x20 DUP1 DUP3 MSTORE DUP3 MLOAD PUSH1 0x1 PUSH1 0x1 PUSH1 0xA0 SHL SUB AND DUP3 DUP3 ADD MSTORE DUP3 DUP2 ADD MLOAD PUSH1 0xC0 PUSH1 0x40 DUP5 ADD MSTORE DUP1 MLOAD PUSH1 0xE0 DUP5 ADD DUP2 SWAP1 MSTORE PUSH0 SWAP3 SWAP2 SWAP1 SWAP2 ADD SWAP1 DUP3 SWAP1 PUSH2 0x100 DUP6 ADD SWAP1 JUMPDEST DUP1 DUP4 LT ISZERO PUSH2 0x3DDE JUMPI DUP4 MLOAD DUP3 MSTORE PUSH1 0x20 DUP3 ADD SWAP2 POP PUSH1 0x20 DUP5 ADD SWAP4 POP PUSH1 0x1 DUP4 ADD SWAP3 POP PUSH2 0x3DBB JUMP JUMPDEST POP PUSH1 0x40 DUP7 ADD MLOAD DUP6 DUP3 SUB PUSH1 0x1F NOT ADD PUSH1 0x60 DUP8 ADD MSTORE SWAP3 POP PUSH2 0x3DFC DUP2 DUP5 PUSH2 0x310E JUMP JUMPDEST SWAP3 POP POP POP PUSH1 0x60 DUP5 ADD MLOAD PUSH1 0x80 DUP5 ADD MSTORE PUSH1 0x80 DUP5 ADD MLOAD PUSH1 0xA0 DUP5 ADD MSTORE PUSH1 0xA0 DUP5 ADD MLOAD PUSH2 0x1FA4 PUSH1 0xC0 DUP6 ADD DUP3 ISZERO ISZERO SWAP1 MSTORE JUMP JUMPDEST PUSH0 PUSH1 0x20 DUP3 DUP5 SUB SLT ISZERO PUSH2 0x3E37 JUMPI PUSH0 DUP1 REVERT JUMPDEST POP MLOAD SWAP2 SWAP1 POP JUMP JUMPDEST PUSH0 PUSH1 0x20 DUP3 DUP5 SUB SLT ISZERO PUSH2 0x3E4E JUMPI PUSH0 DUP1 REVERT JUMPDEST DUP2 MLOAD PUSH2 0x2BF9 DUP2 PUSH2 0x3165 JUMP JUMPDEST PUSH0 PUSH1 0x20 DUP3 DUP5 SUB SLT ISZERO PUSH2 0x3E69 JUMPI PUSH0 DUP1 REVERT JUMPDEST DUP2 MLOAD PUSH1 0x1 PUSH1 0x1 PUSH1 0x40 SHL SUB DUP2 GT ISZERO PUSH2 0x3E7E JUMPI PUSH0 DUP1 REVERT JUMPDEST PUSH2 0x246A DUP5 DUP3 DUP6 ADD PUSH2 0x37C8 JUMP JUMPDEST PUSH0 PUSH1 0x1 DUP3 ADD PUSH2 0x3E9B JUMPI PUSH2 0x3E9B PUSH2 0x3D48 JUMP JUMPDEST POP PUSH1 0x1 ADD SWAP1 JUMP JUMPDEST DUP1 MLOAD PUSH1 0x3 DUP2 LT PUSH2 0x37C3 JUMPI PUSH0 DUP1 REVERT JUMPDEST PUSH0 DUP3 PUSH1 0x1F DUP4 ADD SLT PUSH2 0x3EBF JUMPI PUSH0 DUP1 REVERT JUMPDEST DUP2 MLOAD PUSH2 0x3ECD PUSH2 0x362C DUP3 PUSH2 0x3951 JUMP JUMPDEST DUP1 DUP3 DUP3 MSTORE PUSH1 0x20 DUP3 ADD SWAP2 POP PUSH1 0x20 DUP4 PUSH1 0x5 SHL DUP7 ADD ADD SWAP3 POP DUP6 DUP4 GT ISZERO PUSH2 0x3EEE JUMPI PUSH0 DUP1 REVERT JUMPDEST PUSH1 0x20 DUP6 ADD JUMPDEST DUP4 DUP2 LT ISZERO PUSH2 0x3B22 JUMPI DUP1 MLOAD PUSH1 0x1 PUSH1 0x1 PUSH1 0x40 SHL SUB DUP2 GT ISZERO PUSH2 0x3F10 JUMPI PUSH0 DUP1 REVERT JUMPDEST PUSH2 0x3F1F DUP9 PUSH1 0x20 DUP4 DUP11 ADD ADD PUSH2 0x37C8 JUMP JUMPDEST DUP5 MSTORE POP PUSH1 0x20 SWAP3 DUP4 ADD SWAP3 ADD PUSH2 0x3EF3 JUMP JUMPDEST PUSH0 DUP3 PUSH1 0x1F DUP4 ADD SLT PUSH2 0x3F3D JUMPI PUSH0 DUP1 REVERT JUMPDEST DUP2 MLOAD PUSH2 0x3F4B PUSH2 0x362C DUP3 PUSH2 0x3951 JUMP JUMPDEST DUP1 DUP3 DUP3 MSTORE PUSH1 0x20 DUP3 ADD SWAP2 POP PUSH1 0x20 DUP4 PUSH1 0x5 SHL DUP7 ADD ADD SWAP3 POP DUP6 DUP4 GT ISZERO PUSH2 0x3F6C JUMPI PUSH0 DUP1 REVERT JUMPDEST PUSH1 0x20 DUP6 ADD JUMPDEST DUP4 DUP2 LT ISZERO PUSH2 0x3B22 JUMPI DUP1 MLOAD PUSH1 0x1 PUSH1 0x1 PUSH1 0x40 SHL SUB DUP2 GT ISZERO PUSH2 0x3F8E JUMPI PUSH0 DUP1 REVERT JUMPDEST DUP7 ADD PUSH1 0x80 DUP2 DUP10 SUB PUSH1 0x1F NOT ADD SLT ISZERO PUSH2 0x3FA3 JUMPI PUSH0 DUP1 REVERT JUMPDEST PUSH2 0x3FAB PUSH2 0x35A7 JUMP JUMPDEST PUSH1 0x20 DUP3 ADD MLOAD PUSH2 0x3FB9 DUP2 PUSH2 0x3165 JUMP JUMPDEST DUP2 MSTORE PUSH1 0x40 DUP3 ADD MLOAD PUSH1 0x20 DUP3 ADD MSTORE PUSH1 0x60 DUP3 ADD MLOAD PUSH1 0x1 PUSH1 0x1 PUSH1 0x40 SHL SUB DUP2 GT ISZERO PUSH2 0x3FDD JUMPI PUSH0 DUP1 REVERT JUMPDEST PUSH2 0x3FEC DUP11 PUSH1 0x20 DUP4 DUP7 ADD ADD PUSH2 0x37C8 JUMP JUMPDEST PUSH1 0x40 DUP4 ADD MSTORE POP PUSH1 0x80 DUP3 ADD MLOAD PUSH1 0x1 PUSH1 0x1 PUSH1 0x40 SHL SUB DUP2 GT ISZERO PUSH2 0x400A JUMPI PUSH0 DUP1 REVERT JUMPDEST PUSH2 0x4019 DUP11 PUSH1 0x20 DUP4 DUP7 ADD ADD PUSH2 0x3EB0 JUMP JUMPDEST PUSH1 0x60 DUP4 ADD MSTORE POP DUP5 MSTORE POP PUSH1 0x20 SWAP3 DUP4 ADD SWAP3 ADD PUSH2 0x3F71 JUMP JUMPDEST PUSH0 PUSH1 0x20 DUP3 DUP5 SUB SLT ISZERO PUSH2 0x403E JUMPI PUSH0 DUP1 REVERT JUMPDEST DUP2 MLOAD PUSH1 0x1 PUSH1 0x1 PUSH1 0x40 SHL SUB DUP2 GT ISZERO PUSH2 0x4053 JUMPI PUSH0 DUP1 REVERT JUMPDEST DUP3 ADD PUSH2 0x100 DUP2 DUP6 SUB SLT ISZERO PUSH2 0x4065 JUMPI PUSH0 DUP1 REVERT JUMPDEST PUSH2 0x406D PUSH2 0x3584 JUMP JUMPDEST DUP2 MLOAD DUP2 MSTORE PUSH2 0x407D PUSH1 0x20 DUP4 ADD PUSH2 0x37B8 JUMP JUMPDEST PUSH1 0x20 DUP3 ADD MSTORE PUSH1 0x40 DUP3 ADD MLOAD PUSH1 0x1 PUSH1 0x1 PUSH1 0x40 SHL SUB DUP2 GT ISZERO PUSH2 0x409A JUMPI PUSH0 DUP1 REVERT JUMPDEST PUSH2 0x40A6 DUP7 DUP3 DUP6 ADD PUSH2 0x37C8 JUMP JUMPDEST PUSH1 0x40 DUP4 ADD MSTORE POP PUSH1 0x60 DUP3 DUP2 ADD MLOAD SWAP1 DUP3 ADD MSTORE PUSH2 0x40C2 PUSH1 0x80 DUP4 ADD PUSH2 0x3EA2 JUMP JUMPDEST PUSH1 0x80 DUP3 ADD MSTORE PUSH2 0x40D3 PUSH1 0xA0 DUP4 ADD PUSH2 0x37B8 JUMP JUMPDEST PUSH1 0xA0 DUP3 ADD MSTORE PUSH1 0xC0 DUP3 ADD MLOAD PUSH1 0x1 PUSH1 0x1 PUSH1 0x40 SHL SUB DUP2 GT ISZERO PUSH2 0x40F0 JUMPI PUSH0 DUP1 REVERT JUMPDEST PUSH2 0x40FC DUP7 DUP3 DUP6 ADD PUSH2 0x3F2E JUMP JUMPDEST PUSH1 0xC0 DUP4 ADD MSTORE POP PUSH1 0xE0 DUP3 ADD MLOAD PUSH1 0x1 PUSH1 0x1 PUSH1 0x40 SHL SUB DUP2 GT ISZERO PUSH2 0x411A JUMPI PUSH0 DUP1 REVERT JUMPDEST PUSH2 0x4126 DUP7 DUP3 DUP6 ADD PUSH2 0x3EB0 JUMP JUMPDEST PUSH1 0xE0 DUP4 ADD MSTORE POP SWAP5 SWAP4 POP POP POP POP JUMP JUMPDEST PUSH4 0x4E487B71 PUSH1 0xE0 SHL PUSH0 MSTORE PUSH1 0x21 PUSH1 0x4 MSTORE PUSH1 0x24 PUSH0 REVERT JUMPDEST PUSH1 0x3 DUP2 LT PUSH2 0x4164 JUMPI PUSH4 0x4E487B71 PUSH1 0xE0 SHL PUSH0 MSTORE PUSH1 0x21 PUSH1 0x4 MSTORE PUSH1 0x24 PUSH0 REVERT JUMPDEST SWAP1 MSTORE JUMP JUMPDEST PUSH0 DUP3 DUP3 MLOAD DUP1 DUP6 MSTORE PUSH1 0x20 DUP6 ADD SWAP5 POP PUSH1 0x20 DUP2 PUSH1 0x5 SHL DUP4 ADD ADD PUSH1 0x20 DUP6 ADD PUSH0 JUMPDEST DUP4 DUP2 LT ISZERO PUSH2 0x3A36 JUMPI PUSH1 0x1F NOT DUP6 DUP5 SUB ADD DUP9 MSTORE PUSH2 0x41A0 DUP4 DUP4 MLOAD PUSH2 0x3A42 JUMP JUMPDEST PUSH1 0x20 SWAP9 DUP10 ADD SWAP9 SWAP1 SWAP4 POP SWAP2 SWAP1 SWAP2 ADD SWAP1 PUSH1 0x1 ADD PUSH2 0x4184 JUMP JUMPDEST PUSH1 0x20 DUP2 MSTORE DUP2 MLOAD PUSH1 0x20 DUP3 ADD MSTORE PUSH0 PUSH1 0x20 DUP4 ADD MLOAD PUSH2 0x41DC PUSH1 0x40 DUP5 ADD DUP3 PUSH1 0x1 PUSH1 0x1 PUSH1 0xA0 SHL SUB AND SWAP1 MSTORE JUMP JUMPDEST POP PUSH1 0x40 DUP4 ADD MLOAD PUSH2 0x100 PUSH1 0x60 DUP5 ADD MSTORE PUSH2 0x41F8 PUSH2 0x120 DUP5 ADD DUP3 PUSH2 0x310E JUMP JUMPDEST SWAP1 POP PUSH1 0x60 DUP5 ADD MLOAD PUSH1 0x80 DUP5 ADD MSTORE PUSH1 0x80 DUP5 ADD MLOAD PUSH2 0x4216 PUSH1 0xA0 DUP6 ADD DUP3 PUSH2 0x4148 JUMP JUMPDEST POP PUSH1 0xA0 DUP5 ADD MLOAD PUSH1 0x1 PUSH1 0x1 PUSH1 0xA0 SHL SUB DUP2 AND PUSH1 0xC0 DUP6 ADD MSTORE POP PUSH1 0xC0 DUP5 ADD MLOAD DUP4 DUP3 SUB PUSH1 0x1F NOT ADD PUSH1 0xE0 DUP6 ADD MSTORE PUSH2 0x4247 DUP3 DUP3 PUSH2 0x4168 JUMP JUMPDEST SWAP2 POP POP PUSH1 0xE0 DUP5 ADD MLOAD PUSH1 0x1F NOT DUP5 DUP4 SUB ADD PUSH2 0x100 DUP6 ADD MSTORE PUSH2 0x3A8B DUP3 DUP3 PUSH2 0x39E8 JUMP JUMPDEST PUSH0 DUP1 PUSH1 0x40 DUP4 DUP6 SUB SLT ISZERO PUSH2 0x4277 JUMPI PUSH0 DUP1 REVERT JUMPDEST DUP3 MLOAD PUSH1 0x1 PUSH1 0x1 PUSH1 0x40 SHL SUB DUP2 GT ISZERO PUSH2 0x428C JUMPI PUSH0 DUP1 REVERT JUMPDEST PUSH2 0x4298 DUP6 DUP3 DUP7 ADD PUSH2 0x3AC7 JUMP JUMPDEST SWAP3 POP POP PUSH1 0x20 DUP4 ADD MLOAD PUSH1 0x1 PUSH1 0x1 PUSH1 0x40 SHL SUB DUP2 GT ISZERO PUSH2 0x42B3 JUMPI PUSH0 DUP1 REVERT JUMPDEST PUSH2 0x42BF DUP6 DUP3 DUP7 ADD PUSH2 0x3AC7 JUMP JUMPDEST SWAP2 POP POP SWAP3 POP SWAP3 SWAP1 POP JUMP JUMPDEST PUSH1 0x1F DUP3 GT ISZERO PUSH2 0x988 JUMPI DUP1 PUSH0 MSTORE PUSH1 0x20 PUSH0 KECCAK256 PUSH1 0x1F DUP5 ADD PUSH1 0x5 SHR DUP2 ADD PUSH1 0x20 DUP6 LT ISZERO PUSH2 0x42EE JUMPI POP DUP1 JUMPDEST PUSH1 0x1F DUP5 ADD PUSH1 0x5 SHR DUP3 ADD SWAP2 POP JUMPDEST DUP2 DUP2 LT ISZERO PUSH2 0x1BEC JUMPI PUSH0 DUP2 SSTORE PUSH1 0x1 ADD PUSH2 0x42FA JUMP JUMPDEST DUP2 MLOAD PUSH1 0x1 PUSH1 0x1 PUSH1 0x40 SHL SUB DUP2 GT ISZERO PUSH2 0x4326 JUMPI PUSH2 0x4326 PUSH2 0x3526 JUMP JUMPDEST PUSH2 0x433A DUP2 PUSH2 0x4334 DUP5 SLOAD PUSH2 0x3780 JUMP JUMPDEST DUP5 PUSH2 0x42C9 JUMP JUMPDEST PUSH1 0x20 PUSH1 0x1F DUP3 GT PUSH1 0x1 DUP2 EQ PUSH2 0x436C JUMPI PUSH0 DUP4 ISZERO PUSH2 0x4355 JUMPI POP DUP5 DUP3 ADD MLOAD JUMPDEST PUSH0 NOT PUSH1 0x3 DUP6 SWAP1 SHL SHR NOT AND PUSH1 0x1 DUP5 SWAP1 SHL OR DUP5 SSTORE PUSH2 0x1BEC JUMP JUMPDEST PUSH0 DUP5 DUP2 MSTORE PUSH1 0x20 DUP2 KECCAK256 PUSH1 0x1F NOT DUP6 AND SWAP2 JUMPDEST DUP3 DUP2 LT ISZERO PUSH2 0x439B JUMPI DUP8 DUP6 ADD MLOAD DUP3 SSTORE PUSH1 0x20 SWAP5 DUP6 ADD SWAP5 PUSH1 0x1 SWAP1 SWAP3 ADD SWAP2 ADD PUSH2 0x437B JUMP JUMPDEST POP DUP5 DUP3 LT ISZERO PUSH2 0x43B8 JUMPI DUP7 DUP5 ADD MLOAD PUSH0 NOT PUSH1 0x3 DUP8 SWAP1 SHL PUSH1 0xF8 AND SHR NOT AND DUP2 SSTORE JUMPDEST POP POP POP POP PUSH1 0x1 SWAP1 DUP2 SHL ADD SWAP1 SSTORE POP JUMP JUMPDEST PUSH1 0x1 PUSH1 0x1 PUSH1 0xA0 SHL SUB DUP6 DUP2 AND DUP3 MSTORE DUP5 AND PUSH1 0x20 DUP3 ADD MSTORE PUSH1 0x40 DUP2 ADD DUP4 SWAP1 MSTORE PUSH1 0x80 PUSH1 0x60 DUP3 ADD DUP2 SWAP1 MSTORE PUSH0 SWAP1 PUSH2 0x43F9 SWAP1 DUP4 ADD DUP5 PUSH2 0x310E JUMP JUMPDEST SWAP7 SWAP6 POP POP POP POP POP POP JUMP JUMPDEST PUSH0 PUSH1 0x20 DUP3 DUP5 SUB SLT ISZERO PUSH2 0x4413 JUMPI PUSH0 DUP1 REVERT JUMPDEST DUP2 MLOAD PUSH2 0x2BF9 DUP2 PUSH2 0x30DE JUMP JUMPDEST PUSH0 DUP2 MLOAD DUP1 PUSH1 0x20 DUP5 ADD DUP6 MCOPY PUSH0 SWAP4 ADD SWAP3 DUP4 MSTORE POP SWAP1 SWAP2 SWAP1 POP JUMP JUMPDEST PUSH0 PUSH2 0x246A PUSH2 0x4443 DUP4 DUP7 PUSH2 0x441E JUMP JUMPDEST DUP5 PUSH2 0x441E JUMP JUMPDEST DUP2 DUP2 SUB DUP2 DUP2 GT ISZERO PUSH2 0x5BE JUMPI PUSH2 0x5BE PUSH2 0x3D48 JUMP JUMPDEST PUSH4 0x4E487B71 PUSH1 0xE0 SHL PUSH0 MSTORE PUSH1 0x31 PUSH1 0x4 MSTORE PUSH1 0x24 PUSH0 REVERT INVALID LOG2 PUSH5 0x6970667358 0x22 SLT KECCAK256 DUP2 SWAP1 BLOBBASEFEE SWAP11 MULMOD COINBASE DUP9 0xE3 0x2B 0xB0 0xDD BYTE SDIV SWAP16 DUP1 MLOAD CALL PUSH15 0x62E6789D2ECF6B122D080B17EA1264 PUSH20 0x6F6C634300081A00330000000000000000000000 "
		},
		"gasEstimates": {
			"creation": {
				"codeDepositCost": "3514800",
				"executionCost": "infinite",
				"totalCost": "infinite"
			},
			"external": {
				"addCase(address,address,string,uint256,bool)": "infinite",
				"addCorroboration(uint256,string,string[])": "infinite",
				"approve(address,uint256)": "31548",
				"assignRepresentative(address,address)": "infinite",
				"balanceOf(address)": "2647",
				"burn(uint256)": "infinite",
				"confirmEmergencyResponse(address,uint256,address)": "infinite",
				"getApproved(uint256)": "infinite",
				"getOpenCases(address)": "infinite",
				"getRepresentative(address)": "infinite",
				"isApprovedForAll(address,address)": "infinite",
				"isLawyer(address)": "infinite",
				"isMember(address)": "infinite",
				"migrateNftAndCaseTokens(address)": "infinite",
				"migrateNftFromOldContract(address)": "infinite",
				"mintMembershipNFT(address,string,uint256)": "infinite",
				"name()": "infinite",
				"nftPrice()": "2429",
				"owner()": "2375",
				"ownerOf(uint256)": "infinite",
				"padiWallet()": "2425",
				"paymentToken()": "2382",
				"registerLawyer(address,string)": "infinite",
				"renounceOwnership()": "infinite",
				"reportIncident(string,string[])": "infinite",
				"resolveCase(address,uint256)": "infinite",
				"rewardLawyerForEmergency(address,uint256,uint256)": "infinite",
				"safeTransferFrom(address,address,uint256)": "infinite",
				"safeTransferFrom(address,address,uint256,bytes)": "infinite",
				"setApprovalForAll(address,bool)": "infinite",
				"setPaymentToken(address)": "28020",
				"signUpLawyer(address,string)": "infinite",
				"storageContract()": "2382",
				"supportsInterface(bytes4)": "infinite",
				"symbol()": "infinite",
				"tokenByIndex(uint256)": "6799",
				"tokenOfOwnerByIndex(address,uint256)": "5052",
				"tokenURI(uint256)": "infinite",
				"totalSupply()": "2359",
				"transferFrom(address,address,uint256)": "infinite",
				"transferOwnership(address)": "infinite",
				"transferTokenCaseBalance(address)": "infinite",
				"updateIncidentStatus(uint256,uint8)": "infinite"
			},
			"internal": {
				"_increaseBalance(address,uint128)": "infinite",
				"_update(address,uint256,address)": "infinite"
			}
		},
		"methodIdentifiers": {
			"addCase(address,address,string,uint256,bool)": "6eb60a80",
			"addCorroboration(uint256,string,string[])": "45db283d",
			"approve(address,uint256)": "095ea7b3",
			"assignRepresentative(address,address)": "4158c1b5",
			"balanceOf(address)": "70a08231",
			"burn(uint256)": "42966c68",
			"confirmEmergencyResponse(address,uint256,address)": "241f8715",
			"getApproved(uint256)": "081812fc",
			"getOpenCases(address)": "e1a9abf1",
			"getRepresentative(address)": "edd501fa",
			"isApprovedForAll(address,address)": "e985e9c5",
			"isLawyer(address)": "5939a84e",
			"isMember(address)": "a230c524",
			"migrateNftAndCaseTokens(address)": "9bb0f759",
			"migrateNftFromOldContract(address)": "8502f1c2",
			"mintMembershipNFT(address,string,uint256)": "8baa5d8b",
			"name()": "06fdde03",
			"nftPrice()": "0d39fc81",
			"owner()": "8da5cb5b",
			"ownerOf(uint256)": "6352211e",
			"padiWallet()": "99bb9350",
			"paymentToken()": "3013ce29",
			"registerLawyer(address,string)": "ca259ed2",
			"renounceOwnership()": "715018a6",
			"reportIncident(string,string[])": "f08aa69f",
			"resolveCase(address,uint256)": "49678605",
			"rewardLawyerForEmergency(address,uint256,uint256)": "aa9aa17a",
			"safeTransferFrom(address,address,uint256)": "42842e0e",
			"safeTransferFrom(address,address,uint256,bytes)": "b88d4fde",
			"setApprovalForAll(address,bool)": "a22cb465",
			"setPaymentToken(address)": "6a326ab1",
			"signUpLawyer(address,string)": "4b870a83",
			"storageContract()": "11ce0267",
			"supportsInterface(bytes4)": "01ffc9a7",
			"symbol()": "95d89b41",
			"tokenByIndex(uint256)": "4f6ccce7",
			"tokenOfOwnerByIndex(address,uint256)": "2f745c59",
			"tokenURI(uint256)": "c87b56dd",
			"totalSupply()": "18160ddd",
			"transferFrom(address,address,uint256)": "23b872dd",
			"transferOwnership(address)": "f2fde38b",
			"transferTokenCaseBalance(address)": "e42dde2e",
			"updateIncidentStatus(uint256,uint8)": "a3f8d8ed"
		}
	},
	"abi": [
		{
			"inputs": [
				{
					"internalType": "address",
					"name": "_storage",
					"type": "address"
				},
				{
					"internalType": "address",
					"name": "_paymentToken",
					"type": "address"
				},
				{
					"internalType": "address",
					"name": "_padiWallet",
					"type": "address"
				},
				{
					"internalType": "uint256",
					"name": "_nftPrice",
					"type": "uint256"
				}
			],
			"stateMutability": "nonpayable",
			"type": "constructor"
		},
		{
			"inputs": [],
			"name": "ERC721EnumerableForbiddenBatchMint",
			"type": "error"
		},
		{
			"inputs": [
				{
					"internalType": "address",
					"name": "sender",
					"type": "address"
				},
				{
					"internalType": "uint256",
					"name": "tokenId",
					"type": "uint256"
				},
				{
					"internalType": "address",
					"name": "owner",
					"type": "address"
				}
			],
			"name": "ERC721IncorrectOwner",
			"type": "error"
		},
		{
			"inputs": [
				{
					"internalType": "address",
					"name": "operator",
					"type": "address"
				},
				{
					"internalType": "uint256",
					"name": "tokenId",
					"type": "uint256"
				}
			],
			"name": "ERC721InsufficientApproval",
			"type": "error"
		},
		{
			"inputs": [
				{
					"internalType": "address",
					"name": "approver",
					"type": "address"
				}
			],
			"name": "ERC721InvalidApprover",
			"type": "error"
		},
		{
			"inputs": [
				{
					"internalType": "address",
					"name": "operator",
					"type": "address"
				}
			],
			"name": "ERC721InvalidOperator",
			"type": "error"
		},
		{
			"inputs": [
				{
					"internalType": "address",
					"name": "owner",
					"type": "address"
				}
			],
			"name": "ERC721InvalidOwner",
			"type": "error"
		},
		{
			"inputs": [
				{
					"internalType": "address",
					"name": "receiver",
					"type": "address"
				}
			],
			"name": "ERC721InvalidReceiver",
			"type": "error"
		},
		{
			"inputs": [
				{
					"internalType": "address",
					"name": "sender",
					"type": "address"
				}
			],
			"name": "ERC721InvalidSender",
			"type": "error"
		},
		{
			"inputs": [
				{
					"internalType": "uint256",
					"name": "tokenId",
					"type": "uint256"
				}
			],
			"name": "ERC721NonexistentToken",
			"type": "error"
		},
		{
			"inputs": [
				{
					"internalType": "address",
					"name": "owner",
					"type": "address"
				},
				{
					"internalType": "uint256",
					"name": "index",
					"type": "uint256"
				}
			],
			"name": "ERC721OutOfBoundsIndex",
			"type": "error"
		},
		{
			"inputs": [
				{
					"internalType": "address",
					"name": "owner",
					"type": "address"
				}
			],
			"name": "OwnableInvalidOwner",
			"type": "error"
		},
		{
			"inputs": [
				{
					"internalType": "address",
					"name": "account",
					"type": "address"
				}
			],
			"name": "OwnableUnauthorizedAccount",
			"type": "error"
		},
		{
			"inputs": [
				{
					"internalType": "address",
					"name": "token",
					"type": "address"
				}
			],
			"name": "SafeERC20FailedOperation",
			"type": "error"
		},
		{
			"anonymous": false,
			"inputs": [
				{
					"indexed": true,
					"internalType": "address",
					"name": "owner",
					"type": "address"
				},
				{
					"indexed": true,
					"internalType": "address",
					"name": "approved",
					"type": "address"
				},
				{
					"indexed": true,
					"internalType": "uint256",
					"name": "tokenId",
					"type": "uint256"
				}
			],
			"name": "Approval",
			"type": "event"
		},
		{
			"anonymous": false,
			"inputs": [
				{
					"indexed": true,
					"internalType": "address",
					"name": "owner",
					"type": "address"
				},
				{
					"indexed": true,
					"internalType": "address",
					"name": "operator",
					"type": "address"
				},
				{
					"indexed": false,
					"internalType": "bool",
					"name": "approved",
					"type": "bool"
				}
			],
			"name": "ApprovalForAll",
			"type": "event"
		},
		{
			"anonymous": false,
			"inputs": [
				{
					"indexed": false,
					"internalType": "uint256",
					"name": "_fromTokenId",
					"type": "uint256"
				},
				{
					"indexed": false,
					"internalType": "uint256",
					"name": "_toTokenId",
					"type": "uint256"
				}
			],
			"name": "BatchMetadataUpdate",
			"type": "event"
		},
		{
			"anonymous": false,
			"inputs": [
				{
					"indexed": true,
					"internalType": "address",
					"name": "lawyerAddress",
					"type": "address"
				},
				{
					"indexed": true,
					"internalType": "uint256",
					"name": "caseId",
					"type": "uint256"
				},
				{
					"indexed": true,
					"internalType": "address",
					"name": "memberAddress",
					"type": "address"
				},
				{
					"indexed": false,
					"internalType": "bool",
					"name": "isEmergency",
					"type": "bool"
				}
			],
			"name": "CaseAdded",
			"type": "event"
		},
		{
			"anonymous": false,
			"inputs": [
				{
					"indexed": true,
					"internalType": "address",
					"name": "lawyerAddress",
					"type": "address"
				},
				{
					"indexed": true,
					"internalType": "uint256",
					"name": "caseId",
					"type": "uint256"
				}
			],
			"name": "CaseResolved",
			"type": "event"
		},
		{
			"anonymous": false,
			"inputs": [
				{
					"indexed": true,
					"internalType": "uint256",
					"name": "incidentId",
					"type": "uint256"
				},
				{
					"indexed": true,
					"internalType": "address",
					"name": "corroborator",
					"type": "address"
				},
				{
					"indexed": false,
					"internalType": "uint256",
					"name": "timestamp",
					"type": "uint256"
				}
			],
			"name": "CorroborationAdded",
			"type": "event"
		},
		{
			"anonymous": false,
			"inputs": [
				{
					"indexed": true,
					"internalType": "address",
					"name": "lawyerAddress",
					"type": "address"
				},
				{
					"indexed": true,
					"internalType": "uint256",
					"name": "caseId",
					"type": "uint256"
				},
				{
					"indexed": true,
					"internalType": "address",
					"name": "memberAddress",
					"type": "address"
				},
				{
					"indexed": false,
					"internalType": "uint256",
					"name": "timestamp",
					"type": "uint256"
				}
			],
			"name": "EmergencyResponseConfirmed",
			"type": "event"
		},
		{
			"anonymous": false,
			"inputs": [
				{
					"indexed": true,
					"internalType": "uint256",
					"name": "incidentId",
					"type": "uint256"
				},
				{
					"indexed": true,
					"internalType": "address",
					"name": "reporter",
					"type": "address"
				},
				{
					"indexed": false,
					"internalType": "uint256",
					"name": "timestamp",
					"type": "uint256"
				}
			],
			"name": "IncidentReported",
			"type": "event"
		},
		{
			"anonymous": false,
			"inputs": [
				{
					"indexed": true,
					"internalType": "uint256",
					"name": "incidentId",
					"type": "uint256"
				},
				{
					"indexed": false,
					"internalType": "uint8",
					"name": "status",
					"type": "uint8"
				},
				{
					"indexed": true,
					"internalType": "address",
					"name": "verifier",
					"type": "address"
				}
			],
			"name": "IncidentStatusUpdated",
			"type": "event"
		},
		{
			"anonymous": false,
			"inputs": [
				{
					"indexed": true,
					"internalType": "address",
					"name": "lawyerAddress",
					"type": "address"
				},
				{
					"indexed": false,
					"internalType": "uint256",
					"name": "rewardAmount",
					"type": "uint256"
				},
				{
					"indexed": false,
					"internalType": "uint256",
					"name": "caseId",
					"type": "uint256"
				}
			],
			"name": "LawyerRewarded",
			"type": "event"
		},
		{
			"anonymous": false,
			"inputs": [
				{
					"indexed": true,
					"internalType": "address",
					"name": "lawyerAddress",
					"type": "address"
				}
			],
			"name": "LawyerSignedUp",
			"type": "event"
		},
		{
			"anonymous": false,
			"inputs": [
				{
					"indexed": true,
					"internalType": "address",
					"name": "memberAddress",
					"type": "address"
				},
				{
					"indexed": true,
					"internalType": "uint256",
					"name": "tokenId",
					"type": "uint256"
				}
			],
			"name": "MembershipNFTMinted",
			"type": "event"
		},
		{
			"anonymous": false,
			"inputs": [
				{
					"indexed": false,
					"internalType": "uint256",
					"name": "_tokenId",
					"type": "uint256"
				}
			],
			"name": "MetadataUpdate",
			"type": "event"
		},
		{
			"anonymous": false,
			"inputs": [
				{
					"indexed": true,
					"internalType": "address",
					"name": "previousOwner",
					"type": "address"
				},
				{
					"indexed": true,
					"internalType": "address",
					"name": "newOwner",
					"type": "address"
				}
			],
			"name": "OwnershipTransferred",
			"type": "event"
		},
		{
			"anonymous": false,
			"inputs": [
				{
					"indexed": true,
					"internalType": "address",
					"name": "tokenAddress",
					"type": "address"
				}
			],
			"name": "PaymentTokenUpdated",
			"type": "event"
		},
		{
			"anonymous": false,
			"inputs": [
				{
					"indexed": true,
					"internalType": "address",
					"name": "memberAddress",
					"type": "address"
				},
				{
					"indexed": true,
					"internalType": "address",
					"name": "representativeAddress",
					"type": "address"
				}
			],
			"name": "RepresentativeAssigned",
			"type": "event"
		},
		{
			"anonymous": false,
			"inputs": [
				{
					"indexed": false,
					"internalType": "address",
					"name": "owner",
					"type": "address"
				},
				{
					"indexed": false,
					"internalType": "uint256",
					"name": "oldTokenId",
					"type": "uint256"
				}
			],
			"name": "Testing",
			"type": "event"
		},
		{
			"anonymous": false,
			"inputs": [
				{
					"indexed": true,
					"internalType": "address",
					"name": "from",
					"type": "address"
				},
				{
					"indexed": true,
					"internalType": "address",
					"name": "to",
					"type": "address"
				},
				{
					"indexed": true,
					"internalType": "uint256",
					"name": "tokenId",
					"type": "uint256"
				}
			],
			"name": "Transfer",
			"type": "event"
		},
		{
			"inputs": [
				{
					"internalType": "address",
					"name": "lawyerAddress",
					"type": "address"
				},
				{
					"internalType": "address",
					"name": "memberAddress",
					"type": "address"
				},
				{
					"internalType": "string",
					"name": "descriptionMetadata",
					"type": "string"
				},
				{
					"internalType": "uint256",
					"name": "rewardAmount",
					"type": "uint256"
				},
				{
					"internalType": "bool",
					"name": "isEmergency",
					"type": "bool"
				}
			],
			"name": "addCase",
			"outputs": [],
			"stateMutability": "nonpayable",
			"type": "function"
		},
		{
			"inputs": [
				{
					"internalType": "uint256",
					"name": "incidentId",
					"type": "uint256"
				},
				{
					"internalType": "string",
					"name": "comment",
					"type": "string"
				},
				{
					"internalType": "string[]",
					"name": "mediaURIs",
					"type": "string[]"
				}
			],
			"name": "addCorroboration",
			"outputs": [],
			"stateMutability": "nonpayable",
			"type": "function"
		},
		{
			"inputs": [
				{
					"internalType": "address",
					"name": "to",
					"type": "address"
				},
				{
					"internalType": "uint256",
					"name": "tokenId",
					"type": "uint256"
				}
			],
			"name": "approve",
			"outputs": [],
			"stateMutability": "nonpayable",
			"type": "function"
		},
		{
			"inputs": [
				{
					"internalType": "address",
					"name": "member",
					"type": "address"
				},
				{
					"internalType": "address",
					"name": "representative",
					"type": "address"
				}
			],
			"name": "assignRepresentative",
			"outputs": [],
			"stateMutability": "nonpayable",
			"type": "function"
		},
		{
			"inputs": [
				{
					"internalType": "address",
					"name": "owner",
					"type": "address"
				}
			],
			"name": "balanceOf",
			"outputs": [
				{
					"internalType": "uint256",
					"name": "",
					"type": "uint256"
				}
			],
			"stateMutability": "view",
			"type": "function"
		},
		{
			"inputs": [
				{
					"internalType": "uint256",
					"name": "tokenId",
					"type": "uint256"
				}
			],
			"name": "burn",
			"outputs": [],
			"stateMutability": "nonpayable",
			"type": "function"
		},
		{
			"inputs": [
				{
					"internalType": "address",
					"name": "memberAddress",
					"type": "address"
				},
				{
					"internalType": "uint256",
					"name": "caseId",
					"type": "uint256"
				},
				{
					"internalType": "address",
					"name": "lawyerAddress",
					"type": "address"
				}
			],
			"name": "confirmEmergencyResponse",
			"outputs": [],
			"stateMutability": "nonpayable",
			"type": "function"
		},
		{
			"inputs": [
				{
					"internalType": "uint256",
					"name": "tokenId",
					"type": "uint256"
				}
			],
			"name": "getApproved",
			"outputs": [
				{
					"internalType": "address",
					"name": "",
					"type": "address"
				}
			],
			"stateMutability": "view",
			"type": "function"
		},
		{
			"inputs": [
				{
					"internalType": "address",
					"name": "lawyer",
					"type": "address"
				}
			],
			"name": "getOpenCases",
			"outputs": [
				{
					"internalType": "uint256[]",
					"name": "",
					"type": "uint256[]"
				}
			],
			"stateMutability": "view",
			"type": "function"
		},
		{
			"inputs": [
				{
					"internalType": "address",
					"name": "member",
					"type": "address"
				}
			],
			"name": "getRepresentative",
			"outputs": [
				{
					"internalType": "address",
					"name": "",
					"type": "address"
				}
			],
			"stateMutability": "view",
			"type": "function"
		},
		{
			"inputs": [
				{
					"internalType": "address",
					"name": "owner",
					"type": "address"
				},
				{
					"internalType": "address",
					"name": "operator",
					"type": "address"
				}
			],
			"name": "isApprovedForAll",
			"outputs": [
				{
					"internalType": "bool",
					"name": "",
					"type": "bool"
				}
			],
			"stateMutability": "view",
			"type": "function"
		},
		{
			"inputs": [
				{
					"internalType": "address",
					"name": "lawyerAddress",
					"type": "address"
				}
			],
			"name": "isLawyer",
			"outputs": [
				{
					"internalType": "bool",
					"name": "",
					"type": "bool"
				}
			],
			"stateMutability": "view",
			"type": "function"
		},
		{
			"inputs": [
				{
					"internalType": "address",
					"name": "memberAddress",
					"type": "address"
				}
			],
			"name": "isMember",
			"outputs": [
				{
					"internalType": "bool",
					"name": "",
					"type": "bool"
				}
			],
			"stateMutability": "view",
			"type": "function"
		},
		{
			"inputs": [
				{
					"internalType": "address",
					"name": "oldContractAddress",
					"type": "address"
				}
			],
			"name": "migrateNftAndCaseTokens",
			"outputs": [],
			"stateMutability": "nonpayable",
			"type": "function"
		},
		{
			"inputs": [
				{
					"internalType": "address",
					"name": "oldContractAddress",
					"type": "address"
				}
			],
			"name": "migrateNftFromOldContract",
			"outputs": [],
			"stateMutability": "nonpayable",
			"type": "function"
		},
		{
			"inputs": [
				{
					"internalType": "address",
					"name": "member",
					"type": "address"
				},
				{
					"internalType": "string",
					"name": "metadataURI",
					"type": "string"
				},
				{
					"internalType": "uint256",
					"name": "paymentAmount",
					"type": "uint256"
				}
			],
			"name": "mintMembershipNFT",
			"outputs": [],
			"stateMutability": "nonpayable",
			"type": "function"
		},
		{
			"inputs": [],
			"name": "name",
			"outputs": [
				{
					"internalType": "string",
					"name": "",
					"type": "string"
				}
			],
			"stateMutability": "view",
			"type": "function"
		},
		{
			"inputs": [],
			"name": "nftPrice",
			"outputs": [
				{
					"internalType": "uint256",
					"name": "",
					"type": "uint256"
				}
			],
			"stateMutability": "view",
			"type": "function"
		},
		{
			"inputs": [],
			"name": "owner",
			"outputs": [
				{
					"internalType": "address",
					"name": "",
					"type": "address"
				}
			],
			"stateMutability": "view",
			"type": "function"
		},
		{
			"inputs": [
				{
					"internalType": "uint256",
					"name": "tokenId",
					"type": "uint256"
				}
			],
			"name": "ownerOf",
			"outputs": [
				{
					"internalType": "address",
					"name": "",
					"type": "address"
				}
			],
			"stateMutability": "view",
			"type": "function"
		},
		{
			"inputs": [],
			"name": "padiWallet",
			"outputs": [
				{
					"internalType": "address",
					"name": "",
					"type": "address"
				}
			],
			"stateMutability": "view",
			"type": "function"
		},
		{
			"inputs": [],
			"name": "paymentToken",
			"outputs": [
				{
					"internalType": "contract IERC20",
					"name": "",
					"type": "address"
				}
			],
			"stateMutability": "view",
			"type": "function"
		},
		{
			"inputs": [
				{
					"internalType": "address",
					"name": "lawyer",
					"type": "address"
				},
				{
					"internalType": "string",
					"name": "profileURI",
					"type": "string"
				}
			],
			"name": "registerLawyer",
			"outputs": [],
			"stateMutability": "nonpayable",
			"type": "function"
		},
		{
			"inputs": [],
			"name": "renounceOwnership",
			"outputs": [],
			"stateMutability": "nonpayable",
			"type": "function"
		},
		{
			"inputs": [
				{
					"internalType": "string",
					"name": "descriptionMetadata",
					"type": "string"
				},
				{
					"internalType": "string[]",
					"name": "mediaURIs",
					"type": "string[]"
				}
			],
			"name": "reportIncident",
			"outputs": [
				{
					"internalType": "uint256",
					"name": "incidentId",
					"type": "uint256"
				}
			],
			"stateMutability": "nonpayable",
			"type": "function"
		},
		{
			"inputs": [
				{
					"internalType": "address",
					"name": "lawyerAddress",
					"type": "address"
				},
				{
					"internalType": "uint256",
					"name": "caseId",
					"type": "uint256"
				}
			],
			"name": "resolveCase",
			"outputs": [],
			"stateMutability": "nonpayable",
			"type": "function"
		},
		{
			"inputs": [
				{
					"internalType": "address",
					"name": "lawyerAddress",
					"type": "address"
				},
				{
					"internalType": "uint256",
					"name": "caseId",
					"type": "uint256"
				},
				{
					"internalType": "uint256",
					"name": "rewardAmount",
					"type": "uint256"
				}
			],
			"name": "rewardLawyerForEmergency",
			"outputs": [],
			"stateMutability": "nonpayable",
			"type": "function"
		},
		{
			"inputs": [
				{
					"internalType": "address",
					"name": "from",
					"type": "address"
				},
				{
					"internalType": "address",
					"name": "to",
					"type": "address"
				},
				{
					"internalType": "uint256",
					"name": "tokenId",
					"type": "uint256"
				}
			],
			"name": "safeTransferFrom",
			"outputs": [],
			"stateMutability": "nonpayable",
			"type": "function"
		},
		{
			"inputs": [
				{
					"internalType": "address",
					"name": "from",
					"type": "address"
				},
				{
					"internalType": "address",
					"name": "to",
					"type": "address"
				},
				{
					"internalType": "uint256",
					"name": "tokenId",
					"type": "uint256"
				},
				{
					"internalType": "bytes",
					"name": "data",
					"type": "bytes"
				}
			],
			"name": "safeTransferFrom",
			"outputs": [],
			"stateMutability": "nonpayable",
			"type": "function"
		},
		{
			"inputs": [
				{
					"internalType": "address",
					"name": "operator",
					"type": "address"
				},
				{
					"internalType": "bool",
					"name": "approved",
					"type": "bool"
				}
			],
			"name": "setApprovalForAll",
			"outputs": [],
			"stateMutability": "nonpayable",
			"type": "function"
		},
		{
			"inputs": [
				{
					"internalType": "address",
					"name": "token",
					"type": "address"
				}
			],
			"name": "setPaymentToken",
			"outputs": [],
			"stateMutability": "nonpayable",
			"type": "function"
		},
		{
			"inputs": [
				{
					"internalType": "address",
					"name": "lawyer",
					"type": "address"
				},
				{
					"internalType": "string",
					"name": "profileURI",
					"type": "string"
				}
			],
			"name": "signUpLawyer",
			"outputs": [],
			"stateMutability": "nonpayable",
			"type": "function"
		},
		{
			"inputs": [],
			"name": "storageContract",
			"outputs": [
				{
					"internalType": "contract IPadiStorage",
					"name": "",
					"type": "address"
				}
			],
			"stateMutability": "view",
			"type": "function"
		},
		{
			"inputs": [
				{
					"internalType": "bytes4",
					"name": "interfaceId",
					"type": "bytes4"
				}
			],
			"name": "supportsInterface",
			"outputs": [
				{
					"internalType": "bool",
					"name": "",
					"type": "bool"
				}
			],
			"stateMutability": "view",
			"type": "function"
		},
		{
			"inputs": [],
			"name": "symbol",
			"outputs": [
				{
					"internalType": "string",
					"name": "",
					"type": "string"
				}
			],
			"stateMutability": "view",
			"type": "function"
		},
		{
			"inputs": [
				{
					"internalType": "uint256",
					"name": "index",
					"type": "uint256"
				}
			],
			"name": "tokenByIndex",
			"outputs": [
				{
					"internalType": "uint256",
					"name": "",
					"type": "uint256"
				}
			],
			"stateMutability": "view",
			"type": "function"
		},
		{
			"inputs": [
				{
					"internalType": "address",
					"name": "owner",
					"type": "address"
				},
				{
					"internalType": "uint256",
					"name": "index",
					"type": "uint256"
				}
			],
			"name": "tokenOfOwnerByIndex",
			"outputs": [
				{
					"internalType": "uint256",
					"name": "",
					"type": "uint256"
				}
			],
			"stateMutability": "view",
			"type": "function"
		},
		{
			"inputs": [
				{
					"internalType": "uint256",
					"name": "tokenId",
					"type": "uint256"
				}
			],
			"name": "tokenURI",
			"outputs": [
				{
					"internalType": "string",
					"name": "",
					"type": "string"
				}
			],
			"stateMutability": "view",
			"type": "function"
		},
		{
			"inputs": [],
			"name": "totalSupply",
			"outputs": [
				{
					"internalType": "uint256",
					"name": "",
					"type": "uint256"
				}
			],
			"stateMutability": "view",
			"type": "function"
		},
		{
			"inputs": [
				{
					"internalType": "address",
					"name": "from",
					"type": "address"
				},
				{
					"internalType": "address",
					"name": "to",
					"type": "address"
				},
				{
					"internalType": "uint256",
					"name": "tokenId",
					"type": "uint256"
				}
			],
			"name": "transferFrom",
			"outputs": [],
			"stateMutability": "nonpayable",
			"type": "function"
		},
		{
			"inputs": [
				{
					"internalType": "address",
					"name": "newOwner",
					"type": "address"
				}
			],
			"name": "transferOwnership",
			"outputs": [],
			"stateMutability": "nonpayable",
			"type": "function"
		},
		{
			"inputs": [
				{
					"internalType": "address",
					"name": "newContract",
					"type": "address"
				}
			],
			"name": "transferTokenCaseBalance",
			"outputs": [],
			"stateMutability": "nonpayable",
			"type": "function"
		},
		{
			"inputs": [
				{
					"internalType": "uint256",
					"name": "incidentId",
					"type": "uint256"
				},
				{
					"internalType": "uint8",
					"name": "status",
					"type": "uint8"
				}
			],
			"name": "updateIncidentStatus",
			"outputs": [],
			"stateMutability": "nonpayable",
			"type": "function"
		}
	]
}